:040000006F10000974
:1000040000000000000000006F0080086F00202541
:1000140000000000000000000000000000000000DC
:1000240000000000000000000000000000000000CC
:100034006F004006000000006F00E00500000000B3
:100044006F0080056F0060056F0040056F0020059C
:100054006F0000056F00E0046F00C00400000000A2
:100064006F0060046F0040046F0020046F00000400
:100074006F00A0266F00C003000000006F00600343
:100084006F0040036F0020036F0000036F00E00265
:1000940001A001A001A001A001A001A001A001A054
:1000A40001A001A001A001A001A001A001A001A044
:1000B40001A001A001A001A001A001A0B717004068
:1000C400130770052380E704130780FA2380E704ED
:1000D4000F1000002396A70223800704371700405F
:1000E40083472705898BEDDF8357070537170040C2
:1000F40083472705898BEDFF371700408347270582
:10010400898BEDDF035507058280B71700409306FE
:1001140070052380D704130780FA2380E7040F10A7
:10012400000003C6B7041376F60DA385C704238025
:100134000704137605023DCA03C6A700118A1DE20F
:100144002380D7042380E7040F10000003C7A7000F
:10015400136747002385E7009307004B0100010064
:10016400FD17EDFFB7170040930670052380D704F1
:10017400130780FA2380E7040F1000007D8923947D
:10018400A70001000100010001002380070423806F
:10019400D7042380E7040F1000003727004093069C
:1001A4001005A303D78023800704828013760504F7
:1001B4006DDE03C6A700418A1DE22380D704238095
:1001C400E7040F10000003C7A70013670701238586
:1001D400E7009307007D01000100FD17EDFFB7174D
:1001E4000040930670052380D704130780FA238008
:1001F400E7040F1000007D89136505042394A7000C
:100204000100010001000100238007042380D704BA
:100214002380E7040F1000003727004093063005C1
:1002240049B74111814601468145114506C651220F
:10023400B7170040130770052380E704130780FAFB
:100244002380E7040F10000003C767041367170037
:100254002383E70423800704B2404101828081465E
:10026400014681451145B122B71700409306700538
:100274002380D704130780FA2380E7040F100000BB
:100284007D562396C7022380D7042380E7040F10EA
:10029400000003C76704136717002383E704238060
:1002A400070401A0BD473305F50201007D1575FD66
:1002B4008280411122C426C206C6AA84014463175F
:1002C4009400B24022449244410182800504130503
:1002D400803E4204C13F4180DDB7B7170040130799
:1002E40000032388E702854723A8F18073002030A8
:1002F400411106C69929FDBF2303048095472303B2
:10030400F4802302A480828083076480E3CE07FE06
:1003140023030480828083076480E3CE07FE0345C1
:100324004480828083076480E3CE07FE2302A48096
:100334008280411126C44AC24EC006C61377F50B0B
:10034400AD47AA892E8995446306F70019456D3790
:10035400653F8D444E854D37FD59FD146398340136
:10036400B240A244124982494101828013550901D5
:100374001375F50F453F2209CDB7011126CC06CEE2
:10038400B704080051371545853F713769372AC6C8
:10039400A53F32459377150089EB13651500137556
:1003A400F50FF240E24405618280FD14E9FC014549
:1003B400CDBF397126DC4ADA4ED852D656D45AD239
:1003C4005ED062CEB7E700E006DE66CC6ACA41477B
:1003D40083AB070422C6B8C37D5703AB070083AAC7
:1003E400470023A0E71823A2E718B7170040130714
:1003F40070052380E704130780FA2380E70483C78A
:100404004704130C75FFB684E207137CFC0F854682
:100414002A8A2E89B28937240040E187015763FA7A
:1004240086016308D5008946130700026313D500CB
:100434000157D98F93F7F70F371D00402302FD04AE
:1004440011472303E4801305F00F7D35894C6D3D7E
:1004540063EB8C11B70707003E993787070079557E
:10046400637EE902B3079900636AF702A947631C34
:10047400FA0689E48144493D26850DA0CA850945CB
:100484004D3D850903C5F9FFFD140509613D81C48E
:100494009377F90FFDF7D53569FD7D55B717004002
:1004A400130770052380E704130780FA2380E70409
:1004B40003C74704418B2382E704B7E700E023A086
:1004C4007705F25023A0671123A25711E254324456
:1004D4005259C259325AA25A125B825B724CE24C94
:1004E400524D21618280A5476314FA0685699307FA
:1004F400F00FB3869700B374F900B69493C7F7FF6F
:10050400FD8C33F92701416A056C9387F9FFB3F732
:10051400270199E363FC340193D94900C147E3E619
:1005240037FF89BF8567C169FD17E1B71305800DE2
:1005340063884901130500026384890113051008C7
:10054400CA85C53B1D3D31D94E99B3843441D9B7D1
:10055400CA852D45F93BCE94E38E99F08509653B18
:10056400A38FA9FED5BF9307FAFF93F7F70F63ECA8
:10057400FC0803475D04B70708001377070219E373
:10058400B78707007955E37BF9F033079900E3E770
:10059400E7F089476310FA048980554AE38C04EC38
:1005A400CA8509457933910903A7C9FF91472320D7
:1005B400E48003076480E34E07FE23034481FD17B0
:1005C400EDFBFD14110981C49377F90FE9FF75332D
:1005D40071F5E1B58547E307FAF4CA852D45913BEA
:1005E4001389F4FFE38804E83D339377390091EBF2
:1005F4008326048003A7090093874900E39DE6E668
:10060400BE89CA84F1BFB5476316FA001305900B7F
:10061400E5318DB5B1471305B00AE30BFAFE9947EE
:10062400631EFA02CA852D45293381440D4C214AA3
:10063400DD31639684018327048023A0F9008504B7
:10064400E39844FF832704801317290163550700A7
:100654002392F90005B523A2F90029BD9D4763192A
:10066400FA0281451305B004E931BD4423A0090011
:1006740023A209007D59453193F77400CE9703C72F
:100684000700FD14398D2380A700E39624FFDDB312
:10069400A1476312FA04D5318144630D09008D47E3
:1006A4009304C0036308F9009304000563049901EB
:1006B400930440041375C507E30E95DA19452D39E3
:1006C400A131054515392685B1390945A139753159
:1006D400E31205DAD9B391476319FA0013056006EA
:1006E40021391D311305900925B7E3050AD8F154C2
:1006F40059B309CDB7170040130770052380E704E9
:10070400130780FA2380E7042396A702828019C185
:10071400814799E982803387F500834607003307D0
:10072400F50085072300D700E397C7FEE5B719C195
:10073400FD5781E98280910503A7C5FF1105232E8A
:10074400E5FE7D16E319F6FEF5B7797122D4172478
:1007540000001304A4281C4006D626D24AD04ECE4C
:1007640091C782979727000023AA07265C4089CB6C
:1007740003D50182BD3F5C40829703D52182953F1A
:100784001C40639907189727000083C73727858B78
:1007940095C797270000A383072617270000034760
:1007A4001726914763FCE7009D219727000083C724
:1007B4001725F9178A07A2979C4382979727000069
:1007C40083C78728918B89C797F0FFDFE78040298B
:1007D4001C4491C382979387C181984317260000D4
:1007E4000346961D3E89972400009384E41C9727B2
:1007F400000083C7671C93961700BA9683D6060039
:10080400638006109727000083C7071B63F2C7089D
:1008140086073E97835507002310070003D50182FE
:100824002EC623940182F135938741839C43172577
:1008340000000345651813172500BA979C43B24579
:100844008297AA8903D521826D359727000083C733
:10085400A716139717008327090003D58182134530
:10086400F5FFBA9703D7070033753501598D2390E7
:10087400A70083C70400850793F7F70F1727000025
:10088400230CF712172700000347171363E6E7004A
:1008940097270000238207121C40ADEF9387C18283
:1008A40098433E8425CB9727000083C7971591CBA7
:1008B4009727000083C7B71489E797F0FFDFE78025
:1008C400E0D01C4082972A8431C59C48AA971727F8
:1008D4000000232BF70E938701839C4385CF03D518
:1008E4000182013D228597E0FFDFE7804023225407
:1008F400B25092540259F24903D521824561D5BBC5
:10090400850793F7F70F972600002387F60AE3E09D
:10091400C7EECDBDB250225492540259F2494561FA
:1009240082809167B7C600409387373023A6F620AC
:100934000F1000009727000093870708884F9387BC
:1009440001859C43316713073730F053B707100014
:10095400FD17918F99833A0523A6E6205D8D828049
:100964004111B7170040985F3AC6945F3247E39C41
:10097400E6FE324541018280411106C6D5379726ED
:10098400000083C6E600858AB1C693073033330777
:10099400F502B337F5023983CA07D98F1727000048
:1009A40013078701584B01456303F7023385E7407A
:1009B400636BF70037653D0889C637856F081305F3
:1009C4000590198D3E95172700002321F700B240AA
:1009D40041018280E5473307F502B337F5022583E9
:1009E400DE0765BF411122C41384018418404AC044
:1009F40006C61C5F26C21389C1839983858BC1C334
:100A04001C5F97240000938424FF93F7F7F91CDFFD
:100A14009727000083C747FE93F707048DC3938786
:100A240081839C4382979727000023AFA7FC83C749
:100A3400040093F7F70B17270000230FF7FA8547F5
:100A440017270000A30CF7FA83C7440093F70704A1
:100A540081EF938701859C43D844B8D3930700FC66
:100A640017270000230CF7F88387640063D9070075
:100A7400832709009C43172700002302F7F8184036
:100A84001C5F8583858BC9CBF5571CDF01000100F2
:100A9400010001000100010001000100010001004A
:100AA400010001000100010001000100010001003A
:100AB400010001000100010001000100010001002A
:100AC400010001000100010001000100010001001A
:100AD400010001000100010001000100010001000A
:100AE40001000100010001000100010001000100FA
:100AF40001000100010001000100010001000100EA
:100B0400010001000100010001000100938701853B
:100B14009C4313075004B8CB18401C5F9183858B0A
:100B240089CFBD571CDF938701859C4323A8070405
:100B34008547172700002303F7EC83270900D843D0
:100B44000583058B19C7D843759BD8C3D843799BB4
:100B5400D8C3B2402244924402494101828039718F
:100B640006DE16DC1ADA1ED82AD62ED432D236D0B5
:100B74003ACE3ECC42CA46C872C676C47AC27EC059
:100B84009535F250E2525253C2533255A255125681
:100B940082567247E2475248C248324EA24E124F22
:100BA400824F216173002030938701859443172776
:100BB4000000130767E4BC5289CF83472700858B65
:100BC40089EB83473700858BFDD797270000238760
:100BD40007E2828037C700401306C0039306200350
:100BE40097250000938545E183278720C18393F7E8
:100BF400F7036369F60083278720C18393F7F7031C
:100C040063E6F60083C74500858BF9DF828093870E
:100C14000185944317270000130707DEBC5289CBD4
:100C240083470700858B91CB97270000238807DC37
:100C340097270000A38407DC828083471700858BF5
:100C4400F1DFDDB793870185904337C70040C14585
:100C5400E54683278720C18393F7F70363FBF500F9
:100C640083278720C18393F7F70363E4F6003C529C
:100C7400EDF38280138701841843AA87185F1583D4
:100C8400058B25EF0345150015051377C51F19C6F8
:100C9400B386E70083C626002300D60095C59726B1
:100CA400000083C6C6D593F606040945A1CAB386D7
:100CB400E70083C63600054693F5F6066390C5043F
:100CC400E206E18663CC06023385E700834715001C
:100CD40003470500A20793F70770D98F13970701FD
:100CE40041839376074099C6136707802394E18470
:100CF400014582802394F184E5BF05458280938673
:100D040001858C423685972600009386E6CE984569
:100D140093170701C183137817203E8663040804E0
:100D24001377072079C303C7260013671700172812
:100D340000002304E8CC13070019B8D1130700F806
:100D440097250000238CE5CA138701840C433708D8
:100D54000010D855719B13672700D8D59841336785
:100D6400070198C11377261005C31376061059CED0
:100D740003C706001367170017260000230EE6C6F4
:100D840017270000231E07C683C6460093C7F7FF34
:100D9400C207E206E186C183184163D10602939635
:100DA400170163DE060630538D4663E9C6008546A7
:100DB400172600002304D6C43453FDFE97260000F2
:100DC4009386C6BB8386460163DD060093960701BE
:100DD400C18663DC06047053894663E4C600745319
:100DE400FDFE1447F58F1CC7828003C716001367E6
:100DF400170097250000A381E5C017270000230FE3
:100E040007BE17270000231D07BEA9BF03C736006E
:100E14001367170017260000A301E6BE95B78546A1
:100E240017260000230CD6BC51BF54471396060165
:100E340063510602B7061000FD1674D3972600000E
:100E4400938686B7944E8506172600002322D6B8CB
:100E540049BFA166D58F71B7397106DE16DC1ADA7F
:100E64001ED82AD62ED432D236D03ACE3ECC42CA5E
:100E740046C872C676C47AC27EC05135F250E25278
:100E84005253C2533255A255125682567247E24704
:100E94005248C248324EA24E124F824F2161730013
:100EA4002030172700001307E7B68346B7019727BA
:100EB400000083C777B9B69793F7F70FFD4663EA47
:100EC400F6044C4B97260000A386F6B4972700003F
:100ED40083C757B405473317F70097260000A38547
:100EE400F6B66D8F1DEF9726000083C636B6B3F6AF
:100EF400D70213050002814733D6F500058A13F89B
:100F0400F70F09CE6399E60097270000A38407B181
:100F1400828081177DB705071377F70F8507E39D57
:100F2400A7FC82809387C1859843B75702009387B3
:100F3400279F8326070913965600635806008326C5
:100F440007091396660063440600FD17FDF38280CB
:100F540051C9AA870145C9C98D07C207C183F19B3D
:100F6400C207C18313074003636BF702138701872A
:100F740008431387818614436396A602172700004B
:100F84001307C79F185B014525C34111C20706C655
:100F94000545DD8D0297B2400145410182801387EA
:100FA400C186F9B70357650005EF03574500636928
:100FB400F702B306F74021466370D60210419386C8
:100FC40087001D8FAA96611790C22392E60023938F
:100FD400060014C12312F5002313B50021058280F5
:100FE400084159BF01458280828001CD93870187E2
:100FF40003A80700938781868C430147C28763E374
:10100400B70082809443636FF50663EDA6061386EA
:101014008700E368C5FE03D56700216605066317EC
:10102400C50003C641870506238AC18623930700AA
:10103400638407031386C1861042630FF6000356C8
:10104400670019EA83D7470014C383564700B6974D
:10105400A1072312F700BA879843E304B7FA9386EB
:10106400C1869442E30FD7F883566700D9FA83D632
:101074004700035647001843A106B2962392D700AF
:0C10840098C382803E87B6879DBF0000A5
:10109000974100209381810617710020130181F68A
:1010A00013054000972500209385C575173600204D
:1010B0001306067E63FAC5008322050023A05500AF
:1010C00011059105E3EAC5FE176500001305452AE1
:1010D000973500209385C57B1386818063FAC50010
:1010E0008322050023A0550011059105E3EAC5FE02
:1010F0001385818097550020938585206377B500FF
:10110000232005001105E36DB5FE9302800873A04E
:101110000230972200209382E26E93E212007390D5
:10112000523037170040930770052300F7049307E8
:1011300080FA2300F7040F1000003C47B70600FABE
:10114000E116F58FB70600069506D58F3CC79712B6
:1011500000009382A2E473901234730020303D4368
:101160002A876373C3029377F700BDEFADE59376EB
:1011700006FF3D8ABA960CC34CC30CC74CC7410747
:10118000E36BD7FE11E28280B306C3408A06970262
:10119000000096966780A6002307B700A306B70055
:1011A0002306B700A305B7002305B700A304B700C3
:1011B0002304B700A303B7002303B700A302B700BB
:1011C0002302B700A301B7002301B700A300B700B3
:1011D0002300B700828093F5F50F93968500D58D97
:1011E00093960501D58D61B793962700970200006D
:1011F00096968682E78086FA9680C1171D8F3E9666
:10120000E374C3F8A5B7B717004003C77705137792
:10121000E70FA38BE704130700F8A38DE7043D470E
:10122000238CE70413075003A38CE7048280B717CD
:10123000004003D587005D715ED64205418186C6B8
:10124000A2C4A6C2CAC04EDE52DC56DA5AD862D454
:1012500066D26AD06ECE9377050C13070008814BD7
:10126000638EE718130700046392E716B7240D8F07
:101270007D8993840480B3D4A4029167938707E89F
:10128000BE94A167938707D0B3D4F402EF40004621
:1012900097670000938787DA9043D443EF30D07983
:1012A000EF4050072A8B939C040103D9818093DC83
:1012B0000C0163150900056913090980B71700407F
:1012C000130770052380E704130780FA2380E704DF
:1012D0000F1000000547371A0040939D0401096C68
:1012E00085662389E704D14A814E8145130D0A049E
:1012F00013087005130680FA894893DD0D01130C5D
:101300000C712943FD1623000D012300CD000F10A1
:10131000000023162A0323000D0083472A05898B2A
:10132000EDDF83570A0583472A05898BEDFF834745
:101330002A05898BEDDF83570A0523942181C20793
:10134000C183338597419319050193D90941638678
:1013500009163387B9026350070E850EC20E93DE5D
:101360000E0163EAD80D63DB050A3305B04093151F
:101370000501C185C204C18063D9350BB717004090
:10138000130770052380E704130780FA2380E7041E
:101390000F1000000965130505713385A50223961A
:1013A0007703238007043345950242054181B64007
:1013B000264496440649F259625AD25A425BB25BBD
:1013C000225C925C025DF24D61618280B1E3B77490
:1013D00089097D8993840480B3C4A40291679387AB
:1013E00007E8BE94A167938707D0B3C4F402EF4027
:1013F000E02F976700009387E7C479BD97670000E7
:10140000938787C3856403AB07009384843861BDE9
:10141000130B0000954441BD3A89F5B5B387FC40F4
:101420009399070193D90941B1B70965130505716E
:101430003385A9028DBF3385B74163E4FC00338552
:10144000FD40330585033344B5036345830013151D
:101450000401A9BF4E8536C642C432C2EF40205FA8
:10146000DA85EF40A02FEF406058931E050193DE10
:101470000E41B307D941C207C183056E3E871246AC
:10148000224889482943B24663E3C70136874207A9
:101490004183631A270113071900634430011307BE
:1014A000F9FF42074183FD1A93FAFA0FCA8BCE85E2
:1014B000E3940AF62394E18059BF0145CDBDB717E7
:1014C000004003D587005D7186C642054181A2C4F4
:1014D000A6C2CAC04EDE52DC56DA5AD85ED662D4F4
:1014E00066D26AD06ECE02C69377050C1307000849
:1014F000638FE714130700046393E712B7240D8F7B
:101500007D8993840480B3D4A4029167938707E80C
:10151000BE94A167938707D0B3D4F402EF40001DB7
:1015200097670000938787B19043D443EF30D05042
:10153000EF40405E2A89939A040103DBA18093DA8D
:101540000A0163150B00056B130B0B80B7170040E6
:10155000130770052380E704130780FA2380E7044C
:101560000F1000000547939B04018969056A2389D0
:10157000E704D14D014D814C93DB0B019389097137
:101580007D1A5A8597200020E7808033330C55411F
:10159000420C135C0C412395618163030C16B30765
:1015A0009C0363D3070E050D420D135D0D018947A2
:1015B00063ECA70D63DD0C0A33059041931C050114
:1015C00093DC0C41C204C18063DA8C0BB717004076
:1015D000130770052380E704130780FA2380E704CC
:1015E0000F1000000965130505713385AC02324701
:1015F0002396E70223800704334595024205418183
:10160000B640264496440649F259625AD25A425B81
:10161000B25B225C925C025DF24D61618280B1E35B
:10162000B77489097D8993840480B3C4A402916747
:10163000938707E8BE94A167938707D0B3C4F402E9
:10164000EF40C00A976700009387C79FF1BD976777
:1016500000009387679E856403A9070093848438FC
:10166000D9BD130900009544F9B53E8B19BF3385E8
:10167000AA40131C0501135C0C41A9B709651305A9
:1016800005713305AC028DBF63FEAA0033057541B9
:1016900033053503A9473344750363C88700131521
:1016A0000401B1BF3385AB40E5B76285EF40203A16
:1016B000CA85EF40A00AEF406033131D0501135D9A
:1016C0000D413307AB41420741838565BA876363A8
:1016D000B700D287C207C183639A670193071B00D3
:1016E000634480019307FBFFC207C183FD1D93FD87
:1016F000FD0F5AC6E28CE39A0DF62395F18045B7AB
:101700000145FDBD41112A83014E930E407E130F0A
:101710000019930F400663ED6E0A93080019130336
:101720004006B3781503854E0D4FA14F3373650204
:101730000D891335150063E7BE0C1308F6FF7946D3
:1017400072984208135808013307C70213D61700CE
:10175000BE0732976146B3F6C60213068070B386A1
:10176000C6023697A166F58F42075D8FB717004016
:1017700083C6F70293F60608A307D1000346F100DB
:1017800083C6F70293F60608E394C6FE8346F1008B
:1017900093F6F60FF1DE930670052380D7049306C7
:1017A00080FA2380D7040F10000023AA070383C602
:1017B000170393E60608A388D702D8DB03C71703ED
:1017C00013670704A388E70223800704410182808E
:1017D0007D133368E3039308E016630E0800336853
:1017E000F3039308D016630808009378330093B886
:1017F00018009388D81633081E01131E0801135EC3
:101800000E0111BF6393E503054863860800014894
:10181000630303002A8871087298FD15131E0801DE
:10182000C205135E0E01C18139B713F8150063F4C8
:10183000BF007908D5B713381800E5BF914763EEAC
:10184000B70217670000130767808A05BA959C41A5
:10185000BA978287B717004003A7470B1345F5FFD8
:10186000698F23AAE70A03A7070B698F23A8E70A52
:1018700003A7070A798D23A0A70A8280B717004023
:1018800083A6470B1347F5FFF98E23AAD70A83A631
:10189000070B558D23A8A70A83A6070A758F23A0D7
:1018A000E70A8280B717004003A7470B498F23AA96
:1018B000E70A03A7070B1345F5FF45BFB71700401D
:1018C00083A6470B1347F5FF758F23AAE70A03A7E3
:1018D000070A598D4DB7B717004003A7470B498F2B
:1018E000EDB7B717004003D58700420541819377D4
:1018F000050491EB9377F5013755E8011305058051
:101900003345F50282809377050C13070004639733
:10191000E7009377F50137459C1CCDB7216513058A
:1019200005D08280B7F700E0C8439C47828081479A
:1019300037370040A14663C4C70032858280034523
:10194000B740E38EA6FE3385F50003450500850705
:101950002304A740CDB797370020938727FA9C43ED
:10196000175700201307C7993E95636EE500176768
:101970000020130727496368A70017370020232F8B
:10198000A7F63E858280FD57EDBF411122C406C6F1
:101990002A84813F2947B307E502B2408D83B3D73C
:1019A000870222449507B3D7E70237370040C207C2
:1019B000C1832316F74041018280716541111305EF
:1019C000052006C6D937B7370040130770F82381C2
:1019D000E7400D47A381E74013070004A380E740D9
:1019E00005472387E740B24041018280411106C686
:1019F000EFF0FF83BD4763F4A700EFF05F83C134CE
:101A0000BD4763F3A700653CB24083D5A18017357D
:101A10000020035525EF41016F00D02C4111939612
:101A20002500AA852D4506C697200020E780A0182E
:101A3000B240014541018280411126C293942500A4
:101A400022C44AC02A843289A686AA850146254531
:101A500006C697200020E7800016A6864A86A28543
:101A6000294597200020E7800015B2402244924487
:101A70000249014541018280011122CC06CE371472
:101A8000004026CA4AC84EC652C483447405034A5D
:101A9000B4058349840503499405EFF0CFF68347E5
:101AA000A40593F4F40F137AFA0F93E71700230DAC
:101AB000F40493F9F90F1379F90FB717004003C72E
:101AC000A705058B6DFF03D5C705A38D4705238C9F
:101AD0003705A38C2705A38B9704F2406244D244B8
:101AE0004249B249224A056182804111939705011A
:101AF00022C406C6C1872E8463DB0700392B11C1BF
:101B0000FD212165218DB24022444101828093F75D
:101B1000150013C51500E5FB9397250163D0070257
:101B2000EF10A03BE13537F60200130606E08965A9
:101B300003C5C180EF00300E0965E9B79397150121
:101B40000145E3D207FC175500001305E555EF40AA
:101B5000202F13060064916503C5C180EF00B00B10
:101B600011654DB71D714946975500009385454F46
:101B7000175500001305855C86CEEF00407301E920
:101B8000175500001305054FEF40802B01A037F7D4
:101B900000E0F9575CC7FD571CCB8566B7E700E04E
:101BA00023A0D7101306701010C3B8434146B0C32A
:101BB00023A0D718B8C30F1000001306C003814537
:101BC0004808EF00A06D97370020938727DB3ECAB7
:101BD000896793870780231CF100ED47A301F10279
:101BE0009307A0102312F102D1472303F102A1674A
:101BF000938707E03ECE97070000938767E2BEC455
:101C000097070000938787E3BEC685472304F10248
:101C1000B5472308F102970700009387E7D03EDA23
:101C2000B7F5070097070000938747E53EDE81463A
:101C3000970700009387C7DB7000E1051945BEC018
:101C400097200020E78020F75808814799467000C8
:101C50003E960346060085070507A30AC700E398DA
:101C6000D7FED24791C70357810185676373F70099
:101C700001A04808EF00501CAA8501C917550000B3
:101C800013058540EF40000701A0F64025618280E2
:101C9000411117050000130585E506C622C4EF00B3
:101CA00030161384C1802300A400292803450400B2
:101CB0002244B24037F60200130606E0896541016E
:101CC0006F006075411122C406C6371400409306A8
:101CD00070052300D404130780FA2300E4040F10D6
:101CE00000008347F40293F7A70FA307F402230031
:101CF000D4042300E4040F1000008347F40293E7A8
:101D00002700A307F402DD311305407E23000404FD
:101D100081470147814605468545ED322244B24060
:101D2000014541016F007037011122CC26CA4AC813
:101D300006CE4EC68D472A892E84B284630EF508DE
:101D400091476307F50C8947631EF502A5E58305F6
:101D50000600175500001305653597590000938953
:101D6000A936EF30307983C51400175500001305EC
:101D70002535EF30307883C714006362F4022945BB
:101D8000EF30907B6244F240D244B249CA85424966
:101D9000175500001305C53605616F30B075B38760
:101DA000840083C527004E850504EF30B07413749A
:101DB000F40FD1B793F7150099C717550000130515
:101DC000E530EF40E007098855DC175500001305A2
:101DD000A530EF40E0067DB7A1ED8305060017555D
:101DE00000001305A530975900009389E92DEF30C5
:101DF000707083C51400175500001305652CEF3073
:101E0000706F83C71400636AF4002945EF30D07205
:101E1000914503C54181E929B5B7B387840083C5DE
:101E200027004E850504EF30F06C1374F40FD1BF1A
:101E300093F7150099C71755000013052529EF40A2
:101E40002000098871D4175500001305E528EF30EC
:101E5000307F7DBF41119397050122C406C6C1871B
:101E60002E8463DB0700552A11C151222165218D83
:101E7000B24022444101828093F7150091CB1306B2
:101E8000803E894503C54181792313451400CDB7B0
:101E900093F725009DC7EF1030709306F00F1306DF
:101EA000F00FA945173500201305859EEF10206C13
:101EB0001306803E894503C54181B12B134524009B
:101EC00045BF93F745000145C5D7EF10F06C1735B6
:101ED00000201305E59B834705009306F00F1306CA
:101EE000F00F8507A945173700202303F79AEF1055
:101EF000B011AA851755000013058522EF30905FB9
:101F000013454400B5B779711306000281450A856F
:101F100006D6692617050000130505F4D525238A82
:101F2000A180B7477671938797123EC4B757550083
:101F3000938757553EC6B7D72500938707783EC28B
:101F40008567938707842310F10097070000938724
:101F5000E7DD3EC80A85ED57230EF100EF10804EF5
:101F6000AA85175500001305651AEF30B05893067F
:101F7000F00F1306F00FA945173500201305459102
:101F8000EF109008AA851755000013056519EF306A
:101F90007056B2504561828041111305800406C617
:101FA00097200020E780A096371700408327870AF4
:101FB0008D451305002093E707202324F70AEFF04F
:101FC000FF87E53A175500001305C516EF30506737
:101FD0001755000013058516EF30906661364D39B0
:101FE000EF20A00C0D3797200020E780A0B01DC186
:101FF0008346E5FF1307F00F9147639EE60041110A
:1020000006C697200020E780807EB24081473E854B
:102010004101828095473E858280138781811C43E0
:10202000411122C426C24AC006C601440149BA84ED
:1020300089E7A16585290DC401A803C7E7FF6318D7
:10204000A7021DC8A1656D249840832784FF6317EC
:10205000E40223ACF180FD57232C04FE230FF4FE91
:102060002285B2402244924402494101828011E01B
:102070003E8983A787FF6DBF3E84E5BF232CF9FE11
:10208000D9BF23AC01808280938701839C4399E36D
:102090003E85828003D727006316B70003C7070079
:1020A000E308A7FEDC47E5B74111939705014AC055
:1020B00006C622C426C2C1872E8963DE0700B13F4F
:1020C00011C1353721653345A900B24022449244FD
:1020D000024941018280AA860145E5D901443D4774
:1020E000B3578940858B95CB938741828443BD4705
:1020F00091E28147A2978E070545BE94331585006E
:10210000131405019C40C8404180829723A004001D
:1021100023A20400334524014DBF0504E312E4FC6F
:102120000144CDBF9387C18190439746002083C669
:10213000B608814713F7F70F6360D70A17470020E7
:102140000347F70B914763E0E70A9747002083C7EF
:10215000A70F918BC9EB0111680006CE22CC26CACD
:10216000EF003005FD56630FD50C3247974700202E
:1021700083C7F70163F3E70C174700201307C70372
:102180004047174700200347A7006305D406058B87
:1021900021CF51473304E40263F1870A97200020DE
:1021A000E78040FCB2476373F400A2871747002022
:1021B0000347F7FD998F3E9597470020938707FCCB
:1021C0008387470163CD0702B707C0A86369F5029B
:1021D000B70740573E9525A08507139717003297FC
:1021E0000357E7FF21DB8280130790023304E402E8
:1021F00005805DB762076187635707001D8D19E988
:102200003705C0A801A8E37BF5FE3707C0A8B307D0
:10221000F7403E9597470020938747F6DC53829717
:1022200009ED97470020938727FD9C4F99C7EF0042
:10223000B016EF00305EEF00900AF2406244D244E4
:102240000561828097470020938707F7DC47E38684
:10225000A7FE17470020130767F283464701BA8499
:10226000858A9DC65144338487029747002083C7DF
:1022700017F2E3F487FC97200020E780A0EE974751
:10228000002083C7D7F01D8C2295838744011DBF92
:1022900013049002338487020580C1BF2A9609E5A2
:1022A00082800505A30FB5FEE31DC5FED5BF81479E
:1022B0006314F600054582803307F5008507B38671
:1022C000F5000347070083C6F6FFE383E6FE0145FA
:1022D0008280814711E9014582803307F500034779
:1022E0000700E31AB7FE8507E319F6FE054582806D
:1022F0009747002083C757EC637FF5001387C181A0
:102300009317150008433E9583570500DD8D231074
:10231000B500014582800D458280FD5701111747A8
:1023200000202321F7EA9387018322CC80434EC605
:1023300097490020938989E426CA4AC852C456C2E4
:1023400006CE5AC02A8981444E8A974A0020938A31
:10235000AAE6184481476374E900B307274103A73D
:1023600049021CC409CB03A7CA0063F6E70017475C
:1023700000202329F7E4A1E7835524009DE95C446C
:10238000A1E823A8F182032BC40022859720002016
:10239000E780E0455A8455FC83274A0285CF624492
:1023A000F240D2444249B249224A924A024B056164
:1023B00095BB034504002D3F5C4081CB1CC4835773
:1023C0002400D5DFA2844044F9B71C44CDDBC5BF4F
:1023D000DCC455BFF2406244D2444249B249224A69
:1023E000924A024B056182809747002083C7D7DC61
:1023F0006371F5021387C18193171500084393C5D4
:10240000F5FF3E9583570500FD8D2310B50001456E
:1024100082800D4582809747002083C7F7D9636487
:10242000F50001458280411122C426C24AC006C679
:102430002A842E89B284893901C504C505452DA099
:10244000936504F0C205C181414597200020E780D3
:1024500060300DE197470020938747D29C5B81C78E
:10246000A285114582970145B24022449244024917
:1024700041018280938701839C438DE323A8A1823D
:1024800085472326050004C5231125012300850067
:10249000A300F5002322050055B7BA87D84775FF7A
:1024A000C8C7F9BF411122C426C24AC006C6AA84C1
:1024B0002E89D93E2A8419C123110500974700208F
:1024C00083C787CF6394970023942183CA85268589
:1024D000213F014511E01945B2402244924402498E
:1024E000410182802390A1822391B1828280411197
:1024F00006C623A6A1820295B2409747002023A7D3
:10250000A7CC014541018280994763E9B7008A055C
:1025100097470020938787CCBE9588C18280411160
:1025200006C6EF20D04B71468145174500201305A4
:10253000E5CAAD3313064002814517450020130557
:10254000A5C7A93B23A8018223A6018297470020A3
:1025500083C787C413D527008D8B3E958D473305E0
:10256000F5029305101035051375F50F97470020F8
:102570002385A7C499473305F5021305050F972056
:102580000020E780201D23A2A18225C99947174674
:102590000020034686C23306F60281451306060F65
:1025A000F539938741829C439387070F23AAF182D1
:1025B00017470020034767C00A07BA9723AEF18088
:1025C000C934152E9387418398439747002083C7CA
:1025D000B7BE93962700BA9617060000130606ADFD
:1025E00090C293862700850793F7F70F8A079745D0
:1025F0000020A383D5BCBA9790C3B240410182802A
:102600009747002083C757BB174700200347E7BA07
:1026100063F1E70213874183184393861700174637
:102620000020A30BD6B893962700369708C33E85A3
:1026300082809307F00FE5BF1C41638F0718417735
:102640007D8FB706002089476319D71803574500C7
:1026500063050718411122C419462A849305F00F17
:10266000590506C6BD3105478D476302E5161C4472
:1026700081CB58589947630C0714185C63090714F9
:102680001306C003814517450020130525AF3931D6
:102690001306C003A28517450020130525AE972019
:1026A0000020E78000879747002083D7E7AD974653
:1026B00000209386A6AC99E79307001017470020E7
:1026C0002314F7AC9747002083C727AC91E78547D1
:1026D00017470020230BF7AA9747002083C7F7AAC4
:1026E00091E7ED4717470020A301F7AA974700207D
:1026F00083C7C7A991E79547174700202308F7A884
:102700009747002083C797A891E785471747002080
:10271000A30EF7A69747002083C797A799E783C71B
:10272000060117470020A305F7A69747002083C797
:1027300007A691E7D14717470020230AF7A4974738
:10274000002083C787A595E717470020034747A4C4
:102750001316870161869307C002634806009377CA
:10276000170093B717009387D70217470020230657
:10277000F7A29747002083C797A195E71747002046
:10278000034707A11316870161869307C0026348B8
:1027900006009377170093B717009387D702174760
:1027A0000020A306F79E8347D40191E78947174786
:1027B0000020A303F79E9C5691C78297974700205D
:1027C000239FA79EA93BFD572383F1868147B240F3
:1027D00022443E854101828089473E858280974719
:1027E00000209387A799985739CF411122C426C258
:1027F00006C6BE840297174700200357479C2A84C9
:1028000051C3BA876373A700AA87C207C183BA8678
:102810006373E400A286C206C182958F5147635359
:10282000F706DC5491C38297854717470020230998
:10283000F79C65259747002023938798B240224450
:102840009244410182809747002083C7679B95E7A8
:10285000974700209387479A83C79700850793F788
:10286000F70F17470020A30DF798A18B95C7854751
:10287000174700202316F7987DAD97470020A381C6
:102880000798DDBF9747002083C78797C5DB2244A1
:10289000B24092444101CDB7828097470020938790
:1028A000E78DD857011122CC06CE3E8401C72AC637
:1028B0000297324509CD23ACA182172500201305CC
:1028C000E58B3531F2406244014505618280830722
:1028D000440163DD07009747002023AB078E97274D
:1028E00000209387478423ACF182C1BF9727002043
:1028F00093874787CDBF011122CC174400201304D2
:10290000E487084406CE26CA4AC801E90545F240D4
:102910006244D2444249056182805C58E5DB185C20
:1029200075D77000854582971844B247E300F7FEDB
:102930009305E004174500200355058597200020E6
:10294000E78040E1174700202326A78861D117467A
:102950000020035666839305F00FEFF03F94814407
:1029600017490020130949859747002083C7E7814D
:102970000326C90163C1F402328597200020E78055
:1029800000E701459747002023A6078497470020CA
:1029900023A40784ADBF9735002083D5E57EB38798
:1029A00095020844185C898185043E9508C2029707
:1029B00065BF9747002083C7578063800712411186
:1029C00026C206C6AA8422C44AC07D55CDC89747F0
:1029D00000209387E787B8475DC3173900201309A4
:1029E000E979030549019735002083C5F57A850506
:1029F0007D540548B708C0A8130E000C8346770025
:102A000083270708639906050353070783560703BF
:102A1000637DD3060346D700631906070326070F15
:102A20002DE60326470935E20346F700631FC60576
:102A3000705FB386664079163306D6028326470850
:102A4000B356D602B297AE96C206C182231BD706F2
:102A500063500504958F63F387003E84184359FF44
:102A6000938781839C4382976368A402B307A44041
:102A70009CC09C4035476361F70423A00400B2402A
:102A80002244924402494101828083566707C9B7B4
:102A9000E3F2D7FCC6977DBFB307854063DB070031
:102AA00083074901E3C407FCB707C0A8A297898F31
:102AB000C1B723A0040075BFCD179CC0830749018F
:102AC00063D50700130534FF5DBFB147E3EC87FE14
:102AD0003705C0A84D1522955DB77D558280938638
:102AE000018490429737002083C7676A1397870055
:102AF0000C4293F7F703A2074D8FB78500014D8F66
:102B000018C21842F1759385F50F6D8FD98F1CC2CD
:102B100037170040930770052300F704930780FAE6
:102B20002300F70401000100173600200346266643
:102B3000D14763FBC7048357270293E7070123119B
:102B4000F7029C424567130787E7D8D7984FA166DD
:102B5000558F98CF984FE1769386F607758F8D66DF
:102B600093860650558F98CF13072015D8DB9717FB
:102B700000209387077FB20737070014B183D98FEE
:102B800037E700E07CD7828083572702C207C183E2
:102B9000BD9BC207C18365B7173700201307C76500
:102BA000938741849C43544B184F096694CBD4CBF4
:102BB00098CFD8CF9447D18E94C7D847518FD8C7D4
:102BC00094470566D18E94C7D847518FD8C798438C
:102BD0001367270098C398431367070298C382803E
:102BE0009387C1849C4399CBD44390479842518F9B
:102BF00098C2D447DC4B9842D98F9CC2171300204F
:102C00006700C37A9387C1849C4399CB944BD04B84
:102C10009842518F98C294439C479842D98F9CC246
:102C2000938701859C43094798C3171300206700C9
:102C3000E3779387C1849C4399CB944BD04B9842C4
:102C4000518F98C294439C479842D98F9CC29387D6
:102C500001859C43A8CB171300206700E37E9737BC
:102C6000002083C7175A8DE71737002003473759CD
:102C70009307B7FF93F7F70F894663EBF600973793
:102C800000202380E758854717370020A30BF7560D
:102C90008280138701851C4394438D8A85C2B44B7F
:102CA000E19AB4CB944393E6860094C39C438D830E
:102CB000858B89C701000100010001001C4323A886
:102CC00007049387C1849C4399CBD443904798428F
:102CD000518F98C2944BDC4B9842D98F9CC2973746
:102CE0000020A38E07508280938601859C429843E2
:102CF0000D8B05C3B84B619BB8CB98431367870016
:102D000098C39C438D83858B89C701000100010016
:102D10000100938701849C4337080010D857719BAA
:102D200013672700D8D798433367070198C3984F94
:102D3000370800F97D183377070137080002336739
:102D4000070198CF984F137737F81367870198CF0B
:102D50001387C185032807000327C802759B232614
:102D6000E8021377F6079043137606F8598E90C35E
:102D700088C7CCC3973700202380074897370020A7
:102D8000A38E074698429737002023890746FD47C0
:102D90005CC39387C1849C4399CBD0438C47144236
:102DA000CD8E14C2D047DC4B1442D58F1CC2856730
:102DB0009387870B9736002023A6F64485471CC3CC
:102DC000930790053CCB8280411197370020A38A5E
:102DD000074222C406C626C21734002003446442B8
:102DE00095476318F4069737002093876746985FE6
:102DF0003E8483467700A9CA03465700B75555005D
:102E000037C5898E93855555130565EDF13D973688
:102E1000002083C6D63E9387A6FF93F7F70F05479A
:102E2000636AF70097370020238DD73C973700203F
:102E3000A389E73C954717370020A302F73C1C5CA9
:102E4000130710FA2383E700B24022449244410161
:102E500082809947631DF402973400209384443F95
:102E6000BC4003C777006DD303C65700B755550064
:102E700037C5898E93855555130565EDB53597375B
:102E80000020A38E8736BC40130710FB65BF9D470B
:102E9000E31CF4FA9737002083C7C737858B1736B2
:102EA0000020034656399736002083C6C6389DC396
:102EB0009737002093870738C84309CD834515000D
:102EC0000905EF00701449D1854717370020A30A80
:102ED000F7329DBF81450145EDB7973700209387B5
:102EE000A7319C4FA1CB411106C622C47531138472
:102EF00001850D22EF10602ADD361C401307D00536
:102F0000B8CBEF10005DEF20802CEF100040EF10E9
:102F100080478547173700202304F72E1C4023A83D
:102F20000704353BB240224497370020A389072C81
:102F3000410182808280411122C417340020130491
:102F4000A42B1C4C06C626C285CB938401859C40CD
:102F50001307D005B8CBEF1000439C4023A807040B
:102F600083478400850717370020230BF728C539CE
:102F700097370020A3850728B2402244924441019C
:102F8000828023A60184B7C7004023A2F18413875F
:102F9000073023AEE1821387072023A8E1849387BB
:102FA000071037D7004023AEE18423A0F184054702
:102FB000411197370020A384E72422C4173400204E
:102FC0001304C41B1C4006C69736002023A0F62419
:102FD000938707119736002023ACF62297370020FD
:102FE0002380E722DD3D37E700E0B707100023200C
:102FF000F710B70620002320D710030744016357BA
:103000000700138701851843FD177CD3B240224483
:1030100041018280938701859C43930600052947DF
:10302000D4CBD8CF9305C008CCD31306C003D0D7D8
:10303000CCDBD0DFF4C3F8C71307600FB8CF31671C
:1030400013073730D8C797170020938727613707B2
:1030500000F07D8FB7E600E0B207F8C2B183370712
:103060000015D98FBCD68280938701849C43B70614
:1030700000F9FD16984F758FB7060004558F98CF4D
:10308000984F137737F81367C70198CF1387C18517
:103090001443F5CD37B724001307F7E96361A70898
:1030A0009843137707F81367570298C3054763944B
:1030B000E500130585C1D856370810FE7D18136743
:1030C0002700D8D64167130707A03356E5023377A8
:1030D000E5021305A00F7D8A93154601F042337671
:1030E00006014D8EF0C2F042B705FCFF6D8E2A0737
:1030F0003357A7023A073983518FF8C21737002098
:1031000003474711098B19CB98431377F707936649
:1031100007049843137707F8558F98C382803707C1
:1031200025001306F7486363A6023767DBFF130722
:1031300007932A971306007D3357C7027D179043E4
:103140001377F707137606F8518F85B713070749EA
:103150006318E5009843137707F813676702B1B760
:1031600037D725001307F777636DA7003767DBFFB5
:10317000130707932A971306007D3357C702791761
:103180007DBF9843137707F81367770239BFD85686
:10319000759BD8D61377F5078843137505F8498FC3
:1031A00098C3A9BF938781839C43011122CC4EC64B
:1031B00006CE26CA4AC852C456C282979737002004
:1031C00093874707804781496308A406BE849737E1
:1031D00000209387A7FA038747013E8963580706B3
:1031E000018D135455009737002083C74704937906
:1031F000F5016360F404370AC0A8B70A4057971076
:103200000020E780404A9C449736002083C626026F
:10321000139756003E9783074901158C63C5070035
:103220006363470156979737002023A9E700E378A7
:10323000D4FC1604B3693401F24062444E85D24492
:103240004249B249224A924A05618280E37A85F86E
:10325000B707C0A833848740229561B793878183DD
:103260009C43411122C406C626C28297973700208C
:10327000938747FC80476309A406BE8497370020E4
:103280009387C7EF8387470163D80704018D1354E1
:1032900055009737002083C787F96367F4049710B8
:1032A0000020E780404098449737002083C727F8E4
:1032B0009396570036971D8C9736002023A0E6F88A
:1032C000E37FF4FC2244B2409244173500200345CA
:1032D00075F48145410149BBE37A85FAB707C0A877
:1032E00033848740229565B7B2402244924441011D
:1032F0008280411106C697370020238807F4EFF03B
:103300005F9901458145EFF02FA0B2400145410191
:103310008280011126CA973400209384A4EF83C7CA
:10332000040022CC06CE4AC8858B17340020130433
:10333000A4EC6385070E83472400858BE1C797378C
:103340000020238C07EAEFF0BF8965379C480146CF
:10335000814505458297834734002689858BC1C7FF
:10336000084C97370020A38A07E881451306F1002F
:1033700097370020238407E897100020E780C00FCC
:10338000AA850DE11C4C9306F00F03C70700630BE1
:10339000D7009737002083C7F7E96385D700630319
:1033A000F70089458307090063C707001C4C0347E2
:1033B000F1002380E70083270901104C094582971B
:1033C0009737002083C747E8898B81CB8545173520
:1033D00000200345A5E7EFE0BFF1F2406244D2448C
:1033E000424905618280938701859C43BC53F5F770
:1033F00097370020238407E09C48014681454945D2
:103400008297E1BFFD35EFF08FBD9737002023870E
:1034100007DE9C48014681454545DDB783473400BA
:10342000858B99CFF93597370020A38807DC97372C
:103430000020238507DC9C48014681450545C9B726
:103440004D3DE1B71C4963820712411122C406C6F3
:10345000834705002A8493F7070489C75C4109451F
:1034600063810710130600028145173500201305FC
:1034700065DAEFE0BFE2A2851306000217350020EF
:10348000130545D997100020E780A0A81734002025
:10349000130444D85C4891E7FD57173700202325D3
:1034A000F7D89737002083C777D899E7930780022A
:1034B00017370020A30CF7D69737002083C727D7EC
:1034C00091E7A147173700202303F7D6973700204D
:1034D00083C7F7D591E7C54717370020A309F7D46D
:1034E0009737002083C7C7D491E7ED5717370020DF
:1034F0002300F7D49737002083C797D391E7ED5780
:1035000017370020A306F7D297370020938787D27A
:10351000C84309C597100020E780602D9737002029
:1035200023AC07D083470400858B85C31735002063
:10353000034515D093059004090597100020E780F6
:1035400060219737002023A9A7CE834714000145A7
:1035500017370020A30BF7CE1C4417370020232178
:10356000F7CEB240224441018280054582807971C4
:1035700026D2973400209384E4C99C4406D622D4F2
:103580004AD04ECE52CC56CA5AC85EC6638C072665
:10359000138A018583270A0098430D8B09C7984336
:1035A0001367870098C3173900201309A9C88347F8
:1035B0004901B689B28A898B2E842A8B9D4B89EB6F
:1035C00083C7040093F707049DC38945C8402DA015
:1035D000D13EE3FFABFE9737002083C747C5960770
:1035E000D117E3E7A7FE83474901898BF1DB8145CA
:1035F00017350020034515C2EFF01FA783260A00E8
:103600009307A005173700200347C7C0BCCA9377AC
:1036100007046380071CD040B797DBFF93870781BF
:103620003E96E1679387076A63F5C71A9307000D13
:10363000BCD2938701849C439044058B1367E701B8
:1036400090C7D044D0C3D8C203476901136727008D
:1036500097360020238BE6BE17370020A30C37BD1A
:1036600017370020230857BDD857B70600F0FD16BE
:10367000719BD8D79843973900209389E9B7758F04
:1036800098C303A5490163090B1423005501A30046
:1036900085002286DA85090597100020E78060877B
:1036A000938741849C4303A7490181451705000086
:1036B000130565C698CB97370020238007B497374A
:1036C0000020A38C07B297370020238907B2EFE0D0
:1036D000BFE3EFF0CFD88D4717370020A301F7B233
:1036E0009737002083C7C7B49D079207173700207C
:1036F000232AF7B083270A00B8537DFF21671307F9
:103700003730D8C7131744001307C71CB8D31307A3
:1037100000F8973600202383E6AE31671307373071
:10372000D8C783474901898B95CF938781839C4371
:10373000829717370020130767A4030747018327E1
:103740008900635E07081D8D03C704000D8183A7F0
:103750004901418B49CF3707800062051307F72FD6
:10376000598D88C3EFF00FCA9387C18598430145EF
:103770005C578583858BB9C3DC40C165938505A003
:10378000938787C1B3D6B702370810FE7D18B3F709
:10379000B702FD8A139646017443B3F60601D18E33
:1037A00074C39306A00F3706FCFFAA07B3D7D7024E
:1037B0007443F18EBA07B983D58F7CC3B2502254BB
:1037C00092540259F249624AD24A424BB24B456185
:1037D00082809307000AA9BD23205501D1B5E37467
:1037E000F5F63707C0A8B307F7403E95B1BF090407
:1037F0001374F40FA38087003E9423000400A300F9
:10380000A4008DB705455DBF011126CA93840185CB
:103810009C404EC652C4984356C25AC006CE22CCD3
:103820004AC80D8B2A8AAE89328BB68A05C3B84B3B
:10383000619BB8CB98431367870098C39C438D83E3
:10384000858B89C7010001000100010017340020A9
:103850001304449E83474401173900201309899BB0
:10386000918B99E78347090093F70704639507163F
:103870008145173500200345F599EFF0EFFE93875A
:1038800001849C4303278900B706001098C70327CB
:10389000C900D8C3D857719B13672700D8D798435E
:1038A000558F98C3834709009840858B93E7E701BC
:1038B0005CC397370020A380679997370020238C3B
:1038C00057975C43858BADC75C4085E31735002077
:1038D0000345159693059004090597100020E7808D
:1038E00060E79737002023A9A7945C400545F1CBFA
:1038F00017370020034727942380E7005C406300CC
:103900000A0E638E090CA380370148404E86D2858B
:10391000090597000020E780C05F938741849C439E
:103920005840D8CB93070004173700202306F78CA4
:10393000EFF0EFB28347640193E7470017370020A9
:103940002305F79097370020A388078A9737002030
:10395000A386078A973700202382078A9D47173757
:103960000020A30EF78897370020938727819C5764
:1039700091CB13060064C145173500200345058D22
:10398000EFE07FA99387C1849C4399CBD4439047B0
:103990009842518F98C2D447DC4B9842D98F9CC231
:1039A0009737002083C7C7889D07920717370020E5
:1039B000232AF7849C400547014598C313079005C7
:1039C000B8CBF2406244D2444249B249224A924AB8
:1039D000024B0561828085450325490079BDA3809E
:1039E000070025BF397126DA97340020938484823A
:1039F00083C7040022DC06DE4AD84ED6858B172406
:103A000000201304647F63840730834704009739E0
:103A1000002093892982858B638E072A9387C1852D
:103A20009843032984015C578583858BA1C3DC40BF
:103A3000C165938505A0B3D6B702370510FE7D1585
:103A4000B3F7B702FD8A139646017443E98ED18E0F
:103A500074C39306A00F3706FCFFAA07B3D7D7029B
:103A60007443F18EBA07B983D58F7CC381451306A1
:103A7000F1014A85972700202380077897100020BE
:103A8000E780809FAA850DE19727002083C7B77A3A
:103A90009306F00F638AD700184C034707006305AD
:103AA000D7006303F70089458387040063CE0712BC
:103AB000639E05128347F1012300F90083C7490182
:103AC000918B95C783471900CA9703C707009307CF
:103AD0000008631EF7005C481307F00F98C383C704
:103AE000040093E70701172700202305F77283A737
:103AF000490013870185184383C71700A166938681
:103B000036309387070A54C792073CD3930700F8CF
:103B1000972600202384F66EB167938737305CC701
:103B20001305A005EFF0EF9097100020E780608E5E
:103B3000EFF02F969726002083C6067193F7460074
:103B4000638C0714172700201307476303064701F8
:103B50001C48635E060CF117172700202326F76A1E
:103B60001C4803A78900635C060C3387E740834742
:103B7000190093958601E185CA9783C717008E07C0
:103B800063DE050C63F3E70C1D8F9306000263EB05
:103B9000E6001848635E060AB307F74017270020BF
:103BA000232EF7688945172500200345256AEFE095
:103BB0002FF483C70400C18BF9CB03A54900172656
:103BC0000020034656679726002083C6C6664DCD63
:103BD0008345150009050D3983C70400BD9B1727D0
:103BE00000202309F76215A8E38A05EC2EC6EFF042
:103BF0004F8A104C9C48B2450D45829703A5490059
:103C000017260020034636639726002083C6A66247
:103C100001CD834515000905C53EF2506254D254CA
:103C20004259B2592161828081450145F5B70D475E
:103C3000E363F7F23707C0A87117BA9731BFE3F60D
:103C4000E7F2B705C0A8AE970DB73387E74035BF99
:103C5000E374F7F4B706C0A836973DBF1848635F12
:103C60000600B307F74093E606F81727002023273E
:103C7000F75C972700202389D75C2DB7E373F7FE05
:103C80003706C0A83297F1BF81450145A9B78347E0
:103C90001900F917A300F900EFF0AFE59C48104CAC
:103CA00081450D45829783471400858B99CB9727D3
:103CB0000020A38307549C48014681451145829703
:103CC000A9BF97270020238B07529C4801468145B6
:103CD0005145F5B703A54900172600200346B65500
:103CE0009726002083C6265505C183451500090582
:103CF000213E97270020938767489C5B894591DF89
:103D000013051008829711BF81450145D5B7834738
:103D10001400858BA9CF97270020A38F074CEFF0C5
:103D20004FDD084C9306F00F014903470500630B74
:103D3000D7009727002083C717506385D7006303F8
:103D4000F70009498387040063D0070201468145D3
:103D500097000020E78040723365A9009375F50F46
:103D60009C48104C0D45A1BF2A868145D5B79726A2
:103D7000002083C6464C172600200346D64B8145BB
:103D80000145EFF07FA8972700209387273F9C5B92
:103D9000E38507E88545ADB7972700202387074AC5
:103DA0009727002093870749C843411106C609C5D4
:103DB00097100020E780A0A39727002023AE074696
:103DC0009727002083C7F74381CF17270020034799
:103DD00047439D476316F70097270020A3830742B8
:103DE0009726002083C6B6419387B6FF93F7F70F57
:103DF0000547636AF700972700202384D740972759
:103E00000020A380E740EFE0DFE8C1451725002050
:103E10000345C543EFE00FE901458145EFE0CFEEF3
:103E2000B240014541018280411106C622C4AD372E
:103E3000972700209387074003C77701DC47A145F8
:103E4000172500200345854097260020A384E63CE3
:103E5000172700202324F73CEFE0CFE491451725F6
:103E600000200345A53EEFE0EFE39727002083C73E
:103E7000A73D13F72700172400201304A43919CFF6
:103E80001C4801468145130520028297B240224416
:103E900097270020238A073A41018280918BFDD722
:103EA0001C480146814513054002C5B7797126D2E9
:103EB000972400209384043883C7440106D622D473
:103EC0004AD04ECE52CC56CA5AC85EC6898BD1CF84
:103ED000972A002083CA0A3493E71A012169856969
:103EE000316A172700202307F7320144172B0020DF
:103EF000130B8B30938B018513093930938929F982
:103F0000130A3A309726002083C6D632172600209F
:103F10000346463281450145EFF06FE583472B00AC
:103F2000858BEDD3972700202389072CEFE05FCB0B
:103F300083473B00858BA9C7EFF0AFBB97270020D5
:103F4000A38D072A83C74401854517250020034513
:103F5000E52F93E707F8172700202307F72EEFE058
:103F60002FB9972700202387572BB2502254925401
:103F70000259F249624AD24A424BB24B45618280B1
:103F8000EFF02FB705041374F40FA1476314F40086
:103F9000613DC1BF83A70B00130700F823A62701CB
:103FA00023A0370797260020238AE62423A647016B
:103FB000B8537DFF81BF411122C406C693F7150097
:103FC0002E84B9C39727002083C7072813F727003B
:103FD00015C7E207E18717250020034525271306AB
:103FE000000563DA070017260020034636249307EE
:103FF000000A3306F6029145EFE0EFC113451400C5
:10400000B24022444101828093F72500B1C3972733
:10401000002083C7672313F7470005CBE207E1873A
:1040200017250020034585221306000A63DC0700DC
:10403000172600200346961F9307000A3306F60250
:1040400013068602A145EFE00FBD134524004DBFC6
:1040500093F7450089C7993D1345440055B793F739
:10406000850099CB9727002083C7071E918B91C3AA
:10407000653B1345840069B793F705010145C9D332
:10408000EFE0EFF517270020034777179D47631BE5
:10409000F70013060064C145172500200345051BE2
:1040A000EFE06FB713450401A1BF411106C622C45A
:1040B000EFE03FED172400201304C417714681453B
:1040C0002285EFE0AF9DFD57170500001305E5EED3
:1040D0001CC0EFE0EFD2230CA400954517050000AB
:1040E00013058590EFE04FC2B240224401454101E3
:1040F00082809387C18594430566D846518FD8C680
:10410000514701007D1775FF9043FD76FD16584617
:10411000758F58C6514701007D1775FF944305669A
:10412000D846518FD8C6514701007D1775FF94437B
:10413000D84613671700D8C6514701007D1775FF91
:104140009443D846799BD8C6514701007D1775FF27
:104150009443D84613671700D8C6514701007D170E
:1041600075FF9443D84613670710D8C6514701001E
:104170007D1775FF9443D8461377F7EFD8C651479C
:1041800001007D1775FF98435C4793E707105CC7F4
:10419000D1470100FD17F5FF8280411106C6913F0E
:1041A0009387C1859C43130700483703009098D735
:1041B000B8477D13370E0020337767003367C70198
:1041C000B8C7B847B70600F9FD16758F3706000463
:1041D000518FB8C7B8473706F9FF7D16419B136763
:1041E0009700B8C7B847B7080080B70E0002718FB4
:1041F000B8C7B847370600FF7D1633671701B8C741
:10420000F84745757D1E619B13673700F8C7F8476F
:104210001377F7F813670703F8C7EC4793F5F58FA3
:1042200093E50530ECC7F847718FF8C7F84711667A
:104230003367D701F8C703A807051307F5FF7D7596
:104240003378E8003368C80023A8070503A84705AA
:104250007D15137808FF1368C80023AA0705F04BE3
:1042600013660608F0CBF04B698EF0CBC85F798DF2
:104270002167598DC8DFCC5F37070040F58DB3E566
:10428000D501CCDFD05FB70570003376C601598EFB
:10429000D0DFD05709674D8ED0D7D057F18ED4D705
:1042A000D45775767D16F18ED98ED4D7D45737066C
:1042B000FDFF7D1637070200F18ED98ED4D7945BAF
:1042C000C19A94DB945B93F6F6F094DB945B93F6DF
:1042D000F68F94DB985BB70600504D8F98DB985BA8
:1042E00033776700558F98DB985FB70608FFFD1698
:1042F000758FB7061800558F98DF985FB368170160
:1043000023AC1703B240410182801387C1851C434F
:1043100041767D16B44BF18EB4CB9447370620001E
:10432000D18E94C7D44793E60601D4C7D447BD9A2B
:10433000D4C7010001000100010014430566DC46FA
:1043400093E70701DCC6DC42D18FDCC283A7C60934
:10435000A183858BE5DF01000100010001001C4302
:10436000416603A7C709B44BD18EB4CB9376F7014E
:10437000B84B019B558FB8CB9847B706E0FFFD16A9
:10438000758F98C782801388C185417703C6818560
:10439000832708007D1763180610B44FC1654111CB
:1043A000F98EB4CF9447C16E3D4FCD8E94C78D4FDB
:1043B0008147414E83260800CC4693F5F5EFCCC6E5
:1043C000CC42B3E5D501CCC2CC4693E50510CCC6B2
:1043D00083A5C608A1818589E5DD010001000100F2
:1043E00001008326080003A5C608CC423D89F98D4B
:1043F000CCC26305E50105061376F60F814513F37C
:10440000F50F636AF3006311F30493080101C69585
:104410002388A5FE15A8AE888505B302B10083C226
:10442000F2FFE37E55FCBE8593020101AE9283C389
:10443000F2FEFD1593F5F50F238872FEE316B3FE29
:104440000C08AE982388A8FE6308F601850793F749
:10445000F70FE391C7F731C283470100214763712A
:10446000F702F5172300F10083470100BD8B139776
:104470007700BC4E93F7F787D98FBCCE410182807D
:1044800011476374F700F917F1BF05476374F7002C
:10449000FD17C9BFF1FB8D47F1B7BC4E93F7F78706
:1044A00093E70728D9BFB44F4166F98EB4CF94473C
:1044B000D18E94C7D44793F6F6EFD4C7D443758F03
:1044C000D8C3D44793E60610D4C7D843518FD8C376
:1044D0008280397122DC1384C1851C4006DE26DA15
:1044E0004AD84ED652D456D25AD05ECE62CC66CA84
:1044F0006AC86EC6D843FD76FD161377F7EFD8C3AA
:104500009857758F98D7D857B70602003D9BD8D7D4
:104510009847558F98C7D84313670701D8C31387A7
:10452000418514433757341213078767E38DE648F4
:10453000D84381749384F40F799BD8C3985FB16694
:10454000658F558F98DFD84313671700D8C397003E
:104550000020E780601D1C4003A707091377F703BD
:104560002380E18603A7470929831377F707A381EF
:10457000E186D843B96693860670799BD8C3985F65
:10458000658F558F98DFD84313671700D8C39700FE
:104590000020E78060191C4003A707091377F70381
:1045A0002381E18603A7470929831377F707A382AD
:1045B000E186D843B56693860630799BD8C3985F69
:1045C000658F558F98DFD84313671700D8C39700BE
:1045D0000020E780601518408327070993F7F70349
:1045E000A380F18683274709A98393F7F7072382DE
:1045F000F1861C4003CC118683C6018603A7070AF7
:10460000B386864113F6F600419B518F23A0E70A3B
:10461000130760023387E6021306700283A5070AB8
:104620007D7E130EFE0F93F5F5F0130540024573E2
:104630007D13130430023347C702B708F1FFFD189A
:1046400013082002930E10027D4FF94FF542F143FB
:104650006D4DD14B454BBD443949314AAD4AB54901
:104660003D8B12074D8F9305500223A0E70A338735
:10467000B60283A5070AB3F5C5013347C7023D8BD0
:1046800022074D8F23A0E70A3387A60283A5070AD6
:10469000370500F17D15B3F565003347C7023D8B43
:1046A00032074D8F23A0E70A3387860283A5070AC6
:1046B0006144B3F515013347C7023D8B42074D8F67
:1046C00023A0E70A3387060383A5070A370810FFEC
:1046D0007D18B3F505013347C7023D8B52074D8F57
:1046E00023A0E70A3387D60383A5070AB70E001075
:1046F000FD1EE98D3347C7023D8B62074D8F23A016
:10470000E70A139756003347C7029315C70103A75B
:10471000070A3377D7014D8F23A0E70A3387E603D3
:104720005D4F3347C7029375F70003A7470A419BC4
:104730004D8F23A2E70A3387F60383A5470AD94F93
:1047400093F5F5F03347C7023D8B12074D8F23A237
:10475000E70A3387560283A5470AD542B3F5C50158
:104760003347C7023D8B22074D8F23A2E70A3387C9
:10477000760283A5470ACD43B3F565003347C702E8
:104780003D8B32074D8F23A2E70A3387A60383A50B
:10479000470A494DB3F515013347C7023D8B420720
:1047A0004D8F23A2E70A69473387E60283A5470AAC
:1047B000B3F505013347C7023D8B52074D8FE545E1
:1047C00023A2E70A3387B60283A5470AE98D334758
:1047D000C7023D8B62074D8F23A2E70A338786020B
:1047E0000D443347C7029315C70103A7470A337720
:1047F000D7014D8F23A2E70A3387E603254F3347BE
:10480000C7029375F70003A7870A419B4D8F23A426
:10481000E70A3387F60383A5870A9D4F93F5F5F0E2
:104820003347C7023D8B12074D8F23A4E70A338716
:10483000560283A5870A9942B3F5C5013347C702DB
:104840003D8B22074D8F23A4E70A3387760383A588
:10485000870AB3F565003347C7023D8B32074D8F9A
:1048600023A4E70A3387760283A5870A9543B3F525
:1048700015013347C7023D8B42074D8F23A4E70A3A
:104880003387A60383A5870A294DB3F5050133476E
:10489000C7023D8B52074D8F23A4E70A3387660377
:1048A00083A5870AE98D3347C7023D8B62074D8F89
:1048B00093954600B3C5C50223A4E70A03A7870A58
:1048C0003377D701F2054D8FB385960223A4E70A0B
:1048D00003A7C70A419BB3C5C502BD894D8F23A657
:1048E000E70A3387260383A5C70A93F5F5F0334714
:1048F000C7023D8B12074D8FB3C5860223A6E70A78
:1049000003A7C70A3377C701BD89A2054D8F23A628
:10491000E70A3387460383A5C70AB3F56500334723
:10492000C7023D8B32074D8F23A6E70A3387560314
:1049300083A5C70AB3F515013347C7023D8B42076C
:104940004D8F23A6E70A3387A60383A5C70AB3F5CD
:1049500005013347C7023D8B52074D8F23A6E70A57
:104960003387E60383A5C70AE98D3347C7023D8B2A
:1049700062074D8F93953600B3C5C50223A6E70A9B
:1049800003A7C70A3377D701F2054D8FB385F60326
:1049900023A6E70A03A7070B419BB3C5C502BD8940
:1049A0004D8F23A8E70A3387560283A5070B93F59B
:1049B000F5F03347C7023D8B12074D8F23A8E70A56
:1049C0003387760283A5070BB3F5C5013347C702CA
:1049D0003D8B22074D8F23A8E70A13972600334704
:1049E000C70283A5070BB3F565003D8B32074D8FDA
:1049F000B3C5360323A8E70A03A7070B33771701CC
:104A0000BD89C2054D8F23A8E70A139716003347C7
:104A1000C70283A5070BB3F505013D8B52074D8FE8
:104A2000B3C5C60223A8E70A03A7070B698FBD8990
:104A3000E2054D8F23A8E70A03A7070B9305800221
:104A40003377D70123A8E70A03C721863307EC4051
:104A5000B34DB70283AC470B93FC0CFFB34B77030A
:104A600093FDFD00B3ECBC0123AA970B83AC470B6D
:104A7000CD4D93FCFCF093FBFB00920BB3EB7C0160
:104A800023AA770BB30B870283AC470BB3FCCC0193
:104A9000B3CBBB0293FBFB00A20BB3EB7C01B34C8B
:104AA000A70323AA770B83AB470BB3FB6B0093FCE5
:104AB000FC00B20CB3EB9B0123AA770BA14BB34BC9
:104AC000770383AC470BB3FC1C0193FBFB00C20BC9
:104AD000B3EB7C0123AA770BB30B570283AC470BD4
:104AE000B3FC0C01B3CBBB0293FBFB00D20BB3EBCB
:104AF0007C0123AA770BB30BF70383AC470BB3FC02
:104B0000AC00B3CBBB0293FBFB00E20BB3EB7C012D
:104B1000B34C770223AA770B83AB470BB3FBDB01C4
:104B2000F20CB3EB9B01B30CE70323AA770B83AB27
:104B3000870B93FB0BFFB3CCBC02B30A570393FC68
:104B4000FC00B3EB9B0123AC770B914B83AC870B41
:104B500093FCFCF0B34B7703330A470393FBFB0052
:104B6000920BB3EB7C0123AC770B83AB870BD54C5B
:104B7000B3FBCB01B3CABA02B309370393FAFA0005
:104B8000A20AB3EA5B0123AC570B83AA870BD94B6C
:104B9000B3FA6A00334ABA0233092703137AFA00D8
:104BA000320A33EA4A0123AC470B03AA870BE14AD6
:104BB000337A1A01B3C9B902B304970293F9F90021
:104BC000C209B3693A0123AC370B83A9870B654A45
:104BD000B3F909013349B902B3C4B4021379F90036
:104BE000520933E9290123AC270B03A9870BE949B3
:104BF0003379A900330B6703BD88E204B3649900DD
:104C00001319470023AC970A83A4870BB3F4D4018C
:104C10003349B902334BBB027209B3E4240123AC1C
:104C2000970A83A4C70BC198137BFB0033EB640185
:104C3000C944B304970223AE670B03A9C70B5D4BAE
:104C40001379F9F0B3C4B402BD889204B364990037
:104C500023AE970AB304B70303A9C70BF54D337905
:104C6000C901B3C4B402BD88A204B364990023AEE1
:104C7000970A8944B344970203A9C70B33796900A3
:104C8000BD88B204B364990023AE970AB3049703B6
:104C900003A9C70BF94C33791901B3C4B402BD8819
:104CA000C204B364990023AE970AB304770303A93F
:104CB000C70BFD4B33790901B3C4B402BD88D204DC
:104CC000B364990023AE970AB304670303A9C70B23
:104CD000130B10023379A900B3C4B402BD88E204F7
:104CE000B364990023AE970AB304570303A9C70B13
:104CF000930A20023379D901B3C4B402F204B36435
:104D0000990023AE970AB304470303A9070C130ABB
:104D10003002137909FFB3C4B402BD88B3649900AB
:104D200023A0970CB304370303A9070C930940028F
:104D30001379F9F0B3C4B402BD889204B364990046
:104D40006D4923A0970CB304270303A9070C3379FB
:104D5000C901B3C4B402BD88A204B364990023A0FE
:104D6000970CF144B304970203A9070C3379690047
:104D7000B3C4B402BD88B204B364990023A0970CF5
:104D8000B304B70303A9070C33791901B3C4B40200
:104D9000BD88C204B364990023A0970CB3049703A1
:104DA00003A9070C33790901B3C4B402BD88D20446
:104DB000B364990023A0970CB304770303A9070CED
:104DC0003379A900B3C4B402BD88E204B364990086
:104DD00023A0970C93145700B3C4B4021399C401D1
:104DE00083A4070C3306C702B3F4D401B3E424014F
:104DF00023A0970C03A9470C137909FFB304670399
:104E0000B3C4B402BD88B364990023A2970CB30461
:104E1000570303A9470C1379F9F0B3C4B402BD8852
:104E20009204B364990023A2970CB304470303A927
:104E3000470C3379C901B3C4B402BD88A204B3647A
:104E4000990023A2970CB304370303A9470C3379C5
:104E50006900B3C4B402BD88B204B36499001309F5
:104E6000500223A2970CB304270303A9470C3379FC
:104E70001901B3C4B402BD88C204B364990023A26B
:104E8000970C93046002B304970203A9470C33798B
:104E90000901B3C4B4023346B602BD88D204B36478
:104EA000990023A2970C83A4470CE98C3D8A6206E3
:104EB000458E23A2C70C03A6470C9314C701337673
:104EC000D601458E23A2C70C130690023306C702F3
:104ED00083A4870CC1983346B6023D8A458E23A42D
:104EE000C70C1306A0023306C702B345B60203A6D9
:104EF000870C1376F6F0BD899205D18D23A4B70CEB
:104F000083C5418603C651863386C540B304A603D4
:104F100003A9870C3379C901B3C4E40293E4840084
:104F2000BD88A204B364990023A4970CB304E603DC
:104F300003A9870C33796900B3C4E40293E48400C5
:104F4000BD88B204B364990023A4970C931436006F
:104F5000B3C4E40203A9870C3379190193E48400F4
:104F6000BD88C204B364990023A4970CB304F6036C
:104F700003A9870C33790901B3C4E40293E48400E4
:104F8000BD88D204B364990023A4970CB3045602DD
:104F900003A9870C3379A900B3C4E40293E4840025
:104FA000BD88E204B364990023A4970CB30476028D
:104FB00003A9870C3379D901B3C4E40293E48400D4
:104FC000F204B364990023A4970C93142600B3C48D
:104FD000E40203A9C70C137909FF93E48400BD8898
:104FE000B364990023A6970CB304860203A9C70CE7
:104FF0001379F9F0B3C4E40293E48400BD88920409
:10500000B364990023A6970C93141600B3C4E4026A
:1050100003A9C70C3379C9013347E60293E484003E
:10502000BD88A204B364990023A6970C03A6C70CFD
:1050300033766600136787003D8B3207518F23A6B6
:10504000E70C03A7C70C3377170123A6E70C03C7A8
:1050500031860D8F3346D70293F5F507E2053D8A79
:105060009314460103A6C70C330487023376060166
:10507000458E23A6C70C1316170083A4C70CE98C12
:105080003346D6023D8A6206458E23A6C70C03A688
:10509000C70C3344D402B37ED60113162700B303E2
:1050A0007702720433E48E0023A6870C3346D602BF
:1050B000B3025702937EF60003A6070D419A3366AA
:1050C000D60123A8C70C03A6070DB3C3D3021376DA
:1050D000F6F0B3C2D20293F3F3009203B363760007
:1050E00023A8770C03A6070D337EC601B30FF70381
:1050F00093F2F200A202B3625E0023A8570C03A64B
:10510000070D3373660013163700B3CFDF02330F7A
:10511000E70393FFFF00B20FB36FF30123A8F70D6E
:1051200003A3070DB37813013346D602330DA7034B
:105130003D8A420633E6C80023A8C70C03A6070D24
:1051400033780601334FDF02B346DD02137FFF00E1
:10515000520F336FE80123A8E70D03A7070D798DE0
:10516000BD8AE206C98E23A8D70CD84385663D9B2D
:10517000D8C3D843799BD8C39857558F98D7D85759
:10518000B7060081FD1613670701D8D71377FC0314
:1051900003AC8703137C0CFC336CEC0023AC87035B
:1051A000985F758FD98D8CDF6254F250D25442597A
:1051B000B259225A925A025BF24B624CD24C424D87
:1051C000B24D2161828023AA01846FF08FC2938740
:1051D000C18598435C4393E707105CC382809717AF
:1051E00000209387A7F98C4317170020035747F92E
:1051F00005651386052223A8C186938785FFBA9784
:1052000023A4F1861D05930600206364E5009356F0
:1052100037003307D60023A6E18623A0E522E11656
:105220002312D600231306001CC3998FE117231203
:10523000F70023130700828039714AD813D945013A
:105240004ED652D456D29399C50006DE22DC26DA19
:105250005AD05ECE1379F97F2A8A93D9C90093DA9E
:10526000F501630D090E9307F07F6306F9181354D7
:10527000D5018E09B36934013704800033E4890015
:1052800093143500130919C08149814B13D7460186
:10529000139AC6001377F77FB285135ACA0013DB3F
:1052A000F601630B07109307F07F6303F70493572E
:1052B000D6010E0A33EA4701130717C0B70780006B
:1052C000B367FA00931536003A99814833C76A01EB
:1052D000BD463A851308190063E836171726000003
:1052E000130606E78A09B29983A60900B296828658
:1052F000B367CA001309F97F6399071293E929007C
:1053000081458948E1B701479307F07F37040800DA
:1053100081443204D20731807E075D8C598CA2858E
:10532000F250625426854259D254B259225A925AA6
:10533000025BF24B216182805A853E84AE84C68B2B
:105340008947638DFB0E8D47E38FFBFA85472A87DC
:10535000639CFB3881470144814465BF33E4A90065
:1053600061C036C632C4638B092A4E85EF00301106
:105370002246B246AA87130755FF7544938487FFD8
:10538000198CB399990033548A0033643401B314EF
:105390009A0013D746011309D0C0139AC600137799
:1053A000F77F3309F9408149814BB285135ACA000E
:1053B00013DBF601E31907EEB367CA00B1C7630F49
:1053C0000A22528532C4EF00900B22462A879306A8
:1053D00055FFF547930587FF958F331ABA00B357EA
:1053E000F600B3E74701B315B6003309E9401309E6
:1053F000D9C08148E1BD33E4A90001ECA149814451
:105400001309F07F894B59B593E919008145854807
:1054100075BD4E84AA84B1491309F07F8D4BBDB58B
:10542000914981440149854B95B593E93900D2876B
:105430008D4869BD89475685E397FBF02A87930716
:10544000F07F01448144F1B5C16E1386FEFF93D60F
:10545000040113DE0501F18CF18D3386950233834F
:10546000B6029358060133059E021A95AA98B38294
:10547000C60363F36800F692C16F1383FFFF33F531
:10548000670093D30701B3F76800C2073373660060
:105490003E933306950293D80801B387A602135FA3
:1054A0000601B3849302BE94FA94B38E760263F33A
:1054B000F400FE9E416A9307FAFF935F0401B376FE
:1054C000F400B3F9F4007D8EC1803384D502C209A3
:1054D000338FD401B299CE98B307DE02935E0401F4
:1054E000B385BF02AE97BE9E330EFE0363F3BE00CC
:1054F000529EC1679385F7FF33F6BE006D8C42065E
:10550000229693DE0E01B305D502769E3385AF0257
:1055100013D40501B386D302AA96A296B38FF303E0
:1055200063F3A600BE9F41657D15B3F7A600C207D1
:105530006D8DAA97B3855800B3B93501FA97B29526
:105540003384370133B6C500B30EC4013385CE00B2
:1055500033343401B3B7E701C18F33BECE0113D466
:1055600006013336C5003E943366CE009394950011
:1055700032947E94B3E46400260493567501B334E8
:105580009000DD8193179500CD8C558CDD8C9317A1
:10559000740063DB070093D7140085889316F40129
:1055A000DD8CD58C058042899307F93F6357F0085D
:1055B00093F6740081CE93F6F40011466388C6001A
:1055C00093864400B3B496002694B6849316740070
:1055D00063D80600B70700FFFD177D8C93070940CD
:1055E0009306E07F63CDF60E93D634009314D40176
:1055F0002604D58C318093F7F77F21BB328532C4E6
:10560000BD2D93065501F147130705022246E3D24B
:10561000D7DC6115B317A6008145C1BB8D251307E3
:105620005501F145930705022246B246E3D7E5D47A
:1056300061153314AA008144A9BB85469D8EB1E74C
:105640001309E941B3972401B3D4D40033192401D9
:10565000B337F000B3649900DD8C93F77400B35650
:10566000D40081CF93F7F40011466388C700938775
:105670004400B3B49700A696BE849397860063D87F
:10568000070485470144814469B113068003E3435D
:10569000D6CC7D46E356D6FA0556B307F6409305B9
:1056A00000023356F4006387B6001309E943B317C9
:1056B0002401DD8CB3349000D18C93F67400014446
:1056C00099CA93F7F40011468146E392C7FA1394FE
:1056D00096003180F6068D80D58C81471DB99307E1
:1056E000F07F0144814435B142897DBD411106C638
:1056F00022C426C205CD9357F541B3C4A7009D8CA3
:105700002A842685AD2B9306E041898EA9477D80AA
:1057100093F6F67F63CDA7022D47098FB3D7E40038
:105720005505B207B394A400B18329A00144814672
:1057300081478144B207D206B1837E04D58FC18FE1
:10574000B24022442685BE8592444101828055158F
:10575000B397A400B207B1838144E9BF797122D421
:10576000135475014ECE52CC9319950006D626D20D
:105770004AD056CA5AC81374F40F93D99900135AD1
:10578000F50169C49307F00F6308F40E939739008D
:1057900037070004B3E9E700130414F88144014B10
:1057A00013D77501939A95001377F70F93DA9A0040
:1057B00013D9F50145CF9307F00F630CF7028E0A5A
:1057C000130717F8B7070004B3EAFA003A94014642
:1057D00033452A01BD47AA869305140063E097105C
:1057E000172700001307C79A8A04BA949C40BA97F7
:1057F00082871304F40F63960A0C93E4240009468D
:10580000C1BF01451307F00FB7074000B250225443
:10581000A6075E07A5837E05D98F92540259F249E7
:10582000624AD24A424B5D8D45618280CA86D689E2
:10583000328B8947630FFB088D47E304FBFC8547E8
:1058400036856310FB1A01478147C9B7639D090478
:1058500013D77501939A95001377F70F914401447C
:10586000054B93DA9A0013D9F50131F7639D0A00CD
:1058700093E414000546A9BF63920902A1441304EE
:10588000F00F094B31BF5685DD2E9307B5FF098C0C
:10589000B39AFA001304A4F801461DBFB1441304DF
:1058A000F00F0D4BF5BD4E852EC6D12E9307B5FFDB
:1058B0001304A0F8B399F900098C8144014BB24557
:1058C000C5B593E434000D4621B78947D286E31568
:1058D000FBF636851307F00F81470DBF4163930632
:1058E000F3FF13D6090193D80A01B3F7D900B3FA2D
:1058F000DA0033885703B389F80213570801B30A53
:105900005603D6994E9733061603637357011A96BA
:10591000C167FD17B376F7003378F800C206C29668
:105920009399660093570701B3393001E982B29722
:105930009A07B3E6D900B3E9D7009397490063D932
:10594000070013D7190093F71900B369F7002E84E5
:105950001307F4076350E00493F7790099C793F7AE
:10596000F90091466383D70091099397490063D961
:105970000700B70700F8FD17B3F9F900130704088B
:105980009307E00F63CBE70493976900A583137730
:10599000F70FADBD8547B386E74011C76D46014798
:1059A0008147E345D6E61307E4093397E900333727
:1059B000E000B3D7D900D98F13F7770019C713F7D1
:1059C000F70091466303D700910713975700634C84
:1059D00007009A07A583014715BD1307F00F8147FC
:1059E00035B52E84B5B7054781470DB5370680001C
:1059F000135775019307F6FF1377F70F9305E00729
:105A0000B3F6A7009357F50163FCE5009305D009B1
:105A100063FAE500370500801345F5FF3E95828067
:105A20000145828093055009D18E63CDE5001306B0
:105A300060093307E64033D7E6003305E040F5F36D
:105A40003A8582801307A7F63397E600FDB7411128
:105A500006C622C426C20DCD9357F54133C4A70014
:105A60001D8CAA842285212C9307E0093387A74047
:105A700093076009FD8063CCE702A1469377F70F97
:105A800063D5A60061153314A4002604258021A047
:105A9000814481470144260413559400B2402244B6
:105AA000DE07FE045D8D458D92444101828093079F
:105AB000900963DDE7009307B5019546B317F4003D
:105AC000898E3354D400B337F0005D8C954763D68C
:105AD000A7009307B5FF3314F400B70600FCFD16CA
