:040000006F10003E3F
:1000040000000000000000006F0080086F00202541
:1000140000000000000000000000000000000000DC
:1000240000000000000000000000000000000000CC
:100034006F004006000000006F00E00500000000B3
:100044006F0080056F0060056F0040056F0020059C
:100054006F0000056F00E0046F00C00400000000A2
:100064006F0060046F0040046F0020046F00000400
:100074006F00A0266F00C003000000006F00600343
:100084006F0040036F0020036F0000036F00E00265
:1000940001A001A001A001A001A001A001A001A054
:1000A40001A001A001A001A001A001A001A001A044
:1000B40001A001A001A001A001A001A0B717004068
:1000C400130770052380E704130780FA2380E704ED
:1000D4000F1000002396A70223800704371700405F
:1000E40083472705898BEDDF8357070537170040C2
:1000F40083472705898BEDFF371700408347270582
:10010400898BEDDF035507058280B71700409306FE
:1001140070052380D704130780FA2380E7040F10A7
:10012400000003C6B7041376F60DA385C704238025
:100134000704137605023DCA03C6A700118A1DE20F
:100144002380D7042380E7040F10000003C7A7000F
:10015400136747002385E7009307004B0100010064
:10016400FD17EDFFB7170040930670052380D704F1
:10017400130780FA2380E7040F1000007D8923947D
:10018400A70001000100010001002380070423806F
:10019400D7042380E7040F1000003727004093069C
:1001A4001005A303D78023800704828013760504F7
:1001B4006DDE03C6A700418A1DE22380D704238095
:1001C400E7040F10000003C7A70013670701238586
:1001D400E7009307007D01000100FD17EDFFB7174D
:1001E4000040930670052380D704130780FA238008
:1001F400E7040F1000007D89136505042394A7000C
:100204000100010001000100238007042380D704BA
:100214002380E7040F1000003727004093063005C1
:1002240049B74111814601468145114506C6592207
:10023400B7170040130770052380E704130780FAFB
:100244002380E7040F10000003C767041367170037
:100254002383E70423800704B2404101828081465E
:10026400014681451145B922B71700409306700530
:100274002380D704130780FA2380E7040F100000BB
:100284007D562396C7022380D7042380E7040F10EA
:10029400000003C76704136717002383E704238060
:1002A400070401A0BD473305F50201007D1575FD66
:1002B4008280411122C426C206C6AA84014463175F
:1002C4009400B24022449244410182800504130503
:1002D400803E4204C13F4180DDB7B7170040130799
:1002E40000032388E702854723ACF18273002030A2
:1002F400411106C6EF00207AF5BF23030480954719
:100304002303F4802302A480828083076480E3CEE5
:1003140007FE23030480828083076480E3CE07FE04
:1003240003454480828083076480E3CE07FE230272
:10033400A4808280411126C44AC24EC006C61377E7
:10034400F50BAD47AA892E8995446306F700194534
:100354006D37653F8D444E854D37FD59FD146398C7
:100364003401B240A24412498249410182801355AA
:1003740009011375F50F453F2209CDB7011126CCAC
:1003840006CEB704080051371545853F71376937E4
:100394002AC6A53F32459377150089EB13651500EE
:1003A4001375F50FF240E24405618280FD14E9FC07
:1003B4000145CDBF397126DC4ADA4ED852D656D41F
:1003C4005AD25ED062CEB7E700E006DE66CC6ACAD7
:1003D400414783AB070422C6B8C37D5703AB07006C
:1003E40083AA470023A0E71823A2E718B717004001
:1003F400130770052380E704130780FA2380E704BA
:1004040083C74704130C75FFB684E207137CFC0F03
:1004140085462A8A2E89B28937240040E18701570C
:1004240063FA86016308D500894613070002631343
:10043400D5000157D98F93F7F70F371D00402302DA
:10044400FD0411472303E4801305F00F7D35894C27
:100454006D3D63EB8C11B70707003E9937870700A2
:100464007955637EE902B3079900636AF702A947E5
:10047400631CFA0689E48144493D26850DA0CA859A
:1004840009454D3D850903C5F9FFFD140509613D85
:1004940081C49377F90FFDF7D53569FD7D55B717FD
:1004A4000040130770052380E704130780FA2380B4
:1004B400E70403C74704418B2382E704B7E700E05E
:1004C40023A07705F25023A0671123A25711E25409
:1004D40032445259C259325AA25A125B825B724C4C
:1004E400E24C524D21618280A5476314FA06856966
:1004F4009307F00FB3869700B374F900B69493C7CB
:10050400F7FFFD8C33F92701416A056C9387F9FFE6
:10051400B3F7270199E363FC340193D94900C14738
:10052400E3E637FF89BF8567C169FD17E1B71305A6
:10053400800D638849011305000263848901130552
:100544001008CA85C53B1D3D31D94E99B384344149
:10055400D9B7CA852D45F93BCE94E38E99F0850928
:10056400653BA38FA9FED5BF9307FAFF93F7F70F57
:1005740063ECFC0803475D04B70708001377070220
:1005840019E3B78707007955E37BF9F0330799003E
:10059400E3E7E7F089476310FA048980554AE38C5E
:1005A40004ECCA8509457933910903A7C9FF91472A
:1005B4002320E48003076480E34E07FE2303448181
:1005C400FD17EDFBFD14110981C49377F90FE9FFC1
:1005D400753371F5E1B58547E307FAF4CA852D450E
:1005E400913B1389F4FFE38804E83D3393773900A2
:1005F40091EB8326048003A7090093874900E39DB8
:10060400E6E6BE89CA84F1BFB5476316FA0013054E
:10061400900BE5318DB5B1471305B00AE30BFAFE33
:100624009947631EFA02CA852D45293381440D4C2E
:10063400214ADD31639684018327048023A0F900D5
:100644008504E39844FF8327048013172901635525
:1006540007002392F90005B523A2F90029BD9D479F
:100664006319FA0281451305B004E931BD4423A09E
:10067400090023A209007D59453193F77400CE97F0
:1006840003C70700FD14398D2380A700E39624FFD8
:10069400DDB3A1476312FA04D5318144630D090027
:1006A4008D479304C0036308F900930400056304B1
:1006B4009901930440041375C507E30E95DA1945AF
:1006C4002D39A131054515392685B1390945A13999
:1006D4007531E31205DAD9B391476319FA001305AA
:1006E400600621391D311305900925B7E3050AD8A1
:1006F400F15459B3BD66014717360000130686CD81
:10070400938606A685458347060093F7F70F91C3A2
:1007140082800507E3F9E6FE97370000238CB7CA09
:10072400DDB77D166206618693178601E18763D47F
:10073400070001458280931726003307F500AE9722
:1007440018439C4363E7E7007D16E37FF7FC7D5580
:10075400828005458280FD15E205E18513978501B8
:10076400618793F7F50F63480700FD15139725007C
:100774002A97584365D713851700620561858280DF
:100784003308B5021C4283A80600B335B502C297EC
:1007940033B50701AE98469585486367B500639401
:1007A400A50063E3070181480C43C6950CC388C2C6
:1007B4001CC2828081471397870161876343B70016
:1007C4008280139727002A97232007008507E5B71F
:1007D4008147014793968701E18663C5B6001335C7
:1007E4001700828093962700AA9694428507558F16
:1007F400D5B793D755408A07AA979C430545331527
:10080400B5007D8D828017D3FFDFE702834D2A84F4
:10081400993705C5931725003E940327C4FF8147E4
:1008240011EB7D1516053E954205418517D3FFDF73
:100834006700634D05838507E5B70145C5BF81475B
:100844001397870161876343C7008280139727004A
:10085400B386E50094422A97850714C3D5B77D165D
:1008640062066186014793178601E18763D5070015
:1008740013351700828093172600B306F500AE9750
:1008840094429C437D16B58F5D8FF1BF8A05AA956E
:1008940001476363B500828083A6C5FFF11593D732
:1008A4001600D98F9CC11397F601E5B72A83014836
:1008B400014701456343D7008280B387050183A8BC
:1008C4000700B30706019C43C697AA976384F80000
:1008D40033B517010507B3080301620723A0F80025
:1008E40061871108C1BF2A8301478147014563C35A
:1008F400D70082803388E50083280800330EE600A1
:10090400032E0E003388A8403308C84163840801CD
:1009140033B508018507B308E300E20723A0080103
:10092400E1871107E9B717D3FFDFE702833B011122
:10093400B286B2842E86AA850A8575372A84A6854E
:100944000A85793533348000060413351500018D8A
:10095400056117D3FFDF6700033B17D3FFDFE7020F
:10096400C3354111AA89AE8A328BB68402C202C44D
:1009740002C60144131C8401135C8C4163499C022C
:10098400939B1400FD1B0549138CF4FFF15C3304A5
:10099400890162046184634D740592478E04CE9488
:1009A40023AEF4FE410117D3FFDF6700833413192C
:1009B4002400B30B2B01014A93172A00D69783A571
:1009C4000B0088437800340050005D3B050A931700
:1009D4008A01E187F11BE351FCFE92474E9905041D
:1009E4002320F900A2473EC2B24702C63EC459B70B
:1009F400131A8901135A8A41131D240093178A017B
:100A0400E18763CF970092470A044E941CC0A24723
:100A140005091379F90F3EC2B24702C63EC485BF29
:100A2400B3079A0313152A00569508417800340039
:100A34005000050AEA97DA978C439933C1B709CD78
:100A4400B7170040130770052380E704130780FAE3
:100A54002380E7042396A702828019C1814799E97C
:100A640082803387F500834607003307F500850746
:100A74002300D700E397C7FEE5B719C1FD5781E905
:100A84008280910503A7C5FF1105232EE5FE7D167F
:100A9400E319F6FEF5B7797122D417340000130474
:100AA40024E51C4006D626D24AD04ECE91C7829762
:100AB4009737000023AE07E25C4089CB03D541861B
:100AC400BD3F5C40829703D56186953F1C40639986
:100AD40007189737000083C7B7E8858B95C7973702
:100AE4000000A38F07E617370000034797E79147F5
:100AF40063FCE7009D219737000083C797E6F91749
:100B04008A07A2979C4382979737000083C707EA16
:100B1400918B89C7973001E0E78080AC1C4491C376
:100B2400829793870186984317360000034616DAA6
:100B34003E8997340000938464D99737000083C7B3
:100B4400E7D893961700BA9683D6060063800610FA
:100B54009737000083C787D763F2C70886073E9795
:100B6400835507002310070003D541862EC623961C
:100B74000186F135938781879C431735000003452F
:100B8400E5D413172500BA979C43B2458297AA89E6
:100B940003D561866D359737000083C727D3139734
:100BA40017008327090003D5C1861345F5FFBA97BB
:100BB40003D7070033753501598D2390A70083C7E8
:100BC4000400850793F7F70F173700002300F7D0C9
:100BD40017370000034797CF63E6E7009737000015
:100BE400238607CE1C40ADEF9387018798433E844C
:100BF40025CB9737000083C717D791CB97370000D1
:100C040083C737D689E7972001E0E78040531C402B
:100C140082972A8431C59C48AA9717370000232F4E
:100C2400F7CA938741879C4385CF03D54186013D0D
:100C34002285971001E0E780E0BD2254B25092541F
:100C44000259F24903D561864561D5BB850793F7FF
:100C5400F70F97360000238BF6C6E3E0C7EECDBD51
:100C6400B250225492540259F249456182809167EC
:100C7400B7C600409387373023A6F6200F10000034
:100C840097370000938787C4884F9387C18B9C4311
:100C9400316713073730F053B7071000FD17918FF2
:100CA40099833A0523A6E6205D8D82804111B7170A
:100CB4000040985F3AC6945F3247E39CE6FE3245B3
:100CC40041018280411106C6D5379736000083C69C
:100CD40066BD858AB1C6930730333307F502B3374F
:100CE400F5023983CA07D98F17370000130707BEE7
:100CF400584B01456303F7023385E740636BF70004
:100D040037653D0889C637856F0813050590198D29
:100D14003E95173700002325F7BCB240410182807D
:100D2400E5473307F502B337F5022583DE0765BFD0
:100D3400411122C41384C18A18404AC006C61C5FEC
:100D440026C21389818A9983858BC1C31C5F97341A
:100D540000009384A4C093F7F7F91CDF97370000D1
:100D640083C7C7BF93F707048DC39387C1879C4389
:100D740082979737000023ABA7BE83C7040093F77D
:100D8400F70B17370000230BF7BC85471737000014
:100D9400A308F7BC83C7440093F7070481EF938744
:100DA400C18B9C43D844B8D3930700FC1737000089
:100DB4002308F7BA8387640063D9070083270900EF
:100DC4009C4317370000230EF7B818401C5F858337
:100DD400858BC9CBF5571CDF010001000100010020
:100DE40001000100010001000100010001000100F7
:100DF40001000100010001000100010001000100E7
:100E040001000100010001000100010001000100D6
:100E140001000100010001000100010001000100C6
:100E240001000100010001000100010001000100B6
:100E340001000100010001000100010001000100A6
:100E44000100010001000100010001000100010096
:100E540001000100010001009387C18B9C4313072B
:100E64005004B8CB18401C5F9183858B89CFBD5744
:100E74001CDF9387C18B9C4323A80704854717373E
:100E84000000230FF7AC83270900D8430583058BA3
:100E940019C7D843759BD8C3D843799BD8C3B240EC
:100EA40022449244024941018280397106DE16DCF3
:100EB4001ADA1ED82AD62ED432D236D03ACE3ECC26
:100EC40042CA46C872C676C47AC27EC09535F2500C
:100ED400E2525253C2533255A255125682567247A9
:100EE400E2475248C248324EA24E124F824F21610D
:100EF400730020309387C18B944317370000130786
:100F0400E7A5BC5289CF83472700858B89EB8347AC
:100F14003700858BFDD797370000238307A4828091
:100F240037C700401306C00393062003973500001B
:100F34009385C5A283278720C18393F7F703636949
:100F4400F60083278720C18393F7F70363E6F6004F
:100F540083C74500858BF9DF82809387C18B9443D7
:100F6400173700001307879FBC5289CB83470700BC
:100F7400858B91CB973700002384079E9737000019
:100F8400A380079E828083471700858BF1DFDDB73E
:100F94009387C18B904337C70040C145E5468327FB
:100FA4008720C18393F7F70363FBF500832787202A
:100FB400C18393F7F70363E4F6003C52EDF38280B8
:100FC4001387C18A1843AA87185F1583058B25EFF9
:100FD4000345150015051377C51F19C6B386E70029
:100FE40083C626002300D60095C59736000083C625
:100FF400469793F606040945A1CAB386E70083C65B
:101004003600054693F5F6066390C504E206E186CC
:1010140063CC06023385E7008347150003470500C8
:10102400A20793F70770D98F13970701418393762B
:10103400074099C613670780239AE18A0145828095
:10104400239AF18AE5BF054582809386C18B8C4241
:101054003685973600009386669098459317070166
:10106400C183137817203E8663040804137707208E
:1010740079C303C72600136717001738000023003D
:10108400E88E13070019B8D1130700F8973500004C
:101094002388E58C1387C18A0C4337080010D85580
:1010A400719B13672700D8D598413367070198C10E
:1010B4001377261005C31376061059CE03C706000E
:1010C4001367170017360000230AE6881737000055
:1010D400231A078883C6460093C7F7FFC207E206B0
:1010E400E186C183184163D106029396170163DE3A
:1010F400060630538D4663E9C60085461736000060
:101104002300D6863453FDFE972600009386467846
:101114008386460163DD060093960701C18663DC7E
:1011240006047053894663E4C6007453FDFE1447F5
:10113400F58F1CC7828003C7160013671700973505
:101144000000A38DE58017370000230B07801737B5
:10115400000023190780A9BF03C7360013671700CF
:1011640017260000A30DE67E95B7854617260000D6
:101174002308D67E51BF54471396060163510602D5
:10118400B7061000FD1674D39726000093860674E4
:10119400944E8506172600002326D67449BFA166FF
:1011A400D58F71B7397106DE16DC1ADA1ED82AD645
:1011B4002ED432D236D03ACE3ECC42CA46C872C6BB
:1011C40076C47AC27EC05135F250E2525253C253B1
:1011D4003255A255125682567247E2475248C248C7
:1011E400324EA24E124F824F2161730020301727D6
:1011F4000000130767788346B7019727000083C769
:10120400F77AB69793F7F70FFD4663EAF6044C4B6B
:1012140097260000A382F6769727000083C7D77528
:1012240005473317F70097260000A381F6786D8FE2
:101234001DEF9726000083C6B677B3F6D7021305D1
:101244000002814733D6F500058A13F8F70F09CE5B
:101254006399E60097270000A380077382808117B3
:101264007DB705071377F70F8507E39DA7FC8280F9
:101274009387818C9843B75702009387279F8326CF
:101284000709139656006358060083260709139628
:10129400660063440600FD17FDF3828051C9AA87E6
:1012A4000145C9C98D07C207C183F19BC207C18328
:1012B40013074003636BF7021387C18D0843138739
:1012C400418D14436396A602172700001307475C59
:1012D400185B014525C34111C20706C60545DD8DCE
:1012E4000297B2400145410182801387818DF9B78D
:1012F4000357650005EF035745006369F702B3061A
:10130400F74021466370D6021041938687001D8FF3
:10131400AA96611790C22392E6002393060014C193
:101324002312F5002313B50021058280084159BF1B
:1013340001458280828001CD9387C18D03A8070077
:101344009387418D8C430147C28763E3B700828052
:101354009443636FF50663EDA60613868700E3687E
:10136400C5FE03D56700216605066317C50003C6DD
:1013740071890506A38BC18823930700638407033F
:101384001386818D1042630FF6000356670019EA35
:1013940083D7470014C383564700B697A107231287
:1013A400F700BA879843E304B7FA9386818D944291
:1013B400E30FD7F883566700D9FA83D6470003565C
:1013C40047001843A106B2962392D70098C382809F
:0813D4003E87B6879DBF0000B3
:1013E000974100209381013F17710020130181C1B3
:1013F00013054000972500209385C540173600202F
:101400001306C67D63FAC5008322050023A055009C
:1014100011059105E3EAC5FE17B501001305050F97
:10142000973500209385857B1386818263FAC500FA
:101430008322050023A0550011059105E3EAC5FEAE
:1014400013858182976500209385C5E16377B50098
:10145000232005001105E36DB5FE9302800873A0FB
:101460000230972200209382E23993E212007390B7
:10147000523037170040930770052300F704930795
:1014800080FA2300F7040F1000003C47B70600FA6B
:10149000E116F58FB70600069506D58F3CC7971263
:1014A00000009382027F73901234730020303971F0
:1014B00001436EC619A0397141536AC866CA62CC2D
:1014C0005ECE19A0397101535AD056D252D44ED69D
:1014D0004AD826DA22DC06DE3301614082824111DD
:1014E0004AC026C222C406C68282B24D4101024DC4
:1014F000924C224CB24B4101024B924A224AB249D1
:101500004101024992442244B240410182803D435C
:101510002A876373C3029377F700BDEFADE5937637
:1015200006FF3D8ABA960CC34CC30CC74CC7410793
:10153000E36BD7FE11E28280B306C3408A069702AE
:10154000000096966780A6002307B700A306B700A1
:101550002306B700A305B7002305B700A304B7000F
:101560002304B700A303B7002303B700A302B70007
:101570002302B700A301B7002301B700A300B700FF
:101580002300B700828093F5F50F93968500D58DE3
:1015900093960501D58D61B79396270097020000B9
:1015A00096968682E78086FA9680C1171D8F3E96B2
:1015B000E374C3F8A5B73367B500FD530D8B79E726
:1015C000B7877F7F9387F7F710419441B372F60096
:1015D0003363F600BE92B3E262006397720C631845
:1015E000D6065041D441B372F6003363F600BE9282
:1015F000B3E262006398720A631BD60410459445F7
:10160000B372F6003363F600BE92B3E262006391F8
:10161000720A631ED6025045D445B372F600336396
:10162000F600BE92B3E26200639A72086311D602BA
:1016300010499449B372F6003363F600BE92B3E2E8
:101640006200639372085105D105E30FD6F61317B4
:10165000060193970601631CF7001357060193D701
:1016600006013305F7409375F50F91E982804183B8
:10167000C1833305F7409375F50F91E182801377AD
:10168000F70F93F7F70F3305F74082800346050005
:1016900083C60500050585056313D60065FA330585
:1016A000D640828011059105E312D6FE0145828065
:1016B0002105A105E31CD6FC014582803105B10559
:1016C000E316D6FC014582804105C105E310D6FC36
:1016D00001458280B717004003C777051377E70FEE
:1016E000A38BE704130700F8A38DE7043D47238C81
:1016F000E70413075003A38CE7048280B717004068
:1017000003D587005D715ED64205418186C6A2C4BD
:10171000A6C2CAC04EDE52DC56DA5AD862D466D2AD
:101720006AD06ECE9377050C13070008814B638E49
:10173000E718130700046392E716B7240D8F7D891D
:1017400093840480B3D4A4029167938707E8BE947E
:10175000A167938707D0B3D4F402EF80A10D97A7B8
:101760000100938727B59043D443EF707141EF8018
:10177000E14E2A8B939C040103D9818293DC0C01F6
:1017800063150900056913090980B717004013079D
:1017900070052380E704130780FA2380E7040F1005
:1017A00000000547371A0040939D0401096C8566C7
:1017B0002389E704D14A814E8145130D0A04130899
:1017C0007005130680FA894893DD0D01130C0C7126
:1017D0002943FD1623000D012300CD000F1000004A
:1017E00023162A0323000D0083472A05898BEDDF8A
:1017F00083570A0583472A05898BEDFF83472A050E
:10180000898BEDDF83570A0523942183C207C183A7
:10181000338597419319050193D9094163860916C8
:101820003387B9026350070E850EC20E93DE0E0198
:1018300063EAD80D63DB050A3305B0409315050153
:10184000C185C204C18063D9350BB71700401307A7
:1018500070052380E704130780FA2380E7040F1044
:1018600000000965130505713385A50223967703EA
:10187000238007043345950242054181B640264442
:1018800096440649F259625AD25A425BB25B225CD4
:10189000925C025DF24D61618280B1E3B7748909A7
:1018A0007D8993840480B3C4A4029167938707E879
:1018B000BE94A167938707D0B3C4F402EF70917709
:1018C00097A701009387879F79BD97A7010093870A
:1018D000E79D856403AB07009384843861BD130BD7
:1018E0000000954441BD3A89F5B5B387FC40939912
:1018F000070193D90941B1B709651305057133850E
:10190000A9028DBF3385B74163E4FC003385FD40F8
:10191000330585033344B503634583001315040180
:10192000A9BF4E8536C642C432C2EF80C126DA85D1
:10193000EF705177EF800120931E050193DE0E4179
:10194000B307D941C207C183056E3E8712462248BC
:1019500089482943B24663E3C7013687420741837A
:10196000631A270113071900634430011307F9FFB5
:1019700042074183FD1A93FAFA0FCA8BCE85E3948E
:101980000AF62394E18259BF0145CDBDB717004047
:1019900003D587005D7186C642054181A2C4A6C2F7
:1019A000CAC04EDE52DC56DA5AD85ED662D466D24F
:1019B0006AD06ECE02C69377050C13070008638FBA
:1019C000E714130700046393E712B7240D8F7D8992
:1019D00093840480B3D4A4029167938707E8BE94EC
:1019E000A167938707D0B3D4F402EF70B16497A7CF
:1019F00001009387278C9043D443EF707118EF80D8
:101A0000E1252A89939A040103DBA18293DA0A0172
:101A100063150B00056B130B0B80B7170040130702
:101A200070052380E704130780FA2380E7040F1072
:101A300000000547939B04018969056A2389E7042F
:101A4000D14D014D814C93DB0B01938909717D1AB6
:101A50005A8597200020E780A0E6330C5541420CC0
:101A6000135C0C412395618363030C16B3079C033D
:101A700063D3070E050D420D135D0D01894763EC1D
:101A8000A70D63DD0C0A33059041931C050193DC1F
:101A90000C41C204C18063DA8C0BB71700401307F6
:101AA00070052380E704130780FA2380E7040F10F2
:101AB00000000965130505713385AC023247239692
:101AC000E702238007043345950242054181B64071
:101AD000264496440649F259625AD25A425BB25B96
:101AE000225C925C025DF24D61618280B1E3B77469
:101AF00089097D8993840480B3C4A4029167938784
:101B000007E8BE94A167938707D0B3C4F402EF70CF
:101B10007152979701009387677AF1BD97970100FB
:101B20009387C778856403A9070093848438D9BD57
:101B3000130900009544F9B53E8B19BF3385AA40BF
:101B4000131C0501135C0C41A9B709651305057148
:101B50003305AC028DBF63FEAA0033057541330522
:101B60003503A9473344750363C88700131504017F
:101B7000B1BF3385AB40E5B76285EF80C101CA854F
:101B8000EF705152EF70117B131D0501135D0D4174
:101B90003307AB41420741838565BA876363B7006A
:101BA000D287C207C183639A670193071B0063440E
:101BB00080019307FBFFC207C183FD1D93FDFD0F4D
:101BC0005AC6E28CE39A0DF62395F18245B701459A
:101BD000FDBD41112A83014E930E407E130F001963
:101BE000930F400663ED6E0A930800191303400635
:101BF000B3781503854E0D4FA14F337365020D89E0
:101C00001335150063E7BE0C1308F6FF794672988A
:101C10004208135808013307C70213D61700BE073E
:101C200032976146B3F6C60213068070B386C602C9
:101C30003697A166F58F42075D8FB717004083C6C0
:101C4000F70293F60608A307D1000346F10083C606
:101C5000F70293F60608E394C6FE8346F10093F676
:101C6000F60FF1DE930670052380D704930680FA01
:101C70002380D7040F10000023AA070383C617038D
:101C800093E60608A388D702D8DB03C717031367B8
:101C90000704A388E70223800704410182807D13A3
:101CA0003368E3039308E016630E08003368F30318
:101CB0009308D016630808009378330093B818008F
:101CC0009388D81633081E01131E0801135E0E01F7
:101CD00011BF6393E5030548638608000148630369
:101CE00003002A8871087298FD15131E0801C205A9
:101CF000135E0E01C18139B713F8150063F4BF00FC
:101D00007908D5B713381800E5BF914763EEB702DD
:101D1000179701001307075B8A05BA959C41BA978C
:101D20008287B717004003A7470B1345F5FF698F5C
:101D300023AAE70A03A7070B698F23A8E70A03A7CB
:101D4000070A798D23A0A70A8280B717004083A6CF
:101D5000470B1347F5FFF98E23AAD70A83A6070B73
:101D6000558D23A8A70A83A6070A758F23A0E70A23
:101D70008280B717004003A7470B498F23AAE70AC1
:101D800003A7070B1345F5FF45BFB717004083A610
:101D9000470B1347F5FF758F23AAE70A03A7070A26
:101DA000598D4DB7B717004003A7470B498FEDB7C3
:101DB000B717004003D5870042054181937705049A
:101DC00091EB9377F5013755E8011305058033450D
:101DD000F50282809377050C130700046397E700F0
:101DE0009377F50137459C1CCDB72165130505D0C8
:101DF0008280B7F700E0C8439C478280814737372D
:101E00000040A14663C4C700328582800345B740C5
:101E1000E38EA6FE3385F500034505008507230400
:101E2000A740CDB7973700209387C71A9C43175711
:101E30000020130727433E95636EE50017670020D7
:101E4000130747FC6368A700173700202324A7184F
:101E50003E858280FD57EDBF411122C406C62A840B
:101E6000813F2947B307E502B2408D83B3D787028C
:101E700022449507B3D7E70237370040C207C18332
:101E80002316F74041018280716541111305052039
:101E900006C6D937B7370040130770F82381E740EB
:101EA0000D47A381E74013070004A380E7400547DF
:101EB0002387E740B240410182802386018223A824
:101EC0000182B717004003A7070CB706C0FFFD1635
:101ED000758F23A0E70C03A7070DB7064000558FA9
:101EE00023A8E70C03A7070C3D9B23A0E70C03A73F
:101EF000070D1367070123A8E70C828023A8A1829E
:101F000013064006894503C541836F306120B7172A
:101F1000004003A5470C83A7470C598113451500C2
:101F2000C18B058999E31365250083C7C182638C42
:101F3000A7002386A18201C99387018303A3070019
:101F40006303030002838280411106C6EFF00FFB9A
:101F5000BD4763F4A700EFF06FFA0D3CBD4763F394
:101F6000A7002D34B24083D5A18203D581824101DF
:101F70006F30A128411193962500AA852D4506C6EC
:101F800097200020E78040C3B24001454101828094
:101F9000411126C29394250022C44AC02A84328962
:101FA000A686AA850146254506C697200020E7801B
:101FB000A0C0A6864A86A285294597200020E780F2
:101FC000A0BFB240224492440249014541018280AF
:101FD000011122CC06CE3714004026CA4AC84EC68C
:101FE00052C483447405034AB405834984050349F4
:101FF0009405EFF02FEE8347A40593F4F40F137AC2
:10200000FA0F93E71700230DF40493F9F90F1379EE
:10201000F90FB717004003C7A705058B6DFF03D560
:10202000C705A38D4705238C3705A38C2705A38BF4
:102030009704F2406244D2444249B249224A0561BF
:10204000828041119397050122C406C6C1872E8460
:1020500063DA0700EF20113E19C1EF201137216527
:10206000218D1DA093F7150013C5150091EF93F76F
:10207000250099CF693D1306000A894503C54183B0
:10208000EF30010913452400B2402244410182800F
:102090009397250163D00702EF40911B753537F602
:1020A0000200130606E0896503C54183EF3041064F
:1020B00009657DB7939715010145E3D707FC17958F
:1020C00001001305E525EF70717913060064916531
:1020D00003C54183EF30C103116559B71D714946EE
:1020E000979501009385451F17A501001305851DD0
:1020F00086CEA2CCEF20916801E917950100130567
:10210000E51EEF70B17501A037F700E0F9575CC725
:10211000FD571CCB0564B7E700E023A087109306AA
:10212000701014C3B843C146B4C323A08718B8C302
:102130000F1000001306C00381454808EF20F1622C
:10214000974700209387878E3ECAED47A301F1028F
:102150009307A0102312F102D1472303F102A167D4
:10216000938707E03ECE970700009387E7E0BEC461
:1021700097070000938707E2BEC685472304F10254
:10218000B5472308F102970700009387C7C63EDAD8
:10219000B7F50700970700009387C7E33EDE814647
:1021A00097070000938787DA7000E1051945BEC0E4
:1021B000231C810097200020E78000A05808814759
:1021C000994670003E960346060085070507A30A58
:1021D000C700E398D7FED24791C7035781018567AF
:1021E0006373F70001A04808EF30E116AA8501C922
:1021F000179501001305C510EF70115201A0F640AC
:102200006644256182804111170500001305A5E38E
:1022100006C622C4EF30A110138441832300A4001A
:1022200031286139034504002244B24037F60200E8
:10223000130606E0896541016F20916D411122C4AA
:1022400006C637140040930670052300D404130714
:1022500080FA2300E4040F1000008347F40293F790
:10226000A70FA307F4022300D4042300E4040F10F3
:1022700000008347F40293E72700A307F402E93143
:102280001305407E2300040481470147814605462B
:10229000854581322244B240014541016F306132AF
:1022A000411197950100938525121795010013059B
:1022B000E52606C6EF705146179501001305052760
:1022C000EF709145B240294541016F70F1484111CD
:1022D0009795010093858510179501001305052436
:1022E00006C6EF707143179501001305E521EF70E5
:1022F000B142B240294541016F701146411122C4DB
:1023000006C6834705002A849DC3979501009385DF
:10231000A5121795010013056520EF70F13F4C40A1
:102320001795010013058530EF70113F1DA058412E
:102330001DE797950100938525101795010013055A
:10234000E51DEF70713D179501001305A52FEF7086
:10235000B13C2244B240294541016F70F13FA16771
:102360009386D7036311D702979501009385C50C17
:10237000179501001305851AEF70113A17950100A2
:102380001305452DE9B7ED07979501009385C50A1B
:1023900017950100130585186319F700EF70D13701
:1023A000179501001305452C5DB7EF70F1364C40D1
:1023B000179501001305452D85BF41119795010023
:1023C00093850503179501001305451506C6EF70A3
:1023D000B134B240294541016F701138797122D46E
:1023E00026D24AD02E842A89B2848145714648007B
:1023F00006D6EFF0CF919737002093876795DC479B
:1024000083D70700231421012313F100EF001049A3
:102410008547A305F100930700192305A1003EC6D7
:102420002686FD57A2854800230AF100EF00704977
:10243000B25022549254025945618280411122C403
:1024400006C6834705002A849DC39795010093859E
:102450002501179501001305650CEF70F12B4C4019
:10246000179501001305052AEF70112BD1A05841D3
:10247000B707CF009387777D6312F7209795010008
:10248000938505FE1795010013054509EF70D128C6
:102490001C448356E4008355C40003C60700179507
:1024A00001001305A527EF7031272945EF70D12AC8
:1024B0000356C4000C441385810E97200020E7804A
:1024C00000DA83C7810E1307200A638EE702130721
:1024D000300A6388E716130720086395E72003573F
:1024E000C4008547630BF71297950100938545F764
:1024F0001795010013058502EF7011221795010051
:102500001305852D25A00357C4008D47979501001D
:10251000938505F517950100130545006300F70243
:10252000EF70911F1795010013054521EF70D11E23
:102530002244B240294541016F701122EF70D11D34
:102540001795010013050521EF70111D2945EF7046
:10255000B1200355E400930720F805469385810ECA
:102560002384F10EA53D9377F50F2A8495C797959F
:1025700001009385E5EE17950100130525FAEF702C
:10258000B1199375F40F1795010013056520EF70CD
:10259000B1182945EF70511C97950100938545ECC2
:1025A00017950100130585F7EF70111717950100B6
:1025B0001305451FEF7051162945EF70F11941655C
:1025C000930730FA05469385810E7D152384F10E1D
:1025D00031359377F50F2A8495C797950100938538
:1025E00025E817950100130565F3EF70F112937557
:1025F000F40F179501001305A519EF70F111294586
:10260000EF7091150566130606C891452244B24045
:1026100003C5C18341016F20B12F894503C5C18323
:10262000EF20113897950100938585E317950100F8
:102630001305C5EEEF70510E179501001305851BAC
:10264000F5B50357C40085476301F702979501006C
:10265000938505E117950100130545ECEF70D10B4B
:10266000179501001305851AD1B58357E400056657
:10267000130606C82398F184A14549BFB707CC00CB
:102680009387777D631AF70297950100938545DD5F
:1026900017950100130585E8EF7011081C44835657
:1026A000E4008355C40003C6070017950100130515
:1026B000E506EF707106ADBDB707CE009387777D55
:1026C0006302F70297950100938585D9179501005C
:1026D0001305C5E4EF7051044C4017950100130534
:1026E000A5FA59B3B240224441018280011122CCA3
:1026F000979501009385C5D82A8417950100130585
:10270000E5E106CEEF705101A28517950100130592
:10271000252DEF7071002945EF7011049387018218
:102720009843DC43316521462C0005053AC43EC67A
:10273000753115C52A8497950100938565D4179541
:1027400001001305A5DDEF70217DA285179501001D
:10275000130585F6EF70417C2945EF70E17FF2406B
:102760006244056182804111979501009385C5CA35
:1027700017950100130585DA06C6EF70E179294542
:10278000EF70817DEF90802019E5EF105042B2404C
:1027900041016F20807BB24041018280411122C4FF
:1027A00097950100938585CA2A8417950100130522
:1027B000E5D606C6EF7041764C401795010013052B
:1027C00065E4EF7061752945EF70017903470400F6
:1027D0009307F00F6319F70297950100938505C7DA
:1027E00017950100130585D3EF7001734C401795C1
:1027F0000100130525E2EF7021722244B240294501
:1028000041016F706175B24022444101828085CDE3
:10281000411122C417950100130545D02E849795C8
:1028200001009385A5BD06C6EF70016FA2851795BF
:102830000100130565E9EF70216E2244B24029457D
:1028400041016F7061718280411122C426C22E84C1
:10285000AA8497950100938525BB17950100130560
:10286000E5CB06C6EF70416B2945EF70E16E23960C
:1028700091842394818485472395F18497270020B0
:102880009387074DDC4703D70700C167FD17631D1A
:10289000F7002244B240924403C5C1831306000AE4
:1028A000854541016F20D106B24022449244410146
:1028B0008280411122C406C626C293F715002E84D9
:1028C0006383070E8146179601001306A6E085452F
:1028D00003D5C184EF50306F05C5979501009385EE
:1028E00065B417950100130565C3EF70E162179594
:1028F0000100130525A3EF7021622945EF70C16522
:1029000097950100938505B217950100130505C140
:10291000EF70816017950100130505A2EF70C15F8C
:102920002945EF7061639724002093846442DC445E
:10293000054726852390E700EFC060769795010054
:10294000938545AE17950100130545BDEF70C15C39
:10295000179501001305859FEF70015C2945EF7005
:10296000A15F9848F17785072310F7002685EFC00F
:10297000A074979501009385E5AA179501001305AA
:10298000E5B9EF706159179501001305A59DEF702A
:10299000A1582945EF70415C13451400B240224410
:1029A00092444101828093F725009DC797950100CD
:1029B0009385C5AE17950100130545B6EF70C15557
:1029C000179501001305859BEF7001552945EF70A0
:1029D000A15813452400D9B793F745008DCB97959F
:1029E00001009385A5AB17950100130525B3EF7082
:1029F000A152179501001305A599EF70E1512945E2
:102A0000EF708155EF1090781345440041BF93F764
:102A100085000145C1D7854503D50185EFE04037E5
:102A200097950100938585A717950100130505AFBC
:102A3000EF70814E179501001305C596EF70C14DDB
:102A40002945EF7061511345840089BF0111354656
:102A5000979501009385C5AE1795010013054505AF
:102A600006CE22CCEF20815101E917950100130514
:102A7000E587EF70A15E01A0972700209387076488
:102A80003EC4B7F5070085679387078081461386A4
:102A90000184E10519453EC697100020E780C0116A
:102AA0001946938501841385011E97100020E78045
:102AB000007B34001386018497950100938545D8E7
:102AC00017950100130545D9EF1050382A840DC918
:102AD000979501009385859B17950100130505A423
:102AE000EF708143A28517950100130565A6EF706D
:102AF000A1422945EF704146F2406244056182805F
:102B0000EF70F044179501001305859AEF00D05936
:102B1000EF40F03AEFE08050172500201305052123
:102B2000EFE0603D1795010013058599EFE0C05077
:102B30002A84EF106033EF90F075EF00C16EEF2044
:102B40004048EF10F00DEFC0C052979501009385FB
:102B5000E593179501001305659C09C8EF70C13B0B
:102B6000A285179501001305E5A051B7EF70C13A92
:102B700017950100130545A2EF70013A2945EF7042
:102B8000A13DEFC06035EF80706029C597950100C9
:102B90009385C58F1795010013054598EF70C137D0
:102BA000179501001305C5A0EF7001372945EF7097
:102BB000A13A979501009385658D1795010013053E
:102BC000E595EF70613517950100130565A2EF706B
:102BD000A13405B7979701009387C7B00547814691
:102BE00001468145179501001305C5B0EF10304D22
:102BF0002A8461D197950100938545891795010035
:102C00001305C591EF704131A28517950100130599
:102C1000659CF1BD4111170500001305C5C906C625
:102C2000EF20E16F238EA1821725002013054512A6
:102C3000EF005000213DEFF04FA8B2401705000013
:102C4000130505AB41016FF06FAB01113546979548
:102C500001009385E58E17950100130565E506CE05
:102C6000EF20C13101E9179501001305E5BBEF70B5
:102C7000E13E01A0EF40117D2AC6EF00D11CEF001C
:102C8000017CEF609067F24032450561828041111E
:102C90001305800406C697100020E78040C7371749
:102CA00000408327870A8D451305002093E70720FE
:102CB0002324F70AEFF06F85EFF00F9D17950100C1
:102CC00013054560EF70813917950100130545DE46
:102CD000EF70C138EFF08FC0EFF0EFD2BD371D3F7E
:102CE00097100020E78000E1014582804111B28603
:102CF0002E86AA852D4506C697100020E780C0EBDA
:102D0000B240014541018280AE860146AA85254533
:102D100017130020670043EA9307000463E6C70225
:102D20001D71A2CC2A84080886CE32C6EF706113CA
:102D3000B2461008A285294597100020E780C0E719
:102D4000F6406644256182803955828093874185AB
:102D500018429C4383D645000345070083C5C7003E
:102D6000035646006396A50083D5E700638DD50220
:102D7000011106CE2386A7002397D700B705CF0001
:102D8000DC4B9385757D05077D162EC2230001005F
:102D90003AC42316C1002317D10099C30A8582972C
:102DA000F2400561828082806D713C083EC6B707A3
:102DB000E500232291103EC8AA843C0832852326D0
:102DC00011103ECA23248110232021112E89EF20C7
:102DD000E03E2A8497950100938545AD1785010053
:102DE0001305C573EF704113A285179501001305F4
:102DF000E5BBEF7061122945EF700116B705CB00F6
:102E00009385757D6800EF00D023A2856800EF20D0
:102E10008030014781467000CA852685EF00B042A8
:102E200015C52A8497950100938545A8178501004B
:102E30001305C56EEF70410EA285179501001305AD
:102E4000A5B7EF70610D2945EF7001118320C11006
:102E500003248110832441100329011051618280D1
:102E60009387418518429C43797122D406D6034842
:102E7000070083C807012A8483D64500035546000E
:102E80006396080183D82701638DD8022388070140
:102E900005072399D7003708CC00DC4B1308787D51
:102EA0003ACC1307F5FF42CA23080100231EE100B4
:102EB000231FD10099C7080832C62EC48297324614
:102EC000A2452285D535B2502254456182806D716C
:102ED0003C083EC0B707E5003EC23C083EC423267E
:102EE000111023248110232291102317010023188D
:102EF000010023190100231A0100231B0100972759
:102F0000002083D7E7E899E3C167FD172316F10096
:102F10009727002083D7E7E781EB938741859C4380
:102F20009C43DC4783D7070017240020130444E6A2
:102F3000584C2317F10083574400484B2318F100E5
:102F400005ED979501009385659D17850100130593
:102F5000E55CEF60717C179501001305659DEF60DE
:102F6000B17B2945EF60517F8320C110032481107C
:102F700083244110516182809727002083C7B7E1E5
:102F800099E7EF1091445C4C23AA0700F1BFFD17AD
:102F900097260020A381F6E003560701834704012A
:102FA0004C470A85230BF100EF20001593874185DC
:102FB0009C430147814688430A866C00EF00B02895
:102FC000AA8405C997950100938545951785010049
:102FD0001305C554EF605174A685179501001305BC
:102FE000E595EF6071732945EF6011775C4CC84B34
:102FF00049BF9727002083C717DAEDDB10448545CA
:1030000003C58185EF20C11085B7DC4DDC4B99C726
:10301000904503C5818591456F20810F82805C4E6C
:10302000DC4BA1C7B9C1411122C4178501001305AA
:10303000E54E2E84979501009385858C06C6EF603A
:10304000B16DA2851795010013058591EF60D16CD4
:103050002945EF6071702244B24003C58185130693
:103060004006914541016F20A10A8280411122C48E
:10307000172400201304C4CF1C4C06C689C7DC43A8
:1030800099C34C4882975C4CC84BEF1011345C4C90
:10309000B240224423AA0700410182801387218184
:1030A000834707009306F00B850793F7F70F63E755
:1030B000F6002389F180034507008280930700F81A
:1030C000CDBF83574500638D070C01114AC81729EE
:1030D00000201309E9CB52C4032AC90106CE22CC31
:1030E00003274A0126CA4EC6F15729EB1307D00D14
:1030F000FD576365C7042A84130586004205418194
:10310000B284AE89EF10312F232AAA000325C9010A
:103110005C4995EF978501009385857C17850100B3
:103120001305C53FEF60515F179501001305858BAF
:10313000EF60915E2945EF603162DD57F2406244F5
:10314000D2444249B249224A3E8505618280938732
:103150004400B705CF002319F5009385757D31052F
:10316000EF00206E0325C901834564003105EF108F
:10317000907A0325C9012686CE853105EF10D077D8
:103180007146A2854A85EF60D14D504401CA8545FC
:1031900003C58185EF10D17781474DB70D3BEDBF5A
:1031A000FD573E858280411122C41724002013045C
:1031B00024BE5C4C06C6C84BEF1031215C4C224447
:1031C000B24023AA070003C58185854541016F10E0
:1031D000317D411126C2938441859C4006C622C49C
:1031E000BDCFDC43ADCF5CC12300B5002A849785F9
:1031F00001009385256A1785010013052532EF60CC
:10320000B1512945EF6051559C4023A4070023A2EA
:103210000700972700209387A7B5DC4FDC4B99C3A5
:103220002955A93597270020938787B6DC4FDC4BBB
:1032300091C3953F894503C58185EF10717691450E
:1032400003C58185EF10D1759C4003A34701630836
:10325000030022852244B240924441010283B240DD
:1032600022449244410182800111328506CE22CC53
:1032700026CA2E84EF109074AA8497850100938546
:10328000A5641785010013056529EF60F148030760
:1032900084000356640083554400A6861785010008
:1032A0001305056EEF6051472945EF60F14A9727F6
:1032B000002083C747AC639797000145453B814594
:1032C0000A85013FF2406244D244056182806D71FB
:1032D00023248110232611102322911093F74500F7
:1032E0002E84638F07103C083EC0B707E5003EC23E
:1032F0003C083EC4231701002318010023190100D4
:10330000231A0100231B01009727002083D747A61B
:1033100099E3C167FD172316F1009727002083D793
:1033200047A581EB938741859C439C43DC4783D72A
:103330000700172700201307A7A32317F100544FF6
:10334000835747002318F100DC4A95EF9785010069
:103350009385C55B178501001305451CEF60D13BC4
:10336000178501001305C55CEF60113B2945EF602F
:10337000B13E134544008320C110032481108324EF
:103380004110516182809727002083C7D79E255521
:10339000B5C7FD1717260020A30FF69C03D606011C
:1033A00083470701CC460A85230BF100EF10D05468
:1033B000938741859C43172700201307679B9796A7
:1033C00001009386261388430A866C00AD2DAA84DB
:1033D0004DD197850100938565531785010013052D
:1033E000E513EF607133A6851785010013050555B8
:1033F000EF6091322945EF6031362685853995BFDA
:1034000093F7250099CF414681452808EF10F13503
:103410002555A93928089305F00F653B134524006D
:1034200099BF93F715000145B9D7EFF05FAA13458F
:10343000140091B75C4D411106C688C31705000002
:10344000130525E923AAF184EF10716DB240238C96
:10345000A184014541018280EFE2CF862A8408459C
:103460002E89B28909C900C1970500009385C573EB
:103470006105EFF0306E81447D5AEF10A00363C305
:10348000A4048144EF10000463C6A404973700200D
:103490009387475D9C43DC47B307F940918723023C
:1034A000F400638109048327C900B307F4409587BA
:1034B000A302F4001C4C89C79C4799C322858297BC
:1034C0006FE08F835C44139714008504BA972390B0
:1034D000470165B71C48139714008504BA972390D9
:1034E00007004DB7832789000547B307F440958748
:1034F000A302F40083570400638EE7028DC30947DB
:103500006384E7040D47E397E7FA979701009387F1
:10351000E7A81CCC97970100938747A911A8978724
:1035200001009387276F1CCC978701009387876FD3
:103530005CC849B7978701009387C75A1CCC978707
:1035400001009387275BEDB7979701009387C7A981
:103550001CCC97970100938727AAD9BF85E1EFD2AA
:103560001FF8004618448347940075839D8B6315AC
:10357000F700EF00901948C46FD0BFF88280EFD2F7
:103580007FF413893500C16442094111AA890144BD
:10359000F11413590901054A2EC6EF00B071B24566
:1035A0006346A400014541016FD01FF583A70900C0
:1035B00013171400BA9783D707006388B700639482
:1035C000970063742A010504C1BF0545E9BFEFD226
:1035D0009FEEAA892E89328BB6843A8ABE8AEF8002
:1035E000E03A4DC12685EF10102D8D4763E5A70009
:1035F0007D556FD0DFEF83DB4400EF00B0712A848C
:10360000EF0090729307740031443305850263C55F
:10361000A702EF003070EF00F06F2A84EF00D07047
:103620009307740031443305850263CDA702EF0090
:10363000706E9307450019A8EF00106F33058502DF
:103640001307F0179307C017E357A7FC2D55E3C2E4
:1036500077FB63000B02D6865286A6854A85EFE08B
:10366000105141BFEF00506C330585029307C5FF31
:10367000F1BF832749001385C90083D5270001378F
:1036800079F9BDB76955B5B797370020239EA73C98
:10369000973700209387073D904381470C463307B7
:1036A000F500420741836393B70082805446139824
:1036B00047008507C2962390E600D5B797370020CC
:1036C0009387473A9C4303C58700828017350020C3
:1036D000035585398280EFD29FE0C1671387D7FFFA
:1036E0006307E5026368A700F117630EF500014563
:1036F0006FD03FE11387E7FF630EE500FD171D8DD7
:1037000013351500F5B7EF4000347D15D5BFEF40F8
:103710008011E5BFEF40E00FCDBFEFD25FDC41117C
:10372000AA8401442EC6EF00F059B2456346A400B6
:10373000014541016FD0FFDC9C48131514003E95F4
:1037400083570500E387B7FE0504E9BF034855002A
:10375000814693F7F60F63E5070181473E85828036
:10376000584593975600BA9703D727006316B700BA
:1037700003D70700E304C7FE8506E1BF8346450083
:1037800001479377F70F63E4D700814711A81C45E1
:10379000131657000507B29703D60700E313B6FECA
:1037A0003E858280EFD21FD293170501C187973AD9
:1037B0000020938A2A2B6353F00883A70A00C0478E
:1037C0009C4703570400198D420541816366F5004B
:1037D000014422856FD05FD212052A94DDBFDC47F9
:1037E00013944900014A3E94834744006341FA021E
:1037F000014A834754006346FA028509C20993D9F6
:10380000090183A70A009847E3EBE9FCD1B71C4400
:1038100013195A00A6853E994A85013709ED050A14
:10382000E1B75C4413195A00A6853E994A85F535DF
:1038300019E1050A7DBFE30209FC61BFAA84814941
:10384000C9B7EFD2DFC91C452A8481E79307C500B9
:103850001CC51C44231204001CC09307F00F63E92D
:10386000B70093F5F50F2285EF10F00A6FD07FC9EE
:1038700093940501C167C18063F7F500A685228591
:10388000EF10100DE5B7C18193F5F50F2285EF100C
:103890009008A6852285EF105009C9BF97370020F0
:1038A0009387471C884382801C4599C7973700201F
:1038B00023AAA71A014582807D5582809737002070
:1038C0009387471A984383474500484792073E9598
:1038D0008280EFD2DFC0617100451C183EC6B70779
:1038E00080013EC81C183ECA8357440002CE02D055
:1038F00002CC231EF100834784002A8902D22301CF
:10390000F1023C083ED402D6553F835705002316EA
:10391000F102EF30D0622307A1025C40035564003E
:10392000F18313F717008347F10252055181F99B88
:10393000D98FA307F102EFE0F01439C5AA8403552B
:103940000500EF80800583D704002AD26800231C7D
:10395000F10083D72400231DF1001C4803D6470043
:103960008C43EF1060798347B400CA861786010044
:103970001306C6108117A305F4006C004810EFE091
:10398000101F5D616FD0FFB72155E5BF1C45B1CF5A
:1039900003C5A700894613576500630BD7028D4600
:1039A000630ED70285466300D7021307400633052E
:1039B000E50203C7B700418B15CB83C7B700BD8BAA
:1039C0003355F54082801375F5031307803EC5B764
:1039D00009671375F50313070771D1BF372709006E
:1039E0001375F5031307077CD9B701458280EFD221
:1039F0001FAF03A98500630409048347B900AE849F
:103A000093F7070E91CF03459900930520030D818D
:103A10000505B305B50288446105EFF0901F05A0C8
:103A20002E85AD372A8401CDCD218325C900B3076A
:103A3000B54063F887002E94B305A440E9FD6FD02C
:103A40005FAC8545C9BFEFD29FA92A8403D5050085
:103A5000011132C636C43AC22EC002CA02CC02CE0E
:103A6000EF70B07382452ACA22852ECC813D035760
:103A70000500231EE100EF30904CA24632469247EB
:103A8000230FA10036874C08B28622850146EFF04D
:103A90001FB405616FD0FFA6EFD27FA461711C181F
:103AA0003EC6B70780013EC81C183ECA3C08004508
:103AB0003ED4AA8402CC02CE02D002D202D6FD3B72
:103AC0008357050035592316F102EF30504723077D
:103AD000A10209C48357440091E721594A855D61D9
:103AE0006FD03FA20355640052055181EFE0807909
:103AF0002A8965D58347B40093F7070E89C7130554
:103B00008401EFF0901283574400231EF100834795
:103B100084002301F1025C4003550900D98313F7A7
:103B2000070883471102231CA10093F7F707D98FD9
:103B3000A300F10283572900231DF1005C40F183AB
:103B400013F717008347F102F99BD98FA307F102FE
:103B5000EF70B0642AD251D1834794006800139764
:103B600057008347B400FD8BD98FA305F4001C4890
:103B700003D647008C43EF102058A6871787010013
:103B80001307C7EF740005464C102685EFF03FA4DD
:103B90002A8929D58347B400A685FD8BA305F400A7
:103BA000B9352DBFEFD2BF93832485FE2A844111FE
:103BB0002685E93B834734FF93F7070E9DC32AC64A
:103BC0002685EFF01FD119C9834734FFB245FD8B1D
:103BD000A309F4FE81C52285EFF0B00341016FD047
:103BE0005F926DDD8327C4FF2685829765F9834741
:103BF00034FF93F7070E81C72285EFF010030325EA
:103C000084FE593DE1BFEFD29F8A9C4141112A8930
:103C100003C7070089472E8493566700638CF6021A
:103C20000D466382C6049307F0076302F7022E85F0
:103C3000EF10C058AA848149C16B130C4900973713
:103C40000020938727E29C43984763ECE9024101F7
:103C50006FD0BF8903D745008547E3FAE7FE2E857D
:103C6000EF10A059C1BF03D74500E3F2E7FE2E8550
:103C7000EF10C054AA842285EF10A055C204C98C4D
:103C80005DBFDC470355A900139A49003E9A93177C
:103C90000501C187635DF00083570A006395A702A1
:103CA00063E574038327CA00034D5A001DA0A16772
:103CB0002167A98F1307F7EFE374F7FE63950900F7
:103CC000EFF07FA171FD85099DBF83278A00034D19
:103CD0004A00835DA90003576900216A138BC7005E
:103CE0003AC6814A33CA4D01631E5D0197370020F1
:103CF0009387C7D79C43E1DBA286628681452685F0
:103D00008297D1B7A1679387F7EF930C4BFF63F0CE
:103D10004703B2455A85EFF09F8619CD03278B00E4
:103D2000104719CA10436380C4023107D5BFEE851E
:103D30006685EFF09F9E71FD93861A0093FAF60F49
:103D4000130B0B0255B7835644005C43E3EDF6F6C4
:103D500022853AC6EF108035A1679387D7042A8A57
:103D6000035D4400324763E897008347D90093E737
:103D700007F8A306F9001C4766852286E28582972C
:103D8000C1670844FD17337AFA00529508C0231220
:103D9000A40115BF973700209387C7CC984381476C
:103DA00015C31447814763FFD500939745004C47DF
:103DB000BE9519C903C7550081476375E600DC4508
:103DC0001606B2973E85828003C745008147E37B94
:103DD000E6FE16069C45F5B7EFD2CFEEAA892E8AED
:103DE0008144973A0020938AEAC783A70A0098473C
:103DF00063E4E4006FD04FF0DC47139444000149C2
:103E00003E9413BB140083474400634BF9000149FF
:103E100013BB140083475400634FF9008504F1B7C6
:103E20000844931759005287DA860146A2853E95C9
:103E300082990509C9BF4844931759005287DA8609
:103E40000546A2853E9582990509E9B7EFD22FE98B
:103E5000814517F5FFFF130565609737002023950F
:103E600007C09D3F6FD0EFE997370020938787BF4A
:103E70009C4399CBEFD2AFE6814517F5FFFF1305C1
:103E8000E55D993F6FD0EFE78280EFD2AFE341115C
:103E90002315E1002E89B284B6893A86814601470E
:103EA000ED452A84EF1051272AC61DCD0356A100E7
:103EB000CE85EF50117BCA852285EF10F139058937
:103EC00015C1228501462C0023149100EF10914F5B
:103ED0002A8409C5ED452800EF1091322285410161
:103EE0006FD08FE14944FDB76554CDBF5C41FD17EC
:103EF0005CC18280EFD2AFDEEF10210E9547330513
:103F0000F50281450D816FD0CFDFEFD24FDDEF108D
:103F1000C10C95473305F5020D816FD08FDEEFD2CE
:103F20000FDC03550500EF10617B6FD08FDDEFD202
:103F30000FDB035505003287AE86171600200356A7
:103F400006EC973500209385A5B281376FD06FDBE3
:103F5000EFD2EFD8EF4071726FD0AFDAEFD22FD837
:103F6000973500209385C5B0EF10B14C01456FD057
:103F70004FD9EFD2CFD6814517150020035525E440
:103F8000EF10B1376FD0EFD7EFD26FD59735002054
:103F9000938505AFEF10F14901456FD08FD6EFD271
:103FA0000FD4814517150020035565E7EF10F13454
:103FB0006FD02FD5EFD2AFD22E85EF60604CEF607F
:103FC000B0016FD00FD4EFD28FD1EF60900B6FD0D4
:103FD0004FD35C49E1175CC95CC583572501A10734
:103FE0002319F50083570501A1072318F5008280E6
:103FF000F1473305F50297370020938767AA9C4362
:104000003E9582808D476317F60603D746008547A5
:1040100063F2E706EFD2AFCC368536842E89EF10F7
:10402000E01939C18357440093140501C18063ED41
:1040300097022285EF108018FD1423129400930735
:10404000A002630EF5009307B0026301F502930727
:104050009002631BF5002285EFC0107231A001466B
:10406000CA852285EF8020036FD0AFC92285EF007B
:10407000D055DDBF8280973600209386A6A29C4251
:10408000014599CF9843D44217360020232CE6A04F
:104090006396D7009736002023A8E6A01385C7FEB5
:1040A0008280EFD2CFC37D2E7144330585029145C6
:1040B000EF70805601E565556FD0AFC4973700208B
:1040C00023AEA79C4526330585029145EF70C05469
:1040D0007DD19737002023A5A79C6926973700201C
:1040E0002398A79A4126973700202394A79A978769
:1040F00001009387E79D17370020232FF798970734
:104100000000938747ED173700202325F7980145D6
:1041100065B7EFD2CFBCAA851735002013054597A8
:10412000EF10A01D6FD0EFBDEFD26FBBDD37EF10EA
:10413000401E973700209387E7969C4381CF1387D3
:10414000C7FE09CB83D5C7FF173500201305059699
:10415000EFF0202C6FD0EFBAEFD26FB8293F11C922
:10416000834785002A8493F7070491E70355E50008
:10417000653F6FD00FB98347C500930445011739D8
:1041800000201309299285E3832709005CC997372A
:10419000002023A9979083274900E1FF973700204B
:1041A00023A49790F9B7FD172306F5006105EF608A
:1041B000C0728307840063C907048347840093E7C0
:1041C00007F82304F400EF00913D4205A94741811F
:1041D0003375F5028347840093F707FCC98F2304E6
:1041E000F4008347D4003E951C402318A40089CFD7
:1041F000984319CB8347C400504081458507330558
:10420000F502420541810297832709005CC8973770
:10421000002023A997888327490089E79737002042
:1042200023A497888347C400A9D783550401173571
:1042300000201305A587EFF0C01D25BFEFD22FAAE0
:10424000973700209387C7AB9C4701448583858BB4
:1042500081EFAE84B2853A86EF1000112A8409C539
:10426000EF100008829408CC22856FD08FA9EFD27E
:104270006FA541112E8932C6AA89692C32471306CF
:104280000502CA86970500009385C5D6173500201C
:104290001305058065372A8429CD9304C5004D2672
:1042A0001946AA852685EF00306585452685EF00ED
:1042B0001062177501001305657F4E958345050053
:1042C0002685EF0050655C4831468145A1075CC8F2
:1042D0005CC483572401E1172319F40083570401B8
:1042E000E1172318F4001C4C3E85EFD04FA2A30425
:1042F0002501228541016FD02FA0EFD24F9E4111A1
:10430000AA842EC632C4EF100000004DB2452246EA
:10431000834784000CC050C093F7F70393E707046A
:104320002304F400231804002685EF00707B8347E4
:104330009400A9462317A40013D7370005073307B5
:10434000D7029D8B85072306F400A306E40083C7EC
:104350000401D8488507230FF7FE1727002013070D
:1043600067745843232A0400930744011DEB172761
:104370000020232BF772172700202325F77217241C
:1043800000201304A4722285EFE0707E1C44858B0C
:104390005D8D09E581452285EFF0A00741016FD0D1
:1043A0004F961CC3172700202320F770C9BFEFD2F8
:1043B0000F9397050000938525C50145EFF09FBF3A
:1043C00001456FD00F94EFD28F91EFF0DFBF6FD028
:1043D0004F938347C500A1E7EFD26F902A8403551E
:1043E000E500EFF01FD315C98347840093F7F7FB6F
:1043F0002304F4001C4091C7DC4381C74C400145B5
:104400008297EFF05FC7172500201305256AEFF0AC
:10441000C0010355E400EFF03FD16FD08F8E828052
:10442000EFD2EF8B972700209387C767970500008F
:104430009385C5D2172500201305456723A00700E3
:1044400023A20700EFE010716FD0AF8B1C4D91CB12
:10445000DC4381CBEFD2AF888345070082976FD0D2
:104460004F8A828097270020938787669C4303C5E5
:104470000700828097270020938787659C4303C5A8
:104480001700828097270020938787649C4303C589
:104490002700828097270020938787639C4303C56A
:1044A0004700828097270020938787629C4303C53B
:1044B0003700828097270020938787619C4303C53C
:1044C0005700828097270020938787609C4303C50D
:1044D00067008280972700209387875F9C4303C5EE
:1044E00077008280972700209387875E9C4303C5CF
:1044F00087008280972700209387875D9C4303C5B0
:1045000097008280972700209387875C9C4303C590
:10451000A7008280972700209387875B9C4303C571
:10452000B70011E11D458280972700209387475AE5
:104530009C4303C5C7008280972700209387475973
:104540009C4303C5D7008280972700209387475854
:104550009C4303C5E7008280972700209387475735
:104560009C4303D5070182809727002093874756F5
:104570009C4303C5270182809727002093874755D6
:104580009C4303D547018280972700209387475497
:104590009C4303D567018280972700209387475368
:1045A0009C4303D587018280972700209387475239
:1045B0009C4303C5A701828097270020938747511A
:1045C0009C4303C5B70182809727002093874750FB
:1045D0009C4303C5C7018280972700209387474FDC
:1045E0009C4303C5D7018280972700209387474EBD
:1045F0009C4388578280972700209387674D9C4370
:1046000003D5C7028280972700209387674C9C437D
:1046100003D5E7028280972700209387674B9C434E
:1046200003C507038280972700209387674A9C432E
:10463000C85B828097270020938707498843828040
:1046400097270020938787488843828019E17D550A
:104650008280F5DE984265DFFDD917270020130719
:10466000276A1847AA877155058B6316072203C569
:1046700007001547E37DA7FC03C737001305F005C6
:104680007D171377F70FE364E5FC03C35700E300DE
:1046900003FC83C86700E38C08FA03C77700494529
:1046A00079171377F70FE364E5FA03C7A7001148FA
:1046B0001305F7FF1375F50FE36BA8F803CE97000A
:1046C0000D481305FEFF1375F50FE362A8F803C844
:1046D000B7006309080065181378F80F1305600D1B
:1046E000E36705F703C5C700794879151375F50F1A
:1046F000E36FA8F403C8D7000D457D181378F80FB1
:10470000E36705F503D80701930E401751184208D7
:1047100013580801E3ED0EF303C8E7007D18137882
:10472000F80FE36605F303C827017D181378F80F27
:10473000E36F05F103C88700C54E75181378F80FAD
:10474000E3E70EF103D86701856E938EBEE06D1826
:10475000420813580801E3EC0EEF03D847016D1827
:10476000420813580801E3E40EEF03D887017918D3
:10477000420813580801E36C05ED03C8A7017D1832
:104780001378F80FE36505ED03C5B7011D487D15E6
:104790001375F50FE36DA8EA03C5D70171487915C4
:1047A0001375F50FE365A8EA03D5E7011308E00FD9
:1047B0007D1542054181E36CA8E803C5070249481D
:1047C00079151375F50FE364A8E883AE470237C582
:1047D00034001308F5BFE36CD8E703A8870213057C
:1047E00055BF5918E36505E7172500202320C52E7E
:1047F00003C6050117250020232CF52C0545E37879
:10480000C5E403D82501D04933760603E31106E455
:1048100003C61501E30D06E2172600202326B62A5B
:1048200083C5270001466387A50003C61700F1452D
:104830003306B60283C707039305C00272971A07AF
:104840001307C70516031A9796084697B387B7024A
:1048500041553E97329742074183636EE802EFC2AB
:104860001FC83685EF607065EFD090162A84EF8000
:1048700090122A94EFC0701A2A94EF60F07C2A9468
:10488000EFF03F822A94EF2010612A94EF5060628B
:1048900022956FC01FC78280EFC27FC44111A3075A
:1048A000A100EF8060139305F100170500001305C8
:1048B00025BAEFF06FD2014541016FC09FC4EFC22E
:1048C0009FBF172400201304A443032884007959B0
:1048D000936818009724002023A814431378180025
:1048E000631E0800BA84BE89368B328A2E89AA8A52
:1048F000EFE0DFDC7D15269509E531594A856FC06B
:104900001FBFEFE0BFDB7D152695A167E357F5FEDE
:10491000972700209387877598433E8C814B11C75A
:104920000145EFC09033933B15004A85DA865686E1
:10493000D285EF70502C2A8911CD1C44F99B172782
:1049400000202323F73C83270C00CDDBE3880BFA00
:1049500082976DB726859727002023A5073AEFE0B9
:10496000BFD24146CE85172500201305E542EF5002
:10497000414FEFA0407D0325040BEFA0407F05458C
:10498000EFA050050545EFF03FF18DBF97270020C0
:10499000938707379C47858BD5C7EFC25FB4172530
:1049A00000201305A53D9727002023AB0734972748
:1049B000002023A907349727002023A70734EFE01E
:1049C000D026EF408000EFE0607EEFE0F002972716
:1049D0000020938767319C4381C70545EF605029CC
:1049E000972700209387071A9C4389C741657D1547
:1049F000EF50C067EFC0502FEFA0C0759727002081
:104A00009387C7449C431397170163540700EFC073
:104A1000803A9727002023A107389727002023AF4B
:104A200007369727002023AD07369727002023ABB2
:104A30000736EFF05F999D23EFF04FC1EFC0605C48
:104A40006FC03FAC8280EFC2FFA72A849304140298
:104A500001112E85B289A685214636C63A89EF50C6
:104A6000E13D1DE1B24638082686CE851305940443
:104A7000EF40404121462C084A85EF50213C133538
:104A8000150005616FC05FA70145E5BFEFC23FA5F7
:104A900093054506172500201305C503EFE07017A1
:104AA0006FC03FA6EFC2BFA341112EC6EFF0EFC506
:104AB000B24588C141016FC0DFA4EFC2BFA0AA8484
:104AC0002E84EF60B06FAA8985452285A92583C70A
:104AD000E4011389940899E313890403CE852285A0
:104AE0001D2D21469305190222853925972700207F
:104AF000938707218C432285EF00606821469385C8
:104B000084022285D52B6FC03F9FEFC2DF9A397197
:104B1000EFC080459305400645EDEF603067630EBA
:104B200005109727002083C7A7FC13B71700972607
:104B30000020238FE6FA014489CFC16417290020A1
:104B40001309091C9309400EFD14EFF0BF9A634846
:104B5000A408EFF08FBB4169B7290900096AFD7A03
:104B60002A8B81447D199389F97B130A0A71938AF0
:104B70008AC7EFF03F9863D5A4041304400EB387AF
:104B80008402172700201307A7170324070B3E945E
:104B90008357C4016386270918403307EB4063EA53
:104BA000E900834744008507B3874703D6976369C5
:104BB000F706014681450945EFF06FEBAA8B29E125
:104BC000EF2090598547631FF5048965938505712A
:104BD00017250020130505F0EFE0B003A1A8B307E7
:104BE00034030327090BBA9703D7C701630897005B
:104BF00003C75700A38207002382E7000504B1B76B
:104C00009305C5002285EFF05FEB5E8522869775E0
:104C100001009385E5EAEFF04FEE5E85EF00606FEF
:104C2000850481BF972700209387870D9C478D833C
:104C3000858BC1FF21616FC09F8B0146854509456A
:104C400002D002D202D402D6EFF06FE2AA847DD164
:104C5000EFC0C0301389C4002A8481454A85652984
:104C60000C4041464A854929832944006388090844
:104C70004E8502D802DA02DC02DEEF50E13E2ACE97
:104C8000141005462C0808184ECCEF404017137539
:104C9000F50F2DE58355840093E525004A854D29C0
:104CA00011460C104A8589290146977501009385A4
:104CB000A5E12685EFF06FE42685EF0080655C4076
:104CC000B5DB014685450D45EFF06FDAAA843DD18D
:104CD00048401389C400EF5021392AC64A85E12E85
:104CE0003246636AC5004C404A85392101468145F8
:104CF0002685EFF08FE02685292D2DBF8355840072
:104D000071BFEFC2CFFD97270020938767FF9C47B5
:104D100019CD93E78700172500201305A5DB17277A
:104D200000202323F7FEEFE0606D6FC08FFDDD9B59
:104D300017270020232AF7FCEF2010427DF51725C6
:104D40000020130525D9EFE0406EC5B7EFC2AFF6DE
:104D50004169AA892E8AB28A368BBA8B8144172C74
:104D60000020130CECF9930C400E7D19EFF08FF836
:104D700063C4A40001442DA03384940383270C0B47
:104D80003E948357C401638027055A87D68652868E
:104D9000CE8513050403EFF01FCB11C523800B0054
:104DA00022856FC0CFF48347F40191CF5A87D6860E
:104DB0005286CE8513059408EFF0FFC809C58547D4
:104DC0002380FB00F1BF850455B783574500638DF1
:104DD0000716EFC22FEF01112A84CD2619C585478A
:104DE000630AF50405616FC02FF1EFC0E0177DF98C
:104DF000835744004947ED9BE396E7FEC145228572
:104E0000612CAA842285D52E0357440002CE9147F7
:104E10002A896317F700228519293C082ACC3ECE3F
:104E2000EFC0C0135C55DDDF74084A86A6850545D2
:104E300082974DBF03574400D147E3F5E7FA032AB1
:104E40000400C1690149972A0020938A6AEB130B79
:104E5000400EFD19EFF00FEA6344A90C2285032AE6
:104E60000400A92EA1452A8922853D24AA842285F1
:104E70007D2E14402A86AA8978082685CA85EFF0F7
:104E8000FFECAA8425D103C7F40189476315F70015
:104E90008347C101A1DB5546D28513856400EF40ED
:104EA000517C0145EF60702F01C583D7C401B1EB80
:104EB000972700209387C7E49C479355190085895D
:104EC00013D73700058B11CB8983858B6397B70088
:104ED00001452EC6EFF0FFE2B2454E85EF60D033BC
:104EE0000346C1012A84937519002685EF701028A6
:104EF00031C92685EF60D02E268511C00145EF60AF
:104F00003059EF2070258547E31EF5EC83C7540028
:104F10001307F00FE388E7EC8507A382F400D9B507
:104F2000B304690383A70A0BBE9483D7C4016389C2
:104F300037015546D28513856400EF40317071D139
:104F4000050909BF5DDC5DBF8280EFC2AFD7EF60AE
:104F5000F02311CDC164014417290020130949DA57
:104F60009309400EFD14EFF0EFD8634AA400172513
:104F70000020130525B6EFE060486FC0EFD733057A
:104F800034038327090B3E958357C5016386970039
:104F900023120500EF60D0240504F1B79727002005
:104FA000938707D69C478D83858B99EBEFC22FD3D0
:104FB00017250020130505B2EFE020476FC06FD41E
:104FC0008280EFC2CFD197050000938545B41725A5
:104FD0000020130525B0EFE0E0376FC08FD283C704
:104FE000F5FF2E858507A38FF5FE828083C7F5FF29
:104FF000FD1793F7F70FA38FF5FE89EBEFC22FCEC6
:105000001385F5FFEFF0703C6FC0AFCF8280EFC229
:105010000FCD8841050542054181EFF0D03D09C51E
:1050200085472300F50005056FC0AFCD1C41035730
:1050300045008D8FBA951CC12312B5003E85828034
:1050400093D78500A2051441DD8D83574500138752
:10505000E6FF18C189072312F50013D68500411118
:10506000238FB6FEA38FC6FE4101828018419307AD
:10507000F7FF1CC18357450085072312F500A30FD6
:10508000B7FE8280835745008D8F2312F5001C41A7
:10509000BE950CC12E858280AA8703D747000841A0
:1050A0000D8FAA952392E7008CC382801841084592
:1050B0003305A740828083574500035765001D8F45
:1050C0001C4108453385A7403305A7408280EFC2C5
:1050D0000FC141112EC62A84EFF0FFFDB245637364
:1050E000B50001A0835744000840BE952312B400C8
:1050F0003E9541016FC0EFC0EFC26FBE41112E84DB
:10510000B28532C6EFF0BFFC3246A285EF40715542
:1051100041016FC00FBFEFC28FBC2E848545EFF0F9
:105120001FFB230085006FC0CFBDEFC24FBB4111F5
:105130002317B1008945EFF09FF98347E100230071
:10514000F5008347F100A300F50041016FC06FBB7C
:10515000EFC2EFB893D78500A2054111DD8D23176B
:10516000B1008945EFF0BFF68347E1002300F50069
:105170008347F100A300F50041016FC08FB8EFC273
:105180000FB61397850193D78501C166938606F004
:10519000D98F13D78500758FD98FA2053707FF00E8
:1051A000F98D4111DD8D2EC69145EFF05FF26C0057
:1051B0001146EF40114B41016FC0AFB4EFC22FB2A7
:1051C0001C41854503C40700EFF0DFEB22856FC06B
:1051D0004FB3EFC2CFB01C414111894503C707004F
:1051E00083C717002307E100A307F100EFF09FE951
:1051F0000355E10041016FC0CFB0EFC24FAE1C417B
:105200004111894503C7070083C717002307E10041
:10521000A307F100EFF01FE78357E100410113D529
:105220008700A2075D8D420541816FC08FADEFC23F
:105230000FAB0C4141112A8411466800EF407142C6
:1052400091452285EFF01FE4B247C166938606F0D0
:105250001397870113D58701598D13D78700758F51
:10526000598DA2073707FF00F98F5D8D41016FC08F
:105270004FA91C45BE950CC18280AE87944391E630
:10528000584101EF0CC15CC1828003C7570013670E
:105290001700A382E700B687D5B70CC3EDB7AA877E
:1052A000084119CD1841D44398C36313D500D8C31E
:1052B0002A87034657009376160081E623200700CD
:1052C0008280944381CA8C4203A847008CC36393B5
:1052D0000601CCC3799A14C3A302C7003687D1BF95
:1052E0001C45DC471D8DB777DBB6938777DB0985D7
:1052F0003305F502420541818280F147B385F5020D
:1053000048452E9582808347450085072302F50096
:105310008280EFC2CF9C2A8419E06FC08F9E8347A2
:105320004400E5DFFD1793F7F70F2302F400F5F7CC
:105330001C4403D7270005072391E700DC4399C3EA
:10534000228582974C4889CD83475400898B99E701
:105350001C4422859C479C439C478297232A040037
:105360000040232004004DBFEFC26F9783572500F4
:1053700041112EC691E70144228541016FC06F980B
:10538000035705008147F146E307F7FEB385D702CF
:10539000404585072E948345440008C4F5F5B2477F
:1053A000AA8481E7232A040009A81C456C002285F1
:1053B0009C439C43829748C85DDD85472312F400D7
:1053C000B24723200400231804002319F4005C488A
:1053D0005CC483D72400FD172391F40071BFEFC292
:1053E0000F90971700209387E770884323260500C6
:1053F000232405004105EFE040036FC08F90EFC20A
:105400000F8E171400201304E46E1C40411189CF45
:105410009C472300B5002AC65CC1EFF05FFC1C402E
:10542000DC4399C33245829741016FC08F8D03479A
:1054300045001DEB584DAA877D550DCBEFC22F8A35
:105440001CC3DC479716002023A6E66AF156130515
:1054500007012390D7009705000093858501EFD0C1
:10546000706F01456FC0EF897D5582808280EFC2E9
:105470000F870111614681452800EFC04F899717BA
:105480000020938727679C4328009305F00FDC4793
:105490003EC6EFF0DFF605616FC0AF8697170020BC
:1054A000938747659C43D847A1679387C7026312D8
:1054B000F70A397106DE22DC26DA80004AD84ED699
:1054C00052D456D23285B284EFF05FCFAA892685B6
:1054D000EFF03FD02318A4FC2685EFF09FCF2319CF
:1054E000A4FC2685EFF0FFCE83D744000A8A231A56
:1054F000A4FC858393F7F70F230EF4FC8607BD0702
:1055000093F7073F3301F1408A8A01498347C4FD7D
:105510006365F902CE85130584FC232C54FDEFF05E
:105520001FEE5281130104FCF2506254D2544259CE
:10553000B259225A925A216182802685EFF07FC9A2
:1055400093171900D69705092390A7001379F90F2F
:1055500075BF8280971700209387C7599C43D8470F
:10556000A1679387A7026310F70A397106DE22DC70
:1055700026DA80004AD84ED652D456D23285B2842A
:10558000EFF0DFC3AA892685EFF0BFC4FD572318CB
:10559000A4FC26852319F4FCEFF0BFC383D7440095
:1055A0000A8A231AA4FC858393F7F70F230EF4FCD1
:1055B0008607BD0793F7073F3301F1408A8A014907
:1055C0008347C4FD6365F902CE85130584FC232C53
:1055D00054FDEFF0DFE25281130104FCF2506254FB
:1055E000D2544259B259225A925A21618280268558
:1055F000EFF03FBE93171900D69705092390A70037
:105600001379F90F75BF8280971700209387874E13
:105610009C43D847A16789076318F708397106DEEC
:1056200022DC26DA80004AD84ED652D456D23285B1
:105630003289EFF0BFB8AA894A85EFF09FB9835746
:1056400049000A8A2318A4FC858393F7F70F230CDB
:10565000F4FC8607BD0793F7073F3301F1408A8AC0
:105660008144834784FD63E5F402CE85130584FC01
:10567000232A54FDEFF0BFD85281130104FCF250ED
:105680006254D2544259B259225A925A21618280AC
:105690004A85EFF01FB493971400D69785042390A2
:1056A000A70093F4F40F75BF8280971700209387AB
:1056B00067449C43D847A1679387E7046312F70ABE
:1056C000397106DE22DC26DA80004AD84ED652D462
:1056D00056D23285B284EFF07FAEAA892685EFF0EC
:1056E0005FAF2318A4FC2685EFF0BFAE231AA4FCFD
:1056F0002685EFF01FAE83D744000A8A2319A4FC45
:10570000858393F7F70F230EF4FC8607BD0793F705
:10571000073F3301F1408A8A01498347C4FD63652D
:10572000F902CE85130584FC232C54FDEFF03FCD08
:105730005281130104FCF2506254D2544259B259BE
:10574000225A925A216182802685EFF09FA89317F2
:105750001900D69705092390A7001379F90F75BF93
:105760008280971700209387E7389C43D847A1672A
:105770009387C7046310F70A397106DE22DC26DA44
:1057800080004AD84ED652D456D23285B284EFF039
:10579000FFA2AA892685EFF0DFA3FD572318A4FCFA
:1057A0002685231AF4FCEFF0DFA283D744000A8A8F
:1057B0002319A4FC858393F7F70F230EF4FC8607C7
:1057C000BD0793F7073F3301F1408A8A01498347B8
:1057D000C4FD6365F902CE85130584FC232C54FDBA
:1057E000EFF0FFC15281130104FCF2506254D25415
:1057F0004259B259225A925A216182802685EFF08D
:105800005F9D93171900D69705092390A700137978
:10581000F90F75BF8280971700209387A72D9C43AF
:10582000D847A167DD07631BF702EFB25FCB797141
:1058300032853284EFF09F982AC62285EFF07F9957
:105840002311A1022285EFF07F97B2452300A10228
:105850002808EFF0DFBA45616FB0BFCA82809717A2
:105860000020938727299C43D847A1679387870403
:10587000631BF702EFB2BFC6797132853284EFF055
:10588000FF932AC62285EFF0DF942311A10222851F
:10589000EFF0DF92B2452300A1022808EFF03FB6F7
:1058A00045616FB01FC682809717002093878724B9
:1058B0009C43D847A1679387A704631CF700EFB206
:1058C0001FC2011128008145EFF07FB305616FB061
:1058D0005FC38280971700209387C7219C43D847D6
:1058E000A167938757026311F702EFB25FBF0111FF
:1058F0003285EFF0BF8C2308A10081452800EFF02E
:105900001FB005616FB0FFBF82809717002093879B
:10591000671E9C43D847A1679387E702631FF7027E
:10592000EFB2FFBB011132853284EFF09F8AAA8467
:105930002285EFF01F8A854719E52285EFF01F8841
:105940004205B337A00028008145231891003ECAC4
:10595000EFF0FFAA05616FB0DFBA828097170020D1
:10596000938747199C43D8479947631FF704EFB2C1
:105970001FB7797132853284EFF05F842AC62285A1
:10598000EFF03F852310A1022285EFF03F83230132
:10599000A1022285EFF09F82A301A1022285EFF0F0
:1059A000FF812302A1022285EFF05F812313A10270
:1059B0002285EFF0BF80B2452314A1022808EFF042
:1059C0001FA445616FB0FFB38280971700209387B3
:1059D00067129C43D847A1679387C703631FF704E7
:1059E000EFB2FFAF797132853284EFF02FFD2AC616
:1059F0002285EFF00FFE2310A1022285EFF06FFD4C
:105A00002311A1022285EFF06FFB2302A102228560
:105A1000EFF0CFFAA302A1022285EFF02FFA2303C1
:105A2000A1022285EFF08FF9B245A303A102280855
:105A3000EFF0FF9C45616FB0DFAC8280EFB23FAA10
:105A400001112A84EFF08FF7AA842285EFF06FF816
:105A50002285EFF00FF8035744008D4763F5E70008
:105A60002285EFF00FF72285EFF0AFF62800A6852C
:105A7000EFF0FF9805616FB0DFA8971700209387BC
:105A800067079C43D847A167FD076319F700EFB28A
:105A90001FA53285EFF09FFA6FB0BFA682809717DF
:105AA0000020938727059C43D847A167E50763112A
:105AB000F706EFB2DFA2797132853284EFF00FF092
:105AC0002AC62285EFF0EFF02285EFF08FF0231049
:105AD000A1022285EFF0EFEF520551812311A102BF
