:040000006F00D018A5
:1000040000000000000000006F0080086F004050F6
:1000140000000000000000000000000000000000DC
:1000240000000000000000000000000000000000CC
:100034006F004006000000006F00E00500000000B3
:100044006F0080056F0080076F0040056F0020057A
:100054006F0000056F00E0046F00C00400000000A2
:100064006F0060046F0040046F0020046F00000400
:100074006F00E0036F00C003000000006F00600326
:100084006F0040036F0020036F0000036F00E00265
:1000940001A001A001A001A001A001A001A001A054
:1000A40001A001A001A001A001A001A001A001A044
:1000B40001A001A001A001A001A001A0B717004068
:1000C40013070006239EE708730020304111814680
:1000D40001468145114506C6BD23B7270040114797
:1000E4002383E780B7F700E003A707D16D9B23A81C
:1000F400E7D003A707D15D9B23A8E7D07300501076
:1001040001000100B24041018280411181468145D4
:100114000146114506C6052BB72700401147238326
:10012400E780B717004003C7E70283C5E70483D716
:10013400870391661377F70F93E5350063E5D700DE
:10014400719B13671700B7170040130670052380CF
:10015400C704930680FA2380D7040F10000023827B
:1001640007022380C7042380D7040F1000002387CD
:10017400E7022387B7042380C7042380D7040F1022
:10018400000003C7B70413670702A385E7042380AD
:10019400070437F700E0832507D193E545002328BA
:1001A400B7D0832507D1DD992328B7D07300501029
:1001B400010001002380C7042380D7040F1000002E
:1001C40003C7B7041377F70DA385E7042380070457
:1001D400B24041018280411122C4814681452A8472
:1001E4000146114506C68521B727004011472383E0
:1001F400E780B717004003C7E70283C5E70483D746
:10020400870391661377F70F93E5350063E5D7000D
:10021400719B13671700B7170040130670052380FE
:10022400C704930680FA2380D7040F1000002382AA
:1002340007022380C7042380D7040F1000002387FC
:10024400E7022387B7042380070437F700E08325F8
:1002540007D193E545002328B7D02380C704238022
:10026400D7040F10000083C5F70093E50504A387A6
:10027400B7002380C7042380D7040F10000083C570
:10028400B70493E50502A385B7042380C70423803C
:10029400D7040F100000E57591054D8C4204418090
:1002A40023908702832507D1DD992328B7D07300D3
:1002B4005010010001002380C7042380D7040F10CD
:1002C400000003C7B704130560041377F70DA38573
:1002D400E704238007042244B2404101ADAC01117C
:1002E4004EC681460146AA898145114506CE22CCD7
:1002F40026CA4AC8892EB727004011472383E780BE
:10030400B716004083C7E60203C7E60483D6860314
:10031400116693F7F70F1367370063E5C600F19B87
:1003240093E71700371400401309700523002405D0
:10033400930480FA230094040F10000023020402A3
:1003440023002405230094040F1000002307F40263
:100354002307E40423000404130550028520B7F79F
:1003640000E003A707D11367470023A8E7D02300C1
:100374002405230094040F1000000347F4001367BE
:100384000704A307E40023002405230094040F10AA
:1003940000002567B3E9E9002310340303A707D15C
:1003A4005D9B23A8E7D07300501001000100F240C8
:1003B4006244D2444249B24905618280B717004081
:1003C400930670052380D704130780FA2380E7047B
:1003D4000F10000003C6B7041376F60DA385C704F7
:1003E40023800704137605023DCA03C6A700118AB9
:1003F4001DE22380D7042380E7040F10000003C705
:10040400A700136747002385E7009307004B01000B
:100414000100FD17EDFFB717004093067005238018
:10042400D704130780FA2380E7040F1000007D89A6
:100434002394A700010001000100010023800704A8
:100444002380D7042380E7040F10000037270040DF
:1004540093061005A303D7802380070482801376B4
:1004640005046DDE03C6A700418A1DE22380D7047C
:100474002380E7040F10000003C7A70013670701D8
:100484002385E7009307007D01000100FD17EDFFC0
:10049400B7170040930670052380D704130780FA2A
:1004A4002380E7040F1000007D891365050423945D
:1004B400A70001000100010001002380070423803C
:1004C400D7042380E7040F10000037270040930669
:1004D400300549B74111814601468145114506C69B
:1004E4009D22B7170040130770052380E704130704
:1004F40080FA2380E7040F10000003C76704136722
:1005040017002383E70423800704B240410182805B
:1005140081460146814511453D22B71700409306A7
:1005240070052380D704130780FA2380E7040F1093
:1005340000007D562396C7022380D7042380E70456
:100544000F10000003C76704136717002383E70431
:100554002380070401A0BD473305F50201007D1582
:1005640075FD8280411122C426C206C6AA840144B4
:1005740063179400B24022449244410182800504EE
:100584001305803E4204C13F4180DDB7230304804C
:1005940095472303F4802302A48082808307648028
:1005A400E3CE07FE23030480828083076480E3CEC6
:1005B40007FE03454480828083076480E3CE07FE00
:1005C4002302A4808280411126C44AC24EC006C6BA
:1005D4001377F50BAD47AA892E8995446306F70076
:1005E40019456D37653F8D444E854D37FD59FD14D2
:1005F40063983401B240A244124982494101828085
:10060400135509011375F50F453F2209CDB70111A3
:1006140026CC06CEB704080051371545853F7137FF
:1006240069372AC6A53F32459377150089EB1365D0
:1006340015001375F50FF240E24405618280FD1444
:10064400E9FC0145CDBF397126DC4ADA4ED852D6D1
:1006540056D45AD25ED062CEB7E700E006DE66CC4E
:100664006ACA414783AB070422C6B8C37D5703ABAC
:10067400070083AA470023A0E71823A2E718B717A7
:100684000040130770052380E704130780FA2380D2
:10069400E70483C74704130C75FFB684E207137C91
:1006A400FC0F85462A8A2E89B28937240040E187C7
:1006B400015763FA86016308D500894613070002CF
:1006C4006313D5000157D98F93F7F70F371D0040F7
:1006D4002302FD0411472303E4801305F00F7D3545
:1006E400894C6D3D63EB8C11B70707003E99378742
:1006F40007007955637EE902B3079900636AF7023C
:10070400A947631CFA0689E48144493D26850DA066
:10071400CA8509454D3D850903C5F9FFFD14050941
:10072400613D81C49377F90FFDF7D53569FD7D559A
:10073400B7170040130770052380E704130780FAF6
:100744002380E70403C74704418B2382E704B7E708
:1007540000E023A07705F25023A0671123A25711CC
:10076400E25432445259C259325AA25A125B825B41
:10077400724CE24C524D21618280A5476314FA0603
:1007840085699307F00FB3869700B374F900B694A4
:1007940093C7F7FFFD8C33F92701416A056C9387F2
:1007A400F9FFB3F7270199E363FC340193D94900B6
:1007B400C147E3E637FF89BF8567C169FD17E1B724
:1007C4001305800D638849011305000263848901C0
:1007D40013051008CA85C53B1D3D31D94E99B38414
:1007E4003441D9B7CA852D45F93BCE94E38E99F0AF
:1007F4008509653BA38FA9FED5BF9307FAFF93F73D
:10080400F70F63ECFC0803475D04B7070800137790
:10081400070219E3B78707007955E37BF9F033073B
:100824009900E3E7E7F089476310FA048980554AA1
:10083400E38C04ECCA8509457933910903A7C9FF00
:1008440091472320E48003076480E34E07FE2303DB
:100854004481FD17EDFBFD14110981C49377F90F51
:10086400E9FF753371F5E1B58547E307FAF4CA8505
:100874002D45913B1389F4FFE38804E83D339377D6
:10088400390091EB8326048003A70900938749006C
:10089400E39DE6E6BE89CA84F1BFB5476316FA0054
:1008A4001305900BE5318DB5B1471305B00AE30B81
:1008B400FAFE9947631EFA02CA852D4529338144FD
:1008C4000D4C214ADD31639684018327048023A0E3
:1008D400F9008504E39844FF832704801317290152
:1008E400635507002392F90005B523A2F90029BD39
:1008F4009D476319FA0281451305B004E931BD44EB
:1009040023A0090023A209007D59453193F77400FF
:10091400CE9703C70700FD14398D2380A700E39603
:1009240024FFDDB3A1476312FA04D5318144630D7A
:1009340009008D479304C0036308F900930400057C
:1009440063049901930440041375C507E30E95DA13
:1009540019452D39A131054515392685B139094582
:10096400A1397531E31205DAD9B391476319FA0055
:100974001305600621391D311305900925B7E305D8
:080984000AD8F15459B3000038
:10098C00974100209381C105177100201301C166A6
:10099C001305400097350020938505E61736002097
:1009AC001306067E63FAC5008322050023A05500BA
:1009BC0011059105E3EAC5FE172500001305059AFC
:1009CC00973500209385C57B1386818063FAC5001B
:1009DC008322050023A0550011059105E3EAC5FE0D
:1009EC0013858180938541816377B50023200500B1
:1009FC001105E36DB5FE9302800873A002309732A7
:100A0C000020938262DF93E212007390523037170A
:100A1C000040930770052300F704930780FA230026
:100A2C00F7040F1000003C47B70600FAE116F58FEB
:100A3C00B70600069506D58F3CC797020000938237
:100A4C00A20D73901234730020303D432A876373D8
:100A5C00C3029377F700BDEFADE5937606FF3D8AB1
:100A6C00BA960CC34CC30CC74CC74107E36BD7FEFB
:100A7C0011E28280B306C3408A0697020000969664
:100A8C006780A6002307B700A306B7002306B700AC
:100A9C00A305B7002305B700A304B7002304B700D0
:100AAC00A303B7002303B700A302B7002302B700C8
:100ABC00A301B7002301B700A300B7002300B700C0
:100ACC00828093F5F50F93968500D58D939605014D
:100ADC00D58D61B793962700970200009696868273
:100AEC00E78086FA9680C1171D8F3E96E374C3F893
:100AFC00A5B7371700408327870A411106C693E72D
:100B0C0007202324F70A8D45130500205122B240FB
:100B1C00410169A941111305800406C697300020D4
:100B2C00E780400985457D55A52285457D552124C5
:100B3C00C937B717004083C51704171500001305F4
:100B4C00256E71291305800C97300020E780002159
:100B5C008545130500022D2A894513050002BD2C7D
:100B6C00B7E700E03707020023A0E7100146C145B4
:100B7C000545F524171500001305C56B41230545E4
:100B8C0097300020E780801D97300020E78080D3CD
:100B9C00171500001305456B95231305401F97305F
:100BAC000020E780A01B171500001305656AB92308
:100BBC00094597300020E780601A97300020E780C5
:100BCC0040D405457928094597300020E780001965
:100BDC00171500001305456715231305401F9730A3
:100BEC000020E780A017171500001305A56739230F
:100BFC00094597300020E780601649459730002062
:100C0C00E780E0DC0545B128154597300020E780EA
:100C1C00E0141715000013052563CD211305401FA3
:100C2C0097300020E7808013171500001305C5646A
:100C3C00F121094597300020E7804012014597309B
:100C4C000020E78040E90545292817150000130509
:100C5C00A55F6D211305401F97300020E780001021
:100C6C0001A0B717004003C7E70493067005238063
:100C7C00D7040D89930680FA1377C70F498F238009
:100C8C00D7040F1000002387E70423800704828019
:100C9C00914763EEB702171700001307675F8A05C9
:100CAC00BA959C41BA978287B717004003A7470BA8
:100CBC001345F5FF698F23AAE70A03A7070B698F72
:100CCC0023A8E70A03A7070A798D23A0A70A828025
:100CDC00B717004083A6470B1347F5FFF98E23AADD
:100CEC00D70A83A6070B558D23A8A70A83A6070A44
:100CFC00758F23A0E70A8280B717004003A7470B24
:100D0C00498F23AAE70A03A7070B1345F5FF45BF35
:100D1C00B717004083A6470B1347F5FF758F23AA1F
:100D2C00E70A03A7070A598D4DB7B717004003A769
:100D3C00470B498FEDB7914763EEB70217170000C9
:100D4C00130747568A05BA959C41BA978287B717FD
:100D5C00004003A7470D1345F5FF698F23AAE70C45
:100D6C0003A7070D698F23A8E70C03A7070C798D40
:100D7C0023A0A70C8280B717004083A6470D13470A
:100D8C00F5FFF98E23AAD70C83A6070D558D23A842
:100D9C00A70C83A6070C758F23A0E70C8280B717CE
:100DAC00004003A7470D498F23AAE70C03A7070DA3
:100DBC001345F5FF45BFB717004083A6470D1347F2
:100DCC00F5FF758F23AAE70C03A7070C598D4DB7B8
:100DDC00B717004003A7470D498FEDB793170501CF
:100DEC000547C1836382E5048DC10947638DE50422
:100DFC000D476380E50637170040231EF70883561E
:100E0C000709D58F2318F70882803717004003563F
:100E1C00470993C6F7FFF18E231AD7088326C70A12
:100E2C00558D2326A70AC1BF371700400356470923
:100E3C0093C6F7FFF18E231AD7088326870A558DA0
:100E4C002324A70A4DBF3717004083564709DD8E70
:100E5C00E1B73717004083564709DD8EE9BF0DE92E
:100E6C00B7170040130770052380E704130780FAB7
:100E7C002380E7040F10000003C7E70093C5F5FFBC
:100E8C00F98D2387B700B7170040238007048280B1
:100E9C008D471307000C63E9C70097170000938771
:100EAC00674BB29703C70700B717004013057005CF
:100EBC002380A704130680FA2380C7040F100000B8
:100ECC0083C6E70093F6F6032387D7002380A70495
:100EDC002380C7040F10000083C6E700D58DD98D81
:100EEC004DB7B717004003D5870042054181937772
:100EFC00050491EB9377F5013755E801130505804F
:100F0C003345F50282809377050C13070004639731
:100F1C00E7009377F50137459C1CCDB72165130588
:100F2C0005D08280814737370040A14663C4C70093
:100F3C00328582800345B740E38EA6FE3385F500EB
:100F4C000345050085072304A740CDB7973700203C
:100F5C00938707299C43138741813E95636EE50077
:100F6C0017770020130747E96368A700173700209D
:100F7C002328A7263E858280FD57EDBF411122C450
:100F8C0006C62A84B93F2947B307E502B2408D83D0
:100F9C00B3D7870222449507B3D7E702373700400F
:100FAC00C207C1832316F74041018280716541114C
:100FBC001305052006C6D937B7370040130770F85C
:100FCC002381E7400D47A381E74013070004A3806A
:100FDC00E74005472387E740B240410182803971E1
:100FEC003EDA2ED232D436D63AD842DC46DE9737A9
:100FFC0000209387271F22CC804326CA06CEAA84C2
:10100C0009C41C4C99E3228535230C4454102686C4
:10101C00228536C6EF00F017F2406244D2442161BB
:10102C008280011126CA4AC806CE22CC4EC652C4B2
:10103C00AA842E8901C51C4D91E3ED299C4C80445A
:10104C0099E32685C529971700009387E728631C29
:10105C00F402C0408357C400A18BB1C71C48A1C780
:10106C00FD59294A1C4483450900FD17B1E91CC4EC
:10107C0063DE07062286A94526854128FD576308AD
:10108C00F502294535A0971700009387E7266314CE
:10109C00F4008044C1B7971700009387E721E31B46
:1010AC00F4FAC04445BFA2852685052255D97D5545
:1010BC00F2406244D2444249B249224A05618280DC
:1010CC001CC4050963D70700184C63CBE700638980
:1010DC0045011C401387170018C02380B70059B76F
:1010EC00228626851D20E31F35F7D1B71C401387B8
:1010FC00170018C029472380E70061B797370020F5
:10110C009387470EAA85884329BF011122CC26CA92
:10111C004AC806CE4EC6AA842E89328401C51C4DFF
:10112C0091E30929971700009387071B6319F406AD
:10113C00C0401C4C1CC48357C400A18BC9C31C48A1
:10114C00BDCF1C4808409379F90F1379F90F1D8D09
:10115C005C486346F500A2852685752C2DE51C445C
:10116C000505FD171CC41C401387170018C02380ED
:10117C0037015C486389A7008357C400858B81CBFA
:10118C00A9476316F900A285268571240DEDF2405E
:10119C0062444A85D2444249B2490561828097171C
:1011AC000000938767156314F400804459B79717B0
:1011BC00000093876710E31EF4F6C0449DBFA28520
:1011CC00268521203DDD7D59D9B741119737002067
:1011DC009387470126C2844322C44AC006C62A8983
:1011EC002E8489C49C4C99E32685A9269717000068
:1011FC009387870E631CF402C0400317C400931737
:10120C000701C18393F68700B5EE93F607019DEEB7
:10121C00A5472320F900136707042316E4007D5526
:10122C00B240224492440249410182809717000047
:10123C009387870C6314F4008044C1B797170000A0
:10124C0093878707E31BF4FAC04445BF918B8DC786
:10125C004C5889C9930744046384F5004A8591234B
:10126C00232A04028357C4002322040093F7B7FDFA
:10127C002316F4001C481CC08357C40093E7870056
:10128C002316F4001C4881EF8357C4001307002079
:10129C0093F707286385E700A2854A85A521835724
:1012AC00C40013F7170005C75C4823240400B307D8
:1012BC00F0401CCC1C480145A5F78317C40013F75C
:1012CC00070839DF93E707042316F40089BF898BDD
:1012DC00014791E3584818C4F1BF83D7C5000111E9
:1012EC0022CC26CA06CE4AC84EC613F78700AA845B
:1012FC002E8471EFD841634DE000B841634AE000A1
:10130C000145F2406244D2444249B24905618280AF
:10131C0058547DD703A904009396370123A00400E9
:10132C0063DD060670488357C400918B99C75C40F7
:10133C001D8E5C5899C33C401D8E5C540C508146EC
:10134C0026858297FD570357C400631DF500944012
:10135C00F54763E8D706B70740208507B3D7D70012
:10136C00858BA5C31C48232204001CC0931737018E
:10137C0063D80700FD576314F5009C4091E368C8DF
:10138C004C5823A02401ADDD930744046384F5007D
:10139C0026850129232A0402A5B70C50014685464F
:1013AC0026850297FD572A86E31FF5F69C40A5DF9C
:1013BC0075476385E70059476394E70423A024012C
:1013CC0081B7136707042316E4007D551DBF83A95D
:1013DC000501E38709F203A905008D8B23A03501D4
:1013EC0033093941014791E3D84918C4E35A20F134
:1013FC001C540C50CA864E86268582976349A000E1
:10140C008357C40093E707042316F4007DBFAA9901
:10141C003309A940E1BF9C49B9CF011122CC06CEBA
:10142C002A8411C51C4D81E72EC62922B245971777
:10143C000000938767EA639BF5004C408397C500D7
:10144C0095C722856244F240056141BD97170000A3
:10145C00938787EA6394F5000C44CDB79717000087
:10146C00938787E5E39CF5FC4C44C9BFF24062448A
:10147C0001450561828001458280411122C406C666
:10148C002A842316B5002317C50023200500232228
:10149C000500232405002322050623280500232A02
:1014AC000500232C0500214681451305C505EFF0E9
:1014BC00CFD997170000938767B55CD097170000BA
:1014CC009387C7B71CD497170000938707BC5CD4CD
:1014DC00971700009387C7BE00D01CD8B240224497
:1014EC004101828097050000938525F389AA41115B
:1014FC0026C2130680069384F5FFB384C4024AC047
:10150C002E8922C406C693854407A1262A8401CDC0
:10151C002320050023222501310508C413868406E7
:10152C008145EFF08FD22285B24022449244024989
:10153C00410182801C4DBDE3411106C622C49707B0
:10154C000000938767FA1CD5971700009387C7E0B4
:10155C009C43232405042326050423280504631433
:10156C00F50085471CCD2A841D2848C022850528F6
:10157C0008C422852D2048C4484001469145F53DBC
:10158C0008440546A545D53D48440946C945F535A9
:10159C0085471CCCB240224441018280828041119B
:1015AC0097170000938747DB26C284434AC006C6C0
:1015BC009C4C22C42A8999E32685AD3F93848404EC
:1015CC008044DC40FD1763D607009C40B9CF8440B3
:1015DC00C5BF0317C40039E7C1778507232204066A
:1015EC002320040023220400232404005CC42328A9
:1015FC000400232A0400232C0400214681451305F2
:10160C00C405EFF08FC4232A0402232C04022324E4
:10161C000404232604042285B24022449244024945
:10162C00410182801304840671BF91454A85C135FE
:10163C0088C051FDB1472320F9000144E9BF7971FD
:10164C0022D44AD052CC56CA5AC85EC606D626D226
:10165C004ECE2A8AAE8A130485040149054BFD5BE4
:10166C0009ECB25022544A8592540259F249624A0A
:10167C00D24A424BB24B45618280044483294400D8
:10168C00FD1963D409000040E1BF83D7C400637B1C
:10169C00FB008397E40063877701A6855285829AC5
:1016AC003369A90093848406E1BF1971A6DAAE846C
:1016BC008395E500A2DC86DE328463DC050083D7EB
:1016CC00C40023A0060093F7070885E793070040A2
:1016DC001DA0300836C6EF003024B246E34105FEAB
:1016EC007247BD67F98F7977BA9793B717009CC289
:1016FC00F1BF930700041CC0F6506654D654014544
:10170C000961828083D7C500011122CC06CE26CA7E
:10171C004AC8898B2E8489CF930774041CC01CC8BB
:10172C0085475CC8F2406244D244424905618280DC
:10173C0074003000AA84953FA2452A892685112A77
:10174C0001ED8317C40013F7072069FFF19B93E7A2
:10175C0027002316F400C9B7970700009387C7D852
:10176C009CD48357C40008C008C893E70708231605
:10177C00F400A2475CC8B24791CF8315E4002685DC
:10178C00EF00301C01C98357C400F19B93E717008D
:10179C002316F4008357C4003369F900231624017F
:1017AC0051B7DDC583A7C5FF411122C406C626C2A9
:1017BC001384C5FF63D307003E94AA84EF00501F27
:1017CC0097370020938747A29C4391EF2322040074
:1017DC009737002023AA87A02244B2402685924442
:1017EC0041016F00101D637EF40014403307D400D8
:1017FC006396E7009843DC43369718C05CC0C9BFBA
:10180C00BA87D84319C3E37DE4FE94433386D700EB
:10181C00631F86001040B29694C33386D700E31D35
:10182C00C7FA10435843B29694C3D8C375B76375BF
:10183C00C400B1479CC04DB71040B306C40063163A
:10184C00D70014435843B29614C058C0C0C369B7EC
:10185C008280011126CA93843500F19806CE22CCE1
:10186C004AC84EC6A104B14763F3F404B14463E221
:10187C00B4042A89EF00D0139387818098433A846B
:10188C0039E09387C1809C4391E781454A85812F3C
:10189C0023A6A180A6854A859927FD59631935078A
:1018AC00B1472320F9004A85EF00B01029A0E3D0FE
:1018BC0004FCB1471CC10145F2406244D244424988
:1018CC00B249056182801C40858F63CF0702AD460B
:1018DC0063F6F6001CC03E9404C031A05C40631358
:1018EC00870223A4F1804A85EF00B00C1305B400E5
:1018FC009307440061993307F5405DDF3A94898F73
:10190C001CC05DBF5CC3C5B72287404095BF1304A4
:10191C0035007198E30285FCB305A4404A85C125C6
:10192C00E31C35FBB5BF1C46FD171CC663DA07006C
:10193C00184E63C5E700A9476394F5006FF0EFFC00
:10194C001C422E851387170018C22380B700828093
:10195C00011122CC26CA4AC84EC652C406CE2A89C8
:10196C00AE893284B304D6007D5A631494000145C9
:10197C0009A8834504004E864A8575370504E3168D
:10198C0045FFF2406244D2444249B249224A0561C1
:10199C008280357122CD26CB4AC94EC706CF52C59F
:1019AC0056C35AC1DEDEE2DCE6DAAA89AE8432899D
:1019BC00368401C51C4D91E3B53E97170000938703
:1019CC00A791639BF40C83A4490083D7C400A18B1B
:1019DC00F5C79C48E5C793070002A304F1029307DF
:1019EC00000302D22305F10222C6930B5002971A70
:1019FC000000938A6A92054C294B4A848347040061
:101A0C0099C36390770FB30C2441638D0C00E68669
:101A1C004A86A6854E852D3FFD576306F51E9256C8
:101A2C00E69636D283470400638F071CFD571309D3
:101A3C00140002C802CE3ECA02CCA309010482D40F
:101A4C008345090015465685B92713041900C2476A
:101A5C0059E913F7070109C713070002A309E104A9
:101A6C0013F7870009C71307B002A309E1048346E3
:101A7C0009001307A0026380E608F2474A848146F6
:101A8C0025460347040093051400130707FD6379EB
:101A9C00E60AB5CA3ECE85A8971700009387C7857E
:101AAC006395F40083A489000DB797170000938702
:101ABC00A780E39CF4F083A4C90001BFA6854E85E2
:101ACC00EFF0AFF009D97D55FA406A44DA444A493F
:101ADC00BA492A4A9A4A0A4BF65B665CD65C0D6197
:101AEC008280050421BF330555413315AC00C98FE5
:101AFC003EC82289B1B7324793064700184336C611
:101B0C00634907023ACE034704009307E002631FC0
:101B1C00F704034714009307A002631BF702B247B4
:101B2C000904138747009C433AC663C107023ECAA7
:101B3C0035A83307E04093E727003ACE3EC8E1B71B
:101B4C00B387670385462E84BA9725BFFD57C5B763
:101B5C00050402CA814681472546034704009305C4
:101B6C001400130707FD6376E606F1F283450400C3
:101B7C000D46170500001305A57A312D11CD9707D9
:101B8C0000009387E7791D8D93070004B397A70096
:101B9C00424505045D8D2AC8834504001946170586
:101BAC00000013052578130914002304B102E52362
:101BBC003DC197E7FFFF9387274495E74247B2471C
:101BCC001377071009CF91073EC69257D2973ED292
:101BDC002DB5B387670385462E84BA97BDBF9D0785
:101BEC00E19BA107D5B7780097060000938686D6AF
:101BFC0026860C084E8597000000E7000000FD5774
:101C0C002A8AE314F5FC83D7C40093F70704E39CFA
:101C1C0007EA125555BD780097060000938686D3C7
:101C2C0026860C084E85012AD9BF797156CA9C4963
:101C3C00BA8A984522D426D24ECE52CC06D64AD059
:101C4C005AC85EC6AA892E84B284368A63D3E7004A
:101C5C00BA879CC00347340419C385079CC01C4039
:101C6C0093F7070281C79C4089079CC00329040095
:101C7C0013796900631A0900130B9401FD5B5C4432
:101C8C009840998F634CF9041C408346340493F7B5
:101C9C000702B336D000A5EB13063404D2854E856B
:101CAC00829AFD576303F5041C4011469840998BAA
:101CBC00544481446397C700B384E64063D3040063
:101CCC0081441C4418486354F700998FBE94014911
:101CDC0069047D5B63982405014509A885465A86ED
:101CEC00D2854E85829A631E75017D55B250225461
:101CFC0092540259F249624AD24A424BB24B456164
:101D0C0082800509ADBF3307D40013060003A3017D
:101D1C00C7040347540493871600A2978906A3812E
:101D2C00E7049DBF85462286D2854E85829AE30EB6
:101D3C0065FB050945B7797122D426D24AD04ECE1F
:101D4C0006D652CC56CA5AC8B68983C685019307A3
:101D5C0090063289AA842E8413863504638DF6028C
:101D6C0063E2D706930780056387F61863EDD70007
:101D7C006380062293073004638EF60A930A2404C8
:101D8C002301D404C9A0930730066385F60A930790
:101D9C004006E395F6FE1C40084393F607089305AE
:101DAC004500C5C61C410CC363D807001307D002FD
:101DBC00B307F040A301E40497060000938606578E
:101DCC0029476DA8930700076383F61663E5D702CE
:101DDC009307E006638AF6189307F006E390F6FA89
:101DEC000C401C4313F805081385470063070806CD
:101DFC0008C39C438DA893075007E383F6FE930713
:101E0C008007638AF61293073007E399F6F61C43B2
:101E1C00D04181459386470014C383AA0700568599
:101E2C009D2E01C53305554148C05C401CC8A3011B
:101E3C00040471A81C43930A2404938647009C4312
:101E4C0014C32301F4048547D5B793F607041C414A
:101E5C000CC3B9DAC207C18781BF93F5050408C367
:101E6C00C9D983D707001307F0066387E60E9706D8
:101E7C0000009386A64B2947A30104044C400CC4D4
:101E8C0063C5050008406D9908C099E3B28A91CDED
:101E9C00B28AB3F5E702FD1AB69583C50500238017
:101EAC00BA00B3D5E70263FFE70AA147631EF70048
:101EBC001C40858B91CB58401C4863C7E7009307A7
:101ECC000003A38FFAFEFD1A3306564110C84E8745
:101EDC00CA867000A2852685893B7D5A631E450BF8
:101EEC007D55B250225492540259F249624AD24A58
:101EFC00424B45618280A382D504970600009386ED
:101F0C00E6420C40084313F805081C411105630D0B
:101F1C00080208C313F7150001C793E505020CC0AE
:101F2C004147B9FB0C4093F5F5FD0CC0B1B79C4192
:101F3C0093E707029CC193078007A302F40497065A
:101F4C0000009386E63F75BF13F8050408C3E3034E
:101F5C0008FCC207C1837DBF970600009386063D2F
:101F6C00214719BFAE8735B794411C43CC4913F8B0
:101F7C000608138547006306080008C39C438CC3FE
:101F8C0001A808C393F606049C43F5DA2390B70026
:101F9C0023280400B28A25BF14485686CA85268594
:101FAC008299E30F45F31C40898B8DE7B247484477
:101FBC00E359F5F23E8535B785465686CA852685A2
:101FCC008299E30F65F1050A5C443247998FE3452A
:101FDC00FAFEE9BF014A930A94017D5BF5B7411102
:101FEC0022C42A842E8523A8018006C6EFE01FF6A2
:101FFC00FD576317F500938701819C4391C31CC067
:10200C00B240224441018280411122C42E84839526
:10201C00E50006C64522634905007C48AA977CC8A2
:10202C00B2402244410182808357C4007D777D17E2
:10203C00F98F2316F400EDB783D7C500011122CC1C
:10204C0026CA4AC84EC606CE93F70710AA842E8419
:10205C003289B68991C78395E500894601463122BC
:10206C008357C4007D777D17F98F2316F4008315F1
:10207C00E4006244F240CE864A86B2494249268543
:10208C00D24405613DA8411122C42E848395E500FC
:10209C0006C6E128FD570357C400631BF500FD7706
:1020AC00FD17F98F2316F400B240224441018280BF
:1020BC008567D98F2316F40068C8FDB78395E500B2
:1020CC0005A8411122C42A842E85B285368623A800
:1020DC00018006C6EFE01FE5FD576317F5009387F7
:1020EC0001819C4391C31CC0B240224441018280B7
:1020FC00411122C42A842E8523A8018006C6CD2036
:10210C00FD576317F500938701819C4391C31CC055
:10211C00B240224441018280411122C42A842E857E
:10212C00B28523A8018006C6D120FD576317F500A0
:10213C00938701819C4391C31CC0B240224441014E
:10214C008280411122C42A842E8523A8018006C6D0
:10215C006520FD576317F500938701819C4391C35C
:10216C001CC0B240224441018280411122C42A8405
:10217C002E85B285368623A8018006C66120FD57C0
:10218C006317F500938701819C4391C31CC0B24037
:10219C0022444101828093F5F50F2A966314C50001
:1021AC000145828083470500E38DB7FE0505FDB729
:1021BC0082808280411122C42A842E85B285368683
:1021CC0023A8018006C6A920FD576317F500938745
:1021DC0001819C4391C31CC0B240224441018280C6
:1021EC009307800523A8F1807D5582809307800595
:1021FC0023A8F1807D5582809307800523A8F18068
:10220C00014582809307800523A8F1807D5582804B
:10221C009307800523A8F1807D55828053746172E9
:10222C007420404368697049443D253032780A0077
:10223C0049444C45206D6F646520736C6565702056
:10224C000000000077616B652E2E200048616C74D5
:10225C00206D6F646520736C656570200000000054
:10226C00736C656570206D6F646520736C6565704B
:10227C00200000007368757420646F776E206D6F9A
:10228C00646520736C656570200000001CEAFFFF1C
:10229C0044EAFFFF6CEAFFFF84EAFFFF9EEAFFFFC0
:1022AC00AEEAFFFFD6EAFFFFFEEAFFFF16EBFFFFE9
:1022BC0030EBFFFF000000000000000000000000F9
:1022CC000000000000000000000000000000000002
:1022DC0000000000000000000000000000000000F2
:1022EC0000000000000000000000000000000000E2
:1022FC0000000000000000000000000000000000D2
:10230C0000000000000000000000000000000000C1
:10231C0000000000232D302B20000000686C4C00C6
:10232C006566674546470000303132333435363701
:10233C0038394142434445460000000030313233C5
:10234C0034353637383961626364656600000000E5
:08235C0040C000808841002010
:1023640000000000E022000000230000C022000062
:102374000000000000000000000000000000000059
:102384000000000000000000000000000000000049
:102394000000000000000000000000000000000039
:1023A4000000000000000000000000000000000029
:1023B4000000000000000000000000000000000019
:0823C400FC41002088410020CB
:00000001FF
