:081000006F10002314F401003D
:1010080000000000000000006F0080086F0020252D
:1010180000000000000000000000000000000000C8
:1010280000000000000000000000000000000000B8
:101038006F004006000000006F00E005000000009F
:101048006F0080056F0060056F0040056F00200588
:101058006F0000056F00E0046F00C004000000008E
:101068006F0060046F0040046F0020046F000004EC
:101078006F00A0266F00C003000000006F0060032F
:101088006F0040036F0020036F0000036F00E00251
:1010980001A001A001A001A001A001A001A001A040
:1010A80001A001A001A001A001A001A001A001A030
:1010B80001A001A001A001A001A001A0B717004054
:1010C800130770052380E704130780FA2380E704D9
:1010D8000F1000002396A70223800704371700404B
:1010E80083472705898BEDDF8357070537170040AE
:1010F80083472705898BEDFF37170040834727056E
:10110800898BEDDF035507058280B71700409306EA
:1011180070052380D704130780FA2380E7040F1093
:10112800000003C6B7041376F60DA385C704238011
:101138000704137605023DCA03C6A700118A1DE2FB
:101148002380D7042380E7040F10000003C7A700FB
:10115800136747002385E7009307004B0100010050
:10116800FD17EDFFB7170040930670052380D704DD
:10117800130780FA2380E7040F1000007D89239469
:10118800A70001000100010001002380070423805B
:10119800D7042380E7040F10000037270040930688
:1011A8001005A303D78023800704828013760504E3
:1011B8006DDE03C6A700418A1DE22380D704238081
:1011C800E7040F10000003C7A70013670701238572
:1011D800E7009307007D01000100FD17EDFFB71739
:1011E8000040930670052380D704130780FA2380F4
:1011F800E7040F1000007D89136505042394A700F8
:101208000100010001000100238007042380D704A6
:101218002380E7040F1000003727004093063005AD
:1012280049B74111814601468145114506C65122FB
:10123800B7170040130770052380E704130780FAE7
:101248002380E7040F10000003C767041367170023
:101258002383E70423800704B2404101828081464A
:10126800014681451145B122B71700409306700524
:101278002380D704130780FA2380E7040F100000A7
:101288007D562396C7022380D7042380E7040F10D6
:10129800000003C76704136717002383E70423804C
:1012A800070401A0BD473305F50201007D1575FD52
:1012B8008280411122C426C206C6AA84014463174B
:1012C8009400B240224492444101828005041305EF
:1012D800803E4204C13F4180DDB7B7170040130785
:1012E80000032388E702854723A6F178730020309E
:1012F800411106C69929FDBF23030480954723039E
:10130800F4802302A480828083076480E3CE07FEF2
:1013180023030480828083076480E3CE07FE0345AD
:101328004480828083076480E3CE07FE2302A48082
:101338008280411126C44AC24EC006C61377F50BF7
:10134800AD47AA892E8995446306F70019456D377C
:10135800653F8D444E854D37FD59FD146398340122
:10136800B240A244124982494101828013550901C1
:101378001375F50F453F2209CDB7011126CC06CECE
:10138800B704080051371545853F713769372AC6B4
:10139800A53F32459377150089EB13651500137542
:1013A800F50FF240E24405618280FD14E9FC014535
:1013B800CDBF397126DC4ADA4ED852D656D45AD225
:1013C8005ED062CEB7E700E006DE66CC6ACA414767
:1013D80083AB070422C6B8C37D5703AB070083AAB3
:1013E800470023A0E71823A2E718B7170040130700
:1013F80070052380E704130780FA2380E70483C776
:101408004704130C75FFB684E207137CFC0F85466E
:101418002A8A2E89B28937240040E187015763FA66
:1014280086016308D5008946130700026313D500B7
:101438000157D98F93F7F70F371D00402302FD049A
:1014480011472303E4801305F00F7D35894C6D3D6A
:1014580063EB8C11B70707003E993787070079556A
:10146800637EE902B3079900636AF702A947631C20
:10147800FA0689E48144493D26850DA0CA850945B7
:101488004D3D850903C5F9FFFD140509613D81C47A
:101498009377F90FFDF7D53569FD7D55B7170040EE
:1014A800130770052380E704130780FA2380E704F5
:1014B80003C74704418B2382E704B7E700E023A072
:1014C8007705F25023A0671123A25711E254324442
:1014D8005259C259325AA25A125B825B724CE24C80
:1014E800524D21618280A5476314FA0685699307E6
:1014F800F00FB3869700B374F900B69493C7F7FF5B
:10150800FD8C33F92701416A056C9387F9FFB3F71E
:10151800270199E363FC340193D94900C147E3E605
:1015280037FF89BF8567C169FD17E1B71305800DCE
:1015380063884901130500026384890113051008B3
:10154800CA85C53B1D3D31D94E99B3843441D9B7BD
:10155800CA852D45F93BCE94E38E99F08509653B04
:10156800A38FA9FED5BF9307FAFF93F7F70F63EC94
:10157800FC0803475D04B70708001377070219E35F
:10158800B78707007955E37BF9F033079900E3E75C
:10159800E7F089476310FA048980554AE38C04EC24
:1015A800CA8509457933910903A7C9FF91472320C3
:1015B800E48003076480E34E07FE23034481FD179C
:1015C800EDFBFD14110981C49377F90FE9FF753319
:1015D80071F5E1B58547E307FAF4CA852D45913BD6
:1015E8001389F4FFE38804E83D339377390091EBDE
:1015F8008326048003A7090093874900E39DE6E654
:10160800BE89CA84F1BFB5476316FA001305900B6B
:10161800E5318DB5B1471305B00AE30BFAFE9947DA
:10162800631EFA02CA852D45293381440D4C214A8F
:10163800DD31639684018327048023A0F9008504A3
:10164800E39844FF83270480131729016355070093
:101658002392F90005B523A2F90029BD9D47631916
:10166800FA0281451305B004E931BD4423A00900FD
:1016780023A209007D59453193F77400CE9703C71B
:101688000700FD14398D2380A700E39624FFDDB3FE
:10169800A1476312FA04D5318144630D09008D47CF
:1016A8009304C0036308F9009304000563049901D7
:1016B800930440041375C507E30E95DA19452D39CF
:1016C800A131054515392685B1390945A139753145
:1016D800E31205DAD9B391476319FA0013056006D6
:1016E80021391D311305900925B7E3050AD8F154AE
:1016F80059B309CDB7170040130770052380E704D5
:10170800130780FA2380E7042396A702828019C171
:10171800814799E982803387F500834607003307BC
:10172800F50085072300D700E397C7FEE5B719C181
:10173800FD5781E98280910503A7C5FF1105232E76
:10174800E5FE7D16E319F6FEF5B7797122D4173454
:1017580000001304A4D71C4006D626D24AD04ECE89
:1017680091C782979737000023A207D65C4089CBA0
:1017780003D5817BBD3F5C40829703D5A17B953F14
:101788001C40639907189737000083C737E6858B95
:1017980095C797370000A38B07E417370000034766
:1017A80017E5914763FCE7006D2B9737000083C767
:1017B80017E4F9178A07A2979C4382979737000086
:1017C80083C787E7918B89C7971001E0E780E072AC
:1017D8001C4491C382979387417B98431736000036
:1017E800034696CC3E89973400009384E4CB973720
:1017F800000083C767CB93961700BA9683D6060076
:10180800638006109737000083C707CA63F2C708CA
:1018180086073E97835507002310070003D5817B71
:101828002EC62390017CF1359387C17C9C431735E4
:101838000000034565C713172500BA979C43B245B6
:101848008297AA8903D5A17B6D359737000083C796
:10185800A7C5139717008327090003D5017C1345F3
:10186800F5FFBA9703D7070033753501598D2390D3
:10187800A70083C70400850793F7F70F1737000001
:101888002304F7C217370000034717C263E6E700CF
:1018980097370000238A07C01C40ADEF9387417C2F
:1018A80098433E8425CB9737000083C797D491CBC4
:1018B8009737000083C7B7D389E7971001E0E7801F
:1018C800C0101C4082972A8431C59C48AA971737B4
:1018D80000002323F7BE9387817C9C4385CF03D5E3
:1018E800817B013D2285970000E0E780E0E52254F6
:1018F800B25092540259F24903D5A17B4561D5BB38
:10190800850793F7F70F97360000238FF6B8E3E0C3
:10191800C7EECDBDB250225492540259F2494561E6
:1019280082809167B7C600409387373023A6F62098
:101938000F10000097370000938707B7884F971755
:1019480000009387A7F69C43316713073730F0539D
:10195800B7071000FD17918F99833A0523A6E62053
:101968005D8D82804111B7170040985F3AC6945F39
:101978003247E39CE6FE324541018280411106C6AA
:10198800D5379736000083C6A6AF858AB1C69307B8
:1019980030333307F502B337F5023983CA07D98FD5
:1019A80017370000130747B0584B01456303F70288
:1019B8003385E740636BF70037653D0889C637858F
:1019C8006F0813050590198D3E95173700002327DA
:1019D800F7AEB24041018280E5473307F502B337DD
:1019E800F5022583DE0765BF0327C50F8346B500CB
:1019F80097370000938747BF9C4F5843938616023A
:101A080095829043FD1693F6F60F10C3D04350C34A
:101A1800904710C7D04750C7904B10CBD04B50CBF6
:101A2800904F10CFD04F50CF91C61307070293871E
:101A38000702C1BF82808347E50193F7E70FF1EF03
:101A48002A870345F50171E90346070183468700A4
:101A580009CA8345A7029737000083C777A263E7BF
:101A6800F50093F70601C5CF814709CA8347871553
:101A780003467715C18AA207D18F81CA8346B71555
:101A88000347C7152207558FBA97D1CB17370000E0
:101A9800130707C13847411122C406C67D5483265F
:101AA800070863F386003684184375FB1737000070
:101AB8000347079D93168701E18663D9060293873A
:101AC800C7139583173700000347279CBA9763D03D
:101AD80006041D8C9387017D9C4382973335A400AF
:101AE800B24022441345150041018280058B93873B
:101AF800C71209CB8A079387F7031305D007B3D713
:101B0800A702C9B78607FD071305D003CDBFE37247
:101B1800F4FC3705C0A82A946DBF014582808280F5
:101B2800411122C417140000130444D718404AC0B6
:101B380006C61C5F26C2171900001309E9D5998348
:101B4800858BD1C31C5F973400009384E4A993F775
:101B5800F7F91CDF9737000083C707A993F7070435
:101B68008DC39387017D9C4382979737000023A5F7
:101B7800A7A883C7040093F7F70B173700002305BE
:101B8800F7A6854717370000A302F7A683C74400C6
:101B980093F7070491EF97170000938727D19C4389
:101BA800D844B8D3930700FC173700002300F7A4E4
:101BB8008387640063D90700832709009C4317378C
:101BC80000002306F7A218401C5F8583858BD9CBBC
:101BD800F5571CDF010001000100010001000100B0
:101BE80001000100010001000100010001000100E5
:101BF80001000100010001000100010001000100D5
:101C080001000100010001000100010001000100C4
:101C180001000100010001000100010001000100B4
:101C280001000100010001000100010001000100A4
:101C38000100010001000100010001000100010094
:101C48000100010001000100010001000100010084
:101C58000100010097170000938747C59C431307AD
:101C68005004B8CB18401C5F9183858B99CFBD5722
:101C78001CDF97170000938767C39C4323A80704BA
:101C88008547173700002303F79683270900D843B1
:101C98000583058B19C7D843759BD8C3D843799B4F
:101CA800D8C3B2402244924402494101828039712A
:101CB80006DE16DC1ADA1ED82AD62ED432D236D050
:101CC8003ACE3ECC42CA46C872C676C47AC27EC0F4
:101CD800813DF250E2525253C2533255A255125628
:101CE80082567247E2475248C248324EA24E124FBD
:101CF800824F21617300203097170000938707BB3C
:101D08009443173700001307278EBC5289CF8347A7
:101D18002700858B89EB83473700858BFDD797375D
:101D280000002385078C828037C700401306C00354
:101D380093062003973500009385058B832787201A
:101D4800C18393F7F7036369F60083278720C1836C
:101D580093F7F70363E6F60083C74500858BF9DF41
:101D6800828097170000938767B494431737000061
:101D780013078787BC5289CB83470700858B91CB94
:101D8800973700002384078697370000A3800786CB
:101D9800828083471700858BF1DFDDB79717000036
:101DA8009387C7B0904337C70040C145E5468327AE
:101DB8008720C18393F7F70363FBF5008327872008
:101DC800C18393F7F70363E4F6003C52EDF3828096
:101DD80017170000130787AC1843AA87185F1583E5
:101DE800058B41E30345150015051377C51F19C673
:101DF800B386E70083C626002300D60095C597263C
:101E0800000083C6C67E93F606040945A1CEB386B4
:101E1800E70083C63600054693F5F6066394C504C5
:101E2800E206E18663C006043385E70083471500B0
:101E380003470500A20793F70770D98F1397070187
:101E480041839376074089CA136707809717000074
:101E5800239AE7A401458280171700002314F7A4EA
:101E6800D5BF0545828097160000938626A48C422C
:101E7800368597260000938626779845931707019D
:101E8800C183137817203E8663060804137707205A
:101E980069C703C726001367170017280000230621
:101EA800E87413070019B8D1130700F89725000044
:101EB800238EE572171700001307479E0C43370857
:101EC8000010D855719B13672700D8D59841336700
:101ED800070198C11377261005C31376061059CE4B
:101EE80003C706001367170017260000230EE66EC7
:101EF80017270000231E076E83C6460093C7F7FF07
:101F0800C207E206E186C183184163D106029396AF
:101F1800170163DE060630538D4663E9C600854621
:101F2800172600002304D66C3453FDFE97260000C4
:101F38009386C6538386460163DD060093960701A0
:101F4800C18663DC06047053894663E4C600745393
:101F5800FDFE1447F58F1CC7828003C71600136760
:101F6800170097250000A381E56817270000230FB5
:101F7800076617270000231D0766A9BF03C7360099
:101F88001367170017260000A301E66695B7854674
:101F980017260000230CD66451BF54471396060138
:101FA80063510602B7061000FD1674D39726000089
:101FB8009386864F944E8506172600002322D65016
:101FC80049BFA166D58F71B7397106DE16DC1ADAFA
:101FD8001ED82AD62ED432D236D03ACE3ECC42CAD9
:101FE80046C872C676C47AC27EC0B53DF250E25287
:101FF8005253C2533255A255125682567247E2477F
:102008005248C248324EA24E124F824F216173008D
:102018002030172700001307E75E8346B70197278C
:10202800000083C77761B69793F7F70FFD4663EA19
:10203800F6044C4B97260000A386F65C9727000011
:1020480083C7575C05473317F70097260000A38519
:10205800F65E6D8F1DEF9726000083C6365EB3F6D9
:10206800D70213050002814733D6F500058A13F815
:10207800F70F09CE6399E60097270000A384075954
:10208800828081177DB705071377F70F8507E39DD2
:10209800A7FC828097170000938707829843B75759
:1020A80002009387279F83260709139656006358D3
:1020B8000600832607091396660063440600FD1789
:1020C800FDF3828045C1AA870145D9CD8D07C20796
:1020D800C183F19BC207C18313074003636FF702F3
:1020E8001717000013074786084317170000130740
:1020F800278514436398A60217270000130707379C
:10210800185B014535C34111C20706C60545DD8D7B
:102118000297B2400145410182801717000013075A
:102128006782D9B70357650005EF03574500636910
:10213800F702B306F74021466370D6021041938632
:1021480087001D8FAA96611790C22392E6002393F9
:10215800060014C12312F5002313B500210582805F
:10216800084149BF01458280828005C19707000068
:102178009387877D03A80700970700009387477C0C
:102188008C430147C28763E3B70082809443636747
:10219800F50863E5A60813868700E368C5FE03D53E
:1021A800670021660506631BC50017060000034685
:1021B800E66A0506170500002302C56A239307008F
:1021C80063860703170600001306C6771042630FDD
:1021D800F6000356670019EA83D7470014C38356ED
:1021E8004700B697A1072312F700BA879843E30E72
:1021F800B7F8970600009386E6749442E307D7F889
:1022080083566700D9F283D6470003564700184320
:10221800A106B2962392D70098C382803E87B687DC
:042228009DB700005E
:10223000972100209381015D17610020130181DC4B
:1022400017F5FFFF130585DC971500209385855B47
:10225000172600201306467D63FAC5008322050079
:1022600023A0550011059105E3EAC5FE17D501002D
:102270001305851E938541221386017663FAC500F6
:102280008322050023A0550011059105E3EAC5FE50
:102290001385017697550020938585CB6377B5002C
:1022A000232005001105E36DB5FEB72200009382DF
:1022B000828873A00230971200209382A25493E286
:1022C00012007390523037170040930770052300B7
:1022D000F704930780FA2300F7040F1000003C472F
:1022E000B70600FAE116F58FB70600069506D58FFA
:1022F0003CC79712000093822276739012347300C9
:1023000020303D432A876373C3029377F700BDEF04
:10231000ADE5937606FF3D8ABA960CC34CC30CC755
:102320004CC74107E36BD7FE11E28280B306C3407E
:102330008A069702000096966780A6002307B700DA
:10234000A306B7002306B700A305B7002305B7000F
:10235000A304B7002304B700A303B7002303B70007
:10236000A302B7002302B700A301B7002301B700FF
:10237000A300B7002300B700828093F5F50F939672
:102380008500D58D93960501D58D61B7939627006D
:102390009702000096968682E78086FA9680C1179B
:1023A0001D8F3E96E374C3F8A5B7B717004003C767
:1023B00077051377E70FA38BE704130700F8A38DC6
:1023C000E7043D47238CE70413075003A38CE7047D
:1023D0008280B717004003D587005D715ED6420545
:1023E000418186C6A2C4A6C2CAC04EDE52DC56DAFD
:1023F0005AD862D466D26AD06ECE9377050C130792
:102400000008814B638EE718130700046392E716F8
:10241000B7240D8F7D8993840480B3D4A40291677F
:10242000938707E8BE94A167938707D0B3D4F402DB
:10243000EFA0F15B97C70100938747729043D443A5
:10244000EFA0B10FEFB0211D2A8B939C040103D99B
:10245000017693DC0C0163150900056913090980F5
:10246000B7170040130770052380E704130780FAAD
:102470002380E7040F1000000547371A0040939DA2
:102480000401096C85662389E704D14A814E8145A0
:10249000130D0A0413087005130680FA894893DDAA
:1024A0000D01130C0C712943FD1623000D012300AF
:1024B000CD000F10000023162A0323000D008347D0
:1024C0002A05898BEDDF83570A0583472A05898B07
:1024D000EDFF83472A05898BEDDF83570A0523909B
:1024E0002177C207C183338597419319050193D999
:1024F0000941638609163387B9026350070E850EBA
:10250000C20E93DE0E0163EAD80D63DB050A3305C4
:10251000B04093150501C185C204C18063D9350B54
:10252000B7170040130770052380E704130780FAEC
:102530002380E7040F10000009651305057133853A
:10254000A5022396770323800704334595024205AD
:102550004181B640264496440649F259625AD25AFD
:10256000425BB25B225C925C025DF24D61618280F3
:10257000B1E3B77489097D8993840480B3C4A4024C
:102580009167938707E8BE94A167938707D0B3C488
:10259000F402EFA0D14597C701009387A75C79BDEE
:1025A00097C701009387475B856403AB070093845B
:1025B000843861BD130B0000954441BD3A89F5B5DF
:1025C000B387FC409399070193D90941B1B70965D5
:1025D000130505713385A9028DBF3385B74163E4C7
:1025E000FC003385FD40330585033344B503634563
:1025F000830013150401A9BF4E8536C642C432C2FA
:10260000EFA01175DA85EFA09145EFA0516E931EF2
:10261000050193DE0E41B307D941C207C183056EA0
:102620003E871246224889482943B24663E3C701E0
:10263000368742074183631A270113071900634451
:1026400030011307F9FF42074183FD1A93FAFA0F8D
:10265000CA8BCE85E3940AF62390E17659BF0145F3
:10266000CDBDB717004003D587005D7186C6420512
:102670004181A2C4A6C2CAC04EDE52DC56DA5AD884
:102680005ED662D466D26AD06ECE02C69377050C4F
:1026900013070008638FE714130700046393E7121E
:1026A000B7240D8F7D8993840480B3D4A4029167ED
:1026B000938707E8BE94A167938707D0B3D4F40249
:1026C000EFA0F13297C70100938747499043D44365
:1026D000EFA0A166EFA031742A89939A040103DB6D
:1026E000217693DA0A0163150B00056B130B0B803F
:1026F000B7170040130770052380E704130780FA1B
:102700002380E7040F1000000547939B04018969AB
:10271000056A2389E704D14D014D814C93DB0B0100
:10272000938909717D1A5A8597100020E780401916
:10273000330C5541420C135C0C41239161776303C8
:102740000C16B3079C0363D3070E050D420D135DF2
:102750000D01894763ECA70D63DD0C0A3305904139
:10276000931C050193DC0C41C204C18063DA8C0B1D
:10277000B7170040130770052380E704130780FA9A
:102780002380E7040F1000000965130505713385E8
:10279000AC0232472396E7022380070433459502B3
:1027A00042054181B640264496440649F259625A90
:1027B000D25A425BB25B225C925C025DF24D616177
:1027C0008280B1E3B77489097D8993840480B3C49E
:1027D000A4029167938707E8BE94A167938707D007
:1027E000B3C4F402EFA0B12097C7010093878737E5
:1027F000F1BD97C7010093872736856403A90700B9
:1028000093848438D9BD130900009544F9B53E8BF3
:1028100019BF3385AA40131C0501135C0C41A9B7ED
:102820000965130505713305AC028DBF63FEAA006F
:102830003305754133053503A9473344750363C830
:10284000870013150401B1BF3385AB40E5B762853E
:10285000EFA01150CA85EFA09120EFA05149131DA0
:102860000501135D0D413307AB4142074183856587
:10287000BA876363B700D287C207C183639A6701CF
:1028800093071B00634480019307FBFFC207C183CA
:10289000FD1D93FDFD0F5AC6E28CE39A0DF62391C0
:1028A000F17645B70145FDBD41112A83014E930ED6
:1028B000407E130F0019930F400663ED6E0A9308D4
:1028C000001913034006B3781503854E0D4FA14F31
:1028D000337365020D891335150063E7BE0C1308C9
:1028E000F6FF794672984208135808013307C70269
:1028F00013D61700BE0732976146B3F6C602130619
:102900008070B386C6023697A166F58F42075D8F49
:10291000B717004083C6F70293F60608A307D10055
:102920000346F10083C6F70293F60608E394C6FE59
:102930008346F10093F6F60FF1DE930670052380CF
:10294000D704930680FA2380D7040F10000023AA2F
:10295000070383C6170393E60608A388D702D8DBCC
:1029600003C7170313670704A388E702238007043C
:10297000410182807D133368E3039308E016630E00
:1029800008003368F3039308D016630808009378AF
:10299000330093B818009388D81633081E01131E0D
:1029A0000801135E0E0111BF6393E50305486386BA
:1029B00008000148630303002A8871087298FD1516
:1029C000131E0801C205135E0E01C18139B713F849
:1029D000150063F4BF007908D5B713381800E5BFB8
:1029E000914763EEB70217C70100130727188A053E
:1029F000BA959C41BA978287B717004003A7470B47
:102A00001345F5FF698F23AAE70A03A7070B698F10
:102A100023A8E70A03A7070A798D23A0A70A8280C3
:102A2000B717004083A6470B1347F5FFF98E23AA7B
:102A3000D70A83A6070B558D23A8A70A83A6070AE2
:102A4000758F23A0E70A8280B717004003A7470BC2
:102A5000498F23AAE70A03A7070B1345F5FF45BFD4
:102A6000B717004083A6470B1347F5FF758F23AABE
:102A7000E70A03A7070A598D4DB7B717004003A708
:102A8000470B498FEDB7B717004003D587004205C4
:102A900041819377050491EB9377F5013755E80170
:102AA000130505803345F50282809377050C1307E3
:102AB00000046397E7009377F50137459C1CCDB779
:102AC0002165130505D0828037E700E01C4354439D
:102AD000A183E206D58F1CC1FD572320F7182322BE
:102AE000F7180F1000008280B7F700E0C8439C473A
:102AF0008280814737370040A14663C4C7003285D2
:102B000082800345B740E38EA6FE3385F50003457A
:102B1000050085072304A740CDB79387016E9C432A
:102B2000174700201307C7423E95636CE50017570F
:102B300000201307272D6366A70023A0A16E3E8502
:102B40008280FD57EDBF411122C406C62A84253F6D
:102B50002947B307E502B2408D83B3D787022244E9
:102B60009507B3D7E70237370040C207C183231662
:102B7000F74041018280716541111305052006C6A9
:102B8000D937B7370040130770F82381E7400D4766
:102B9000A381E74013070004A380E740054723878C
:102BA000E740B24041018280411122C406C603C7FA
:102BB000050089470544631FF702D841294483472C
:102BC000170003470700A207D98FC207C187130761
:102BD00010EE6391E7022383D176814793F6F60FD7
:102BE0009725002093854568139707014183636902
:102BF000D702014403C6617619CE938781769C4340
:102C000099CBDC4389CB972500209385E565014569
:102C10008297238301762285B2402244410182803B
:102C20003307F600034507003387F50085072300C7
:102C3000A7005DBF03C7050089476315F706D841A4
:102C40008347170003470700A207D98FC207C18730
:102C5000130710EE6394E70432852390060003C641
:102C6000517619E20145828041112390C6009725D3
:102C700000209385E54F06C697100020E780602965
:102C8000A3820176938781769C43014589C79C4343
:102C900099C382970145B24041018280239006008A
:102CA000294582802390060005458280058909C94F
:102CB0009386412641469145138541226F603069D4
:102CC0000145828009C523A4A1760145828045453E
:102CD000828051476362C702411117250020130506
:102CE000254906C6A382C17697100020E78060229E
:102CF000B2400145410182801305E00F8280CC4142
:102D0000411106C6328503C6150083C5050022069B
:102D10004D8E42068D654186138875A2630C060FA1
:102D20006348C804138845A26306060B634AC800BB
:102D3000938535A26309B60623900600294679A03B
:102D4000138855A26308060B938565A2E316B6FEA9
:102D5000C1451D4663ECE5064546198E63F3C70081
:102D60003E862390C60097C50100938565E289A839
:102D7000138895A26300060F634E060B1388A5A265
:102D8000630A060F938505A5E318B6FA99451D4613
:102D900063EEE502198E63F3C7003E862390C600FA
:102DA0009385C16E31A89D451D4663E1E50221462C
:102DB000198E63F3C7003E862390C6009385C176C3
:102DC000BA9597100020E780C0140146B2403285C2
:102DD00041018280AD451D46E3EAE5FE3146198E8C
:102DE00063F3C7003E862390C60097C50100938514
:102DF000E5DDF9B7B1451D46E3EAE5FC3546198E38
:102E000063F3C7003E862390C60097C501009385F3
:102E1000E5DC7DB7C1451D46E3EAE5FA4546198E76
:102E200063F3C7003E862390C60097C501009385D3
:102E300065D779B7C1451D46E3EAE5F84546198EE1
:102E400063F3C7003E862390C60097C501009385B3
:102E5000E5D9BDB7C1451D46E3EAE5F64546198EFD
:102E600063F3C7003E862390C60097C50100938593
:102E7000A5D4B9B7B5451D46E3EAE5F43946198E40
:102E800063F3C7003E862390C60097C50100938573
:102E900025CF3DB79386C13A4146CD451385C1271D
:102EA0006F60F04A83C7850093F70702D9EB03C32D
:102EB000050089482E888547631C130383A84500B5
:102EC000328EB68E83C7180083C808003A8FA207D7
:102ED000B3E71701C168938F18FE638DF7018D1852
:102EE000638A17010D681308289063890705A947AD
:102EF0003E858280AD47E31D0FFE0547B547E39948
:102F0000EEFE8327C80003470E002380E700032757
:102F1000C800938741776313F70001439387417893
:102F20009843814771D7184361D7411106C61A8566
:102F30000297B24081473E854101828085476F50AC
:102F4000E005A14775B72D453DEF03C7050089474B
:102F50006317F706D8418347170003470700A20706
:102F6000D98F4167130547FE638AA7006362F502A4
:102F7000FD07C207C1830547636FF70085472390AC
:102F8000F600DC45014583C707002300F600828078
:102F900015176386E7002390060029458280CC45FB
:102FA0009547411132852390F600154606C69710C5
:102FB0000020E78000F6B240014541018280239065
:102FC000060005458280828041677917630CE5021F
:102FD000411122C406C685472A84639AF5002285DA
:102FE0002244B2409385817741016F6090428947C6
:102FF0006396F5008545EF90600C75D1B240224490
:10300000410182808280411122C42A8441659385D6
:1030100081777D1506C6EF60D03F170500001305C8
:10302000E5FA0588EF90000101CC2244B240938676
:10303000814C4146C5451385813B41016F6030316C
:10304000B240224401454101828009C523A2A178F2
:103050000145828045458280914763E2A70817C7F2
:1030600001001307E7B90A053A951C41BA97828710
:10307000854761456397F50683470600238AF17605
:103080000145828085476145639DF50483470600BD
:10309000A38AF176F5B7854761456394F5048347C4
:1030A0000600238BF176E9BF85476145639BF502F6
:1030B00083470600A38BF176E1B79547614563929C
:1030C000F5024111B2851385C177154606C69710E2
:1030D0000020E78000E4B2400145410182800945BB
:1030E00082808280914763E8A70417C70100130715
:1030F00067B20A053A951C41BA97828783C7417720
:103100002380F5000145828083C75177D5BF83C7EF
:103110006177FDB783C77177E5B741112E851546F5
:103120009385C17706C697100020E78080DEB24005
:1031300001454101828009458280411106C6EFF0B8
:103140004FA9BD4763F4A700EFF0AFA8EFF06FD130
:10315000BD4763F4A700EFF0CFD0B24083D521760E
:1031600003D5017641016F10A015411193962500FA
:10317000AA852D4506C697100020E780C0A3B2405F
:10318000014541018280411126C29394250022C449
:103190004AC02A843289A686AA850146254506C6E4
:1031A00097100020E78020A1A6864A86A28529459F
:1031B00097100020E78020A0B240224492440249A8
:1031C000014541018280011122CC06CE3714004016
:1031D00026CA4AC84EC652C483447405034AB4057D
:1031E0008349840503499405EFF02F9C8347A40588
:1031F00093F4F40F137AFA0F93E71700230DF404F6
:1032000093F9F90F1379F90FB717004003C7A70512
:10321000058B6DFF03D5C705A38D4705238C3705A7
:10322000A38C2705A38B9704F2406244D244424901
:10323000B249224A0561828041119397050122C457
:1032400006C6C1872E8463DD0700EF00500E19C14A
:10325000EF0050072165218DB24022444101828058
:1032600093F7150013C51500E5FB9397250163D06F
:103270000702EF206118D13537F60200130606E089
:10328000896503C58178EF00B05B0965E9B793975D
:1032900015010145E3D207FC17C501001305459D43
:1032A000EFA0617213060064916503C58178EF0099
:1032B000305911654DB71D71494697C50100938579
:1032C000A59617C501001305A5CB86CEEF00103FCC
:1032D00001E917C5010013056596EFA0C16E01A0B5
:1032E00037F700E0F9575CC7FD571CCB8566B7E799
:1032F00000E023A0D7101306701010C3B843414656
:10330000B0C323A0D718B8C30F1000001306C00322
:1033100081454808EF0070349727002093870715F0
:103320003ECA896793870780231CF100ED57A301EC
:10333000F1029307A0102312F102D1472303F102F7
:10334000A167938707E03ECE97070000938727E2A7
:10335000BEC497070000938747E3BEC68547230492
:10336000F102B5472308F10297F7FFFF938707782B
:103370003EDAB7F5070097070000938707E53EDEC2
:10338000814697070000938787DB7000E1051945A8
:10339000BEC097100020E7800082580881479946F8
:1033A00070003E960346060085070507A30AC7007E
:1033B000E398D7FED24791C70357810185676373AE
:1033C000F70001A04808EF100005AA8501C917C53C
:1033D00001001305E587EFA0614D01A0F6402561CE
:1033E0008280411117050000130545E506C622C479
:1033F000EF00F07E138481782300A4002928034580
:1034000004002244B24037F60200130606E0896544
:1034100041016F00F042411122C406C6371400403A
:10342000930670052300D404130780FA2300E404F4
:103430000F1000008347F40293F7A70FA307F402CD
:103440002300D4042300E4040F1000008347F40297
:1034500093E72700A307F402CD311305407E230034
:10346000040481470147814605468545EFF0CFC3F7
:103470002244B240014541016F10402717C50100A9
:10348000130505826FA02154011106CE19C5894785
:103490006300F502F2400561828017C50100130543
:1034A000A593EFA041529305F10001452539DDB701
:1034B00017C5010013050594EFA0E1509305F10035
:1034C0000945EDB77D15954763E6A70A17B70100D3
:1034D0001307477A0A053A951C41011122CC06CE02
:1034E00026CABA972E84828717C501001305C5879F
:1034F000EFA0614D91A017C501001305E587CDBF71
:1035000083D4E50017C5010013050588EFA0A14B82
:10351000B14763F3970217C501001305E587EFA0D4
:10352000814A0355A40083C781701307803E8146FA
:1035300031469945EF601130F2406244D244056152
:10354000828017C50100130525865DB785471306E0
:10355000F100854513055030A307F100EF60D169F4
:1035600017C501001305C58561B717C5010013050F
:103570002586BDBF82807971170500001305C51728
:1035800006D622D426D2EF0090659384817005443C
:103590002380A4003008854513055030230C81009A
:1035A000EF6091651386C155FD4513057030EF60DE
:1035B000B1641386C1709D4513056030EF60D1631F
:1035C0009305000A0D45EF20501B9305000A114595
:1035D000EF20B01A3008914513057040A306810012
:1035E000230781002308810002CCA3070100EF50CC
:1035F000513D1306D100854513050040EF50713C45
:103600001306E100854513051040EF50913B13066A
:10361000F100854513052040EF50B13A100885456B
:1036200013055040EF50F1397D55EF40C06A7D558C
:10363000EF60005BEFF01F867D55F1327D55EFF0B6
:10364000EFE613864154D5450145EF40A05B89471D
:103650002307F1008D47A307F100B7373233938773
:1036600007133ECCB7373637938747533ECE938701
:103670008175984383C747001306D10085450145EE
:103680003AC8230AF100A3068100F9321306E100CB
:1036900085450545D1321306F100854509456D3A4A
:1036A0003008A1450D454D3A1008954511456D323C
:1036B00013854170593A1385C16FEFF0AFE003C530
:1036C00004008545EF007005B250225492544561C4
:1036D00082802E86AA8501456FF0AFDF0111230697
:1036E000A1008945680006CEA3060100DD37F2403F
:1036F0000561828001119397050122CC06CE26CA6E
:103700004AC8C1872E8463D0070203C58170052192
:1037100011C14D2EA1673D8C2285F2406244D244F6
:1037200042490561828093F715009DC3138681533A
:103730009385417A03C58170EF6071161306803E50
:10374000894503C58170EF00B00F13441400E9B739
:1037500093F725008DC789451306803E03C5817008
:10376000EF00100E2C000D45EFF0DF9711E5300053
:10377000A1450D45EFF05F8E1344240071BF93F710
:103780004500ADC79384417990401389017983271F
:1037900009009315C60017B5010013056551BE95C4
:1037A000EFA0C1109C40832509008566B207014641
:1037B000BE95054597000020E780E03F1375F50FA3
:1037C00009C5293F1344440081BF9C40850723AAB3
:1037D000F178138781791843E3E0E7F417B5010026
:1037E0001305454EEFA0211E0145E1BF01442DB751
:1037F0001305E00FE5B5411122C41724002013047E
:1038000064B626C22286AA8491469D652D4506C6C9
:1038100097000020E780203A9306001001469D653E
:10382000254597000020E780003922862300940078
:103830002244B240924491469D65294541011703B7
:1038400000206700433701456FF00FA87971972773
:10385000002083C727B206D622D493C70708114792
:103860006360F71A17B70100130747428A07BA9730
:103870009C43BA978287172600200346B6AF23A041
:10388000C17A9725002083D505AFB767030092055D
:10389000BE9517B501001305E54323AEB178EFA03F
:1038A000E1009387C1798C4383D6017A17260020E3
:1038B000130686AC094597000020E780C02F1374DB
:1038C000F50F19C417B5010013058542EFA0A10F2C
:1038D00022852935B25022544561828097250020E7
:1038E00083D565A9B76703009205BE95172600200A
:1038F000035686A817B501001305854023AEB1789D
:1039000023ACC17823A8B17823AA01782386017A51
:10391000EF90D179938701799443B777030063EFF0
:10392000F600938781799C43370710007D17BA977B
:10393000B207B69737D706006375F7001305F00F87
:1039400049BF914503C58170C92B69B7172600206F
:10395000034656A223A0C17A9725002083D5A5A1AE
:10396000B76703009205BE9517B501001305453BE7
:1039700023AEB178EF9091739387017A9443938744
:10398000C1798C43172600201306069F0D4597002A
:103990000020E78040221374F50F19C417B5010009
:1039A0001305C539EFA0210203C5C17A418D2386D5
:1039B000A17A05B717B5010013058539EFA0A1005D
:1039C00059350D450D3D294597000020E780A00E93
:1039D00097000020E7802005F5BD17B5010013050D
:1039E000E537EF90517EB707600389073EC6D145A2
:1039F000B707107368003EC8230A0100D939D9BD42
:103A0000C53BC9BD4111172500201305A59606C663
:103A100097000020E780E04FB240410105BD011151
:103A2000914670009D652D4506CE97000020E780E9
:103A300080188346C10005479387F6FF93F7F70F79
:103A40006367F700A389D170F24005618280A38982
:103A5000E170DDBF41111305800406C69700002008
:103A6000E780E0EA371700408327870A8D45130572
:103A7000002093E707202324F70AEFE07FF6EFF01A
:103A80008F8F17B501001305A54FEF90D173413FFC
:103A9000EFF07F82EFF0FF94EF605140E93C970038
:103AA0000020E780200523AC05FE1C4191E70100C2
:103AB00001000CC18280BA8703A787FF6DFF23AC8A
:103AC000B7FE82801DC18346E5FF1307F00F9147C3
:103AD000639EE600411106C697100020E78020E9AA
:103AE000B24081473E854101828095473E85828074
:103AF00001E9014582800145B240224441018280B2
:103B0000411122C42A84210542059305D004418134
:103B100006C697100020E78020DB71DDFD572320CB
:103B20000500231285002303F5002105F1B7138753
:103B3000017B1C43411122C426C24AC006C601446F
:103B40000149BA8489E7A1658D250DC401A803C781
:103B5000E7FF6318A7021DC8A165C1269840832707
:103B600084FF6317E40223A8F17AFD57232C04FE97
:103B7000230FF4FE2285B2402244924402494101BF
:103B8000828011E03E8983A787FF6DBF3E84E5BF39
:103B9000232CF9FED9BFA9C9411122C406C62A8423
:103BA0009737002083C757102E856368F400193FAC
:103BB0000D45B24022444101828083A785FF99E7E9
:103BC00003C7E5FF9307F00F6305F700E53D1545D3
:103BD000CDB7238F85FE1385017BF13522852244E5
:103BE000B240A165410115AE1545828023A8017A36
:103BF00082809387817C9C4399E33E85828003D7B2
:103C000027006316B70003C70700E308A7FEDC47D9
:103C1000E5B74111939705014AC006C622C426C2E2
:103C2000C1872E8963DE0700193711C1613D216507
:103C30003345A900B24022449244024941018280A6
:103C4000AA860145E5D901443D47B3578940858B94
:103C500095CB9387C17B8443BD4791E28147A2976F
:103C60008E070545BE9433158500131405019C404D
:103C7000C8404180829723A0040023A2040033455A
:103C800024014DBF0504E312E4FC0144CDBF973786
:103C900000209387A7FD9C53411122C406C61384BC
:103CA000417195C7829723AAA1700840B7470300C6
:103CB0009387D73F3305F502B7A72600938737ECE4
:103CC000B24022443E9523AAA170410182809737D9
:103CD0000020938767FD18409C4BBA9723AAF17088
:103CE000E9B79387417B90439736002083C6D6FB84
:103CF000814713F7F70F6360D70A17370020034790
:103D0000170F914763E0E70A9737002083C7C71270
:103D1000918BC9EB0111680006CE22CC26CAEFC0F8
:103D2000A01EFD56630FD50C32479737002083C77E
:103D300017F563F3E70C173700201307E7F6404742
:103D4000173700200347C7F36305D406058B21CF3F
:103D500051473304E40263F1870A97000020E780AB
:103D6000A040B2476373F400A287173700200347CF
:103D700017F1998F3E9597370020938727EF838718
:103D8000470163CD0702B707C0A86369F502B7070B
:103D900040573E9525A08507139717003297035784
:103DA000E7FF21DB8280130790023304E4020580E1
:103DB0005DB762076187635707001D8D19E93705F5
:103DC000C0A801A8E37BF5FE3707C0A8B307F740FA
:103DD0003E9597370020938767E9DC53829709ED7A
:103DE00097370020938747009C4F99C7EF10E11148
:103DF000EF10A176EF108105F2406244D2440561D4
:103E0000828097370020938727EADC47E386A7FE66
:103E100017370020130787E583464701BA84858A50
:103E20009DC65144338487029737002083C737E506
:103E3000E3F487FC97000020E780003397370020E9
:103E400083C7F7E31D8C2295838744011DBF1304AC
:103E50009002338487020580C1BF2A9609E58280DB
:103E60000505A30FB5FEE31DC5FED5BF814733078A
:103E7000F5000307070019E33E8582808507C5BF6B
:103E800001112E8626CAAA84131506019305F00493
:103E9000418122CC06CE32C697100020E780C0A216
:103EA0002A8419C53246A68597000020E78060065F
:103EB0002285F2406244D2440561828081476314C6
:103EC000F600054582803307F5008507B386F500C7
:103ED0000347070083C6F6FFE383E6FE01458280C1
:103EE0009307F6FFBE952A966313C5008280FD15E1
:103EF00083C715000505A30FF5FEFDB7814711E93E
:103F0000014582803307F50003470700E31AB7FE37
:103F10008507E319F6FE054582809737002083C7A1
:103F2000B7D8637FF5001387417B931715000843CB
:103F30003E9583570500DD8D2310B5000145828035
:103F40000D458280FD570111173700202324F7D635
:103F50009387817C22CC80434EC697390020938979
:103F6000E9D026CA4AC852C456C206CE5AC02A89C7
:103F700081444E8A973A0020938A0AD31844814795
:103F80006374E900B307274103A749021CC409CBA6
:103F900003A7CA0063F6E70017370020232CF7D0E9
:103FA000A1E7835524009DE95C44A1E823A4F17CAA
:103FB000032BC400228597100020E780409B5A8481
:103FC00055FC83274A0285CF6244F240D2444249DD
:103FD000B249224A924A024B056121B303450400CB
:103FE0002D3F5C4081CB1CC483572400D5DFA284C5
:103FF0004044F9B71C44CDDBC5BFDCC455BFF2401B
:104000006244D2444249B249224A924A024B056173
:1040100082809737002083C737C96371F502138701
:10402000417B93171500084393C5F5FF3E958357D1
:104030000500FD8D2310B500014582800D4582806D
:104040009737002083C757C66364F5000145828017
:10405000411122C426C24AC006C62A842E89B284CF
:10406000493E01C504C505452DA0936504F0C20570
:10407000C181414597100020E78000850DE1973709
:1040800000209387A7BE9C5B81C7A28511458297BC
:104090000145B24022449244024941018280938703
:1040A000817C9C438DE323A4A17C854723260500C6
:1040B00004C52311250123008500A300F500232258
:1040C000050055B7BA87D84775FFC8C7F9BF45C5BA
:1040D00039715AD0138BC17B22DC26DA4AD84ED6EE
:1040E00052D45ECE66CA6AC86EC606DE56D262CCAE
:1040F0003689328AAE89AA8401445A8DB94D854BDE
:10410000F94C03270B00131C3400937AF40F6297C9
:104110001C43A9EF13B5FA0013451500B3978B00A4
:1041200063F65D01930714FFB397FB0093950701B6
:10413000C181528631371DC983270D000145E297A1
:1041400084C323A237016304090023005901F250FC
:104150006254D2544259B259225A925A025BF24BDB
:10416000624CD24C424DB24D216182800504E31A6B
:1041700094F92145E9BF09458280411122C426C234
:104180004AC006C6AA842E8932845D3DCA8526852A
:10419000EFF03FA609C940C10145B2402244924414
:1041A0000249410182802145CDBF411122C426C26E
:1041B0004AC006C6AA842E89EFF0BFA32A8419C17B
:1041C000231105009737002083C707AE639497003B
:1041D0002390217DCA8526852D3D014511E0194595
:1041E000B240224492440249410182807547636B88
:1041F000A7041387C17B1443411126C293143500D1
:10420000A696944222C406C6AA873A84094595C652
:1042100013B5F7003947134515006373F700C51749
:104220008545B395F500C205C18141371C40014564
:10423000A69723A0070023A20700B240224492447D
:104240004101828009458280411106C6EFF07F9AC4
:1042500009C50845B240410182800145E5BFF547E7
:1042600063EDA7049387C17B9C4313173500BA976E
:104270009843894721C7011126CA06CE9334F50019
:1042800022CCB94793C4140063F3A7004515054435
:104290003314A400420441802EC62685A2856D37C2
:1042A0008947324609C5A2852685593B8147F24098
:1042B0006244D2443E850561828089473E85828082
:1042C000239CA17A239DB17A8280411106C623A244
:1042D000A17C0295B2409737002023A1A79E0145FB
:1042E00041018280994763E9B7008A05973700202A
:1042F0009387C79DBE9588C18280411106C6EF6035
:10430000E14071468145173500201305259CB136E3
:10431000130640028145173500201305E598353E08
:1043200023A4017C23A2017C9737002083C7C79573
:1043300013D527008D8B3E958D473305F5029305E8
:10434000101035051375F50F97370020238FA794AC
:1043500099473305F5021305050F97000020E78004
:10436000A05623AEA17A2DC99947173600200346DF
:10437000C6933306F60281451306060FF93C938770
:10438000C17B9C439387070F23A6F17C173700203E
:104390000347A7910A07BA9723AAF17AEFF01F857E
:1043A00065269387C17C98439737002083C7D78FB2
:1043B00093962700BA96170600001306C68590C28A
:1043C00093862700850793F7F70F8A079735002014
:1043D000A38CD58CBA9790C3B240410182809737A5
:1043E000002083C7778C173700200347078C63F1C1
:1043F000E7021387C17C1843938617001736002005
:10440000A304D68A93962700369708C33E858280F8
:104410009307F00FE5BF1C416383071A41777D8F37
:10442000B70600208947631DD71803574500630965
:104430000718411122C419462A849305F00F590523
:1044400006C6EFF0BFAB05478D476305E5161C4474
:1044500081CB58589947630F0714185C630C0714F5
:104460001306C00381451735002013052580EFF0A2
:10447000DF9E1306C003A285172500201305057FC4
:1044800097000020E780E0A89727002083D7C77E09
:10449000972600209386867D99E7930700101727BB
:1044A0000020231BF77C9727002083C7077D91E717
:1044B0008547172700202302F77C9727002083C712
:1044C000D77B91E7ED4717270020A308F77A9727B6
:1044D000002083C7A77A91E7954717270020230F6D
:1044E000F7789727002083C7777991E785471727C3
:1044F0000020A305F7789727002083C7777899E7EE
:1045000083C7060117270020A30CF7769727002002
:1045100083C7E77691E7D147172700202301F77675
:104520009727002083C7677695E717270020034762
:1045300027751316870161869307C002634806003A
:104540009377170093B717009387D7021727002098
:10455000230DF7729727002083C7777295E71727F7
:1045600000200347E7711316870161869307C00295
:10457000634806009377170093B717009387D70215
:1045800017270020A30DF76E8347D40191E78947D1
:1045900017270020A30AF76E9C5691C7829797278A
:1045A00000202396A770913BFD5717170020A30FFB
:1045B000F7B68147B24022443E8541018280894757
:1045C0003E858280011122CC06CE2A842EC6EFF0D1
:1045D0000FECB245F240818D33A5A50222956244CD
:1045E0001375F50F05618280011122CC06CE2A8455
:1045F0002EC6EFF0CFE9B245F240818D33A5A5027A
:10460000229562444205418105618280011122CCDC
:1046100006CE2A842EC6EFF08FE7B245F240818D98
:1046200033B5A50222956244056182809727002058
:104630009387C763985725C3411122C426C206C673
:10464000BE84029717270020035767662A8441C754
:10465000BA876373A700AA87C207C183BA86637348
:10466000E400A286C206C182958F51476355F706C2
:10467000DC5491C38297854717270020230AF776D9
:10468000EF0091579727002023938762B24022447E
:104690009244410182809727002083C767759DE778
:1046A000972700209387477483C79700850793F760
:1046B000F70F17270020A30DF772A18B9DC7854721
:1046C000172700202316F7726F0031599727002013
:1046D000A3800772D5BF9727002083C76771DDD7F6
:1046E0002244B24092444101C5B7828097270020FE
:1046F0009387C757D857011122CC06CE3E8401C7F5
:104700002AC60297324509CD23A8A17C17050020AF
:10471000130505A75D3EF2406244014505618280B4
:104720008307440163DD07009727002023AA075869
:10473000970700209387279F23A8F17CC1BF970785
:104740000020938767A2CDBF011122CC172400203F
:104750001304C451084406CE26CA4AC801E90545D7
:10476000F2406244D2444249056182805C58E5DBF4
:10477000185C75D77000854582971844B247E300EE
:10478000F7FE9305E004172500200355E54E97003A
:104790000020E7806013172700202325A75261D14E
:1047A000172600200356464D9305F00FEFF0EFEA71
:1047B0008144172900201309294F9727002083C718
:1047C000C74B0326C90163C1F4023285970000205C
:1047D000E780E01901459727002023A5074E97277A
:1047E000002023A3074EADBF9725002083D5C548E1
:1047F000B38795020844185C898185043E9508C2F8
:10480000029765BF411122C41724002013040446F7
:104810001C4426C206C64AC0972400209384C4487C
:1048200091EBC84C35E9B24022449244024901451B
:10483000410182801C5CF5D7DC4C99EF9305E004C4
:10484000172500200355454397000020E780C00747
:104850009727002023A8A746C84C61D5172600201B
:10486000035686419305F00FEFF02FDF014997279C
:10487000002083C78740D04CE355F9FA97250020E4
:1048800083D5853F338525031C44898105093E95E1
:104890001C5C08C28297E1BF97000020E780200DD2
:1048A0009727002023A007429727002023AE074028
:1048B0009DBF011156C2972A0020938A2A3B83A7E5
:1048C0008A0022CC4AC84EC606CE26CA52C45AC056
:1048D000AA892E8432896385072203A74A036307C6
:1048E00007147D476366A714972400209384C43B74
:1048F00003AAC40163170A0A9565938515E0172575
:1049000000200355653797000020E780E0FB9727DC
:10491000002023A9A73A2A86630A051083A74A0321
:1049200003A58A009725002083D5053589818297C4
:1049300083A78A0003AAC401172700202326F7387B
:104940008947639CF908C1476312F40E972500203C
:1049500083D58532938505FC9147B3C5F5028A0559
:10496000D29503C705009307A005631DF70A83C707
:1049700015006399370B4A852286910597F0FF1F32
:10498000E7802059DC4C5285639347150145F2407E
:104990006244D2444249B249224A924A024B0561DA
:1049A00082809850E38EE7F89565938525E017257A
:1049B00000200355652C97000020E780E0F02A8A4C
:1049C00035C52A8683A74A0303A58A0097250020B8
:1049D00083D5852A89818297A5B78D47639DF90084
:1049E000C1476315F4049725002083D5E5289385F6
:1049F00045FDF199B5B79147639AF90063183403FF
:104A00009725002083D54527A115E5B7C147639FAA
:104A1000F900A14763EC87009725002083D5C525C1
:104A2000C115C1BFDC4C52856397470D294585B739
:104A30001307F006568B6361A70A130A05FE194790
:104A4000334AEA021727002003570723972A00203A
:104A5000938A8A25330AEA023E9A83A70A0263955B
:104A6000470183A4CA019DE49305E00417250020B3
:104A70000355852097000020E78000E5AA845DD5D6
:104A800083274B039725002083D5051F2A8689811C
:104A90005285829791451307A00589819397250038
:104AA000A69783C607006393E60483C61700639C3A
:104AB000360385058A052286A6954A8597F0FF1F4D
:104AC000E780204583A7CA01E38297EC26859700FB
:104AD0000020E780C0E95DBD1307E007E368A7F4A5
:104AE000130A05F985B783D5270045BF83A7CA01F7
:104AF000E38E97F2268597000020E78040E73DB7D8
:104B0000972700209387471ACC4F8DD19147930662
:104B1000A0058983139727002E9703460700E31704
:104B2000D6F003461700631C360185078A072286E4
:104B3000BE954A8597F0FF1FE780A03D81BD835752
:104B40002700C1BF9727002093874712984739C78E
:104B50009C5FA9C705476313E504411122C41724CC
:104B6000002013046414504C06C60DC60850972547
:104B7000002083D5651089818297484C97000020DA
:104B8000E780E0DE9727002023AE0712972700205A
:104B900023AC0712B240224441018280828001117D
:104BA000172700201307870C4EC68329870022CCC5
:104BB00026CA4AC806CE52C456C2AA842E84328956
:104BC000638A09201C5FBA8A99EB2945F240624446
:104BD000D2444249B249224A924A056182805C5BD2
:104BE000EDD7FD4763E9A70E972900209389C90BEC
:104BF00083A7C901B1CB03A58A0083A709026395E6
:104C0000A70689476393F408C147E310F4FC17250E
:104C10000020035565069147130505FC3345F50251
:104C20009317250003A5C9012286CA853E959307DF
:104C3000A0052300F500A3009500110597F0FF1FC4
:104C4000E780202D014559B79305E0041725002082
:104C50000355850297000020E78000C797270020B2
:104C600023A2A70649F995B783A74A0303A6C9015A
:104C70009725002083D545008981829783A78A00E4
:104C8000172700202322F704ADBF8D47639EF40051
:104C9000C147E31CF4F2172500200355E5FD130579
:104CA00045FD9377C5FFBDBF9147639AF400E31EAE
:104CB00094F017250020035525FC2115DDB7C147C9
:104CC000E395F4F0A147E3E287F0172500200355B0
:104CD000A5FA4115F9B79307F00663EAA70693070B
:104CE00005FE1947B3C7E702172700200357C7F887
:104CF000172A0020130A4AFBB387E702BE998327CD
:104D0000CA01A9CF83270A02639A37070325CA017C
:104D100091461308A005FD5593D72600C207C1830D
:104D2000139727002A9703460700631D0607834849
:104D300017000356270063959806B306D64063CF45
:104D4000860485078A072286CA853E95C5BD9307D6
:104D5000E007E3ECA7E6930705F979B79305E004CC
:104D600017250020035545F197000020E780C0B5C6
:104D70009727002023A8A7F451F581BD83A74A03F4
:104D80000326CA019725002083D505EF89814E852A
:104D900082979727002023A937F38DBFA300B70080
:104DA000B2869DBFB3858600172600200356C6EC49
:104DB0009105130606FCE3FAC5E0130634001376EA
:104DC000C60F1106B29623000701A3009700231116
:104DD000D70085BF97270020938707EDD44FBE8962
:104DE000A1C203A5C90191461308A005FD5593D79B
:104DF0002600C207C183139727002A97034607009E
:104E00006316060583481700035627006398980029
:104E1000B306D640E3D786F2A300B700B286C1BF7F
:104E20008357C70017250020034525E59305E004B7
:104E30003305F5024205418197000020E780C0A8B4
:104E40009727002023A0A7E849FD41B3172600209B
:104E5000035686E29725002083C525E2B385C50267
:104E6000338686001106E3E2C5D681BF0145828004
:104E7000011106CE2EC6EF70601201C9B245F24094
:104E80000355250005616FA0E051F24049450561D9
:104E9000828097070020A3850716970700202381AB
:104EA00007169707002023A107149707002023AFB8
:104EB00007129707002023AD07129707002023ABA6
:104EC00007129707002023AF071023AE017C972716
:104ED0000020938767E13707B40098C33747A000E5
:104EE000D8C3370710009306070A94C7B7065000C7
:104EF000C106D4C7930607054107D8CB3707D007AB
:104F0000410798CF3707840398D337C707001307A3
:104F100007B8D8D3416794CB93060701130717F856
:104F2000D8D7370781FF98DB7D5723AE070094D78A
:104F3000239AE7028280011126CAAA84214522CC45
:104F400006CE2E8432C636C43AC2EFE07FBA1DC9FF
:104F5000A24612473246930700FD2300F500994709
:104F6000A30095002301F5002303D500A303E5006A
:104F70002312C500AA8522856244F240D24405610D
:104F80006FE07FC1F2406244D2440561828097079E
:104F9000002023ABA70482809707002023A8A70442
:104FA00082809707002023A5A7048280970700200E
:104FB00023A2A7048280011122CC4AC806CE26CAA9
:104FC0002A890144B30489006368B400F240624452
:104FD000D2444249056182802EC6EFE05FCB931731
:104FE0000501C183A183B2452380F4009307140017
:104FF00093F7F70F850463F9B700CA970904238074
:10500000A7001374F40F7DBF3E847DBFC1671725D1
:105010000020035545D1FD176306F502411117061F
:1050200000200346E605970500209385E5FC06C6AB
:10503000EF609055B240FD57172700202315F7CE9B
:1050400041018280828009C925151375F50F13353A
:10505000850E13451500828001458280238005005E
:10506000F94763E2C708797122D426D24ECE56CAD8
:105070005AC806D64AD052CC5EC63684B289AE8AA9
:105080002A8B814463FF3405B307940003CA0700E9
:10509000138914001379F90F63050A04B3072A0171
:1050A00063C1F904B307240183CB07005E85613F28
:1050B0000DC99307FAFF2380FA0063906B03130571
:1050C00019002295B250225492540259F249624A70
:1050D000D24A424BB24B45618280D29493F4F40F92
:1050E00055B70145C5B701458280411126C2AE843E
:1050F00022C49727002023AFC7C29727002023A9E7
:10510000B7C29727002023A3A7C22A84414693054C
:10511000F00F26854AC006C60549EFE03FDE631E54
:105120002503972700209387A7BF884BC14561358A
:1051300041469305F00F2285EFE05FDC854463165E
:105140009502224497270020938787BDB24092445E
:105150000249C847C1454101B9BD4146814526853F
:10516000EFE0DFD9E31625FD6DBF4146814522857D
:10517000EFE0DFD8E30795FCB240224492440249B5
:1051800041018280411122C426C22E84AA841306C2
:105190000002814517250020130585B806C6EFE0FB
:1051A000DFCB97270020A38E97B697070020A38A0E
:1051B00087ECEFA0A020854719C181474945B2403F
:1051C000224417270020230DF7B492444101828026
:1051D000814781CD19C98547631BF50083C75500F9
:1051E00093E707FCA382F50085473E8582808947C7
:1051F0006317F50083C7550093F7F703E5B70D472D
:105200008547E314E5FE03C755001377F7031367DB
:105210000704A382E500D1BF81478DC105C103C743
:1052200055009306000C85471377070C6308D700D9
:10523000930600048D476303D70089473E8582802B
:10524000411122C4005D06C626C21DC8AA840850AA
:1052500009C597F0FF1FE7808071485009C597F096
:10526000FF1FE780C070085409C597F0FF1FE78053
:105270000070228597F0FF1FE780606F23AC040267
:10528000B240224492444101828009ED97270020D8
:1052900083C727A917250020130505AA81CB1385ED
:1052A000417D828017250020130505A982801725DE
:1052B0000020034505A7828097270020938747A6F3
:1052C000C847828097270020938787A5884B8280D4
:1052D000972700209387C7A4DC4B884382809727B9
:1052E00000209387E7A3D84B1C4385071CC31725D1
:1052F0000020034515A39307F00F6305F5009165A2
:105300006FE0BFC18280011122CC06CE2E8432C64E
:10531000EF6050599147B2456311F502970700209D
:10532000938747CD9C439DC303A3070063000302FB
:1053300022856244F240056102839707002093872B
:10534000E7CA9C4381C703A34700CDB7F24062443C
:10535000054505618280011122CC2A840355450050
:1053600006CE26CA4AC84EC6EF60703225CD2A89BD
:10537000834405008349C500E1354A85EF7050310B
:1053800003554400EF60904D9707002083C747C73F
:10539000B1CF639D97049705002083C575C6268508
:1053A000EFF01FAD09E597070020238B07C40355D5
:1053B0004400EF60304F9147631FF50003574400EE
:1053C0009727002083D727966317F700FD571727E5
:1053D0000020231AF794F2406244D2444249B24971
:1053E0000561828081499304F00F79BF9307F00F24
:1053F000E38FF4FA83466400035644000345240017
:105400004E87A6850D3E65B779715EC6AA8B2E853F
:1054100052CC56CA5AC806D622D426D24AD04ECE2C
:10542000AE8A328B368AEF6090266DC1045D2A8980
:10543000F1CC9C50614599C3130540039C5481C72E
:1054400051054205418163050A007105420541810C
:10545000DC5081C7590542054181EFE06FE92A849C
:1054600055C561468145EFE05F9F9729002083C9BC
:10547000A98A6394090083490900930700FD23006A
:10548000F400A947A30074012301F400230364017D
:105490008C50231254011305840191C908C471462C
:1054A000930A440397F0FF1FE780A0A656858C540B
:1054B00091C948C45146930A450197F0FF1FE78000
:1054C00040A55685630C0A0008C87146D285930A28
:1054D000C50197F0FF1FE780C0A35685CC5099C542
:1054E00048C8594697F0FF1FE780A0A2A2854E85C5
:1054F000EFE06FEA2254B2509254F249624AD24A23
:10550000424BB24B4A85025945611DBBB2502254F1
:1055100092540259F249624AD24A424BB24B456117
:10552000828001114EC6AA892E854AC806CE22CC99
:1055300026CA2E89EF60B01531C59714002083C4A8
:10554000A47D99E0834405001945EFE06FDA2A84D1
:1055500015C981451946EFE05F90930700FD2300D0
:10556000F400B947A30034012301F40023122401FD
:10557000A2856244F2404249B2492685D24405617F
:105580006FE06FE1F2406244D2444249B2490561A2
:10559000828039715ECEAA8B2E8526DA4ED652D401
:1055A00056D25AD006DE22DC4AD8AE84328BB68A76
:1055B0003A8ABE8942C6EF60900D31C92A894145B9
:1055C000EFE00FD32A8421C541468145EFE0FF88F3
:1055D000171500200345457419E103450900930799
:1055E00000FD2300F400BD472301F400B247A300EF
:1055F00074012312940023046401A30454012305BD
:105600004401A30534015CC4A285EFE0CFD8F25079
:105610006254D2544259B259225A925A025BF24B06
:1056200021618280797126D2AA8439454AD04ECE32
:1056300006D622D42EC6B2893689EFE06FCB21C1BF
:10564000B2459307000D2310F500B1472A842312B9
:10565000B5002301F500CE851905194697F0FF1F07
:10566000E780208B23062401A2852254B2500259E0
:10567000F24913F5F40F925445616FE0CFD1B25067
:10568000225492540259F249456182801717002032
:10569000034737699307F00F630DF706411126C2E0
:1056A000AA84394522C406C64AC0EFE06FC42A84E2
:1056B00039C9930700FD2300F500A30095002301DD
:1056C000050097150020938525670D05194697F06D
:1056D000FF1FE780008417190020130969648357AE
:1056E0008900A285171500200345B5632315F40032
:1056F000834719002306F4002244B2409244024931
:1057000041016FE04FC9B240224492440249410135
:1057100082808280011156C2AA8A314526CA4AC8AF
:105720004EC652C406CE22CCAE84328AB6893A899D
:10573000EFE00FBC29C92A842685EF6040751DCD96
:1057400003450500930700FD2300F4009D47A300D7
:1057500054012301F4002312940023134401231461
:10576000340123152401A2856244F240D244424907
:10577000B249224A924A05616FE0EFC11715002035
:105780000345355AC1B7F2406244D2444249B24956
:10579000224A924A05618280397162CC2A8C59452D
:1057A00026DA4AD84ED652D456D25AD05ECE06DE2B
:1057B00022DCAE8432C636C4BA8B3E8BC28A468A9D
:1057C0008359010403494104EFE08FB235C53246E5
:1057D000930700FDA2462300F5009547A301C500ED
:1057E000A30085012301F5002A8419461105A9C2E9
:1057F000B68597E0FF1FE780C07123066401230A86
:10580000240123157401231754012318440123197B
:105810003401A2856254F2504259B259225A925A26
:10582000025BF24B624C2685D25421616FE0AFB629
:105830008145EFE08FE2D1B7F2506254D254425921
:10584000B259225A925A025BF24B624C2161828019
:105850009717002083C7E74C8DCB4111AA851946C5
:105860001385417D06C697E0FF1FE780806A938518
:10587000417D171500200345C54AEFF07F95B240E2
:105880001385417D41016F90F033014582801717E8
:105890000020034717499307F00F6307F7084111EA
:1058A00026C2AA84294522C406C6EFE06FA42A8432
:1058B00029C1930700FD2300F500A1472301F5004E
:1058C000A3009500971700209387874583C727007B
:1058D0009385417D1105A30FF5FE194697E0FF1F43
:1058E000E7802063A2851715002003459543EFE06C
:1058F0008FAA171700200347C7428D476311F7028D
:1059000097F7FF1F9387C76E9C4391CB03A3870034
:10591000630703002244B240924441010283B24033
:105920002244924441018280171700200347673FB9
:105930008D47631CF70097F7FF1F9387676B9C43A6
:1059400089C703A38700E31B03FC8280797122D4FB
:1059500006D626D24AD04ECE52CC094445CD2A890D
:10596000035505002E8A5144EF606052AA845DC140
:1059700097F7FF1F83C7F770FD1793F7F70F0547DA
:1059800049446379F7080347C500A1476314F7004A
:1059900063120A089C5C4544B5EF91659385457197
:1059A0001305C00297F0FF1FE78000F288DCAA8988
:1059B0004D442DC11306C0028145EFE00FCA835745
:1059C00009009386490036852391F90071469305B5
:1059D000490036C697E0FF1FE780A0538947238020
:1059E000F90003C5C400B24603560900611597F5D6
:1059F000FF1F83C5E56813351500EF80106C2A84FE
:105A000063060A00D2852685EF70E07401C42685FE
:105A1000EFF01F832285B250225492540259F2496A
:105A2000624A4561828097F7FF1F83C79765FD171C
:105A300093F7F70F05476378F708894751C60111B7
:105A400022CC26CA4AC84EC652C406CEAA89368A75
:105A5000B2842E89EF60A0432A84D14729C94855D2
:105A600009C597F0FF1FE78080F0F1452685EFE03C
:105A70002FC148D4CD4705CD8346C4002147814777
:105A8000639FE600630D0A000347A5010356050165
:105A900093062501AA854E85EF601061AA8703470A
:105AA0004400630F0900136767002302E400F2401B
:105AB0006244D2444249B249224A3E85056182800D
:105AC00013674700DDB7C9473E858280E54763EB32
:105AD000A700971700209387272106053E950355B9
:105AE0000500828041657D158280011122CC2A84C7
:105AF0002E8526CA06CEAE84EF6060390DCDB7473D
:105B00000F009387F723094563E2870281450A85E1
:105B10004146EFE08FB4A685231081000A854180BD
:105B200023018100A3010100EF80D03AF2406244DA
:105B3000D244056182804945D5BF97F7FF1FA381F5
:105B4000A75482806F80F04F797152CC2A8A3285B7
:105B500022D426D24AD04ECE56CA5AC85EC606D6DF
:105B600062C4AE8BB28A368BBA843E89C2894684BF
:105B7000EF60E03115C92A8C63140A0213774B00D9
:105B80008347450015CF93E727012302FC008DECE6
:105B9000631C0902639A090205E8ED9B2302FC00DD
:105BA000832B8C03639F0B06B250225492540259EC
:105BB000F249624AD24A424BB24B224C4561828042
:105BC000F59B93E70701D1B793E747002302FC0059
:105BD00001CC1C484146A2852324FC0213058C01FC
:105BE00097E0FF1FE780E03263910B02D5D80325D1
:105BF000CC0209C597F0FF1FE78060D7F1452685E5
:105C0000EFE00FA82326AC0261BFE30B09F80325E0
:105C1000CC0209C597F0FF1FE78060D5F1454A85A2
:105C2000C5B79DC483A70B0299EB91659385357128
:105C3000714597F0FF1FE78020C923A0AB0203A5A1
:105C40000B0219C57146A68597E0FF1FE780602CFF
:105C50006388090283A74B0299EB916593852571AF
:105C6000594597F0FF1FE78020C623A2AB0203A58A
:105C70004B0219C55946CE8597E0FF1FE780602982
:105C80001DC483A78B0299EB9165938515715145CE
:105C900097F0FF1FE78040C323A4AB0203A58B024C
:105CA00019C55146A28597E0FF1FE7808026225440
:105CB000B2509254F249B24B224CCA865A860259CB
:105CC000424BD6855285D24A624A45616FF0CFF386
:105CD000011126CA52C406CE22CC4AC84EC62A8A10
:105CE000AE84EF60C01A25C5AA893945EFD05FE0C0
:105CF0002A8431CD171900200349090263140900D1
:105D000003C909009307000D2310F400AD472301D8
:105D1000F4009385690013053400194697E0FF1FCE
:105D2000E780201F93F71400858085882306F40000
:105D3000A306940023154401A2856244F240D24494
:105D4000B249224A4A85424905616FD0DFE4F240F8
:105D50006244D2444249B249224A05618280938713
:105D6000C17D884301CD411106C697F0FF1FE78032
:105D700000C0B24023AE017C4101828082800111CB
:105D800006CE22CC26CA4AC82EC6EF60401039CDB6
:105D9000B24517190020034929F8AA840CD56314C9
:105DA0000900034905004145EFD09FD42A841DCD49
:105DB0009307000D2310F500A5472301F50083C7C5
:105DC0005400938564001105A30FF5FE194697E072
:105DD000FF1FE78000149C54A285F2405CC462441B
:105DE000D2444A85424905616FD0FFDAF2406244ED
:105DF000D244424905618280797122D406D62A8430
:105E00002EC6EF60C0080DCD8346C5001147AA8796
:105E100049456393E6029C5FB24599C383C5670118
:105E20000808EF70803C97860000938606C610082D
:105E300089452285EF60902CB250225445618280C2
:105E40005145DDBF97F7FF1F83C7B723FD1793F7B2
:105E5000F70F0547637AF704894721CA411122C425
:105E600026C24AC006C6B2842E89EF6040022A8448
:105E7000D14705C5630809008347450093E727001C
:105E80002302F5004146A6851305840197E0FF1F14
:105E9000E78020089C481CD48147B24022449244A9
:105EA00002493E8541018280C9473E8582807971E1
:105EB00022D406D62A842EC6EF50707D01CDB2457D
:105EC0002285230EB1006C08EF706025B250225479
:105ED000456182805145DDBF6F60C011C167138786
:105EE000E7FF6396E50297F7FF1F938727109C4310
:105EF00091EB494582804945B2402244924402498F
:105F00004101828003A30700E30503FE02834111E0
:105F100022C426C24AC006C6FD172A892E84B2842E
:105F2000639BF50297F7FF1F9387470C9C4391CF24
:105F30009C4381CF829711E997F7FF1F2382270D9A
:105F400097F7FF1FA38E970A45BFA6854A85EFE006
:105F50003FF25DF1D5B72E85EF50707349DD834771
:105F600005000D45E39A27F922852244B2400249F3
:105F7000A685924441016F90E04265476362A704A1
:105F80004111416722C406C626C27D172A840945ED
:105F90006383E502C547AE846315F4002E85EF9058
:105FA000E04793171400171400201304E4D3A297BA
:105FB000239097000145B2402244924441018280DF
:105FC00009458280011106CE2AC6EFE09FECEF1052
:105FD0006013EF00207CEF40E1243245971700204A
:105FE000938707D4130700F02391E700238207006B
:105FF0007D5797F7FF1F9387A708A380E7002380AB
:10600000A700F240954505616F40A0721D719397FE
:106010000501CAC886CEA2CCA6CACEC6D2C4D6C2F4
:10602000DAC05EDE62DC66DA6AD8C1872E8963D0A8
:10603000075017F5FF1F0345A504EFD05FAF896434
:10604000416A856A797B2A84938BD4007D1AA50ADC
:10605000691B15E021653345A900F6406644D64426
:106060004649B649264A964A064BF25B625CD25CC8
:10607000425D25618280834704001307200A639DE7
:10608000E70003552400171C0020034C9CC92286FE
:10609000D285EFF04FA7A9A21307100917FCFF1F25
:1060A000034C1CFE639DE71683471400154763905D
:1060B000E7022285EFF02FAA2285EFD0BFA017F5C7
:1060C000FF1F0345E5FBEFD09FA62A8459B7394748
:1060D000639FE71603554400631B55050C4483C9B1
:1060E0000500639D0900850591C919461715002013
:1060F000130585C497E0FF1FE780A0E11717002074
:10610000034707C28547631CF710638A0900971786
:106110000020238707C04E85EFF04FD771BF894716
:1061200017170020230EF7BEEF90802971B79387D1
:106130002400631AF506832984006382090E83C74D
:1061400009008DE383C7290003C71900A207D98F6F
:1061500017170020231AF7BC83C739001717002030
:10616000A300F7BC17170020034787BB89476318B4
:10617000F70A83C7090081CB97170020238207BA4B
:1061800003C5090051BF8D479715002083C555B938
:1061900017150020035545B9171700202302F7B83B
:1061A000EF40205CF1BF938754006318F5001C4456
:1061B00003C50700EFF0AFED01B7B3076501C207F4
:1061C000C18311476361F70297F7FF1F938747E287
:1061D0009C43E38307EE9C43E38007EE228582978E
:1061E000E31C05EC2DA89387B4006311F50297F723
:1061F000FF1F938767DF9C43E38007EC9C43E38D9D
:1062000007EAA2851385B4008297D9BF9387C4009B
:106210006310F5021C4483C70700E38F07E8930768
:10622000F00FE30BFCE8A2856285EFD0DF9641BD5D
:106230009387E400E315F5FE97F7FF1F938707DBCD
:106240009C43E38B07E6DC43A285DDFFB5B53D4704
:10625000639BE70403554400E30075FF93879401B3
:10626000E30CF5FC93873401E31BF5FA9717002044
:1062700083D767AB6390470397F7FF1F938707D7D1
:106280009C43E38B07E2DC43E38807E2A2851385A6
:1062900034019DBF97F7FF1F9387C7D59C43E38DBC
:1062A00007E09C43D5B71307E003E39AE7F683477B
:1062B000240005476390E71083476400138DC17D78
:1062C000F1EB83270D00F1C303CC0700A14903457F
:1062D0007400930C8400E685EFE01FF483474401CB
:1062E000A303A400835804010358E40003574400A7
:1062F0002A86034534003EC283572401E686E285A0
:106300003EC0CE87EFF04FC98347340095E7DD47A5
:10631000835804010358E400834674008355440005
:106320003EC283572401668705463EC06285CE87FC
:10633000EF50506EA301A40083270D0081C71145C3
:10634000EFF0FFA117F5FF1F034585CBE30605D648
:1063500097F5FF1F83C5D5CAEFE09FB1E30E05D4C3
:106360008346340093071003638CF6000356440001
:106370004E8797F5FF1F83C5A5C83685EFE0BFBBE5
:1063800097F7FF1F238E07C605BB171C0020034C81
:106390005C992DBF97F7FF1F938787C59C43171CF8
:1063A0000020034C1C9891499DD3DC438DD30145BB
:1063B000829731BF29476392E70C83476400938C2F
:1063C000C17DC1E783A70C00A5CF03CC0700A1497D
:1063D000034574009306840093772500D9C713768C
:1063E0001500130D4401834704028358C401035868
:1063F000A40103574400034534003EC28357E4011F
:10640000E2853EC0CE87EFF02FB98347340095E791
:10641000DD478358C4010358A401834674008355A3
:1064200044003EC28357E4016A8705463EC0628548
:10643000CE87EF50305EA301A40083A70C00FDBD02
:10644000171C0020034CFC8D59B797F7FF1F93874B
:1064500027BA9C43171C0020034CBC8C9149ADDB30
:10646000DC43BDD701458297A5B7B68536CEEFE0B0
:10647000BFDAF2462A86368DBDB70947639FE7002B
:1064800097F7FF1F938747B69C43E38707C2DC4318
:10649000E38407C22285829705B12D47639BE700FD
:1064A00097F7FF1F938747B49C43E38707C09C4738
:1064B000C5B70D476397E70022868D450355440015
:1064C000C9BE1947E39DE7D4930561021305103156
:1064D000EF3091612C1013052031EF30F16003563D
:1064E0006400835781020355440063E8C700835664
:1064F00084000357610263F7E60093050002EF8012
:10650000F0705DBE6374E6002313E40063F4D7000B
:106510002314F4000357C4008356A40003568400D8
:106520008355640001488147EF80106E71B693F780
:10653000150091CF97F7FF1F938707AB9C4389C73F
:10654000DC4399C3014582971345190039B693F787
:10655000250091CF97F7FF1F938787A99C4389C791
:10656000DC4399C30545829713452900FDB493F791
:1065700045000145E38307AE97F7FF1F938787A682
:106580009C4385C3854717070020230DF77897F7AD
:10659000FF1F9387E7A59C4389C7DC4399C3054543
:1065A0008297970700209387A777C8472C10EF7032
:1065B000107B2810EFF0CFA99707002083D7E7744E
:1065C00081CF130600643386C702914517F5FF1F7C
:1065D000034505ABEFD0DFA613454900BDBC411113
:1065E00022C42A84554506C6EFF04FCEB335A0002D
:1065F00022852244B24041016F80105E797122D41D
:1066000006D68D472E84631FF50003D7A50083D6D9
:10661000850003D665000345340083D54500EFF0BF
:106620006F8F09A889671387D7006312E50403C534
:10663000250019E58547B25022543E854561828088
:1066400097F7FF1F9387C7999443EDD603C636008B
:1066500083C50600814802C202C001488147014744
:106660009106EFF06F930545EFF06FEFE1B71387F9
:10667000E700E301E5FC13873701631AE50003C572
:1066800025004DD9014781460146814549BFE507AF
:10669000E302F5FA41677D178147E31EE5F803C77A
:1066A0005500C947E318F7F883D6E50003D6C500BF
:1066B0000355840083D5A500EF80D05641C95D45C0
:1066C000EFF0CFC03335A000231CA1008345440068
:1066D000035524003008EF50806C83578101B9FBCB
:1066E0006C0813051031EF3031409305E1011305BB
:1066F0002031EF30713F8357C10103578400637429
:10670000F7002314F4008357E1010357A40063F456
:10671000E7002315F400835784000357A400637433
:10672000F7002315F40003552400EFA0F07D035774
:10673000E4008356C4000356A40083558400035527
:10674000240001488147EF80304AEDB58547231C7E
:10675000F100ADBFC1671387E7FF639FE50097F7BF
:10676000FF1F9387E7879C4385C783C707000D47B3
:10677000639EA7006F809046FD1749476398F50018
:1067800097F7FF1F9387C7859C43EDF73A85828073
:106790004947EDBF97F7FF1F238A078697F7FF1F2B
:1067A00023AA078697F7FF1F23A4078697070020D1
:1067B00093870759170700001307874B98C31707DC
:1067C00000001307274FD8C3170700001307E75F20
:1067D00098C797F7FF1F9387E782170700001307F3
:1067E000A7F798C317070000130787E1D8C3828073
:1067F000797122D406D626D24AD04ECE52CC56CA71
:106800005AC80347050085472A84630CF7040346EA
:106810008500930695009305F1000545EFE01F8480
:10682000814719C1834705008346040011476382ED
:10683000E60417E7FF1F1307A77D18438D4603479C
:1068400017006308D70295C70DC719ED0145B2506F
:10685000225492540259F249624AD24A424B45614B
:10686000828081470145C9B78546631AD7028D8B5F
:10687000F1DF03451400130A2400D285EFE0DF990D
:10688000A300A40017E9FF1F1309C9788327090093
:10689000AA8A81499304F00F99EB05454DBF8946BB
:1068A000E316D7FA858BE9B7850993F9F90F97E7CE
:1068B000FF1F83C7A77563FBF90203250900139B1C
:1068C00049005A9583470500E38097FE83471500EA
:1068D000E39C57FD1946D2850905EFD02FDE69D517
:1068E0008324090003470400DA9495EC83460400EE
:1068F0009147E38DF6F483270900A9DB17E6FF1F14
:106900000346C67001479305F00FE301E6F4BE8429
:10691000C10703C507FF630CB50A05071377F70F17
:10692000EDB788C4E5A09147631AF706C84405C5CA
:1069300083478400034605006304F606034704000A
:106940009147631BF706C84419C597E0FF1FE7800E
:10695000000223A604000345840091659385E57138
:10696000050597E0FF1FE78020F605C503470400F3
:106970009147631CF704C8C48347840093059400BF
:106980000505A30FF5FE0346840097D0FF1FE7809F
:106990004058034584003335A00055BD884441BFAD
:1069A000930594000505EFD06FD18547E318F5F8FE
:1069B0005545EFF0AF91BDA8884451DD97E0FF1F2A
:1069C000E780E0FA23A4040079B788C475B7238070
:1069D000D40083471400D28513852400A380F400DB
:1069E000194697D0FF1FE780C05203458400916588
:1069F0009385F571050597E0FF1FE780E0EC05C57D
:106A0000034704009147E31EF7F0C8C4834784009E
:106A1000930594000505A30FF5FE0346840097D067
:106A2000FF1FE780004F83478400E39807E6034594
:106A300004007D151335150019BD011122CC17E492
:106A4000FF1F1304245D1C4006CE26CA4AC84EC64A
:106A500052C48DC32E8AAA84014908406314990246
:106A6000630E0A0497E0FF1FE78060F097E7FF1FBF
:106A700023A2075AF2406244D2444249B249224A10
:106A80000561828093194900B3073501884709C918
:106A900097E0FF1FE780A0ED1C40CE9723A40700DE
:106AA0001C40CE97C84709C997E0FF1FE78020EC3C
:106AB0001C40BE9923A60900050945B745DD13967C
:106AC00044008145EFD06FB9144081477D5613F7DC
:106AD000F70FE37197FA1397470036972300C70023
