:040000006F108017E6
:1000040000000000000000006F0080086F00402026
:1000140000000000000000000000000000000000DC
:1000240000000000000000000000000000000000CC
:100034006F004006000000006F00E00500000000B3
:100044006F0080056F0060056F0040056F0020059C
:100054006F0000056F00E0046F00C00400000000A2
:100064006F0060046F0040046F0020046F00000400
:100074006F00C0216F00C003000000006F00600328
:100084006F0040036F0020036F0000036F00E00265
:1000940001A001A001A001A001A001A001A001A054
:1000A40001A001A001A001A001A001A001A001A044
:1000B40001A001A001A001A001A001A0B717004068
:1000C400930670052380D704130780FA2380E7047E
:1000D4000F10000003C6B7041376F60DA385C704FA
:1000E40023800704137605023DCA03C6A700118ABC
:1000F4001DE22380D7042380E7040F10000003C708
:10010400A700136747002385E7009307004B01000E
:100114000100FD17EDFFB71700409306700523801B
:10012400D704130780FA2380E7040F1000007D89A9
:100134002394A700010001000100010023800704AB
:100144002380D7042380E7040F10000037270040E2
:1001540093061005A303D7802380070482801376B7
:1001640005046DDE03C6A700418A1DE22380D7047F
:100174002380E7040F10000003C7A70013670701DB
:100184002385E7009307007D01000100FD17EDFFC3
:10019400B7170040930670052380D704130780FA2D
:1001A4002380E7040F1000007D8913650504239460
:1001B400A70001000100010001002380070423803F
:1001C400D7042380E7040F1000003727004093066C
:1001D400300549B74111814601468145114506C69E
:1001E4005122B7170040130770052380E704130753
:1001F40080FA2380E7040F10000003C76704136725
:1002040017002383E70423800704B240410182805E
:100214008146014681451145B122B7170040930636
:1002240070052380D704130780FA2380E7040F1096
:1002340000007D562396C7022380D7042380E70459
:100244000F10000003C76704136717002383E70434
:100254002380070401A0BD473305F50201007D1585
:1002640075FD8280411122C426C206C6AA840144B7
:1002740063179400B24022449244410182800504F1
:100284001305803E4204C13F4180DDB7B7170040EB
:10029400130700032388E702054723AAE18A7300B2
:1002A4002030411106C69929FDBF230304809547D8
:1002B4002303F4802302A480828083076480E3CE36
:1002C40007FE23030480828083076480E3CE07FE55
:1002D40003454480828083076480E3CE07FE2302C3
:1002E400A4808280411126C44AC24EC006C6137738
:1002F400F50BAD47AA892E8995446306F700194585
:100304006D37653F8D444E854D37FD59FD14639817
:100314003401B240A24412498249410182801355FA
:1003240009011375F50F453F2209CDB7011126CCFC
:1003340006CEB704080051371545853F7137693734
:100344002AC6A53F32459377150089EB136515003E
:100354001375F50FF240E24405618280FD14E9FC57
:100364000145CDBF397126DC4ADA4ED852D656D46F
:100374005AD25ED062CEB7E700E006DE66CC6ACA27
:10038400414783AB070422C6B8C37D5703AB0700BC
:1003940083AA470023A0E71823A2E718B717004051
:1003A400130770052380E704130780FA2380E7040A
:1003B40083C74704130C75FFB684E207137CFC0F54
:1003C40085462A8A2E89B28937240040E18701575D
:1003D40063FA86016308D500894613070002631394
:1003E400D5000157D98F93F7F70F371D004023022B
:1003F400FD0411472303E4801305F00F7D35894C78
:100404006D3D63EB8C11B70707003E9937870700F2
:100414007955637EE902B3079900636AF702A94735
:10042400631CFA0689E48144493D26850DA0CA85EA
:1004340009454D3D850903C5F9FFFD140509613DD5
:1004440081C49377F90FFDF7D53569FD7D55B7174D
:100454000040130770052380E704130780FA238004
:10046400E70403C74704418B2382E704B7E700E0AE
:1004740023A07705F25023A0671123A25711E25459
:1004840032445259C259325AA25A125B825B724C9C
:10049400E24C524D21618280A5476314FA068569B6
:1004A4009307F00FB3869700B374F900B69493C71B
:1004B400F7FFFD8C33F92701416A056C9387F9FF37
:1004C400B3F7270199E363FC340193D94900C14789
:1004D400E3E637FF89BF8567C169FD17E1B71305F7
:1004E400800D6388490113050002638489011305A3
:1004F4001008CA85C53B1D3D31D94E99B38434419A
:10050400D9B7CA852D45F93BCE94E38E99F0850978
:10051400653BA38FA9FED5BF9307FAFF93F7F70FA7
:1005240063ECFC0803475D04B70708001377070270
:1005340019E3B78707007955E37BF9F0330799008E
:10054400E3E7E7F089476310FA048980554AE38CAE
:1005540004ECCA8509457933910903A7C9FF91477A
:100564002320E48003076480E34E07FE23034481D1
:10057400FD17EDFBFD14110981C49377F90FE9FF11
:10058400753371F5E1B58547E307FAF4CA852D455E
:10059400913B1389F4FFE38804E83D3393773900F2
:1005A40091EB8326048003A7090093874900E39D08
:1005B400E6E6BE89CA84F1BFB5476316FA0013059F
:1005C400900BE5318DB5B1471305B00AE30BFAFE84
:1005D4009947631EFA02CA852D45293381440D4C7F
:1005E400214ADD31639684018327048023A0F90026
:1005F4008504E39844FF8327048013172901635576
:1006040007002392F90005B523A2F90029BD9D47EF
:100614006319FA0281451305B004E931BD4423A0EE
:10062400090023A209007D59453193F77400CE9740
:1006340003C70700FD14398D2380A700E39624FF28
:10064400DDB3A1476312FA04D5318144630D090077
:100654008D479304C0036308F90093040005630401
:100664009901930440041375C507E30E95DA1945FF
:100674002D39A131054515392685B1390945A139E9
:100684007531E31205DAD9B391476319FA001305FA
:10069400600621391D311305900925B7E3050AD8F1
:1006A400F15459B309CDB7170040130770052380DF
:1006B400E704130780FA2380E7042396A7028280C5
:1006C40019C1814799E982803387F5008346070081
:1006D4003307F50085072300D700E397C7FEE5B786
:1006E40019C1FD5781E98280910503A7C5FF110552
:1006F400232EE5FE7D16E319F6FEF5B7797122D4B3
:10070400173400001304C4A21C4006D626D24AD0D3
:100714004ECE91C782979737000023AB07A05C4069
:1007240089CB03D5C18DBD3F5C40829703D5E18D54
:10073400953F1C40639907189737000083C757B14A
:10074400858B95C797370000A38407B0173700003F
:10075400034737B0914763FCE700792B97370000D4
:1007640083C737AFF9178A07A2979C4382979737B5
:10077400000083C7A7B2918B89C7972001E0E78067
:10078400E0751C4491C382979387818D98431736F3
:1007940000000346B6973E8997340000938404977B
:1007A4009737000083C7879693961700BA9683D627
:1007B4000600638006109737000083C7279563F20D
:1007C400C70886073E97835507002310070003D503
:1007D400C18D2EC62392018EF1359387018F9C43E0
:1007E400173500000345859213172500BA979C43DB
:1007F400B2458297AA8903D5E18D6D3597370000FC
:1008040083C7C790139717008327090003D5418E28
:100814001345F5FFBA9703D7070033753501598D92
:100824002390A70083C70400850793F7F70F1737B2
:100834000000230DF78C173700000347378D63E65C
:10084400E700973700002383078C1C40ADEF9387A4
:10085400818E98433E8425CB9737000083C7B79F8A
:1008640091CB9737000083C7D79E89E7972001E093
:10087400E780200C1C4082972A8431C59C48AA97A3
:1008840017370000232CF7889387C18E9C4385CFAC
:1008940003D5C18D013D228597F0FFDFE78080E01D
:1008A4002254B25092540259F24903D5E18D456164
:1008B400D5BB850793F7F70F973600002388F68496
:1008C400E3E0C7EECDBDB250225492540259F2492E
:1008D400456182809167B7C600409387373023A66D
:1008E400F6200F1000009737000093872782884F67
:1008F4009387019E9C43316713073730F053B70742
:100904001000FD17918F99833A0523A6E6205D8D8B
:1009140082804111B7170040985F3AC6945F32470E
:10092400E39CE6FE324541018280411106C6D5377B
:100934009726000083C6067B858AB1C693073033A9
:100944003307F502B337F5023983CA07D98F17275E
:1009540000001307A77B584B01456303F702338557
:10096400E740636BF70037653D0889C637856F0834
:1009740013050590198D3E95172700002322F77A59
:10098400B24041018280E5473307F502B337F502EF
:100994002583DE0765BF0327C50F8346B500973758
:1009A40000009387A78A9C4F58439386160295822A
:1009B4009043FD1693F6F60F10C3D04350C39047EF
:1009C40010C7D04750C7904B10CBD04B50CB904F53
:1009D40010CFD04F50CF91C6130707029387070259
:1009E400C1BF82808347E50193F7E70FF1EF2A87C0
:1009F4000345F50171E9034607018346870009CAE7
:100A04008345A7029727000083C7D76D63E7F500E6
:100A140093F70601C5CF814709CA83478715034663
:100A24007715C18AA207D18F81CA8346B7150347B8
:100A3400C7152207558FBA97D1CB17370000130774
:100A4400678C3847411122C406C67D5483260708A3
:100A540063F386003684184375FB172700000347A9
:100A6400676893168701E18663D906029387C713E3
:100A740095831727000003478767BA9763D0060456
:100A84001D8C9387418F9C4382973335A400B240D9
:100A940022441345150041018280058B9387C712B8
:100AA40009CB8A079387F7031305D007B3D7A702A7
:100AB400C9B78607FD071305D003CDBFE372F4FC65
:100AC4003705C0A82A946DBF0145828082804111F8
:100AD40022C41384019D18404AC006C61C5F26C266
:100AE4001389C19C9983858BC1C31C5F9724000023
:100AF4009384C47593F7F7F91CDF9727000083C725
:100B0400E77493F707048DC39387418F9C438297BF
:100B14009727000023A4A77483C7040093F7F70B57
:100B2400172700002304F772854717270000A30145
:100B3400F77283C7440093F7070481EF9387019EFC
:100B44009C43D844B8D3930700FC17270000230123
:100B5400F7708387640063D90700832709009C43E7
:100B6400172700002307F76E18401C5F8583858BC9
:100B7400C9CBF5571CDF0100010001000100010091
:100B84000100010001000100010001000100010059
:100B94000100010001000100010001000100010049
:100BA4000100010001000100010001000100010039
:100BB4000100010001000100010001000100010029
:100BC4000100010001000100010001000100010019
:100BD4000100010001000100010001000100010009
:100BE40001000100010001000100010001000100F9
:100BF4000100010001009387019E9C4313075004E8
:100C0400B8CB18401C5F9183858B89CFBD571CDFFF
:100C14009387019E9C4323A8070485471727000058
:100C24002308F76283270900D8430583058B19C776
:100C3400D843759BD8C3D843799BD8C3B2402244C8
:100C44009244024941018280397106DE16DC1ADAC7
:100C54001ED82AD62ED432D236D03ACE3ECC42CA70
:100C640046C872C676C47AC27EC09535F250E25246
:100C74005253C2533255A255125682567247E24716
:100C84005248C248324EA24E124F824F2161730025
:100C940020309387019E9443172700001307075BB6
:100CA400BC5289CF83472700858B89EB8347370064
:100CB400858BFDD797270000238C0758828037C780
:100CC40000401306C0039306200397250000938574
:100CD400E55783278720C18393F7F7036369F600F9
:100CE40083278720C18393F7F70363E6F60083C75E
:100CF4004500858BF9DF82809387019E94431727F3
:100D040000001307A754BC5289CB83470700858B87
:100D140091CB97270000238D075297270000A389C2
:100D24000752828083471700858BF1DFDDB79387F5
:100D3400019E904337C70040C145E546832787207D
:100D4400C18393F7F70363FBF50083278720C183EF
:100D540093F7F70363E4F6003C52EDF382801387C4
:100D6400019D1843AA87185F1583058B25EF03455A
:100D7400150015051377C51F19C6B386E70083C68A
:100D840026002300D60095C59726000083C6664C2E
:100D940093F606040945A1CAB386E70083C6360064
:100DA400054693F5F6066390C504E206E18663CC36
:100DB40006023385E7008347150003470500A207B1
:100DC40093F70770D98F13970701418393760740F0
:100DD40099C613670780239CE19C01458280239C6C
:100DE400F19CE5BF054582809386019E8C42368541
:100DF4009726000093868645984593170701C1837B
:100E0400137817203E86630408041377072079C3F8
:100E140003C7260013671700172800002309E842B8
:100E240013070019B8D1130700F897250000238190
:100E3400E5421387019D0C4337080010D855719B78
:100E440013672700D8D598413367070198C11377F2
:100E5400261005C31376061059CE03C70600136780
:100E64001700172600002303E63E1727000023136C
:100E7400073E83C6460093C7F7FFC207E206E18632
:100E8400C183184163D106029396170163DE0606F7
:100E940030538D4663E9C6008546172600002309B2
:100EA400D63A3453FDFE9726000093866622838645
:100EB400460163DD060093960701C18663DC0604E0
:100EC4007053894663E4C6007453FDFE1447F58FDE
:100ED4001CC7828003C716001367170097250000FC
:100EE400A386E536172700002304073617270000DA
:100EF40023120736A9BF03C7360013671700172646
:100F04000000A306E63495B78546172600002301A2
:100F1400D63451BF54471396060163510602B706EF
:100F24001000FD1674D3972600009386261E944E57
:100F34008506172600002327D61E49BFA166D58F34
:100F440071B7397106DE16DC1ADA1ED82AD62ED409
:100F540032D236D03ACE3ECC42CA46C872C676C4E5
:100F64007AC27EC05135F250E2525253C2533255C6
:100F7400A255125682567247E2475248C248324E30
:100F8400A24E124F824F21617300203017270000B8
:100F94001307872D8346B7019727000083C71730AF
:100FA400B69793F7F70FFD4663EAF6044C4B972682
:100FB4000000A38BF62A9727000083C7F72A05476A
:100FC4003317F70097260000A38AF62C6D8F1DEFC8
:100FD4009726000083C6D62CB3F6D7021305000269
:100FE400814733D6F500058A13F8F70F09CE6399C4
:100FF400E60097270000A3890727828081177DB721
:1010040005071377F70F8507E39DA7FC8280938775
:10101400C19E9843B75702009387279F83260709E9
:101024001396560063580600832607091396660034
:1010340063440600FD17FDF3828051C9AA87014568
:10104400C9C98D07C207C183F19BC207C1831307B6
:101054004003636BF702138701A80843138781A732
:1010640014436396A6021727000013076706185B4C
:10107400014525C34111C20706C60545DD8D02970A
:10108400B2400145410182801387C1A7F9B70357D4
:10109400650005EF035745006369F702B306F7409F
:1010A40021466370D6021041938687001D8FAA964D
:1010B400611790C22392E6002393060014C1231201
:1010C400F5002313B50021058280084159BF01456D
:1010D4008280828001CD938701A803A807009387AB
:1010E40081A78C430147C28763E3B700828094439E
:1010F400636FF50663EDA60613868700E368C5FEF5
:1011040003D56700216605066317C50003C6019968
:1011140005062388C1982393070063840703138675
:10112400C1A71042630FF6000356670019EA83D77C
:10113400470014C383564700B697A1072312F7004C
:10114400BA879843E304B7FA9386C1A79442E30F9E
:10115400D7F883566700D9FA83D647000356470069
:101164001843A106B2962392D70098C382803E8783
:04117400B6879DBFDE
:10117800974100209381814617710020130101E8EF
:1011880013054000972500209385456717360020F2
:101198001306067E63FAC5008322050023A05500C6
:1011A80011059105E3EAC5FE17F501001305C553BE
:1011B800973500209385C57B1386818863FAC5001F
:1011C8008322050023A0550011059105E3EAC5FE19
:1011D80013858188976500209385459D6377B500C1
:1011E800232005001105E36DB5FE9302800873A066
:1011F8000230972200209382626093E2120073907B
:10120800523037170040930770052300F7049307FF
:1012180080FA2300F7040F1000003C47B70600FAD5
:10122800E116F58FB70600069506D58F3CC79712CD
:1012380000009382E2B373901234730020303D4370
:101248002A876373C3029377F700BDEFADE5937602
:1012580006FF3D8ABA960CC34CC30CC74CC741075E
:10126800E36BD7FE11E28280B306C3408A06970279
:10127800000096966780A6002307B700A306B7006C
:101288002306B700A305B7002305B700A304B700DA
:101298002304B700A303B7002303B700A302B700D2
:1012A8002302B700A301B7002301B700A300B700CA
:1012B8002300B700828093F5F50F93968500D58DAE
:1012C80093960501D58D61B7939627009702000084
:1012D80096968682E78086FA9680C1171D8F3E967D
:1012E800E374C3F8A5B7B717004003C777051377AA
:1012F800E70FA38BE704130700F8A38DE7043D4726
:10130800238CE70413075003A38CE7048280411160
:101318002A83014E930E407E130F0019930F400647
:1013280063ED6E0A9308001913034006B37815039A
:10133800854E0D4FA14F337365020D891335150086
:1013480063E7BE0C1308F6FF7946729842081358F3
:1013580008013307C70213D61700BE073297614644
:10136800B3F6C60213068070B386C6023697A16626
:10137800F58F42075D8FB717004083C6F70293F6D3
:101388000608A307D1000346F10083C6F70293F6C7
:101398000608E394C6FE8346F10093F6F60FF1DEE5
:1013A800930670052380D704930680FA2380D70418
:1013B8000F10000023AA070383C6170393E6060845
:1013C800A388D702D8DB03C7170313670704A388CA
:1013D800E70223800704410182807D133368E30319
:1013E8009308E016630E08003368F3039308D016D9
:1013F800630808009378330093B818009388D816C8
:1014080033081E01131E0801135E0E0111BF6393FA
:10141800E5030548638608000148630303002A883A
:1014280071087298FD15131E0801C205135E0E019E
:10143800C18139B713F8150063F4BF007908D5B72F
:1014480013381800E5BF914763EDB702B7070200EC
:10145800938787C58A05BE959C418287B717004048
:1014680003A7470B1345F5FF698F23AAE70A03A7CC
:10147800070B698F23A8E70A03A7070A798D23A01A
:10148800A70A8280B717004083A6470B1347F5FFCA
:10149800F98E23AAD70A83A6070B558D23A8A70A76
:1014A80083A6070A758F23A0E70A8280B717004032
:1014B80003A7470B498F23AAE70A03A7070B13457E
:1014C800F5FF45BFB717004083A6470B1347F5FF45
:1014D800758F23AAE70A03A7070A598D4DB7B717CF
:1014E800004003A7470B498FEDB7B717004003D556
:1014F8008700420541819377050491EB9377F501C5
:101508003755E801130505803345F5028280937746
:10151800050C130700046397E7009377F501374537
:101528009C1CCDB72165130505D08280B7F700E074
:10153800C8439C478280814737370040A14663C42F
:10154800C700328582800345B740E38EA6FE338507
:10155800F5000345050085072304A740CDB7375795
:101568000020130707DE1C43B7760020938606BBCE
:101578003E95636BD500B7860020938606E063E549
:10158800A60008C33E858280FD57EDBF411122C4E5
:1015980006C62A84993F2947B307E502B2408D83DE
:1015A800B3D7870222449507B3D7E70237370040FD
:1015B800C207C1832316F74041018280716541113A
:1015C8001305052006C6D937B7370040130770F84A
:1015D8002381E7400D47A381E74013070004A38058
:1015E800E74005472387E740B24041018280CC416C
:1015F800411106C6328503C6150083C505002206BB
:101608004D8E42068D654186138875A2630C060FC0
:101618006348C804138845A26306060B634AC800DA
:10162800938535A26309B60623900600294679A05A
:10163800138855A26308060B938565A2E316B6FEC8
:10164800C1451D4663ECE5064546198E63F3C700A0
:101658003E86B70502002390C6009385C5C789A8B2
:10166800138895A26300060F634E060B1388A5A284
:10167800630A060F938505A5E318B6FA99451D4632
:1016880063EEE502198E63F3C7003E862390C60019
:101698009385C18031A89D451D4663E1E502214639
:1016A800198E63F3C7003E862390C6009385818810
:1016B800BA9597300020E78060800146B2403285B5
:1016C80041018280AD451D46E3EAE5FE3146198EAB
:1016D80063F3C7003E86B70502002390C6009385D2
:1016E80085CBF9B7B1451D46E3EAE5FC3546198EC9
:1016F80063F3C7003E86B70502002390C6009385B2
:1017080085CC7DB7C1451D46E3EAE5FA4546198E05
:1017180063F3C7003E86B70502002390C600938591
:1017280005C979B7C1451D46E3EAE5F84546198E6E
:1017380063F3C7003E86B70502002390C600938571
:1017480085CDBDB7C1451D46E3EAE5F64546198E88
:1017580063F3C7003E86B70502002390C600938551
:1017680045CAB9B7B5451D46E3EAE5F43946198EC9
:1017780063F3C7003E86B70502002390C600938531
:10178800C5C63DB7B756002037550020938646AAF0
:101798004146CD45130545976F8040782D453DEF6F
:1017A80003C5050009476317E5063285D041411195
:1017B80006C6034716000346060041682207518FF4
:1017C800130628FE6308C7026369E6000518630369
:1017D80007032390060029451DA8130648FE630B3E
:1017E800C7001518E31707FF15473E866377F7000C
:1017F800154621A03E8691C30546CC452390C600D8
:101808004206418297200020E780406B0145B240A4
:10181800410182802390060005458280828083C72B
:10182800850093F70702D5E7411106C622C403C411
:101838000500894E2E888547631AD40383AE450078
:10184800B28883C71E0083CE0E00A207B3E7D70174
:10185800C16E138F1EFE6380E7038D1E6386D70556
:101868000D681308289063800707A947B2402244EF
:101878003E8541018280AD4775FB0547B547E36763
:10188800D7FE0325C8000546C68597200020E780B7
:10189800E062014403A7C18A814769DB184379D70D
:1018A800228502978147D9B7AD4769F30547B54700
:1018B800E36ED7FA0325C8000546C68597200020A1
:1018C800E780C05FC1BF2244B240854741016F60D5
:1018D800F028A1473E85828041677917630CE502AD
:1018E800411122C406C685472A84639AF5002285D9
:1018F8002244B2409385018A41016F80E06D894797
:101908006396F5008545EFA0101B75D1B2402244BF
:10191800410182808280411122C42A8441659385D5
:10192800018A7D1506C6EF80206B37250000130558
:10193800058E0588EFA0B00F05C02244B240B75607
:10194800002037550020938606BC4146C54513053F
:1019580005AB41016F80805CB240224401454101E2
:10196800828009C523A6A18A0145828045458280D7
:101978001147636DA706370702001307C7CE0A058C
:101988003A9518414111AE8706C6B28502870547C8
:101998006145639AE7000546138501899720002071
:1019A800E780C0510145B240410182800547614549
:1019B800E39BE7FE054613854189CDB70547614599
:1019C800E393E7FE054613858189C9BF054761454D
:1019D800E39BE7FC05461385C189C9B715476145EF
:1019E800E393E7FC15461385418A4DBF094582807C
:1019F80011476369A704AA87370702008A071307F4
:101A080007D0BA979C43411106C62E8582870546A2
:101A18009385018997200020E780404AB24001451C
:101A280041018280054693854189EDB70546938536
:101A38008189CDB705469385C189E9BF1546938548
:101A4800418AC9BF09458280411122C42E849385E9
:101A5800018A26C206C6AA84EF60100B058905C153
:101A6800B757002083D7A7B6A285B2402310F40049
:101A7800224426859244014641016F70C064B240F9
:101A880022449244494541018280411193962500A0
:101A9800AA852D4506C697200020E780600CB24035
:101AA800014541018280411126C29394250022C438
:101AB8004AC02A843289A686AA850146254506C6D3
:101AC80097200020E780C009A6864A86A285294576
:101AD80097200020E780C008B2402244924402497F
:101AE800014541018280011122CC06CE3714004005
:101AF80026CA4AC84EC652C483447405034AB4056C
:101B08008349840503499405EFF0EFFD8347A40555
:101B180093F4F40F137AFA0F93E71700230DF404E4
:101B280093F9F90F1379F90FB717004003C7A70501
:101B3800058B6DFF03D5C705A38D4705238C370596
:101B4800A38C2705A38B9704F2406244D2444249F0
:101B5800B249224A0561828041119397050122C446
:101B680006C6C1872E8463DD0700EF00907119C196
:101B7800EF00906A2165218DB240224441018280A4
:101B880093F7150013C51500E5FB9397250163DF4F
:101B98000700EF40110703C5018B37F60200130653
:101BA80006E08965EF10003F0965F1B793971501C5
:101BB8000145E3D307FC370502001305C5D5EFC07F
:101BC800F17103C5018B130600649165EF10803C29
:101BD800116555B7B7050200370502001D71494662
:101BE800938545D11305452A86CEEF10602201E979
:101BF80037050200130585D2EFC0516E01A037F7F3
:101C080000E0F9575CC7FD571CCB8566B7E700E0D5
:101C180023A0D7101306701010C3B8434146B0C3B1
:101C280023A0D718B8C30F1000001306C0038145BE
:101C38004808EF10C017B75700209387C7073ECA58
:101C4800896793870780231CF100ED47A301F10200
:101C58009307A0102312F102D1472303F102A167D1
:101C6800938707E03ECEB7270000938727A9BEC415
:101C7800B72700009387E7AABEC6B5472308F10235
:101C8800B7170000938747533EDAB7F50700B72721
:101C980000009387E7AE81467000E10519453EDEF6
:101CA80097200020E780C0EB5808814799467000CC
:101CB8003E960346060085070507A30AC700E39872
:101CC800D7FED24791C70357810185676373F70031
:101CD80001A04808EF104069AA8501C9370502002C
:101CE8001305C5D3EFC0F14D01A0F64025618280F0
:101CF80041113725000022C4130505B606C6138412
:101D0800018BEF10E0622300A4002928034504009A
:101D18002244B24037F60200130606E08965410105
:101D28006F104027411106C6B7170040130770050A
:101D38002380E704130780FA2380E7040F100000CC
:101D480003C7F7021305407E814613677700A38710
:101D5800E702238007040147814705468545EFF0E0
:101D68000FDBB240014541016F10300D41111305E1
:101D7800800406C697200020E78000B4371700408B
:101D88008327870A8D451305002093E7072023241E
:101D9800F70AEFF04FEBEFF07F82370502001305EB
:101DA800452AEFC0B1533D35A137EF90313BEF9055
:101DB800F141EF00B02CEF00C06C97200020E780C5
:101DC80000CE370502004111130545F406C6EFC0E1
:101DD800513FB2400547A38DE18A41018280370512
:101DE8000200B305B040130505FF6FC0913D83475E
:101DF80025003547636EF724370702008A07130763
:101E080007D6BA979C43797122D406D626D24AD0EF
:101E18004ECE52CC2A84828703C7C18BA5479384B0
:101E2800C18B63EAE7068349450037760020130A29
:101E3800550001491304C68703C504006365A90654
:101E48000E0509051946D285229597200020E780BE
:101E5800E00683C5040037050200130505E99397DA
:101E68003500850593F5F50F1386F5FF0E062296C6
:101E7800A297A3803701834876000348660083470A
:101E88005600034746008346360003462600238053
:101E9800B400EFC01133B250225492540259F2499F
:101EA800624A456182809315390089051946A295D1
:101EB8005285EF00F07565F105091379F90FADBF8B
:101EC80005041374F40F83C7C18B1389C18B637C1A
:101ED800F4009315340089051946A6951385C18128
:101EE800EF00107371DD83470900639C8702370593
:101EF8000200130585EBEFC0713E014685450D458F
:101F080023000900EF70414137050200130505E879
:101F1800EFC0D13C49B7B774002001449384C4870B
:101F28005DB7370502001305C5ECEFC0313BB77745
:101F380000209387C7870E04930624003E94034627
:101F48001400BE9681450145EF70213903C5218CE7
:101F58000566130606C893050008EF10A0033705A9
:101F680002001305C5ED6DB79384218C03C50400E9
:101F780093050008EF10C01883451400B9ED035508
:101F8800A4000947A38EE18A03C6040005472396E7
:101F9800A182A38DE18A6C00DD472316F100EF5082
:101FA800200B03C5040013060064A145EF00907ED2
:101FB80003C504000564130604C8C145EF00907DFD
:101FC80003C504001306049693050004EF00907CF3
:101FD800370502001305C5EE25BF370502001305B6
:101FE800C5EFEFC0111E37050200130505E8EFC065
:101FF800F12E238E018A014685450D45EF70C131CA
:1020080059BDA38E018A79572396E182238D018ACF
:10201800239C018A238E018AA38D018A03C5218C02
:1020280093050004EF10C00D8345640037050200D6
:10203800130585F1EFC0F11837050200130505E80F
:10204800EFC0D1294DBF37050200130545F3C9B5C7
:102058008280011122CC36C606CE2E84EF0070385D
:10206800B24637460F00130606243376C50291CAD6
:1020780037050200B285130505FE32C6EFC071149C
:10208800324622856244F240814505616F8081377E
:1020980081E937050200B285130505F76FC0711293
:1020A8008547639EF50019E637050200130545F8D4
:1020B8006FC0D12237050200130545F9D5BF8947FE
:1020C8006398F5000DE637050200130545FACDB70C
:1020D8008D47639EF50011E637050200130545FBA1
:1020E800C1BF37050200B285130585FC45BF828054
:1020F80039719397050126DA06DE22DC4AD84ED6D6
:1021080052D456D2C187AE8463D5072003C5218C2B
:102118009389218CEF00F0162A8415C50347050022
:102128009307000B631EF70083C7D18B09478345CC
:102138004500130A85006383E7025285EF50404A41
:102148002285EF00700D2165258DF2506254D2541E
:102158004259B259225A925A216182800D476381AD
:10216800E50205476390E50203478500631AF70215
:102178008345C50037050200130585D9EFC07104F2
:10218800A38D018A034744009307F007631AF700F9
:102198008355840037050200130505DBEFC0710283
:1021A800834744002D476387E7020547639CE7029E
:1021B80003478400A9466311D7048345C400370543
:1021C80002001305C5DBEFC0C17FA38D018A8345DB
:1021D8004400A5B75C44370502001305C5DC83C578
:1021E8000700D5B74D476393E7023705020093050B
:1021F800A005130505DFC1BFC9466316D702370519
:1022080002008345C4001305C5DD75BF6D47639C97
:10221800E7005C4437050200130505E083C50700A5
:10222800EFC0217A6DB703C7A18B1389A18B45D362
:1022380085466317D7081D47639CE70283578400C8
:1022480085CB5C4437050200130545E183C51700BB
:1022580003C6370003C7070083C72700A205220665
:10226800D98D5D8E2390B18C239FC18AEFC0617593
:10227800834744001D476393E70403471400E94775
:10228800E397E7F483D7018CB9D32314F10083D7FC
:10229800E18B03C6090009472315F100F9779387F5
:1022A80027102316F100FD572307F10003D5C1823B
:1022B8002C002300E900EF40906311BF0547C9B720
:1022C8008946E316D7F025476392E70483578400CD
:1022D80095CF584403C509008347170003470700F3
:1022E800938A818BA207D98F2390FA009305000265
:1022F80013060064A38D018AEF00D04983D50A0034
:1023080037050200130505E4EFC0A16B230009009F
:102318007DBD93F7150091CF03C5218C375600205A
:10232800130606C393854182EF60D17513C5140067
:1023380029BD93F7050881CB41657D15EF90C15FF5
:1023480013C5040819B593F7850085CB8157231465
:10235800F100239C018A239F018A2390018C054761
:10236800238DE18A83C6218C03D5C18209462C00BE
:10237800EF40707613C58400C9BB93F7050191CF70
:1023880003D5C18213078025814613064006D1452F
:10239800EF60117813C504014DBB93F70502CDCF4B
:1023A800938AB18B83C70A009389B18BA5EF1389F0
:1023B800E18203470900138AC18283D7818B0355C1
:1023C8000A001384E1823DC72314F10001478547C1
:1023D80081460546C945231801002315F100EF4041
:1023E80030592AC621C19307A0052300F50003C66A
:1023F800218C03550A002C001389218CEF40B04F23
:102408000DE585472380F90083470400034509004B
:102418001306006493B71700930500022300F40025
:10242800EF00503713C504020DB3C9452800EF501B
:10243800201BCDBF2314F10003C6218C2C00EF40D4
:10244800D04A6DF185472380FA008347090093B786
:1024580017002300F900F9B793F705040145E3864F
:1024680007CE03D5C182EF90E14C03C5218C0566E8
:102478001306069693050004EF00D03113C5040433
:10248800E9B13725000001111305850F06CE22CCCE
:10249800EF00106A1384218C85652300A4009385BE
:1024A80005960945EF20101BD1451D45EF20901AD0
:1024B800930540062145EF20F01993054006354560
:1024C800EF20501985470D47700091451305F040DE
:1024D8002304F100A304F1002305E100A305F100A2
:1024E80002C6EF80A1193000854513058040EF80B2
:1024F800E11813069100854513059040EF800118F7
:102508001306A10085451305A040EF802117130687
:10251800B10085451305D040EF804116EF50F03DDE
:1025280003450400EF5060697D55EF4080747D5588
:10253800EF70702737060200130686E6D545014579
:10254800EF404065034504008545EF005012F24016
:102558006244056182802A8637050200B305B040CF
:10256800130585036FC0E145011106CE19C509475A
:10257800630FE500F240056182806C00EFF04FC701
:10258800370502001305C50FEFC04155E5B76C00CC
:10259800EFF00FC63705020013058511F5B79387CD
:1025A800C18C03D707006310A702370502002391E7
:1025B800B7002392C700130585012E86BA85239399
:1025C800D7006FC0014037050200130505036FC02F
:1025D800E1509387C18C8356450003D7070001114A
:1025E80006CE22CC6391E6041384418341670345F8
:1025F8000400791798C323A207008945EF005030DB
:10260800034504009145EF00B02F85471306F100FC
:10261800854513055030A307F100EF904109F240BA
:102628006244056182803705020013050503EFC087
:10263800E14AF5B77D15954763E5A714B70702008A
:10264800938707000A053E951C41411122C406C61E
:1026580026C22E8482873705020013050505224409
:10266800B240924441016FC0614703C725009947B2
:10267800631CF7002E85B13F8345640037050200CF
:1026880013050506EFC0E133370502001305C5073A
:10269800F9B703C7250095476314F7029387C18CE0
:1026A80083D607004167791703D5A500638FE60035
:1026B800EF908128370502001305C508EFC00142D5
:1026C800370502001305450B59BF03D7E50093846E
:1026D80041832391E70003D705012390A70003C591
:1026E80004002392E70003D72501130600648945F7
:1026F8002393E700EF00100A03C5040009661306D8
:102708000690A145EF00100903C5040005661306ED
:1027180006C89145EF0010080356E4008355A4004D
:10272800370502001305050AEFC0A12951BF370577
:1027380002001305050C25B783C7250011476397C9
:10274800E700370502001305850D11BF194763958A
:10275800E7022E85BD3D834564002244B240924481
:10276800370502001305050641016FC081253705AD
:1027780002001305450FE5B5B240224492444101D9
:102788008280828001119397050122CC06CE26CA49
:10279800C1872E8463DE070003C54183DD2411C190
:1027A800A52C2165218DF2406244D24405618280C6
:1027B80093F7150091CF03C54183375600201306C0
:1027C800C6C39385418CEF80714213451400E1BF65
:1027D80093F72500B9CF03C54183130600648945E3
:1027E800EF00407B9384C18C03D50400930780F8E5
:1027F8002302F1000147854781460546ED4523152B
:10280800F100EF40F0162AC615C10356A1004C008E
:1028180097100020E780806A03D504002C00EFF0B1
:10282800AFA209C5ED452800EF40905B1345240091
:102838009DBF93F7850085C383C7418303D5C18CAA
:1028480013074006814613064006D145EF807133D1
:102858001345840089BF93F745000145A9D703D5DF
:10286800C18CEF90210D03C541830566130606C888
:102878009145EF0020721345440035B73725000015
:1028880079711305C57806D622D426D2EF00502ACE
:1028980093844183D14705442380A400231AF1007F
:1028A800100893074006854513055030231CF10096
:1028B80023088100EF80B15F37560020130606C653
:1028C800F14513057030EF80915E138681839D4535
:1028D80013056030EF80B15D50088945130510314C
:1028E800EF80F15C3008894513052031EF80315CB9
:1028F800930500050D45EF20E055930500051145AA
:10290800EF2040553008914513057040230481009D
:10291800230681002308810002CC230A0100EF70FE
:10292800F1553000854513050040EF7031557000B2
:10293800854513051040EF707154500885451305FF
:102948002040EF70B1531008854513055040EF70D3
:10295800F1527D55EF40E0317D55EF70C064EFE0F6
:102968007FE27D55EFE03FFB37560020130686C413
:10297800D5450145EF40002289472306F1008D47E0
:102988002308F1009147230AF10003A701889387E0
:10299800018883C747003000854501453ACC230E9E
:1029A800F10023048100EFE0BFFC70008545054578
:1029B800EFE01FFC100885450945EFE07FFB500854
:1029C80085450D45EFE0DFFA300895451145EFE004
:1029D8003FFA41679387C18C791798C323A20700F0
:1029E80013850183EFE0FFF703C504008545412106
:1029F800B250225492544561828023AC05FE1C419A
:102A080091E7010001000CC18280BA8703A787FF04
:102A18006DFF23ACB7FE82801DC18346E5FF130717
:102A2800F00F9147639EE600411106C697200020EB
:102A3800E78000EAB24081473E85410182809547A0
:102A48003E85828001E9014582800145B2402244E9
:102A580041018280411122C42A842105420593053F
:102A6800D004418106C697200020E780C0DC71DDD4
:102A7800FD5723200500231285002303F5002105B7
:102A8800F1B71387418D1C43411122C426C24AC0A5
:102A980006C601440149BA8489E7A16595250DC494
:102AA80001A803C7E7FF6318A7021DC8A165C126CF
:102AB8009840832784FF6317E40223AAF18CFD570B
:102AC800232C04FE230FF4FE2285B24022449244B4
:102AD80002494101828011E03E8983A787FF6DBFCB
:102AE8003E84E5BF232CF9FED9BFA9C9411122C4F0
:102AF80006C62A849747002083C7D7E02E856368D7
:102B0800F400193F0D45B24022444101828083A759
:102B180085FF99E703C7E5FF9307F00F6305F70003
:102B2800E53D1545CDB7238F85FE1385418DF135DC
:102B380022852244B240A165410115AE1545828027
:102B480023AA018C82809387C18E9C4399E33E859A
:102B5800828003D727006316B70003C70700E3087E
:102B6800A7FEDC47E5B74111939705014AC006C6A1
:102B780022C426C2C1872E8963DE0700193711C116
:102B8800613D21653345A900B2402244924402497F
:102B980041018280AA860145E5D901443D47B357E2
:102BA8008940858B95CB9387018E8443BD4791E2FD
:102BB8008147A2978E070545BE94331585001314E7
:102BC80005019C40C8404180829723A0040023A2AD
:102BD8000400334524014DBF0504E312E4FC01441D
:102BE800CDBF97470020938727CE9C53411122C41D
:102BF80006C61384018495C7829723A0A184084040
:102C0800B74703009387D73F3305F502B7A72600D8
:102C1800938737ECB24022443E9523A0A18441011A
:102C28008280974700209387E7CD18409C4BBA973E
:102C380023A0F184E9B79387818D904397460020BC
:102C480083C656CC814713F7F70F6360D70A174737
:102C58000020034797DF914763E0E70A9747002082
:102C680083C747E3918BC9EB0111680006CE22CCDC
:102C780026CAEFD0E065FD56630FD50C324797475B
:102C8800002083C797C563F3E70C17470020130795
:102C980067C7404717470020034747C46305D40662
:102CA800058B21CF51473304E40263F1870A97105B
:102CB8000020E780C045B2476373F400A287174736
:102CC8000020034797C1998F3E9597470020938727
:102CD800A7BF8387470163CD0702B707C0A8636909
:102CE800F502B70740573E9525A0850713971700AB
:102CF80032970357E7FF21DB8280130790023304E2
:102D0800E40205805DB762076187635707001D8D80
:102D180019E93705C0A801A8E37BF5FE3707C0A865
:102D2800B307F7403E95974700209387E7B9DC53F0
:102D3800829709ED974700209387C7D09C4F99C782
:102D4800EF306116EF30C17FEF30410AF240624444
:102D5800D24405618280974700209387A7BADC4751
:102D6800E386A7FE17470020130707B683464701E7
:102D7800BA84858A9DC651443384870297470020C8
:102D880083C7B7B5E3F487FC97100020E7802038A5
:102D98009747002083C777B41D8C22958387440109
:102DA8001DBF13049002338487020580C1BF2A9691
:102DB80009E582800505A30FB5FEE31DC5FED5BF55
:102DC80081473307F5000307070019E33E85828032
:102DD8008507C5BF01112E8626CAAA8413150601C8
:102DE8009305F004418122CC06CE32C697200020FC
:102DF800E78060A42A8419C53246A685971000206A
:102E0800E780C00B2285F2406244D244056182808B
:102E180081476314F600054582803307F50085076E
:102E2800B386F5000347070083C6F6FFE383E6FE93
:102E3800014582809307F6FFBE952A966313C50065
:102E48008280FD1583C715000505A30FF5FEFDB7A4
:102E5800814711E9014582803307F50003470700E0
:102E6800E31AB7FE8507E319F6FE05458280974702
:102E7800002083C737A9637FF5001387818D9317D7
:102E8800150008433E9583570500DD8D2310B500D6
:102E9800014582800D458280FD57011117470020AA
:102EA8002328F7A69387C18E22CC80434EC6974924
:102EB8000020938969A126CA4AC852C456C206CEC0
:102EC8005AC02A8981444E8A974A0020938A8AA345
:102ED800184481476374E900B307274103A74902EF
:102EE8001CC409CB03A7CA0063F6E70017470020F4
:102EF8002320F7A2A1E7835524009DE95C44A1E8BB
:102F080023A6F18E032BC400228597200020E7809A
:102F1800209C5A8455FC83274A0285CF6244F2409C
:102F2800D2444249B249224A924A024B056121B32E
:102F3800034504002D3F5C4081CB1CC4835724000B
:102F4800D5DFA2844044F9B71C44CDDBC5BFDCC43F
:102F580055BFF2406244D2444249B249224A924A99
:102F6800024B056182809747002083C7B799637138
:102F7800F5021387818D93171500084393C5F5FF54
:102F88003E9583570500FD8D2310B50001458280CD
:102F98000D4582809747002083C7D7966364F50064
:102FA80001458280411122C426C24AC006C62A842D
:102FB8002E89B284EFF03FB901C504C505452DA09F
:102FC800936504F0C205C181414597200020E78040
:102FD80080860DE1974700209387078F9C5B81C708
:102FE800A285114582970145B24022449244024984
:102FF800410182809387C18E9C438DE323A6A18ED5
:1030080085472326050004C52311250123008500D3
:10301800A300F5002322050055B7BA87D84775FFE6
:10302800C8C7F9BF45C539715AD0138B018E22DC48
:1030380026DA4AD84ED652D45ECE66CA6AC86EC65A
:1030480006DE56D262CC3689328AAE89AA84014419
:103058005A8DB94D854BF94C03270B00131C3400CE
:10306800937AF40F62971C43A9EF13B5FA0013453E
:103078001500B3978B0063F65D01930714FFB397B0
:10308800FB0093950701C181528629371DC9832703
:103098000D000145E29784C323A2370163040900A8
:1030A80023005901F2506254D2544259B259225A5B
:1030B800925A025BF24B624CD24C424DB24D2161A6
:1030C80082800504E31A94F92145E9BF0945828005
:1030D800411122C426C24AC006C6AA842E89328457
:1030E800553DCA852685EFF01FA609C940C101458F
:1030F800B240224492440249410182802145CDBF19
:10310800411122C426C24AC006C6AA842E89EFF0FD
:103118009FA32A8419C1231105009737002083C76C
:10312800677E639497002392218FCA852685253D63
:10313800014511E01945B240224492440249410137
:1031480082807547636BA7041387018E144341116E
:1031580026C293143500A696944222C406C6AA87AE
:103168003A84094595C613B5F70039471345150044
:103178006373F700C5178545B395F500C205C1818E
:1031880041371C400145A69723A0070023A207004A
:10319800B240224492444101828009458280411113
:1031A80006C6EFF05F9A09C50845B2404101828022
:1031B8000145E5BFF54763EDA7049387018E9C435E
:1031C80013173500BA979843894721C7011126CAB2
:1031D80006CE9334F50022CCB94793C4140063F3A8
:1031E800A700451505443314A400420441802EC6A7
:1031F8002685A2856D378947324609C5A285268569
:10320800513B8147F2406244D2443E850561828049
:1032180089473E858280411106C623A4A18E029566
:10322800B2409737002023A9A76E0145410182804B
:10323800994763E9B7008A05973700209387C76ED7
:10324800BE9588C18280411106C6EF805100714643
:103258008145173500201305256DEFF05FB513067E
:1032680040028145173500201305C569EFF03FB4CA
:1032780023A6018E23A4018E9737002083C7876673
:1032880013D527008D8B3E958D473305F5029305A1
:10329800101035051375F50F973700202385A7669D
:1032A80099473305F5021305050F97100020E780AD
:1032B800805823A0A18E35C99947173600200346A8
:1032C80086643306F60281451306060FEFF03FAE1B
:1032D8009387018E9C439387070F23A8F18E173796
:1032E8000020034747620A07BA9723ACF18CEFF036
:1032F8003F855D269387018F98439737002083C7C2
:10330800776093962700BA96170600001306E6859D
:1033180090C293862700850793F7F70F8A0797359A
:103328000020A381D55EBA9790C3B2404101828044
:103338009737002083C7175D173700200347A75C1E
:1033480063F1E7021387018F184393861700173636
:103358000020A309D65A93962700369708C33E85BE
:1033680082809307F00FE5BF1C416381071A4177FC
:103378007D8FB70600208947631BD7180357450080
:1033880063070718411122C419462A849305F00FD0
:10339800590506C6EFF0DFAB05478D476303E51611
:1033A8001C4481CB58589947630D0714185C630A6D
:1033B80007141306C0038145173500201305C550AF
:1033C800EFF0FF9E1306C003A285173500201305F2
:1033D800A54F97100020E78060AE9737002083D76D
:1033E800674F973600209386264E99E7930700107B
:1033F800173700202310F74E9737002083C7A74DB3
:1034080091E78547173700202307F74C97370020A7
:1034180083C7774C91E7ED4717370020A30DF74A8C
:103428009737002083C7474B91E795471737002008
:103438002304F74A9737002083C7174A91E785473F
:1034480017370020A30AF7489737002083C7174982
:1034580099E783C7060117370020A301F748973774
:10346800002083C7874791E7D147173700202306F5
:10347800F7469737002083C7074795E71737002097
:103488000347C7451316870161869307C00263483F
:1034980006009377170093B717009387D70217375B
:1034A80000202302F7449737002083C7174395E786
:1034B8001737002003478742131687016186930751
:1034C800C002634806009377170093B717009387E5
:1034D800D70217370020A302F7408347D40191E7AA
:1034E800894717370020A30FF73E9C5691C782974C
:1034F80097370020239BA740B933FD57A382F1A635
:103508008147B24022443E854101828089473E85F9
:103518008280011122CC06CE2A842EC6EFF06FECF1
:10352800B245F240818D33A5A502229562441375F8
:10353800F50F05618280011122CC06CE2A842EC6A1
:10354800EFF02FEAB245F240818D33A5A50222950E
:1035580062444205418105618280011122CC06CE78
:103568002A842EC6EFF0EFE7B245F240818D33B5DD
:10357800A5022295624405618280973700209387CF
:10358800A734985725C3411122C426C206C6BE8453
:10359800029717370020035747372A8441C7BA874D
:1035A8006373A700AA87C207C183BA866373E4005E
:1035B800A286C206C182958F51476355F706DC542F
:1035C80091C382978547173700202301F748EF20DA
:1035D800516397370020239A8732B240224492449D
:1035E800410182809737002083C747469DE7973778
:1035F80000209387274583C79700850793F7F70F20
:1036080017370020A304F744A18B9DC785471737B8
:103618000020231DF7426F20B16497370020A3874D
:103628000742D5BF9737002083C74742DDD72244DA
:10363800B24092444101C5B78280973700209387F2
:10364800A728D857011122CC06CE3E8401C72AC626
:103658000297324511CD23AAA18E17150020130514
:1036680085ACEFF05FBBF2406244014505618280A2
:103678008307440163DD07009737002023A0072A4A
:10368800971700209387C7A423AAF18EF9B7971735
:1036980000209387C7A7CDBF011122CC1734002083
:1036A80013048422084406CE26CA4AC801E90545FF
:1036B800F2406244D2444249056182805C58E5DBAD
:1036C800185C75D77000854582971844B247E300A7
:1036D800F7FE9305E004173500200355A51F971042
:1036E8000020E780401517370020232BA72261D13F
:1036F800173600200356061E9305F00FEFF02FEB48
:103708008144173900201309E91F9737002083C720
:10371800871C0326C90163C1F40232859710002073
:10372800E780001B01459737002023AB071E97371A
:10373800002023A9071EADBF9735002083D5851922
:10374800B38795020844185C898185043E9508C2B0
:10375800029765BF411122C4173400201304C41610
:103768001C4426C206C64AC0973400209384841994
:1037780091EBC84C35E9B2402244924402490145D4
:10378800410182801C5CF5D7DC4C99EF9305E0047D
:10379800173500200355051497100020E780A0096D
:1037A8009737002023AEA716C84C61D517360020DE
:1037B800035646129305F00FEFF06FDF0149973774
:1037C800002083C74711D04CE355F9FA97350020FC
:1037D80083D54510338525031C44898105093E9509
:1037E8001C5C08C28297E1BF97100020E780400E5A
:1037F8009737002023A607129737002023A4071223
:103808009DBF011156C2973A0020938AEA0B83A7FD
:103818008A0022CC4AC84EC606CE26CA52C45AC00E
:10382800AA892E8432896385072203A74A0363077E
:1038380007147D476366A714973400209384840C8B
:1038480003AAC40163170A0A9565938515E017351D
:1038580000200355250897100020E780C0FD973702
:10386800002023AFA70A2A86630A051083A74A0304
:1038780003A58A009735002083D5C50589818297DD
:1038880083A78A0003AAC40117370020232CF7084E
:103898008947639CF908C1476312F40E97350020E5
:1038A80083D54503938505FC9147B3C5F5028A0581
:1038B800D29503C705009307A005631DF70A83C7C0
:1038C80015006399370B4A852286910597000020D9
:1038D800E780C05EDC4C5285639347150145F24092
:1038E8006244D2444249B249224A924A024B056193
:1038F80082809850E38EE7F89565938525E0173523
:103908000020035525FD97100020E780C0F22A8A81
:1039180035C52A8683A74A0303A58A009735002060
:1039280083D545FB89818297A5B78D47639DF900AB
:10393800C1476315F4049735002083D5A5F993850D
:1039480045FDF199B5B79147639AF90063183403B7
:103958009735002083D505F8A115E5B7C147639FC2
:10396800F900A14763EC87009735002083D585F6D9
:10397800C115C1BFDC4C52856397470D294585B7F2
:103988001307F006568B6361A70A130A05FE194749
:10399800334AEA02173700200357C7F3973A002043
:1039A800938A4AF6330AEA023E9A83A70A02639583
:1039B800470183A4CA019DE49305E004173500205C
:1039C800035545F197100020E780E0E6AA845DD50D
:1039D80083274B039735002083D5C5EF2A86898135
:1039E8005285829791451307A005898193972500F1
:1039F800A69783C607006393E60483C61700639CF3
:103A0800360385058A052286A6954A8597000020F3
:103A1800E780C04A83A7CA01E38297EC26859710FE
:103A28000020E780E0EA5DBD1307E007E368A7F43C
:103A3800130A05F985B783D5270045BF83A7CA01AF
:103A4800E38E97F2268597100020E78060E83DB75F
:103A580097370020938707EBCC4F8DD1914793067A
:103A6800A0058983139727002E9703460700E317BD
:103A7800D6F003461700631C360185078A0722869D
:103A8800BE954A8597000020E780404381BD835753
:103A98002700C1BF97370020938707E3984739C7A6
:103AA8009C5FA9C705476313E504411122C4173475
:103AB8000020130424E5504C06C60DC6085097355F
:103AC800002083D525E189818297484C97100020F2
:103AD800E78000E09737002023A407E49737002009
:103AE80023A207E4B240224441018280828001116E
:103AF80017370020130747DD4EC68329870022CCDD
:103B080026CA4AC806CE52C456C2AA842E8432890E
:103B1800638A09201C5FBA8A99EB2945F2406244FE
:103B2800D2444249B249224A924A056182805C5B8A
:103B3800EDD7FD4763E9A70E97390020938989DC03
:103B480083A7C901B1CB03A58A0083A7090263959E
:103B5800A70689476393F408C147E310F4FC1735B7
:103B68000020035525D79147130505FC3345F50279
:103B78009317250003A5C9012286CA853E95930798
:103B8800A0052300F500A30095001105970000206B
:103B9800E780C032014559B79305E0041735002086
:103BA800035545D397100020E780E0C897370020D9
:103BB80023A8A7D649F995B783A74A0303A6C9013D
:103BC8009735002083D505D18981829783A78A00FC
:103BD800173700202328F7D4ADBF8D47639EF40024
:103BE800C147E31CF4F2173500200355A5CE130591
:103BF80045FD9377C5FFBDBF9147639AF400E31E67
:103C080094F0173500200355E5CC2115DDB7C147E1
:103C1800E395F4F0A147E3E287F017350020035558
:103C280065CB4115F9B79307F00663EAA706930732
:103C380005FE1947B3C7E70217370020035787C99E
:103C4800173A0020130A0ACCB387E702BE998327E4
:103C5800CA01A9CF83270A02639A37070325CA0135
:103C680091461308A005FD5593D72600C207C183C6
:103C7800139727002A9703460700631D0607834802
:103C880017000356270063959806B306D64063CFFE
:103C9800860485078A072286CA853E95C5BD93078F
:103CA800E007E3ECA7E6930705F979B79305E00485
:103CB80017350020035505C297100020E780A0B7EC
:103CC8009737002023AEA7C451F581BD83A74A03C7
:103CD8000326CA019735002083D5C5BF89814E8543
:103CE80082979737002023AF37C38DBFA300B70053
:103CF800B2869DBFB385860017360020035686BD61
:103D08009105130606FCE3FAC5E0130634001376A2
:103D1800C60F1106B29623000701A30097002311CE
:103D2800D70085BF973700209387C7BDD44FBE897A
:103D3800A1C203A5C90191461308A005FD5593D753
:103D48002600C207C183139727002A970346070056
:103D580063160605834817000356270063989800E2
:103D6800B306D640E3D786F2A300B700B286C1BF38
:103D78008357C700173500200345E5B59305E004D0
:103D88003305F5024205418197100020E780A0AA7B
:103D98009737002023A6A7B849FD41B3173600205E
:103DA800035646B39735002083C5E5B2B385C502EF
:103DB800338686001106E3E2C5D681BF01458280BD
:103DC800011106CE2EC6EF80403E01C9B245F24031
:103DD8000355250005616FB0B001F2404945056102
:103DE8008280A38001922380019223A4019023A6BC
:103DF800019023A8019023AA019023A2019023A057
:103E08000190973700209387E7B33707B40098C32A
:103E18003747A000D8C3370710009306070A94C78E
:103E2800B7065000C106D4C7930607054107D8CB8B
:103E38003707D007410798CF3707840398D337C788
:103E48000700130707B8D8D3416794CB9306070137
:103E5800130717F8D8D7370781FF98DB7D5723AEAC
:103E6800070094D7239AE7028280011126CAAA8400
:103E7800214522CC06CE2E8432C636C43AC2EFE0A3
:103E88007FBC1DC9A24612473246930700FD230096
:103E9800F5009947A30095002301F5002303D500F9
:103EA800A303E5002312C500AA8522856244F240D7
:103EB800D24405616FE07FC3F2406244D244056199
:103EC800828023A4A190828023A6A190828023A827
:103ED800A190828023AAA1908280011122CC4AC895
:103EE80006CE26CA2A890144B30489006368B4004F
:103EF800F2406244D2444249056182802EC6EFE016
:103F08005FCE93170501C183A183B2452380F400D6
:103F18009307140093F7F70F850463F9B700CA975E
:103F280009042380A7001374F40F7DBF3E847DBF6E
:103F3800C167173500200355C5A4FD176302F502B4
:103F4800411103C6419B9385819106C6EF802007E6
:103F5800B240FD57173700202315F7A24101828090
:103F6800828009C925151375F50F1335850E13457C
:103F7800150082800145828023800500F94763E2AD
:103F8800C708797122D426D24ECE56CA5AC806D648
:103F98004AD052CC5EC63684B289AE8A2A8B814416
:103FA80063FF3405B307940003CA0700138914009C
:103FB8001379F90F63050A04B3072A0163C1F904E9
:103FC800B307240183CB07005E85613F0DC99307C2
:103FD800FAFF2380FA0063906B03130519002295FA
:103FE800B250225492540259F249624AD24A424B80
:103FF800B24B45618280D29493F4F40F55B70145D2
:10400800C5B701458280411126C2AE8422C49737C4
:10401800002023AFC7969737002023A9B796973774
:10402800002023A3A7962A8441469305F00F2685EE
:104038004AC006C60549EFE0BFE1631E250397376E
:1040480000209387A793884BC145413D414693057E
:10405800F00F2285EFE0DFDF8544631695022244E6
:104068009737002093878791B24092440249C84706
:10407800C14541019DB5414681452685EFE05FDD9B
:10408800E31625FD6DBF414681452285EFE05FDCE3
:10409800E30795FCB24022449244024941018280E0
:1040A800411122C426C22E84AA8413060002814527
:1040B800173500201305858C06C6EFE05FCF9737CC
:1040C8000020A38E978AA38B819AEFB0205485474E
:1040D80019C181474945B240224417370020230FB0
:1040E800F788924441018280814781CD19C985476B
:1040F800631BF50083C7550093E707FCA382F5000F
:1041080085473E85828089476317F50083C7550038
:1041180093F7F703E5B70D478547E314E5FE03C7B3
:1041280055001377F70313670704A382E500D1BF8F
:1041380081478DC105C103C755009306000C85470B
:104148001377070C6308D700930600048D476303B1
:10415800D70089473E858280411122C4005D06C68A
:1041680026C21DC8AA84085009C597000020E78008
:104178002076485009C597000020E78060750854EC
:1041880009C597000020E780A074228597000020C9
:10419800E780007423AC0402B240224492444101F7
:1041A800828009ED9727002083C7677D17250020A7
:1041B8001305457E81CB1385818F828017250020CA
:1041C8001305457D8280172500200345457B8280A5
:1041D800972700209387877AC847828097270020EF
:1041E8009387C779884B8280972700209387077920
:1041F800DC4B884382809727002093872778D84B09
:104208001C4385071CC317250020034555779307D2
:10421800F00F6305F50091656FE07FC5828001119D
:1042280022CC06CE2E8432C6EF8060079147B24575
:10423800631FF500938741919C438DC303A3070037
:10424800630E030022856244F2400561028393876E
:10425800C1909C4381C703A34700DDB7F240624485
:10426800054505618280011122CC2A840355450049
:1042780006CE26CA4AC84EC6EF70506335C52A898D
:10428800834405008349C500C13D4A85EF80B05A83
:1042980003554400EF70307C83C70192B1CB63991A
:1042A800970483C511922685EFF09FB119E1238009
:1042B800019203554400EF70907E9147631FF5000B
:1042C800035744009727002083D7A76B6317F7008D
:1042D800FD57172700202316F76AF2406244D2449C
:1042E8004249B2490561828081499304F00F6DB754
:1042F8009307F00FE38FF4FA8346640003564400F3
:10430800034524004E87A685EFF03FB65DB7797167
:104318005EC6AA8B2E8552CC56CA5AC806D622D457
:1043280026D24AD04ECEAE8A328B368AEF701058DB
:104338006DC1045D2A89F1CC9C50614599C3130570
:1043480040039C5481C751054205418163050A0019
:10435800710542054181DC5081C7590542054181FB
:10436800EFE04FEE2A8455C561468145EFE03FA452
:104378009729002083C909606394090083490900CB
:10438800930700FD2300F400A947A300740123014B
:10439800F400230364018C50231254011305840193
:1043A80091C908C47146930A440397000020E78026
:1043B800E0B056858C5491C948C45146930A4501CA
:1043C80097000020E78080AF5685630C0A0008C874
:1043D8007146D285930AC50197000020E78000AE98
:1043E8005685CC5099C548C8594697000020E780A3
:1043F800E0ACA2854E85EFE04FEF2254B2509254C4
:10440800F249624AD24A424BB24B4A850259456147
:10441800A1B3B250225492540259F249624AD24A84
:10442800424BB24B4561828001114EC6AA892E8546
:104438004AC806CE22CC26CA2E89EF70304731C52D
:104448009724002083C4045399E083440500194548
:10445800EFE04FDF2A8415C981451946EFE03F9503
:10446800930700FD2300F400B947A300340123019A
:10447800F40023122401A2856244F2404249B24961
:104488002685D24405616FE04FE6F2406244D2448B
:104498004249B2490561828039715ECEAA8B2E8568
:1044A80026DA4ED652D456D25AD006DE22DC4AD864
:1044B800AE84328BB68A3A8ABE8942C6EF70103F04
:1044C80031C92A894145EFE0EFD72A8421C5414601
:1044D8008145EFE0DF8D172500200345A54919E147
:1044E80003450900930700FD2300F400BD4723019D
:1044F800F400B247A300740123129400230464015A
:10450800A304540123054401A30534015CC4A28516
:10451800EFE0AFDDF2506254D2544259B259225AF8
:10452800925A025BF24B21618280797126D2AA8469
:1045380039454AD04ECE06D622D42EC6B2893689FF
:10454800EFE04FD021C1B2459307000D2310F500CD
:10455800B1472A842312B5002301F500CE85190539
:10456800194697000020E780609523062401A2855C
:104578002254B2500259F24913F5F40F925445618E
:104588006FE0AFD6B250225492540259F2494561B5
:104598008280172700200347973E9307F00F630D8B
:1045A800F706411126C2AA84394522C406C64AC064
:1045B800EFE04FC92A8439C9930700FD2300F500AD
:1045C800A300950023010500972500209385853CCD
:1045D8000D05194697000020E780408E1729002016
:1045E8001309C93983578900A28517250020034577
:1045F80015392315F400834719002306F4002244D3
:10460800B2409244024941016FE02FCEB2402244A9
:1046180092440249410182808280011156C2AA8ACD
:10462800314526CA4AC84EC652C406CE22CCAE84EC
:10463800328AB6893A89EFE0EFC029C92A842685EB
:10464800EF70D0261DCD03450500930700FD23001C
:10465800F4009D47A30054012301F40023129400A1
:10466800231344012314340123152401A285624431
:10467800F240D2444249B249224A924A05616FE067
:10468800CFC6172500200345952FC1B7F2406244D5
:10469800D2444249B249224A924A0561828039711C
:1046A80062CC2A8C594526DA4AD84ED652D456D2EC
:1046B8005AD05ECE06DE22DCAE8432C636C4BA8B51
:1046C8003E8BC28A468A8359010403494104EFE0BC
:1046D8006FB735C53246930700FDA2462300F500A3
:1046E8009547A301C500A30085012301F5002A848D
:1046F80019461105A9C2B68597F0FF1FE780007C0F
:1047080023066401230A2401231574012317540185
:104718002318440123193401A2856254F2504259E6
:10472800B259225A925A025BF24B624C2685D254F5
:1047380021616FE08FBB8145EFE06FE7D1B7F250A1
:104748006254D2544259B259225A925A025BF24BDD
:10475800624C216182809727002083C747228DCB36
:104768004111AA8519461385818F06C697F0FF1F48
:10477800E780C0749385818F172500200345252085
:10478800EFF09F96B2401385818F41016FA0D068EA
:1047980001458280172700200347771E9307F00FF3
:1047A8006305F708411126C2AA84294522C406C612
:1047B800EFE04FA92A8429C1930700FD2300F500E3
:1047C800A1472301F500A3009500972700209387B0
:1047D800E71A83C727009385818F1105A30FF5FE7C
:1047E800194697F0FF1FE780606DA2851725002006
:1047F8000345F518EFE06FAF172700200347271888
:104808008D47631FF700938701919C4391CB03A3C6
:104818008700630703002244B240924441010283A7
:10482800B240224492444101828017270020034766
:1048380007158D47631AF700938701919C4389C731
:1048480003A38700E31D03FC8280797122D406D676
:1048580026D24AD04ECE52CC094445C92A8903559E
:1048680005002E8A5144EF707004AA8459CD83C77D
:10487800719BFD1793F7F70F054749446377F708CE
:104888000347C500A1476314F70063100A089C5C3E
:104898004544A5EF9165938545711305C0029700BE
:1048A8000020E78040F988DCAA894D4439CD1306F9
:1048B800C0028145EFE0AFCF8357090093864900D6
:1048C80036852391F90071469305490036C697F05D
:1048D800FF1FE780A05E89472380F90003C5C40055
:1048E800B24603560900611583C5419B133515006F
:1048F800EFA080122A8463060A00D2852685EF80FD
:10490800B01E01C42685EFF03F852285B25022549F
:1049180092540259F249624A4561828083C7719B69
:10492800FD1793F7F70F05476378F708894751C6CE
:10493800011122CC26CA4AC84EC652C406CEAA893C
:10494800368AB2842E89EF7060762A84D14729C9C5
:10495800485509C597000020E78080F7F14526856E
:10496800EFE04FC748D4CD4705CD8346C400214763
:104978008147639FE600630D0A000347A5010356BC
:10498800050193062501AA854E85EF80C00DAA87EB
:1049980003474400630F0900136767002302E4001C
:1049A800F2406244D2444249B249224A3E850561F6
:1049B800828013674700DDB7C9473E858280E54797
:1049C80063EBA700972700209387C7F706053E9556
:1049D80003550500828041657D158280011122CC36
:1049E8002A842E8526CA06CEAE84EF70206C0DCDA3
:1049F800B7470F009387F723094563E2870281458C
:104A08000A854146EFE0AFBAA685231081000A85E2
:104A1800418023018100A3010100EF905062F24020
:104A28006244D244056182804945D5BFA38AA19AD0
:104A380082806F903077797152CC2A8A328522D45D
:104A480026D24AD04ECE56CA5AC85EC606D662C4C8
:104A5800AE8BB28A368BBA843E89C2894684EF709F
:104A6800E06415C92A8C63140A0213774B00834744
:104A7800450015CF93E727012302FC008DEC631C4A
:104A88000902639A090205E8ED9B2302FC00832BC7
:104A98008C03639F0B06B250225492540259F24978
:104AA800624AD24A424BB24B224C45618280F59B06
:104AB80093E70701D1B793E747002302FC0001CC35
:104AC8001C484146A2852324FC0213058C0197F05B
:104AD800FF1FE780A03E63910B02D5D80325CC02C7
:104AE80009C597000020E780A0DEF1452685EFE0A4
:104AF8006FAE2326AC0261BFE30B09F80325CC0295
:104B080009C597000020E780A0DCF1454A85C5B7B4
:104B18009DC483A70B0299EB916593853571714507
:104B280097000020E78020D123A0AB0203A50B0249
:104B380019C57146A68597F0FF1FE780203863885E
:104B4800090283A74B0299EB916593852571594515
:104B580097000020E78020CE23A2AB0203A54B02DA
:104B680019C55946CE8597F0FF1FE78020351DC42B
:104B780083A78B0299EB9165938515715145970031
:104B88000020E78040CB23A4AB0203A58B0219C504
:104B98005146A28597F0FF1FE78040322254B25059
:104BA8009254F249B24B224CCA865A860259424B59
:104BB800D6855285D24A624A45616FF04FF5011198
:104BC80026CA52C406CE22CC4AC84EC62A8AAE8409
:104BD800EF70C04D25C5AA893945EFD0BFE62A84B4
:104BE80031CD172900200349E9D86314090003C906
:104BF80009009307000D2310F400AD472301F400CA
:104C08009385690013053400194697F0FF1FE78064
:104C1800E02A93F71400858085882306F400A3060C
:104C2800940023154401A2856244F240D244B2495B
:104C3800224A4A85424905616FD03FEBF2406244FF
:104C4800D2444249B249224A056182809387019041
:104C5800884301CD411106C697000020E78040C770
:104C6800B24023A00190410182808280011106CECA
:104C780022CC26CA4AC82EC6EF70404339CDB24569
:104C880017290020034909CFAA840CD56314090009
:104C9800034905004145EFD0FFDA2A841DCD93076B
:104CA800000D2310F500A5472301F50083C7540024
:104CB800938564001105A30FF5FE194697F0FF1FB1
:104CC800E780C01F9C54A285F2405CC46244D24471
:104CD8004A85424905616FD05FE1F2406244D2449F
:104CE800424905618280797122D406D62A842EC66B
:104CF800EF70C03B0DCD8346C5001147AA874945D3
:104D08006393E6029C5FB24599C383C567010808AF
:104D1800EF80806697960000938606EF1008894515
:104D28002285EF701059B250225445618280514556
:104D3800DDBF83C7719BFD1793F7F70F0547637AAC
:104D4800F704894721CA411122C426C24AC006C6AF
:104D5800B2842E89EF7080352A84D14705C563084F
:104D680009008347450093E727002302F5004146E1
:104D7800A6851305840197F0FF1FE78020149C483F
:104D88001CD48147B2402244924402493E854101E5
:104D98008280C9473E858280797122D406D62A84CA
:104DA8002EC6EF70A03001CDB2452285230EB1008A
:104DB8006C08EF80E04FB250225445618280514523
:104DC800DDBF6F708043C1671387E7FF6394E50217
:104DD8009387C1909C4391EB494582804945B240F5
:104DE8002244924402494101828003A30700E3055B
:104DF80003FE0283411122C426C24AC006C6FD171B
:104E08002A892E84B2846395F5029387C1909C43C6
:104E180091CB9C4381CB829711E523802193A3807A
:104E2800919275BFA6854A85EFE09FF94DF9F5B7D0
:104E38002E85EF70A0275DD1834705000D45E390CF
:104E480027FB22852244B2400249A68592444101AB
:104E58006FA0007A65476362A7044111416722C4C5
:104E680006C626C27D172A8409456383E502C5471D
:104E7800AE846315F4002E85EFA0900193171400FB
:104E880017240020130404ACA2972390970001452F
:104E9800B240224492444101828009458280011136
:104EA80006CE2AC6EFE0FFF3EF10C01FEF00E07553
:104EB800EF60E167324597270020938727AC1307F7
:104EC80000F02391E700238207007D579387419BD9
:104ED800A380E7002380A700F240954505616F5045
:104EE800B0381D7193970501CAC886CEA2CCA6CA50
:104EF800CEC6D2C4D6C2DAC05EDE62DC66DA6AD852
:104F0800C1872E8963D0074C03C5419BEFD07FB77B
:104F18008964416A856A797B2A84938BD4007D1AD7
:104F2800A50A691B15E021653345A900F6406644CA
:104F3800D6444649B649264A964A064BF25B625C15
:104F4800D25C425D25618280834704001307200AF2
:104F5800639DE70003552400172C0020034C3CA256
:104F68002286D285EFF0AFAB3DAA1307100903CC18
:104F7800519B6397E716834714001547639EE70024
:104F88002285EFF04FAE2285EFD01FA903C5419BC4
:104F9800EFD03FAF2A8479B739476399E7160355AD
:104FA8004400631B55050C4483C90500639D090033
:104FB800850591C91946172500201305A59D97F069
:104FC800FF1FE780A0EF172700200347279B85478F
:104FD8006318F710638A0900972700202380079A2F
:104FE8004E85EFF00FDB45B78947172700202307C9
:104FF800F798EFA0206241BF93872400631AF50653
:1050080083298400638E090C83C709008DE383C755
:10501800290003C71900A207D98F172700202313D7
:10502800F79683C7390017270020A309F794172795
:1050380000200347A79489476314F70A83C7090028
:1050480081CB97270020238B079203C5090051BF06
:105058008D479725002083C5759217250020035595
:10506800659217270020230BF790EF50F022F1BF2D
:10507800938754006318F5001C4403C50700EFF03C
:105088006FF111B7B3076501C207C1831147636F99
:10509800F700938701919C43E38707EE9C43E384E1
:1050A80007EE22858297E31005EE1DA89387B400CA
:1050B800631FF500938781909C43E38607EC9C432C
:1050C800E38307ECA2851385B4008297E9BF938731
:1050D800C4006310F5021C4483C70700E38507EA90
:1050E8009307F00FE301FCEAA2856285EFD0FF9FEA
:1050F80071BD9387E400E315F5FE9387C1909C4347
:10510800E38307E8DC43A285E9F3B5BD3D47639730
:10511800E70403554400E30275FF93879401E30E07
:10512800F5FC93873401E31DF5FA9727002083D710
:105138004785639E47019387C1909C43E38507E4B5
:10514800DC43E38207E4A28513853401BDBF93875E
:1051580041919C43E38907E29C43E5B71307E003C9
:10516800E390E7F88347240005476396E70E8347F3
:105178006400138D0190F1E383270D00D5CB03CC98
:105188000700A14903457400930C8400E685EFE00D
:105198003FFA83474401A303A4008358040103583A
:1051A800E400035744002A86034534003EC283576F
:1051B8002401E686E2853EC0CE87EFF04FCE8347D6
:1051C800340095E7DD47835804010358E40083461B
:1051D8007400835544003EC2835724016687054600
:1051E8003EC06285CE87EF700021A301A40083270B
:1051F8000D0081C71145EFF07FA503C50192E304B7
:1052080005D883C51192EFE0BFBBE30E05D68346F0
:10521800340093071003638AF600035644004E8750
:1052280083C501923685EFE05FC423800192A1BB5C
:10523800171C0020034CBC74A9B7938701919C43A9
:10524800171C0020034CBC7391498DDFDC439DDBA8
:105258000145829705BF29476390E70C834764009F
:10526800938C0190C1E783A70C00A5CF03CC07005E
:10527800A149034574009306840093772500C9C7A4
:1052880013761500130D4401834704028358C401A3
:105298000358A40103574400034534003EC2835712
:1052A800E401E2853EC0CE87EFF06FBF834734004C
:1052B80095E7DD478358C4010358A4018346740069
:1052C800835544003EC28357E4016A8705463EC0C1
:1052D8006285CE87EF702012A301A40083A70C007B
:1052E80009BF171C0020034C9C6959B7938701918B
:1052F8009C43171C0020034C9C689149BDDBDC4390
:10530800ADDB01458297B5B7B68536CEEFE05FE2F3
:10531800F2462A86368D8DBF0947639DE70093873D
:1053280081909C43E38107C6DC43E38E07C4228552
:10533800829791B92D476399E700938781909C43A1
:10534800E38307C49C47D5B70D476397E7002286D8
:105358008D450355440039B11947E393E7D89305C0
:10536800610213051031EF60C1262C10130520319E
:10537800EF602126035664008357810203554400D9
:1053880063E8C700835684000357610263F7E600A9
:1053980093050002EFA0C02EFDB66374E600231348
:1053A800E40063F4D7002314F4000357C4008356C1
:1053B800A400035684008355640001488147EFA088
:1053C800E02BD1B693F7150081CF938781909C434A
:1053D80089C7DC4399C30145829713451900B9B6BB
:1053E80093F7250081CF938701919C4389C7DC43BC
:1053F80099C305458297134529000DBE93F74500CB
:105408000145E38507B2938741909C4391CF854737
:10541800171700202306F756938701919C4389C7E5
:10542800DC4399C305458297971700209387075552
:10543800C8472C10EF90C0292810EFF0CFB197176C
:10544800002083D7475291CB130600643386C702E6
:10545800914503C5419BEFD0FFB313454900F9B40B
:10546800411122C42A84554506C6EFF04FD5B335FD
:10547800A00022852244B24041016FA0601B7971CF
:1054880022D406D68D472E84631FF50003D7A500C6
:1054980083D6850003D665000345340083D54500CF
:1054A800EFF0AF9709A889671387D7006310E50461
:1054B80003C5250019E58547B25022543E8545614C
:1054C8008280938701909443FDD603C6360083C536
:1054D8000600814802C202C001488147014791067F
:1054E800EFF0EF9B0545EFF06FF6F1B71387E70094
:1054F800E303E5FC13873701631AE50003C52500BC
:105508005DD9014781460146814559BFE507E30456
:10551800F5FA41677D178147E310E5FA03C755009F
:10552800C947E31AF7F883D6E50003D6C500035543
:10553800840083D5A500EFA0201641C95D45EFF092
:105548000FC83335A000231CA10083454400035530
:1055580024003008EF60102883578101A9FF6C08E8
:1055680013051031EF60E1069305E10113052031C1
:10557800EF6021068357C101035784006374F70065
:105588002314F4008357E1010357A40063F4E700F0
:105598002315F400835784000357A4006374F700AD
:1055A8002315F40003552400EFC0C0520357E4004C
:1055B8008356C4000356A400835584000355240071
:1055C80001488147EFA08009FDB58547231CF100FC
:1055D800ADBFC1671387E7FF639DE500938701901F
:1055E8009C4395C383C707000D47639CA7006FA022
:1055F8002006FD1749476396F500938701909C4361
:10560800FDF73A8582804947EDBF2386019223AA98
:10561800019223A80192971700209387273817072C
:1056280000001307C74798C3170700001307E74A86
:10563800D8C3170700001307475B98C793874192A1
:1056480017070000130727F998C317070000130767
:1056580047E3D8C38280797122D406D626D24AD0AD
:105668004ECE52CC56CA5AC80347050085472A84ED
:10567800630AF70403468500930695009305F10035
:105688000545EFE07F8F814719C1834705008346B1
:10569800040011476380E6041387019318438D467D
:1056A800034717006308D70295C70DC719ED0145D1
:1056B800B250225492540259F249624AD24A424B99
:1056C8004561828081470145D9B785466318D7026D
:1056D8008D8BF1DF03451400130A2400D285EFE017
:1056E8003FA5A300A4001389419383270900AA8A30
:1056F80081499304F00F99EB05455DBF8946E3188E
:10570800D7FA858BF9B7850993F9F90F83C7C19241
:1057180063FBF90203250900139B49005A95834747
:105728000500E38297FE83471500E39E57FD19465F
:10573800D2850905EFD0CFED79D583240900034739
:105748000400DA9485EC834604009147E381F6F679
:1057580083270900A9DF03C6C19201479305F00F0B
:10576800E307E6F4BE84C10703C507FF630CB50A67
:1057780005071377F70FEDB788C4E5A09147631ABB
:10578800F706C84405C5834784000346050063043B
:10579800F606034704009147631BF706C84419C57A
:1057A80097F0FF1FE780C01223A60400034584007A
:1057B80091659385E571050597F0FF1FE780A007C0
:1057C80005C5034704009147631CF704C8C4834711
:1057D8008400930594000505A30FF5FE0346840095
:1057E80097E0FF1FE780806D034584003335A000F4
:1057F800C1B5884441BF930594000505EFD04FE13A
:105808008547E318F5F85545EFF06F9BBDA8884428
:1058180051DD97F0FF1FE780A00B23A4040079B7A0
:1058280088C475B72380D40083471400D2851385B4
:105838002400A380F400194697E0FF1FE780006862
:105848000345840091659385F571050597F0FF1F61
:10585800E78060FE05C5034704009147E31EF7F0A3
:10586800C8C483478400930594000505A30FF5FE7B
:105878000346840097E0FF1FE78040648347840065
:10588800E39C07E6034504007D15133515000DB5A7
:10589800011122CC138441931C4006CE26CA4AC863
:1058A8004EC652C499CF2E8AAA8401490840631271
:1058B8009902630C0A0497F0FF1FE780600123AA8E
:1058C8000192F2406244D2444249B249224A0561F7
:1058D800828093194900B3073501884709C997F0B1
:1058E800FF1FE780E0FE1C40CE9723A407001C4062
:1058F800CE97C84709C997F0FF1FE78060FD1C4095
:10590800BE9923A60900050955B745DD139644003D
:105918008145EFD0CFC9144081477D5613F7F70F63
:10592800E37197FA1397470036972300C700850756
:10593800F5B7011152C4138A019383270A0006CED2
:1059480022CC26CA4AC84EC656C25AC0D1CF2A89C6
:10595800014419ED93874193944399CA03C6C192B0
:105968002A8481479305F00F13F7F70F6368C70878
:10597800131534002105EFD0EF8CAA8401E92145E5
:10598800EFD04F8CAA8421C501444D49930700FDEF
:105998002380F4008547A38024012381F400A38198
:1059A800840045C81389840023A224018149938A6D
:1059B8004193130BF00F83C7C19263F3F90039E8E1
:1059C80083270A00A68503C50700EFD00F928145FB
:1059D80003C5C192EFF0DFEB03250A0097F0FF1F24
:1059E800E78000EF23A80192F2406244D244424982
:1059F800B249224A924A024B0561828013974700B6
:105A08003697034707006305B70005041374F40FBE
:105A1800850799BF83A70A0093954900BE9583C758
:105A28000500638467032300F90083C71500130585
:105A380029007D14A300F900194689051374F40F91
:105A480097E0FF1FE78080472109850993F9F90F3F
:105A58009DB723A20400ADB7411122C406C62A840B
:105A680005E10945EFE0BFF52A8611C5854503C55F
:105A7800419BEFD02FD20545EFF09F9E2A8409C99C
:105A8800854503C5419BEFD0AFE72285EFF07FEA5C
:105A9800B240224405454101828089671387B700D7
:105AA800631AE500938701939C439DC39C4503C5F6
:105AB80007005DB71387C7008147631CE5009C4555
:105AC80003C50700854711C5938701939C43F5F3E8
