:040000006F10000974
:1000040000000000000000006F0080086F00202541
:1000140000000000000000000000000000000000DC
:1000240000000000000000000000000000000000CC
:100034006F004006000000006F00E00500000000B3
:100044006F0080056F0060056F0040056F0020059C
:100054006F0000056F00E0046F00C00400000000A2
:100064006F0060046F0040046F0020046F00000400
:100074006F00A0266F00C003000000006F00600343
:100084006F0040036F0020036F0000036F00E00265
:1000940001A001A001A001A001A001A001A001A054
:1000A40001A001A001A001A001A001A001A001A044
:1000B40001A001A001A001A001A001A0B717004068
:1000C400130770052380E704130780FA2380E704ED
:1000D4000F1000002396A70223800704371700405F
:1000E40083472705898BEDDF8357070537170040C2
:1000F40083472705898BEDFF371700408347270582
:10010400898BEDDF035507058280B71700409306FE
:1001140070052380D704130780FA2380E7040F10A7
:10012400000003C6B7041376F60DA385C704238025
:100134000704137605023DCA03C6A700118A1DE20F
:100144002380D7042380E7040F10000003C7A7000F
:10015400136747002385E7009307004B0100010064
:10016400FD17EDFFB7170040930670052380D704F1
:10017400130780FA2380E7040F1000007D8923947D
:10018400A70001000100010001002380070423806F
:10019400D7042380E7040F1000003727004093069C
:1001A4001005A303D78023800704828013760504F7
:1001B4006DDE03C6A700418A1DE22380D704238095
:1001C400E7040F10000003C7A70013670701238586
:1001D400E7009307007D01000100FD17EDFFB7174D
:1001E4000040930670052380D704130780FA238008
:1001F400E7040F1000007D89136505042394A7000C
:100204000100010001000100238007042380D704BA
:100214002380E7040F1000003727004093063005C1
:1002240049B74111814601468145114506C651220F
:10023400B7170040130770052380E704130780FAFB
:100244002380E7040F10000003C767041367170037
:100254002383E70423800704B2404101828081465E
:10026400014681451145B122B71700409306700538
:100274002380D704130780FA2380E7040F100000BB
:100284007D562396C7022380D7042380E7040F10EA
:10029400000003C76704136717002383E704238060
:1002A400070401A0BD473305F50201007D1575FD66
:1002B4008280411122C426C206C6AA84014463175F
:1002C4009400B24022449244410182800504130503
:1002D400803E4204C13F4180DDB7B7170040130799
:1002E40000032388E702854723ACF18073002030A4
:1002F400411106C69929FDBF2303048095472303B2
:10030400F4802302A480828083076480E3CE07FE06
:1003140023030480828083076480E3CE07FE0345C1
:100324004480828083076480E3CE07FE2302A48096
:100334008280411126C44AC24EC006C61377F50B0B
:10034400AD47AA892E8995446306F70019456D3790
:10035400653F8D444E854D37FD59FD146398340136
:10036400B240A244124982494101828013550901D5
:100374001375F50F453F2209CDB7011126CC06CEE2
:10038400B704080051371545853F713769372AC6C8
:10039400A53F32459377150089EB13651500137556
:1003A400F50FF240E24405618280FD14E9FC014549
:1003B400CDBF397126DC4ADA4ED852D656D45AD239
:1003C4005ED062CEB7E700E006DE66CC6ACA41477B
:1003D40083AB070422C6B8C37D5703AB070083AAC7
:1003E400470023A0E71823A2E718B7170040130714
:1003F40070052380E704130780FA2380E70483C78A
:100404004704130C75FFB684E207137CFC0F854682
:100414002A8A2E89B28937240040E187015763FA7A
:1004240086016308D5008946130700026313D500CB
:100434000157D98F93F7F70F371D00402302FD04AE
:1004440011472303E4801305F00F7D35894C6D3D7E
:1004540063EB8C11B70707003E993787070079557E
:10046400637EE902B3079900636AF702A947631C34
:10047400FA0689E48144493D26850DA0CA850945CB
:100484004D3D850903C5F9FFFD140509613D81C48E
:100494009377F90FFDF7D53569FD7D55B717004002
:1004A400130770052380E704130780FA2380E70409
:1004B40003C74704418B2382E704B7E700E023A086
:1004C4007705F25023A0671123A25711E254324456
:1004D4005259C259325AA25A125B825B724CE24C94
:1004E400524D21618280A5476314FA0685699307FA
:1004F400F00FB3869700B374F900B69493C7F7FF6F
:10050400FD8C33F92701416A056C9387F9FFB3F732
:10051400270199E363FC340193D94900C147E3E619
:1005240037FF89BF8567C169FD17E1B71305800DE2
:1005340063884901130500026384890113051008C7
:10054400CA85C53B1D3D31D94E99B3843441D9B7D1
:10055400CA852D45F93BCE94E38E99F08509653B18
:10056400A38FA9FED5BF9307FAFF93F7F70F63ECA8
:10057400FC0803475D04B70708001377070219E373
:10058400B78707007955E37BF9F033079900E3E770
:10059400E7F089476310FA048980554AE38C04EC38
:1005A400CA8509457933910903A7C9FF91472320D7
:1005B400E48003076480E34E07FE23034481FD17B0
:1005C400EDFBFD14110981C49377F90FE9FF75332D
:1005D40071F5E1B58547E307FAF4CA852D45913BEA
:1005E4001389F4FFE38804E83D339377390091EBF2
:1005F4008326048003A7090093874900E39DE6E668
:10060400BE89CA84F1BFB5476316FA001305900B7F
:10061400E5318DB5B1471305B00AE30BFAFE9947EE
:10062400631EFA02CA852D45293381440D4C214AA3
:10063400DD31639684018327048023A0F9008504B7
:10064400E39844FF832704801317290163550700A7
:100654002392F90005B523A2F90029BD9D4763192A
:10066400FA0281451305B004E931BD4423A0090011
:1006740023A209007D59453193F77400CE9703C72F
:100684000700FD14398D2380A700E39624FFDDB312
:10069400A1476312FA04D5318144630D09008D47E3
:1006A4009304C0036308F9009304000563049901EB
:1006B400930440041375C507E30E95DA19452D39E3
:1006C400A131054515392685B1390945A139753159
:1006D400E31205DAD9B391476319FA0013056006EA
:1006E40021391D311305900925B7E3050AD8F154C2
:1006F40059B309CDB7170040130770052380E704E9
:10070400130780FA2380E7042396A702828019C185
:10071400814799E982803387F500834607003307D0
:10072400F50085072300D700E397C7FEE5B719C195
:10073400FD5781E98280910503A7C5FF1105232E8A
:10074400E5FE7D16E319F6FEF5B7797122D4172478
:100754000000130424291C4006D626D24AD04ECECB
:1007640091C782979727000023AE07265C4089CB68
:1007740003D58182BD3F5C40829703D5A182953F1A
:100784001C40639907189727000083C7B727858BF8
:1007940095C797270000A38707261727000003475C
:1007A4009726914763FCE7009D219727000083C7A4
:1007B4009725F9178A07A2979C43829797270000E9
:1007C40083C70729918B89C7970000E0E78020AA97
:1007D4001C4491C382979387418298431726000053
:1007E4000346161E3E89972400009384641D9727B0
:1007F400000083C7E71C93961700BA9683D60600B9
:10080400638006109727000083C7871B63F2C7081D
:1008140086073E97835507002310070003D581827E
:100824002EC623980182F1359387C1839C431725F3
:1008340000000345E51813172500BA979C43B245F9
:100844008297AA8903D5A1826D359727000083C7B3
:100854002717139717008327090003D5018313452E
:10086400F5FFBA9703D7070033753501598D2390E7
:10087400A70083C70400850793F7F70F1727000025
:100884002300F714172700000347971363E6E700D4
:1008940097270000238607121C40ADEF93874183FE
:1008A40098433E8425CB9727000083C7171691CB26
:1008B4009727000083C7371589E797F0FFDFE780A4
:1008C40060461C4082972A8431C59C48AA97172702
:1008D4000000232FF70E938781839C4385CF03D594
:1008E4008182013D228597E0FFDFE780A031225419
:1008F400B25092540259F24903D5A1824561D5BB45
:10090400850793F7F70F97260000238BF60AE3E099
:10091400C7EECDBDB250225492540259F2494561FA
:1009240082809167B7C600409387373023A6F620AC
:100934000F1000009727000093878708884F93873C
:1009440081859C43316713073730F053B707100094
:10095400FD17918F99833A0523A6E6205D8D828049
:100964004111B7170040985F3AC6945F3247E39C41
:10097400E6FE324541018280411106C6D5379726ED
:10098400000083C66601858AB1C6930730333307F6
:10099400F502B337F5023983CA07D98F1727000048
:1009A40013070702584B01456303F7023385E740F9
:1009B400636BF70037653D0889C637856F081305F3
:1009C4000590198D3E95172700002325F700B240A6
:1009D40041018280E5473307F502B337F5022583E9
:1009E400DE0765BF411122C41384818418404AC0C4
:1009F40006C61C5F26C2138941849983858BC1C3B3
:100A04001C5F972400009384A4FF93F7F7F91CDF7D
:100A14009727000083C7C7FE93F707048DC3938706
:100A240001849C4382979727000023A3A7FE83C7D2
:100A3400040093F7F70B172700002303F7FC8547FF
:100A440017270000A300F7FC83C7440093F70704AB
:100A540081EF938781859C43D844B8D3930700FCE6
:100A6400172700002300F7FA8387640063D907007F
:100A7400832709009C43172700002306F7F8184032
:100A84001C5F8583858BC9CBF5571CDF01000100F2
:100A9400010001000100010001000100010001004A
:100AA400010001000100010001000100010001003A
:100AB400010001000100010001000100010001002A
:100AC400010001000100010001000100010001001A
:100AD400010001000100010001000100010001000A
:100AE40001000100010001000100010001000100FA
:100AF40001000100010001000100010001000100EA
:100B040001000100010001000100010093878185BB
:100B14009C4313075004B8CB18401C5F9183858B0A
:100B240089CFBD571CDF938781859C4323A8070485
:100B34008547172700002307F7EC83270900D843CC
:100B44000583058B19C7D843759BD8C3D843799BB4
:100B5400D8C3B2402244924402494101828039718F
:100B640006DE16DC1ADA1ED82AD62ED432D236D0B5
:100B74003ACE3ECC42CA46C872C676C47AC27EC059
:100B84009535F250E2525253C2533255A255125681
:100B940082567247E2475248C248324EA24E124F22
:100BA400824F2161730020309387818594431727F6
:100BB40000001307E7E4BC5289CF83472700858BE5
:100BC40089EB83473700858BFDD797270000238B5C
:100BD40007E2828037C700401306C0039306200350
:100BE400972500009385C5E183278720C18393F768
:100BF400F7036369F60083278720C18393F7F7031C
:100C040063E6F60083C74500858BF9DF828093870E
:100C14008185944317270000130787DEBC5289CBD4
:100C240083470700858B91CB97270000238C07DC33
:100C340097270000A38807DC828083471700858BF1
:100C4400F1DFDDB793878185904337C70040C14505
:100C5400E54683278720C18393F7F70363FBF500F9
:100C640083278720C18393F7F70363E4F6003C529C
:100C7400EDF38280138781841843AA87185F158354
:100C8400058B25EF0345150015051377C51F19C6F8
:100C9400B386E70083C626002300D60095C59726B1
:100CA400000083C646D693F606040945A1CAB38656
:100CB400E70083C63600054693F5F6066390C5043F
:100CC400E206E18663CC06023385E700834715001C
:100CD40003470500A20793F70770D98F13970701FD
:100CE40041839376074099C6136707802398E1846C
:100CF400014582802398F184E5BF0545828093866F
:100D040081858C42368597260000938666CF984568
:100D140093170701C183137817203E8663040804E0
:100D24001377072079C303C7260013671700172812
:100D340000002308E8CC13070019B8D1130700F802
:100D4400972500002380E5CC138781840C43370862
:100D54000010D855719B13672700D8D59841336785
:100D6400070198C11377261005C31376061059CED0
:100D740003C7060013671700172600002302E6C8FE
:100D840017270000231207C883C6460093C7F7FF3E
:100D9400C207E206E186C183184163D10602939635
:100DA400170163DE060630538D4663E9C6008546A7
:100DB400172600002308D6C43453FDFE97260000EE
:100DC400938646BC8386460163DD0600939607013D
:100DD400C18663DC06047053894663E4C600745319
:100DE400FDFE1447F58F1CC7828003C716001367E6
:100DF400170097250000A385E5C0172700002303EB
:100E040007C017270000231107C0A9BF03C7360076
:100E14001367170017260000A305E6BE95B785469D
:100E2400172600002300D6BE51BF5447139606016F
:100E340063510602B7061000FD1674D3972600000E
:100E4400938606B8944E8506172600002326D6B846
:100E540049BFA166D58F71B7397106DE16DC1ADA7F
:100E64001ED82AD62ED432D236D03ACE3ECC42CA5E
:100E740046C872C676C47AC27EC05135F250E25278
:100E84005253C2533255A255125682567247E24704
:100E94005248C248324EA24E124F824F2161730013
:100EA400203017270000130767B78346B701972739
:100EB400000083C7F7B9B69793F7F70FFD4663EAC7
:100EC400F6044C4B97260000A38AF6B4972700003B
:100ED40083C7D7B405473317F70097260000A389C3
:100EE400F6B66D8F1DEF9726000083C6B6B6B3F62F
:100EF400D70213050002814733D6F500058A13F89B
:100F0400F70F09CE6399E60097270000A38807B17D
:100F1400828081177DB705071377F70F8507E39D57
:100F2400A7FC8280938741869843B7570200938732
:100F3400279F8326070913965600635806008326C5
:100F440007091396660063440600FD17FDF38280CB
:100F540051C9AA870145C9C98D07C207C183F19B3D
:100F6400C207C18313074003636BF70213878187AA
:100F740008431387018714436396A60217270000CA
:100F8400130747A0185B014525C34111C20706C6D4
:100F94000545DD8D0297B2400145410182801387EA
:100FA4004187F9B70357650005EF035745006369A7
:100FB400F702B306F74021466370D60210419386C8
:100FC40087001D8FAA96611790C22392E60023938F
:100FD400060014C12312F5002313B50021058280F5
:100FE400084159BF01458280828001CD9387818762
:100FF40003A80700938701878C430147C28763E3F3
:10100400B70082809443636FF50663EDA6061386EA
:101014008700E368C5FE03D56700216605066317EC
:10102400C50003C6C1870506238EC1862393070026
:1010340063840703138641871042630FF600035647
:10104400670019EA83D7470014C383564700B6974D
:10105400A1072312F700BA879843E304B7FA9386EB
:1010640041879442E30FD7F883566700D9FA83D6B1
:101074004700035647001843A106B2962392D700AF
:0C10840098C382803E87B6879DBF0000A5
:10109000974100209381810617710020130181F68A
:1010A00013054000972500209385C575173600204D
:1010B0001306067E63FAC5008322050023A05500AF
:1010C00011059105E3EAC5FE177500001305851F9C
:1010D000973500209385C57B1386018163FAC5008F
:1010E0008322050023A0550011059105E3EAC5FE02
:1010F0001385018197550020938505216377B500FD
:10110000232005001105E36DB5FE9302800873A04E
:101110000230972200209382E26E93E212007390D5
:10112000523037170040930770052300F7049307E8
:1011300080FA2300F7040F1000003C47B70600FABE
:10114000E116F58FB70600069506D58F3CC79712B6
:1011500000009382A2ED73901234730020303D435F
:101160002A876373C3029377F700BDEFADE59376EB
:1011700006FF3D8ABA960CC34CC30CC74CC7410747
:10118000E36BD7FE11E28280B306C3408A06970262
:10119000000096966780A6002307B700A306B70055
:1011A0002306B700A305B7002305B700A304B700C3
:1011B0002304B700A303B7002303B700A302B700BB
:1011C0002302B700A301B7002301B700A300B700B3
:1011D0002300B700828093F5F50F93968500D58D97
:1011E00093960501D58D61B793962700970200006D
:1011F00096968682E78086FA9680C1171D8F3E9666
:10120000E374C3F8A5B7B717004003C77705137792
:10121000E70FA38BE704130700F8A38DE7043D470E
:10122000238CE70413075003A38CE7048280B717CD
:10123000004003D587005D715ED64205418186C6B8
:10124000A2C4A6C2CAC04EDE52DC56DA5AD862D454
:1012500066D26AD06ECE9377050C13070008814BD7
:10126000638EE718130700046392E716B7240D8F07
:101270007D8993840480B3D4A4029167938707E89F
:10128000BE94A167938707D0B3D4F402EF50C03562
:1012900097770000938787C99043D443EF409069C4
:1012A000EF5000772A8B939C040103D9018193DCD2
:1012B0000C0163150900056913090980B71700407F
:1012C000130770052380E704130780FA2380E704DF
:1012D0000F1000000547371A0040939D0401096C68
:1012E00085662389E704D14A814E8145130D0A049E
:1012F00013087005130680FA894893DD0D01130C5D
:101300000C712943FD1623000D012300CD000F10A1
:10131000000023162A0323000D0083472A05898B2A
:10132000EDDF83570A0583472A05898BEDFF834745
:101330002A05898BEDDF83570A0523982181C2078F
:10134000C183338597419319050193D90941638678
:1013500009163387B9026350070E850EC20E93DE5D
:101360000E0163EAD80D63DB050A3305B04093151F
:101370000501C185C204C18063D9350BB717004090
:10138000130770052380E704130780FA2380E7041E
:101390000F1000000965130505713385A50223961A
:1013A0007703238007043345950242054181B64007
:1013B000264496440649F259625AD25A425BB25BBD
:1013C000225C925C025DF24D61618280B1E3B77490
:1013D00089097D8993840480B3C4A40291679387AB
:1013E00007E8BE94A167938707D0B3C4F402EF5017
:1013F000A01F977700009387E7B379BD9777000028
:10140000938747B2856403AB07009384843861BD3A
:10141000130B0000954441BD3A89F5B5B387FC40F4
:101420009399070193D90941B1B70965130505716E
:101430003385A9028DBF3385B74163E4FC00338552
:10144000FD40330585033344B5036345830013151D
:101450000401A9BF4E8536C642C432C2EF50E04EE9
:10146000DA85EF50601FEF502048931E050193DE90
:101470000E41B307D941C207C183056E3E871246AC
:10148000224889482943B24663E3C70136874207A9
:101490004183631A270113071900634430011307BE
:1014A000F9FF42074183FD1A93FAFA0FCA8BCE85E2
:1014B000E3940AF62398E18059BF0145CDBDB717E3
:1014C000004003D587005D7186C642054181A2C4F4
:1014D000A6C2CAC04EDE52DC56DA5AD85ED662D4F4
:1014E00066D26AD06ECE02C69377050C1307000849
:1014F000638FE714130700046393E712B7240D8F7B
:101500007D8993840480B3D4A4029167938707E80C
:10151000BE94A167938707D0B3D4F402EF50C00CF8
:1015200097770000938787A09043D443EF40904083
:10153000EF50004E2A89939A040103DB218193DA4C
:101540000A0163150B00056B130B0B80B7170040E6
:10155000130770052380E704130780FA2380E7044C
:101560000F1000000547939B04018969056A2389D0
:10157000E704D14D014D814C93DB0B019389097137
:101580007D1A5A8597200020E7808033330C55411F
:10159000420C135C0C412399618163030C16B30761
:1015A0009C0363D3070E050D420D135D0D018947A2
:1015B00063ECA70D63DD0C0A33059041931C050114
:1015C00093DC0C41C204C18063DA8C0BB717004076
:1015D000130770052380E704130780FA2380E704CC
:1015E0000F1000000965130505713385AC02324701
:1015F0002396E70223800704334595024205418183
:10160000B640264496440649F259625AD25A425B81
:10161000B25B225C925C025DF24D61618280B1E35B
:10162000B77489097D8993840480B3C4A402916747
:10163000938707E8BE94A167938707D0B3C4F402E9
:10164000EF40907A977700009387C78EF1BD977728
:1016500000009387278D856403A90700938484384D
:10166000D9BD130900009544F9B53E8B19BF3385E8
:10167000AA40131C0501135C0C41A9B709651305A9
:1016800005713305AC028DBF63FEAA0033057541B9
:1016900033053503A9473344750363C88700131521
:1016A0000401B1BF3385AB40E5B76285EF50E02957
:1016B000CA85EF40707AEF502023131D0501135D9A
:1016C0000D413307AB41420741838565BA876363A8
:1016D000B700D287C207C183639A670193071B00D3
:1016E000634480019307FBFFC207C183FD1D93FD87
:1016F000FD0F5AC6E28CE39A0DF62399F18045B7A7
:101700000145FDBD41112A83014E930E407E130F0A
:101710000019930F400663ED6E0A93080019130336
:101720004006B3781503854E0D4FA14F3373650204
:101730000D891335150063E7BE0C1308F6FF7946D3
:1017400072984208135808013307C70213D61700CE
:10175000BE0732976146B3F6C60213068070B386A1
:10176000C6023697A166F58F42075D8FB717004016
:1017700083C6F70293F60608A307D1000346F100DB
:1017800083C6F70293F60608E394C6FE8346F1008B
:1017900093F6F60FF1DE930670052380D7049306C7
:1017A00080FA2380D7040F10000023AA070383C602
:1017B000170393E60608A388D702D8DB03C71703ED
:1017C00013670704A388E70223800704410182808E
:1017D0007D133368E3039308E016630E0800336853
:1017E000F3039308D016630808009378330093B886
:1017F00018009388D81633081E01131E0801135EC3
:101800000E0111BF6393E503054863860800014894
:10181000630303002A8871087298FD15131E0801DE
:10182000C205135E0E01C18139B713F8150063F4C8
:10183000BF007908D5B713381800E5BF914763EEAC
:10184000B702176700001307676F8A05BA959C41B6
:10185000BA978287B717004003A7470B1345F5FFD8
:10186000698F23AAE70A03A7070B698F23A8E70A52
:1018700003A7070A798D23A0A70A8280B717004023
:1018800083A6470B1347F5FFF98E23AAD70A83A631
:10189000070B558D23A8A70A83A6070A758F23A0D7
:1018A000E70A8280B717004003A7470B498F23AA96
:1018B000E70A03A7070B1345F5FF45BFB71700401D
:1018C00083A6470B1347F5FF758F23AAE70A03A7E3
:1018D000070A598D4DB7B717004003A7470B498F2B
:1018E000EDB7B717004003D58700420541819377D4
:1018F000050491EB9377F5013755E8011305058051
:101900003345F50282809377050C13070004639733
:10191000E7009377F50137459C1CCDB7216513058A
:1019200005D08280B7F700E0C8439C47828081479A
:1019300037370040A14663C4C70032858280034523
:10194000B740E38EA6FE3385F50003450500850705
:101950002304A740CDB797370020938727FA9C43ED
:10196000175700201307479A3E95636EE5001767E7
:101970000020130727496368A70017370020232F8B
:10198000A7F63E858280FD57EDBF411122C406C6F1
:101990002A84813F2947B307E502B2408D83B3D73C
:1019A000870222449507B3D7E70237370040C207C2
:1019B000C1832316F74041018280716541111305EF
:1019C000052006C6D937B7370040130770F82381C2
:1019D000E7400D47A381E74013070004A380E740D9
:1019E00005472387E740B24041018280411106C686
:1019F000EFF0FF83BD4763F4A700EFF05F83C134CE
:101A0000BD4763F3A700653CB24083D5218103D570
:101A1000018141016F00703B411193962500AA8519
:101A20002D4506C697200020E780E018B24001450A
:101A300041018280411126C29394250022C44AC0EC
:101A40002A843289A686AA850146254506C697209E
:101A50000020E7804016A6864A86A2852945972061
:101A60000020E7804015B2402244924402490145DB
:101A700041018280011122CC06CE3714004026CAD3
:101A80004AC84EC652C483447405034AB405834908
:101A9000840503499405EFF00FF78347A40593F4F9
:101AA000F40F137AFA0F93E71700230DF40493F958
:101AB000F90F1379F90FB717004003C7A705058B76
:101AC0006DFF03D5C705A38D4705238C3705A38C70
:101AD0002705A38B9704F2406244D2444249B2499D
:101AE000224A0561828041119397050122C406C6EE
:101AF000C1872E8463DB0700552B11C1512321655B
:101B0000218DB24022444101828093F7150013C514
:101B10001500E5FB9397250163D00702EF10D03C39
:101B2000F13537F60200130606E0896503C54181E9
:101B3000EF00D01C0965E9B7939715010145E3D281
:101B400007FC1765000013052545EF50A01E13067E
:101B50000064916503C54181EF00501A11654DB7CE
:101B60001D714946976500009385853E1765000005
:101B70001305855186CEEF00F00101E917650000DD
:101B80001305453EEF50001B01A037F700E0F95761
:101B90005CC7FD571CCB8566B7E700E023A0D710D4
:101BA0001306701010C3B8434146B0C323A0D71822
:101BB000B8C30F1000001306C00381454808EF00AA
:101BC000407C973700209387E7DB3ECA896793877D
:101BD0000780231CF100ED47A301F1029307A01039
:101BE0002312F102D1472303F102A167938707E093
:101BF0003ECE97070000938767E2BEC497070000B8
:101C0000938787E3BEC685472304F102B5472308BF
:101C1000F10297070000938727D13EDAB7F5070056
:101C200097070000938747E53EDE8146970700004F
:101C3000938707DC7000E1051945BEC0972000209E
:101C4000E78060F758088147994670003E96034642
:101C5000060085070507A30AC700E398D7FED24709
:101C600091C70357810185676373F70001A0480896
:101C7000EF00F02AAA8501C9176500001305C52FDA
:101C8000EF40107701A0F6402561828041111705D1
:101C90000000130585E506C622C4EF00D024138496
:101CA00041812300A4002928034504002244B240B6
:101CB00037F60200130606E0896541016F00100443
:101CC000411122C406C63714004093067005230054
:101CD000D404130780FA2300E4040F1000008347A4
:101CE000F40293F7A70FA307F4022300D404230000
:101CF000E4040F1000008347F40293E72700A307D2
:101D0000F402ED311305407E2300040481470147AE
:101D1000814605468545FD322244B24001454101D8
:101D20006F00D04A91476301F514411106C622C4E1
:101D300026C24AC063E0A70289472E84B2846308A2
:101D4000F5028D476306F50CB240224492440249E5
:101D50004101828093072002630DF508930740023A
:101D6000630CF50ED147E311F5FE914551A8A1EDA5
:101D7000830506001765000013054522176900005A
:101D800013098923EF40D06683C51400176500004E
:101D900013050522EF40D06583C71400636AF40081
:101DA0002244B24092440249294541016F405068A3
:101DB000B387840083C527004A850504EF4050633C
:101DC0001374F40FD1BF9377140099C717650000FF
:101DD0001305C51EEF40107609883DD42244B24059
:101DE00092440249176500001305051E41016F402A
:101DF0007074176500001305651EEF40B073A145B0
:101E00002244B2409244024903C5C1814101E1A389
:101E1000DDF983050600176500001305651D1769C8
:101E2000000013096919EF40B05C83C51400176501
:101E300000001305E517EF40B05B83C71400E371A2
:101E4000F4F6B387840083C527004A850504EF4074
:101E5000305A1374F40FD5B7176500001305851AAF
:101E6000EF40506DC14569BF914503C5C18145B77C
:101E700041119397050122C406C6C1872E8463DBF6
:101E800007002D2411C1ED2A2165218DB240224485
:101E90004101828093F7150091CB1306803E89455E
:101EA00003C5C181A12D13451400CDB793F72500BB
:101EB00095CFEF20D026173500201305659D834769
:101EC00005009306F00F1306F00FFD17A94517370D
:101ED0000020230FF79AEF10706A1306803E8945A1
:101EE00003C5C181212D134524004DB793F745004B
:101EF00085CBEF20D0221735002013056599834745
:101F000005009306F00F1306F00F8507A945173754
:101F10000020230FF796EF20804713454400BDB7FC
:101F200093F785008DCB176500001305E510EF4092
:101F300070604145EF20200E83C7C18109C9130697
:101F40004006A1453E855D2B1345840081B71306ED
:101F5000803E8945C5BF93F705010145E38807F237
:101F6000176500001305050FEF40D05C1305800CCA
:101F7000EF20104C11C913060019C14503C5C181DA
:101F8000B52B1345040119B79306F00F1306F00F94
:101F9000A945173500201305A58FEF20403FD5B781
:101FA00079711306000281450A8506D622D4D12E06
:101FB00017050000130505ECEF00E072B7477671D6
:101FC000938797123EC4B7575500938757553EC61F
:101FD000FD573ECA85472300F1009707000093870D
:101FE000A7D41384C1813EC8ED572300A400230E5B
:101FF000F1000A859147A30CF100EF109045AA85E6
:102000001765000013054501EF40903E176500007D
:102010001305C501EF40105203450400A145652E8C
:10202000B25022544561828041111305800406C6D6
:1020300097200020E780A08D371700408327870A6C
:102040008D451305002093E707202324F70AEFF0BE
:10205000EFFEEFF09F961765000013056500EF4057
:10206000704D1765000013052502EF40B04CCD3CC4
:102070003139EF2050732D3797200020E78080A75B
:102080001DC18346E5FF1307F00F9147639EE600ED
:10209000411106C697200020E7806075B240814755
:1020A0003E854101828095473E858280138701826B
:1020B0001C43411122C426C24AC006C6014401493C
:1020C000BA8489E7A165D1210DC401A803C7E7FF40
:1020D0006318A7021DC8A165FD2C9840832784FFC3
:1020E0006317E40223A0F182FD57232C04FE230F83
:1020F000F4FE2285B240224492440249410182808A
:1021000011E03E8983A787FF6DBF3E84E5BF232C86
:10211000F9FED9BF23A001828280938781839C43EB
:1021200099E33E85828003D727006316B70003C773
:102130000700E308A7FEDC47E5B7411193970501C7
:102140004AC006C622C426C2C1872E8963DE0700A4
:10215000B13F11C1353721653345A900B240224452
:102160009244024941018280AA860145E5D9014491
:102170003D47B3578940858B95CB9387C182844374
:10218000BD4791E28147A2978E070545BE9433155E
:102190008500131405019C40C8404180829723A00C
:1021A000040023A20400334524014DBF0504E312BB
:1021B000E4FC0144CDBF974700209387A7FC9C53C4
:1021C000411122C406C61384418095C7829723A279
:1021D000A1800840B74703009387D73F3305F50236
:1021E000B7A72600938737ECB24022443E9523A23E
:1021F000A1804101828097470020938767FC1840A7
:102200009C4BBA9723A2F180E9B793874182904310
:102210009746002083C6D6FA814713F7F70F63600D
:10222000D70A17470020034717FE914763E0E70AE4
:102230009747002083C7C701918BC9EB0111680044
:1022400006CE22CC26CAEF009065FD56630FD50C52
:1022500032479747002083C717F463F3E70C17470B
:1022600000201307E7F54047174700200347C7F250
:102270006305D406058B21CF51473304E40263F193
:10228000870A97200020E780E0EDB2476373F400EF
:10229000A28717470020034717F0998F3E9597476D
:1022A0000020938727EE8387470163CD0702B70796
:1022B000C0A86369F502B70740573E9525A085077A
:1022C0001397170032970357E7FF21DB828013072C
:1022D00090023304E40205805DB7620761876357AB
:1022E00007001D8D19E93705C0A801A8E37BF5FE9D
:1022F0003707C0A8B307F7403E959747002093875C
:1023000067E8DC53829709ED97470020938747EFF2
:102310009C4F99C7EF001077EF10A050EF00F06AC4
:10232000F2406244D244056182809747002093873F
:1023300027E9DC47E386A7FE17470020130787E459
:1023400083464701BA84858A9DC6514433848702F7
:102350009747002083C737E4E3F487FC97200020E9
:10236000E78040E09747002083C7F7E21D8C229565
:10237000838744011DBF13049002338487020580C4
:10238000C1BF2A9609E582800505A30FB5FEE31DAE
:10239000C5FED5BF81476314F6000545828033072B
:1023A000F5008507B386F5000347070083C6F6FFEF
:1023B000E383E6FE01458280814711E90145828081
:1023C0003307F50003470700E31AB7FE8507E31953
:1023D000F6FE054582809747002083C777DE637F3E
:1023E000F500138741829317150008433E958357E4
:1023F0000500DD8D2310B500014582800D458280EA
:10240000FD570111174700202322F7DC93878183B2
:1024100022CC80434EC6974900209389A9D626CA6C
:102420004AC852C456C206CE5AC02A8981444E8A2E
:10243000974A0020938ACAD8184481476374E900F8
:10244000B307274103A749021CC409CB03A7CA004D
:1024500063F6E70017470020232AF7D6A1E7835544
:1024600024009DE95C44A1E823ACF182032BC40065
:10247000228597200020E78080375A8455FC8327E7
:102480004A0285CF6244F240D2444249B249224ACC
:10249000924A024B056195BB034504002D3F5C4009
:1024A00081CB1CC483572400D5DFA2844044F9B7F4
:1024B0001C44CDDBC5BFDCC455BFF2406244D244EE
:1024C0004249B249224A924A024B056182809747AB
:1024D000002083C7F7CE6371F502138741829317FB
:1024E0001500084393C5F5FF3E9583570500FD8D04
:1024F0002310B500014582800D458280974700205A
:1025000083C717CC6364F50001458280411122C462
:1025100026C24AC006C62A842E89B284FD3E01C561
:1025200004C505452DA0936504F0C205C181414550
:1025300097200020E78000220DE197470020938735
:1025400067C49C5B81C7A285114582970145B24053
:1025500022449244024941018280938781839C43B3
:102560008DE323ACA18285472326050004C52311F2
:10257000250123008500A300F5002322050055B79F
:10258000BA87D84775FFC8C7F9BF411122C426C210
:102590004AC006C6AA842E8949362A8419C1231145
:1025A00005009747002083C7A7C16394970023982D
:1025B0002183CA852685213F014511E01945B24096
:1025C000224492440249410182802394A1822395AE
:1025D000B1828280411106C623AAA1820295B2402F
:1025E0009747002023A8A7BE014541018280994753
:1025F00063E9B7008A05974700209387A7BEBE9579
:1026000088C18280411106C6EF30302D7146814568
:1026100017450020130505BDAD3313064002814563
:10262000174500201305C5B9A93B23AC018223AA95
:1026300001829747002083C7A7B613D527008D8B4B
:102640003E958D473305F50293051010350513753A
:10265000F50F974700202386A7B699473305F50263
:102660001305050F97200020E780C00E23A6A18246
:1026700025C99947174600200346A6B43306F6023B
:1026800081451306060FF5399387C1829C439387D2
:10269000070F23AEF18217470020034787B20A07CE
:1026A000BA9723A2F182BD3441269387C183984310
:1026B0009747002083C7D7B093962700BA9617068E
:1026C00000001306C6A790C293862700850793F7DC
:1026D000F70F8A0797450020A384D5AEBA9790C319
:1026E000B240410182809747002083C777AD1747EA
:1026F0000020034707AD63F1E7021387C183184346
:102700009386170017460020A30CD6AA939627009D
:10271000369708C33E8582809307F00FE5BF1C41C2
:10272000638F071841777D8FB706002089476319AB
:10273000D7180357450063050718411122C41946ED
:102740002A849305F00F590506C6BD3105478D470C
:102750006302E5161C4481CB58589947630C071453
:10276000185C630907141306C00381451745002050
:10277000130545A139311306C003A2851745002072
:10278000130545A097100020E780A0789747002008
:1027900083D707A0974600209386C69E99E79307A4
:1027A0000010174700202315F79E9747002083C786
:1027B000479E91E7854717470020230CF79C9747D2
:1027C000002083C7179D91E7ED4717470020A3021C
:1027D000F79C9747002083C7E79B91E795471747EA
:1027E00000202309F79A9747002083C7B79A91E7FB
:1027F000854717470020A30FF7989747002083C706
:10280000B79999E783C7060117470020A306F798F1
:102810009747002083C7279891E7D14717470020A3
:10282000230BF7969747002083C7A79795E717478D
:102830000020034767961316870161869307C0023D
:10284000634806009377170093B717009387D70262
:10285000174700202307F7949747002083C7B793B3
:1028600095E71747002003472793131687016186D2
:102870009307C002634806009377170093B71700C9
:102880009387D70217470020A307F7908347D40107
:1028900091E7894717470020A304F7909C5691C7FA
:1028A0008297974700202390A792A93BFD57238743
:1028B000F1868147B24022443E85410182808947AA
:1028C0003E858280011122CC06CE2A842EC6EFF0EE
:1028D0009F8EB245F240818D33A5A50222956244B8
:1028E0001375F50F05618280011122CC06CE2A8472
:1028F0002EC6EFF05F8CB245F240818D33A5A50264
:1029000022956244420541810561828097470020FB
:1029100093874787985725C3411122C426C206C60C
:10292000BE840297174700200357E7892A8441C7CE
:10293000BA876373A700AA87C207C183BA86637385
:10294000E400A286C206C182958F51476355F706FF
:10295000DC5491C382978547174700202306F78AE6
:10296000EF00905897470020239F8784B24022446D
:102970009244410182809747002083C7E7889DE702
:10298000974700209387C78783C79700850793F7EA
:10299000F70F17470020A309F786A18B9DC785472E
:1029A000174700202312F7866F00D0599747002061
:1029B000A38C0784D5BF9747002083C7E784DDD762
:1029C0002244B24092444101C5B78280973700202B
:1029D0009387477BD857011122CC06CE3E8401C78E
:1029E0002AC60297324509CD23A0A18417150020DD
:1029F0001305C578C536F240624401450561828001
:102A00008307440163DD07009737002023A6077C76
:102A1000971700209387277123A0F184C1BF9717D0
:102A2000002093872774CDBF011122CC17340020DA
:102A300013044475084406CE26CA4AC801E9054570
:102A4000F2406244D2444249056182805C58E5DB31
:102A5000185C75D77000854582971844B247E3002B
:102A6000F7FE9305E00417350020035565729720A3
:102A70000020E78020CE173700202321A77661D1E0
:102A8000173600200356C6709305F00FEFF07F8FC6
:102A90008144173900201309A9729737002083C792
:102AA000476F0326C90163C1F402328597200020D5
:102AB000E780E0D301459737002023A107729737BD
:102AC000002023AF0770ADBF9735002083D5456C3C
:102AD000B38795020844185C898185043E9508C235
:102AE000029765BF011156C2973A0020938A8A69FE
:102AF00083A78A0022CC4AC84EC606CE26CA52C434
:102B00005AC0AA892E8432896385072203A74A0303
:102B1000630707147D476366A714973400209384E6
:102B2000246A03AAC40163170A0A9565938515E010
:102B3000173500200355C56597200020E78080C128
:102B40009737002023ACA7682A86630A051083A75D
:102B50004A0303A58A009735002083D565638981E0
:102B6000829783A78A0003AAC4011737002023296C
:102B7000F7668947639CF908C1476312F40E9735DD
:102B8000002083D5E560938505FC9147B3C5F50228
:102B90008A05D29503C705009307A005631DF70AB0
:102BA00083C715006399370B4A85228691059710D4
:102BB0000020E7800036DC4C5285639347150145C1
:102BC000F2406244D2444249B249224A924A024BFC
:102BD000056182809850E38EE7F89565938525E03E
:102BE000173500200355C55A97200020E78080B68E
:102BF0002A8A35C52A8683A74A0303A58A00973502
:102C0000002083D5E55889818297A5B78D47639DBC
:102C1000F900C1476315F4049735002083D5455763
:102C2000938545FDF199B5B79147639AF90063180B
:102C300034039735002083D5A555A115E5B7C147C5
:102C4000639FF900A14763EC87009735002083D587
:102C50002554C115C1BFDC4C52856397470D2945EA
:102C600085B71307F006568B6361A70A130A05FEA2
:102C70001947334AEA021737002003576751973A3A
:102C80000020938AEA53330AEA023E9A83A70A0293
:102C90006395470183A4CA019DE49305E0041735B9
:102CA00000200355E54E97200020E780A0AAAA84C3
:102CB0005DD583274B039735002083D5654D2A8644
:102CC00089815285829791451307A0058981939741
:102CD0002500A69783C607006393E60483C6170002
:102CE000639C360385058A052286A6954A8597103A
:102CF0000020E780002283A7CA01E38297EC2685A3
:102D000097200020E780A0AE5DBD1307E007E368D1
:102D1000A7F4130A05F985B783D5270045BF83A714
:102D2000CA01E38E97F2268597200020E78020AC29
:102D30003DB7973700209387A748CC4F8DD1914757
:102D40009306A0058983139727002E970346070053
:102D5000E317D6F003461700631C360185078A0780
:102D60002286BE954A8597100020E780801A81BD93
:102D700083572700C1BF973700209387A740984704
:102D800039C79C5FA9C705476313E504411122C4F5
:102D9000173400201304C442504C06C60DC6085018
:102DA0009735002083D5C53E89818297484C97206E
:102DB0000020E780C0A39737002023A10742973760
:102DC000002023AF0740B24022444101828082802C
:102DD0000111173700201307E73A4EC683298700F1
:102DE00022CC26CA4AC806CE52C456C2AA842E8411
:102DF0003289638A09201C5FBA8A99EB2945F2401F
:102E00006244D2444249B249224A924A05618280D0
:102E10005C5BEDD7FD4763E9A70E973900209389E6
:102E2000293A83A7C901B1CB03A58A0083A7090268
:102E30006395A70689476393F408C147E310F4FC40
:102E4000173500200355C5349147130505FC33455C
:102E5000F5029317250003A5C9012286CA853E9570
:102E60009307A0052300F500A30095001105971016
:102E70000020E780000A014559B79305E0041735A3
:102E800000200355E53097200020E780A08C97377D
:102E9000002023A5A73449F995B783A74A0303A6C1
:102EA000C9019735002083D5A52E8981829783A7F4
:102EB0008A00173700202325F732ADBF8D47639E68
:102EC000F400C147E31CF4F2173500200355452CEC
:102ED000130545FD9377C5FFBDBF9147639AF40085
:102EE000E31E94F0173500200355852A2115DDB720
:102EF000C147E395F4F0A147E3E287F017350020DE
:102F0000035505294115F9B79307F00663EAA706AB
:102F1000930705FE1947B3C7E70217370020035789
:102F20002727173A0020130AAA29B387E702BE9978
:102F30008327CA01A9CF83270A02639A370703258B
:102F4000CA0191461308A005FD5593D72600C20774
:102F5000C183139727002A9703460700631D0607BE
:102F6000834817000356270063959806B306D6409A
:102F700063CF860485078A072286CA853E95C5BD2C
:102F80009307E007E3ECA7E6930705F979B7930504
:102F9000E004173500200355A51F97100020E78097
:102FA000607B9737002023ABA72251F581BD83A713
:102FB0004A030326CA019735002083D5651D898100
:102FC0004E8582979737002023AC37218DBFA30011
:102FD000B700B2869DBFB385860017360020035622
:102FE000261B9105130606FCE3FAC5E01306340020
:102FF0001376C60F1106B29623000701A3009700AF
:103000002311D70085BF973700209387671BD44FC4
:10301000BE89A1C203A5C90191461308A005FD55AB
:1030200093D72600C207C183139727002A97034628
:1030300007006316060583481700035627006398A8
:103040009800B306D640E3D786F2A300B700B28655
:10305000C1BF8357C700173500200345851393056B
:10306000E0043305F5024205418197100020E78016
:10307000606E9737002023A3A71649FD41B317368A
:1030800000200356E6109735002083C58510B385D0
:10309000C502338686001106E3E2C5D681BF9737A5
:1030A000002083C7171263800712411126C206C68B
:1030B000AA8422C44AC07D55CDC897370020938783
:1030C000A719B8475DC3173900201309A90B0305D9
:1030D00049019735002083C5B50C85057D54054809
:1030E000B708C0A8130E000C834677008327070893
:1030F000639906050353070783560703637DD306C9
:103100000346D700631906070326070F2DE603269B
:10311000470935E20346F700631FC605705FB386B3
:10312000664079163306D60283264708B356D60280
:10313000B297AE96C206C182231BD7066350050420
:10314000958F63F387003E84184359FF938701846A
:103150009C4382976368A402B307A4409CC09C4030
:1031600035476361F70423A00400B240224492442F
:1031700002494101828083566707C9B7E3F2D7FC51
:10318000C6977DBFB307854063DB0700830749010E
:10319000E3C407FCB707C0A8A297898FC1B723A0D3
:1031A000040075BFCD179CC08307490163D5070094
:1031B000130534FF5DBFB147E3EC87FE3705C0A8B8
:1031C0004D1522955DB77D5582809386818490420E
:1031D0009737002083C727FC139787000C4293F78B
:1031E000F703A2074D8FB78500014D8F18C2184213
:1031F000F1759385F50F6D8FD98F1CC2371700407D
:10320000930770052300F704930780FA2300F7045F
:1032100001000100173600200346E6F7D14763FBA3
:10322000C7048357270293E707012311F7029C4243
:103230004567130787E7D8D7984FA166558F98CF72
:10324000984FE1769386F607758F8D6693860650C4
:10325000558F98CF13072015D8DB97170020938739
:103260004710B20737070014B183D98F37E700E062
:103270007CD7828083572702C207C183BD9BC207C8
:10328000C18365B717370020130787F79387C18479
:103290009C43544B184F096694CBD4CB98CFD8CFCE
:1032A0009447D18E94C7D847518FD8C794470566A5
:1032B000D18E94C7D847518FD8C79843136727003A
:1032C00098C398431367070298C382809387418508
:1032D0009C4399CB944BD04B9842518F98C29443C6
:1032E0009C479842D98F9CC2938781859C43A8CBE9
:1032F000171300206700430E938741859C4399CBA9
:10330000D44390479842518F98C2D447DC4B98429F
:10331000D98F9CC21713002067004309938741850A
:103320009C4399CB944BD04B9842518F98C2944375
:103330009C479842D98F9CC2938781859C430947BB
:1033400098C31713002067006306938741859C4349
:1033500099CB944BD04B9842518F98C294439C4741
:103360009842D98F9CC2938781859C43A8CB171321
:1033700000206700630D938741859C4399CBD4431C
:1033800090479842518F98C2D447DC4B9842D98FCE
:103390009CC2171300206700C3079737002083C71C
:1033A00087DF13D71700975700009387E7CBBA97AB
:1033B0000385070082809737002083C717E58DE7D4
:1033C00017370020034737E49307B7FF93F7F70F4A
:1033D000894663EBF600973700202388E7E28547AC
:1033E00017370020A303F7E28280138781851C43EF
:1033F00094438D8A85C2B44BE19AB4CB944393E64F
:10340000860094C39C438D83858B89C7010001008E
:10341000010001001C4323A80704938741859C43B6
:1034200099CBD44390479842518F98C2944BDC4B30
:103430009842D98F9CC297370020A38607DC8280F0
:10344000938681859C4298430D8B05C3B84B619B45
:10345000B8CB98431367870098C39C438D83858BB3
:1034600089C70100010001000100938781849C430A
:1034700037080010D857719B13672700D8D7984397
:103480003367070198C3984F370800F97D183377E1
:103490000701370800023367070198CF984F137769
:1034A00037F81367870198CF1387418603280700F1
:1034B0000327C802759B2326E8021377F60790437B
:1034C000137606F8598E90C388C7CCC3973700206F
:1034D000238807D297370020A38607D298429737D0
:1034E0000020238107D2FD475CC3938741859C431D
:1034F00099CBD0438C471442CD8E14C2D047DC4BBD
:103500001442D58F1CC285679387870B973600209E
:1035100023AEF6CE85471CC3930790053CCB828033
:10352000411197370020A38207CE22C406C626C2C7
:1035300017340020034464CD95476318F406973789
:103540000020938767D1985F3E8483467700A9CA9D
:1035500003465700B755550037C5898E9385555595
:10356000130565EDF13D9736002083C6D6C99387D4
:10357000A6FF93F7F70F0547636AF7009737002018
:103580002385D7C897370020A381E7C89547173709
:103590000020A30AF7C61C5C130710FA2383E70078
:1035A000B24022449244410182809947631DF40253
:1035B00097340020938444CABC4003C777006DD37E
:1035C00003C65700B755550037C5898E93855555A5
:1035D000130565EDB53597370020A38687C2BC403B
:1035E000130710FB65BF9D47E31CF4FA97370020D3
:1035F00083C7C7C2858B17360020034656C497364B
:10360000002083C6C6C39DC397370020938707C396
:10361000C84309CD834515000905EF00505749D12E
:10362000854717370020A302F7BE9DBF814501459E
:10363000EDB7011126CA4AC84EC6C1643709006AEF
:10364000B70900AC22CC52C406CE0544FD141309C0
:10365000E9089389690C130A000205E89305000F35
:103660004145EFF02FA6B707CD6A22059387E708FB
:103670005D8DF2406244D2444249B249224A05611A
:10368000828005041374F40FC9BFA6850145EFF0CD
:10369000AFA59317850013F7071033E5270119C36A
:1036A00033E5370181470147E145B356F50085070A
:1036B0003356F500858A058A6307D6000507137718
:1036C000F70FE3E0E5FCE39247FF81471306F003C1
:1036D000ED463357F5001377F70345D7E303C7FAF1
:1036E0008507E398D7FE71B797370020938747B1D6
:1036F0009C4FA1CB411106C622C469361384818533
:103700000D22EF105019D1341C401307D005B8CB4F
:10371000EF10F04BEF20701BEF10F02EEF10703613
:103720008547173700202301F7AE1C4023A8070464
:103730005931B240224497370020A38607AC41019B
:1037400082808280411122C417340020130444ABCC
:103750001C4C06C626C285CB938481859C401307EA
:10376000D005B8CBEF10F0319C4023A80704834765
:1037700084008507173700202308F7A82D399737CD
:103780000020A38207A8B2402244924441018280D3
:1037900023AA0184B7C7004023A6F184138707300A
:1037A00023A2E1841387072023ACE18493870710C9
:1037B00037D7004023A2E18623A4F18405474111B5
:1037C00097370020A381E7A422C4173400201304F4
:1037D000649B1C4006C69736002023ADF6A2938753
:1037E00007119736002023A9F6A297370020238DD2
:1037F000E7A0DD3D37E700E0B70710002320F71012
:10380000B70620002320D7100307440163570700A1
:10381000138781851843FD177CD3B24022444101B0
:103820008280938781859C43930600052947D4CBEA
:10383000D8CF9305C008CCD31306C003D0D7CCDBB8
:10384000D0DFF4C3F8C71307600FB8CF3167130791
:103850003730D8C797170020938747E0370700F025
:103860007D8FB7E600E0B207F8C2B18337070015D5
:10387000D98FBCD68280938781849C43B70600F998
:10388000FD16984F758FB7060004558F98CF984F47
:10389000137737F81367C70198CF1387418614430E
:1038A000F5CD37B724001307F7E96361A7089843FC
:1038B000137707F81367570298C305476394E50029
:1038C000130585C1D856370810FE7D1813672700E9
:1038D000D8D64167130707A03356E5023377E502D0
:1038E0001305A00F7D8A93154601F0423376060139
:1038F0004D8EF0C2F042B705FCFF6D8E2A0733579C
:10390000A7023A073983518FF8C2173700200347BF
:10391000E790098B19CB98431377F7079366070451
:103920009843137707F8558F98C38280370725008F
:103930001306F7486363A6023767DBFF1307079395
:103940002A971306007D3357C7027D1790431377DC
:10395000F707137606F8518F85B7130707496318E1
:10396000E5009843137707F813676702B1B737D7B5
:1039700025001307F777636DA7003767DBFF130791
:1039800007932A971306007D3357C70279177DBF27
:103990009843137707F81367770239BFD856759B9A
:1039A000D8D61377F5078843137505F8498F98C360
:1039B000A9BF938701849C43011122CC4EC606CE39
:1039C00026CA4AC852C456C28297973700209387A6
:1039D000E786804781496308A406BE8497270020B4
:1039E0009387477A038747013E8963580706018D0D
:1039F000135455009737002083C7E7839379F50167
:103A00006360F404370AC0A8B70A40579710002033
:103A1000E78060C99C449736002083C6C68113970F
:103A200056003E9783074901158C63C50700636301
:103A3000470156979737002023A6E780E378D4FC08
:103A40001604B3693401F24062444E85D2444249BF
:103A5000B249224A924A05618280E37A85F8B70723
:103A6000C0A833848740229561B7938701849C4323
:103A7000411122C406C626C2829797270020938749
:103A8000E77B80476309A406BE84972700209387BD
:103A9000676F8387470163D80704018D135455006E
:103AA0009727002083C727796367F40497100020C5
:103AB000E78060BF98449727002083C7C777939615
:103AC000570036971D8C9726002023ADE676E37FBE
:103AD000F4FC2244B240924417250020034515749B
:103AE0008145410149BBE37A85FAB707C0A8338411
:103AF0008740229565B7B2402244924441018280BA
:103B0000411106C69727002023850774EFF0FF8D2B
:103B100001458145EFE0BFADB240014541018280E2
:103B2000011126CA972400209384446F83C70400A0
:103B300022CC06CE4AC8858B172400201304446C7F
:103B40006385070E83472400858BE1C797270020F4
:103B50002389076AEFF04FFA65379C480146814593
:103B600005458297834734002689858BC1C7084C59
:103B700097270020A387076881451306F100972740
:103B800000202381076897100020E780E08EAA8537
:103B90000DE11C4C9306F00F03C70700630BD70021
:103BA0009727002083C797696385D7006303F700D1
:103BB00089458307090063C707001C4C0347F100D0
:103BC0002380E70083270901104C09458297972736
:103BD000002083C7E767898B81CB854517250020A7
:103BE00003454567EFE02FFFF2406244D24442496B
:103BF00005618280938781859C43BC53F5F79727A5
:103C00000020238107609C480146814549458297F1
:103C1000E1BFFD35EFE09FCF972700202384075EAB
:103C20009C48014681454545DDB783473400858B77
:103C300099CFF93597270020A385075C97270020A7
:103C40002382075C9C48014681450545C9B74D3D27
:103C5000E1B71C4963820712411122C406C683479B
:103C600005002A8493F7070489C75C4109456381ED
:103C70000710130600028145172500201305055A79
:103C8000EFE02FF0A2851306000217250020130590
:103C9000E55897000020E780C02717240020130470
:103CA000E4575C4891E7FD57172700202322F75877
:103CB0009727002083C7175899E793078002172793
:103CC0000020A309F7569727002083C7C75691E71E
:103CD000A147172700202300F7569727002083C706
:103CE000975591E7C54717270020A306F754972754
:103CF000002083C7675491E7ED5717270020230D55
:103D0000F7529727002083C7375391E7ED571727BE
:103D10000020A303F7529727002093872752C84318
:103D200009C597100020E78080AC9727002023A9C1
:103D3000075083470400858B85C317250020034562
:103D4000B54F93059004090597100020E78080A0E7
:103D50009727002023A6A74E834714000145172765
:103D60000020A308F74E1C4417270020232EF74CF1
:103D7000B24022444101828005458280797126D279
:103D800097240020938484499C4406D622D44AD0A8
:103D90004ECE52CC56CA5AC85EC6638C0726138ACA
:103DA000818583270A0098430D8B09C798431367C1
:103DB000870098C317290020130949488347490100
:103DC000B689B28A898B2E842A8B9D4B89EB83C757
:103DD000040093F707049DC38945C8402DA0D13E38
:103DE000E3FFABFE9727002083C7E7449607D11770
:103DF000E3E7A7FE83474901898BF1DB814517255E
:103E000000200345B541EFF01FA783260A00930762
:103E1000A0051727002003476740BCCA9377070413
:103E20006380071CD040B797DBFF938707813E96DE
:103E3000E1679387076A63F5C71A9307000DBCD241
:103E4000938781849C439044058B1367E70190C757
:103E5000D044D0C3D8C2034769011367270097260F
:103E600000202388E63E17270020A309373D1727A7
:103E700000202305573DD857B70600F0FD16719B6B
:103E8000D8D798439729002093898937758F98C38D
:103E900003A5490163090B1423005501A300850004
:103EA0002286DA85090597000020E780800693873F
:103EB000C1849C4303A749018145170500001305F0
:103EC00065C698CB97270020238D073297270020BF
:103ED000A38907329727002023860732EFE02FF1CE
:103EE000EFF06FCD8D4717270020A30EF7309727EF
:103EF000002083C767349D079207172700202327D8
:103F0000F73083270A00B8537DFF21671307373046
:103F1000D8C7131744001307C71CB8D3130700F8FA
:103F2000972600202380E62E316713073730D8C745
:103F300083474901898B95CF938701849C4382975E
:103F40001727002013070724030747018327890049
:103F5000635E07081D8D03C704000D8183A7490117
:103F6000418B49CF3707800062051307F72F598D22
:103F700088C3EFF0AFBA93874186984301455C57F9
:103F80008583858BB9C3DC40C165938505A0938784
:103F900087C1B3D6B702370810FE7D18B3F7B70252
:103FA000FD8A139646017443B3F60601D18E74C39D
:103FB0009306A00F3706FCFFAA07B3D7D7027443B6
:103FC000F18EBA07B983D58F7CC3B2502254925474
:103FD0000259F249624AD24A424BB24B4561828051
:103FE0009307000AA9BD23205501D1B5E374F5F666
:103FF0003707C0A8B307F7403E95B1BF0904137453
:10400000F40FA38087003E9423000400A300A400C3
:104010008DB705455DBF39715AD097270020238998
:104020000722172B0020034B6B1F4AD893671B00F6
:104030002A89130671009945414506DE22DC26DAFD
:104040004ED652D456D25ECE62CC66CA6AC8172704
:1040500000202305F71CEFE0FFA86317052619468B
:104060009305F00F13057100EFE00FB58547630D61
:10407000F52489472300F1001946972500209385F0
:10408000C5111305110097000020E78080E8EFF0CC
:10409000CFB0172A0020130A6A1A83477A01938443
:1040A0000184A306A10017270020A309F716832780
:1040B000CA00A16CB16A172700202325F7169C407F
:1040C000056C972900209389A913829797270020D0
:1040D00023AEA716938B3C30938A3A30130CECEB4B
:1040E000034601009546B9450A85493983C7290029
:1040F000858BFDD79727002023850710EFF0CF9FF2
:1041000083C73900858B6387071E03A5890197271D
:104110000020A388070E01468145972700202382AF
:10412000070E97000020E78020352A8D6314051CB8
:1041300003A48901954703472400631DF71A194614
:10414000972500209385650513059400EFE08FA463
:1041500085476311F51A83A7490119471305A0057F
:1041600098C3938781859C431307C04423A6770196
:10417000B8D3130700F8972600202385E60823A666
:104180005701EFF0AF9497000020E780202283C70B
:104190002900858B63800716972700202383070655
:1041A0009C4082979727002023AEA708EFF05F95E9
:1041B00097270020A38E070897270020A3800706D3
:1041C0008347340101469305000217270020A3030B
:1041D000F7068347440117270020230EF70483477F
:1041E000540117270020A308F7040347040183475D
:1041F000F40022075D8F83471401C2075D8F834758
:104200002401E207D98F17270020232DF700034749
:1042100074018347640122075D8F83478401C207CD
:104220005D8F83479401E207D98F17270020232150
:10423000F70017270020A30F07000147B3D6E700B8
:10424000858A89C6050D137DFD0F05460507E31711
:10425000B7FE09C697270020A38EA7FF8347A401B6
:10426000130680029145172700202305F7FC9727A6
:104270000020238567FB894717250020034585FD1E
:10428000172700202306F7FCEFE04FA703470100A4
:1042900085478144631BF700130634009945414567
:1042A000EFE01FB30545EFE01FADF25062542685E5
:1042B0004259D254B259225A925A025BF24B624C82
:1042C000D24C424D216182808547194697250020B6
:1042D0009385A5EC130511002300F1009700002041
:1042E000E78020C3194697450000938525DB130519
:1042F000710051BBEFF06F8F630F09007D191379C7
:10430000F90F631A0900EFF0AFFF854497270020EB
:10431000238667F159BF938781859C4383460100BB
:10432000094723A677016399E6041307E06EB8D323
:10433000130700F8972600202386E6EC23A65701F2
:10434000B8537DFF9C40829717270020130787E30F
:104350000307470183270A01635307021D8D9387D3
:104360000CD0E3FFA7D6EFE06FDA9C408297972747
:10437000002023ADA7ECADB323A0870755BFE37F93
:10438000F5FC3707C0A8B307F7403E95C9BF011138
:1043900026CA938481859C404EC652C4984356C217
:1043A0005AC006CE22CC4AC80D8B2A8AAE89328BDF
:1043B000B68A05C3B84B619BB8CB98431367870097
:1043C00098C39C438D83858B89C701000100010040
:1043D000010017240020130464E6834744011729D1
:1043E00000201309A9E3918B99E78347090093F70C
:1043F000070463950716814517250020034515E23C
:10440000EFF06FC7938781849C4303278900B70629
:10441000001098C70327C900D8C3D857719B1367EA
:104420002700D8D79843558F98C3834709009840F1
:10443000858B93E7E7015CC397270020A38167E1A1
:1044400097270020238D57DF5C43858BADC75C40E9
:1044500085E317250020034535DE93059004090503
:1044600097000020E780002F9727002023AAA7DCD1
:104470005C400545F1CB17270020034747DC23802C
:10448000E7005C4063000A0E638E090CA3803701CD
:1044900048404E86D285090597000020E78060A736
:1044A0009387C1849C435840D8CB930700041727B7
:1044B00000202307F7D4EFE01FF08347640193E760
:1044C0004700172700202306F7D897270020A38945
:1044D00007D297270020A38707D29727002023839E
:1044E00007D29D4717270020A30FF7D0972700205A
:1044F000938747C99C5791CB13060064C145172584
:104500000020034525D5EFD07FFF938741859C434D
:1045100099CBD44390479842518F98C2D447DC4BF3
:104520009842D98F9CC29727002083C7E7D09D0768
:10453000920717270020232BF7CC9C400547014505
:1045400098C313079005B8CBF2406244D244424965
:10455000B249224A924A024B056182808545032571
:10456000490079BDA380070025BF397126DA972459
:1045700000209384A4CA83C7040022DC06DE4AD844
:104580004ED6858B17240020130484C7638407301C
:104590008347040097290020938949CA858B638E3D
:1045A000072A938741869843032984015C578583B2
:1045B000858BA1C3DC40C165938505A0B3D6B70246
:1045C000370510FE7D15B3F7B702FD8A1396460135
:1045D0007443E98ED18E74C39306A00F3706FCFF97
:1045E000AA07B3D7D7027443F18EBA07B983D58F20
:1045F0007CC381451306F1014A859727002023815A
:1046000007C097000020E78020E7AA850DE19727E3
:10461000002083C7D7C29306F00F638AD700184CD7
:10462000034707006305D7006303F70089458387C5
:10463000040063CE0712639E05128347F101230035
:10464000F90083C74901918B95C783471900CA9721
:1046500003C7070093070008631EF7005C481307B1
:10466000F00F98C383C7040093E7070117270020C2
:104670002306F7BA83A7490013878185184383C7A8
:104680001700A166938636309387070A54C79207AE
:104690003CD3930700F8972600202385F6B6B16730
:1046A000938737305CC71305A005EFE01FCA97005A
:1046B0000020E78000D6EFE05FD39726002083C676
:1046C00026B993F74600638C0714172700201307B9
:1046D00067AB030647011C48635E060CF1171727FA
:1046E00000202327F7B21C4803A78900635C060C4F
:1046F0003387E7408347190093958601E185CA9780
:1047000083C717008E0763DE050C63F3E70C1D8F6C
:104710009306000263EBE6001848635E060AB307DF
:10472000F74017270020232FF7B0894517250020D1
:10473000034545B2EFD03FCA83C70400C18BF9CB14
:1047400003A5490017260020034676AF97260020D0
:1047500083C6E6AE4DCD8345150009050D3983C7E7
:104760000400BD9B17270020230AF7AA15A8E38A97
:1047700005EC2EC6EFE07FC7104C9C48B2450D45B6
:10478000829703A5490017260020034656AB9726BB
:10479000002083C6C6AA01CD834515000905C53E84
:1047A000F2506254D2544259B259216182808145FB
:1047B0000145F5B70D47E363F7F23707C0A8711756
:1047C000BA9731BFE3F6E7F2B705C0A8AE970DB7C9
:1047D0003387E74035BFE374F7F4B706C0A83697D0
:1047E0003DBF1848635F0600B307F74093E606F83D
:1047F000172700202328F7A497270020238AD7A46F
:104800002DB7E373F7FE3706C0A83297F1BF814595
:104810000145A9B783471900F917A300F900EFF084
:104820002FAE9C48104C81450D458297834714005C
:10483000858B99CB97270020A384079C9C48014631
:10484000814511458297A9BF97270020238C079A9D
:104850009C48014681455145F5B703A549001726F7
:1048600000200346D69D9726002083C6469D05C19D
:10487000834515000905213E9727002093878790DF
:104880009C5B894591DF13051008829711BF814514
:104890000145D5B783471400858BA9CF9727002002
:1048A000A3800796EFF0CFA5084C9306F00F0149BF
:1048B00003470500630BD7009727002083C737986D
:1048C0006385D7006303F70009498387040063D039
:1048D00007020146814597000020E780E0B9336573
:1048E000A9009375F50F9C48104C0D45A1BF2A8671
:1048F0008145D5B79726002083C6669417260020E9
:104900000346F69381450145EFF07FA897270020E5
:10491000938747879C5BE38507E88545ADB7972775
:104920000020238807929727002093872791C84368
:10493000411106C609C597000020E78040EB972784
:10494000002023AF078E9727002083C7178C81CFC5
:10495000172700200347678B9D476316F7009727AB
:104960000020A384078A9726002083C6D6899387D0
:10497000B6FF93F7F70F0547636AF7009727002004
:104980002385D78897270020A381E788EFE0FFA53C
:10499000C145172500200345E58BEFD01FBF01451A
:1049A0008145EFD0DFC4B240014541018280411111
:1049B00006C622C4AD37972700209387278803C7F0
:1049C0007701DC47A145172500200345A5889726D8
:1049D0000020A385E684172700202325F784EFD045
:1049E000DFBA9145172500200345C586EFD0FFB9F2
:1049F0009727002083C7C78513F7270017240020B7
:104A00001304C48119CF1C480146814513052002B7
:104A10008297B240224497270020238B07824101CE
:104A20008280918BFDD71C480146814513054002C9
:104A3000C5B7797126D2972400209384248083C738
:104A4000440106D622D44AD04ECE52CC56CA5AC8B9
:104A50005EC6898BD1CF971A002083CA2A7C93E740
:104A60001A0121698569316A171700202308F77A2E
:104A70000144171B0020130BAB78938B818513091E
:104A80003930938929F9130A3A309716002083C6E2
:104A9000F67A171600200346667A81450145EFF045
:104AA000EFAD83472B00858BEDD397170020238A2A
:104AB0000774EFE07F8483473B00858BA9C7EFF045
:104AC0002F8497170020A38E077283C74401854562
:104AD000171500200345057893E707F817170020FE
:104AE0002308F776EFD03F8F97170020238857735E
:104AF000B250225492540259F249624AD24A424B6D
:104B0000B24B45618280EFE0BFFF05041374F40FE0
:104B1000A1476314F400613DC1BF83A70B001307D5
:104B200000F823A6270123A0370797160020238B20
:104B3000E66C23A64701B8537DFF81BF411122C413
:104B400006C693F715002E84B9C39717002083C7B4
:104B5000277013F7270015C7E207E1871715002014
:104B60000345456F1306000563DA0700171600209A
:104B70000346566C9307000A3306F6029145EFD0C0
:104B8000FF9713451400B24022444101828093F7FD
:104B90002500B1C39717002083C7876B13F7470021
:104BA00005CBE207E187171500200345A56A130628
:104BB000000A63DC0700171600200346B667930758
:104BC000000A3306F60213068602A145EFD01F93B2
:104BD000134524004DBF93F7450089C7993D134500
:104BE000440055B793F7850099CB9717002083C7EA
:104BF0002766918B91C3653B1345840069B793F792
:104C000005010145C9D3EFD07FD017170020034716
:104C1000975F9D47631BF70013060064C145171596
:104C2000002003452563EFD07F8D13450401A1BF0C
:104C30005971D6CA971A002083CA4A5E86D6A2D472
:104C4000A6D2CAD0CECED2CCDAC8DEC6E2C4E6C284
:104C5000EAC06EDE93F71A006385073497170020C9
:104C60002388075E171900201309495D93E71A008E
:104C7000171700202304F75A83477901194697151F
:104C800000209385855117170020A309F758832723
:104C9000C9002A8413055101171700202324F7584F
:104CA0009547230AF10097F0FF1FE7808026EFE089
:104CB0005F9893578500171B0020130B2B56230179
:104CC000F10293570501A301F10283479B01A30061
:104CD000A1026181A302F1028357AB012302A10269
:104CE000938401842313F10283274B013ED483472D
:104CF0008B012306F102EFE04FEAA306A10202C4F2
:104D000015C49C4016048297971700209387874705
:104D1000838747012A9463C90700B707C0A8636562
:104D2000F400B70740573E9485473EC49C408297A5
:104D30009717002023ACA75095461306F00FE945BE
:104D40004808EFF0CFE4854763170518A16CB16BF5
:104D5000138D3C30938B3B30971900209389494A3F
:104D6000938D818583C75900858B638E071A9717AA
:104D70000020A3890748EFE00FE083C70900858B77
:104D8000638C071803AC89011306310181456285E4
:104D9000971700202386074697F0FF1FE780C06D16
:104DA0002A8A631B051683462C0005470328490001
:104DB0006393E61413059800194693053C0097F099
:104DC000FF1FE780001583A70D001307C0441305DC
:104DD000A00523A6A701B8D3130700F89716002053
:104DE0002382E64223A67701930780253AC6171748
:104DF0000020232DF740EFE04FD597F0FF1FE7800D
:104E0000406183C719003247858B63870710971766
:104E10000020A387073E83A70D009306001923A651
:104E2000A701B4D397160020238EE63C23A6770172
:104E3000EFE06FD483C70900858BF9CF9717002067
:104E40002380073C83A7890103C70700994763159F
:104E5000F70C9C4082979717002023A5A73EEFF000
:104E60001FAC97170020A38B073A971700202387C2
:104E7000573B825783254B01814613D787008347D1
:104E8000410213060002E207D98F17170020232BD7
:104E9000F738914717170020231CF73A971700207F
:104EA000A38A073A814733D7F500058B09C7050A5E
:104EB000137AFA0F85468507E397C7FE89C69717C9
:104EC0000020A389473989451715002003458538F7
:104ED000EFD06FD08147B650265496540659F64904
:104EE000664AD64A464BB64B264C964C064DF25D6A
:104EF0003E856561828009466390C6021946971512
:104F000000209385852913059C0042C6EFD08FC8E9
:104F100005473248E300E5EA95461306F00FE945F8
:104F20004808EFF0CFC6A24785C79C408297636DC3
:104F30008500018D634E0500EFF07F9E97170020DE
:104F4000238E572D854741BF3305A440E34605FE18
:104F50009C408297171700201307C72203074701B9
:104F600083270901635707021D8D93870CD0E3FB4C
:104F7000A7DEEFD0BF999C4082979717002023A708
:104F8000A72C95461306F00FE9454808EFF02FC00F
:104F9000E1B3E37BF5FC3707C0A8B307F7403E95C4
:104FA000E9B789470DBF411106C622C4EFE04FFEA5
:104FB0001714002013048428714681452285EFD000
:104FC0004FBCFD5717050000130585B71CC0EFD077
:104FD0008FF1230CA400954517F5FFFF1305255904
:104FE000EFD0EFE0B2402244014541018280938737
:104FF000418694430566D846518FD8C65147010073
:105000007D1775FF9043FD76FD165846758F58C67F
:10501000514701007D1775FF94430566D846518FAF
:10502000D8C6514701007D1775FF9443D8461367D2
:105030001700D8C6514701007D1775FF9443D84625
:10504000799BD8C6514701007D1775FF9443D84618
:1050500013671700D8C6514701007D1775FF9443A9
:10506000D84613670710D8C6514701007D1775FF52
:105070009443D8461377F7EFD8C6514701007D1700
:1050800075FF98435C4793E707105CC7D147010061
:10509000FD17F5FF8280411106C6913F9387418637
:1050A0009C43130700483703009098D7B8477D13F7
:1050B000370E0020337767003367C701B8C7B8479A
:1050C000B70600F9FD16758F37060004518FB8C773
:1050D000B8473706F9FF7D16419B13679700B8C79D
:1050E000B847B7080080B70E0002718FB8C7B8473D
:1050F000370600FF7D1633671701B8C7F8474575B7
:105100007D1E619B13673700F8C7F8471377F7F8E0
:1051100013670703F8C7EC4793F5F58F93E5053060
:10512000ECC7F847718FF8C7F84711663367D701A6
:10513000F8C703A807051307F5FF7D753378E80066
:105140003368C80023A8070503A847057D15137811
:1051500008FF1368C80023AA0705F04B136606086A
:10516000F0CBF04B698EF0CBC85F798D2167598DFC
:10517000C8DFCC5F37070040F58DB3E5D501CCDF44
:10518000D05FB70570003376C601598ED0DFD05797
:1051900009674D8ED0D7D057F18ED4D7D4577576B6
:1051A0007D16F18ED98ED4D7D4573706FDFF7D16E4
:1051B00037070200F18ED98ED4D7945BC19A94DB65
:1051C000945B93F6F6F094DB945B93F6F68F94DBA6
:1051D000985BB70600504D8F98DB985B337767007C
:1051E000558F98DB985FB70608FFFD16758FB706D9
:1051F0001800558F98DF985FB368170123AC170329
:10520000B24041018280138741861C4341767D165E
:10521000B44BF18EB4CB944737062000D18E94C79F
:10522000D44793E60601D4C7D447BD9AD4C701003A
:1052300001000100010014430566DC4693E7070105
:10524000DCC6DC42D18FDCC283A7C609A183858B73
:10525000E5DF01000100010001001C43416603A7D6
:10526000C709B44BD18EB4CB9376F701B84B019BF1
:10527000558FB8CB9847B706E0FFFD16758F98C7D6
:10528000828013884186417703C601868327080000
:105290007D1763180610B44FC1654111F98EB4CF64
:1052A0009447C16E3D4FCD8E94C78D4F8147414E7F
:1052B00083260800CC4693F5F5EFCCC6CC42B3E587
:1052C000D501CCC2CC4693E50510CCC683A5C60853
:1052D000A1818589E5DD010001000100010083262F
:1052E000080003A5C608CC423D89F98DCCC26305F0
:1052F000E50105061376F60F814513F3F50F636A92
:10530000F3006311F30493080101C6952388A5FEF9
:1053100015A8AE888505B302B10083C2F2FFE37E13
:1053200055FCBE8593020101AE9283C3F2FEFD15CA
:1053300093F5F50F238872FEE316B3FE0C08AE98C2
:105340002388A8FE6308F601850793F7F70FE3911A
:10535000C7F731C28347010021476371F702F51790
:105360002300F10083470100BD8B13977700BC4EEB
:1053700093F7F787D98FBCCE4101828011476374C0
:10538000F700F917F1BF05476374F700FD17C9BFB0
:10539000F1FB8D47F1B7BC4E93F7F78793E70728EA
:1053A000D9BFB44F4166F98EB4CF9447D18E94C71C
:1053B000D44793F6F6EFD4C7D443758FD8C3D447F8
:1053C00093E60610D4C7D843518FD8C38280397171
:1053D00022DC138441861C4006DE26DA4AD84ED6EB
:1053E00052D456D25AD05ECE62CC66CA6AC86EC655
:1053F000D843FD76FD161377F7EFD8C39857758F0E
:1054000098D7D857B70602003D9BD8D79847558FF5
:1054100098C7D84313670701D8C31387C1851443BE
:105420003757341213078767E38DE648D8438174F2
:105430009384F40F799BD8C3985FB166658F558FBD
:1054400098DFD84313671700D8C397F0FF1FE78092
:10545000A02D1C4003A707091377F7032384E186D7
:1054600003A7470929831377F707A385E186D84364
:10547000B96693860670799BD8C3985F658F558F00
:1054800098DFD84313671700D8C397F0FF1FE78052
:10549000A0291C4003A707091377F7032385E1869A
:1054A00003A7470929831377F707A386E186D84323
:1054B000B56693860630799BD8C3985F658F558F04
:1054C00098DFD84313671700D8C397F0FF1FE78012
:1054D000A02518408327070993F7F703A384F186D3
:1054E00083274709A98393F7F7072386F1861C4092
:1054F00003CC918683C6818603A7070AB3868641BB
:1055000013F6F600419B518F23A0E70A13076002B0
:105510003387E6021306700283A5070A7D7E130E09
:10552000FE0F93F5F5F01305400245737D13130448
:1055300030023347C702B708F1FFFD1813082002F5
:10554000930E10027D4FF94FF542F1436D4DD14B53
:10555000454BBD443949314AAD4AB5493D8B1207E7
:105560004D8F9305500223A0E70A3387B60283A527
:10557000070AB3F5C5013347C7023D8B22074D8F9C
:1055800023A0E70A3387A60283A5070A370500F19F
:105590007D15B3F565003347C7023D8B32074D8F4C
:1055A00023A0E70A3387860283A5070A6144B3F57F
:1055B00015013347C7023D8B42074D8F23A0E70AF1
:1055C0003387060383A5070A370810FF7D18B3F554
:1055D00005013347C7023D8B52074D8F23A0E70AD1
:1055E0003387D60383A5070AB70E0010FD1EE98D89
:1055F0003347C7023D8B62074D8F23A0E70A1397FD
:1056000056003347C7029315C70103A7070A33772C
:10561000D7014D8F23A0E70A3387E6035D4F334759
:10562000C7029375F70003A7470A419B4D8F23A23A
:10563000E70A3387F60383A5470AD94F93F5F5F0B8
:105640003347C7023D8B12074D8F23A2E70A3387EA
:10565000560283A5470AD542B3F5C5013347C702B1
:105660003D8B22074D8F23A2E70A3387760283A55D
:10567000470ACD43B3F565003347C7023D8B320778
:105680004D8F23A2E70A3387A60383A5470A494D16
:10569000B3F515013347C7023D8B42074D8F23A257
:1056A000E70A69473387E60283A5470AB3F5050190
:1056B0003347C7023D8B52074D8FE54523A2E70ACA
:1056C0003387B60283A5470AE98D3347C7023D8B6E
:1056D00062074D8F23A2E70A338786020D443347C2
:1056E000C7029315C70103A7470A3377D7014D8F28
:1056F00023A2E70A3387E603254F3347C702937592
:10570000F70003A7870A419B4D8F23A4E70A33873D
:10571000F60383A5870A9D4F93F5F5F03347C7023B
:105720003D8B12074D8F23A4E70A3387560283A5CA
:10573000870A9942B3F5C5013347C7023D8B22075B
:105740004D8F23A4E70A3387760383A5870AB3F531
:1057500065003347C7023D8B32074D8F23A4E70A0C
:105760003387760283A5870A9543B3F5150133473E
:10577000C7023D8B42074D8F23A4E70A3387A60358
:1057800083A5870A294DB3F505013347C7023D8B31
:1057900052074D8F23A4E70A3387660383A5870A40
:1057A000E98D3347C7023D8B62074D8F93954600C5
:1057B000B3C5C50223A4E70A03A7870A3377D70135
:1057C000F2054D8FB385960223A4E70A03A7C70A03
:1057D000419BB3C5C502BD894D8F23A6E70A338718
:1057E000260383A5C70A93F5F5F03347C7023D8B1F
:1057F00012074D8FB3C5860223A6E70A03A7C70A7F
:105800003377C701BD89A2054D8F23A6E70A3387E9
:10581000460383A5C70AB3F565003347C7023D8B2E
:1058200032074D8F23A6E70A3387560383A5C70A9D
:10583000B3F515013347C7023D8B42074D8F23A6B1
:10584000E70A3387A60383A5C70AB3F505013347E3
:10585000C7023D8B52074D8F23A6E70A3387E60325
:1058600083A5C70AE98D3347C7023D8B62074D8F79
:1058700093953600B3C5C50223A6E70A03A7C70A56
:105880003377D701F2054D8FB385F60323A6E70AD8
:1058900003A7070B419BB3C5C502BD894D8F23A844
:1058A000E70A3387560283A5070B93F5F5F03347D4
:1058B000C7023D8B12074D8F23A8E70A3387760274
:1058C00083A5070BB3F5C5013347C7023D8B2207FC
:1058D0004D8F23A8E70A139726003347C70283A5F5
:1058E000070BB3F565003D8B32074D8FB3C536030B
:1058F00023A8E70A03A7070B33771701BD89C20561
:105900004D8F23A8E70A139716003347C70283A5D4
:10591000070BB3F505013D8B52074D8FB3C5C6028A
:1059200023A8E70A03A7070B698FBD89E2054D8FFE
:1059300023A8E70A03A7070B930580023377D70153
:1059400023A8E70A03C7A1863307EC40B34DB7028B
:1059500083AC470B93FC0CFFB34B770393FDFD0027
:10596000B3ECBC0123AA970B83AC470BCD4D93FC42
:10597000FCF093FBFB00920BB3EB7C0123AA770BAB
:10598000B30B870283AC470BB3FCCC01B3CBBB0298
:1059900093FBFB00A20BB3EB7C01B34CA70323AA40
:1059A000770B83AB470BB3FB6B0093FCFC00B20C93
:1059B000B3EB9B0123AA770BA14BB34B770383ACCB
:1059C000470BB3FC1C0193FBFB00C20BB3EB7C0148
:1059D00023AA770BB30B570283AC470BB3FC0C0124
:1059E000B3CBBB0293FBFB00D20BB3EB7C0123AA2E
:1059F000770BB30BF70383AC470BB3FCAC00B3CB13
:105A0000BB0293FBFB00E20BB3EB7C01B34C7702D0
:105A100023AA770B83AB470BB3FBDB01F20CB3EB91
:105A20009B01B30CE70323AA770B83AB870B93FB94
:105A30000BFFB3CCBC02B30A570393FCFC00B3EBDF
:105A40009B0123AC770B914B83AC870B93FCFCF051
:105A5000B34B7703330A470393FBFB00920BB3EB83
:105A60007C0123AC770B83AB870BD54CB3FBCB010D
:105A7000B3CABA02B309370393FAFA00A20AB3EA27
:105A80005B0123AC570B83AA870BD94BB3FA6A008F
:105A9000334ABA0233092703137AFA00320A33EA87
:105AA0004A0123AC470B03AA870BE14A337A1A0158
:105AB000B3C9B902B304970293F9F900C209B369F3
:105AC0003A0123AC370B83A9870B654AB3F9090167
:105AD0003349B902B3C4B4021379F900520933E966
