:040000006F108034C9
:1000040000000000000000006F0080086F00202541
:1000140000000000000000000000000000000000DC
:1000240000000000000000000000000000000000CC
:100034006F004006000000006F00E00500000000B3
:100044006F0080056F0060056F0040056F0020059C
:100054006F0000056F00E0046F00802900000000BD
:100064006F0060046F0040046F00C0296F0000350A
:100074006F00A0266F00C003000000006F00600343
:100084006F0040036F0020036F0000036F00E00265
:1000940001A001A001A001A001A001A001A001A054
:1000A40001A001A001A001A001A001A001A001A044
:1000B40001A001A001A001A001A001A0B717004068
:1000C400130770052380E704130780FA2380E704ED
:1000D4000F1000002396A70223800704371700405F
:1000E40083472705898BEDDF8357070537170040C2
:1000F40083472705898BEDFF371700408347270582
:10010400898BEDDF035507058280B71700409306FE
:1001140070052380D704130780FA2380E7040F10A7
:10012400000003C6B7041376F60DA385C704238025
:100134000704137605023DCA03C6A700118A1DE20F
:100144002380D7042380E7040F10000003C7A7000F
:10015400136747002385E7009307004B0100010064
:10016400FD17EDFFB7170040930670052380D704F1
:10017400130780FA2380E7040F1000007D8923947D
:10018400A70001000100010001002380070423806F
:10019400D7042380E7040F1000003727004093069C
:1001A4001005A303D78023800704828013760504F7
:1001B4006DDE03C6A700418A1DE22380D704238095
:1001C400E7040F10000003C7A70013670701238586
:1001D400E7009307007D01000100FD17EDFFB7174D
:1001E4000040930670052380D704130780FA238008
:1001F400E7040F1000007D89136505042394A7000C
:100204000100010001000100238007042380D704BA
:100214002380E7040F1000003727004093063005C1
:1002240049B74111814601468145114506C601265B
:10023400B7170040130770052380E704130780FAFB
:100244002380E7040F10000003C767041367170037
:100254002383E70423800704B2404101828081465E
:10026400014681451145E124B71700409306700506
:100274002380D704130780FA2380E7040F100000BB
:100284007D562396C7022380D7042380E7040F10EA
:10029400000003C76704136717002383E704238060
:1002A400070401A0BD473305F50201007D1575FD66
:1002B4008280411122C426C206C6AA84014463175F
:1002C4009400B24022449244410182800504130503
:1002D400803E4204C13F4180DDB7B7170040130799
:1002E40000032388E702854723A8F18673002030A2
:1002F40097F0FFDFE780A08473002030411106C629
:10030400D923FDBF37370040834747009946BD8B4B
:10031400638AD706011122CE26CC4ACA3147639F8D
:10032400E70237340040938401888347A40093F79D
:10033400F70FADEF89451385418897F0FFDFE7801C
:100344006018B7E700E0B843C146B4C3B706000479
:1003540023A0D718B8C30F10000039A81147639D14
:10036400E700A30701001544B7340040138901884E
:100374008347F100637CF4007244E244524905610E
:1003840073002030834757007300203083C58400F6
:100394000325090097F0FFDFE780E0C98347F100F8
:1003A400850793F7F70FA307F100D9B783458400B6
:1003B400884097F0FFDFE78000C885BF37370040EB
:1003C400834747409946BD8B638AD706011122CEE5
:1003D40026CC4ACA3147639FE702373400409384EE
:1003E40001888347A44093F7F70FADEF8945138540
:1003F400418897F0FFDFE780E00CB7E700E0B843FF
:10040400C146B4C3B706000823A0D718B8C30F1059
:10041400000039A81147639DE700A30701001544B4
:10042400B7340040138901888347F100637CF400EA
:100434007244E244524905617300203083475740B7
:100444007300203083C584400325090097F0FFDF43
:10045400E78060BE8347F100850793F7F70FA30792
:10046400F100D9B783458440884097F0FFDFE780E7
:1004740080BC85BF2303048095472303F4802302B3
:10048400A480828083076480E3CE07FE2303048074
:10049400828083076480E3CE07FE03454480828024
:1004A40083076480E3CE07FE2302A4808280411187
:1004B40026C44AC24EC006C61377F50BAD47AA89B7
:1004C4002E8995446306F70019456D37653F8D44C1
:1004D4004E854D37FD59FD1463983401B240A24452
:1004E4001249824941018280135509011375F50FA0
:1004F400453F2209CDB7011126CC06CEB70408002A
:1005040051371545853F713769372AC6A53F3245AE
:100514009377150089EB136515001375F50FF240F9
:10052400E24405618280FD14E9FC0145CDBF3971C7
:1005340026DC4ADA4ED852D656D45AD25ED062CE8F
:10054400B7E700E006DE66CC6ACA414783AB07041E
:1005540022C6B8C37D5703AB070083AA470023A074
:10056400E71823A2E718B717004013077005238084
:10057400E704130780FA2380E70483C74704130CB6
:1005840075FFB684E207137CFC0F85462A8A2E8900
:10059400B28937240040E187015763FA8601630872
:1005A400D5008946130700026313D5000157D98F7C
:1005B40093F7F70F371D00402302FD04114723036F
:1005C400E4801305F00F7D35894C6D3D63EB8C1190
:1005D400B70707003E99378707007955637EE9021C
:1005E400B3079900636AF702A947631CFA0689E412
:1005F4008144493D26850DA0CA8509454D3D85099F
:1006040003C5F9FFFD140509613D81C49377F90F12
:10061400FDF7D53569FD7D55B71700401307700503
:100624002380E704130780FA2380E70403C7470401
:10063400418B2382E704B7E700E023A07705F2505B
:1006440023A0671123A25711E25432445259C259CC
:10065400325AA25A125B825B724CE24C524D2161B7
:100664008280A5476314FA0685699307F00FB38661
:100674009700B374F900B69493C7F7FFFD8C33F970
:100684002701416A056C9387F9FFB3F7270199E3C2
:1006940063FC340193D94900C147E3E637FF89BFBE
:1006A4008567C169FD17E1B71305800D63884901AA
:1006B400130500026384890113051008CA85C53B2C
:1006C4001D3D31D94E99B3843441D9B7CA852D45DE
:1006D400F93BCE94E38E99F08509653BA38FA9FE7F
:1006E400D5BF9307FAFF93F7F70F63ECFC080347B2
:1006F4005D04B70708001377070219E3B7870700FB
:100704007955E37BF9F033079900E3E7E7F089478C
:100714006310FA048980554AE38C04ECCA850945C0
:100724007933910903A7C9FF91472320E480030784
:100734006480E34E07FE23034481FD17EDFBFD14A3
:10074400110981C49377F90FE9FF753371F5E1B5A8
:100754008547E307FAF4CA852D45913B1389F4FFD5
:10076400E38804E83D339377390091EB83260480D2
:1007740003A7090093874900E39DE6E6BE89CA847E
:10078400F1BFB5476316FA001305900BE5318DB53B
:10079400B1471305B00AE30BFAFE9947631EFA0248
:1007A400CA852D45293381440D4C214ADD31639698
:1007B40084018327048023A0F9008504E39844FF7F
:1007C4008327048013172901635507002392F90036
:1007D40005B523A2F90029BD9D476319FA02814595
:1007E4001305B004E931BD4423A0090023A2090084
:1007F4007D59453193F77400CE9703C70700FD1464
:10080400398D2380A700E39624FFDDB3A14763124B
:10081400FA04D5318144630D09008D479304C00364
:100824006308F900930400056304990193044004E8
:100834001375C507E30E95DA19452D39A131054520
:1008440015392685B1390945A1397531E31205DA1F
:10085400D9B391476319FA001305600621391D3194
:100864001305900925B7E3050AD8F15459B309CD06
:10087400B7170040130770052380E704130780FAB5
:100884002380E7042396A702828019C1814799E94E
:1008940082803387F500834607003307F500850718
:1008A4002300D700E397C7FEE5B719C1FD5781E9D7
:1008B4008280910503A7C5FF1105232EE5FE7D1651
:1008C400E319F6FEF5B7797122D417340000130446
:1008D40064A11C4006D626D24AD04ECE91C7829738
:1008E4009737000023A007A05C4089CB03D5C189BA
:1008F400BD3F5C40829703D5E189953F1C406399D5
:1009040007189737000083C7F79F858B95C79737DC
:100914000000A389079E173700000347D79E91471D
:1009240063FCE700792B9737000083C7D79DF9173D
:100934008A07A2979C4382979737000083C747A1F1
:10094400918B89C7977000E0E78080051C4491C3B0
:1009540082979387818998431736000003465696F9
:100964003E89973400009384A4959737000083C789
:10097400279593961700BA9683D6060063800610CF
:100984009737000083C7C79363F2C70886073E976B
:10099400835507002310070003D5C1892EC623926F
:1009A400018AF1359387018B9C4317350000034579
:1009B400259113172500BA979C43B2458297AA89BB
:1009C40003D5E1896D359737000083C7678F139787
:1009D40017008327090003D5418A1345F5FFBA9709
:1009E40003D7070033753501598D2390A70083C7BA
:1009F4000400850793F7F70F173700002302F78CDD
:100A0400173700000347D78B63E6E70097370000EA
:100A14002388078A1C40ADEF9387818A98433E84DC
:100A240025CB9737000083C7578E91CB97370000AB
:100A340083C7778D89E7977000E0E78000931C40B7
:100A440082972A8431C59C48AA971737000023212E
:100A5400F7889387C18A9C4385CF03D5C189013D1B
:100A6400228597F0FFDFE780C02A2254B2509254C7
:100A74000259F24903D5E1894561D5BB850793F74E
:100A8400F70F97360000238DF682E3E0C7EECDBD65
:100A9400B250225492540259F249456182809167BE
:100AA400B7C600409387373023A6F6200F10000006
:100AB400973700009387C780884F9387C18D9C43E5
:100AC400316713073730F053B7071000FD17918FC4
:100AD40099833A0523A6E6205D8D82804111B717DC
:100AE4000040985F3AC6945F3247E39CE6FE324585
:100AF40041018280411106C6D5379726000083C67E
:100B0400A679858AB1C6930730333307F502B33724
:100B1400F5023983CA07D98F172700001307477ACC
:100B2400584B01456303F7023385E740636BF700D5
:100B340037653D0889C637856F0813050590198DFB
:100B44003E95172700002327F778B24041018280A1
:100B5400E5473307F502B337F5022583DE0765BFA2
:100B64000327C50F8346B50097270000938747796D
:100B74009C4F58439386160295829043FD1693F634
:100B8400F60F10C3D04350C3904710C7D04750C787
:100B9400904B10CBD04B50CB904F10CFD04F50CF69
:100BA40091C61307070293870702C1BF8280834758
:100BB400E50193F7E70FF1EF2A870345F50171E9A2
:100BC400034607018346870009CA8345A70297277E
:100BD400000083C7776C63E7F50093F70601C5CF80
:100BE400814709CA8347871503467715C18AA20737
:100BF400D18F81CA8346B7150347C7152207558F7E
:100C0400BA97D1CB173700001307878738474111AC
:100C140022C406C67D548326070863F386003684FF
:100C2400184375FB172700000347076793168701CE
:100C3400E18663D906029387C713958317270000BB
:100C440003472766BA9763D006041D8C9387418BAC
:100C54009C4382973335A400B240224413451500C7
:100C640041018280058B9387C71209CB8A0793873A
:100C7400F7031305D007B3D7A702C9B78607FD0743
:100C84001305D003CDBFE372F4FC3705C0A82A9442
:100C94006DBF014582808280411122C41384C18CBE
:100CA40018404AC006C61C5F26C21389818C9983EA
:100CB400858BC1C31C5F972400009384646493F7FD
:100CC400F7F91CDF9727000083C7876393F70704AE
:100CD4008DC39387418B9C4382979727000023A958
:100CE400A76283C7040093F7F70B172700002309B3
:100CF400F760854717270000A306F76083C7440001
:100D040093F7070481EF9387C18D9C43D844B8D3EC
:100D1400930700FC172700002306F75E838764000F
:100D240063D90700832709009C4317270000230C7D
:100D3400F75C18401C5F8583858BC9CBF5571CDF96
:100D44000100010001000100010001000100010097
:100D54000100010001000100010001000100010087
:100D64000100010001000100010001000100010077
:100D74000100010001000100010001000100010067
:100D84000100010001000100010001000100010057
:100D94000100010001000100010001000100010047
:100DA4000100010001000100010001000100010037
:100DB4000100010001000100010001000100010027
:100DC4009387C18D9C4313075004B8CB18401C5F14
:100DD4009183858B89CFBD571CDF9387C18D9C433D
:100DE40023A80704854717270000230DF7508327FE
:100DF4000900D8430583058B19C7D843759BD8C30D
:100E0400D843799BD8C3B240224492440249410159
:100E14008280397106DE16DC1ADA1ED82AD62ED460
:100E240032D236D03ACE3ECC42CA46C872C676C416
:100E34007AC27EC09535F250E2525253C2533255B3
:100E4400A255125682567247E2475248C248324E61
:100E5400A24E124F824F2161730020309387C18DBF
:100E64009443172700001307A749BC5289CF83472F
:100E74002700858B89EB83473700858BFDD7972720
:100E8400000023810748828037C700401306C0034F
:100E940093062003972500009385854683278720A2
:100EA400C18393F7F7036369F60083278720C1831F
:100EB40093F7F70363E6F60083C74500858BF9DFF4
:100EC40082809387C18D94431727000013074743FB
:100ED400BC5289CB83470700858B91CB97270000B1
:100EE4002382074297270000A38E0740828083470E
:100EF4001700858BF1DFDDB79387C18D904337C72A
:100F04000040C145E54683278720C18393F7F70353
:100F140063FBF50083278720C18393F7F70363E41A
:100F2400F6003C52EDF382801387C18C1843AA87E4
:100F3400185F1583058B25EF0345150015051377F9
:100F4400C51F19C6B386E70083C626002300D60052
:100F540095C59726000083C6063B93F6060409450B
:100F6400A1CAB386E70083C63600054693F5F606A4
:100F74006390C504E206E18663CC06023385E7008C
:100F84008347150003470500A20793F70770D98F1D
:100F94001397070141839376074099C61367078027
:100FA400239AE18C01458280239AF18CE5BF0545A3
:100FB40082809386C18D8C42368597260000938665
:100FC4002634984593170701C183137817203E866A
:100FD400630408041377072079C303C72600136743
:100FE400170017280000230EE83013070019B8D1A2
:100FF400130700F8972500002386E5301387C18C7A
:101004000C4337080010D855719B13672700D8D5B7
:1010140098413367070198C11377261005C31376E7
:10102400061059CE03C706001367170017260000E1
:101034002308E62C172700002318072C83C6460034
:1010440093C7F7FFC207E206E186C183184163D163
:1010540006029396170163DE060630538D4663E954
:10106400C600854617260000230ED6283453FDFEFD
:1010740097260000938606218386460163DD0600D9
:1010840093960701C18663DC06047053894663E4C2
:10109400C6007453FDFE1447F58F1CC7828003C736
:1010A40016001367170097250000A38BE524172764
:1010B4000000230907241727000023170724A9BFCA
:1010C40003C736001367170017260000A30BE62298
:1010D40095B78546172600002306D62251BF5447EC
:1010E4001396060163510602B7061000FD1674D369
:1010F400972600009386C61C944E8506172600008A
:10110400232CD61C49BFA166D58F71B7397106DE71
:1011140016DC1ADA1ED82AD62ED432D236D03ACEDB
:101124003ECC42CA46C872C676C47AC27EC0513525
:10113400F250E2525253C2533255A25512568256BD
:101144007247E2475248C248324EA24E124F824F73
:10115400216173002030172700001307271C8346E2
:10116400B7019727000083C7B71EB69793F7F70F09
:10117400FD4663EAF6044C4B97260000A380F61A5A
:101184009727000083C7971905473317F700972659
:101194000000A38FF61A6D8F1DEF9726000083C6FB
:1011A400761BB3F6D70213050002814733D6F50048
:1011B400058A13F8F70F09CE6399E6009727000014
:1011C400A38E0715828081177DB705071377F70F64
:1011D4008507E39DA7FC82809387818E9843B75748
:1011E40002009387279F83260709139656006358A6
:1011F4000600832607091396660063440600FD175C
:10120400FDF3828051C9AA870145C9C98D07C20768
:10121400C183F19BC207C18313074003636BF702C9
:101224001387C19208431387419214436396A6021D
:101234001727000013070705185B014525C3411153
:10124400C20706C60545DD8D0297B240014541013E
:10125400828013878192F9B70357650005EF03571E
:1012640045006369F702B306F74021466370D6026E
:101274001041938687001D8FAA96611790C223920E
:10128400E6002393060014C12312F5002313B500CE
:1012940021058280084159BF01458280828001CDA9
:1012A4009387C19203A80700938741928C43014717
:1012B400C28763E3B70082809443636FF50663EDEE
:1012C400A60613868700E368C5FE03D5670021667A
:1012D40005066317C50003C6819B0506238CC19AC6
:1012E4002393070063840703138681921042630FDC
:1012F400F6000356670019EA83D7470014C38356E0
:101304004700B697A1072312F700BA879843E3046E
:10131400B7FA938681929442E30FD7F88356670015
:10132400D9FA83D64700035647001843A106B2965C
:101334002392D70098C382803E87B6879DBF000062
:10134800974100209381811517710020130101CB6B
:1013580013054000972500209385454A173600203D
:101368001306C67D63FAC5008322050023A0550035
:1013780011059105E3EAC5FE17D50100130585D7C8
:10138800973500209385857B1386018563FAC50010
:101398008322050023A0550011059105E3EAC5FE47
:1013A80013850185976500209385859B6377B50034
:1013B800232005001105E36DB5FE9302800873A094
:1013C8000230972200209382624393E212007390C6
:1013D800523037170040930770052300F70493072E
:1013E80080FA2300F7040F1000003C47B70600FA04
:1013F800E116F58FB70600069506D58F3CC79712FC
:1014080000009382627F73901234730020303D4352
:101418002A876373C3029377F700BDEFADE5937630
:1014280006FF3D8ABA960CC34CC30CC74CC741078C
:10143800E36BD7FE11E28280B306C3408A069702A7
:10144800000096966780A6002307B700A306B7009A
:101458002306B700A305B7002305B700A304B70008
:101468002304B700A303B7002303B700A302B70000
:101478002302B700A301B7002301B700A300B700F8
:101488002300B700828093F5F50F93968500D58DDC
:1014980093960501D58D61B79396270097020000B2
:1014A80096968682E78086FA9680C1171D8F3E96AB
:1014B800E374C3F8A5B7B717004003C777051377D8
:1014C800E70FA38BE704130700F8A38DE7043D4754
:1014D800238CE70413075003A38CE7048280B71713
:1014E800004003D587005D715ED64205418186C6FE
:1014F800A2C4A6C2CAC04EDE52DC56DA5AD862D49A
:1015080066D26AD06ECE9377050C13070008814B1C
:10151800638EE718130700046392E716B7240D8F4C
:101528007D8993840480B3D4A4029167938707E8E4
:10153800BE94A167938707D0B3D4F402EFA0710CCF
:1015480097C701009387872C9043D443EFA021408D
:10155800EFA0B14D2A8B939C040103D9018593DC3C
:101568000C0163150900056913090980B7170040C4
:10157800130770052380E704130780FA2380E70424
:101588000F1000000547371A0040939D0401096CAD
:1015980085662389E704D14A814E8145130D0A04E3
:1015A80013087005130680FA894893DD0D01130CA2
:1015B8000C712943FD1623000D012300CD000F10E7
:1015C800000023162A0323000D0083472A05898B70
:1015D800EDDF83570A0583472A05898BEDFF83478B
:1015E8002A05898BEDDF83570A0523982185C207D1
:1015F800C183338597419319050193D909416386BE
:1016080009163387B9026350070E850EC20E93DEA2
:101618000E0163EAD80D63DB050A3305B040931564
:101628000501C185C204C18063D9350BB7170040D5
:10163800130770052380E704130780FA2380E70463
:101648000F1000000965130505713385A50223965F
:101658007703238007043345950242054181B6404C
:10166800264496440649F259625AD25A425BB25B02
:10167800225C925C025DF24D61618280B1E3B774D5
:1016880089097D8993840480B3C4A40291679387F0
:1016980007E8BE94A167938707D0B3C4F402EFA00C
:1016A800417697C701009387E71679BD97C7010070
:1016B80093878715856403AB07009384843861BDDD
:1016C800130B0000954441BD3A89F5B5B387FC403A
:1016D8009399070193D90941B1B7096513050571B4
:1016E8003385A9028DBF3385B74163E4FC00338598
:1016F800FD40330585033344B50363458300131563
:101708000401A9BF4E8536C642C432C2EFA0912556
:10171800DA85EFA00176EFA0D11E931E050193DEB6
:101728000E41B307D941C207C183056E3E871246F1
:10173800224889482943B24663E3C70136874207EE
:101748004183631A27011307190063443001130703
:10175800F9FF42074183FD1A93FAFA0FCA8BCE8527
:10176800E3940AF62398E18459BF0145CDBDB71724
:10177800004003D587005D7186C642054181A2C439
:10178800A6C2CAC04EDE52DC56DA5AD85ED662D439
:1017980066D26AD06ECE02C69377050C130700088E
:1017A800638FE714130700046393E712B7240D8FC0
:1017B8007D8993840480B3D4A4029167938707E852
:1017C800BE94A167938707D0B3D4F402EFA06163F6
:1017D80097C70100938787039043D443EFA021174D
:1017E800EFA0B1242A89939A040103DB218593DAB7
:1017F8000A0163150B00056B130B0B80B71700402C
:10180800130770052380E704130780FA2380E70491
:101818000F1000000547939B04018969056A238915
:10182800E704D14D014D814C93DB0B01938909717C
:101838007D1A5A8597200020E7800008330C55410F
:10184800420C135C0C412399618563030C16B307A2
:101858009C0363D3070E050D420D135D0D018947E7
:1018680063ECA70D63DD0C0A33059041931C050159
:1018780093DC0C41C204C18063DA8C0BB7170040BB
:10188800130770052380E704130780FA2380E70411
:101898000F1000000965130505713385AC02324746
:1018A8002396E702238007043345950242054181C8
:1018B800B640264496440649F259625AD25A425BC7
:1018C800B25B225C925C025DF24D61618280B1E3A1
:1018D800B77489097D8993840480B3C4A40291678D
:1018E800938707E8BE94A167938707D0B3C4F4022F
:1018F800EFA0215197C701009387C7F1F1BD97C7A2
:101908000100938767F0856403A9070093848438EE
:10191800D9BD130900009544F9B53E8B19BF33852D
:10192800AA40131C0501135C0C41A9B709651305EE
:1019380005713305AC028DBF63FEAA0033057541FE
:1019480033053503A9473344750363C88700131566
:101958000401B1BF3385AB40E5B76285EFA09100C4
:10196800CA85EFA00151EFA0C179131D0501135DD0
:101978000D413307AB41420741838565BA876363ED
:10198800B700D287C207C183639A670193071B0018
:10199800634480019307FBFFC207C183FD1D93FDCC
:1019A800FD0F5AC6E28CE39A0DF62399F18445B7E8
:1019B8000145FDBD41112A83014E930E407E130F50
:1019C8000019930F400663ED6E0A9308001913037C
:1019D8004006B3781503854E0D4FA14F337365024A
:1019E8000D891335150063E7BE0C1308F6FF794619
:1019F80072984208135808013307C70213D6170014
:101A0800BE0732976146B3F6C60213068070B386E6
:101A1800C6023697A166F58F42075D8FB71700405B
:101A280083C6F70293F60608A307D1000346F10020
:101A380083C6F70293F60608E394C6FE8346F100D0
:101A480093F6F60FF1DE930670052380D70493060C
:101A580080FA2380D7040F10000023AA070383C647
:101A6800170393E60608A388D702D8DB03C7170332
:101A780013670704A388E7022380070441018280D3
:101A88007D133368E3039308E016630E0800336898
:101A9800F3039308D016630808009378330093B8CB
:101AA80018009388D81633081E01131E0801135E08
:101AB8000E0111BF6393E5030548638608000148DA
:101AC800630303002A8871087298FD15131E080124
:101AD800C205135E0E01C18139B713F8150063F40E
:101AE800BF007908D5B713381800E5BF914763EEF2
:101AF800B70217C70100130767D28A05BA959C4138
:101B0800BA978287B717004003A7470B1345F5FF1D
:101B1800698F23AAE70A03A7070B698F23A8E70A97
:101B280003A7070A798D23A0A70A8280B717004068
:101B380083A6470B1347F5FFF98E23AAD70A83A676
:101B4800070B558D23A8A70A83A6070A758F23A01C
:101B5800E70A8280B717004003A7470B498F23AADB
:101B6800E70A03A7070B1345F5FF45BFB717004062
:101B780083A6470B1347F5FF758F23AAE70A03A728
:101B8800070A598D4DB7B717004003A7470B498F70
:101B9800EDB7914763EEB70217C70100130747C9AE
:101BA8008A05BA959C41BA978287B717004003A760
:101BB800470D1345F5FF698F23AAE70C03A7070D07
:101BC800698F23A8E70C03A7070C798D23A0A70C1E
:101BD8008280B717004083A6470D1347F5FFF98E9B
:101BE80023AAD70C83A6070D558D23A8A70C83A677
:101BF800070C758F23A0E70C8280B717004003A756
:101C0800470D498F23AAE70C03A7070D1345F5FFD6
:101C180045BFB717004083A6470D1347F5FF758FDB
:101C280023AAE70C03A7070C598D4DB7B717004037
:101C380003A7470D498FEDB7B717004003D58700B5
:101C4800420541819377050491EB9377F501375568
:101C5800E801130505803345F50282809377050C6A
:101C6800130700046397E7009377F50137459C1C39
:101C7800CDB72165130505D08280B7F700E0C843CA
:101C88009C478280814737370040A14663C4C7001C
:101C9800328582800345B740E38EA6FE3385F50082
:101CA8000345050085072304A740CDB797370020D3
:101CB8009387C7FE9C43175700201307670A3E9572
:101CC800636EE50017670020130747136368A700D2
:101CD800173700202324A7FC3E858280FD57EDBFDF
:101CE800411122C406C62A84813F2947B307E50269
:101CF800B2408D83B3D7870222449507B3D7E70252
:101D080037370040C207C1832316F700410182809C
:101D1800716541111305052006C6D937B73700404C
:101D2800130770F82381E7000D47A381E700130725
:101D38000004A380E70005472387E700B24041017C
:101D4800828037370040834727001A0593F7F70347
:101D5800C98F93F7F70F2301F7008280B737004048
:101D680003C7170019C9D98DA380B70003C7070097
:101D7800136787002380E700828093C5F5FFF98DFC
:101D8800A380B7008280B73700402147B7360040AC
:101D980091E1828003C6B700E30CC7FE0505034640
:101DA800F5FFFD15C2052384C600C181D5B74111D1
:101DB80022C406C62A8449352947B307E502B2403A
:101DC8008D83B3D7870222449507B3D7E702373705
:101DD8000040C207C1832316F74041018280716524
:101DE80041111305052006C6D937B7370040130738
:101DF80070F82381E7400D47A381E74013070004EB
:101E0800A380E74005472387E740B240410182802D
:101E1800B7870040238007001307C0FC2386E7002C
:101E2800A386E70003D741852398E70003D7818578
:101E3800239AE70003D7C185239CE70003D70186CF
:101E4800239EE70089462381D70249472383E70277
:101E58002385E7022387E7022389D702A3810700A6
:101E6800130790022380E700B716004003D7A601A6
:101E78001367070C239DE6007D572383E7001307AC
:101E880010F8A380E7001D472381E7008280B78709
:101E980000402384A70203C7A7021377C70F23852F
:101EA800E70282802382018623A40186B7170040B7
:101EB80003A7070CB706C0FFFD16758F23A0E70C14
:101EC80003A7070DB7064000558F23A8E70C03A703
:101ED800070C3D9B23A0E70C03A7070D1367070119
:101EE80023A8E70C8280B717004003A5470C83A7F7
:101EF800470C598113451500C18B058999E3136572
:101F0800250083C74186638CA7002382A18601C967
:101F18009387818603A307006303030002838280FB
:101F2800411106C6EFF0AFDBBD4763F4A700EFF041
:101F38000FDBEFF0DF83BD4763F4A700EFF03F83CB
:101F4800B24083D5218503D5018541016F107013F7
:101F5800411193962500AA852D4506C69720002095
:101F6800E780A0DCB240014541018280411126C2D0
:101F78009394250022C44AC02A843289A686AA8559
:101F88000146254506C697200020E78000DAA68688
:101F98004A86A285294597200020E78000D9B240CB
:101FA800224492440249014541018280011122CC18
:101FB80006CE3714004026CA4AC84EC652C48344C7
:101FC8007405034AB4058349840503499405EFF071
:101FD8008FCE8347A40593F4F40F137AFA0F93E78F
:101FE8001700230DF40493F9F90F1379F90FB717B4
:101FF800004003C7A705058B6DFF03D5C705A38D53
:102008004705238C3705A38C2705A38B9704F2403B
:102018006244D2444249B249224A05618280411150
:102028009397050122C406C6C1872E8463DA070088
:10203800EF10000C19C1EF1000052165218D1DA0BE
:1020480093F7150013C5150091EF93F7250099CF65
:10205800593D1306000A894503C5C186EF10605A29
:1020680013452400B2402244410182809397250100
:1020780063D00702EF803065653537F60200130636
:1020880006E0896503C5C186EF10A05709657DB7CD
:10209800939715010145E3D707FC17B50100130510
:1020A800E57EEFA0215613060064916503C5C1863D
:1020B800EF102055116559B75D71494697B5010074
:1020C8009385457817C50100130545AD86C6EF1001
:1020D800003B01E917B5010013050578EFA081520F
:1020E80001A037F700E0F9575CC7FD571CCB8566A0
:1020F800B7E700E023A0D7101306701010C3B84349
:102108004146B0C323A0D718B8C30F100000130668
:10211800C00381454800EF1060309737002093874F
:10212800E7073EC28967938707802314F100ED47CC
:10213800A309F1009307A010231AF100D147230B3C
:10214800F100A167938707E03EC6970700009387D1
:1021580067E03EDC97070000938787E13EDE85470E
:10216800230CF100B5472300F1029707000093877D
:1021780007B13ED297070000938787E33ED69707BB
:102188000000938727DA3ED8580097C70100938745
:1021980067F297C60100938686F103C65700FD17BC
:1021A8000507A30AC700E39AD7FE4800EF103003DB
:1021B800AA8501C917B501001305456BEFA0413089
:1021C80001A0B64061618280411117050000130526
:1021D80045E506C622C4EF10007D1384C18623009E
:1021E800A4003128C131034504002244B24037F627
:1021F8000200130606E0896541016F108040411115
:1022080022C406C637140040930670052300D40480
:10221800130780FA2300E4040F1000008347F40238
:1022280093F7A70FA307F4022300D4042300E404C0
:102238000F1000008347F40293E72700A307F40276
:10224800C5311305407E23000404814701478146B8
:1022580005468545EFF00FF62244B240014541019D
:102268006F101025938701A523AAF184938701B1E4
:1022780023ACF184938701B9411123AEF18493878C
:1022880001C106C623A0F1866136EF00905BB2401B
:10229800B7E700E03707400023A0E710410182803C
:1022A800B787004083C7A702858B85EF411106C613
:1022B8009386C18513F7F70F6369B70013F5F50F18
:1022C800F936B2400145410182803307F5000346E3
:1022D8000700984213F8F70F850742972300C704B1
:1022E800D1BF05458280011122CC26CA4AC84EC6F4
:1022F80006CEAA8401441389C1859389C188639055
:1023080084021387018989460F00500FAF26D70C26
:10231800F2406244D2444249B2490561828083272F
:10232800090003A50900A29783C507000504F5293C
:10233800F9B7B787004003C767001377F70F93769D
:10234800270063830646011106CE22CC26CA4AC856
:102358004EC603C777009306000313770703630B82
:10236800D70203C7770091461377F703630CD71E8C
:1023780063E3E60C85466305D71C6309071C894699
:10238800630DD7188D46630DD71AB78700400947E4
:102398002383E7003787004083477700E207E18718
:1023A80063DE072C930720FC2301F70293864185FF
:1023B8008842034775008347650022075D8F239B8A
:1023C800E18683471500A38AF1868344050013F646
:1023D80004066305061E1307000C6399E43213070D
:1023E800F005639EE71897C70100938767CB23AC76
:1023F800F18601440946938781878C43EFA0E10069
:102408009307F00F6301F42683D7618793060004CE
:102418003E8763F4F6001307000442074183998F4F
:102428009376F70F239BF186B78700402380D70266
:10243800130700FC2DAC93062002630AD70E63E352
:10244800E602930600026306D70493061002E31E11
:10245800D7F203C767021377C70F136727002383D1
:10246800E70225B7930630026305D70E93064002AC
:10247800E31DD7F003C72703134707042389E7029F
:1024880003C727031377C70F136727002389E702BA
:10249800EDBD03C7518795466303D7069946631B6D
:1024A800D7069387618703D4070013070004BE8407
:1024B8006374870013040004938741851389818717
:1024C800884342048325090041802286EF90F173F6
:1024D80083D704009379F40F818F239BF186832798
:1024E80009003E9423AC8186B787004023803703D8
:1024F80003C72702134707042381E70279B503C7F7
:10250800370083C6618713770708558FA381E700D3
:102518000947DDB723800702E5BF03C777001377B4
:102528000704E30407E603C58700753BB9BD03C785
:10253800A7021377C70F136727002385E702B1B5F2
:1025480003C7770013770704E30107E483C787000D
:102558002DBD03C7E7021377C70F1367270023872B
:10256800E70225B503C7770013770704E30F07E0F1
:1025780003C72703134707082389E702C1BF1307C7
:1025880050091304F00F6399E702834735000347A6
:102598002500A207D98F61476397E70097C7010015
:1025A800938747B0A9B5194701446397E70097C7D0
:1025B8000100938767AF25BD014635BD2946636491
:1025C800F60A17B601001306A62C8A07B2979C4391
:1025D800B297828783473500834625000946A207BC
:1025E800D58F93D687006382C60A6368D60085476D
:1025F800638FF6001304F00F09A88D456381B60AAE
:10260800930720020144E397F6FE814709A897B78C
:1026180001009387272D23ACF1860144C947C207DF
:10262800C18363F4E700239BF1869387618703D610
:1026380007009307000463F4C70013060004938996
:1026480081871319060183A50900135909014A86D0
:10265800EF90B15B03A609004A9623ACC1869307A5
:10266800F00F6315F40AB78700401307F0FC2381C5
:10267800E702B787004009472383E700F240624436
:10268800D2444249B2490561828097B701009387D5
:10269800E72223ACF18601449307700249B793F708
:1026A800F70F8546638ED7008DC7E395C7F497B7B4
:1026B80001009387672523ACF1860144F14785B76C
:1026C80097B701009387472323ACF1860144B947A4
:1026D800B9B797C701009387679C23ACF18601447B
:1026E800914735BF83472500239BF18605A083C703
:1026F80041872300F50003D76187854763F8E70022
:102708008547DDB783472500238AF186E204E18403
:10271800E3CC04CE814609BB13F7F4018947E314DF
:10272800F7F4834745006381E704636CF7000547C6
:10273800E39BE7F2378700408347670293F7370741
:1027480099A0130710086388E70213072008E39C81
:10275800E7F0378700408347A70293F7C70B93E753
:1027680027002305F7025DB7378700408347A70294
:1027780093F73707FDB7378700408347670293F71A
:10278800C70B93E727002303F70249B72300050087
:102798009DB7230005009C42A380070003D76187EB
:1027A8008947E3F5E7F689B7937617008DC2A381C9
:1027B800070009472381E70249472383E702238566
:1027C800E7022387E70205472383E70082809376A1
:1027D8004700FDDA03C757001147FDB70CC12312A4
:1027E80005002313C5000CC582801041144583578A
:1027F800650003574500B306D640958F998F63F35C
:10280800B70001A0BA952312B5003305E60082800F
:1028180003574500AA876373B70001A008410D8FCD
:102828002392E700AA958CC38280411122C42E848A
:10283800854506C65D3F23008500B240224441011C
:102848008280411122C44AC0130640062A842E8978
:10285800138501C99385C1C906C626C24137854576
:10286800AA84613791472300F50089452685B53F3D
:10287800B9470D092300F500A30025018D452685DC
:10288800AD3785472300F500A3008500218023018B
:102898008500B24022442685024992444101828043
:1028A800411126C2AA8403D5C18722C406C62E8434
:1028B800493FA285224488C0B2409244410135B7BD
:1028C800411126C28545AA8403D5C18706C622C4FC
:1028D8008D3F85452A84113F23009500B24022850B
:1028E80022449244410182800111854522CC06CEC2
:1028F8002A8402C6313F03470500854717B5010002
:102908001305450A6318F70203574400894717B5AA
:1029180001001305E50A63FFE7008D452285CD3DDB
:102928000357440083472500637DF70017B501006E
:102938001305850AEF90114D0145F2406244056187
:1029480082808347150003470500A146A207D98F57
:10295800239EF18613F7F73FA9836387D70293066F
:10296800F003638DD7188D466398D7186316F71848
:1029780097B501009385857317B501001305C50741
:10298800EF901134014589A0F9476302F704FD4728
:102998006306F710F5476311F716004097B5010075
:1029A800938545FA17B5010013050505EF905131D8
:1029B8008345040017B5010013058504EF905130D5
:1029C80003450400EF90905AE53D2AC635A2004021
:1029D80097B501009385C5F717B501001305C50123
:1029E800EF90112E8345040017B5010013058502E9
:1029F800EF90112D8345140017B501001305C5028A
:102A0800EF90112C17B5010013058503EF90512B9A
:102A1800834724001D4717B501001305E508636FB8
:102A2800F70017B701001307E7EF8A07BA979C4327
:102A3800BA97828717B5010013058501EF90913C7D
:102A48000346240083451400034504009306000848
:102A5800EF90B05595BF17B501001305E5FFF9BF15
:102A680017B5010013050500D1BF17B501001305FF
:102A78002500E9B717B5010013050500C1B717B55B
:102A88000100130525005DBF17B5010013054500BA
:102A980075B717B50100130565004DB797B5010067
:102AA8009385C5EB17B50100130505F5EF90512186
:102AB8001305A100EFA0A00FEF907058AA852A84F3
:102AC80017B501001305C5FEEF90911F8355A100AE
:102AD80017B501001305C5FEEF90911E8D456800DE
:102AE800C133230085008347A100A300F500835765
:102AF800A100A1832301F500324581B59307203059
:102B08006302F70493073030630EF70A9307103017
:102B1800E314F7FE004097B501009385E5E417B587
:102B28000100130565EDEF90B1198345040017B551
:102B38000100130525FAEF90B11803450400EFA032
:102B4800400E59B5004097B501009385E5E217B5E9
:102B58000100130565EAEF90B1168345040017B527
:102B68000100130565F8EF90B115034704009D4770
:102B780063F5E7004945A9332AC6B717004013068D
:102B880070052380C704930680FA2380D7040F10AA
:102B9800000003C7E7041377F7082387E7042380B7
:102BA800C7042380D7040F1000000347040083C61E
:102BB800E7041207558F1377F70F2387E70423805D
:102BC8000704C9B3004097B50100938525DC17B504
:102BD8000100130565E2EF90B10E8345040017B5B7
:102BE80001001305A5F1EF90B10D03450400EFA016
:102BF800000ED9BB41111305800406C697100020AA
:102C0800E78060D0371700408327870A8D45130572
:102C1800002093E707202324F70AEFE03FEDEFF0C9
:102C28000F9C17B50100130565F7EF90B11DEFF084
:102C3800AFC8EFF06FD94D269D20EFA01079EFF0C7
:102C48006FE297100020E78020EB93970501C1877A
:102C580063D50704411122C426C206C62E84492919
:102C6800AA8419C9834705000547638EE700094709
:102C78006380E702268501292165218DB24022441F
:102C8800924441018280484185318924E522DDB79B
:102C9800484199397D2C012CF1BF014582804111B1
:102CA800170500001305A5FA06C6EF00D04FB2407D
:102CB8002382A18041018280AE870F00500FAF2789
:102CC800F50C3E85828001119397050122CC06CE32
:102CD80026CA4AC84EC6C1872E8463DE0700092962
:102CE80011C155262165218DF2406244D2444249E2
:102CF800B2490561828093F71500C1CB0F00F00F30
:102D08009387418898430F00F00F8947631CF704A5
:102D1800938401889C4017B501001305A5DF01497C
:102D280083D5470097B90100938989E0EF904179ED
:102D38009C4083D74700634AF90217B50100130581
:102D480065DFEF90310C2145AD26AA8501CD9307AB
:102D580010102310F5009C405CC117250020034586
:102D680025F4DD2E1345140041B763060900130549
:102D78000002EF90E1789C404E859C43CA9783C53A
:102D880007000509EF90C17365B793F72500014562
:102D9800A1DF0F00F00F9387018998430F00F00F10
:102DA8008947631CF7049384C1889C4017B50100C8
:102DB800130585D8014983D5470097B90100938940
:102DC80029D7EF90E16F9C4083D74700634AF90207
:102DD80017B50100130505D6EF90D1022145D12C76
:102DE800AA8501CD930720102310F5009C405CC1F3
:102DF800172500200345C5EA852613452400EDB5AF
:102E08006306090013050002EF90816F9C404E8510
:102E18009C43CA9783C507000509EF90616A65B7A7
:102E2800411122C4130640062A8497450020938541
:102E3800E5B6174500201305E5C206C6EFF01F9A50
:102E480008C0B240224441018280411122C41306C5
:102E580040062A8497450020938585BA17450020A7
:102E6800130505C106C6EFF07F9708C0B24022449B
:102E780041018280411117B501001305E5CE06C650
:102E8800EF9041788545138541883D351385018844
:102E9800413FB240B7E700E03707000423A0E7103E
:102EA800014541018280411117B50100130505CE86
:102EB80006C6EF902175854513850189F53B138575
:102EC800C1886137B240014541018280011126CA9B
:102ED8008D45AA841385418822CC06CE4AC84EC6A1
:102EE800E13B03D444002685A285EFF07F9229C4F4
:102EF800A285AA89EFE03FE98145138541886D3BAA
:102F0800A28517B501001305A5C4EF90615B814444
:102F180017B901001309C9C1B387990083C5070010
:102F28004A858504EF90C15963C0840217B5010032
:102F3800130545C0EF90016DF2406244D244424906
:102F4800B24901450561828013050002EF90415B9B
:102F5800E1B7011122CC8D452A841385018906CE5B
:102F680026CA4AC84EC6893B83544400228597B96D
:102F780001009389E9BBA685EFF09F89A6852A8978
:102F8800EFF00FB28145138541883D33A68517B50B
:102F98000100130565BEEF90A152014463409402FD
:102FA80017B50100130505B9EF90C165F2406244F9
:102FB800D2444249B24901450561828009C41305DA
:102FC8000002EF90E153B307890083C507004E85DF
:102FD8000504EF90E14ED9B741111705000013051C
:102FE800C5CE06C622C4EF00101C1384818837178B
:102FF80000402300A4008327870C8D451305000893
:1030080093E707082324F70CEFE0BFB8854541454F
:10301800EFE03FB8EFE0DFCF0D45EFE09FD29545F9
:103028000545EFE0BFD3034504001306000A8545B4
:10303800312781451385418841312244B2404101FD
:1030480015BD411117050000130525C806C6EF0078
:1030580090151306000A8945D525814513850189F0
:10306800A139B240410181B523AC05FE1C4191E76D
:10307800010001000CC18280BA8703A787FF6DFF9A
:1030880023ACB7FE82801DC18346E5FF1307F00F0E
:103098009147639EE600411106C697200020E7800D
:1030A800C09FB24081473E854101828095473E8559
:1030B800828001E9014582800145B24022444101F4
:1030C8008280411122C42A84210542059305D00437
:1030D800418106C697200020E780809271DDFD5768
:1030E80023200500231285002303F5002105F1B7ED
:1030F800138741891C43411122C426C24AC006C60F
:1031080001440149BA8489E7A1658D250DC401A848
:1031180003C7E7FF6318A7021DC8A165C126984029
:10312800832784FF6317E40223AAF188FD57232C21
:1031380004FE230FF4FE2285B24022449244024941
:103148004101828011E03E8983A787FF6DBF3E84DD
:10315800E5BF232CF9FED9BFA9C9411122C406C66F
:103168002A849747002083C737952E856368F40023
:10317800193F0D45B24022444101828083A785FF53
:1031880099E703C7E5FF9307F00F6305F700E53DEF
:103198001545CDB7238F85FE13854189F1352285E5
:1031A8002244B240A165410115AE1545828023AA8B
:1031B800018882809387C18A9C4399E33E858280F7
:1031C80003D727006316B70003C70700E308A7FE65
:1031D800DC47E5B74111939705014AC006C622C4EA
:1031E80026C2C1872E8963DE0700193711C1613DE8
:1031F80021653345A900B240224492440249410165
:103208008280AA860145E5D901443D47B3578940E4
:10321800858B95CB9387018A8443BD4791E281478B
:10322800A2978E070545BE94331585001314050132
:103238009C40C8404180829723A0040023A2040038
:10324800334524014DBF0504E312E4FC0144CDBF1E
:1032580097470020938787829C53411122C406C652
:103268001384818095C7829723A4A1800840B7471B
:1032780003009387D73F3305F502B7A72600938746
:1032880037ECB24022443E9523A4A18041018280BC
:10329800974700209387478218409C4BBA9723A4EE
:1032A800F180E9B79387818990439746002083C6C8
:1032B800B680814713F7F70F6360D70A17470020D6
:1032C8000347F783914763E0E70A9747002083C7DE
:1032D800A787918BC9EB0111680006CE22CC26CABC
:1032E800EF105052FD56630FD50C32479737002028
:1032F80083C7F77963F3E70C173700201307C77BF9
:103308004047173700200347A7786305D406058B85
:1033180021CF51473304E40263F1870A9710002054
:10332800E78080FBB2476373F400A2871737002059
:103338000347F775998F3E95973700209387077451
:103348008387470163CD0702B707C0A86369F50201
:10335800B70740573E9525A0850713971700329762
:103368000357E7FF21DB8280130790023304E4024E
:1033780005805DB762076187635707001D8D19E9EE
:103388003705C0A801A8E37BF5FE3707C0A8B30737
:10339800F7403E95973700209387476EDC53829716
:1033A80009ED97370020938727759C4F99C7EF70D1
:1033B8000053EF703045EF70E046F2406244D2446B
:1033C80005618280973700209387076FDC47E38683
:1033D800A7FE173700201307676A83464701BA8498
:1033E800858A9DC65144338487029737002083C756
:1033F800176AE3F487FC97100020E780E0ED973721
:10340800002083C7D7681D8C2295838744011DBF80
:1034180013049002338487020580C1BF2A9609E508
:1034280082800505A30FB5FEE31DC5FED5BF814704
:103438003307F5000307070019E33E8582808507F7
:10344800C5BF01112E8626CAAA8413150601930545
:10345800F004418122CC06CE32C697100020E780C6
:10346800205A2A8419C53246A68597100020E7807D
:1034780080C12285F2406244D2440561828081473E
:103488006314F600054582803307F5008507B38687
:10349800F5000347070083C6F6FFE383E6FE014510
:1034A80082809307F6FFBE952A966313C500828033
:1034B800FD1583C715000505A30FF5FEFDB7814768
:1034C80011E9014582803307F50003470700E31A35
:1034D800B7FE8507E319F6FE054582809737002079
:1034E80083C7975D637FF50013878189931715005C
:1034F80008433E9583570500DD8D2310B50001452F
:1035080082800D458280FD57011117370020232B3B
:10351800F75A9387C18A22CC80434EC69739002038
:103528009389C95526CA4AC852C456C206CE5AC03B
:103538002A8981444E8A973A0020938AEA57184488
:1035480081476374E900B307274103A749021CC4F4
:1035580009CB03A7CA0063F6E70017370020232327
:10356800F756A1E7835524009DE95C44A1E823A60A
:10357800F18A032BC400228597100020E780E051D0
:103588005A8455FC83274A0285CF6244F240D244CC
:103598004249B249224A924A024B056121B3034586
:1035A80004002D3F5C4081CB1CC483572400D5DF29
:1035B800A2844044F9B71C44CDDBC5BFDCC455BF69
:1035C800F2406244D2444249B249224A924A024BEA
:1035D800056182809737002083C7174E6371F50213
:1035E8001387818993171500084393C5F5FF3E9506
:1035F80083570500FD8D2310B500014582800D45D8
:1036080082809737002083C7374B6364F5000145F4
:103618008280411122C426C24AC006C62A842E8945
:10362800B284493E01C504C505452DA0936504F043
:10363800C205C181414597100020E780603C0DE13B
:1036480097370020938787439C5B81C7A2851145E4
:1036580082970145B2402244924402494101828046
:103668009387C18A9C438DE323A6A18A8547232695
:10367800050004C52311250123008500A300F500DA
:103688002322050055B7BA87D84775FFC8C7F9BFC1
:1036980045C539715AD0138B018A22DC26DA4AD8FB
:1036A8004ED652D45ECE66CA6AC86EC606DE56D2FA
:1036B80062CC3689328AAE89AA8401445A8DB94DC2
:1036C800854BF94C03270B00131C3400937AF40F35
:1036D80062971C43A9EF13B5FA0013451500B39779
:1036E8008B0063F65D01930714FFB397FB00939576
:1036F8000701C181528631371DC983270D00014555
:10370800E29784C323A23701630409002300590107
:10371800F2506254D2544259B259225A925A025B18
:10372800F24B624CD24C424DB24D2161828005046D
:10373800E31A94F92145E9BF09458280411122C461
:1037480026C24AC006C6AA842E8932845D3DCA852F
:103758002685EFF03FA609C940C10145B240224481
:1037680092440249410182802145CDBF411122C4C2
:1037780026C24AC006C6AA842E89EFF0BFA32A84AF
:1037880019C1231105009737002083C7E7326394D6
:1037980097002392218BCA8526852D3D014511E08E
:1037A8001945B2402244924402494101828075473A
:1037B800636BA7041387018A1443411126C293142B
:1037C8003500A696944222C406C6AA873A840945BB
:1037D80095C613B5F7003947134515006373F7000D
:1037E800C5178545B395F500C205C18141371C4011
:1037F8000145A69723A0070023A20700B240224450
:1038080092444101828009458280411106C6EFF049
:103818007F9A09C50845B240410182800145E5BF4C
:10382800F54763EDA7049387018A9C431317350076
:10383800BA979843894721C7011126CA06CE9334FF
:10384800F50022CCB94793C4140063F3A7004515CB
:1038580005443314A400420441802EC62685A2855F
:103868006D378947324609C5A2852685593B814768
:10387800F2406244D2443E850561828089473E8594
:103888008280239EA188239FB1888280411106C629
:1038980023A4A18A0295B2409737002023A8A72223
:1038A800014541018280994763E9B7008A05973746
:1038B80000209387A722BE9588C18280411106C641
:1038C800EFA0C03871468145173500201305052142
:1038D800EFF0DFB4130640028145173500201305C9
:1038E800A51DEFF0BFB323A6018A23A4018A973749
:1038F800002083C7671A13D527008D8B3E958D4707
:103908003305F5029305101035051375F50F973734
:1039180000202384A71A99473305F5021305050FDC
:1039280097100020E780C00D23A0A18A35C99947C8
:1039380017360020034666183306F602814513063B
:10394800060FEFF0BFAD9387018A9C439387070F5B
:1039580023A8F18A17370020034727160A07BA97C2
:1039680023ACF188EFF0BF845D269387018B9843E1
:103978009737002083C7571493962700BA961706DF
:1039880000001306668590C293862700850793F783
:10399800F70F8A0797350020A380D512BA9790C3EE
:1039A800B240410182809737002083C7F71017374C
:1039B80000200347871063F1E7021387018B184340
:1039C8009386170017360020A308D60E9396270073
:1039D800369708C33E8582809307F00FE5BF1C41E8
:1039E8006381071A41777D8FB70600208947631BDB
:1039F800D7180357450063070718411122C4194611
:103A08002A849305F00F590506C6EFF05FAB05470A
:103A18008D476303E5161C4481CB58589947630DBD
:103A28000714185C630A07141306C0038145173589
:103A380000201305A504EFF07F9E1306C003A2859E
:103A4800173500201305850397000020E780A06341
:103A58009737002083D747039736002093860602BE
:103A680099E79307001017370020231FF7009737AF
:103A7800002083C7870191E7854717370020230671
:103A8800F7009737002083C7570091E7ED471737AE
:103A98000020A30CF7FE9737002083C727FF91E784
:103AA8009547173700202303F7FE9737002083C771
:103AB800F7FD91E7854717370020A309F7FC9737EB
:103AC800002083C7F7FC99E783C706011737002052
:103AD800A300F7FC9737002083C767FB91E7D1471E
:103AE800173700202305F7FA9737002083C7E7FA2E
:103AF80095E7173700200347A7F913168701618652
:103B08009307C002634806009377170093B717001E
:103B18009387D702173700202301F7F8973700203B
:103B280083C7F7F695E717370020034767F613169C
:103B3800870161869307C0026348060093771700E0
:103B480093B717009387D70217370020A301F7F41C
:103B58008347D40191E7894717370020A30EF7F26E
:103B68009C5691C7829797370020239AA7F4B933B8
:103B7800FD57A388F1908147B24022443E85410118
:103B8800828089473E858280011122CC06CE2A8414
:103B98002EC6EFF0EFEBB245F240818D33A5A502BA
:103BA800229562441375F50F05618280011122CCBC
:103BB80006CE2A842EC6EFF0AFE9B245F240818DD9
:103BC80033A5A502229562444205418105618280A0
:103BD800011122CC06CE2A842EC6EFF06FE7B2453B
:103BE800F240818D33B5A502229562440561828039
:103BF80097370020938787E8985725C3411122C437
:103C080026C206C6BE84029717370020035727EB43
:103C18002A8441C7BA876373A700AA87C207C183EA
:103C2800BA866373E400A286C206C182958F5147A3
:103C38006355F706DC5491C38297854717370020F0
:103C48002300F7ECEF70202897370020239987E6A8
:103C5800B24022449244410182809737002083C7B2
:103C680027EA9DE797370020938707E983C79700DE
:103C7800850793F7F70F17370020A303F7E8A18B01
:103C88009DC7854717370020231CF7E66F708029EA
:103C980097370020A38607E6D5BF9737002083C74C
:103CA80027E6DDD72244B24092444101C5B782805D
:103CB80097370020938787DCD857011122CC06CE8E
:103CC8003E8401C72AC60297324511CD23AAA18A8C
:103CD800170500201305C561EFF05FBBF240624491
:103CE8000145056182808307440163DD070097373A
:103CF800002023AF07DC970700209387075A23AAE1
:103D0800F18AF9B7970700209387075DCDBF0111A6
:103D180022CC17340020130464D6084406CE26CAE1
:103D28004AC801E90545F2406244D2444249056166
:103D380082805C58E5DB185C75D7700085458297F2
:103D48001844B247E300F7FE9305E0041735002056
:103D5800035585D397100020E78080CA17370020C5
:103D6800232AA7D661D1173600200356E6D193053A
:103D7800F00FEFF0AFEA8144173900201309C9D3D7
:103D88009737002083C767D00326C90163C1F402AF
:103D9800328597100020E78040D0014597370020F2
:103DA80023AA07D29737002023A807D2ADBF97359B
:103DB800002083D565CDB38795020844185C8981B6
:103DC80085043E9508C2029765BF411122C4173485
:103DD80000201304A4CA1C4426C206C64AC097344D
:103DE8000020938464CD91EBC84C35E9B24022445D
:103DF800924402490145410182801C5CF5D7DC4CA4
:103E080099EF9305E004173500200355E5C797108F
:103E18000020E780E0BE9737002023ADA7CAC84C32
:103E280061D517360020035626C69305F00FEFF02C
:103E3800EFDE01499737002083C727C5D04CE355EB
:103E4800F9FA9735002083D525C4338525031C440A
:103E5800898105093E951C5C08C28297E1BF9710CD
:103E68000020E78080C39737002023A507C697372F
:103E7800002023A307C69DBF011156C2973A002010
:103E8800938ACABF83A78A0022CC4AC84EC606CEE8
:103E980026CA52C45AC0AA892E8432896385072249
:103EA80003A74A03630707147D476366A71497347B
:103EB8000020938464C003AAC40163170A0A9565A5
:103EC800938515E017350020035505BC9710002091
:103ED800E78000B39737002023AEA7BE2A86630A7F
:103EE800051083A74A0303A58A009735002083D5C8
:103EF800A5B98981829783A78A0003AAC4011737C5
:103F08000020232BF7BC8947639CF908C14763123B
:103F1800F40E9735002083D525B7938505FC914786
:103F2800B3C5F5028A05D29503C705009307A00516
:103F3800631DF70A83C715006399370B4A852286E4
:103F4800910597000020E7800014DC4C52856393AC
:103F580047150145F2406244D2444249B249224AD7
:103F6800924A024B056182809850E38EE7F8956586
:103F7800938525E017350020035505B197100020DB
:103F8800E78000A82A8A35C52A8683A74A0303A59D
:103F98008A009735002083D525AF89818297A5B7F8
:103FA8008D47639DF900C1476315F40497350020D8
:103FB80083D585AD938545FDF199B5B79147639A4A
:103FC800F900631834039735002083D5E5ABA115B4
:103FD800E5B7C147639FF900A14763EC87009735B0
:103FE800002083D565AAC115C1BFDC4C52856397F3
:103FF800470D294585B71307F006568B6361A70A55
:10400800130A05FE1947334AEA02173700200357F7
:10401800A7A7973A0020938A2AAA330AEA023E9A67
:1040280083A70A026395470183A4CA019DE4930507
:10403800E00417350020035525A597100020E780D8
:10404800209CAA845DD583274B039735002083D510
:10405800A5A32A8689815285829791451307A005D1
:10406800898193972500A69783C607006393E60482
:1040780083C61700639C360385058A052286A695A4
:104088004A8597000020E780000083A7CA01E382E1
:1040980097EC268597100020E78020A05DBD1307C8
:1040A800E007E368A7F4130A05F985B783D5270065
:1040B80045BF83A7CA01E38E97F226859710002093
:1040C800E780A09D3DB7973700209387E79ECC4FA8
:1040D8008DD191479306A0058983139727002E97C2
:1040E80003460700E317D6F003461700631C3601A2
:1040F80085078A072286BE954A8597000020E780B3
:1041080080F881BD83572700C1BF97370020938768
:10411800E796984739C79C5FA9C705476313E50425
:10412800411122C41734002013040499504C06C6C8
:104138000DC608509735002083D50595898182974B
:10414800484C97100020E78040959737002023A31C
:1041580007989737002023A10798B24022444101CD
:1041680082808280011117370020130727914EC6DD
:104178008329870022CC26CA4AC806CE52C456C212
:10418800AA842E843289638A09201C5FBA8A99EB33
:104198002945F2406244D2444249B249224A924AED
:1041A800056182805C5BEDD7FD4763E9A70E97390F
:1041B80000209389699083A7C901B1CB03A58A0020
:1041C80083A709026395A70689476393F408C14743
:1041D800E310F4FC173500200355058B91471305B0
:1041E80005FC3345F5029317250003A5C90122866E
:1041F800CA853E959307A0052300F500A300950006
:10420800110597000020E78000E8014559B793059C
:10421800E004173500200355258797000020E78024
:10422800207E9737002023A7A78A49F995B783A747
:104238004A0303A6C9019735002083D5E5848981FF
:10424800829783A78A00173700202327F788ADBFF6
:104258008D47639EF400C147E31CF4F21735002034
:1042680003558582130545FD9377C5FFBDBF91476B
:10427800639AF400E31E94F0173500200355C580B7
:104288002115DDB7C147E395F4F0A147E3E287F0D4
:10429800172500200355457F4115F9B79307F00608
:1042A80063EAA706930705FE1947B3C7E70217276E
:1042B80000200357677D172A0020130AEA7FB38777
:1042C800E702BE998327CA01A9CF83270A02639A06
:1042D80037070325CA0191461308A005FD5593D752
:1042E8002600C207C183139727002A9703460700B1
:1042F800631D060783481700035627006395980631
:10430800B306D64063CF860485078A072286CA8506
:104318003E95C5BD9307E007E3ECA7E6930705F9CB
:1043280079B79305E004172500200355E575970034
:104338000020E780E06C9727002023ADA77851F58F
:1043480081BD83A74A030326CA019725002083D588
:10435800A57389814E8582979727002023AE3777EA
:104368008DBFA300B700B2869DBFB3858600172610
:104378000020035666719105130606FCE3FAC5E0B2
:10438800130634001376C60F1106B29623000701F0
:10439800A30097002311D70085BF97270020938794
:1043A800A771D44FBE89A1C203A5C90191461308BC
:1043B800A005FD5593D72600C207C1831397270090
:1043C8002A97034607006316060583481700035615
:1043D800270063989800B306D640E3D786F2A30077
:1043E800B700B286C1BF8357C70017250020034511
:1043F800C5699305E0043305F5024205418197003C
:104408000020E780E05F9727002023A5A76C49FDDF
:1044180041B317260020035626679725002083C539
:10442800C566B385C502338686001106E3E2C5D6A4
:1044380081BF0145828011C98327050993E7074099
:104448002328F508FD572300F5028280011122CCAC
:1044580006CE2A84034505029307F00F2E866309CA
:10446800F5002EC6EFF0AFB43246FD572300F40234
:10447800834734020357C4039306040293E70706ED
:10448800A301F40283574403A285F240BA97231D7F
:10449800F402624417050000130525FA05616FF060
:1044A8002F9F011122CC06CE2A84034515029307BB
:1044B800F00F2E866309F5002EC6EFF04FAF324697
:1044C800FD57A300F40293061402A2856244F24049
:1044D800171500001305A51205616FF06F9B0111F8
:1044E80022CC06CE2A84034525029307F00F2E8698
:1044F8006309F5002EC6EFF08FAB3246FD57230156
:10450800F40293062402A2856244F24017150000C3
:104518001305851105616FF0AF97972700209387E2
:10452800A77503C70702ED46A301E51403C71702E1
:104538002302E51403D72702A302E51421832303EA
:10454800E51403C74702A30FE51203C7570283D731
:1045580067022315D5142300E514A300F514A183DD
:104568002301F514B7071B00938787142326F51436
:10457800930780142318F514ED4713078004A30A42
:10458800F5148547230B0514A30BE514230CF51428
:10459800A30CD514230D0514A30DE514230EF5144F
:1045A80082800357E503954703562503B307F702AF
:1045B8008356E50293D537406355B600118F93179C
:1045C8003700B3C7D702C207C183231EF502828012
:1045D8008327C50E0D469306F00F03C707000D8B02
:1045E8002305E5006314C70083C62700A30AD50086
:1045F80003C70700418B2308E50083C71700A305FD
:10460800F50082800327050F63030710411122C4B8
:1046180006C683478500032685152A8493F7C70FA6
:104628002304F5008345970021828356C70042067C
:1046380013958501418261856375D606635E05041D
:104648000345870093F5F507A304B700854593E66E
:1046580027006314B50093E617002304D4005C43D5
:1046680089075CC31376F60FA304C4000325840EE0
:104678004C43090597000020E780E0A08327040F3A
:1046880003469400D44303D7C700B296118FD4C30E
:104698002396E700894715A893E717002304F40039
:1046A800D1B713F6F60F635B05040345870085450C
:1046B80093E627006314B50093E617002304D4009B
:1046C800A304C400A30407008547A30BF4008327B1
:1046D800040F01459C4399CF0347A4029727002064
:1046E80083C7D73A6378F7008347840093E70701C5
:1046F8002304F400B24022444101828093E717006A
:104708002304F400A304C400A304070085B70545E7
:10471800828083478500CD9B2304F5008280832710
:10472800C50E0347850083C707009356374089871E
:10473800B58F858B99C7134787002304E50001458A
:104748008280054582808327C50E0347850083C77D
:104758000700935627408D87B58F858B99E71347B8
:1047680047002304E50001458280054582808327B0
:10477800050C85072320F50C91E78327450C850751
:104788002322F50C8327450C93F7070891C7854723
:104798002320F50C2322050C8347350293F70704E1
:1047A80091CF835745030357C503BA97231DF502D5
:1047B8008327450993F7F7BF232AF50882808327C3
:1047C800850C85072324F50C91E78327C50C8507FD
:1047D8002326F50C8327C50C93F7070891C785474F
:1047E8002324F50C2326050C8347350213F7070409
:1047F80009C793E70702A301F502828097270020E3
:1048080093878747BC470145054791E3828083C664
:1048180077006393E60005059C43C5BF411122C498
:1048280091452A84014506C6EFF00FB62315A40466
:10483800172700200357074A854763F4E70483577F
:104848004403835624050355C4041727002013077F
:10485800A7429D8EB386A60283270408832887046F
:1048680085451303F5FF130E8002BE968327841532
:10487800A183C207C183938727028587AD0763E6B3
:104888006500B2402244410182803388C5034687CF
:104898007D56369801E72315B404E5B76314E400A0
:1048A800184075DB832EC7076398AE0003260708F8
:1048B8003306C8403376A6026364F6001843D9BFAE
:1048C800890575BF172700200357C740854763FD33
:1048D800E7068327851583459504172700201307C6
:1048E800A739A183C207C1839387270203238704BB
:1048F8008587AD07FD150546130E80026363B60074
:104908008280B306C603032705087D58BA961A871E
:1049180001E72315C50482806314E500184175DB9F
:10492800832EC7078328C507639A1E0183280708B3
:104938003388D84063E41601338816416364F8006D
:104948001843F9B705065DBF82803C5D97250020B6
:1049580083C50514139885019728002083D88837C4
:1049680085460357C502135888411386470063F6E6
:10497800160D8326851593071700A182C206C182EA
:10498800938626028586AD06635308041307204ED6
:10499800B387E702BD079583B297634908003707D5
:1049A800C0A863E5E70037074057BA972320F50802
:1049B800972700209387472C03A38704D148635384
:1049C8000800CD4801479A877D5695E382808589FE
:1049D80091C513078002B387E7027DBF05671307F8
:1049E800B747B387E702938707049D8375B7639436
:1049F800A7009C43A5CB03A8C7076C5D631CB80040
:104A08000328050883A50708338605416364B800B1
:104A18003306B8406364D6009C4345BF8327050826
:104A280005076207C6972320F5088347B502618703
:104A38008607FD17E349F7F88280090763550802DE
:104A48009307204E3307F7023D07158332976349D2
:104A58000800B707C0A86365F700B70740573E9737
:104A68002320E5088280858991C593078002330752
:104A7800F702E9BF85679387B7473307F70213073C
:104A880007041D83E1B7172700200357A72485478C
:104A980063F0E70E4111972700209387E71D22C492
:104AA800A04706C626C2A28789EB09EC230C05009D
:104AB800B240224492444101828003C7A7016DFBA2
:104AC8009C43DDB76314A40000406DD08347740095
:104AD800D1EF785C7C5D630BF7080347850193078A
:104AE8000008AA84631BF7048357E4021946930558
:104AF80000082314F5062315F50683570403231726
:104B0800F504835724032318F50403554500EF30B3
:104B1800803E8547238DF40083C7840193F7F70708
:104B2800238CF4001305C4052244B2409244314654
:104B38009305F00F41016FE07F8E8357E502194618
:104B4800930500082314F4062315F4068357050378
:104B58002317F40483572503035544002318F4044A
:104B6800EF3060398947230DF4006DBF004035BF31
:104B7800230C05008280411126C206C622C41727CD
:104B88000020035727158547AA8463F7E71A834748
:104B9800050E898B6382071A972700209387C70D14
:104BA800B847BA85BDED83A7841501447D58A18314
:104BB800C207C183938727028587AD077D553DE7E7
:104BC800630B0410834774000357E402DDE7894749
:104BD8002316E404A304F404035744058357440349
:104BE8002285BA97C1071D8B998F2319F40483571F
:104BF80004032317F404835724032318F4043939CE
:104C08008327440993E74700232AF4088547A30C20
:104C1800F4008D47230DF400B24022449244410130
:104C2800828083C7A501EDFB8C41ADBF144363149B
:104C38009700D9D636870326070883A60408636138
:104C4800D602B306D640F05C6374D600B3F6C6024B
:104C580063F6A600368563F3F600BA85184385B770
:104C6800918E705F6374D600B3F6C602E3F806FF50
:104C78003688E3F5F6FE3A84D5B783D7E402B3F76E
:104C8800E702D9FB9D46994763F5E600935717005D
:104C98008D0705672314F406130707C88A076353AB
:104CA800F700BA872315F406835704030355440015
:104CB800130660082317F404835724039305000898
:104CC8002318F404C947230DF4002244B240924447
:104CD80041016F304022ADC103D7E40283D7E5021A
:104CE800B3F7E702B1EB8387840163D707049D46D6
:104CF800994763F5E600935717008D0705672394D6
:104D0800F406130707C88A076353F700BA87239581
:104D1800F40683D7040303D54400130660082397D9
:104D2800F40483D72403930500082398F404CD479B
:104D3800238DF400EF30201C238C0400F1BD1727CD
:104D48000020035727F9854763FDE720397122DCE6
:104D580026DA4AD84ED652D456D25AD05ECE66CA31
:104D680006DE62CC6AC86EC6032C85155149AA8C2A
:104D7800135C8C00420C135C0C01130C2C02135CAA
:104D88001C402D0C33592C037945E5449727002006
:104D9800938787EE13061027814681457D6AA047D1
:104DA8008569B70A0200930B8A84938909C8130A94
:104DB8000A408D0A3305AC02B3049C02EF60A17F60
:104DC8002A8BA58005E0F2506254D2544259B25958
:104DD800225A925A025BF24B624CD24C424DB24D6F
:104DE8002161828063958C0003A40C0069DC8347F1
:104DF800A401E9E3785C83A7CC0763EDE70A03A580
:104E08000C08832704086367F50A172D0020034D53
:104E18002DC8931D8D0193DD8D411D8DDE8763C7E0
:104E28000D0093761D00D28791E2D6876374F5084A
:104E38006374A7003375E502637E850793571700EF
:104E48006373FC00E287AA9763D80D0679451306B9
:104E580010278146B3B5A7023385A702EF60A17575
:104E68009307150085466387D704034674000357E4
:104E7800E4023DE22316E404035704038583231563
:104E8800F4042317E404035724032318E40409470C
:104E9800A304E40483D74C03A30CD400A907231963
:104EA800F4048327440993E74700232AF408914729
:104EB800230DF400004039B713771D0009C7514589
:104EC80033D5A70271BF65473385E702B3B7E70259
:104ED8002581DE075D8D69B783D6EC0263FFE602A4
:104EE800B3F6E602DA8763C70D0013761D00CA879A
:104EF80011E2A6878507858363E1F602DA8763C82E
:104F08000D00137D1D00A68763030D00CA87850762
:104F18008583B307F740E3FFD7F89D46994763F5C4
:104F2800E6000583930737002314F4061397270038
:104F380063D3E9004E8783570403035544002315C0
:104F4800E4062317F4048357240313066008930523
:104F580000082318F404D147230DF400EF20B0799A
:104F680091BF82809387818B9C43411122C406C6DE
:104F7800858B2A84B5EF4165130525F5EF00F045CB
:104F880025C98347E5002317F5008327840FA1EB84
:104F9800232CA40E232EA40E8547231BF4022320C2
:104FA80005008347B4002316F5008347A4002304B3
:104FB800F5008547A304F5009727002083D747CC41
:104FC8008507228517270020231CF7CA97F0FF1FA3
:104FD800E780C0380145B2402244410182808327DE
:104FE800C40F88C383576403232EA40E850775B79F
:104FF8008347840023080400054593C7470023041A
:10500800F400D1BF9727002083C737AB638007120E
:10501800411126C206C6AA8422C44AC07D55CDC8FD
:1050280097270020938747C5B8475DC317290020F5
:105038001309C9A4030549019725002083C5D5A5EF
:1050480085057D540548B708C0A8130E000C834693
:1050580077008327070863990605035307078356D4
:105068000703637DD3060346D700631906070326A3
:10507800070F2DE60326470935E20346F700631FAD
:10508800C605705FB386664079163306D602832656
:105098004708B356D602B297AE96C206C182231B02
:1050A800D70663500504958F63F387003E84184341
:1050B80059FF9387418B9C4382976368A402B30787
:1050C800A4409CC09C4035476361F70423A00400BA
:1050D800B2402244924402494101828083566707C4
:1050E800C9B7E3F2D7FCC6977DBFB307854063DB3A
:1050F800070083074901E3C407FCB707C0A8A297C4
:10510800898FC1B723A0040075BFCD179CC0830742
:10511800490163D50700130534FF5DBFB147E3ECD0
:1051280087FE3705C0A84D1522955DB77D5582804D
:10513800411106C6EF00B02819C98327050F01459C
:1051480081E7B240410182809C430505D5BF7D556A
:10515800CDBF9387C18B9843011126CA06CE22CCB6
:105168004AC84EC6AA8435C73E8917270020035768
:1051780067B68547631FF7041727002013070790B2
:10518800830647018327050803546507BA8963DD49
:105198000604338487409387418B9C438297636BD3
:1051A800A404B307A440172500200345058F0581F3
:1051B80003270900637CF5063385A740972700205D
:1051C80083C7078D93968701E18663D30604160586
:1051D8000297F2406244930700FB2386F400424999
:1051E800D244B24905618280E3F587FA3707C0A83F
:1051F800BA9745B7330785408147E35607FA83874F
:105208004901E3C007FAB707C0A8A297898F61BF11
:10521800858B99C79307803E3305F50215814DBFED
:105228009307D0033305F50205815DB701454DB7F6
:1052380097270020938747A4FC4B411122C426C21C
:1052480006C62A84AE846396A7009727002023AF5A
:1052580007A68327840F81CB035544000146930595
:105268000008EF2050498357840381CB035544003D
:105278004D4693051008EF20104803554400154685
:1052880093051008EF20304723030400A306040009
:1052980023049404172700200357C7A3854763E610
:1052A800E70085450145EFE00FE0B2402244924413
:1052B80001454101828083476500638E0732835729
:1052C8000507411122C406C685072318F50683473A
:1052D800F500230F05002A8413978701618763432C
:1052E800070203574503954763E4E700014539A0E2
:1052F8009305E003353F2301A4040945B240224445
:105308004101828013F707022DCB93F7F7FDA3071E
:10531800F50083270509034775002301050493E772
:1053280047002328F50885476319F704032745082C
:105338007C5D9716002083C6A67513968601B3D7A1
:10534800E702171700200347377561869107BA9758
:10535800C207C183231AF5068607139707014183FD
:105368008347B502635D06129306204EB387D702C2
:10537800BD079583BA972319F4068347E40013F70A
:105388001700630E07228357240503574403639AC3
:10539800E720835704038355040503452402231A91
:1053A800F404834794042319B4029205A305F40274
:1053B8008357A404F9152316F4028357E404231829
:1053C800F402EFE0EFC503467400231804069716AD
:1053D800002083C6E66B8357C4020357C404631BCB
:1053E800061293958601E1850326040863D9050C06
:1053F8001305204EB387A702BD0795835106B297C0
:1054080063C905003706C0A863E5C70037064057DB
:10541800B2972320F4082317E40263D3050C9307FB
:10542800204EB307F70295837CDC63DA050C060788
:105438009377E701230EF400835744032302040201
:105448002313F4028347A40181C72285EFF08FC795
:105458008347F40093E70702A307F4008347E400B7
:10546800F99B2307F4008347340293F70704E38F7B
:1054780007E60357A40383574403E319F7E60347F2
:10548800D4009307200A6315F7008547A306F400A4
:105498008327440993E70740232AF40881BD858AB6
:1054A80091C693068002B387D702E9B585669386CD
:1054B800B647B387D702938707049D8365BD13F565
:1054C800160011C513058002B387A70205BF05653D
:1054D8001305B547B387A702938707049D8339BF90
:1054E80093F7160091C793078002B307F7022DBF01
:1054F80085679387B747B307F7029D8335B7858AD2
:1055080081478DFA85679387B747B307F702898381
:10551800FD8B0DB793958601E1859DC70326040889
:1055280063D005041305204EB387A702BD079583F2
:10553800B29763C905003706C0A863E5C7003706F8
:105548004057B2972320F4082317E40263DB0502CF
:105558009307204E3307F7023D07158378DCCDBD4E
:1055680013F5160011C513058002B387A702C9B742
:1055780005651305B547B387A702938707049D837D
:1055880045BF858A91C6930780023307F702F9B7AA
:1055980085679387B7473307F702130707041D8307
:1055A80075BF998F13970701E35F07EA9305800298
:1055B8002285BD392301A4041305800281B3898B98
:1055C800E38307EA0357A41083574403B306F7405D
:1055D80013960601E34C06FCE317F7E81546930516
:1055E80054101305041097F0FF1FE780C0A98347E4
:1055F800E400F59BBDB50545828005C541119305BD
:10560800200222C406C62A84EFF09FC2FD57230158
:10561800A404A3060400A300F402B24022444101FA
:10562800828082800DC9411122C406C68307F50015
:105638002A849305E00363D30700A145EFF05FBF19
:10564800FD572301A404A30604002301F402B24079
:105658002244410182808280171600201306C66109
:105668003846630C0746797126D297140020938434
:10567800E440838844012C4A06D622D44AD04ECE30
:1056880052CC56CA5AC85EC601457D583703C0A8D1
:10569800832607088357670763D80810B387F6403F
:1056A80063F50701BA853E880545184375F309C5B2
:1056B8009717002023AAB760204A85691389418B70
:1056C800370AC0A8B70A4057054B9389B9478327BB
:1056D8000900832B04088297637B752F035764079F
:1056E8009717002083C7673BB38BAB40BA9763E536
:1056F8007723835744032285A30E04008507231AC2
:10570800F40249272285EFF01FBB41E58386440157
:1057180023050402832704080357640763DA06088D
:105728003387E74038DC785CBA9763C906003706E8
:10573800C0A863E5C70037064057B2970346740010
:105748002320F4088545631DB6068357040783564E
:10575800040363EAF60A8346D4006396C60A8326DE
:10576800040FD5E283264409D9EE0346F4009306D4
:10577800000C631AD608B387E70203274408B3D797
:10578800E70217170020034737310507BA97231B8D
:10579800F406B250225492540259F249624AD24A4B
:1057A800424BB24B45618280E3FAF6EE9A96FDB51C
:1057B800E3F8E7F63706C0A83E963307E6409DB7FC
:1057C8000347C40129C383554403035664022313C2
:1057D800B4023386C5403307C702034644023297F2
:1057E8001377F70F2302E4027D46637EE600850700
:1057F80063C906003707C0A863E5E70037074057C5
:10580800BA972320F408832709008297AA89832757
:1058180009008297E30D35FF832709008329840750
:1058280082979717002083C7A72613978701618758
:10583800635C07063385A9404DC5745C6373D50A5C
:10584800635A07061605834744021387C18D184318
:10585800A166938636303E9554C7060528D393062D
:1058680000F817160020230BD628B1669386363029
:1058780054C77D476375F70081172302F402EF5080
:105888006017EF50601A034774008547814563111C
:10589800F70417450000130565ACEFE0CF809307C8
:1058A80000FD2306F400F5B5E3F6A9F8B706C0A88D
:1058B800B69949B7858B99C79307803E3305F5029A
:1058C800158151B79307D0033305F5020581A5BFAC
:1058D80017150000130565F5EFD0FFFC930710FCC2
:1058E800C9B703477400854703A304036317F70088
:1058F8009545E30003EA154529A0E30C03E895451F
:1059080019452254B25092540259F249624AD24A75
:10591800424BB24B4561028363DC0B04835744035B
:1059280022858507231AF402B12B2285EFF0BF9850
:10593800785C83270408BA97038744016345070006
:1059480063E34701D6972320F408834774006395DF
:1059580067012285EF30301E8347D40185458507CE
:10596800A30EF4009C58E38407D61545829785B3A7
:1059780083572403171700200347871193168701BD
:10598800E1868E0763D506021307204EB387E70228
:105998009583E3F077E1A1452285EFF07F8903A3A2
:1059A80004032301A4048945E31703F4DDB3058B3D
:1059B80011C713078002B387E702E1BF0567130722
:1059C800B747B387E702938707049D83D9B78357FF
:1059D8002403171700200347A70B93168701E186B6
:1059E800B30B75418E0763D5060A1307204EB3879C
:1059F800E702958363F5FB0C832709008297835799
:105A08004403AA8B22858507231AF402A529228537
:105A1800EFF07F8AE31F05D6785C83270408BA97DE
:105A2800038744016345070063E34701D6972320B2
:105A3800F4088347D40113F7070F25CB2285EFF02D
:105A48000FB0A30E040083270408E3F7FBFA83567C
:105A580004077C5C03274408B387F602B3D7E70240
:105A680017170020034757031107BA97231BF4069B
:105A780083477400639F670383570403E3F9D7C41C
:105A88002285EF30500B9C58E38307C48D45F1BD48
:105A9800058B11C713078002B387E702A1BFB3873D
:105AA8003703938707049D83B1B78507A30EF400D6
:105AB80059BF9C58E38D07C08D45194545BDE3CABC
:105AC8000BCCA1452285EFF0AFF603A30403230115
:105AD800A404E30003CC914539BD8280411122C45E
