:040000006F10000974
:1000040000000000000000006F0080086F00202541
:1000140000000000000000000000000000000000DC
:1000240000000000000000000000000000000000CC
:100034006F004006000000006F00E00500000000B3
:100044006F0080056F0060056F0040056F0020059C
:100054006F0000056F00E0046F00C00400000000A2
:100064006F0060046F0040046F0020046F00000400
:100074006F00A0266F00C003000000006F00600343
:100084006F0040036F0020036F0000036F00E00265
:1000940001A001A001A001A001A001A001A001A054
:1000A40001A001A001A001A001A001A001A001A044
:1000B40001A001A001A001A001A001A0B717004068
:1000C400130770052380E704130780FA2380E704ED
:1000D4000F1000002396A70223800704371700405F
:1000E40083472705898BEDDF8357070537170040C2
:1000F40083472705898BEDFF371700408347270582
:10010400898BEDDF035507058280B71700409306FE
:1001140070052380D704130780FA2380E7040F10A7
:10012400000003C6B7041376F60DA385C704238025
:100134000704137605023DCA03C6A700118A1DE20F
:100144002380D7042380E7040F10000003C7A7000F
:10015400136747002385E7009307004B0100010064
:10016400FD17EDFFB7170040930670052380D704F1
:10017400130780FA2380E7040F1000007D8923947D
:10018400A70001000100010001002380070423806F
:10019400D7042380E7040F1000003727004093069C
:1001A4001005A303D78023800704828013760504F7
:1001B4006DDE03C6A700418A1DE22380D704238095
:1001C400E7040F10000003C7A70013670701238586
:1001D400E7009307007D01000100FD17EDFFB7174D
:1001E4000040930670052380D704130780FA238008
:1001F400E7040F1000007D89136505042394A7000C
:100204000100010001000100238007042380D704BA
:100214002380E7040F1000003727004093063005C1
:1002240049B74111814601468145114506C651220F
:10023400B7170040130770052380E704130780FAFB
:100244002380E7040F10000003C767041367170037
:100254002383E70423800704B2404101828081465E
:10026400014681451145B122B71700409306700538
:100274002380D704130780FA2380E7040F100000BB
:100284007D562396C7022380D7042380E7040F10EA
:10029400000003C76704136717002383E704238060
:1002A400070401A0BD473305F50201007D1575FD66
:1002B4008280411122C426C206C6AA84014463175F
:1002C4009400B24022449244410182800504130503
:1002D400803E4204C13F4180DDB7B7170040130799
:1002E40000032388E702854723ACF18473002030A0
:1002F400411106C69929FDBF2303048095472303B2
:10030400F4802302A480828083076480E3CE07FE06
:1003140023030480828083076480E3CE07FE0345C1
:100324004480828083076480E3CE07FE2302A48096
:100334008280411126C44AC24EC006C61377F50B0B
:10034400AD47AA892E8995446306F70019456D3790
:10035400653F8D444E854D37FD59FD146398340136
:10036400B240A244124982494101828013550901D5
:100374001375F50F453F2209CDB7011126CC06CEE2
:10038400B704080051371545853F713769372AC6C8
:10039400A53F32459377150089EB13651500137556
:1003A400F50FF240E24405618280FD14E9FC014549
:1003B400CDBF397126DC4ADA4ED852D656D45AD239
:1003C4005ED062CEB7E700E006DE66CC6ACA41477B
:1003D40083AB070422C6B8C37D5703AB070083AAC7
:1003E400470023A0E71823A2E718B7170040130714
:1003F40070052380E704130780FA2380E70483C78A
:100404004704130C75FFB684E207137CFC0F854682
:100414002A8A2E89B28937240040E187015763FA7A
:1004240086016308D5008946130700026313D500CB
:100434000157D98F93F7F70F371D00402302FD04AE
:1004440011472303E4801305F00F7D35894C6D3D7E
:1004540063EB8C11B70707003E993787070079557E
:10046400637EE902B3079900636AF702A947631C34
:10047400FA0689E48144493D26850DA0CA850945CB
:100484004D3D850903C5F9FFFD140509613D81C48E
:100494009377F90FFDF7D53569FD7D55B717004002
:1004A400130770052380E704130780FA2380E70409
:1004B40003C74704418B2382E704B7E700E023A086
:1004C4007705F25023A0671123A25711E254324456
:1004D4005259C259325AA25A125B825B724CE24C94
:1004E400524D21618280A5476314FA0685699307FA
:1004F400F00FB3869700B374F900B69493C7F7FF6F
:10050400FD8C33F92701416A056C9387F9FFB3F732
:10051400270199E363FC340193D94900C147E3E619
:1005240037FF89BF8567C169FD17E1B71305800DE2
:1005340063884901130500026384890113051008C7
:10054400CA85C53B1D3D31D94E99B3843441D9B7D1
:10055400CA852D45F93BCE94E38E99F08509653B18
:10056400A38FA9FED5BF9307FAFF93F7F70F63ECA8
:10057400FC0803475D04B70708001377070219E373
:10058400B78707007955E37BF9F033079900E3E770
:10059400E7F089476310FA048980554AE38C04EC38
:1005A400CA8509457933910903A7C9FF91472320D7
:1005B400E48003076480E34E07FE23034481FD17B0
:1005C400EDFBFD14110981C49377F90FE9FF75332D
:1005D40071F5E1B58547E307FAF4CA852D45913BEA
:1005E4001389F4FFE38804E83D339377390091EBF2
:1005F4008326048003A7090093874900E39DE6E668
:10060400BE89CA84F1BFB5476316FA001305900B7F
:10061400E5318DB5B1471305B00AE30BFAFE9947EE
:10062400631EFA02CA852D45293381440D4C214AA3
:10063400DD31639684018327048023A0F9008504B7
:10064400E39844FF832704801317290163550700A7
:100654002392F90005B523A2F90029BD9D4763192A
:10066400FA0281451305B004E931BD4423A0090011
:1006740023A209007D59453193F77400CE9703C72F
:100684000700FD14398D2380A700E39624FFDDB312
:10069400A1476312FA04D5318144630D09008D47E3
:1006A4009304C0036308F9009304000563049901EB
:1006B400930440041375C507E30E95DA19452D39E3
:1006C400A131054515392685B1390945A139753159
:1006D400E31205DAD9B391476319FA0013056006EA
:1006E40021391D311305900925B7E3050AD8F154C2
:1006F40059B309CDB7170040130770052380E704E9
:10070400130780FA2380E7042396A702828019C185
:10071400814799E982803387F500834607003307D0
:10072400F50085072300D700E397C7FEE5B719C195
:10073400FD5781E98280910503A7C5FF1105232E8A
:10074400E5FE7D16E319F6FEF5B7797122D4172478
:1007540000001304E4521C4006D626D24AD04ECEE2
:1007640091C782979727000023AC07505C4089CB40
:1007740003D58186BD3F5C40829703D5A186953F12
:100784001C40639907189727000083C7F75F858B80
:1007940095C797270000A389075E17270000034722
:1007A400D75E914763FCE7009D219727000083C72C
:1007B400D75DF9178A07A2979C4382979727000071
:1007C40083C74761918B89C797A000E0E780C0F792
:1007D4001C4491C38297938741869843172600004F
:1007E4000346D6473E8997240000938424479727DD
:1007F400000083C7A74693961700BA9683D60600CF
:10080400638006109727000083C7474563F2C70833
:1008140086073E97835507002310070003D581867A
:100824002EC623980186F1359387C1879C431725EB
:1008340000000345A54213172500BA979C43B2450F
:100844008297AA8903D5A1866D359727000083C7AF
:10085400E740139717008327090003D50187134541
:10086400F5FFBA9703D7070033753501598D2390E7
:10087400A70083C70400850793F7F70F1727000025
:10088400230EF73C172700000347573D63E6E700B4
:10089400972700002384073C1C40ADEF93874187D2
:1008A40098433E8425CB9727000083C7574E91CBAE
:1008B4009727000083C7774D89E797A000E0E7807A
:1008C40060991C4082972A8431C59C48AA971727AF
:1008D4000000232DF738938781879C4385CF03D568
:1008E4008186013D228597E0FFDFE7804023225483
:1008F400B25092540259F24903D5A1864561D5BB41
:10090400850793F7F70F972600002389F634E3E071
:10091400C7EECDBDB250225492540259F2494561FA
:1009240082809167B7C600409387373023A6F620AC
:100934000F1000009727000093874732884F938752
:1009440081949C43316713073730F053B707100085
:10095400FD17918F99833A0523A6E6205D8D828049
:100964004111B7170040985F3AC6945F3247E39C41
:10097400E6FE324541018280411106C6D5379726ED
:10098400000083C6262B858AB1C69307303333070C
:10099400F502B337F5023983CA07D98F1727000048
:1009A4001307C72B584B01456303F7023385E74010
:1009B400636BF70037653D0889C637856F081305F3
:1009C4000590198D3E95172700002323F72AB2407E
:1009D40041018280E5473307F502B337F5022583E9
:1009E400DE0765BF411122C41384819318404AC0B5
:1009F40006C61C5F26C2138941939983858BC1C3A4
:100A04001C5F972400009384E43793F7F7F91CDF05
:100A14009727000083C7073793F707048DC393878D
:100A240001889C4382979727000023A5A73683C794
:100A3400040093F7F70B172700002305F7348547C5
:100A440017270000A302F73483C7440093F7070471
:100A540081EF938781949C43D844B8D3930700FCD7
:100A6400172700002302F7328387640063D9070045
:100A7400832709009C43172700002308F7301840F8
:100A84001C5F8583858BC9CBF5571CDF01000100F2
:100A9400010001000100010001000100010001004A
:100AA400010001000100010001000100010001003A
:100AB400010001000100010001000100010001002A
:100AC400010001000100010001000100010001001A
:100AD400010001000100010001000100010001000A
:100AE40001000100010001000100010001000100FA
:100AF40001000100010001000100010001000100EA
:100B040001000100010001000100010093878194AC
:100B14009C4313075004B8CB18401C5F9183858B0A
:100B240089CFBD571CDF938781949C4323A8070476
:100B34008547172700002309F72483270900D84392
:100B44000583058B19C7D843759BD8C3D843799BB4
:100B5400D8C3B2402244924402494101828039718F
:100B640006DE16DC1ADA1ED82AD62ED432D236D0B5
:100B74003ACE3ECC42CA46C872C676C47AC27EC059
:100B84009535F250E2525253C2533255A255125681
:100B940082567247E2475248C248324EA24E124F22
:100BA400824F2161730020309387819494431727E7
:100BB40000001307271DBC5289CF83472700858B6C
:100BC40089EB83473700858BFDD797270000238D5A
:100BD400071A828037C700401306C0039306200318
:100BE400972500009385051A83278720C18393F7EF
:100BF400F7036369F60083278720C18393F7F7031C
:100C040063E6F60083C74500858BF9DF828093870E
:100C140081949443172700001307C716BC5289CB4D
:100C240083470700858B91CB97270000238E0714F9
:100C340097270000A38A0714828083471700858BB7
:100C4400F1DFDDB793878194904337C70040C145F6
:100C5400E54683278720C18393F7F70363FBF500F9
:100C640083278720C18393F7F70363E4F6003C529C
:100C7400EDF38280138781931843AA87185F158345
:100C8400058B25EF0345150015051377C51F19C6F8
:100C9400B386E70083C626002300D60095C59726B1
:100CA400000083C6860E93F606040945A1CAB386DE
:100CB400E70083C63600054693F5F6066390C5043F
:100CC400E206E18663CC06023385E700834715001C
:100CD40003470500A20793F70770D98F13970701FD
:100CE40041839376074099C6136707802390E19464
:100CF400014582802390F194E5BF05458280938667
:100D040081948C423685972600009386A6079845E1
:100D140093170701C183137817203E8663040804E0
:100D24001377072079C303C7260013671700172812
:100D34000000230AE80413070019B8D1130700F8C8
:100D4400972500002382E504138781930C43370819
:100D54000010D855719B13672700D8D59841336785
:100D6400070198C11377261005C31376061059CED0
:100D740003C7060013671700172600002304E600C4
:100D8400172700002314070083C6460093C7F7FF04
:100D9400C207E206E186C183184163D10602939635
:100DA400170163DE060630538D4663E9C6008546A7
:100DB40017260000230AD6FC3453FDFE97260000B4
:100DC400938606E68386460163DD06009396070153
:100DD400C18663DC06047053894663E4C600745319
:100DE400FDFE1447F58F1CC7828003C716001367E6
:100DF400170097250000A387E5F8172700002305AF
:100E040007F817270000231307F8A9BF03C7360004
:100E14001367170017260000A307E6F695B7854663
:100E2400172600002302D6F651BF54471396060135
:100E340063510602B7061000FD1674D3972600000E
:100E44009386C6E1944E8506172600002324D6E235
:100E540049BFA166D58F71B7397106DE16DC1ADA7F
:100E64001ED82AD62ED432D236D03ACE3ECC42CA5E
:100E740046C872C676C47AC27EC05135F250E25278
:100E84005253C2533255A255125682567247E24704
:100E94005248C248324EA24E124F824F2161730013
:100EA4002030172700001307A7EF8346B7019727C1
:100EB400000083C737F2B69793F7F70FFD4663EA4E
:100EC400F6044C4B97260000A38CF6EC9727000001
:100ED40083C717ED05473317F70097260000A38B48
:100EE400F6EE6D8F1DEF9726000083C6F6EEB3F67F
:100EF400D70213050002814733D6F500058A13F89B
:100F0400F70F09CE6399E60097270000A38A07E943
:100F1400828081177DB705071377F70F8507E39D57
:100F2400A7FC8280938741959843B7570200938723
:100F3400279F8326070913965600635806008326C5
:100F440007091396660063440600FD17FDF38280CB
:100F540051C9AA870145C9C98D07C207C183F19B3D
:100F6400C207C18313074003636BF7021387019E13
:100F740008431387819D14436396A6021727000034
:100F8400130707CA185B014525C34111C20706C6EA
:100F94000545DD8D0297B2400145410182801387EA
:100FA400C19DF9B70357650005EF03574500636911
:100FB400F702B306F74021466370D60210419386C8
:100FC40087001D8FAA96611790C22392E60023938F
:100FD400060014C12312F5002313B50021058280F5
:100FE400084159BF01458280828001CD9387019ECB
:100FF40003A807009387819D8C430147C28763E35D
:10100400B70082809443636FF50663EDA6061386EA
:101014008700E368C5FE03D56700216605066317EC
:10102400C50003C6019005062380C19023930700E1
:10103400638407031386C19D1042630FF6000356B1
:10104400670019EA83D7470014C383564700B6974D
:10105400A1072312F700BA879843E304B7FA9386EB
:10106400C19D9442E30FD7F883566700D9FA83D61B
:101074004700035647001843A106B2962392D700AF
:0C10840098C382803E87B6879DBF0000A5
:10109000974100209381011817710020130181F6F8
:1010A00013054000972500209385C575173600204D
:1010B0001306067E63FAC5008322050023A05500AF
:1010C00011059105E3EAC5FE176501001305451FEB
:1010D000973500209385C57B1386018563FAC5008B
:1010E0008322050023A0550011059105E3EAC5FE02
:1010F00013850185975500209385C55E6377B500FC
:10110000232005001105E36DB5FE9302800873A04E
:101110000230972200209382E26E93E212007390D5
:10112000523037170040930770052300F7049307E8
:1011300080FA2300F7040F1000003C47B70600FABE
:10114000E116F58FB70600069506D58F3CC79712B6
:101150000000938262CE73901234730020303D43BE
:101160002A876373C3029377F700BDEFADE59376EB
:1011700006FF3D8ABA960CC34CC30CC74CC7410747
:10118000E36BD7FE11E28280B306C3408A06970262
:10119000000096966780A6002307B700A306B70055
:1011A0002306B700A305B7002305B700A304B700C3
:1011B0002304B700A303B7002303B700A302B700BB
:1011C0002302B700A301B7002301B700A300B700B3
:1011D0002300B700828093F5F50F93968500D58D97
:1011E00093960501D58D61B793962700970200006D
:1011F00096968682E78086FA9680C1171D8F3E9666
:10120000E374C3F8A5B7B717004003C77705137792
:10121000E70FA38BE704130700F8A38DE7043D470E
:10122000238CE70413075003A38CE7048280B717CD
:10123000004003D587005D715ED64205418186C6B8
:10124000A2C4A6C2CAC04EDE52DC56DA5AD862D454
:1012500066D26AD06ECE9377050C13070008814BD7
:10126000638EE718130700046392E716B7240D8F07
:101270007D8993840480B3D4A4029167938707E89F
:10128000BE94A167938707D0B3D4F402EF40C1079F
:10129000976701009387879C9043D443EF30913B3D
:1012A000EF4001492A8B939C040103D9018593DC0B
:1012B0000C0163150900056913090980B71700407F
:1012C000130770052380E704130780FA2380E704DF
:1012D0000F1000000547371A0040939D0401096C68
:1012E00085662389E704D14A814E8145130D0A049E
:1012F00013087005130680FA894893DD0D01130C5D
:101300000C712943FD1623000D012300CD000F10A1
:10131000000023162A0323000D0083472A05898B2A
:10132000EDDF83570A0583472A05898BEDFF834745
:101330002A05898BEDDF83570A0523982185C2078B
:10134000C183338597419319050193D90941638678
:1013500009163387B9026350070E850EC20E93DE5D
:101360000E0163EAD80D63DB050A3305B04093151F
:101370000501C185C204C18063D9350BB717004090
:10138000130770052380E704130780FA2380E7041E
:101390000F1000000965130505713385A50223961A
:1013A0007703238007043345950242054181B64007
:1013B000264496440649F259625AD25A425BB25BBD
:1013C000225C925C025DF24D61618280B1E3B77490
:1013D00089097D8993840480B3C4A40291679387AB
:1013E00007E8BE94A167938707D0B3C4F402EF3037
:1013F000B171976701009387E78679BD9767010010
:1014000093878785856403AB07009384843861BD27
:10141000130B0000954441BD3A89F5B5B387FC40F4
:101420009399070193D90941B1B70965130505716E
:101430003385A9028DBF3385B74163E4FC00338552
:10144000FD40330585033344B5036345830013151D
:101450000401A9BF4E8536C642C432C2EF40E12026
:10146000DA85EF307171EF40211A931E050193DE8A
:101470000E41B307D941C207C183056E3E871246AC
:10148000224889482943B24663E3C70136874207A9
:101490004183631A270113071900634430011307BE
:1014A000F9FF42074183FD1A93FAFA0FCA8BCE85E2
:1014B000E3940AF62398E18459BF0145CDBDB717DF
:1014C000004003D587005D7186C642054181A2C4F4
:1014D000A6C2CAC04EDE52DC56DA5AD85ED662D4F4
:1014E00066D26AD06ECE02C69377050C1307000849
:1014F000638FE714130700046393E712B7240D8F7B
:101500007D8993840480B3D4A4029167938707E80C
:10151000BE94A167938707D0B3D4F402EF30D15EB5
:1015200097570100938787739043D443EF3091120C
:10153000EF4001202A89939A040103DB218593DA85
:101540000A0163150B00056B130B0B80B7170040E6
:10155000130770052380E704130780FA2380E7044C
:101560000F1000000547939B04018969056A2389D0
:10157000E704D14D014D814C93DB0B019389097137
:101580007D1A5A8597200020E7808033330C55411F
:10159000420C135C0C412399618563030C16B3075D
:1015A0009C0363D3070E050D420D135D0D018947A2
:1015B00063ECA70D63DD0C0A33059041931C050114
:1015C00093DC0C41C204C18063DA8C0BB717004076
:1015D000130770052380E704130780FA2380E704CC
:1015E0000F1000000965130505713385AC02324701
:1015F0002396E70223800704334595024205418183
:10160000B640264496440649F259625AD25A425B81
:10161000B25B225C925C025DF24D61618280B1E35B
:10162000B77489097D8993840480B3C4A402916747
:10163000938707E8BE94A167938707D0B3C4F402E9
:10164000EF30914C975701009387C761F1BD9757D1
:10165000010093876760856403A907009384843839
:10166000D9BD130900009544F9B53E8B19BF3385E8
:10167000AA40131C0501135C0C41A9B709651305A9
:1016800005713305AC028DBF63FEAA0033057541B9
:1016900033053503A9473344750363C88700131521
:1016A0000401B1BF3385AB40E5B76285EF30F17B14
:1016B000CA85EF30714CEF303175131D0501135D94
:1016C0000D413307AB41420741838565BA876363A8
:1016D000B700D287C207C183639A670193071B00D3
:1016E000634480019307FBFFC207C183FD1D93FD87
:1016F000FD0F5AC6E28CE39A0DF62399F18445B7A3
:101700000145FDBD41112A83014E930E407E130F0A
:101710000019930F400663ED6E0A93080019130336
:101720004006B3781503854E0D4FA14F3373650204
:101730000D891335150063E7BE0C1308F6FF7946D3
:1017400072984208135808013307C70213D61700CE
:10175000BE0732976146B3F6C60213068070B386A1
:10176000C6023697A166F58F42075D8FB717004016
:1017700083C6F70293F60608A307D1000346F100DB
:1017800083C6F70293F60608E394C6FE8346F1008B
:1017900093F6F60FF1DE930670052380D7049306C7
:1017A00080FA2380D7040F10000023AA070383C602
:1017B000170393E60608A388D702D8DB03C71703ED
:1017C00013670704A388E70223800704410182808E
:1017D0007D133368E3039308E016630E0800336853
:1017E000F3039308D016630808009378330093B886
:1017F00018009388D81633081E01131E0801135EC3
:101800000E0111BF6393E503054863860800014894
:10181000630303002A8871087298FD15131E0801DE
:10182000C205135E0E01C18139B713F8150063F4C8
:10183000BF007908D5B713381800E5BF914763EEAC
:10184000B70217570100130767428A05BA959C41F2
:10185000BA978287B717004003A7470B1345F5FFD8
:10186000698F23AAE70A03A7070B698F23A8E70A52
:1018700003A7070A798D23A0A70A8280B717004023
:1018800083A6470B1347F5FFF98E23AAD70A83A631
:10189000070B558D23A8A70A83A6070A758F23A0D7
:1018A000E70A8280B717004003A7470B498F23AA96
:1018B000E70A03A7070B1345F5FF45BFB71700401D
:1018C00083A6470B1347F5FF758F23AAE70A03A7E3
:1018D000070A598D4DB7B717004003A7470B498F2B
:1018E000EDB7B717004003D58700420541819377D4
:1018F000050491EB9377F5013755E8011305058051
:101900003345F50282809377050C13070004639733
:10191000E7009377F50137459C1CCDB7216513058A
:1019200005D08280B7F700E0C8439C47828081479A
:1019300037370040A14663C4C70032858280034523
:10194000B740E38EA6FE3385F50003450500850705
:101950002304A740CDB7973700209387A70B9C435C
:1019600017570020130707D83E95636EE5001767E9
:101970000020130727496368A70017370020232B8F
:10198000A7083E858280FD57EDBF411122C406C6DF
:101990002A84813F2947B307E502B2408D83B3D73C
:1019A000870222449507B3D7E70237370040C207C2
:1019B000C1832316F74041018280716541111305EF
:1019C000052006C6D937B7370040130770F82381C2
:1019D000E7400D47A381E74013070004A380E740D9
:1019E00005472387E740B24041018280411106C686
:1019F000EFF0FF83BD4763F4A700EFF05F83C134CE
:101A0000BD4763F3A700653CB24083D5218503D56C
:101A1000018541016F00F047411193962500AA8589
:101A20002D4506C697200020E780E018B24001450A
:101A300041018280411126C29394250022C44AC0EC
:101A40002A843289A686AA850146254506C697209E
:101A50000020E7804016A6864A86A2852945972061
:101A60000020E7804015B2402244924402490145DB
:101A700041018280011122CC06CE3714004026CAD3
:101A80004AC84EC652C483447405034AB405834908
:101A9000840503499405EFF00FF78347A40593F4F9
:101AA000F40F137AFA0F93E71700230DF40493F958
:101AB000F90F1379F90FB717004003C7A705058B76
:101AC0006DFF03D5C705A38D4705238C3705A38C70
:101AD0002705A38B9704F2406244D2444249B2499D
:101AE000224A0561828041119397050122C406C6EE
:101AF000C1872E8463DB0700312111C1792E216556
:101B0000218DB24022444101828093F7150013C514
:101B10001500E5FB9397250163D00702EFC0A015E0
:101B2000F13537F60200130606E0896503C54185E5
:101B3000EF00700E0965E9B7939715010145E3D2EF
:101B400007FC1755010013052518EF3071791306AE
:101B50000064916503C54185EF00F00B11654DB739
:101B60001D71494697550100938585111755010050
:101B70001305852A86CEEF00C07101E917550100D3
:101B800013054511EF30D17501A037F700E0F95783
:101B90005CC7FD571CCB8566B7E700E023A0D710D4
:101BA0001306701010C3B8434146B0C323A0D71822
:101BB000B8C30F1000001306C003814548088D2DDF
:101BC000973700209387C7053ECA896793870780A8
:101BD000231CF100ED47A301F1029307A01023128B
:101BE000F102D1472303F102A167938707E03ECEBC
:101BF00097070000938787E2BEC49707000093878A
:101C0000A7E3BEC685472304F102B5472308F102C6
:101C100097070000938747D13EDAB7F5070097078B
:101C20000000938767E53EDE8146970700009387B3
:101C300027DC7000E1051945BEC097200020E78031
:101C400080F758088147994670003E960346060083
:101C500085070507A30AC700E398D7FED24791C7B7
:101C60000357810185676373F70001A04808EF00FF
:101C7000B037AA8501C9175501001305E502EF30F9
:101C8000915401A0F64025618280411117050000A2
:101C90001305A5E506C622C4EF00903113844185E3
:101CA0002300A4002928034504002244B24037F64B
:101CB0000200130606E0896541016F00C0754111FD
:101CC00022C406C637140040930670052300D404CE
:101CD000130780FA2300E4040F1000008347F40286
:101CE00093F7A70FA307F4022300D4042300E4040E
:101CF0000F1000008347F40293E72700A307F402C4
:101D0000F5311305407E23000404814701478146D5
:101D100005468545C53A2244B240014541016F0060
:101D2000B05989476305F50263E6A7008547630A52
:101D3000F50082808D476301F50299476303F50240
:101D4000828017550100130565F86F3071591755DA
:101D500001001305A5F8D5BF17550100130505F9B6
:101D6000EDB717550100130525FAC5B74111939733
:101D7000050122C406C6C1872E8463DD070003C5A2
:101D8000C185492211C1112A2165218DB240224409
:101D90004101828093F715000145EDDB13854180F9
:101DA000EFE0701413451400D5B7011117050000BA
:101DB000130505FC06CE22CCEF00901F1384C185CD
:101DC00085472300A4002307F1001306E1008D4797
:101DD000854513055030A307F100EF00C14A1306F3
:101DE000F100854513058030EF00E14917360020EA
:101DF000130606ABC14513057030EF00C148173616
:101E000000201306E6A8B54513056030EF00A14792
:101E10009305000A0D45EF2040409305000A114547
:101E2000EF20A03F034504008545D921F2406244DC
:101E30000561828041111305800406C697200020A9
:101E4000E780E0AC371700408327870A8D451305EC
:101E5000002093E707202324F70ACD32B93E175517
:101E60000100130565FBEF30B147DD39393DEF0067
:101E70000168253F97200020E780C0C723AC05FEFE
:101E80001C4191E7010001000CC18280BA8703A7C1
:101E900087FF6DFF23ACB7FE82801DC18346E5FF3F
:101EA0001307F00F9147639EE600411106C6973075
:101EB0000020E780C093B24081473E854101828087
:101EC00095473E85828001E9014582800145B24007
:101ED000224441018280411122C42A842105420505
:101EE0009305D004418106C697300020E7808086A4
:101EF00071DDFD5723200500231285002303F50023
:101F00002105F1B7138701861C43411122C426C263
:101F10004AC006C601440149BA8489E7A1658525FE
:101F20000DC401A803C7E7FF6318A7021DC8A16578
:101F3000C1269840832784FF6317E40223A0F1861B
:101F4000FD57232C04FE230FF4FE2285B2402244C9
:101F5000924402494101828011E03E8983A787FFB4
:101F60006DBF3E84E5BF232CF9FED9BFA9C941113D
:101F700022C406C62A849747002083C7374E2E8581
:101F80006368F400193F0D45B2402244410182804C
:101F900083A785FF99E703C7E5FF9307F00F630564
:101FA000F700E53D1545CDB7238F85FE13850186E6
:101FB000F13522852244B240A165410115AE154597
:101FC000828023A001868280938781879C4399E346
:101FD0003E85828003D727006316B70003C707003A
:101FE000E308A7FEDC47E5B74111939705014AC016
:101FF00006C622C426C2C1872E8963DE07001937B0
:1020000011C1613D21653345A900B240224492448B
:10201000024941018280AA860145E5D901443D4734
:10202000B3578940858B95CB9387C1868443BD4741
:1020300091E28147A2978E070545BE94331585002E
:10204000131405019C40C8404180829723A00400DE
:1020500023A20400334524014DBF0504E312E4FC30
:102060000144CDBF974700209387873B9C53411184
:1020700022C406C61384C18095C7829723A6A18077
:102080000840B74703009387D73F3305F502B7A74A
:102090002600938737ECB24022443E9523A6A180C8
:1020A00041018280974700209387473B18409C4B13
:1020B000BA9723A6F180E9B7938741869043974664
:1020C000002083C6B639814713F7F70F6360D70A3C
:1020D000174700200347774B914763E0E70A97478C
:1020E000002083C7274F918BC9EB0111680006CEF2
:1020F00022CC26CAEFA0B00FFD56630FD50C324795
:102100009747002083C7F73263F3E70C1747002097
:102110001307C7344047174700200347A73163051B
:10212000D406058B21CF51473304E40263F1870ABB
:1021300097200020E7800003B2476373F400A28772
:10214000174700200347F72E998F3E9597470020A9
:102150009387072D8387470163CD0702B707C0A880
:102160006369F502B70740573E9525A08507139789
:10217000170032970357E7FF21DB82801307900295
:102180003304E40205805DB7620761876357070087
:102190001D8D19E93705C0A801A8E37BF5FE3707B7
:1021A000C0A8B307F7403E9597470020938747277D
:1021B000DC53829709ED974700209387A73C9C4FFB
:1021C00099C7EFB0E065EFB0F03EEFB0C059F24014
:1021D0006244D24405618280974700209387072894
:1021E000DC47E386A7FE17470020130767238346D3
:1021F0004701BA84858A9DC6514433848702974734
:10220000002083C71723E3F487FC97200020E78092
:1022100060F59747002083C7D7211D8C22958387BF
:1022200044011DBF13049002338487020580C1BF9F
:102230002A9609E582800505A30FB5FEE31DC5FEBC
:10224000D5BF81473307F5000307070019E33E8533
:1022500082808507C5BF01112E8626CAAA84131560
:1022600006019305F004418122CC06CE32C69720A8
:102270000020E780204E2A8419C53246A685972083
:102280000020E78000C92285F2406244D244056103
:10229000828081476314F600054582803307F5008C
:1022A0008507B386F5000347070083C6F6FFE3837F
:1022B000E6FE014582809307F6FFBE952A966313DA
:1022C000C5008280FD1583C715000505A30FF5FE27
:1022D000FDB7814711E9014582803307F5000347C7
:1022E0000700E31AB7FE8507E319F6FE054582806D
:1022F0009747002083C79716637FF50013874186B1
:102300009317150008433E9583570500DD8D231074
:10231000B500014582800D458280FD5701111747A8
:1023200000202323F7149387818722CC80434EC655
:10233000974900209389C90E26CA4AC852C456C27A
:1023400006CE5AC02A8981444E8A974A0020938A31
:10235000EA10184481476374E900B307274103A7D3
:1023600049021CC409CB03A7CA0063F6E70017475C
:102370000020232BF70EA1E7835524009DE95C4440
:10238000A1E823ACF186032BC4002285972000200E
:10239000E780E0455A8455FC83274A0285CF624492
:1023A000F240D2444249B249224A924A024B056164
:1023B00021B3034504002D3F5C4081CB1CC48357EF
:1023C0002400D5DFA2844044F9B71C44CDDBC5BF4F
:1023D000DCC455BFF2406244D2444249B249224A69
:1023E000924A024B056182809747002083C71707F6
:1023F0006371F5021387418693171500084393C54F
:10240000F5FF3E9583570500FD8D2310B50001456E
:1024100082800D4582809747002083C7370463641C
:10242000F50001458280411122C426C24AC006C679
:102430002A842E89B284493E01C504C505452DA0D4
:10244000936504F0C205C181414597200020E780D3
:1024500060300DE197470020938787FC9C5B81C724
:10246000A285114582970145B24022449244024917
:1024700041018280938781879C438DE323ACA186B1
:1024800085472326050004C5231125012300850067
:10249000A300F5002322050055B7BA87D84775FF7A
:1024A000C8C7F9BF45C539715AD0138BC18622DC24
:1024B00026DA4AD84ED652D45ECE66CA6AC86EC6EE
:1024C00006DE56D262CC3689328AAE89AA840144AD
:1024D0005A8DB94D854BF94C03270B00131C340062
:1024E000937AF40F62971C43A9EF13B5FA001345D2
:1024F0001500B3978B0063F65D01930714FFB39744
:10250000FB0093950701C181528631371DC983278E
:102510000D000145E29784C323A23701630409003B
:1025200023005901F2506254D2544259B259225AEE
:10253000925A025BF24B624CD24C424DB24D216139
:1025400082800504E31A94F92145E9BF0945828098
:10255000411122C426C24AC006C6AA842E893284EA
:102560005D3DCA8526858D3409C940C10145B2400B
:10257000224492440249410182802145CDBF41114C
:1025800022C426C24AC006C6AA842E89353C2A84A3
:1025900019C1231105009747002083C727EC6394D6
:1025A000970023982187CA8526853D3D014511E086
:1025B0001945B24022449244024941018280754744
:1025C000636BA7041387C1861443411126C2931479
:1025D0003500A696944222C406C6AA873A840945C5
:1025E00095C613B5F7003947134515006373F70017
:1025F000C5178545B395F500C205C18149371C4013
:102600000145A69723A0070023A20700B240224459
:1026100092444101828009458280411106C6EFF053
:10262000BF9A09C50845B240410182800145E5BF16
:10263000F54763EDA7049387C1869C4313173500C4
:10264000BA979843894721C7011126CA06CE933409
:10265000F50022CCB94793C4140063F3A7004515D5
:1026600005443314A400420441802EC62685A28569
:102670006D378947324609C5A2852685693B814762
:10268000F2406244D2443E850561828089473E859E
:1026900082802394A1862395B1868280411106C64B
:1026A00023AAA1860295B2409747002023A2A7DC67
:1026B000014541018280994763E9B7008A05974740
:1026C00000209387E7DBBE9588C18280411106C652
:1026D000EFF0F0687146814517450020130545DA93
:1026E000813E13064002814517450020130505D79A
:1026F000813623AC018623AA01869747002083C731
:10270000E7D313D527008D8B3E958D473305F50212
:102710009305101035051375F50F9747002023809A
:10272000A7D499473305F5021305050F972000201C
:10273000E780400223A6A1862DC9994717460020AD
:102740000346E6D13306F60281451306060FCD3463
:102750009387C1869C439387070F23AEF186174763
:1027600000200347C7CF0A07BA9723A2F186EFF0EC
:102770005F854D269387C18798439747002083C77D
:10278000F7CD93962700BA96170600001306068623
:1027900090C293862700850793F7F70F8A0797451E
:1027A0000020A38DD5CABA9790C3B2404101828060
:1027B0009747002083C797CA17470020034727CAB7
:1027C00063F1E7021387C187184393861700174602
:1027D0000020A305D6C893962700369708C33E85E8
:1027E00082809307F00FE5BF1C416380071A417791
:1027F0007D8FB70600208947631AD7180357450015
:1028000063060718411122C419462A849305F00F64
:10281000590506C67D3C05478D476303E5161C44F4
:1028200081CB58589947630D0714185C630A071445
:102830001306C003814517450020130565BEEFF060
:102840003F9F1306C003A28517450020130545BD11
:1028500097100020E780E06B9747002083D707BDE3
:10286000974600209386C6BB99E793070010174749
:102870000020231DF7BA9747002083C747BB91E785
:102880008547174700202304F7BA9747002083C7DE
:1028900017BA91E7ED4717470020A30AF7B8974703
:1028A000002083C7E7B891E7954717470020230129
:1028B000F7B89747002083C7B7B791E78547174711
:1028C0000020A307F7B69747002083C7B7B699E75C
:1028D00083C7060117470020A30EF7B497470020CF
:1028E00083C727B591E7D147174700202303F7B4E3
:1028F0009747002083C7A7B495E7174700200347F1
:1029000067B31316870161869307C0026348060008
:102910009377170093B717009387D70217470020C4
:10292000230FF7B09747002083C7B7B095E7174745
:102930000020034727B01316870161869307C00262
:10294000634806009377170093B717009387D70261
:1029500017470020A30FF7AC8347D40191E78947BD
:1029600017470020A30CF7AC9C5691C78297974756
:1029700000202398A7AE993BFD57A382F19C814785
:10298000B24022443E854101828089473E85828053
:10299000011122CC06CE2A842EC6EFF0AFECB24550
:1029A000F240818D33A5A502229562441375F50F7F
:1029B00005618280011122CC06CE2A842EC6EFF05A
:1029C0006FEAB245F240818D33A5A502229562449B
:1029D0004205418105618280011122CC06CE2A8404
:1029E0002EC6EFF02FE8B245F240818D33B5A50237
:1029F000229562440561828097470020938747A211
:102A0000985725C3411122C426C206C6BE84029728
:102A1000174700200357E7A42A8441C7BA87637386
:102A2000A700AA87C207C183BA866373E400A2869F
:102A3000C206C182958F51476355F706DC5491C396
:102A400082978547174700202302F7B4EFB0A022F2
:102A500097470020239787A0B24022449244410127
:102A600082809747002083C767B29DE79747002081
:102A7000938747B183C79700850793F7F70F1747E9
:102A80000020A305F7B0A18B9DC7854717470020FD
:102A9000231EF7AE6FB0002497470020A38807AE2F
:102AA000D5BF9747002083C767AEDDD72244B24029
:102AB00092444101C5B7828097470020938747968B
:102AC000D857011122CC06CE3E8401C72AC60297F0
:102AD000324509CD23A0A188171500201305056AEA
:102AE000753EF240624401450561828083074401DE
:102AF00063DD07009747002023AE07969717002055
:102B00009387676223A0F188C1BF9717002093873E
:102B10006765CDBF011122CC1744002013044490F7
:102B2000084406CE26CA4AC801E90545F240624477
:102B3000D2444249056182805C58E5DB185C75D758
:102B40007000854582971844B247E300F7FE93056D
:102B5000E004174500200355658D97200020E7808D
:102B600060BF174700202329A79061D11746002096
:102B70000356C68B9305F00FEFF08FEB8144174996
:102B800000201309A98D9747002083C7478A032691
:102B9000C90163C1F402328597200020E78020C577
:102BA00001459747002023A9078C9747002023A7BA
:102BB000078CADBF9745002083D54587B387950225
:102BC0000844185C898185043E9508C2029765BF58
:102BD000411122C417440020130484841C4426C2DB
:102BE00006C64AC0974400209384448791EBC84CA2
:102BF00035E9B240224492440249014541018280B4
:102C00001C5CF5D7DC4C99EF9305E00417450020D8
:102C10000355C58197200020E780C0B39747002067
:102C200023ACA784C84C61D5174600200356068004
:102C30009305F00FEFF0CFDF01499737002083C7EE
:102C4000077FD04CE355F9FA9735002083D5057EF0
:102C5000338525031C44898105093E951C5C08C207
:102C60008297E1BF97200020E78060B89747002057
:102C700023A407809747002023A207809DBF01114E
:102C800056C2973A0020938AAA7983A78A0022CC59
:102C90004AC84EC606CE26CA52C45AC0AA892E8435
:102CA00032896385072203A74A03630707147D4718
:102CB0006366A714973400209384447A03AAC4015E
:102CC00063170A0A9565938515E0173500200355AB
:102CD000E57597200020E780E0A79737002023AD17
:102CE000A7782A86630A051083A74A0303A58A00EA
:102CF0009735002083D585738981829783A78A00C1
:102D000003AAC40117370020232AF7768947639C5A
:102D1000F908C1476312F40E9735002083D5057179
:102D2000938505FC9147B3C5F5028A05D29503C783
:102D300005009307A005631DF70A83C71500639973
:102D4000370B4A852286910597100020E780601C8A
:102D5000DC4C5285639347150145F2406244D244EE
:102D60004249B249224A924A024B056182809850F8
:102D7000E38EE7F89565938525E017350020035528
:102D8000E56A97200020E780E09C2A8A35C52A86DC
:102D900083A74A0303A58A009735002083D50569D8
:102DA00089818297A5B78D47639DF900C147631557
:102DB000F4049735002083D56567938545FDF19927
:102DC000B5B79147639AF90063183403973500202B
:102DD00083D5C565A115E5B7C147639FF900A14734
:102DE00063EC87009735002083D54564C115C1BFCA
:102DF000DC4C52856397470D294585B71307F006CC
:102E0000568B6361A70A130A05FE1947334AEA0283
:102E10001737002003578761973A0020938A0A6486
:102E2000330AEA023E9A83A70A026395470183A404
:102E3000CA019DE49305E004173500200355055FA2
:102E400097200020E7800091AA845DD583274B035B
:102E50009735002083D5855D2A86898152858297A2
:102E600091451307A005898193972500A69783C6EE
:102E700007006393E60483C61700639C3603850549
:102E80008A052286A6954A8597100020E78060086B
:102E900083A7CA01E38297EC268597200020E7806C
:102EA00000955DBD1307E007E368A7F4130A05F971
:102EB00085B783D5270045BF83A7CA01E38E97F264
:102EC000268597200020E78080923DB79737002025
:102ED0009387C758CC4F8DD191479306A00589831E
:102EE000139727002E9703460700E317D6F00346F3
:102EF0001700631C360185078A072286BE954A851E
:102F000097100020E780E00081BD83572700C1BFF4
:102F1000973700209387C750984739C79C5FA9C748
:102F200005476313E504411122C41734002013043C
:102F3000E452504C06C60DC608509735002083D584
:102F4000E54E89818297484C97200020E780208AAF
:102F50009737002023A207529737002023A007525B
:102F6000B240224441018280828001111737002043
:102F70001307074B4EC68329870022CC26CA4AC8AE
:102F800006CE52C456C2AA842E843289638A09208E
:102F90001C5FBA8A99EB2945F2406244D244424907
:102FA000B249224A924A056182805C5BEDD7FD47B7
:102FB00063E9A70E973900209389494A83A7C9017D
:102FC000B1CB03A58A0083A709026395A7068947A9
:102FD0006393F408C147E310F4FC17350020035550
:102FE000E5449147130505FC3345F5029317250089
:102FF00003A5C9012286CA853E959307A005230033
:10300000F500A3009500110597100020E78060F0FF
:10301000014559B79305E0041735002003550541D4
:1030200097100020E78000739737002023A6A7445D
:1030300049F995B783A74A0303A6C901973500202C
:1030400083D5C53E8981829783A78A0017370020E0
:103050002326F742ADBF8D47639EF400C147E31CB2
:10306000F4F2173500200355653C130545FD9377B1
:10307000C5FFBDBF9147639AF400E31E94F0173576
:1030800000200355A53A2115DDB7C147E395F4F0BB
:10309000A147E3E287F01735002003552539411594
:1030A000F9B79307F00663EAA706930705FE1947E9
:1030B000B3C7E7021737002003574737173A0020F6
:1030C000130ACA39B387E702BE998327CA01A9CF79
:1030D00083270A02639A37070325CA01914613081A
:1030E000A005FD5593D72600C207C183139727007B
:1030F0002A9703460700631D0607834817000356F7
:10310000270063959806B306D64063CF86048507EB
:103110008A072286CA853E95C5BD9307E007E3EC82
:10312000A7E6930705F979B79305E0041735002062
:103130000355C52F97100020E780C0619737002006
:1031400023ACA73251F581BD83A74A030326CA01E8
:103150009735002083D5852D89814E8582979737B5
:10316000002023AD37318DBFA300B700B2869DBFCD
:10317000B3858600173600200356462B91051306AB
:1031800006FCE3FAC5E0130634001376C60F1106F9
:10319000B29623000701A30097002311D70085BF33
:1031A000973700209387872BD44FBE89A1C203A5F0
:1031B000C90191461308A005FD5593D72600C20703
:1031C000C183139727002A97034607006316060555
:1031D000834817000356270063989800B306D6402B
:1031E000E3D786F2A300B700B286C1BF8357C700FA
:1031F000173500200345A5239305E0043305F502A8
:103200004205418197100020E780C0549737002085
:1032100023A4A72649FD41B31736002003560621F3
:103220009735002083C5A520B385C5023386860067
:103230001106E3E2C5D681BF01458280011106CEA9
:103240002EC6EF60A03701C9B245F24003552500F4
:1032500005616F908060F240494505618280A386D8
:10326000018A2386018A23AA018823AC018823AE20
:10327000018823A0018A23A8018823A60188973703
:1032800000209387A7213707B40098C33747A000D1
:10329000D8C3370710009306070A94C7B706500033
:1032A000C106D4C7930607054107D8CB3707D00717
:1032B000410798CF3707840398D337C70700130710
:1032C00007B8D8D3416794CB93060701130717F8C3
:1032D000D8D7370781FF98DB7D5723AE070094D7F7
:1032E000239AE7028280011126CAAA84214522CCB2
:1032F00006CE2E8432C636C43AC2EFE0DFBC1DC90A
:10330000A24612473246930700FD2300F500994775
:10331000A30095002301F5002303D500A303E500D6
:103320002312C500AA8522856244F240D244056179
:103330006FE0DFC3F2406244D2440561828023AA79
:10334000A188828023ACA188828023AEA18882805C
:1033500023A0A18A8280011122CC4AC806CE26CAA7
:103360002A890144B30489006368B400F2406244CE
:10337000D2444249056182802EC6EFE0BFCE93174A
:103380000501C183A183B2452380F4009307140093
:1033900093F7F70F850463F9B700CA9709042380F0
:1033A000A7001374F40F7DBF3E847DBFC16717353E
:1033B000002003558512FD176302F502411103C673
:1033C00041929385418A06C6EF608000B240FD5766
:1033D000173700202313F71041018280828009C92A
:1033E00025151375F50F1335850E134515008280CD
:1033F0000145828023800500F94763E2C70879719F
:1034000022D426D24ECE56CA5AC806D64AD052CC5C
:103410005EC63684B289AE8A2A8B814463FF340546
:10342000B307940003CA0700138914001379F90F36
:1034300063050A04B3072A0163C1F904B307240131
:1034400083CB07005E85613F0DC99307FAFF238098
:10345000FA0063906B03130519002295B2502254B1
:1034600092540259F249624AD24A424BB24B4561E8
:103470008280D29493F4F40F55B70145C5B7014546
:103480008280411126C2AE8422C49737002023AD2A
:10349000C7049737002023A7B7049737002023A13C
:1034A000A7042A8441469305F00F26854AC006C624
:1034B0000549EFE01FE2631E25039737002093873D
:1034C0006701884BC145413D41469305F00F228578
:1034D000EFE03FE0854463169502224497370020D1
:1034E000938747FFB24092440249C847C145410112
:1034F0009DB5414681452685EFE0BFDDE31625FDFC
:103500006DBF414681452285EFE0BFDCE30795FCB6
:10351000B24022449244024941018280411122C4B6
:1035200026C22E84AA841306000281451735002086
:10353000130545FA06C6EFE0BFCF97370020A38CEE
:1035400097F8A3838192EF90C032854719C18147D4
:103550004945B240224417370020230DF7F6924424
:1035600041018280814781CD19C98547631BF500E0
:1035700083C7550093E707FCA382F50085473E8586
:10358000828089476317F50083C7550093F7F703D7
:10359000E5B70D478547E314E5FE03C755001377EC
:1035A000F70313670704A382E500D1BF81478DC1EC
:1035B00005C103C755009306000C85471377070C18
:1035C0006308D700930600048D476303D70089473B
:1035D0003E858280411122C4005D06C626C21DC8F8
:1035E000AA84085009C597100020E7804020485061
:1035F00009C597100020E780801F085409C597105F
:103600000020E780C01E228597100020E780201E42
:1036100023AC0402B240224492444101828009ED6D
:103620009737002083C727EB17350020130505ECDB
:1036300081CB13854188828017350020130505EB67
:10364000828017350020034505E9828097370020E6
:10365000938747E8C847828097370020938787E79A
:10366000884B8280973700209387C7E6DC4B8843DE
:103670008280973700209387E7E5D84B1C43850766
:103680001CC317350020034515E59307F00F6305AC
:10369000F50091656FE0DFC58280011122CC06CE76
:1036A0002E8432C6EF60C0009147B245631FF5001B
:1036B0009387018A9C438DC303A30700630E030015
:1036C00022856244F24005610283938781899C438D
:1036D00081C703A34700DDB7F24062440545056199
:1036E0008280011122CC2A840355450006CE26CAC9
:1036F0004AC84EC6EF50B05C2DC52A8983440500E8
:103700008349C500C13D4A85EF60305003554400F0
:10371000EF50907583C7C18AA9CB6398970483C57E
:10372000D18A2685213E19E12386018A035544006A
:10373000EF5010789147631FF50003574400973707
:10374000002083D787D96317F700FD57173700206C
:103750002315F7D8F2406244D2444249B249056188
:10376000828081499304F00F75B79307F00FE38FC0
:10377000F4FA8346640003564400034524004E8750
:10378000A685953665B779715EC6AA8B2E8552CC13
:1037900056CA5AC806D622D426D24AD04ECEAE8AAF
:1037A000328B368AEF50B0516DC1045D2A89F1CC5D
:1037B0009C50614599C3130540039C5481C7510532
:1037C0004205418163050A00710542054181DC50D3
:1037D00081C7590542054181EFE0EFEE2A8455C5C6
:1037E00061468145EFE0DFA49739002083C909CE07
:1037F0006394090083490900930700FD2300F40046
:10380000A947A30074012301F400230364018C5031
:10381000231254011305840191C908C47146930A07
:10382000440397000020E780C06E56858C5491C9F0
:1038300048C45146930A450197000020E780606D17
:103840005685630C0A0008C87146D285930AC501E3
:1038500097000020E780E06B5685CC5099C548C89A
:10386000594697000020E780C06AA2854E85EFE0A8
:10387000EFEF2254B2509254F249624AD24A424B7C
:10388000B24B4A8502594561B1B3B25022549254A9
:103890000259F249624AD24A424BB24B4561828098
:1038A00001114EC6AA892E854AC806CE22CC26CA48
:1038B0002E89EF50D04031C59734002083C404C115
:1038C00099E0834405001945EFE0EFDF2A8415C92C
:1038D00081451946EFE0DF95930700FD2300F400D2
:1038E000B947A30034012301F40023122401A28567
:1038F0006244F2404249B2492685D24405616FE0F4
:10390000EFE6F2406244D2444249B2490561828006
:1039100039715ECEAA8B2E8526DA4ED652D456D277
:103920005AD006DE22DC4AD8AE84328BB68A3A8A76
:10393000BE8942C6EF50B03831C92A894145EFE00F
:103940008FD82A8421C541468145EFE07F8E173507
:1039500000200345A5B719E103450900930700FDC1
:103960002300F400BD472301F400B247A300740113
:103970002312940023046401A30454012305440189
:10398000A30534015CC4A285EFE04FDEF25062541F
:10399000D2544259B259225A925A025BF24B2161D7
:1039A0008280797126D2AA8439454AD04ECE06D675
:1039B00022D42EC6B2893689EFE0EFD021C1B245BC
:1039C0009307000D2310F500B1472A842312B50098
:1039D0002301F500CE851905194697000020E780E0
:1039E000405323062401A2852254B2500259F249C1
:1039F00013F5F40F925445616FE04FD7B250225443
:103A000092540259F24945618280173700200347DA
:103A100097AC9307F00F630DF706411126C2AA84F5
:103A2000394522C406C64AC0EFE0EFC92A8439C925
:103A3000930700FD2300F500A30095002301050076
:103A400097350020938585AA0D051946970000201B
:103A5000E780204C173900201309C9A78357890034
:103A6000A28517350020034515A72315F4008347C9
:103A700019002306F4002244B24092440249410155
:103A80006FE0CFCEB240224492440249410182808D
:103A90008280011156C2AA8A314526CA4AC84EC63A
:103AA00052C406CE22CCAE84328AB6893A89EFE07F
:103AB0008FC129C92A842685EF5070201DCD03456A
:103AC0000500930700FD2300F4009D47A300540167
:103AD0002301F4002312940023134401231434011E
:103AE00023152401A2856244F240D2444249B249DE
:103AF000224A924A05616FE06FC7173500200345DF
:103B0000959DC1B7F2406244D2444249B249224A2B
:103B1000924A05618280397162CC2A8C594526DA35
:103B20004AD84ED652D456D25AD05ECE06DE22DCC9
:103B3000AE8432C636C4BA8B3E8BC28A468A83595B
:103B4000010403494104EFE00FB835C5324693073D
:103B500000FDA2462300F5009547A301C500A30080
:103B600085012301F5002A8419461105A9C2B685ED
:103B700097000020E780E03923066401230A24012E
:103B80002315740123175401231844012319340108
:103B9000A2856254F2504259B259225A925A025B9B
:103BA000F24B624C2685D25421616FE02FBC8145D7
:103BB000EFE00FE8D1B7F2506254D2544259B259F3
:103BC000225A925A025BF24B624C216182809737F3
:103BD000002083C747908DCB4111AA8519461385D4
:103BE000418806C697000020E780A032938541886F
:103BF000173500200345258EEFF0DF96B240138580
:103C0000418841016F80704701458280173700204D
:103C10000347778C9307F00F6305F708411126C21D
:103C2000AA84294522C406C6EFE0EFA92A8429C147
:103C3000930700FD2300F500A1472301F500A30031
:103C40009500973700209387E78883C727009385DF
:103C500041881105A30FF5FE194697000020E78063
:103C6000402BA285173500200345F586EFE00FB005
:103C700017370020034727868D47631FF700938778
:103C8000C1899C4391CB03A38700630703002244AF
:103C9000B240924441010283B24022449244410125
:103CA000828017370020034707838D47631AF70088
:103CB0009387C1899C4389C703A38700E31D03FC45
:103CC0008280797122D406D626D24AD04ECE52CCEA
:103CD000094445C92A89035505002E8A5144EF50ED
:103CE000007EAA8459CD83C77192FD1793F7F70F11
:103CF000054749446377F7080347C500A1476314A4
:103D0000F70063100A089C5C4544A5EF9165938514
:103D100045711305C00297100020E780A0A388DC3E
:103D2000AA894D4439CD1306C0028145EFE04FD03A
:103D3000835709009386490036852391F90071461F
:103D40009305490036C697000020E780801C89470C
:103D50002380F90003C5C400B2460356090061156B
:103D600083C5419213351500EF8040062A8463060F
:103D70000A00D2852685EF60701401C42685EFF015
:103D80007F852285B250225492540259F249624AE8
:103D90004561828083C77192FD1793F7F70F05473E
:103DA0006378F708894751C6011122CC26CA4AC850
:103DB0004EC652C406CEAA89368AB2842E89EF50E6
:103DC00000702A84D14729C9485509C59710002099
:103DD000E780E0A1F1452685EFE0EFC748D4CD4765
:103DE00005CD8346C40021478147639FE600630DEC
:103DF0000A000347A5010356050193062501AA857C
:103E00004E85EF608003AA8703474400630F0900D3
:103E1000136767002302E400F2406244D24442493F
:103E2000B249224A3E850561828013674700DDB7AB
:103E3000C9473E858280E54763EBA70097270020AE
:103E40009387C76506053E95035505008280416549
:103E50007D158280011122CC2A842E8526CA06CEA9
:103E6000AE84EF50C0650DCDB7470F009387F723A1
:103E7000094563E2870281450A854146EFE04FBB71
:103E8000A685231081000A85418023018100A301BA
:103E90000100EF701056F2406244D2440561828006
:103EA0004945D5BFA382A19282806F70F06A797173
:103EB00052CC2A8A328522D426D24AD04ECE56CA35
:103EC0005AC85EC606D662C4AE8BB28A368BBA8436
:103ED0003E89C2894684EF50805E15C92A8C6314DE
:103EE0000A0213774B008347450015CF93E727015C
:103EF0002302FC008DEC631C0902639A090205E8A9
:103F0000ED9B2302FC00832B8C03639F0B06B250B6
:103F1000225492540259F249624AD24A424BB24B5D
:103F2000224C45618280F59B93E70701D1B793E767
:103F300047002302FC0001CC1C484146A2852324F3
:103F4000FC0213058C0197000020E78080FC639140
:103F50000B02D5D80325CC0209C597100020E780B5
:103F60000089F1452685EFE00FAF2326AC0261BF43
:103F7000E30B09F80325CC0209C597100020E78060
:103F80000087F1454A85C5B79DC483A70B0299EB0D
:103F9000916593853571714597000020E780807B9E
:103FA00023A0AB0203A50B0219C57146A685970095
:103FB0000020E78000F66388090283A74B0299EB93
:103FC000916593852571594597000020E780807899
:103FD00023A2AB0203A54B0219C55946CE85970013
:103FE0000020E78000F31DC483A78B0299EB916545
:103FF00093851571514597000020E780A07523A493
:10400000AB0203A58B0219C55146A285970000207B
:10401000E78020F02254B2509254F249B24B224C25
:10402000CA865A860259424BD6855285D24A624A7E
:1040300045616FF04FF5011126CA52C406CE22CC5D
:104040004AC84EC62A8AAE84EF50604725C5AA8961
:104050003945EFD05FE72A8431CD17290020034985
:10406000E9466314090003C909009307000D2310F2
:10407000F400AD472301F400938569001305340073
:10408000194697000020E780C0E893F71400858068
:1040900085882306F400A306940023154401A28515
:1040A0006244F240D244B249224A4A8542490561FB
:1040B0006FD0DFEBF2406244D2444249B249224A17
:1040C000056182809387C188884301CD411106C66E
:1040D00097000020E780A071B24023A6018841012B
:1040E00082808280011106CE22CC26CA4AC82EC602
:1040F000EF50E03C39CDB245172900200349093D76
:10410000AA840CD563140900034905004145EFD08A
:104110009FDB2A841DCD9307000D2310F500A547D2
:104120002301F50083C75400938564001105A30F94
:10413000F5FE194697000020E780A0DD9C54A2857B
:10414000F2405CC46244D2444A85424905616FD062
:10415000FFE1F2406244D2444249056182807971B4
:1041600022D406D62A842EC6EF50603501CDB24542
:104170002285230EB1006C08EF60C050B25022546B
:10418000456182805145DDBF6F504048C16713874C
:10419000E7FF6394E502938781899C4391EB49454E
:1041A00082804945B24022449244024941018280C2
:1041B00003A30700E30503FE0283411122C426C2C4
:1041C0004AC006C6FD172A892E84B2846395F5027B
:1041D000938781899C4391CB9C4381CB829711E546
:1041E0002386218BA386918A75BFA6854A85EFF029
:1041F000EF844DF9F5B72E85EF50602C5DD18347E4
:1042000005000D45E39027FB22852244B240024978
:10421000A685924441016F80406465476362A704AC
:104220004111416722C406C626C27D172A8409456A
:104230006383E502C547AE846315F4002E85EF80E5
:104240004069931714001724002013042425A29713
:10425000239097000145B24022449244410182805C
:1042600009458280011106CE2AC6EFE05FFFEF10FC
:104270006003EF00E075EFD010693245972700200A
:1042800093874725130700F02391E7002382070057
:104290007D5793874192A380E7002380A700F240D7
:1042A000954505616F30703D1D7193970501CAC832
:1042B00086CEA2CCA6CACEC6D2C4D6C2DAC05EDE34
:1042C00062DC66DA6AD8C1872E8963D0074C03C5E1
:1042D0004192EFD03FC38964416A856A797B2A8421
:1042E000938BD4007D1AA50A691B15E0216533451F
:1042F000A900F6406644D6444649B649264A964A3D
:10430000064BF25B625CD25C425D25618280834732
:1043100004001307200A639DE70003552400172CAF
:104320000020034C5C1B2286D285EFF00FB73DAA1C
:104330001307100903CC51926397E71683471400C3
:104340001547639EE7002285EFF0AFB92285EFD0D5
:10435000DFB403C54192EFD0FFBA2A8479B7394759
:104360006399E71603554400631B55050C4483C944
:104370000500639D0900850591C919461725002090
:104380001305C51697000020E780A0B81727002066
:104390000347471485476318F710638A0900972776
:1043A0000020238907124E85EFF02FE645B7894795
:1043B000172700202300F712EF80E04B41BF9387BF
:1043C0002400631AF50683298400638E090C83C7D1
:1043D00009008DE383C7290003C71900A207D98FFD
:1043E00017270020231CF70E83C73900172700204A
:1043F000A302F70E172700200347C70D8947631450
:10440000F70A83C7090081CB972700202384070C74
:1044100003C5090051BF8D479725002083C5950B23
:10442000172500200355850B172700202304F70AC2
:10443000EF30B027F1BF938754006318F5001C4498
:1044400003C50700EFF08FFC11B7B3076501C20782
:10445000C1831147636FF7009387C1899C43E3874A
:1044600007EE9C43E38407EE22858297E31005EE76
:104470001DA89387B400631FF500938741899C436F
:10448000E38607EC9C43E38307ECA2851385B40025
:104490008297E9BF9387C4006310F5021C4483C769
:1044A0000700E38507EA9307F00FE301FCEAA28522
:1044B0006285EFD0BFAB71BD9387E400E315F5FED5
:1044C000938781899C43E38307E8DC43A285E9F372
:1044D000B5BD3D476397E70403554400E30275FF0C
:1044E00093879401E30EF5FC93873401E31DF5FAFD
:1044F0009727002083D767FE639E470193878189B2
:104500009C43E38507E4DC43E38207E4A28513854B
:104510003401BDBF9387018A9C43E38907E29C4332
:10452000E5B71307E003E390E7F883472400054766
:104530006396E70E83476400138DC188F1E38327F8
:104540000D00D5CB03CC0700A14903457400930CA3
:104550008400E685EFF08F8583474401A303A40020
:10456000835804010358E400035744002A86034596
:1045700034003EC283572401E686E2853EC0CE87E2
:10458000EFF06FD98347340095E7DD478358040186
:104590000358E40083467400835544003EC28357A9
:1045A0002401668705463EC06285CE87EF50E02134
:1045B000A301A40083270D0081C71145EFF09FB030
:1045C00003C5C18AE30405D883C5D18AEFE01FC7BC
:1045D000E30E05D68346340093071003638AF60082
:1045E000035644004E8783C5C18A3685EFE0BFCFAE
:1045F0002386018AA1BB172C0020034CDCEDA9B750
:104600009387C1899C43172C0020034CDCEC914913
:104610008DDFDC439DDB0145829705BF2947639011
:10462000E70C83476400938CC188C1E783A70C0023
:10463000A5CF03CC0700A14903457400930684006D
:1046400093772500C9C713761500130D44018347DE
:1046500004028358C4010358A401035744000345CE
:1046600034003EC28357E401E2853EC0CE87EFF0BE
:104670008FCA8347340095E7DD478358C401035848
:10468000A40183467400835544003EC28357E4016D
:104690006A8705463EC06285CE87EF500013A301AE
:1046A000A40083A70C0009BF172C0020034CBCE218
:1046B00059B79387C1899C43172C0020034CBCE158
:1046C0009149BDDBDC43ADDB01458297B5B7B685CB
:1046D00036CEEFE0BFEDF2462A86368D8DBF094714
:1046E000639DE700938741899C43E38107C6DC43D0
:1046F000E38E07C42285829791B92D476399E7001D
:10470000938741899C43E38307C49C47D5B70D47F2
:104710006397E70022868D450355440039B1194758
:10472000E393E7D89305610213051031EFD0F0272A
:104730002C1013052031EFD0502703566400835707
:1047400081020355440063E8C70083568400035781
:10475000610263F7E60093050002EF808016FDB664
:104760006374E6002313E40063F4D7002314F40019
:104770000357C4008356A400035684008355640085
:1047800001488147EF80A013D1B693F7150081CF80
:10479000938741899C4389C7DC4399C3014582972C
:1047A00013451900B9B693F7250081CF9387C189C6
:1047B0009C4389C7DC4399C305458297134529006B
:1047C0000DBE93F745000145E38507B29387018944
:1047D0009C4391CF854717270020230FF7CE93875F
:1047E000C1899C4389C7DC4399C3054582979727B4
:1047F0000020938727CEC8472C10EF70A0282810E0
:10480000EFF0EFBC9727002083D767CB91CB13063F
:1048100000643386C702914503C54192EFD0BFBF04
:1048200013454900F9B4411122C42A84554506C6EE
:10483000EFF06FE0B335A00022852244B240410181
:104840006F80E004797122D406D68D472E84631FD1
:10485000F50003D7A50083D6850003D66500034580
:10486000340083D54500EFF0CFA209A889671387EC
:10487000D7006310E50403C5250019E58547B2504C
:1048800022543E85456182809387C1889443FDD63A
:1048900003C6360083C50600814802C202C0014833
:1048A000814701479106EFF00FA70545EFF09F8183
:1048B000F1B71387E700E303E5FC13873701631AB9
:1048C000E50003C525005DD90147814601468145C4
:1048D00059BFE507E304F5FA41677D178147E31007
:1048E000E5FA03C75500C947E31AF7F883D6E50090
:1048F00003D6C5000355840083D5A500EF70F07D75
:1049000041C95D45EFF02FD33335A000231CA10032
:1049100083454400035524003008EF40D02C8357D2
:104920008101A9FF6C0813051031EFD01008930521
:10493000E10113052031EFD050078357C101035720
:1049400084006374F7002314F4008357E1010357D4
:10495000A40063F4E7002315F40083578400035791
:10496000A4006374F7002315F40003552400EF80BE
:1049700080440357E4008356C4000356A4008355C3
:1049800084000355240001488147EF705071FDB544
:104990008547231CF100ADBFC1671387E7FF639D07
:1049A000E5009387C1889C4395C383C707000D47E3
:1049B000639CA7006F70F06DFD1749476396F50083
:1049C0009387C1889C43FDF73A8582804947EDBFB4
:1049D000238C018A23A0018C23AE018A9727002013
:1049E000938747B1170700001307874798C3170736
:1049F00000001307A74AD8C3170700001307E75A98
:104A000098C79387018B17070000130727F998C3EE
:104A100017070000130747E3D8C38280797122D4B7
:104A200006D626D24AD04ECE52CC56CA5AC80347D2
:104A3000050085472A84630AF70403468500930628
:104A400095009305F1000545EFE0DF9A814719C114
:104A5000834705008346040011476380E6041387FB
:104A6000C18B18438D46034717006308D70295C7CB
:104A70000DC719ED0145B250225492540259F24922
:104A8000624AD24A424B4561828081470145D9B78B
:104A900085466318D7028D8BF1DF03451400130A96
:104AA0002400D285EFE09FB0A300A4001389018CFD
:104AB00083270900AA8A81499304F00F99EB0545E1
:104AC0005DBF8946E318D7FA858BF9B7850993F955
:104AD000F90F83C7818B63FBF90203250900139B40
:104AE00049005A9583470500E38297FE83471500E6
:104AF000E39E57FD1946D2850905EFD08FF979D588
:104B00008324090003470400DA9485EC83460400FB
:104B10009147E381F6F683270900A9DF03C6818B5D
:104B200001479305F00FE307E6F4BE84C10703C510
:104B300007FF630CB50A05071377F70FEDB788C4B5
:104B4000E5A09147631AF706C84405C5834784006A
:104B5000034605006304F606034704009147631B00
:104B6000F706C84419C597000020E78040C823A66F
:104B700004000345840091659385E5710505970060
:104B80000020E78020BD05C5034704009147631C52
:104B9000F704C8C483478400930594000505A30F58
:104BA000F5FE0346840097F0FF1FE780803603453B
:104BB00084003335A000C1B5884441BF93059400FB
:104BC0000505EFD00FED8547E318F5F85545EFF0F3
:104BD0008FA6BDA8884451DD97000020E78020C142
:104BE00023A4040079B788C475B72380D400834711
:104BF0001400D28513852400A380F400194697F091
:104C0000FF1FE78000310345840091659385F571AE
:104C1000050597000020E780E0B305C503470400C1
:104C20009147E31EF7F0C8C48347840093059400BE
:104C30000505A30FF5FE0346840097F0FF1FE780EC
:104C4000402D83478400E39C07E6034504007D155F
:104C5000133515000DB5011122CC1384018C1C40B5
:104C600006CE26CA4AC84EC652C499CF2E8AAA84F6
:104C70000149084063129902630C0A04970000205E
:104C8000E780E0B623A0018CF2406244D24442495E
:104C9000B249224A0561828093194900B307350160
:104CA000884709C997000020E78060B41C40CE9770
:104CB00023A407001C40CE97C84709C997000020CD
:104CC000E780E0B21C40BE9923A60900050955B74C
:104CD00045DD139644008145EFD08FD514408147C0
:104CE0007D5613F7F70FE37197FA1397470036973E
:104CF0002300C7008507F5B7011152C4138AC18B81
:104D000083270A0006CE22CC26CA4AC84EC656C2FF
:104D10005AC0C9CF2A89014419ED9387018C944365
:104D200099CA03C6818B2A8481479305F00F13F734
:104D3000F70F6367C708131534002105EFD0AF984C
:104D4000AA8401E92145EFD00F98AA8421C5014426
:104D50004D49930700FD2380F4008547A38024017B
:104D60002381F400A38184005DC41389840023A2FD
:104D700024018149938A018C130BF00F83C7818B27
:104D800063F3F90031E883270A00A68503C507000D
:104D9000EFD0CF9D814503C5818B753D03250A006A
:104DA00097000020E780A0A423AE018AF24062446D
:104DB000D2444249B249224A924A024B056182805A
:104DC000139747003697034707006305B7000504AC
:104DD0001374F40F8507A1BF83A70A0093954900B8
:104DE000BE9583C70500638467032300F90083C76A
:104DF0001500130529007D14A300F9001946890543
:104E00001374F40F97F0FF1FE780A01021098509A4
:104E100093F9F90FA5B723A20400B5B7411122C435
:104E200006C62A8405E10945EFF0EF802A8611C500
:104E3000854503C54192EFD00FDE0545EFF0BF9EDB
:104E40002A8401C9854503C54192EFD04FF32285DD
:104E50006535B24022440545410182808967138748
:104E6000B700631AE5009387C18B9C439DC39C45A3
:104E700003C5070065B71387C7008147631CE500BA
:104E80009C4503C50700854711C59387C18B9C438B
:104E9000F5F381473E858280797106D622D426D2E9
:104EA0004AD04ECE52CC56CA5AC85EC679C983473C
:104EB0003500AA8985C7404115C05945EFE0BFF7C5
:104EC000931A850193DA8A410149138AC18B130B26
:104ED000000DB54B83C73900636DF900B250225401
:104EE00092540259F249624AD24A424BB24B45614E
:104EF00082808307840263CD570783270A00ADCBE6
:104F00002285EFF0BFB12DC5034584005105EFC0E8
:104F10009FFBAA8431CD23106501230175018347CE
:104F20000400194693052400A301F50083078402B9
:104F300015052303F50083471400A30FF5FE97F032
:104F4000FF1FE78000FD034684002386C4001DC6C2
:104F50001385440188C89305940097F0FF1FE780EC
:104F600040FB83270A00A68503C50700EFD00F800A
:104F70000509130494021379F90FA9BF23A80400AB
:104F8000CDB79387C18B9C43B1DBBD332254B25064
:104F900092540259F249624AD24A424BB24B0145FD
:104FA00045616FF05F88797106D622D426D24AD047
:104FB0004ECE52CC56CA5AC85EC671C18347350020
:104FC000AA8985C7444195C05945EFE0DFE6931AA9
:104FD000850193DA8A410149138AC18B130B00FDC5
:104FE000C14B83C73900636DF900B250225492540B
:104FF0000259F249624AD24A424BB24B4561828021
:105000008387F40063C8570783270A00A5C7514563
:10501000EFC07FEB2A8439CD23006501A300050092
:105020002301750183C70400194693852400A30159
:10503000F5008387F4001505A306F50083C7140067
:10504000A30FF5FE97F0FF1FE780A0EC83C7840055
:10505000938594001305C400A305F400194697F046
:10506000FF1FE78000EB83270A00A28503C5070026
:10507000EFC0DFEF0509C1041379F90F9DB79387DE
:10508000C18B9C43BDD3EFF03FC72254B250925422
:105090000259F249624AD24A424BB24B014545613C
:1050A0006FF06FF883C77192A18B1385018B91E329
:1050B00001456FE02FA9411122C485452A8403C50B
:1050C000818B06C6EFF03FB983C77192A98BA5CB40
:1050D0001715002013050542238C818AEFE02FA6C7
:1050E0001384018C1C4091C74D45B24022444101BC
:1050F000828003C5818B19E10145C5BF9165938508
:10510000B571120597F0FF1FE780C06423A0A18C42
:1051100061DD03C6818B12068145EFD06F9110408F
:1051200083C6818B8147FD5513F7F70FE376D7FCD4
:105130001397470032972300B7008507F5B701455D
:10514000238C018AEFE0AF9F45BF93870189884395
:1051500001CD411106C697F0FF1FE7804069B240BC
:1051600023A80188410182808280011122CC06CED1
:105170008D472E846316F50603C73500E94703D52E
:1051800045006318F7009717002083D7073563851C
:10519000A706EF40C03209C5835764002317F50006
:1051A0000357A400835684000356640083554400CB
:1051B00003453400EFE0FF8D0357440097170020AC
:1051C00083D7A7316308F7008547F24062443E85E4
:1051D00005618280FD57171700202310F730EDB7C7
:1051E0008967CD07631DF50083C7250031476385B7
:1051F000E7004547E39AE7FCEFE04F9BF1B74167D3
:105200007D178147E313E5FC83C655004947E39EBC
:10521000E6FA83C54500035524003000231401003D
:10522000EF40401755B7797122D4138401891C408F
:1052300006D626D24AD00545A5C30D45EFE0BFBF2F
:10524000AA841145EFE03FBF2A899305F1011305B8
:10525000F041EFC0E00E0347F1019717002083C72C
:105260008727B336F00011C389061C4036C603C534
:10527000370093854700EFE0EFAE1040B2462A8733
:105280008348B6000348A60093074600034626005D
:10529000CA852685EF70A05EB250225492540259FE
:1052A00045618280FD572388F1802392018C23A6DB
:1052B000018C23A8018C23AA018C971700209387C7
:1052C0002724170700001307A70798C31707000034
:1052D0001307A734D8C317070000130707F598C7AB
:1052E000970700009387A7E823A4F18C82804111DF
:1052F00026C2938401899C4006C622C49DCB2A8481
:105300000D45EFC05FBCAA8519CD930700FD2300B2
:10531000F5008D47A30085002301F5009C4003C5DF
:105320000700EFC0BFC411C42244B24092444101FF
:1053300029BDB2402244924441018280797126D233
:1053400083544500896706D622D44AD04ECE52CC2B
:1053500013876700639DE402938701899C4301449E
:1053600081CF1845034507000DE10547A380E700FD
:105370000545EF70805105442285B2502254925465
:105380000259F249624A456182809537EDB7138729
:1053900097006365970403C701819307F00FE30C3F
:1053A000F7FC1C45114503C40700EFC0DFB1AA8517
:1053B00079D1930700FD2300F50089472301F5000B
:1053C000F977E117BE9493B41400A3008500A301FC
:1053D000950003C50181EFC07FB971BFA9070144E2
:1053E000E39CF4F813890189832709004A8AC9D705
:1053F000184503C41700854783490700630DF4026D
:105400009717002083C7470DBDF70D45EFC0BFAB11
:10541000AA8505C1930700FD2300F5009147A3006D
:1054200035012301F5008327090003C50700EFC0FC
:10543000FFB3213B89B79387C18C9C4391EF014512
:10544000EFE07F9F2A8611C6894503C54192EFC0D0
:105450009FFC83270A00A9A003C6070093861700B4
:105460009305F1000545EFD0FFF871D9834705009A
:10547000858BF1D70545EFE01F9C9307B003AA8405
:1054800063FDA7025D6613060670894503C5419258
:10549000938444FCEFD0CF8B2392918C8327090017
:1054A0000947A380E7009717002083C7E70299CB3D
:1054B0009717002023820702C1B513060064330644
:1054C000C50251B74E85253545BD938701899C435B
:1054D000011122CC06CE26CA4AC8454499E783C7A3
:1054E000719213F7570009EB49442285F240624458
:1054F000D2444249056182801387C18C18434144DC
:105500006DD70347070075D3858BAE842A89D9C729
:1055100083C704000547F91793F7F70FE366F7FC15
:10552000916593857571314597F0FF1FE780802263
:1055300023A8A1884D4455D923002501A3000500C7
:105540002946A685090597F0FF1FE780809C9305F3
:1055500071001305F041EFB0B05E83477100B9E709
:1055600017170020034727F78D476311F704EFE073
:10557000EF8D2C00EF6000512800EFE04FE545452E
:10558000EFE07F8B014435D1130600643306C5027A
:10559000914503C54192EFC01FE881BFEFE0DFBE38
:1055A0002A84EF408009E375A4F69DBFEFF0BFC7E2
:1055B0002A8405DDEFF07FB90DBF411126C2938427
:1055C00001899C4006C622C4A1C383C707000D44BD
:1055D000639DA702894503C54192EFC05FFA9145DB
:1055E00003C541922392018CEFC07FF997170020E9
:1055F000A38407EE9C400145A38087002244B2406B
:10560000924441016F70602849442285B24022448F
:10561000924441018280411106C685476311F50617
:1056200083D7418CA1C7171700200347E7EA1DEF76
:105630001307B0036367F702894503C54192EFC0C2
:105640001FF49307006403D6418C3306F6028945A4
:1056500003C54192EFC03FDC2392018CB24041016F
:105660008280938747FC2392F18CCDBF9387018979
:105670009C43EDD7B24003C5070041013DBF93876E
:1056800001899C43E1DF83C77192918BE1DB8945FE
:1056900003C54192EFC0BFEEB2402392018C41019D
:1056A0006FF0BFAA83C77192958BCDC79387C18CCA
:1056B00099E19387418D9C43D1CFFD4763EEC708A5
:1056C00011C2D9CA411122C426C206C64AC02388C3
:1056D000A180B6843284A1C11389C18C032509003D
:1056E0007D4681450505EFC0BFB403250900A685A9
:1056F0002286050597F0FF1FE780A081832509001A
:105700002285238085002244B240924402498505C7
:1057100041016F7000171389418D032509007D46F3
:1057200081450505EFC0DFB003250900A685228667
:10573000050597E0FF1FE780C07D832509002285CE
:10574000238085002244B2409244024985054101EC
:105750006F706013494582800945828083C77192CA
:10576000918B99CF41111385818C06C6EFD05FBE16
:10577000B240FD57171700202311F7D64101828050
:1057800001456FD0FFBC9387C18C8843411122C46F
:1057900006C626C23E8419C597F0FF1FE780200584
:1057A00023A6018C9387418D884319C597F0FF1F6D
:1057B000E780E00323AA018C9384419283C73400DD
:1057C000958BA5CF17150020130585D3EFD0FFB714
:1057D00083C73400958B99E74D45B24022449244EB
:1057E000410182809164938564711305000297F0F2
:1057F000FF1FE78020F623A6A18C79DD13060002A7
:105800008145EFC0FFA2938554711305000297F004
:10581000FF1FE78020F423AAA18C01C91306000210
:105820008145EFC0FFA001454DBF084097F0FF1F25
:10583000E780E0FB23A6018C45B70145EFD0FFB020
:10584000DDB70145828083C69192814763E5D70029
:1058500001473A8582802E87910503D6C5FFE30A6A
:10586000A6FE8507E5B70DCD8347250005478907C7
:1058700093F7F70F6376F702411122C406C62A8414
:1058800083550500034535000147F9465D46EFD0D5
:10589000304FF9572311F400B24022444101828075
:1058A000828003C791928147FD5663E3E7008280BF
:1058B0002310D5002301050085071105FDB701451B
:1058C00082809385F1819307000285462380F5004D
:1058D000FD57238FF1802389F180A388F180239ED7
:1058E000D180239C018C23A0018E23A8018E23A2AA
:1058F000018E13864181972701009387679A5CC2C6
:10590000238D018C97F7FF1F938787FA09472300A0
:10591000E6002380E7002388E7002380E70223884E
:10592000E702172701001307E796D8DB0D47238C02
:10593000E7021387C18D18432384D700D0C7238C77
:10594000D700172501001305259617260100130619
:105950002694972601009386A695C8C32395070031
:10596000D0CB239D0700CCCFD4D32384070223952B
:10597000070223A60702239D0702D8DF97F7FF1F20
:10598000938707F7170700001307E70B23A007000B
:10599000D8C323A407008280411106C66D3511C506
:1059A00003452500B240410182800145E5BF411118
:1059B00022C426C24AC006C6AA842E893284613512
:1059C00009E94165CA857D15BD3DC54711C523104F
:1059D0009500230185008147B24022449244024948
:1059E0003E854101828039E3894835476391160538
:1059F000011106CE22CC26CA034716000346060034
:105A000093C7F7FF2207598EF18F32C69DE3C44535
:105A10002A84A685513732460147630EA6002285A7
:105A20006244F240A685D244056151B72D473A85BC
:105A3000828013070008F2406244D2443A8505612F
:105A4000828083C8050009486394080303A84500C1
:105A50008347180003480800A207B3E70701C207FD
:105A60000D68C18713082890639407018947A5BF73
:105A70000545828003C721819307F00F630AF7046D
:105A800041114AC02A89294522C426C206C6328449
:105A9000AE84EFC04FC31DC59307100B2310F50054
:105AA000230205002314850022442311250123131A
:105AB0009500B24092440249AA8503C52181410163
:105AC0006FC0CFCAB2402244924402494101828051
:105AD000828041119387C18D26C2AE848C4322C43B
