:081000006F0080702C5100000C
:1010080000000000000000006F0080086F0020252D
:1010180000000000000000000000000000000000C8
:1010280000000000000000000000000000000000B8
:101038006F004006000000006F00E005000000009F
:101048006F0080056F0060056F0040056F00200588
:101058006F0000056F00E0046F00C004000000008E
:101068006F0060046F0040046F0020046F000004EC
:101078006F00A0266F00C003000000006F0060032F
:101088006F0040036F0020036F0000036F00E00251
:1010980001A001A001A001A001A001A001A001A040
:1010A80001A001A001A001A001A001A001A001A030
:1010B80001A001A001A001A001A001A0B717004054
:1010C800130770052380E704130780FA2380E704D9
:1010D8000F1000002396A70223800704371700404B
:1010E80083472705898BEDDF8357070537170040AE
:1010F80083472705898BEDFF37170040834727056E
:10110800898BEDDF035507058280B71700409306EA
:1011180070052380D704130780FA2380E7040F1093
:10112800000003C6B7041376F60DA385C704238011
:101138000704137605023DCA03C6A700118A1DE2FB
:101148002380D7042380E7040F10000003C7A700FB
:10115800136747002385E7009307004B0100010050
:10116800FD17EDFFB7170040930670052380D704DD
:10117800130780FA2380E7040F1000007D89239469
:10118800A70001000100010001002380070423805B
:10119800D7042380E7040F10000037270040930688
:1011A8001005A303D78023800704828013760504E3
:1011B8006DDE03C6A700418A1DE22380D704238081
:1011C800E7040F10000003C7A70013670701238572
:1011D800E7009307007D01000100FD17EDFFB71739
:1011E8000040930670052380D704130780FA2380F4
:1011F800E7040F1000007D89136505042394A700F8
:101208000100010001000100238007042380D704A6
:101218002380E7040F1000003727004093063005AD
:1012280049B74111814601468145114506C6492AFB
:10123800B7170040130770052380E704130780FAE7
:101248002380E7040F10000003C767041367170023
:101258002383E70423800704B2404101828081464A
:10126800014681451145A92AB71700409306700524
:101278002380D704130780FA2380E7040F100000A7
:101288007D562396C7022380D7042380E7040F10D6
:10129800000003C76704136717002383E70423804C
:1012A800070401A0BD473305F50201007D1575FD52
:1012B8008280411122C426C206C6AA84014463174B
:1012C8009400B240224492444101828005041305EF
:1012D800803E4204C13F4180DDB7B7170040130785
:1012E80000032388E7028547170700002320F77EBD
:1012F80073002030411122C406C6374400208327DA
:1013080004808297EDBF2303048095472303F4806C
:101318002302A480828083076480E3CE07FE230330
:101328000480828083076480E3CE07FE03454480FF
:10133800828083076480E3CE07FE2302A480828034
:10134800411126C44AC24EC006C61377F50BAD47F5
:10135800AA892E8995446306F70019456D37653FBC
:101368008D444E854D37FD59FD1463983401B240C4
:10137800A24412498249410182801355090113751B
:10138800F50F453F2209CDB7011126CC06CEB7048B
:10139800080051371545853F713769372AC6A53F7B
:1013A80032459377150089EB136515001375F50F12
:1013B800F240E24405618280FD14E9FC0145CDBF9D
:1013C800397126DC4ADA4ED852D656D45AD25ED073
:1013D80062CEB7E700E006DE66CC6ACA414783AB57
:1013E800070422C6B8C37D5703AB070083AA47008A
:1013F80023A0E71823A2E718B717004013077005C2
:101408002380E704130780FA2380E70483C747048F
:10141800130C75FFB684E207137CFC0F85462A8AF5
:101428002E89B28937240040E187015763FA860183
:101438006308D5008946130700026313D5000157D6
:10144800D98F93F7F70F371D00402302FD0411478A
:101458002303E4801305F00F7D35894C6D3D63EB64
:101468008C11B70707003E99378707007955637EC7
:10147800E902B3079900636AF702A947631CFA06F1
:1014880089E48144493D26850DA0CA8509454D3D1D
:10149800850903C5F9FFFD140509613D81C49377EA
:1014A800F90FFDF7D53569FD7D55B71700401307CE
:1014B80070052380E704130780FA2380E70403C735
:1014C8004704418B2382E704B7E700E023A07705B0
:1014D800F25023A0671123A25711E2543244525903
:1014E800C259325AA25A125B825B724CE24C524D7C
:1014F80021618280A5476314FA0685699307F00F76
:10150800B3869700B374F900B69493C7F7FFFD8CC0
:1015180033F92701416A056C9387F9FFB3F727016F
:1015280099E363FC340193D94900C147E3E637FFE7
:1015380089BF8567C169FD17E1B71305800D638809
:101548004901130500026384890113051008CA853F
:10155800C53B1D3D31D94E99B3843441D9B7CA85AD
:101568002D45F93BCE94E38E99F08509653BA38F11
:10157800A9FED5BF9307FAFF93F7F70F63ECFC08B2
:1015880003475D04B70708001377070219E3B78715
:1015980007007955E37BF9F033079900E3E7E7F0B3
:1015A80089476310FA048980554AE38C04ECCA859C
:1015B80009457933910903A7C9FF91472320E4809E
:1015C80003076480E34E07FE23034481FD17EDFB08
:1015D800FD14110981C49377F90FE9FF753371F58B
:1015E800E1B58547E307FAF4CA852D45913B138990
:1015F800F4FFE38804E83D339377390091EB8326C1
:10160800048003A7090093874900E39DE6E6BE89A5
:10161800CA84F1BFB5476316FA001305900BE5318C
:101628008DB5B1471305B00AE30BFAFE9947631E5F
:10163800FA02CA852D45293381440D4C214ADD31F2
:10164800639684018327048023A0F9008504E39826
:1016580044FF832704801317290163550700239249
:10166800F90005B523A2F90029BD9D476319FA02BF
:1016780081451305B004E931BD4423A0090023A224
:1016880009007D59453193F77400CE9703C70700C9
:10169800FD14398D2380A700E39624FFDDB3A1470D
:1016A8006312FA04D5318144630D09008D47930410
:1016B800C0036308F90093040005630499019304C7
:1016C80040041375C507E30E95DA19452D39A13184
:1016D800054515392685B1390945A1397531E31212
:1016E80005DAD9B391476319FA0013056006213961
:1016F8001D311305900925B7E3050AD8F15459B3EC
:10170800973100209381810F177100201301018FF9
:10171800170500001305058F973500209385050EE2
:10172800173600201306867D63FAC500832205005C
:1017380023A0550011059105E3EAC5FE17450000F1
:101748001305059F9385017017460020130686B47C
:1017580063FAC5008322050023A0550011059105F1
:10176800E3EAC5FE174500201305C5B297550020CA
:10177800938505396377B500232005001105E36DCE
:10178800B5FE9302800873A002309732002093823E
:10179800E20693E212007390523037170040930725
:1017A80070052300F704930780FA2300F7040F104D
:1017B80000003C47B70600FAE116F58FB7060006A9
:1017C8009506D58F3CC7971200009382626F73907D
:1017D80012346FE07002730020303D432A87637330
:1017E800C3029377F700BDEFADE5937606FF3D8A18
:1017F800BA960CC34CC30CC74CC74107E36BD7FE62
:1018080011E28280B306C3408A06970200009696CA
:101818006780A6002307B700A306B7002306B70012
:10182800A305B7002305B700A304B7002304B70036
:10183800A303B7002303B700A302B7002302B7002E
:10184800A301B7002301B700A300B7002300B70026
:10185800828093F5F50F93968500D58D93960501B3
:10186800D58D61B7939627009702000096968682D9
:10187800E78086FA9680C1171D8F3E96E374C3F8F9
:10188800A5B7B717004003C777051377E70FA38BF2
:10189800E704130700F8A38DE7043D47238CE7040A
:1018A80013075003A38CE7048280B717004003D5C1
:1018B80087005D715ED64205418186C6A2C4A6C274
:1018C800CAC04EDE52DC56DA5AD862D466D26AD022
:1018D8006ECE9377050C13070008814B6382E71AD5
:1018E800130700046396E716B7240D8F7D89938448
:1018F8000480B3D4A4029167938707E8BE94A167D4
:10190800938707D0B3D4F402EF10702B97370000F9
:101918009387C7359043D443EF10205FEF10B06C26
:101928002A8B939C0401174900200359A99693DC3C
:101938000C0163150900056913090980B7170040F0
:10194800130770052380E704130780FA2380E70450
:101958000F1000000547371A0040939D0401096CD9
:1019680085662389E704D14A814E8145130D0A040F
:1019780013087005130680FA894893DD0D01130CCE
:101988000C712943FD1623000D012300CD000F1013
:10199800000023162A0323000D0083472A05898B9C
:1019A800EDDF83570A0583472A05898BEDFF8347B7
:1019B8002A05898BEDDF83570A0517470020231B6B
:1019C800278DC207C183338597419319050193D9A0
:1019D8000941638809163387B9026350070E850EDB
:1019E800C20E93DE0E0163EAD80D63DB050A3305E8
:1019F800B04093150501C185C204C18063D9350B78
:101A0800B7170040130770052380E704130780FA0F
:101A18002380E7040F10000009651305057133855D
:101A2800A5022396770323800704334595024205D0
:101A38004181B640264496440649F259625AD25A20
:101A4800425BB25B225C925C025DF24D6161828016
:101A5800B1E3B77489097D8993840480B3C4A4026F
:101A68009167938707E8BE94A167938707D0B3C4AB
:101A7800F402EF10D014973700009387A71F59BDC1
:101A8800973700009387071E856403AB070093848C
:101A9800843841BD130B0000954461B53A89E5B51A
:101AA800B387FC409399070193D90941B1B70965F8
:101AB800130505713385A9028DBF3385B74163E4EA
:101AC800FC003385FD40330585033344B503634586
:101AD800830013150401A9BF4E8536C642C432C21D
:101AE800EF101044DA85EF109014EF10503D931E5C
:101AF800050193DE0E41B307D941C207C183056EC4
:101B08003E871246224889482943B24663E3C70103
:101B1800368742074183631A270113071900634474
:101B280030011307F9FF42074183FD1A93FAFA0FB0
:101B3800CA8BCE85E3940AF697370020239CE77476
:101B480049BF0145FDB5B717004003D587005D7152
:101B580086C642054181A2C4A6C2CAC04EDE52DC76
:101B680056DA5AD85ED662D466D26AD06ECE02C62B
:101B78009377050C130700086383E716130700041F
:101B88006397E712B7240D8F7D8993840480B3D4BB
:101B9800A4029167938707E8BE94A167938707D04B
:101BA800B3D4F402EF10B001973700009387070C05
:101BB8009043D443EF106035EF10F0422A89939A8E
:101BC8000401173B0020035B0B6D93DA0A016315D0
:101BD8000B00056B130B0B80B7170040130770053C
:101BE8002380E704130780FA2380E7040F1000001E
:101BF8000547939B04018969056A2389E704D14D48
:101C0800014D814C93DB0B01938909717D1A5A852B
:101C180097300020E78040CA330C5541420C135CD2
:101C28000C41973700202398676763050C16B307A4
:101C38009C0363D3070E050D420D135D0D01894703
:101C480063ECA70D63DD0C0A33059041931C050175
:101C580093DC0C41C204C18063DA8C0BB7170040D7
:101C6800130770052380E704130780FA2380E7042D
:101C78000F1000000965130505713385AC02324762
:101C88002396E702238007043345950242054181E4
:101C9800B640264496440649F259625AD25A425BE3
:101CA800B25B225C925C025DF24D61618280B1E3BD
:101CB800B77489097D8993840480B3C4A4029167A9
:101CC800938707E8BE94A167938707D0B3C4F4024B
:101CD800EF10E06E973700009387C7F9D1BD9737AB
:101CE8000000938727F8856403A907009384843844
:101CF800F9B5130900009544D9B53E8B09BF338562
:101D0800AA40131C0501135C0C41A9B7096513050A
:101D180005713305AC028DBF63FEAA00330575411A
:101D280033053503A9473344750363C88700131582
:101D38000401B1BF3385AB40E5B76285EF10501E93
:101D4800CA85EF10C06EEF109017131D0501135DC3
:101D58000D413307AB41420741838565BA87636309
:101D6800B700D287C207C183639A670193071B0034
:101D7800634480019307FBFFC207C183FD1D93FDE8
:101D8800FD0F5AC6E28CE39A0DF61737002023148C
:101D9800F75071BF0145EDBD41112A83014E930EE5
:101DA800407E130F0019930F400663ED6E0A9308E7
:101DB800001913034006B3781503854E0D4FA14F44
:101DC800337365020D891335150063E7BE0C1308DC
:101DD800F6FF794672984208135808013307C7027C
:101DE80013D61700BE0732976146B3F6C60213062C
:101DF8008070B386C6023697A166F58F42075D8F5D
:101E0800B717004083C6F70293F60608A307D10068
:101E18000346F10083C6F70293F60608E394C6FE6C
:101E28008346F10093F6F60FF1DE930670052380E2
:101E3800D704930680FA2380D7040F10000023AA42
:101E4800070383C6170393E60608A388D702D8DBDF
:101E580003C7170313670704A388E702238007044F
:101E6800410182807D133368E3039308E016630E13
:101E780008003368F3039308D016630808009378C2
:101E8800330093B818009388D81633081E01131E20
:101E98000801135E0E0111BF6393E50305486386CD
:101EA80008000148630303002A8871087298FD1529
:101EB800131E0801C205135E0E01C18139B713F85C
:101EC800150063F4BF007908D5B713381800E5BFCB
:101ED800914763EEB70217370000130727DA8A0520
:101EE800BA959C41BA978287B717004003A7470B5A
:101EF8001345F5FF698F23AAE70A03A7070B698F24
:101F080023A8E70A03A7070A798D23A0A70A8280D6
:101F1800B717004083A6470B1347F5FFF98E23AA8E
:101F2800D70A83A6070B558D23A8A70A83A6070AF5
:101F3800758F23A0E70A8280B717004003A7470BD5
:101F4800498F23AAE70A03A7070B1345F5FF45BFE7
:101F5800B717004083A6470B1347F5FF758F23AAD1
:101F6800E70A03A7070A598D4DB7B717004003A71B
:101F7800470B498FEDB7B717004003D587004205D7
:101F880041819377050491EB9377F5013755E80183
:101F9800130505803345F50282809377050C1307F6
:101FA80000046397E7009377F50137459C1CCDB78C
:101FB8002165130505D08280B7F700E0C8439C4728
:101FC8008280814737370040A14663C4C700328505
:101FD80082800345B740E38EA6FE3385F5000345AE
:101FE800050085072304A740CDB7973700209387BE
:101FF800E7269C4317570020130787B03E95636E6A
:10200800E50017670020130767DF6368A700173725
:1020180000202325A7243E858280FD57EDBF41116E
:1020280022C406C62A84813F2947B307E502B24085
:102038008D83B3D7870222449507B3D7E702373792
:102048000040C207C1832316F740410182807165B1
:1020580041111305052006C6D937B73700401307C5
:1020680070F82381E7400D47A381E7401307000478
:10207800A380E74005472387E740B24041018280BB
:10208800CC41411106C6328503C6150083C505003B
:1020980022064D8E42068D654186138875A2630718
:1020A8000611634AC804138845A2630D060B634AE8
:1020B800C800938535A2630FB6062390060029460B
:1020C80071A8138855A26301060D938565A2E316CE
:1020D800B6FEC1451D4663E3E5084546198E63F320
:1020E800C7003E86C1672390C600FC4797350000AD
:1020F800938505BB8DA0138895A2630D060F6349D0
:10210800060D1388A5A263090611938505A5E31694
:10211800B6FA99451D4663E3E504198E63F3C700D3
:102128003E86C1672390C600FC47973500209385FB
:10213800A51315A09D451D4663E2E5022146198EAB
:1021480063F3C7003E86C167FC472390C6009735F6
:10215800002093856514BA9582970146B24032856E
:1021680041018280AD451D46E3EAE5FE3146198E00
:1021780063F3C7003E86C1672390C600FC479735C6
:1021880000009385A5B5C1BFB1451D46E3E8E5FC50
:102198003546198E63F3C7003E86C1672390C60093
:1021A800FC4797350000938565B475B7C1451D4652
:1021B800E3E6E5FA4546198E63F3C7003E86C16734
:1021C8002390C600FC47973500009385A5AE61B7FC
:1021D800C1451D46E3E4E5F84546198E63F3C7009B
:1021E8003E86C1672390C600FC479735000093855B
:1021F800E5B095B7C1451D46E3E2E5F64546198EBB
:1022080063F3C7003E86C1672390C600FC47973535
:102218000000938565AB81B7B5451D46E3E0E5F45D
:102228003946198E63F3C7003E86C1672390C600FE
:10223800FC47973500009385A5A531BFC16703A367
:10224800071397360020938666DE4146CD451385F1
:10225800017002832D4549E703C505000947631D41
:10226800E50603A84500411106C603471800328554
:102278000346080022074168518F930828FE630E21
:10228800170363E9E80005186309070323900600AC
:10229800294581A0130648FE6301C7021518E317F4
:1022A80007FF15463E876373F6001547C1672390FD
:1022B800E600FC471316070109A83E8691C30546A8
:1022C800C167FC472390C6004206CC4541828297ED
:1022D8000145B24041018280239006000545828075
:1022E800828083C7850093F70702F1E3411106C690
:1022F80022C426C24AC003C9050089482E888547DA
:10230800631C190383A845003284B68483C7180068
:1023180083C80800A207B3E71701C168138E18FE27
:102328006383C703138E38FE638CC7050D681308D3
:10233800289063850707A947B2402244924402497E
:102348003E8541018280AD4765FB0547B547E3659A
:10235800D7FE83A7C8040325C8000546A28582972F
:10236800014997370020938767F59843814769D7D4
:10237800184379D32686A2854A85029781476DBF7F
:10238800AD475DFB0547B547E368D7FA83A7C8049F
:102398000325C8000546A2858297E1B72244B240CA
:1023A8009244024903A34814854741010283A14787
:1023B8003E85828041679306E7FF6301D50441119A
:1023C80022C406C685472A84639EF500C167228514
:1023D8002244B24003A3871397350020938545ED27
:1023E8004101028389476397F5008327070B8545D9
:1023F800829769DDB2402244410182808280411186
:1024080022C441648327841306C626C29735002058
:10241800938505EAAA841305F4FF82978327C40AE3
:1024280017050000130545F98588829795C0032391
:1024380004132244B2409244973600209386C6D0B3
:102448004146C54517350020130505BF41010283E4
:10245800B2402244924401454101828019C5973710
:10246800002023ADA7E401458280454582801147BD
:10247800636FA70897360000938686890A05369504
:102488001841411106C63697AE87B28502870547BF
:102498006145639BE700C167FC4705461735002087
:1024A800130505E082970145B24041018280054746
:1024B8006145E39BE7FEC167FC47054617350020E9
:1024C800130545DEC5B705476145E39FE7FCC167CE
:1024D800FC47054617350020130505DDE1B705471C
:1024E8006145E393E7FCC167FC47054617350020C3
:1024F8001305C5DB45BF15476145E397E7FAC16793
:10250800FC471546173500201305C5DA61BF094594
:102518008280411126C2C16483A7C41322C44AC061
:1025280006C62E8497350020938585D82A898297F8
:10253800058905C597370020938707B083D7A70B70
:10254800A28503A3440D2310F4002244B240924410
:102558004A850249014641010283B240224492441D
:102568000249494541018280411106C6EFF0EFB3A7
:10257800BD4763F4A700EFF04FB3EFF0CFDCBD47E2
:1025880063F4A700EFF02FDCC167B24003A3472133
:102598009735002083D525D017350020035585CFE2
:1025A80041010283411193962500AA852D4506C64F
:1025B80097200020E7808060B24001454101828079
:1025C800411126C29394250022C44AC02A84328924
:1025D800A686AA850146254506C697200020E780DD
:1025E800E05DA6864A86A285294597200020E780D7
:1025F800E05CB24022449244024901454101828094
:10260800011122CC06CE3714004026CA4AC84EC64D
:1026180052C483447405034AB405834984050349B5
:102628009405EFF00FA68347A40593F4F40F137AEB
:10263800FA0F93E71700230DF40493F9F90F1379B0
:10264800F90FB717004003C7A705058B6DFF03D522
:10265800C705A38D4705238C3705A38C2705A38BB6
:102668009704F2406244D2444249B249224A056181
:10267800828041119397050122C406C626C2C187EC
:102688002E8463DF0700C164FC54829719C1BC54CF
:1026980082972165218DB240224492444101828073
:1026A80093F7150013C51500FDF79397250163D41B
:1026B8000702C16483A7C41E82977D35BC4C37F6D8
:1026C8000200130606E0896517350020034545BF5B
:1026D80082970965C1B7939715010145E3DD07FAAC
:1026E8001725000013058568EF10C03FC167BC4F70
:1026F80013060064916517350020034565BC829771
:10270800116549BF1D71A2CC41645C5C485886CEF6
:102718004946972500009385E560829701E91725CA
:10272800000013056561EF10E03B01A037F700E0FA
:10273800F9575CC7FD571CCB8566B7E700E023A0B7
:10274800D7101306701010C3B8434146B0C323A076
:10275800D718B8C30F1000003C441306C0038145C6
:102768004808829797370020938747B93ECA8967F8
:1027780093870780231CF100ED47A301F10293071B
:10278800A0102312F102D1472303F102A167938716
:1027980007E03ECE97070000938707E1BEC497077E
:1027A8000000938727E2BEC685472304F102B54798
:1027B8002308F10297070000938747803EDAB7F5B0
:1027C8000700970700009387E7E33EDE81469707F7
:1027D80000009387A7D97000E1051945BEC097206E
:1027E8000020E780A03D58088147994670003E9632
:1027F8000346060085070507A30AC700E398D7FE26
:10280800D24791C70357810185676373F70001A019
:10281800C16783A7470A48088297AA8501C917256F
:1028280000001305A552EF10001A01A0F6406644F7
:1028380025618280411126C2C16483A7040806C6A7
:1028480022C417050000130505E3829717340020FA
:10285800130404A72300A4003928034504002244D4
:1028680003A38405B240924437F60200130606E03B
:10287800896541010283411122C406C6371400400C
:10288800930670052300D404130780FA2300E40498
:102898000F1000008347F40293F7A70FA307F40271
:1028A8002300D4042300E4040F1000008347F4023B
:1028B80093E72700A307F40245398147230004045E
:1028C8001305407E0147814605468545EFF0CFCC8C
:1028D800C1672244B24003A347070145410102836F
:1028E8002A86B305B040172500001305E54B6F1085
:1028F800800D03574500011106CE22CC97370020E2
:1029080083D7879D631AF70441649307E4FF173759
:1029180000202323F79C9737002023A1079C7C4C99
:102928008945173500200345659582977C4C91456C
:10293800173500200345859482978547A307F10042
:10294800832744171306F1008545130550308297F5
:10295800F240624405618280172500001305C542D4
:10296800EF104018F5B77D15954763EAA7161727A6
:1029780000001307E73F0A053A951C41411122C49C
:1029880006C626C2BA972E8482871725000013052B
:1029980025432244B240924441016F10A01403C75A
:1029A80025009947631CF7002E85A13783456400ED
:1029B800172500001305C541EF10E000172500009A
:1029C8001305C542F9B703C7250095476316F702F3
:1029D800C16417370020035727909387E4FF03D576
:1029E800A5006300F70283A7C41782971725000084
:1029F8001305C540EF10000F172500001305854289
:102A080049BF973700202399A78C83D7E500130681
:102A18000064173500200345658617370020231EFC
:102A2800F78A83D70501173700202319F78A83D738
:102A380025018945173700202313F78ABC4C829754
:102A4800BC4C096613060690A145173500200345BE
:102A5800E5828297BC4C0566130606C89145173572
:102A680000200345A58182970356E4008355A400FE
:102A7800172500001305C539EF00F074B5BF1725F9
:102A880000001305E53A31B783C5250091476397E0
:102A9800F500172500001305253BE5BD9947639010
:102AA800F5022285B9358345640017250000130512
:102AB80025322244B240924441016F00D0709547BC
:102AC800639AF50083471400E9F7172500001305FA
:102AD8006539C1B51725000013054539D9BF82806E
:102AE8009727002083D7477F6396A70217270020E0
:102AF8002315B77E172700202312C77E172700202B
:102B0800231FD77C2E861725000013056528BE8550
:102B18006F00706B17250000130505276F00907C68
:102B280001119397050122CC06CE26CAC1872E84AF
:102B380063D30702C164FC541725002003450574BC
:102B4800829719C1BC5482972165218DF240624455
:102B5800D2440561828093F7150085C7C16783A7B2
:102B6800471A172600201306266597250020938507
:102B780025761725002003456570829713451400B4
:102B8800F1B793F72500B5C3C164BC4C13060064C4
:102B98008945172500200345656E8297930780F8BD
:102BA8002302F10085472315F10083A7841201470A
:102BB80081460546ED45172500200355E5718297A6
:102BC800FC440356A1002AC64C0082972C00172506
:102BD800002003556570353A11C583A7C412ED4529
:102BE800280082971345240095B793F7850095C769
:102BF800C16703A8871A130740069727002083C7D1
:102C0800E7678146130640069945172500200355B6
:102C1800A56C02981345840015BF93F7450001453C
:102C280095D7C16483A70418172500200355C56AE2
:102C38008297BC4C0566130606C8914517250020E7
:102C48000345C56382971345440009B7797122D4B7
:102C580041648327040806D626D24AD01705000007
:102C6800130545EC8297854417290020130909614B
:102C780099472300A90023089100231AF10093071C
:102C88004006231CF10083274417100885451305C7
:102C980050308297832744171726002013060654BE
:102CA800F1451305703082978327441717260020B3
:102CB8001306065D9D4513056030829783274417E8
:102CC8005008894513051031829783274417300827
:102CD80089451305203182978327441593050005FC
:102CE8000D45829783274415930500051145829762
:102CF80023049100230691002308910002CC230AA3
:102D08000100832784163008914513057040829787
:102D18008327841630008545130500408297832752
:102D28008416700085451305104082978327841602
:102D3800500885451305204082978327841610087C
:102D48008545130550408297832704157D55829742
:102D5800832744137D558297EFF04FCE7D55EFF0D2
:102D68000FEA83278414172600201306A645D545A5
:102D78000145829789472306F1008D472308F10012
:102D88009147230AF10097270020938727509843FB
:102D980083C747003000854501453ACC230EF10032
:102DA80023049100EFF0AFEC700085450545EFF086
:102DB8000FEC100885450945EFF06FEB5008854585
:102DC8000D45EFF0CFEA300895451145EFF02FEAB1
:102DD8001307E4FF972700209387075098C323A27F
:102DE80007001725002013052549EFF02FE7832753
:102DF800C41D172500201305254D82973C4803451F
:102E0800090085458297B25022549254025945616F
:102E18008280411122C4172400201304244D2286E5
:102E280091469D652D4506C697200020E78000D96C
:102E38009306001001469D65254597200020E780F0
:102E4800E0D78D47228691469D6529452300F400E9
:102E580097200020E78080D62244B2404101172302
:102E680000206700C3BB011106CE19C5894763005E
:102E7800F502F24005618280C167FC4768008297CD
:102E880017250000130545FFEF00D045DDB7C167E2
:102E9800FC4768008297172500001305A5FFEF007F
:102EA8007044172500001305A500EF00B043154531
:102EB80097200020E780A0BFA93F65BF41111305F7
:102EC800800406C622C497200020E780C0A33717D5
:102ED80000408327870A8D451305002093E70720C4
:102EE8002324F70AEFE0DFFE4164EFF04F964858DD
:102EF800EF00503FEFF01F81353A8327041A82977D
:102F0800B13397200020E780A0BE39714AD813D981
:102F180045014ED652D456D29399C50006DE22DC1E
:102F280026DA5AD05ECE1379F97F2A8A93D9C90056
:102F380093DAF501630D090E9307F07F6306F9181C
:102F48001354D5018E09B36934013704800033E482
:102F5800890093143500130919C08149814B13D78F
:102F68004601139AC6001377F77FB285135ACA0031
:102F780013DBF601630B07109307F07F6303F70475
:102F88009357D6010E0A33EA4701130717C0B7074C
:102F98008000B367FA00931536003A99814833C721
:102FA8006A01BD463A851308190063E836171726E3
:102FB80000001306A6F08A09B29983A60900B29602
:102FC8008286B367CA001309F97F6399071293E9E8
:102FD800290081458948E1B701479307F07F370405
:102FE800080081443204D20731807E075D8C598CF9
:102FF800A285F250625426854259D254B259225AB7
:10300800925A025BF24B216182805A853E84AE84DB
:10301800C68B8947638DFB0E8D47E38FFBFA854787
:103028002A87639CFB3881470144814465BF33E4A8
:10303800A90061C036C632C4638B092A4E85EF00E9
:1030480030112246B246AA87130755FF7544938468
:1030580087FF198CB399990033548A00336434017B
:10306800B3149A0013D746011309D0C0139AC600A7
:103078001377F77F3309F9408149814BB285135A99
:10308800CA0013DBF601E31907EEB367CA00B1C73C
:10309800630F0A22528532C4EF00900B22462A871A
:1030A800930655FFF547930587FF958F331ABA00A6
:1030B800B357F600B3E74701B315B6003309E94043
:1030C8001309D9C08148E1BD33E4A90001ECA14945
:1030D80081441309F07F894B59B593E9190081455B
:1030E800854875BD4E84AA84B1491309F07F8D4B7C
:1030F800BDB5914981440149854B95B593E939009E
:10310800D2878D4869BD89475685E397FBF02A87A2
:103118009307F07F01448144F1B5C16E1386FEFF29
:1031280093D6040113DE0501F18CF18D33869502E7
:103138003383B6029358060133059E021A95AA985E
:10314800B382C60363F36800F692C16F1383FFFF6F
:1031580033F5670093D30701B3F76800C2073373E9
:1031680066003E933306950293D80801B387A602FA
:10317800135F0601B3849302BE94FA94B38E760269
:1031880063F3F400FE9E416A9307FAFF935F04011C
:10319800B376F400B3F9F4007D8EC1803384D50290
:1031A800C209338FD401B299CE98B307DE02935E79
:1031B8000401B385BF02AE97BE9E330EFE0363F3D0
:1031C800BE00529EC1679385F7FF33F6BE006D8C33
:1031D8004206229693DE0E01B305D502769E33850C
:1031E800AF0213D40501B386D302AA96A296B38F71
:1031F800F30363F3A600BE9F41657D15B3F7A600F0
:10320800C2076D8DAA97B3855800B3B93501FA97EF
:10321800B2953384370133B6C500B30EC401338584
:10322800CE0033343401B3B7E701C18F33BECE01CA
:1032380013D406013336C5003E943366CE0093940A
:10324800950032947E94B3E4640026049356750185
:10325800B3349000DD8193179500CD8C558CDD8CAF
:103268009317740063DB070093D7140085889316BF
:10327800F401DD8CD58C058042899307F93F6357AB
:10328800F00893F6740081CE93F6F4001146638833
:10329800C60093864400B3B496002694B684931669
:1032A800740063D80600B70700FFFD177D8C9307ED
:1032B80009409306E07F63CDF60E93D6340093144D
:1032C800D4012604D58C318093F7F77F21BB328552
:1032D80032C4BD2D93065501F14713070502224656
:1032E800E3D2D7DC6115B317A6008145C1BB8D2594
:1032F80013075501F145930705022246B246E3D765
:10330800E5D461153314AA008144A9BB85469D8E76
:10331800B1E71309E941B3972401B3D4D4003319B1
:103328002401B337F000B3649900DD8C93F774007F
:10333800B356D40081CF93F7F40011466388C700D1
:1033480093874400B3B49700A696BE8493978600EB
:1033580063D8070485470144814469B11306800393
:10336800E343D6CC7D46E356D6FA0556B307F64076
:10337800930500023356F4006387B6001309E94346
:10338800B3172401DD8CB3349000D18C93F674000C
:10339800014499CA93F7F40011468146E392C7FAAB
:1033A800139496003180F6068D80D58C81471DB91F
:1033B8009307F07F0144814435B142897DBD4111B5
:1033C80006C622C426C205CD9357F541B3C4A7004B
:1033D8009D8C2A842685AD2B9306E041898EA947CA
:1033E8007D8093F6F67F63CDA7022D47098FB3D76B
:1033F800E4005505B207B394A400B18329A00144A1
:10340800814681478144B207D206B1837E04D58FB5
:10341800C18FB24022442685BE85924441018280F4
:103428005515B397A400B207B1838144E9BF7971F8
:1034380022D4135475014ECE52CC9319950006D65A
:1034480026D24AD056CA5AC81374F40F93D9990091
:10345800135AF50169C49307F00F6308F40E9397A4
:10346800390037070004B3E9E700130414F881446E
:10347800014B13D77501939A95001377F70F93DAD9
:103488009A0013D9F50145CF9307F00F630CF702A3
:103498008E0A130717F8B7070004B3EAFA003A943C
:1034A800014633452A01BD47AA869305140063E007
:1034B800971017270000130767A48A04BA949C4042
:1034C800BA9782871304F40F63960A0C93E42400D6
:1034D8000946C1BF01451307F00FB7074000B250B6
:1034E8002254A6075E07A5837E05D98F92540259F8
:1034F800F249624AD24A424B5D8D45618280CA8652
:10350800D689328B8947630FFB088D47E304FBFCA0
:10351800854736856310FB1A01478147C9B7639D04
:10352800090413D77501939A95001377F70F9144FF
:103538000144054B93DA9A0013D9F50131F7639DDD
:103548000A0093E414000546A9BF63920902A14446
:103558001304F00F094B31BF5685DD2E9307B5FFD5
:10356800098CB39AFA001304A4F801461DBFB144AC
:103578001304F00F0D4BF5BD4E852EC6D12E9307C3
:10358800B5FF1304A0F8B399F900098C8144014BE5
:10359800B245C5B593E434000D4621B78947D286B4
:1035A800E315FBF636851307F00F81470DBF41631E
:1035B8009306F3FF13D6090193D80A01B3F7D9008C
:1035C800B3FADA0033885703B389F80213570801AE
:1035D800B30A5603D6994E973306160363735701F9
:1035E8001A96C167FD17B376F7003378F800C2065C
:1035F800C2969399660093570701B3393001E9825F
:10360800B2979A07B3E6D900B3E9D7009397490070
:1036180063D9070013D7190093F71900B369F700A6
:103628002E841307F4076350E00493F7790099C7D1
:1036380093F7F90091466383D7009109939749005E
:1036480063D90700B70700F8FD17B3F9F9001307A6
:1036580004089307E00F63CBE70493976900A583F9
:103668001377F70FADBD8547B386E74011C76D46A1
:1036780001478147E345D6E61307E4093397E90094
:103688003337E000B3D7D900D98F13F7770019C7BC
:1036980013F7F70091466303D70091071397570074
:1036A800634C07009A07A583014715BD1307F00F60
:1036B800814735B52E84B5B7054781470DB537061F
:1036C8008000135775019307F6FF1377F70F9305DB
:1036D800E007B3F6A7009357F50163FCE5009305EF
:1036E800D00963FAE500370500801345F5FF3E95DC
:1036F80082800145828093055009D18E63CDE50013
:10370800130660093307E64033D7E6003305E04087
:10371800F5F33A8582801307A7F63397E600FDB7DD
:10372800411106C622C426C20DCD9357F54133C4B4
:10373800A7001D8CAA842285212C9307E0093387D2
:10374800A74093076009FD8063CCE702A146937701
:10375800F70F63D5A60061153314A400260425804D
:1037680021A0814481470144260413559400B240A6
:103778002244DE07FE045D8D458D9244410182801E
:103788009307900963DDE7009307B5019546B317E2
:10379800F400898E3354D400B337F0005D8C95471C
:1037A80063D6A7009307B5FF3314F400B70600FCEF
:1037B800FD16937774003376D40085C39377F400AD
:1037C8009145638CB70011069317560063D707001D
:1037D8009307F009758E3387A74013146600258078
:1037E8009377F70F51B793D645019397C50093F692
:1037F800F67FB183138616008E071357D50113760B
:10380800E67FFD815D8F9318350035CE138806C895
:103818009307E00F63DD070181471395970093062F
:10382800F00FDE062581FE05558D4D8D828063558E
:10383800000B931765000E07B337F000D98F93D8A4
:10384800D801B3E7170113F777006301071013F7DF
:10385800F70091466303D7009107370700047D8F6F
:1038680075C7130718001306F00F9376F70FE305D3
:10387800C7FA9A07A58313959700DE062581FE05EA
:10388800558D4D8D8280B367170199EE85CF954789
:103898009A07A5831395970093F6F60FDE06258100
:1038A800FE05558D4D8D8280A5DBB7074000139529
:1038B80097009306F00FDE0681452581FE05558D9C
:1038C8004D8D82808147139597008146DE062581BC
:1038D800FE05558D4D8D8280A5576348F804F9473C
:1038E80037068000B38707417D45598E6351F5043B
:1038F800795733070741130500023357E6006388F9
:10390800A700938626CAB316D600B3E8D800B33703
:103918001001D98F13F77700014815FB139757004B
:103928008546E34807F48146A5B781468DB7938657
:1039380026C83397D8003337E000B316D600B3D87B
:10394800F800B367D700B3E7F800E9B7C28689B7CC
:10395800C167637EF5029307F00F1307000263EC5B
:10396800A700971700009387675DAA9703C507000C
:103978003305A74082802181971700009387075C51
:10398800AA9703C5070061473305A7408280B70798
:103998000001636EF5006181971700009387075A4D
:1039A800AA9703C5070021473305A74082804181B4
:1039B8009717000093878758AA9703C507004147C0
:1039C8003305A740828039713EDA2ED232D436D6FA
:1039D8003AD842DC46DE972700209387E78A22CC34
:1039E800804326CA06CEAA8409C41C4C99E32285C2
:1039F80035230C4454102686228536C6EF00F0186D
:103A0800F2406244D24421618280011126CA4AC828
:103A180006CE22CC4EC652C4AA842E8901C51C4D9E
:103A280091E3ED299C4C804499E32685C529971795
:103A380000009387A762631CF402C0408357C40048
:103A4800A18BB1C71C48A1C7FD59294A1C4483450D
:103A58000900FD17B1E91CC463DE07062286A945E3
:103A680026854128FD576308F502294535A0971793
:103A780000009387A7606314F4008044C1B79717C8
:103A880000009387A75BE31BF4FAC04445BFA285F7
:103A98002685052255D97D55F2406244D2444249D3
:103AA800B249224A056182801CC4050963D7070010
:103AB800184C63CBE700638945011C401387170046
:103AC80018C02380B70059B7228626851D20E31F1A
:103AD80035F7D1B71C401387170018C02947238032
:103AE800E70061B7971700209387077AAA8588436C
:103AF80029BF011122CC26CA4AC806CE4EC6AA84BE
:103B08002E89328401C51C4D91E3092997170000BD
:103B18009387C7546319F406C0401C4C1CC48357D0
:103B2800C400A18BC9C31C48BDCF1C480840937969
:103B3800F90F1379F90F1D8D5C486346F500A285CE
:103B48002685752C2DE51C440505FD171CC41C4055
:103B58001387170018C0238037015C486389A700C2
:103B68008357C400858B81CBA9476316F900A285CA
:103B7800268571240DEDF24062444A85D2444249BB
:103B8800B24905618280971700009387274F631415
:103B9800F400804459B7971700009387274AE31E1B
:103BA800F4F6C0449DBFA285268521203DDD7D59C0
:103BB800D9B74111971700209387076D26C2844310
:103BC80022C44AC006C62A892E8489C49C4C99E31B
:103BD8002685A9269717000093874748631CF40297
:103BE800C0400317C40093170701C18393F68700E9
:103BF800B5EE93F607019DEEA5472320F90013675C
:103C080007042316E4007D55B24022449244024939
:103C18004101828097170000938747466314F40098
:103C28008044C1B79717000093874741E31BF4FA14
:103C3800C04445BF918B8DC74C5889C9930744042C
:103C48006384F5004A859123232A04028357C4001C
:103C58002322040093F7B7FD2316F4001C481CC068
:103C68008357C40093E787002316F4001C4881EFAC
:103C78008357C4001307002093F707286385E700DC
:103C8800A2854A85A5218357C40013F7170005C7E5
:103C98005C4823240400B307F0401CCC1C480145B1
:103CA800A5F78317C40013F7070839DF93E707045C
:103CB8002316F40089BF898B014791E3584818C43B
:103CC800F1BF83D7C500011122CC26CA06CE4AC847
:103CD8004EC613F78700AA842E8471EFD841634D2E
:103CE800E000B841634AE0000145F2406244D24432
:103CF8004249B2490561828058547DD703A904001E
:103D08009396370123A0040063DD060670488357A5
:103D1800C400918B99C75C401D8E5C5899C33C4088
:103D28001D8E5C540C50814626858297FD5703579B
:103D3800C400631DF5009440F54763E8D706B7074C
:103D480040208507B3D7D700858BA5C31C482322FD
:103D580004001CC09317370163D80700FD5763148C
:103D6800F5009C4091E368C84C5823A02401ADDDC0
:103D7800930744046384F50026850129232A040255
:103D8800A5B70C500146854626850297FD572A8619
:103D9800E31FF5F69C40A5DF75476385E7005947A3
:103DA8006394E70423A0240181B71367070423164B
:103DB800E4007D551DBF83A90501E38709F203A926
:103DC80005008D8B23A0350133093941014791E363
:103DD800D84918C4E35A20F11C540C50CA864E86A0
:103DE800268582976349A0008357C40093E7070498
:103DF8002316F4007DBFAA993309A940E1BF9C4965
:103E0800B9CF011122CC06CE2A8411C51C4D81E7F9
:103E18002EC62922B2459717000093872724639B53
:103E2800F5004C408397C50095C722856244F2404F
:103E3800056141BD97170000938747246394F500F7
:103E48000C44CDB7971700009387471FE39CF5FCF8
:103E58004C44C9BFF2406244014505618280014576
:103E68008280411122C406C62A842316B50023176E
:103E7800C500232005002322050023240500232252
:103E8800050623280500232A0500232C05002146C2
:103E980081451305C505EFD05F94971700009387F8
:103EA800E7B65CD097170000938747B91CD49717DB
:103EB8000000938787BD5CD497170000938747C09D
:103EC80000D01CD8B24022444101828097050000EE
:103ED800938525F389AA411126C213068006938487
:103EE800F5FFB384C4024AC02E8922C406C693854E
:103EF8004407A1262A8401CD232005002322250179
:103F0800310508C4138684068145EFD01F8D2285AC
:103F1800B240224492440249410182801C4DBDE3D3
:103F2800411106C622C497070000938767FA1CD57B
:103F3800971700009387871F9C4323240504232693
:103F48000504232805046314F50085471CCD2A843D
:103F58001D2848C02285052808C422852D2048C46C
:103F6800484001469145F53D08440546A545D53DDF
:103F780048440946C945F53585471CCCB24022441A
:103F88004101828082804111971700009387071AA8
:103F980026C284434AC006C69C4C22C42A8999E397
:103FA8002685AD3F938484048044DC40FD1763D6A6
:103FB80007009C40B9CF8440C5BF0317C40039E748
:103FC800C177850723220406232004002322040046
:103FD800232404005CC423280400232A0400232C7F
:103FE8000400214681451305C405EFD00FFF232A9D
:103FF8000402232C04022324040423260404228517
:10400800B24022449244024941018280130484064A
:1040180071BF91454A85C13588C051FDB1472320FC
:10402800F9000144E9BF797122D44AD052CC56CA6A
:104038005AC85EC606D626D24ECE2A8AAE8A13043F
:1040480085040149054BFD5B09ECB25022544A85B1
:1040580092540259F249624AD24A424BB24B4561E4
:104068008280044483294400FD1963D40900004078
:10407800E1BF83D7C400637BFB008397E4006387B9
:104088007701A6855285829A3369A90093848406AC
:10409800E1BF1971A6DAAE848395E500A2DC86DE5D
:1040A800328463DC050083D7C40023A0060093F79D
:1040B800070885E7930700401DA0300836C6EF00C3
:1040C800B026B246E34105FE7247BD67F98F79779E
:1040D800BA9793B717009CC2F1BF930700041CC09E
:1040E800F6506654D65401450961828083D7C500CD
:1040F800011122CC06CE26CA4AC8898B2E8489CFC4
:10410800930774041CC01CC885475CC8F24062440D
:10411800D24442490561828074003000AA84953FE8
:10412800A2452A892685112A01ED8317C40013F7B1
:10413800072069FFF19B93E727002316F400C9B70E
:10414800970700009387C7D89CD48357C40008C03A
:1041580008C893E707082316F400A2475CC8B247CB
:1041680091CF8315E4002685EF00301F01C98357DE
:10417800C400F19B93E717002316F4008357C4008B
:104188003369F9002316240151B7DDC583A7C5FF9C
:10419800411122C406C626C21384C5FF63D3070093
:1041A8003E94AA84EF005023971700209387471363
:1041B8009C4391EF232204009717002023A2871223
:1041C8002244B2402685924441016F001021637E4B
:1041D800F40014403307D4006396E7009843DC43A7
:1041E800369718C05CC0C9BFBA87D84319C3E37DE6
:1041F800E4FE94433386D700631F86001040B296CE
:1042080094C33386D700E31DC7FA10435843B296C8
:1042180094C3D8C375B76375C400B1479CC04DB784
:104228001040B306C4006316D70014435843B2962F
:1042380014C058C0C0C369B78280011126CA9384CC
:104248003500F19806CE22CC4AC84EC6A104B14723
:1042580063F9F404B14463E8B4042A89EF00D01781
:10426800971700209387C70798433A8439E497172C
:104278000020938727079C4381EB81454A85A12F1E
:104288009717002023A0A706A6854A85A927FD59C8
:10429800631B3507B1472320F9004A85EF00F01367
:1042A80029A0E3DA04FAB1471CC10145F24062448F
:1042B800D2444249B249056182801C40858F63C15E
:1042C8000704AD4663F6F6001CC03E9404C001A87E
:1042D8005C4063158702171700202323F7004A85DF
:1042E800EF00B00F1305B40093074400619933073A
:1042F800F5404DDF3A94898F1CC04DBF5CC3C5B7EC
:1043080022874040A5B7130435007198E30085FC67
:10431800B305A4404A85C125E31A35FBA5BF1C4651
:10432800FD171CC663DA0700184E63C5E700A947E6
:104338006394F5006FF0EFFB1C422E85138717007E
:1043480018C22380B7008280011122CC26CA4AC82D
:104358004EC652C406CE2A89AE893284B304D6002A
:104368007D5A63149400014509A8834504004E86CC
:104378004A8575370504E31645FFF2406244D24486
:104388004249B249224A05618280357122CD26CB45
:104398004AC94EC706CF52C556C35AC1DEDEE2DC53
:1043A800E6DAAA89AE843289368401C51C4D91E3C8
:1043B800B53697170000938767CA639BF40C83A4EC
:1043C800490083D7C400A18BF5C79C48E5C793076C
:1043D8000002A304F1029307000302D22305F102AD
:1043E80022C6930B5002971A0000938A2ACB054CD9
:1043F800294B4A848347040099C36390770FB30C11
:104408002441638D0C00E6864A86A6854E852D3F9D
:10441800FD576306F51E9256E69636D2834704008A
:10442800638F071CFD571309140002C802CE3ECA49
:1044380002CCA309010482D4834509001546568598
:10444800BD2F13041900C24759E913F7070109C71B
:1044580013070002A309E10413F7870009C713072C
:10446800B002A309E104834609001307A002638090
:10447800E608F2474A848146254603470400930527
:104488001400130707FD6379E60AB5CA3ECE85A86E
:1044980097170000938787BE6395F40083A489006B
:1044A8000DB797170000938767B9E39CF4F083A4CE
:1044B800C90001BFA6854E85EFF0AFEF09D97D553C
:1044C800FA406A44DA444A49BA492A4A9A4A0A4B9B
:1044D800F65B665CD65C0D618280050421BF3305FE
:1044E80055413315AC00C98F3EC82289B1B7324750
:1044F80093064700184336C6634907023ACE034776
:1045080004009307E002631FF704034714009307AE
:10451800A002631BF702B2470904138747009C43B4
:104528003AC663C107023ECA35A83307E04093E79D
:1045380027003ACE3EC8E1B7B387670385462E8485
:10454800BA9725BFFD57C5B7050402CA81468147FA
:1045580025460347040093051400130707FD6376F7
:10456800E606F1F2834504000D4617150000130511
:1045780065B3B12511CD971700009387A7B21D8D9C
:1045880093070004B397A700424505045D8D2AC828
:10459800834504001946171500001305E5B01309F3
:1045A80014002304B102212D3DC197C7FFFF938753
:1045B800E7A495E74247B2471377071009CF910759
:1045C8003EC69257D2973ED22DB5B387670385462C
:1045D8002E84BA97BDBF9D07E19BA107D5B7780088
:1045E80097060000938686D626860C084E85970087
:1045F8000000E7000000FD572A8AE314F5FC83D782
:10460800C40093F70704E39C07EA125555BD7800E8
:1046180097060000938686D326860C084E85012AC5
:10462800D9BF797156CA9C49BA8A984522D426D2EC
:104638004ECE52CC06D64AD05AC85EC6AA892E8417
:10464800B284368A63D3E700BA879CC00347340430
:1046580019C385079CC01C4093F7070281C79C407B
:1046680089079CC00329040013796900631A0900AB
:10467800130B9401FD5B5C449840998F634CF904DB
:104688001C408346340493F70702B336D000A5EBE9
:1046980013063404D2854E85829AFD576303F504C8
:1046A8001C4011469840998B544481446397C70035
:1046B800B384E64063D3040081441C44184863541F
:1046C800F700998FBE94014969047D5B63982405BE
:1046D800014509A885465A86D2854E85829A631E69
:1046E80075017D55B250225492540259F249624ADA
:1046F800D24A424BB24B456182800509ADBF3307B0
:10470800D40013060003A301C70403475404938786
:104718001600A2978906A381E7049DBF85462286D5
:10472800D2854E85829AE30E65FB050945B77971F6
:1047380022D426D24AD04ECE06D652CC56CA5AC811
:10474800B68983C68501930790063289AA842E8488
:1047580013863504638DF60263E2D7069307800556
:104768006387F61863EDD700638006229307300449
:10477800638EF60A930A24042301D404C9A093077C
:1047880030066385F60A93074006E395F6FE1C405B
:10479800084393F6070893054500C5C61C410CC39A
:1047A80063D807001307D002B307F040A301E4045D
:1047B800971600009386C68F29476DA893070007B0
:1047C8006383F61663E5D7029307E006638AF61853
:1047D8009307F006E390F6FA0C401C4313F805081B
:1047E800138547006307080608C39C438DA89307F1
:1047F8005007E383F6FE93078007638AF612930750
:104808003007E399F6F61C43D0418145938647006B
:1048180014C383AA070056855D2601C53305554193
:1048280048C05C401CC8A301040471A81C43930A37
:104838002404938647009C4314C32301F40485474A
:10484800D5B793F607041C410CC3B9DAC207C18770
:1048580081BF93F5050408C3C9D983D70700130797
:10486800F0066387E60E971600009386668429474C
:10487800A30104044C400CC463C5050008406D99AD
:1048880008C099E3B28A91CDB28AB3F5E702FD1A5E
:10489800B69583C505002380BA00B3D5E70263FF48
:1048A800E70AA147631EF7001C40858B91CB58404F
:1048B8001C4863C7E70093070003A38FFAFEFD1A9D
:1048C8003306564110C84E87CA867000A2852685D1
:1048D800893B7D5A631E450B7D55B2502254925434
:1048E8000259F249624AD24A424B45618280A38208
:1048F800D504970600009386A67B0C40084313F85E
:1049080005081C411105630D080208C313F71500BB
:1049180001C793E505020CC04147B9FB0C4093F56C
:10492800F5FD0CC0B1B79C4193E707029CC1930702
:104938008007A302F404970600009386A67875BF43
:1049480013F8050408C3E30308FCC207C1837DBF4D
:10495800970600009386C675214719BFAE8735B7FD
:1049680094411C43CC4913F8060813854700630695
:10497800080008C39C438CC301A808C393F6060427
:104988009C43F5DA2390B70023280400B28A25BF98
:1049980014485686CA8526858299E30F45F31C403C
:1049A800898B8DE7B2474844E359F5F23E8535B720
:1049B80085465686CA8526858299E30F65F1050ADC
:1049C8005C443247998FE345FAFEE9BF014A930AEE
:1049D80094017D5BF5B7411122C42A842E8597275F
:1049E800002023AD071006C6EFD02FE0FD5763194E
:1049F800F50097270020938767109C4391C31CC03C
:104A0800B240224441018280411122C42E84839500
:104A1800E50006C6E122634905007C48AA977CC8E0
:104A2800B2402244410182808357C4007D777D17BC
:104A3800F98F2316F400EDB783D7C500011122CCF6
:104A480026CA4AC84EC606CE93F70710AA842E84F3
:104A58003289B68991C78395E50089460146352292
:104A68008357C4007D777D17F98F2316F4008315CB
:104A7800E4006244F240CE864A86B249424926851D
:104A8800D24405613DA8411122C42E848395E500D6
:104A980006C6E528FD570357C400631BF500FD77DC
:104AA800FD17F98F2316F400B24022444101828099
:104AB8008567D98F2316F40068C8FDB78395E5008C
:104AC80025A8411122C42A842E85B28536869727C7
:104AD800002023A5070206C6EFD0AFCEFD57631905
:104AE800F50097270020938767019C4391C31CC05A
:104AF800B240224441018280411122C42A842E8579
:104B08009727002023AC07FE06C61922FD57631914
:104B1800F50097270020938767FE9C4391C31CC02C
:104B2800B240224441018280411122C42A842E8548
:104B3800B2859727002023A307FC06C6D520FD577A
:104B48006319F50097270020938747FB9C4391C37F
:104B58001CC0B240224441018280411122C42A84EF
:104B68002E859727002023AB07F806C6D120FD57CE
:104B78006319F50097270020938747F89C4391C352
:104B88001CC0B240224441018280411122C42A84BF
:104B98002E85B28536869727002023A107F606C6FC
:104BA8004520FD576319F50097270020938707F5DF
:104BB8009C4391C31CC0B24022444101828093F5BA
:104BC800F50F2A966314C5000145828083470500C6
:104BD800E38DB7FE0505FDB782808280411122C4AE
:104BE8002A842E85B28536869727002023A807F0C9
:104BF80006C6B928FD576319F50097270020938743
:104C0800E7EF9C4391C31CC0B2402244410182801B
:104C180093078005172700202322F7EE7D55828011
:104C28009307800517270020232AF7EC7D558280FB
:104C380093078005172700202322F7EC014582807F
:104C48009307800517270020232AF7EA7D558280DD
:104C580093078005172700202322F7EA7D558280D5
:104C6800CDCCCCBF000000009A9999999999B9BF09
:104C78009A9999999999F9BF70D2FFFF98D2FFFF35
:104C8800C0D2FFFFD8D2FFFFF2D2FFFFFE00657847
:104C9800706572696D656E74616C00004669726D4D
:104CA80077617265205265766973696F6E000000DE
:104CB8004861726477617265205265766973696FBD
:104CC8006E0000004D616E75666163747572657281
:104CD800204E616D650000004D6F64656C204E7557
:104CE8006D6265720000000053657269616C204E48
:104CF800756D626572000000536F66747761726546
:104D0800205265766973696F6E00000082D7FFFFD5
:104D1800A2D7FFFFBAD7FFFFD2D7FFFFEAD7FFFF1F
:104D280043483537785F424C455F4C49425F5632BD
:104D38002E320000686561642066696C65206572C2
:104D4800726F722E2E2E00004C494220696E6974D3
:104D5800206572726F7220636F64653A202578202F
:104D68002E2E2E0A000000002A2000001EDCFFFF65
:104D780032DCFFFF1CDDFFFF5ADCFFFF12DDFFFF07
:104D88005EDDFFFF4552522E2E0000005570646113
:104D98007465202578202D20496E74202578200AF6
:104DA8000000000052535349202D256420644220FE
:104DB800436F6E6E20202578200A0000496E6974C2
:104DC80069616C697A65642E2E000000446973631A
:104DD8006F6E6E65637465642E2E20526561736F05
:104DE8006E3A25780A00000041647665727469732A
:104DF800696E672E2E000000436F6E6E65637469DE
:104E08006F6E206D61782E2E2E000000436F6E6E3F
:104E1800202578202D20496E74202578200A00004E
:104E2800436F6E6E65637465642E2E00436F6E6EFD
:104E38006563746564204164766572746973696E2C
:104E4800672E2E0057616974696E6720666F72203D
:104E58006164766572746973696E672E2E0000004E
:104E68004572726F722E2E004572726F722E2E2549
:104E7800780A000070726F66696C65204368616E1D
:104E8800676543422043484152312E2E20000000DE
:104E980070726F66696C65204368616E676543422E
:104EA8002043484152332E2E000000006A756D7071
:104EB800204F54412000000062E2FFFF54E1FFFF51
:104EC80054E1FFFF52E1FFFF5AE1FFFF5AE1FFFF04
:104ED80020E1FFFF52E1FFFF5AE1FFFF20E1FFFF62
:104EE8005AE1FFFF52E1FFFF4EE2FFFF4EE2FFFFF4
:104EF8004EE2FFFF20E1FFFFB6E6FFFF08E6FFFFF7
:104F080008E6FFFF06E6FFFF0CE6FFFF0CE6FFFFE3
:104F1800DCE5FFFF06E6FFFF0CE6FFFFDCE5FFFF31
:104F28000CE6FFFF06E6FFFFA4E6FFFFA4E6FFFF8F
:104F3800A4E6FFFFDCE5FFFF000102020303030311
:104F48000404040404040404050505050505050511
:104F580005050505050505050606060606060606F1
:104F680006060606060606060606060606060606D9
:104F780006060606060606060707070707070707C1
:104F880007070707070707070707070707070707A9
:104F98000707070707070707070707070707070799
:104FA8000707070707070707070707070707070789
:104FB8000707070707070707080808080808080871
:104FC8000808080808080808080808080808080859
:104FD8000808080808080808080808080808080849
:104FE8000808080808080808080808080808080839
:104FF8000808080808080808080808080808080829
:105008000808080808080808080808080808080818
:105018000808080808080808080808080808080808
:1050280008080808080808080808080808080808F8
:105038000808080808080808000000000000000028
:105048000000000000000000000000000000000058
:105058000000000000000000000000000000000048
:105068000000000000000000000000000000000038
:105078000000000000000000000000000000000028
:105088000000000000000000000000000000000018
:105098000000000000000000232D302B200000003D
:1050A800686C4C006566674546470000303132330E
:1050B800343536373839414243444546000000000C
:1050C8003031323334353637383961626364656676
:1050D800000000002A2A0000262A0000272A0000D3
:1050E800292A0000242A0000502A0000252A00004E
:1050F8000A18000002000000F8500000282A0000EA
:10510800232A0000E0FF0000020000000C5100000C
:10511800E1FF0000E2FF0000E3FF0000E4FF000001
:0C512800E5FF0000FFFFFFFFFC5100202E
:10513400020000000C00010001000000FC5000000F
:10514400020000001200010001000000765200205D
:105154000200000008510000010000009C520020E1
:10516400020000001200010001000000685200204B
:1051740002000000EC50000001000000E04C0000C0
:10518400020000001200010001000000745200201F
:1051940002000000F450000001000000F04C000088
:1051A400020000001200010001000000655200200E
:1051B40002000000E050000001000000A44C0000C8
:1051C40002000000120001000100000066520020ED
:1051D40002000000E450000001000000B84C000090
:1051E40002000000120001000100000075520020BE
:1051F400020000000451000001000000004D000006
:1052040002000000120001000100000067520020AB
:1052140002000000E850000001000000CC4C000037
:10522400020000001200010001000000645200208E
:1052340002000000DC50000001000000944C00005B
:10524400020000001200010001000000735200205F
:1052540002000000F0500000010000006C52002029
:105264008820000000000000000000000200000090
:105274000C000100010000001051000002000000B9
:10528400120001000100000077520020020000001B
:105294001851000003000000A45200200200000086
:1052A4001600010001000000585100200200000017
:1052B40012000100010000007852002002000000EA
:1052C4001C51000001000000A85200200200000050
:1052D40016000100010000006C51002002000000D3
:1052E40012000100010000007952002002000000B9
:1052F4002051000002000000AC5200200200000017
:10530400160001000100000080510020020000008E
:1053140012000100010000007A5200200200000087
:105324002451000000000000B052002002000000E0
:105334001800010003000000B45200200200000025
:10534400160001000100000094510020020000003A
:1053540012000100010000007B5200200200000046
:105364002851000004000000B85200200200000090
:105374001600010001000000A85100205C2200007A
:10538400EA220000000000004368617261637465F2
:1053940072697374696320310000000043686172AC
:1053A400616374657269737469632032000000007C
:1053B40043686172616374657269737469632033ED
:1053C40000000000436861726163746572697374FC
:1053D400696320340000000043686172616374658E
:1053E4007269737469632035000000006E2900003F
:1053F400E8280000E82A000053696D706C652050AD
:1054040065726970686572616C00000000000000DC
:10541400120953696D706C65205065726970686516
:1054240072616C051206006400020A0000000000AC
:105434006050000080500000405000000000000058
:105444000000000000000000000000000000000058
:105454000000000000000000000000000000000048
:105464000000000000000000000000000000000038
:105474000000000000000000000000000000000028
:105484000000000000000000000000000000000018
:10549400046B0020020202020200000001D7070090
:1054A400001001020202020A020810026E2E00001D
:1054B400FF0000000201060302E0FF00FC5100208F
:0854C4000102030405000000D1
:0400000300001000E9
:00000001FF
