:040000006F00502D10
:1000040000000000000000006F0080086F00C06462
:1000140000000000000000000000000000000000DC
:1000240000000000000000000000000000000000CC
:100034006F004006000000006F00E00500000000B3
:100044006F0080056F0060056F0040056F0020059C
:100054006F0000056F00E0046F00C00400000000A2
:100064006F0060046F0040046F0020046F00000400
:100074006F00E0036F00C003000000006F00600326
:100084006F0040036F0020036F0000036F00E00265
:1000940001A001A001A001A001A001A001A001A054
:1000A40001A001A001A001A001A001A001A001A044
:1000B40001A001A001A001A001A001A0B717004068
:1000C400130670052380C704930680FA2380D7049F
:1000D4000F10000003C7B7041377F70DA385E704D7
:1000E4002380070403C7A700418B1DE32380C704B3
:1000F4002380D7040F10000003C7A700136707016C
:100104002385E7009307007D01000100FD17EDFF43
:10011400B7170040930670052380D704130780FAAD
:100124002380E7040F100000130680042394C70003
:100134000100010001000100238007042380D7048B
:100144002380E7040F100000372700408D46A303E7
:10015400D78023800704828081476313F60082805E
:100164003387F500834607003307F500850723002E
:10017400D700E5B7011126CAB7945B0022CC4AC860
:100184004EC652C456C206CE5AC0138A0181938405
:1001940004D8938A8180138481959389A1801389DB
:1001A400C180B737004083C7A74093F7F70F638D2B
:1001B40007308547A38BF18023A8018083C70A00F9
:1001C4001307B004850793F7F70F636DF7022384D1
:1001D400F180B737004083C7874003C781802297E7
:1001E40093F7F70F2300F700A14603C7518163E497
:1001F400E60497D6FFDF9386E6310A07369718435D
:100204003697028723840180E9B71307A00A639411
:10021400E7029307A0FA238CF19423840180854795
:10022400A38AF18009A8130750056394E70089475E
:10023400C5BFA38A018003C75181A547E313F7F61D
:100244009717000023990788A38A0180A38B018054
:1002540083C68180F51689470147B305F40003C6B8
:10026400050063C0D70E83C71500A207D18F6311A1
:10027400F72483C7A195130710086384E71C6369F7
:10028400F70C130700086380E70EF95717170000EF
:100294002303F78465A293C707080D47E36BF7F8B8
:1002A400A38AE18049BF13070004E364F7F8238BB2
:1002B40001808347240005479387F70793F7F70FD7
:1002C4006363F7029147A9BF994799BF83C76181C7
:1002D400850793F7F70F0D476365F700238BF180CC
:1002E40099BF238B018083C7B195F9DF95470DBF73
:1002F40083C76181850793F7F70F238BF18003C7C9
:10030400B195E3EAE7F29947A38AF180238B018050
:100314001DB783C76181850793F7F70F238BF1809E
:100324000547E37AF7F09D47E5BD13075005E392CF
:10033400E7F0A147F5B51307A00AE39CE7EEA5474C
:10034400C5B5329785074207C2074183C18331B7D8
:10035400130720086381E71213073008E397E7F2D5
:10036400856782971DA803C7418185476312F70CEF
:1003740003C6B19583D6A18039EA8DC683250900C9
:10038400138681810945212119C59307E06F170759
:1003940000002312F774239501809707000083C798
:1003A4008773C9EF03C78180B7360040229783C79C
:1003B400A64093F7F70F63940710994517050000BB
:1003C4001305457197D0FFDFE7804012D9BB138B2B
:1003D40081819385C1953305DB00BD3B03D70900BB
:1003E40083C7B195BA97C207C1832395F1801307D8
:1003F400F00FE374F7FA83250900930600105A8678
:10040400094571269307E06F15E503D60900832794
:10041400090093858191130606F04206938707101D
:1004240041825A8523A6F1802395C1803533B5B71F
:100434009307E05F17070000231FF768238A0180F2
:1004440095B7032B440085676314FB02B7F60600D7
:10045400014685650545252E09E98547238AF180EE
:100464002395018023A661810DBF9307E04FD9B77F
:100474009307E03FC1B75C4013F7370075FB7D7706
:10048400BA9737F70600E3F5E7FE03C6B1959385FF
:10049400019613858181C9314C4083C6B195138679
:1004A40081810D45ED24E30A05EE9307E07F59B7FA
:1004B4009307E02F17070000231FF760E5B583C7F4
:1004C40086402300F700E5B55145D12A83270A0069
:1004D400850723A8F18003C7718105C31307A00210
:1004E400E371F7CCA38A0180A38B01809307E01FFB
:1004F400170700002311F75EC9B5E3F4F4CA856752
:10050400829745B1B7170040930670052380D7043E
:10051400130780FA2380E7040F10000003C6B70412
:100524001376F60DA385C70423800704137605020A
:100534003DCA03C6A700118A1DE22380D704238085
:10054400E7040F10000003C7A700136747002385C3
:10055400E7009307004B01000100FD17EDFFB717FB
:100564000040930670052380D704130780FA238084
:10057400E7040F1000007D892394A7000100010007
:1005840001000100238007042380D7042380E704AB
:100594000F1000003727004093061005A303D780EF
:1005A400238007048280137605046DDE03C6A7004A
:1005B400418A1DE22380D7042380E7040F10000042
:1005C40003C7A700136707012385E7009307007D8E
:1005D40001000100FD17EDFFB717004093067005F9
:1005E4002380D704130780FA2380E7040F10000048
:1005F4007D89136505042394A7000100010001000F
:100604000100238007042380D7042380E7040F100C
:100614000000372700409306300549B74111814651
:1006240001468145114506C69D22B71700401307B0
:1006340070052380E704130780FA2380E7040F1072
:10064400000003C76704136717002383E7042380AC
:100654000704B2404101828081460146814511452B
:100664003D22B7170040930670052380D704130773
:1006740080FA2380E7040F1000007D562396C702FA
:100684002380D7042380E7040F10000003C7670406
:10069400136717002383E7042380070401A0BD47E1
:1006A4003305F50201007D1575FD8280411122C4D8
:1006B40026C206C6AA84014463179400B2402244A9
:1006C40092444101828005041305803E4204C13FE7
:1006D4004180DDB72303048095472303F48023027C
:1006E400A480828083076480E3CE07FE2303048012
:1006F400828083076480E3CE07FE034544808280C2
:1007040083076480E3CE07FE2302A4808280411124
:1007140026C44AC24EC006C61377F50BAD47AA8954
:100724002E8995446306F70019456D37653F8D445E
:100734004E854D37FD59FD1463983401B240A244EF
:100744001249824941018280135509011375F50F3D
:10075400453F2209CDB7011126CC06CEB7040800C7
:1007640051371545853F713769372AC6A53F32454C
:100774009377150089EB136515001375F50FF24097
:10078400E24405618280FD14E9FC0145CDBF397165
:1007940026DC4ADA4ED852D656D45AD25ED062CE2D
:1007A400B7E700E006DE66CC6ACA414783AB0704BC
:1007B40022C6B8C37D5703AB070083AA470023A012
:1007C400E71823A2E718B717004013077005238022
:1007D400E704130780FA2380E70483C74704130C54
:1007E40075FFB684E207137CFC0F85462A8A2E899E
:1007F400B28937240040E187015763FA8601630810
:10080400D5008946130700026313D5000157D98F19
:1008140093F7F70F371D00402302FD04114723030C
:10082400E4801305F00F7D35894C6D3D63EB8C112D
:10083400B70707003E99378707007955637EE902B9
:10084400B3079900636AF702A947631CFA0689E4AF
:100854008144493D26850DA0CA8509454D3D85093C
:1008640003C5F9FFFD140509613D81C49377F90FB0
:10087400FDF7D53569FD7D55B717004013077005A1
:100884002380E704130780FA2380E70403C747049F
:10089400418B2382E704B7E700E023A07705F250F9
:1008A40023A0671123A25711E25432445259C2596A
:1008B400325AA25A125B825B724CE24C524D216155
:1008C4008280A5476314FA0685699307F00FB386FF
:1008D4009700B374F900B69493C7F7FFFD8C33F90E
:1008E4002701416A056C9387F9FFB3F7270199E360
:1008F40063FC340193D94900C147E3E637FF89BF5C
:100904008567C169FD17E1B71305800D6388490147
:10091400130500026384890113051008CA85C53BC9
:100924001D3D31D94E99B3843441D9B7CA852D457B
:10093400F93BCE94E38E99F08509653BA38FA9FE1C
:10094400D5BF9307FAFF93F7F70F63ECFC0803474F
:100954005D04B70708001377070219E3B787070098
:100964007955E37BF9F033079900E3E7E7F089472A
:100974006310FA048980554AE38C04ECCA8509455E
:100984007933910903A7C9FF91472320E480030722
:100994006480E34E07FE23034481FD17EDFBFD1441
:1009A400110981C49377F90FE9FF753371F5E1B546
:1009B4008547E307FAF4CA852D45913B1389F4FF73
:1009C400E38804E83D339377390091EB8326048070
:1009D40003A7090093874900E39DE6E6BE89CA841C
:1009E400F1BFB5476316FA001305900BE5318DB5D9
:1009F400B1471305B00AE30BFAFE9947631EFA02E6
:100A0400CA852D45293381440D4C214ADD31639635
:100A140084018327048023A0F9008504E39844FF1C
:100A24008327048013172901635507002392F900D3
:100A340005B523A2F90029BD9D476319FA02814532
:100A44001305B004E931BD4423A0090023A2090021
:100A54007D59453193F77400CE9703C70700FD1401
:100A6400398D2380A700E39624FFDDB3A1476312E9
:100A7400FA04D5318144630D09008D479304C00302
:100A84006308F90093040005630499019304400486
:100A94001375C507E30E95DA19452D39A1310545BE
:100AA40015392685B1390945A1397531E31205DABD
:100AB400D9B391476319FA001305600621391D3132
:100AC4001305900925B7E3050AD8F15459B300007A
:100AD400974100209381C1FF1771002013014152F7
:100AE4001305400097350020938585D117360020E3
:100AF4001306067E63FAC5008322050023A0550071
:100B040011059105E3EAC5FE1705000013058522CA
:100B1400973500209385C57B1386818063FAC500D1
:100B24008322050023A0550011059105E3EAC5FEC3
:100B3400138581809385419A6377B500232005004E
:100B44001105E36DB5FEB72200009382828873A07D
:100B54000230973200209382A2CA93E2120073906B
:100B6400523037170040930770052300F7049307AA
:100B740080FA2300F7040F1000003C47B70600FA80
:100B8400E116F58FB70600069506D58F3CC7970288
:100B940000009382020173901234730020304111DB
:100BA40006C622C497300020E78040D137140040A5
:100BB4008327440D2945BD9B232AF40C8327040D68
:100BC40093E707012328F40C8327040CBD9B2320FF
:100BD400F40C97300020E780602D8327440CC18BF0
:100BE40081CF154597300020E780402C8327440CA3
:100BF400C18B99C385678297B717004003A7870AFB
:100C04007165130505201367072023A4E70A03A7CA
:100C1400470B1377F7CF23AAE70A03A7070A13673B
:100C2400072023A0E70A03A7070B1367071023A8CD
:100C3400E70A03A7070A1377F7EF23A0E70A9D281B
:100C4400B7370040130770F82381E7400D47A381AD
:100C5400E74013070004A380E74005472387E740E4
:100C640097300020E78000D1B24022440145410181
:100C74008280B717004003D58700420541819377EE
:100C8400050491EB9377F5013755E80113050580C9
:100C94003345F50282809377050C130700046397AC
:100CA400E7009377F50137459C1CCDB72165130503
:100CB40005D08280411122C406C62A845D3F29479B
:100CC400B307E502B2408D83B3D787022244950768
:100CD400B3D7E70237370040C207C1832316F74072
:100CE40041018280B73700402147B736004091E187
:100CF400828003C6B740E30CC7FE05050346F5FF33
:100D0400FD15C2052384C640C181D5B7FA2C002045
:100D1400162D0020862D0020962D0020BC2D0020AD
:100D2400E02D0020022E00201A2E0020262E002066
:080D3400AA55000055AA0000B9
:00000001FF
