:040000006F10801CE1
:1000040000000000000000006F0080086F00202541
:1000140000000000000000000000000000000000DC
:1000240000000000000000000000000000000000CC
:100034006F004006000000006F00E00500000000B3
:100044006F0080056F0060056F0040056F0020059C
:100054006F0000056F00E0046F00C00400000000A2
:100064006F0060046F0040046F0020046F00000400
:100074006F00A0266F00C003000000006F00600343
:100084006F0040036F0020036F0000036F00E00265
:1000940001A001A001A001A001A001A001A001A054
:1000A40001A001A001A001A001A001A001A001A044
:1000B40001A001A001A001A001A001A0B717004068
:1000C400130770052380E704130780FA2380E704ED
:1000D4000F1000002396A70223800704371700405F
:1000E40083472705898BEDDF8357070537170040C2
:1000F40083472705898BEDFF371700408347270582
:10010400898BEDDF035507058280B71700409306FE
:1001140070052380D704130780FA2380E7040F10A7
:10012400000003C6B7041376F60DA385C704238025
:100134000704137605023DCA03C6A700118A1DE20F
:100144002380D7042380E7040F10000003C7A7000F
:10015400136747002385E7009307004B0100010064
:10016400FD17EDFFB7170040930670052380D704F1
:10017400130780FA2380E7040F1000007D8923947D
:10018400A70001000100010001002380070423806F
:10019400D7042380E7040F1000003727004093069C
:1001A4001005A303D78023800704828013760504F7
:1001B4006DDE03C6A700418A1DE22380D704238095
:1001C400E7040F10000003C7A70013670701238586
:1001D400E7009307007D01000100FD17EDFFB7174D
:1001E4000040930670052380D704130780FA238008
:1001F400E7040F1000007D89136505042394A7000C
:100204000100010001000100238007042380D704BA
:100214002380E7040F1000003727004093063005C1
:1002240049B74111814601468145114506C651220F
:10023400B7170040130770052380E704130780FAFB
:100244002380E7040F10000003C767041367170037
:100254002383E70423800704B2404101828081465E
:10026400014681451145B122B71700409306700538
:100274002380D704130780FA2380E7040F100000BB
:100284007D562396C7022380D7042380E7040F10EA
:10029400000003C76704136717002383E704238060
:1002A400070401A0BD473305F50201007D1575FD66
:1002B4008280411122C426C206C6AA84014463175F
:1002C4009400B24022449244410182800504130503
:1002D400803E4204C13F4180DDB7B7170040130799
:1002E40000032388E702854723AAF18E7300203098
:1002F400411106C69929FDBF2303048095472303B2
:10030400F4802302A480828083076480E3CE07FE06
:1003140023030480828083076480E3CE07FE0345C1
:100324004480828083076480E3CE07FE2302A48096
:100334008280411126C44AC24EC006C61377F50B0B
:10034400AD47AA892E8995446306F70019456D3790
:10035400653F8D444E854D37FD59FD146398340136
:10036400B240A244124982494101828013550901D5
:100374001375F50F453F2209CDB7011126CC06CEE2
:10038400B704080051371545853F713769372AC6C8
:10039400A53F32459377150089EB13651500137556
:1003A400F50FF240E24405618280FD14E9FC014549
:1003B400CDBF397126DC4ADA4ED852D656D45AD239
:1003C4005ED062CEB7E700E006DE66CC6ACA41477B
:1003D40083AB070422C6B8C37D5703AB070083AAC7
:1003E400470023A0E71823A2E718B7170040130714
:1003F40070052380E704130780FA2380E70483C78A
:100404004704130C75FFB684E207137CFC0F854682
:100414002A8A2E89B28937240040E187015763FA7A
:1004240086016308D5008946130700026313D500CB
:100434000157D98F93F7F70F371D00402302FD04AE
:1004440011472303E4801305F00F7D35894C6D3D7E
:1004540063EB8C11B70707003E993787070079557E
:10046400637EE902B3079900636AF702A947631C34
:10047400FA0689E48144493D26850DA0CA850945CB
:100484004D3D850903C5F9FFFD140509613D81C48E
:100494009377F90FFDF7D53569FD7D55B717004002
:1004A400130770052380E704130780FA2380E70409
:1004B40003C74704418B2382E704B7E700E023A086
:1004C4007705F25023A0671123A25711E254324456
:1004D4005259C259325AA25A125B825B724CE24C94
:1004E400524D21618280A5476314FA0685699307FA
:1004F400F00FB3869700B374F900B69493C7F7FF6F
:10050400FD8C33F92701416A056C9387F9FFB3F732
:10051400270199E363FC340193D94900C147E3E619
:1005240037FF89BF8567C169FD17E1B71305800DE2
:1005340063884901130500026384890113051008C7
:10054400CA85C53B1D3D31D94E99B3843441D9B7D1
:10055400CA852D45F93BCE94E38E99F08509653B18
:10056400A38FA9FED5BF9307FAFF93F7F70F63ECA8
:10057400FC0803475D04B70708001377070219E373
:10058400B78707007955E37BF9F033079900E3E770
:10059400E7F089476310FA048980554AE38C04EC38
:1005A400CA8509457933910903A7C9FF91472320D7
:1005B400E48003076480E34E07FE23034481FD17B0
:1005C400EDFBFD14110981C49377F90FE9FF75332D
:1005D40071F5E1B58547E307FAF4CA852D45913BEA
:1005E4001389F4FFE38804E83D339377390091EBF2
:1005F4008326048003A7090093874900E39DE6E668
:10060400BE89CA84F1BFB5476316FA001305900B7F
:10061400E5318DB5B1471305B00AE30BFAFE9947EE
:10062400631EFA02CA852D45293381440D4C214AA3
:10063400DD31639684018327048023A0F9008504B7
:10064400E39844FF832704801317290163550700A7
:100654002392F90005B523A2F90029BD9D4763192A
:10066400FA0281451305B004E931BD4423A0090011
:1006740023A209007D59453193F77400CE9703C72F
:100684000700FD14398D2380A700E39624FFDDB312
:10069400A1476312FA04D5318144630D09008D47E3
:1006A4009304C0036308F9009304000563049901EB
:1006B400930440041375C507E30E95DA19452D39E3
:1006C400A131054515392685B1390945A139753159
:1006D400E31205DAD9B391476319FA0013056006EA
:1006E40021391D311305900925B7E3050AD8F154C2
:1006F40059B309CDB7170040130770052380E704E9
:10070400130780FA2380E7042396A702828019C185
:10071400814799E982803387F500834607003307D0
:10072400F50085072300D700E397C7FEE5B719C195
:10073400FD5781E98280910503A7C5FF1105232E8A
:10074400E5FE7D16E319F6FEF5B7797122D4173468
:1007540000001304E4B41C4006D626D24AD04ECE80
:1007640091C782979737000023AC07B25C4089CBCE
:1007740003D50190BD3F5C40829703D52190953FFE
:100784001C40639907189737000083C777C3858B8C
:1007940095C797370000A38507C2173700000347A2
:1007A40057C2914763FCE700792B9737000083C752
:1007B40057C1F9178A07A2979C438297973700007D
:1007C40083C7C7C4918B89C7971001E0E78040CCE9
:1007D4001C4491C382979387C18F984317360000B6
:1007E4000346D6A93E8997340000938424A99737F9
:1007F400000083C7A7A893961700BA9683D606006D
:10080400638006109737000083C747A763F2C708C1
:1008140086073E97835507002310070003D50190F0
:100824002EC623940190F135938741919C4317354B
:1008340000000345A5A413172500BA979C43B245AD
:100844008297AA8903D521906D359737000083C715
:10085400E7A2139717008327090003D58190134556
:10086400F5FFBA9703D7070033753501598D2390E7
:10087400A70083C70400850793F7F70F1737000015
:10088400230EF79E173700000347579F63E6E700E0
:10089400973700002384079E1C40ADEF9387C190D7
:1008A40098433E8425CB9737000083C7D7B191CBBB
:1008B4009737000083C7F7B089E7970001E0E78026
:1008C400E06D1C4082972A8431C59C48AA9717374B
:1008D4000000232DF79A938701919C4385CF03D57C
:1008E4000190013D228597F0FFDFE78060342254B8
:1008F400B25092540259F24903D521904561D5BBB7
:10090400850793F7F70F973600002389F696E3E0FF
:10091400C7EECDBDB250225492540259F2494561FA
:1009240082809167B7C600409387373023A6F620AC
:100934000F1000009737000093874794884F9387E0
:10094400C19F9C43316713073730F053B70710003A
:10095400FD17918F99833A0523A6E6205D8D828049
:100964004111B7170040985F3AC6945F3247E39C41
:10097400E6FE324541018280411106C6D5379736DD
:10098400000083C6268D858AB1C6930730333307AA
:10099400F502B337F5023983CA07D98F1737000038
:1009A4001307C78D584B01456303F7023385E740AE
:1009B400636BF70037653D0889C637856F081305F3
:1009C4000590198D3E95173700002323F78CB2400C
:1009D40041018280E5473307F502B337F5022583E9
:1009E400DE0765BF0327C50F8346B50097370000B0
:1009F4009387C79C9C4F58439386160295829043D5
:100A0400FD1693F6F60F10C3D04350C3904710C79A
:100A1400D04750C7904B10CBD04B50CB904F10CFFA
:100A2400D04F50CF91C61307070293870702C1BF67
:100A340082808347E50193F7E70FF1EF2A870345A7
:100A4400F50171E9034607018346870009CA834516
:100A5400A7029727000083C7F77F63E7F50093F7A2
:100A64000601C5CF814709CA834787150346771511
:100A7400C18AA207D18F81CA8346B7150347C71518
:100A84002207558FBA97D1CB173700001307879EDB
:100A94003847411122C406C67D548326070863F3F0
:100AA40086003684184375FB172700000347877AAE
:100AB40093168701E18663D906029387C71395834A
:100AC400172700000347A779BA9763D006041D8C43
:100AD400938781919C4382973335A400B24022448A
:100AE4001345150041018280058B9387C71209CBFA
:100AF4008A079387F7031305D007B3D7A702C9B7AB
:100B04008607FD071305D003CDBFE372F4FC370558
:100B1400C0A82A946DBF014582808280411122C4FD
:100B24001384C19E18404AC006C61C5F26C213899E
:100B3400819E9983858BC1C31C5F97340000938485
:100B4400E48793F7F7F91CDF9737000083C707871B
:100B540093F707048DC3938781919C4382979737BA
:100B6400000023A5A78683C7040093F7F70B173764
:100B740000002305F784854717370000A302F78494
:100B840083C7440093F7070481EF9387C19F9C4375
:100B9400D844B8D3930700FC173700002302F78228
:100BA4008387640063D90700832709009C431737B0
:100BB40000002308F78018401C5F8583858BC9CB10
:100BC400F5571CDF010001000100010001000100D4
:100BD4000100010001000100010001000100010009
:100BE40001000100010001000100010001000100F9
:100BF40001000100010001000100010001000100E9
:100C040001000100010001000100010001000100D8
:100C140001000100010001000100010001000100C8
:100C240001000100010001000100010001000100B8
:100C340001000100010001000100010001000100A8
:100C4400010001009387C19F9C4313075004B8CB54
:100C540018401C5F9183858B89CFBD571CDF938718
:100C6400C19F9C4323A80704854717270000230935
:100C7400F77483270900D8430583058B19C7D84324
:100C8400759BD8C3D843799BD8C3B24022449244BD
:100C9400024941018280397106DE16DC1ADA1ED857
:100CA4002AD62ED432D236D03ACE3ECC42CA46C808
:100CB40072C676C47AC27EC09535F250E25252535F
:100CC400C2533255A255125682567247E2475248D1
:100CD400C248324EA24E124F824F2161730020301F
:100CE4009387C19F9443172700001307276DBC52B5
:100CF40089CF83472700858B89EB83473700858B12
:100D0400FDD797270000238D076A828037C70040EC
:100D14001306C00393062003972500009385056AF4
:100D240083278720C18393F7F7036369F60083273A
:100D34008720C18393F7F70363E6F60083C7450072
:100D4400858BF9DF82809387C19F94431727000026
:100D54001307C766BC5289CB83470700858B91CBA9
:100D640097270000238E076497270000A38A07644F
:100D7400828083471700858BF1DFDDB79387C19F9E
:100D8400904337C70040C145E54683278720C18388
:100D940093F7F70363FBF50083278720C18393F759
:100DA400F70363E4F6003C52EDF382801387C19E9F
:100DB4001843AA87185F1583058B25EF0345150093
:100DC40015051377C51F19C6B386E70083C6260029
:100DD4002300D60095C59726000083C6865E93F649
:100DE40006040945A1CAB386E70083C63600054652
:100DF40093F5F6066390C504E206E18663CC060229
:100E04003385E7008347150003470500A20793F7DE
:100E14000770D98F1397070141839376074099C6CA
:100E240013670780239AE19E01458280239AF19EED
:100E3400E5BF054582809386C19F8C4236859726FF
:100E440000009386A657984593170701C18313782A
:100E540017203E86630408041377072079C303C769
:100E640026001367170017280000230AE854130705
:100E74000019B8D1130700F8972500002382E55420
:100E84001387C19E0C4337080010D855719B136714
:100E94002700D8D598413367070198C113772610E6
:100EA40005C31376061059CE03C70600136717004F
:100EB400172600002304E6501727000023140750C8
:100EC40083C6460093C7F7FFC207E206E186C183E3
:100ED400184163D106029396170163DE0606305368
:100EE4008D4663E9C600854617260000230AD64CC2
:100EF4003453FDFE9726000093868634838646018C
:100F040063DD060093960701C18663DC0604705313
:100F1400894663E4C6007453FDFE1447F58F1CC76D
:100F2400828003C716001367170097250000A38764
:100F3400E548172700002305074817270000231357
:100F44000748A9BF03C73600136717001726000018
:100F5400A307E64695B78546172600002302D64622
:100F640051BF54471396060163510602B706100099
:100F7400FD1674D39726000093864630944E85065A
:100F8400172600002328D63049BFA166D58F71B734
:100F9400397106DE16DC1ADA1ED82AD62ED432D2DD
:100FA40036D03ACE3ECC42CA46C872C676C47AC25D
:100FB4007EC05135F250E2525253C2533255A255BB
:100FC400125682567247E2475248C248324EA24EE7
:100FD400124F824F2161730020301727000013073E
:100FE400A73F8346B7019727000083C73742B697C8
:100FF40093F7F70FFD4663EAF6044C4B972600007F
:10100400A38CF63C9727000083C7173D0547331789
:10101400F70097260000A38BF63E6D8F1DEF9726F1
:10102400000083C6F63EB3F6D702130500028147DB
:1010340033D6F500058A13F8F70F09CE6399E60055
:1010440097270000A38A0739828081177DB7050797
:101054001377F70F8507E39DA7FC8280938781A010
:101064009843B75702009387279F8326070913964F
:1010740056006358060083260709139666006344E6
:101084000600FD17FDF3828051C9AA870145C9C92D
:101094008D07C207C183F19BC207C18313074003B5
:1010A400636BF702138781A90843138701A91443CB
:1010B4006396A6021727000013078718185B0145DB
:1010C40025C34111C20706C60545DD8D0297B2400E
:1010D400014541018280138741A9F9B7035765008F
:1010E40005EF035745006369F702B306F74021464D
:1010F4006370D6021041938687001D8FAA966117EC
:1011040090C22392E6002393060014C12312F50033
:101114002313B50021058280084159BF014582800F
:10112400828001CD938781A903A80700938701A931
:101134008C430147C28763E3B70082809443636FA3
:10114400F50663EDA60613868700E368C5FE03D59E
:101154006700216605066317C50003C6C19A050624
:101164002386C19A2393070063840703138641A946
:101174001042630FF6000356670019EA83D747004D
:1011840014C383564700B697A1072312F700BA8702
:101194009843E304B7FA938641A99442E30FD7F83E
:1011A40083566700D9FA83D647000356470018438D
:1011B400A106B2962392D70098C382803E87B68751
:0411C4009DBF0000CB
:1011C800974100209381815417710020130101E396
:1011D80013054000972500209385456217360020A7
:1011E8001306067E63FAC5008322050023A0550076
:1011F80011059105E3EAC5FE17D501001305C5D30E
:10120800973500209385C57B1386018A63FAC5004C
:101218008322050023A0550011059105E3EAC5FEC8
:101228001385018A97650020938545AF6377B500DC
:10123800232005001105E36DB5FE9302800873A015
:101248000230972200209382625B93E2120073902F
:10125800523037170040930770052300F7049307AF
:1012680080FA2300F7040F1000003C47B70600FA85
:10127800E116F58FB70600069506D58F3CC797226D
:101288000000938282CB73901234730020303D4368
:101298002A876373C3029377F700BDEFADE59376B2
:1012A80006FF3D8ABA960CC34CC30CC74CC741070E
:1012B800E36BD7FE11E28280B306C3408A06970229
:1012C800000096966780A6002307B700A306B7001C
:1012D8002306B700A305B7002305B700A304B7008A
:1012E8002304B700A303B7002303B700A302B70082
:1012F8002302B700A301B7002301B700A300B7007A
:101308002300B700828093F5F50F93968500D58D5D
:1013180093960501D58D61B7939627009702000033
:1013280096968682E78086FA9680C1171D8F3E962C
:10133800E374C3F8A5B7B717004003C77705137759
:10134800E70FA38BE704130700F8A38DE7043D47D5
:10135800238CE70413075003A38CE7048280B71794
:10136800004003D587005D715ED64205418186C67F
:10137800A2C4A6C2CAC04EDE52DC56DA5AD862D41B
:1013880066D26AD06ECE9377050C13070008814B9E
:10139800638EE718130700046392E716B7240D8FCE
:1013A8007D8993840480B3D4A4029167938707E866
:1013B800BE94A167938707D0B3D4F402EFA0D119E4
:1013C80097C701009387872E9043D443EFA0814DA0
:1013D800EFA0115B2A8B939C040103D9018A93DC4B
:1013E8000C0163150900056913090980B717004046
:1013F800130770052380E704130780FA2380E704A6
:101408000F1000000547371A0040939D0401096C2E
:1014180085662389E704D14A814E8145130D0A0464
:1014280013087005130680FA894893DD0D01130C23
:101438000C712943FD1623000D012300CD000F1068
:10144800000023162A0323000D0083472A05898BF1
:10145800EDDF83570A0583472A05898BEDFF83470C
:101468002A05898BEDDF83570A052390218BC20754
:10147800C183338597419319050193D9094163863F
:1014880009163387B9026350070E850EC20E93DE24
:101498000E0163EAD80D63DB050A3305B0409315E6
:1014A8000501C185C204C18063D9350BB717004057
:1014B800130770052380E704130780FA2380E704E5
:1014C8000F1000000965130505713385A5022396E1
:1014D8007703238007043345950242054181B640CE
:1014E800264496440649F259625AD25A425BB25B84
:1014F800225C925C025DF24D61618280B1E3B77457
:1015080089097D8993840480B3C4A4029167938771
:1015180007E8BE94A167938707D0B3C4F402EFA08D
:10152800B10397C701009387E71879BD97C70100F2
:1015380093878717856403AB07009384843861BD5C
:10154800130B0000954441BD3A89F5B5B387FC40BB
:101558009399070193D90941B1B709651305057135
:101568003385A9028DBF3385B74163E4FC00338519
:10157800FD40330585033344B503634583001315E4
:101588000401A9BF4E8536C642C432C2EFA0F1326B
:10159800DA85EFA07103EFA0312C931E050193DECD
:1015A8000E41B307D941C207C183056E3E87124673
:1015B800224889482943B24663E3C7013687420770
:1015C8004183631A27011307190063443001130785
:1015D800F9FF42074183FD1A93FAFA0FCA8BCE85A9
:1015E800E3940AF62390E18A59BF0145CDBDB717A8
:1015F800004003D587005D7186C642054181A2C4BB
:10160800A6C2CAC04EDE52DC56DA5AD85ED662D4BA
:1016180066D26AD06ECE02C69377050C130700080F
:10162800638FE714130700046393E712B7240D8F41
:101638007D8993840480B3D4A4029167938707E8D3
:10164800BE94A167938707D0B3D4F402EFA0C1700A
:1016580097C70100938787059043D443EFA081245F
:10166800EFA011322A89939A040103DB218A93DAC5
:101678000A0163150B00056B130B0B80B7170040AD
:10168800130770052380E704130780FA2380E70413
:101698000F1000000547939B04018969056A238997
:1016A800E704D14D014D814C93DB0B0193890971FE
:1016B8007D1A5A8597200020E7800020330C554179
:1016C800420C135C0C412391618B63030C16B30726
:1016D8009C0363D3070E050D420D135D0D01894769
:1016E80063ECA70D63DD0C0A33059041931C0501DB
:1016F80093DC0C41C204C18063DA8C0BB71700403D
:10170800130770052380E704130780FA2380E70492
:101718000F1000000965130505713385AC023247C7
:101728002396E70223800704334595024205418149
:10173800B640264496440649F259625AD25A425B48
:10174800B25B225C925C025DF24D61618280B1E322
:10175800B77489097D8993840480B3C4A40291670E
:10176800938707E8BE94A167938707D0B3C4F402B0
:10177800EFA0815E97C701009387C7F3F1BD97C7B4
:101788000100938767F2856403A90700938484386E
:10179800D9BD130900009544F9B53E8B19BF3385AF
:1017A800AA40131C0501135C0C41A9B70965130570
:1017B80005713305AC028DBF63FEAA003305754180
:1017C80033053503A9473344750363C887001315E8
:1017D8000401B1BF3385AB40E5B76285EFA0F10DD9
:1017E800CA85EFA0615EEFA03107131D0501135DE7
:1017F8000D413307AB41420741838565BA8763636F
:10180800B700D287C207C183639A670193071B0099
:10181800634480019307FBFFC207C183FD1D93FD4D
:10182800FD0F5AC6E28CE39A0DF62391F18A45B76B
:101838000145FDBD41112A83014E930E407E130FD1
:101848000019930F400663ED6E0A930800191303FD
:101858004006B3781503854E0D4FA14F33736502CB
:101868000D891335150063E7BE0C1308F6FF79469A
:1018780072984208135808013307C70213D6170095
:10188800BE0732976146B3F6C60213068070B38668
:10189800C6023697A166F58F42075D8FB7170040DD
:1018A80083C6F70293F60608A307D1000346F100A2
:1018B80083C6F70293F60608E394C6FE8346F10052
:1018C80093F6F60FF1DE930670052380D70493068E
:1018D80080FA2380D7040F10000023AA070383C6C9
:1018E800170393E60608A388D702D8DB03C71703B4
:1018F80013670704A388E702238007044101828055
:101908007D133368E3039308E016630E0800336819
:10191800F3039308D016630808009378330093B84C
:1019280018009388D81633081E01131E0801135E89
:101938000E0111BF6393E50305486386080001485B
:10194800630303002A8871087298FD15131E0801A5
:10195800C205135E0E01C18139B713F8150063F48F
:10196800BF007908D5B713381800E5BF914763EE73
:10197800B70217C70100130767D48A05BA959C41B7
:10198800BA978287B717004003A7470B1345F5FF9F
:10199800698F23AAE70A03A7070B698F23A8E70A19
:1019A80003A7070A798D23A0A70A8280B7170040EA
:1019B80083A6470B1347F5FFF98E23AAD70A83A6F8
:1019C800070B558D23A8A70A83A6070A758F23A09E
:1019D800E70A8280B717004003A7470B498F23AA5D
:1019E800E70A03A7070B1345F5FF45BFB7170040E4
:1019F80083A6470B1347F5FF758F23AAE70A03A7AA
:101A0800070A598D4DB7B717004003A7470B498FF1
:101A1800EDB7B717004003D587004205418193779A
:101A2800050491EB9377F5013755E8011305058017
:101A38003345F50282809377050C130700046397FA
:101A4800E7009377F50137459C1CCDB72165130551
:101A580005D08280B7F700E0C8439C478280814761
:101A680037370040A14663C4C700328582800345EA
:101A7800B740E38EA6FE3385F500034505008507CC
:101A88002304A740CDB797370020938727489C4366
:101A980017570020130787283E95636EE5001767E0
:101AA80000201307A7356368A70017370020232FE6
:101AB800A7443E858280FD57EDBF411122C406C66A
:101AC8002A84813F2947B307E502B2408D83B3D703
:101AD800870222449507B3D7E70237370040C20789
:101AE800C1832316F74041018280716541111305B6
:101AF800052006C6D937B7370040130770F8238189
:101B0800E7400D47A381E74013070004A380E7409F
:101B180005472387E740B240410182809387018BC4
:101B28009C43411106C691C382979387418B9C437E
:101B380091C3829703D761809307C01263F7E704C4
:101B480003D581809306B01263E4A6049386C18A04
:101B580003A3060063070300B2401305C012410146
:101B680002830507098F3385A740E5473305F5024A
:101B78004207418309839307F7FF3E953345E50202
:101B88001375F50FB2404101828013054006DDBF91
:101B98000145CDBF03A84500411126C206C622C48F
:101BA8008347180003480800A944A207B3E70701C0
:101BB800C2070D68C18713082890639607038547F5
:101BC8003284EF50305AAA8419ED9387818A9C4356
:101BD80099CB03451400034704002205598D13359A
:101BE800150005058297B24022442685924441019A
:101BF80082802D453DE7D841411122C426C206C640
:101C08008347170003470700B684A207D98F0D67DB
:101C1800930697A132846396D702093783C7418018
:101C28006374F5002382A18085472390F40083C75D
:101C380041802300F4000145B2402244924441010E
:101C48008280130787902945E398E7FECC458947AA
:101C58002390F4000946228597200020E780E02A97
:101C6800D9BF828083474500858BADC7011122CC3F
:101C78002A8403552500938541AB06CEEF50504981
:101C8800058929C503552400014781460546ED45C8
:101C9800EF5050022AC61DC997370020938747D2B4
:101CA80083D7A70201462C002314F100854723158A
:101CB800F10083C741802300F50003552400EF603D
:101CC800102109C5ED452800EF50B016F2406244D6
:101CD80005618280828041654111938541AB7D1504
:101CE80006C6EF70F00FB24097360020938646D2B2
:101CF8004146954517350020130585CC41016F7085
:101D0800700223A4A18A8280411122C406C6854795
:101D180009446311F5028347060001442382F18ACE
:101D280003C741806378F700170500001305C5F362
:101D3800EF90703E2285B24022444101828085475F
:101D48006301F50209C909476302E5020D47630605
:101D5800E5020945828083C741802380F50001455B
:101D680082809387418A83C70700C5BF97370020C1
:101D780083D7A7C52390F500DDB71387C180035724
:101D880007002392E50017370020130767C383561F
:101D9800A7020357A7032383F5002390D5002391B7
:101DA800E50075BF411106C6953B83C74180637A3C
:101DB800F5002382A180170500001305E5EAEF90DE
:101DC8009035B24001454101828041677917630C23
:101DD800E502411122C406C685472A84639AF500A4
:101DE80022852244B240938541AB41016F70407F08
:101DF80089476396F5008545EF90702C75D1B24000
:101E08002244410182808280CC41411106C632853C
:101E180003C6150083C5050022064D8E42068D6552
:101E28004186138875A2630C060F6348C80413889B
:101E380045A26306060B634AC800938535A2630969
:101E4800B60623900600294679A0138855A2630890
:101E5800060B938565A2E316B6FEC1451D4663ECE5
:101E6800E5064546198E63F3C7003E862390C600F3
:101E780097C501009385C58689A8138895A2630034
:101E8800060F634E060B1388A5A2630A060F9385F7
:101E980005A5E318B6FA99451D4663EEE502198EC5
:101EA80063F3C7003E862390C6009385418131A81D
:101EB8009D451D4663E1E5022146198E63F3C7007F
:101EC8003E862390C6009385818BBA959720002083
:101ED800E780A0030146B240328541018280AD45CA
:101EE8001D46E3EAE5FE3146198E63F3C7003E86D8
:101EF8002390C60097C5010093854582F9B7B1457F
:101F08001D46E3EAE5FC3546198E63F3C7003E86B5
:101F18002390C60097C50100938545817DB7C145CB
:101F28001D46E3EAE5FA4546198E63F3C7003E8687
:101F38002390C60097B501009385C57B79B7C14545
:101F48001D46E3EAE5F84546198E63F3C7003E8669
:101F58002390C60097B501009385457EBDB7C1455E
:101F68001D46E3EAE5F64546198E63F3C7003E864B
:101F78002390C60097B5010093850579B9B7B54593
:101F88001D46E3EAE5F43946198E63F3C7003E8639
:101F98002390C60097B50100938585733DB79736A2
:101FA80000209386A6BA4146CD4517350020130573
:101FB800E5A66F70205782809387418D9C4303C7A5
:101FC800818C83C6F18201E781473E85828003D6F2
:101FD80007006316A60003C66700E308D6FE7D1750
:101FE8001377F70FA107C5B7B2862E86AA8517B54E
:101FF80001001305E5756FA0014201119305000367
:102008000D4506CEEF30203E930500051145EF3013
:10201800803D9305C0030545EF30E03C8547130636
:10202800F100854513055030A307F100EF70815189
:10203800F240056182808547631AF5001166130630
:1020480086A9894503C5918C6F10804D8947631710
:10205800F500894503C5918C6F1020638280854700
:102068006398F50019E22381B18C238CC18C82809E
:1020780009476399E50019E62381F18C03D5018CA2
:102088006F00A07F82809387C18C9C43011122CC72
:1020980006CE2E8481CB9C4791C78297F24062443A
:1020A800056182806C0013057040EF50D15D3246A7
:1020B80081452285EF60611ED5B7411193970501CF
:1020C80022C406C6C1872E8463DF070003C5918C2E
:1020D800EF00F07319C1EF00F06C2165218DB2405B
:1020E80022444101828093F7150091CF17360020D2
:1020F800130686A69385018203C5918CEF7061183B
:1021080013451400E9BF93F725000145E9DB593968
:102118001166130686A9894503C5918CEF104040C6
:10212800134524006DBF797126D24ECE06D622D42F
:102138004AD052CC9147AA84AE896314F50483D758
:10214800A5001306E1008545130550302390F18C56
:10215800230701002381018CEF70C13E9387C18C56
:102168009C4391C7DC4781C7CE8526858297B250AC
:10217800225423A2918C02599254F249624A456131
:1021880082801387418C1843E31AF7FC854503D5F1
:10219800018C2539854503D5018CEF00C073C167D3
:1021A80003DA018CF917631BFA0205449305E10071
:1021B800130550412381018CA387818223070100E5
:1021C800EF50714C8347E100B1E303C7818D91471C
:1021D800E316F7F81D35238C018C49B79387418D99
:1021E80003A9070003C4818C69D00355290011C9CC
:1021F8009305E100EF50305609C54C455285EF7004
:10220800203E7D141374F40F2109F9BF9387018DC3
:102218009C4383C74700898BCDDB9305000A0D4596
:10222800EF30601C9305000A1145EF30C01B814553
:102238000545EF30401B1306E10085451305503076
:1022480023078100EF70013049B70111170500001D
:102258001305E5E606CE22CCEF10C0661384918CF8
:1022680085471306F10085452300A4001305404166
:10227800A307F100EF60E1297D55EF40106D7D5512
:10228800EF70E032293B813CC1231705000013059C
:10229800C5DA853C17050000130525D2E12B034557
:1022A80004008545EF106015F240624405618280A4
:1022B80023A6B18C23A8A18C828023AAB18C238465
:1022C800A18C82809387418C9C43797106D622D455
:1022D80026D24AD04ECE52CC1147639BE70483C71F
:1022E800218C414481CF9387418D8043B284B68944
:1022F80083C7818C03C7F18299EB55442285B2507C
:10230800225492540259F249624A456182808346B6
:102318004400639AA600834654006396B600834639
:1023280064006380E606FD1793F7F70F2104E9B709
:1023380009474144E384E7FC2C001305504123047A
:102348000100EF505134834781008DCB9305000283
:102358000D45EF304009930500031145EF30A00803
:1023680095450545EF30200885473000854513051C
:1023780050302304F100EF70E11C49B7BD394144E6
:10238800B5BF0355240093056100EF50D03C35D507
:102398004C4503D5018CEF50A057058939DD1399B9
:1023A800040113590901014781464A86ED4503D5C1
:1023B800018C035A0400EF50E00F2AC64D441DDD7E
:1023C8002686CE852314410123152101972000205C
:1023D800E780A0B301462C0003D5018CEF60202FC5
:1023E8002A84E30D05F0ED452800EF50802439B725
:1023F800C841011122CC06CE32840346150003459C
:1024080005002206498E19CB0D681308B8A42D457E
:1024180063090607F2406244056182800D6513086E
:10242800D5A463000603130825A2630C060175787A
:102438001308E85C3298420813580801854863EE8F
:10244800080303D5A50036C632C4BD36B24615C149
:102458009387C18C9C4322468345550003A30700FC
:10246800A2876244F24003454500368785460561E8
:10247800028323900600014571BF1308B5A46317B2
:10248800060303D661831D45E376C7F8198E63D327
:10249800C7003E86CC452390C60042064182BA95C5
:1024A800228597200020E78040A6F1B79307A5A4CE
:1024B8006318F60091472390F6001146CC45CDB736
:1024C800930785906317F60089472390F60009461D
:1024D800F5B79307E5A4631AF600DC4523901601C7
:1024E80083C707002300F40079B713057590E31438
:1024F800A6F8D9BF011122CC06CE26CA4AC823178E
:10250800D1002D4429EBDC412E89B28403C4170085
:1025180083C7070022045D8C8D679386D7A4630662
:10252800D400938627A3631FD4020355A9006934F6
:1025380019E101440DA09387C18C9C438345550044
:102548000345450003A807002286A6871307E10074
:10255800814602982A842285F2406244D244424944
:10256800056182809386C7A46314D4028357E1006F
:1025780005473544E391E7FE0345060013040008C8
:10258800E3EBA7FC9387C18C9C43DC43829755B748
:1025980093862790631AD4028356E1008547EF504B
:1025A800603C2A844DF99387418D8356A9009C434A
:1025B80003C7818C3DDF03D627006302D6047D174D
:1025C8001377F70FA107FDB79387E7A4E313F4F692
:1025D8008357E10005473544E39FE7F603450600C6
:1025E80013040008E3E9A7F6DC452380A7009387D6
:1025F800C18C9C433335A0000905DC4341BF1387D8
:10260800C18C184303C5470083C5570083C714000E
:102618000328070003C70400A2078946D98FC20709
:10262800C18705476383E7008D460D66A6871307B4
:10263800E10013062690029839BF411122C4416473
:102648001305F4FF938541AD06C626C24AC0EF6064
:1026580030791305F4FF938541AC972400209384C7
:102668006450EF60F077972600209386A66941466C
:10267800E9452685EF60106BCC4C2A890945EFF0B7
:102688000FEC13874184834607009387018403472F
:10269800170003C61700138441AE83C50700A306BD
:1026A800E40083D7A40CA30EE40003D7A416A30266
:1026B800C400A30AC40003D6A4132310F400231CE7
:1026C800E40083D7A40D1387C18303D5A41023186E
:1026D800C4000357070003D6A4142311F400854748
:1026E8002303F4002306D4002307F4002319C400AD
:1026F800230ED4002302B4002314A400230AB40038
:1027080023150400230B0400231D0400230F0400D9
:102718002312E40203D7A4189385C1B02303F4025B
:102728002310E402231104020D45EFF04FE1A285C6
:102738001D456136B24022444A859244024941010E
:1027480082808D67138527A36301A6049387D7A486
:102758000145631EF6008947639CF50085473545AA
:102768006397F60083470700238FF18C0145828029
:102778008D472945E39DF5FE85473545E399F6FEE6
:1027880083470700238EF18CD5B785473545E390FD
:10279800F6FE83470700A38DF18CC9BF8D671385AB
:1027A80027A36308A6029387D7A46317F60289476D
:1027B800639BF50083C7E18D2300F70085472390CD
:1027C800F600014582808D476398F50083C7C18D67
:1027D800E5B783C7B18DCDB723900600DDB70145B6
:1027E800828025E303A84500AE8883471800034884
:1027F8000800A207B3E707010D68930EF8A4639ACF
:10280800D70391473548639FF60203A5C8004111D5
:10281800B285114606C697100020E780006F93879F
:10282800C18E9C4305458297B240014842854101CB
:1028380082809308289029486396170185476F502E
:1028480060122D4842858280416541119385C1B14E
:102858007D1506C6EF60D058B240972600209386B3
:10286800265141469945172500201305654A41011F
:102878006F60504B23A6A18E828001119385C1B150
:1028880022CC06CE2A84EF50A008058929C1014729
:1028980081460546ED452285EF40D0412AC605C947
:1028A800972700209387C74683D7A70501462C00A2
:1028B8002314F10085472315F10023000500228524
:1028C800EF50F06009C5ED452800EF409056F24002
:1028D80062440561828041677917630CE502411102
:1028E80022C406C685472A84639AF50022852244B5
:1028F800B2409385C1B141016F60904E894763969C
:10290800F5008545EF80B07B75D1B2402244410186
:1029180082808280411106C6EFE07FA4BD4763F440
:10292800A700EFE0DFA3EFE09FCCBD4763F4A7006B
:10293800EFE0FFCBB24083D5218A03D5018A41015C
:102948006F001066411193962500AA852D4506C68D
:1029580097100020E780A025B24001454101828000
:10296800411126C29394250022C44AC02A84328980
:10297800A686AA850146254506C697100020E78049
:102988000023A6864A86A285294597100020E7805D
:102998000022B2402244924402490145410182800A
:1029A800011122CC06CE3714004026CA4AC84EC6AA
:1029B80052C483447405034AB40583498405034912
:1029C8009405EFE05F978347A40593F4F40F137A17
:1029D800FA0F93E71700230DF40493F9F90F13790D
:1029E800F90FB717004003C7A705058B6DFF03D57F
:1029F800C705A38D4705238C3705A38C2705A38B13
:102A08009704F2406244D2444249B249224A0561DD
:102A1800828041119397050122C406C6C1872E847E
:102A280063DB0700ED2311C1B52B2165218DB24071
:102A380022444101828093F7150013C51500E5FB78
:102A48009397250163D00702EF10F176E13537F649
:102A58000200130606E0896503C5018FEF00502CBC
:102A68000965E9B7939715010145E3D207FC17B546
:102A780001001305A5D8EF90B12B130600649165EA
:102A880003C5018FEF00D02911654DB71D71494667
:102A980097B50100938505D217B50100130505FA0E
:102AA80086CEEF00B00F01E917B501001305C5D1B7
:102AB800EF90112801A037F700E0F9575CC7FD57E0
:102AC8001CCB8566B7E700E023A0D710130670106B
:102AD80010C3B8434146B0C323A0D718B8C30F10DA
:102AE80000001306C00381454808EF00100597272A
:102AF8000020938767743ECA896793870780231CE1
:102B0800F100ED47A301F1029307A0102312F1028F
:102B1800D1472303F102A167938707E03ECE9707C9
:102B28000000938767E2BEC497070000938787E396
:102B3800BEC685472304F102B5472308F10297F77B
:102B4800FFFF938767F13EDAB7F5070097070000A4
:102B5800938747E53EDE8146970700009387C7DBEA
:102B68007000E1051945BEC097100020E7802004D9
:102B780058088147994670003E9603460600850727
:102B88000507A30AC700E398D7FED24791C70357A2
:102B9800810185676373F70001A04808EF001056AC
:102BA800AA8501C917B50100130545C3EF90B10601
:102BB80001A0F64025618280411117050000130528
:102BC80085E506C622C4EF00F04F1384018F230069
:102BD800A4002928034504002244B24037F6020025
:102BE800130606E0896541016F009013411122C464
:102BF80006C637140040930670052300D404130753
:102C080080FA2300E4040F1000008347F40293F7CE
:102C1800A70FA307F4022300D4042300E4040F1031
:102C280000008347F40293E72700A307F402DD318D
:102C38001305407E23000404814701478146054669
:102C48008545EFE03FBF2244B240014541016F0096
:102C5800107882807D15954763E7A70C17B70100A8
:102C6800130707BA0A053A951C41011106CEBA970F
:102C780082872C0013054030EF60017F2C0005454A
:102C8800EF30104B17B50100130585BAEF90510AC4
:102C98008DA817B501001305A5BACDBF83D7A50028
:102CA8000D6613060620914503C5A185239CF18472
:102CB800EF00100717B50100130585B9C1BF17B597
:102CC80001001305A5B9D9B783C72500114717B562
:102CD8000100130525BA6380E70419476396E702E4
:102CE80083C5650017B50100130585BAEF90A17279
:102CF800854730008545130550302304F100EF6007
:102D08007104F240056182801547E393E7FE17B529
:102D180001001305A5B9EF90B101D9BF17B501009E
:102D2800130545BAA5B7828001112305A100340017
:102D380021468545014506CE23140100A30501005F
:102D480002C6EFF02FD8F24005618280411106C615
:102D580022C43A883E8795EA32830D661306D6A4C4
:102D68002A8EAE88834608006319C3008947639694
:102D7800F50085473544639EF6022244B2401A8620
:102D8800C685728541016FF0DF9B85476398F60021
:102D98002244B240C28641016FF05FA089470144D6
:102DA8006399F6001306401F894503C5A185EF0006
:102DB80020772285B24022444101828041119397B5
:102DC800050122C406C6C1872E8463DD070003C53A
:102DD800A185352C11C1F9222165218DB2402244EB
:102DE8004101828093F7150013C51500E5FB93F7A1
:102DF800450099CF83C7A1851307401F8146214607
:102E0800A14503D58185EF60214113454400F9B7F9
:102E180093F725000145F9D303C5B185313783C739
:102E2800B185850793F7F70F7147636FF700014581
:102E3800A38DF184D53D1306007D894503C5A18581
:102E4800C5251345240059BF9147D5B7011117056A
:102E580000001305E5F606CE22CC26CAEF00902620
:102E68009384A18505442380A4007000854513053B
:102E7800503023068100EF60E16C138681849D4504
:102E880013056030EF60016C17260020130606F06A
:102E9800F54513057030EF60E16A17B601001306B7
:102EA800A697D5450145EF40601C8D4770009145B8
:102EB800130570402305F10023048100A305810058
:102EC80002C6A3040100EF50C16430008545130514
:102ED8000040EF500164130691008545130510402A
:102EE800EF5021631306A100854513052040EF50DC
:102EF80041621306B100854513055040EF506161EA
:102F080099477000854505452306F100EFE0DFDFAE
:102F1800EFF0AFF297250020938545E613850185EC
:102F2800EFF00FB903C504008545C129F24062449A
:102F3800D2440561828041111305800406C69710AA
:102F48000020E780409C371700408327870A8D457B
:102F58001305002093E707202324F70AEFE01FA1B9
:102F6800EFE0BFB817B50100130545ADEF90415C20
:102F7800313E9931EF609103EFF02FADC13D9710CD
:102F88000020E780A0B623AC05FE1C4191E70100B4
:102F980001000CC18280BA8703A787FF6DFF23ACAD
:102FA800B7FE82801DC18346E5FF1307F00F9147E6
:102FB800639EE600411106C697200020E780209610
:102FC800B24081473E854101828095473E85828097
:102FD80001E9014582800145B240224441018280D5
:102FE800411122C42A84210542059305D004418158
:102FF80006C697200020E780E08871DDFD57232072
:103008000500231285002303F5002105F1B7138776
:10301800818F1C43411122C426C24AC006C60144FE
:103028000149BA8489E7A1658D250DC401A803C7A4
:10303800E7FF6318A7021DC8A165C126984083272A
:1030480084FF6317E40223ACF18EFD57232C04FEA2
:10305800230FF4FE2285B2402244924402494101E2
:10306800828011E03E8983A787FF6DBF3E84E5BF5C
:10307800232CF9FED9BFA9C9411122C406C62A8446
:103088009747002083C7179F2E856368F400193F70
:103098000D45B24022444101828083A785FF99E70C
:1030A80003C7E5FF9307F00F6305F700E53D1545F6
:1030B800CDB7238F85FE1385818FF1352285224474
:1030C800B240A165410115AE1545828023AC018E41
:1030D8008280938701919C4399E33E85828003D740
:1030E80027006316B70003C70700E308A7FEDC47FD
:1030F800E5B74111939705014AC006C622C426C206
:10310800C1872E8963DE0700193711C1613D21652A
:103118003345A900B24022449244024941018280C9
:10312800AA860145E5D901443D47B3578940858BB7
:1031380095CB938741908443BD4791E28147A297FD
:103148008E070545BE9433158500131405019C4070
:10315800C8404180829723A0040023A2040033457D
:1031680024014DBF0504E312E4FC0144CDBF974799
:1031780000209387678C9C53411122C406C6138490
:10318800C18595C7829723AEA1840840B74703003D
:103198009387D73F3305F502B7A72600938737EC07
:1031A800B24022443E9523AEA184410182809747D4
:1031B80000209387278C18409C4BBA9723AEF18444
:1031C800E9B79387C18F90439746002083C6968AB4
:1031D800814713F7F70F6360D70A174700200347A3
:1031E800D79D914763E0E70A9747002083C787A1E7
:1031F800918BC9EB0111680006CE22CC26CAEFC01C
:103208000041FD56630FD50C32479747002083C70E
:10321800D78363F3E70C174700201307A7854047B8
:1032280017470020034787826305D406058B21CF03
:1032380051473304E40263F1870A97100020E780BE
:10324800E0F1B2476373F400A28717370020034701
:10325800D77F998F3E95973700209387E77D83879F
:10326800470163CD0702B707C0A86369F502B7072E
:1032780040573E9525A085071397170032970357A7
:10328800E7FF21DB8280130790023304E402058004
:103298005DB762076187635707001D8D19E9370518
:1032A800C0A801A8E37BF5FE3707C0A8B307F7401D
:1032B8003E959737002093872778DC53829709ED4E
:1032C800974700209387078F9C4F99C7EF10412499
:1032D800EF105102EF102118F2406244D244056108
:1032E8008280973700209387E778DC47E386A7FE3C
:1032F800173700201307477483464701BA84858A25
:103308009DC65144338487029737002083C7F773DB
:10331800E3F487FC97100020E78040E4973700200B
:1033280083C7B7721D8C2295838744011DBF130480
:103338009002338487020580C1BF2A9609E58280FE
:103348000505A30FB5FEE31DC5FED5BF81473307AD
:10335800F5000307070019E33E8582808507C5BF8E
:1033680001112E8626CAAA84131506019305F004B6
:10337800418122CC06CE32C697100020E7808050CB
:103388002A8419C53246A68597100020E780E0B741
:103398002285F2406244D2440561828081476314E9
:1033A800F600054582803307F5008507B386F500EA
:1033B8000347070083C6F6FFE383E6FE01458280E4
:1033C8009307F6FFBE952A966313C5008280FD1504
:1033D80083C715000505A30FF5FEFDB7814711E961
:1033E800014582803307F50003470700E31AB7FE5B
:1033F8008507E319F6FE054582809737002083C7C5
:103408007767637FF5001387C18F9317150008430B
:103418003E9583570500DD8D2310B5000145828058
:103428000D458280FD57011117370020232AF764C4
:103438009387019122CC80434EC697390020938907
:10344800A95F26CA4AC852C456C206CE5AC02A899B
:1034580081444E8A973A0020938ACA61184481476A
:103468006374E900B307274103A749021CC409CBC9
:1034780003A7CA0063F6E700173700202322F76086
:10348800A1E7835524009DE95C44A1E823A8F190B5
:10349800032BC400228597100020E78040485A84F7
:1034A80055FC83274A0285CF6244F240D244424900
:1034B800B249224A924A024B056121B303450400EE
:1034C8002D3F5C4081CB1CC483572400D5DFA284E8
:1034D8004044F9B71C44CDDBC5BFDCC455BFF2403E
:1034E8006244D2444249B249224A924A024B056197
:1034F80082809737002083C7F7576371F5021387D7
:10350800C18F93171500084393C5F5FF3E95835760
:103518000500FD8D2310B500014582800D45828090
:103528009737002083C717556364F50001458280EB
:10353800411122C426C24AC006C62A842E89B284F2
:10354800493E01C504C505452DA0936504F0C20593
:10355800C181414597100020E780C0320DE19737BF
:1035680000209387674D9C5B81C7A2851145829790
:103578000145B24022449244024941018280938726
:1035880001919C438DE323A8A1908547232605003C
:1035980004C52311250123008500A300F50023227B
:1035A800050055B7BA87D84775FFC8C7F9BF45C5DD
:1035B80039715AD0138B419022DC26DA4AD84ED67C
:1035C80052D45ECE66CA6AC86EC606DE56D262CCD1
:1035D8003689328AAE89AA8401445A8DB94D854B01
:1035E800F94C03270B00131C3400937AF40F6297ED
:1035F8001C43A9EF13B5FA0013451500B3978B00C8
:1036080063F65D01930714FFB397FB0093950701D9
:10361800C181528631371DC983270D000145E297C4
:1036280084C323A237016304090023005901F2501F
:103638006254D2544259B259225A925A025BF24BFE
:10364800624CD24C424DB24D216182800504E31A8E
:1036580094F92145E9BF09458280411122C426C257
:103668004AC006C6AA842E8932845D3DCA8526854D
:10367800EFF03FA609C940C10145B2402244924437
:103688000249410182802145CDBF411122C426C291
:103698004AC006C6AA842E89EFF0BFA32A8419C19E
:1036A800231105009737002083C7C73C6394970010
:1036B80023942191CA8526852D3D014511E01945A0
:1036C800B240224492440249410182807547636BAB
:1036D800A704138741901443411126C2931435005F
:1036E800A696944222C406C6AA873A84094595C676
:1036F80013B5F7003947134515006373F700C5176D
:103708008545B395F500C205C18141371C40014587
:10371800A69723A0070023A20700B24022449244A0
:103728004101828009458280411106C6EFF07F9AE7
:1037380009C50845B240410182800145E5BFF5470A
:1037480063EDA704938741909C4313173500BA97FC
:103758009843894721C7011126CA06CE9334F5003C
:1037680022CCB94793C4140063F3A7004515054458
:103778003314A400420441802EC62685A2856D37E5
:103788008947324609C5A2852685593B8147F240BB
:103798006244D2443E850561828089473E858280A5
:1037A8002390A1902391B1908280411106C623A64F
:1037B800A1900295B2409737002023A7A72C014576
:1037C80041018280994763E9B7008A05973700204D
:1037D8009387872CBE9588C18280411106C6EF6009
:1037E800E10371468145173500201305E52AEFF0FE
:1037F800DFB41306400281451735002013058527DD
:10380800EFF0BFB323A8019023A6019097370020BB
:1038180083C7472413D527008D8B3E958D473305E5
:10382800F5029305101035051375F50F973700202D
:103838002383A72499473305F5021305050F97102D
:103848000020E780200423A2A19035C999471736A4
:103858000020034646223306F60281451306060F6A
:10386800EFF0BFAD938741909C439387070F23AA3E
:10387800F19017370020034707200A07BA9723AEAD
:10388800F18EEFF0BF84552693874191984397377F
:10389800002083C7371E93962700BA9617060000A4
:1038A8001306668590C293862700850793F7F70F5E
:1038B8008A0797350020A38FD51ABA9790C3B240CC
:1038C800410182809737002083C7D71A1737002015
:1038D8000347671A63F1E7021387419118439386F8
:1038E800170017360020A307D61893962700369797
:1038F80008C33E8582809307F00FE5BF1C416381B2
:10390800071A41777D8FB70600208947631BD718B0
:103918000357450063070718411122C419462A8432
:103928009305F00F590506C6EFF05FAB05478D47C5
:103938006303E5161C4481CB58589947630D071457
:10394800185C630A07141306C00381451735002065
:103958001305850EEFF07F9E1306C003A285173569
:1039680000201305650D97000020E780005A97375F
:10397800002083D7270D973600209386E60B99E71A
:103988009307001017370020231EF70A97370020E7
:1039980083C7670B91E78547173700202305F70A88
:1039A8009737002083C7370A91E7ED47173700207C
:1039B800A30BF7089737002083C7070991E79547B6
:1039C800173700202302F7089737002083C7D70747
:1039D80091E7854717370020A308F7069737002097
:1039E80083C7D70699E783C7060117370020A30FB7
:1039F800F7049737002083C7470591E7D147173762
:103A080000202304F7049737002083C7C70495E7ED
:103A1800173700200347870313168701618693072A
:103A2800C002634806009377170093B7170093877F
:103A3800D702173700202300F7029737002083C7E3
:103A4800D70095E71737002003474700131687016B
:103A580061869307C002634806009377170093B7FF
:103A680017009387D70217370020A300F7FE834774
:103A7800D40191E7894717370020A30DF7FC9C561E
:103A880091C78297973700202399A7FEB933FD572E
:103A9800A38EF1A68147B24022443E85410182802F
:103AA80089473E858280011122CC06CE2A842EC603
:103AB800EFF0EFEBB245F240818D33A5A5022295D8
:103AC80062441375F50F05618280011122CC06CE80
:103AD8002A842EC6EFF0AFE9B245F240818D33A5B6
:103AE800A502229562444205418105618280011147
:103AF80022CC06CE2A842EC6EFF06FE7B245F240FC
:103B0800818D33B5A502229562440561828097377D
:103B18000020938767F2985725C3411122C426C213
:103B280006C6BE84029717370020035707F52A8474
:103B380041C7BA876373A700AA87C207C183BA8639
:103B48006373E400A286C206C182958F514763550C
:103B5800F706DC5491C38297854717370020230F57
:103B6800F704EF00516597370020239887F0B2409B
:103B780022449244410182809737002083C707047A
:103B88009DE7973700209387E70283C7970085074B
:103B980093F7F70F17370020A302F702A18B9DC7F1
:103BA800854717370020231BF7006F00B16697374A
:103BB8000020A3850700D5BF9737002083C70700DB
:103BC800DDD72244B24092444101C5B7828097377D
:103BD8000020938767E6D857011122CC06CE3E8491
:103BE80001C72AC60297324509CD23ACA190170513
:103BF800002013052558553EF240624401450561F1
:103C080082808307440163DD07009737002023AFD4
:103C180007E6970700209387875023ACF190C1BF30
:103C28009707002093878753CDBF011122CC173403
:103C38000020130464E0084406CE26CA4AC801E9F5
:103C48000545F2406244D2444249056182805C588D
:103C5800E5DB185C75D77000854582971844B24734
:103C6800E300F7FE9305E00417350020035585DDD2
:103C780097100020E78000C117370020232AA7E00B
:103C880061D1173600200356E6DB9305F00FEFF0FD
:103C9800CFEA8144173900201309C9DD973700207E
:103CA80083C767DA0326C90163C1F4023285971016
:103CB8000020E780C0C601459737002023AA07DC0B
:103CC8009737002023A807DCADBF9735002083D5A0
:103CD80065D7B38795020844185C898185043E95A9
:103CE80008C2029765BF411122C41734002013048B
:103CF800A4D41C4426C206C64AC097340020938424
:103D080064D791EBC84C35E9B24022449244024949
:103D18000145410182801C5CF5D7DC4C99EF930585
:103D2800E004173500200355E5D197100020E780FF
:103D380060B59737002023ADA7D4C84C61D5173696
:103D48000020035626D09305F00FEFF00FDF01494E
:103D58009737002083C727CFD04CE355F9FA97351A
:103D6800002083D525CE338525031C448981050988
:103D78003E951C5C08C28297E1BF97100020E7803F
:103D880000BA9737002023A507D09737002023A330
:103D980007D09DBF011156C2973A0020938ACAC91D
:103DA80083A78A0022CC4AC84EC606CE26CA52C469
:103DB8005AC0AA892E8432896385072203A74A0339
:103DC800630707147D476366A7149734002093841C
:103DD80064CA03AAC40163170A0A9565938515E0A6
:103DE80017350020035505C697100020E78080A9E5
:103DF8009737002023AEA7C82A86630A051083A731
:103E08004A0303A58A009735002083D5A5C3898175
:103E1800829783A78A0003AAC40117370020232B9F
:103E2800F7C68947639CF908C1476312F40E9735B2
:103E3800002083D525C1938505FC9147B3C5F502BC
:103E48008A05D29503C705009307A005631DF70AE5
:103E580083C715006399370B4A8522869105970019
:103E68000020E780800ADC4C5285639347150145A2
:103E7800F2406244D2444249B249224A924A024B31
:103E8800056182809850E38EE7F89565938525E073
:103E980017350020035505BB97100020E780809E4A
:103EA8002A8A35C52A8683A74A0303A58A00973537
:103EB800002083D525B989818297A5B78D47639D51
:103EC800F900C1476315F4049735002083D585B7F9
:103ED800938545FDF199B5B79147639AF900631841
:103EE80034039735002083D5E5B5A115E5B7C1475B
:103EF800639FF900A14763EC87009735002083D5BD
:103F080065B4C115C1BFDC4C52856397470D29457F
:103F180085B71307F006568B6361A70A130A05FED7
:103F28001947334AEA02173700200357A7B1973ACF
:103F38000020938A2AB4330AEA023E9A83A70A0227
:103F48006395470183A4CA019DE49305E0041735EE
:103F58000020035525AF97100020E780A092AA847F
:103F68005DD583274B039735002083D5A5AD2A86D9
:103F780089815285829791451307A0058981939776
:103F88002500A69783C607006393E60483C6170037
:103F9800639C360385058A052286A6954A8597007F
:103FA8000020E78080F683A7CA01E38297EC268584
:103FB80097100020E780A0965DBD1307E007E3682F
:103FC800A7F4130A05F985B783D5270045BF83A74A
:103FD800CA01E38E97F2268597100020E780209487
:103FE8003DB7973700209387E7A8CC4F8DD19147ED
:103FF8009306A0058983139727002E970346070089
:10400800E317D6F003461700631C360185078A07B5
:104018002286BE954A8597000020E78000EF81BD83
:1040280083572700C1BF973700209387E7A0984799
:1040380039C79C5FA9C705476313E504411122C42A
:1040480017340020130404A3504C06C60DC60850AC
:104058009735002083D5059F89818297484C971012
:104068000020E780C08B9737002023A307A297374B
:10407800002023A107A2B24022444101828082800D
:104088000111173700201307279B4EC68329870085
:1040980022CC26CA4AC806CE52C456C2AA842E8446
:1040A8003289638A09201C5FBA8A99EB2945F24054
:1040B8006244D2444249B249224A924A0561828006
:1040C8005C5BEDD7FD4763E9A70E9739002093891C
:1040D800699A83A7C901B1CB03A58A0083A70902FE
:1040E8006395A70689476393F408C147E310F4FC76
:1040F80017350020035505959147130505FC3345F1
:10410800F5029317250003A5C9012286CA853E95A5
:104118009307A0052300F500A3009500110597005B
:104128000020E78080DE014559B79305E004173584
:1041380000200355259197000020E780A074973749
:10414800002023A7A79449F995B783A74A0303A694
:10415800C9019735002083D5E58E8981829783A789
:104168008A00173700202327F792ADBF8D47639E3B
:10417800F400C147E31CF4F2173500200355858C81
:10418800130545FD9377C5FFBDBF9147639AF400BA
:10419800E31E94F0173500200355C58A2115DDB7B5
:1041A800C147E395F4F0A147E3E287F01735002013
:1041B800035545894115F9B79307F00663EAA70641
:1041C800930705FE1947B3C7E702173700200357BF
:1041D8006787173A0020130AEA89B387E702BE996E
:1041E8008327CA01A9CF83270A02639A37070325C1
:1041F800CA0191461308A005FD5593D72600C207AA
:10420800C183139727002A9703460700631D0607F3
:10421800834817000356270063959806B306D640CF
:1042280063CF860485078A072286CA853E95C5BD61
:104238009307E007E3ECA7E6930705F979B7930539
:10424800E004172500200355E57F97000020E7804C
:1042580060639737002023ADA78251F581BD83A7FE
:104268004A030326CA019725002083D5A57D8981A5
:104278004E8582979737002023AE37818DBFA300E4
:10428800B700B2869DBFB385860017260020035667
:10429800667B9105130606FCE3FAC5E013063400B5
:1042A8001376C60F1106B29623000701A3009700E4
:1042B8002311D70085BF972700209387A77BD44F6A
:1042C800BE89A1C203A5C90191461308A005FD55E1
:1042D80093D72600C207C183139727002A9703465E
:1042E80007006316060583481700035627006398DE
:1042F8009800B306D640E3D786F2A300B700B2868B
:10430800C1BF8357C700172500200345C573930510
:10431800E0043305F5024205418197000020E7805B
:1043280060569727002023A5A77649FD41B3172695
:104338000020035626719725002083C5C570B385D4
:10434800C502338686001106E3E2C5D681BF014562
:104358008280011106CE2EC6EF70A04501C9B24574
:10436800F2400355250005616FA06074F24049458D
:1043780005618280A38201942382019423A601927D
:1043880023A8019223AA019223AC019223A40192AB
:1043980023A20192972700209387C7713707B4009B
:1043A80098C33747A000D8C3370710009306070AF9
:1043B80094C7B7065000C106D4C79306070541073E
:1043C800D8CB3707D007410798CF3707840398D34E
:1043D80037C70700130707B8D8D3416794CB9306AC
:1043E8000701130717F8D8D7370781FF98DB7D57E0
:1043F80023AE070094D7239AE7028280011126CAC8
:10440800AA84214522CC06CE2E8432C636C43AC2AE
:10441800EFE01FBC1DC9A24612473246930700FDB4
:104428002300F5009947A30095002301F500230315
:10443800D500A303E5002312C500AA85228562449E
:10444800F240D24405616FE01FC3F2406244D24497
:104458000561828023A6A192828023A8A1928280EE
:1044680023AAA192828023ACA1928280011122CC3E
:104478004AC806CE26CA2A890144B304890063685B
:10448800B400F2406244D2444249056182802EC69B
:10449800EFE0FFCD93170501C183A183B2452380C7
:1044A800F4009307140093F7F70F850463F9B70036
:1044B800CA9709042380A7001374F40F7DBF3E84B4
:1044C8007DBFC167172500200355A562FD1763024C
:1044D800F502411103C6019D9385C19306C6EF708D
:1044E800800EB240FD57172700202314F7604101C2
:1044F8008280828009C925151375F50F1335850E3D
:104508001345150082800145828023800500F94704
:1045180063E2C708797122D426D24ECE56CA5AC849
:1045280006D64AD052CC5EC63684B289AE8A2A8B69
:10453800814463FF3405B307940003CA0700138955
:1045480014001379F90F63050A04B3072A0163C13C
:10455800F904B307240183CB07005E85613F0DC9C9
:104568009307FAFF2380FA0063906B031305190081
:104578002295B250225492540259F249624AD24AC0
:10458800424BB24B45618280D29493F4F40F55B7F5
:104598000145C5B701458280411126C2AE8422C4B7
:1045A8009727002023AEC7549727002023A8B75485
:1045B8009727002023A2A7542A8441469305F00F89
:1045C80026854AC006C60549EFE05FE1631E25035C
:1045D8009727002093878751884BC145413D414625
:1045E8009305F00F2285EFE07FDF8544631695027F
:1045F8002244972700209387674FB240924402498C
:10460800C847C14541019DB5414681452685EFE032
:10461800FFDCE31625FD6DBF414681452285EFE0AD
:10462800FFDBE30795FCB240224492440249410172
:104638008280411122C426C22E84AA841306000255
:104648008145172500201305654A06C6EFE0FFCE11
:1046580097270020A38D9748A389819CEFA0A046A7
:10466800854719C181474945B24022441727002090
:10467800230EF746924441018280814781CD19C9B2
:104688008547631BF50083C7550093E707FCA382A2
:10469800F50085473E85828089476317F50083C703
:1046A800550093F7F703E5B70D478547E314E5FE93
:1046B80003C755001377F70313670704A382E500C0
:1046C800D1BF81478DC105C103C755009306000CB2
:1046D80085471377070C6308D700930600048D47B6
:1046E8006303D70089473E858280411122C4005D5B
:1046F80006C626C21DC8AA84085009C5970000200E
:10470800E780E021485009C597000020E780202174
:10471800085409C597000020E7806020228597008B
:104728000020E780C01F23AC0402B2402244924418
:104738004101828009ED9727002083C7473B172551
:1047480000201305253C81CB1385C1918280172554
:1047580000201305253B82801725002003452539B5
:1047680082809727002093876738C84782809727D9
:1047780000209387A737884B82809727002093874C
:10478800E736DC4B884382809727002093870736DB
:10479800D84B1C4385071CC3172500200345353516
:1047A8009307F00F6305F50091656FE01FC58280E0
:1047B800011122CC06CE2E8432C6EF70C00E91476E
:1047C800B245631FF500938781939C438DC303A370
:1047D8000700630E030022856244F24005610283EC
:1047E800938701939C4381C703A34700DDB7F24039
:1047F8006244054505618280011122CC2A84035553
:10480800450006CE26CA4AC84EC6EF60B06A35C50E
:104818002A89834405008349C500C13D4A85EF7054
:10482800106203554400EF70800383C74194B1CBF5
:104838006399970483C551942685EFF09FB119E1D8
:104848002382019403554400EF70E0059147631FEC
:10485800F500035744009727002083D7872963175B
:10486800F700FD57172700202315F728F240624468
:10487800D2444249B2490561828081499304F00FCC
:104888006DB79307F00FE38FF4FA8346640003567D
:104898004400034524004E87A685EFF03FB65DB778
:1048A80079715EC6AA8B2E8552CC56CA5AC806D6CE
:1048B80022D426D24AD04ECEAE8A328B368AEF60C8
:1048C800705F6DC1045D2A89F1CC9C50614599C324
:1048D800130540039C5481C7510542054181630576
:1048E8000A00710542054181DC5081C7590542051E
:1048F8004181EFE0EFED2A8455C561468145EFE03F
:10490800DFA39729002083C9E91D6394090083491F
:104918000900930700FD2300F400A947A3007401D0
:104928002301F400230364018C502312540113055E
:10493800840191C908C47146930A440397F0FF1F84
:10494800E780A05C56858C5491C948C45146930AA7
:10495800450197F0FF1FE780405B5685630C0A000E
:1049680008C87146D285930AC50197F0FF1FE780F2
:10497800C0595685CC5099C548C8594697F0FF1F6D
:10498800E780A058A2854E85EFE0EFEE2254B250A2
:104998009254F249624AD24A424BB24B4A85025972
:1049A8004561A1B3B250225492540259F249624A65
:1049B800D24A424BB24B4561828001114EC6AA8948
:1049C8002E854AC806CE22CC26CA2E89EF60904E84
:1049D80031C59724002083C4E41099E0834405007E
:1049E8001945EFE0EFDE2A8415C981451946EFE045
:1049F800DF94930700FD2300F400B947A3003401B6
:104A08002301F40023122401A2856244F2404249A2
:104A1800B2492685D24405616FE0EFE5F240624471
:104A2800D2444249B2490561828039715ECEAA8B6F
:104A38002E8526DA4ED652D456D25AD006DE22DC3D
:104A48004AD8AE84328BB68A3A8ABE8942C6EF60AB
:104A5800704631C92A894145EFE08FD72A8421C59C
:104A680041468145EFE07F8D1725002003458507E6
:104A780019E103450900930700FD2300F400BD4731
:104A88002301F400B247A300740123129400230405
:104A98006401A304540123054401A30534015CC443
:104AA800A285EFE04FDDF2506254D2544259B25918
:104AB800225A925A025BF24B21618280797126D286
:104AC800AA8439454AD04ECE06D622D42EC6B289FB
:104AD8003689EFE0EFCF21C1B2459307000D2310CF
:104AE800F500B1472A842312B5002301F500CE85CD
:104AF8001905194697F0FF1FE78020412306240176
:104B0800A2852254B2500259F24913F5F40F925477
:104B180045616FE04FD6B250225492540259F2497F
:104B28004561828017270020034777FC9307F00F21
:104B3800630DF706411126C2AA84394522C406C668
:104B48004AC0EFE0EFC82A8439C9930700FD230063
:104B5800F500A30095002301050097250020938503
:104B680065FA0D05194697F0FF1FE780003A1729E7
:104B780000201309A9F783578900A285172500206B
:104B88000345F5F62315F400834719002306F400BE
:104B98002244B2409244024941016FE0CFCDB24075
:104BA800224492440249410182808280011156C206
:104BB800AA8A314526CA4AC84EC652C406CE22CC55
:104BC800AE84328AB6893A89EFE08FC029C92A842F
:104BD8002685EF60302E1DCD03450500930700FDA7
:104BE8002300F4009D47A30054012301F40023127D
:104BF8009400231344012314340123152401A285AE
:104C08006244F240D2444249B249224A924A05617A
:104C18006FE06FC617250020034575EDC1B7F24058
:104C28006244D2444249B249224A924A056182808A
:104C3800397162CC2A8C594526DA4AD84ED652D4D4
:104C480056D25AD05ECE06DE22DCAE8432C636C4D8
:104C5800BA8B3E8BC28A468A8359010403494104B0
:104C6800EFE00FB735C53246930700FDA246230093
:104C7800F5009547A301C500A30085012301F500B0
:104C88002A8419461105A9C2B68597F0FF1FE78047
:104C9800C02723066401230A24012315740123175E
:104CA80054012318440123193401A2856254F25097
:104CB8004259B259225A925A025BF24B624C2685EB
:104CC800D25421616FE02FBB8145EFE00FE7D1B7E8
:104CD800F2506254D2544259B259225A925A025B43
:104CE800F24B624C216182809727002083C727E01E
:104CF8008DCB4111AA8519461385C19106C697F037
:104D0800FF1FE78080209385C19117250020034568
:104D180005DEEFF09F96B2401385C19141016F9077
:104D2800105B0145828017270020034757DC930753
:104D3800F00F6305F708411126C2AA84294522C449
:104D480006C6EFE0EFA82A8429C1930700FD2300D7
:104D5800F500A1472301F500A3009500972700203F
:104D68009387C7D883C727009385C1911105A30FDF
:104D7800F5FE194697F0FF1FE7802019A285172531
:104D880000200345D5D6EFE00FAF172700200347D3
:104D980007D68D47631FF700938741939C4391CBB8
:104DA80003A38700630703002244B24092444101F1
:104DB8000283B24022449244410182801727002096
:104DC8000347E7D28D47631AF700938741939C43C3
:104DD80089C703A38700E31D03FC8280797122D46D
:104DE80006D626D24AD04ECE52CC094445C92A8985
:104DF800035505002E8A5144EF60D00BAA8459CD83
:104E080083C7319DFD1793F7F70F0547494463772B
:104E1800F7080347C500A1476314F70063100A08A1
:104E28009C5C4544A5EF9165938545711305C002C7
:104E380097000020E78000A588DCAA894D4439CD79
:104E48001306C0028145EFE04FCF835709009386D0
:104E5800490036852391F90071469305490036C605
:104E680097F0FF1FE780600A89472380F90003C590
:104E7800C400B24603560900611583C5019D133568
:104E88001500EF90E0192A8463060A00D28526856A
:104E9800EF70102601C42685EFF03F852285B250B9
:104EA800225492540259F249624A4561828083C76A
:104EB800319DFD1793F7F70F05476378F708894782
:104EC80051C6011122CC26CA4AC84EC652C406CEC3
:104ED800AA89368AB2842E89EF60C07D2A84D14798
:104EE80029C9485509C597000020E78040A3F14526
:104EF8002685EFE0EFC648D4CD4705CD8346C400EC
:104F080021478147639FE600630D0A000347A50117
:104F18000356050193062501AA854E85EF702015D5
:104F2800AA8703474400630F090013676700230239
:104F3800E400F2406244D2444249B249224A3E85E2
:104F48000561828013674700DDB7C9473E858280C7
:104F5800E54763EBA700972700209387A7B50605C9
:104F68003E9503550500828041657D1582800111BB
:104F780022CC2A842E8526CA06CEAE84EF608073A2
:104F88000DCDB7470F009387F723094563E28702E2
:104F980081450A854146EFE04FBAA6852310810076
:104FA8000A85418023018100A3010100EF80B069D7
:104FB800F2406244D244056182804945D5BFA38846
:104FC800A19C82806F80907E797152CC2A8A32852A
:104FD80022D426D24AD04ECE56CA5AC85EC606D663
:104FE80062C4AE8BB28A368BBA843E89C289468443
:104FF800EF60406C15C92A8C63140A0213774B00C2
:105008008347450015CF93E727012302FC008DEC69
:10501800631C0902639A090205E8ED9B2302FC0060
:10502800832B8C03639F0B06B2502254925402596F
:10503800F249624AD24A424BB24B224C45618280C5
:10504800F59B93E70701D1B793E747002302FC00DC
:1050580001CC1C484146A2852324FC0213058C017F
:1050680097F0FF1FE78060EA63910B02D5D803250C
:10507800CC0209C597000020E780608AF1452685A3
:10508800EFE00FAE2326AC0261BFE30B09F803255E
:10509800CC0209C597000020E7806088F1454A8561
:1050A800C5B79DC483A70B0299EB916593853571AC
:1050B800714597F0FF1FE780E07C23A0AB0203A5B2
:1050C8000B0219C57146A68597F0FF1FE780E0E33C
:1050D8006388090283A74B0299EB91659385257133
:1050E800594597F0FF1FE780E07923A2AB0203A59B
:1050F8004B0219C55946CE8597F0FF1FE780E0E0BF
:105108001DC483A78B0299EB916593851571514551
:1051180097F0FF1FE780007723A4AB0203A58B025B
:1051280019C55146A28597F0FF1FE78000DE22547B
:10513800B2509254F249B24B224CCA865A8602594E
:10514800424BD6855285D24A624A45616FF04FF587
:10515800011126CA52C406CE22CC4AC84EC62A8A93
:10516800AE84EF60205525C5AA893945EFD05FE6A2
:105178002A8431CD172900200349C99663140900F0
:1051880003C909009307000D2310F400AD4723015C
:10519800F4009385690013053400194697F0FF1F42
:1051A800E780A0D693F71400858085882306F4004D
:1051B800A306940023154401A2856244F240D24418
:1051C800B249224A4A85424905616FD0DFEAF24076
:1051D8006244D2444249B249224A05618280938797
:1051E8004192884301CD411106C697F0FF1FE78021
:1051F8000073B24023A20192410182808280011192
:1052080006CE22CC26CA4AC82EC6EF60A04A39CD9F
:10521800B245172900200349E98CAA840CD56314E8
:105228000900034905004145EFD09FDA2A841DCDC6
:105238009307000D2310F500A5472301F50083C748
:105248005400938564001105A30FF5FE194697F0E5
:10525800FF1FE78080CB9C54A285F2405CC4624467
:10526800D2444A85424905616FD0FFE0F24062446A
:10527800D244424905618280797122D406D62A84B3
:105288002EC6EF6020430DCD8346C5001147AA877F
:1052980049456393E6029C5FB24599C383C567019C
:1052A8000808EF70E06D97860000938666F6100890
:1052B80089452285EF607060B25022544561828032
:1052C8005145DDBF83C7319DFD1793F7F70F05479C
:1052D800637AF704894721CA411122C426C24AC009
:1052E80006C6B2842E89EF60E03C2A84D14705C502
:1052F800630809008347450093E727002302F50068
:105308004146A6851305840197F0FF1FE780E0BF9B
:105318009C481CD48147B2402244924402493E85AD
:1053280041018280C9473E858280797122D406D6A0
:105338002A842EC6EF60003801CDB2452285230E9F
:10534800B1006C08EF704057B2502254456182801A
:105358005145DDBF6F60E04AC1671387E7FF63947B
:10536800E502938701939C4391EB49458280494527
:10537800B2402244924402494101828003A30700BB
:10538800E30503FE0283411122C426C24AC006C6B1
:10539800FD172A892E84B2846395F50293870193B9
:1053A8009C4391CB9C4381CB829711E52382219525
:1053B800A382919475BFA6854A85EFE09FF94DF9C0
:1053C800F5B72E85EF60002F5DD1834705000D45A9
:1053D800E39027FB22852244B2400249A6859244E5
:1053E80041016F90C06C65476362A7044111416732
:1053F80022C406C626C27D172A8409456383E502AE
:10540800C547AE846315F4002E85EF90C0719317DD
:105418001400171400201304E469A297239097003E
:105428000145B2402244924441018280094582806C
:10543800011106CE2AC6EFE0FFF3EF108003EF005C
:10544800E075EF3031783245971700209387076A67
:10545800130700F02391E700238207007D57938705
:10546800019DA380E7002380A700F24095450561D0
:105478006F4010401D7193970501CAC886CEA2CC13
:10548800A6CACEC6D2C4D6C2DAC05EDE62DC66DA8E
:105498006AD8C1872E8963D0074C03C5019DEFD018
:1054A8001FB78964416A856A797B2A84938BD40003
:1054B8007D1AA50A691B15E021653345A900F64048
:1054C8006644D6444649B649264A964A064BF25B94
:1054D800625CD25C425D25618280834704001307C9
:1054E800200A639DE70003552400171C0020034C85
:1054F8001C602286D285EFF0AFAB3DAA13071009D6
:1055080003CC119D6397E716834714001547639EE4
:10551800E7002285EFF04FAE2285EFD0BFA803C584
:10552800019DEFD0DFAE2A8479B739476399E71632
:1055380003554400631B55050C4483C90500639D4E
:105548000900850591C91946171500201305855BC3
:1055580097F0FF1FE780609B171700200347075944
:1055680085476318F710638A090097170020238F6F
:1055780007564E85EFF00FDB45B789471717002010
:105588002306F756EF90605441BF93872400631AAF
:10559800F50683298400638E090C83C709008DE30F
:1055A80083C7290003C71900A207D98F171700203E
:1055B8002312F75483C7390017170020A308F7529E
:1055C800171700200347875289476314F70A83C7D0
:1055D800090081CB97170020238A075003C50900CB
:1055E80051BF8D479715002083C5555017150020CA
:1055F8000355455017170020230AF74EEF40502A4D
:10560800F1BF938754006318F5001C4403C50700D5
:10561800EFF06FF111B7B3076501C207C1831147F6
:10562800636FF700938741939C43E38707EE9C439E
:10563800E38407EE22858297E31005EE1DA8938781
:10564800B400631FF5009387C1929C43E38607EC7F
:105658009C43E38307ECA2851385B4008297E9BFD6
:105668009387C4006310F5021C4483C70700E385D1
:1056780007EA9307F00FE301FCEAA2856285EFD001
:105688009F9F71BD9387E400E315F5FE938701930F
:105698009C43E38307E8DC43A285E9F3B5BD3D47B6
:1056A8006397E70403554400E30275FF9387940169
:1056B800E30EF5FC93873401E31DF5FA97170020F4
:1056C80083D72743639E4701938701939C43E385D0
:1056D80007E4DC43E38207E4A28513853401BDBFF8
:1056E800938781939C43E38907E29C43E5B71307BB
:1056F800E003E390E7F88347240005476396E70E45
:1057080083476400138D4192F1E383270D00D5CBC5
:1057180003CC0700A14903457400930C8400E68577
:10572800EFE03FFA83474401A303A4008358040130
:105738000358E400035744002A86034534003EC258
:1057480083572401E686E2853EC0CE87EFF04FCE30
:105758008347340095E7DD47835804010358E40084
:1057680083467400835544003EC2835724016687EC
:1057780005463EC06285CE87EF606028A301A4007D
:1057880083270D0081C71145EFF07FA503C541941C
:10579800E30405D883C55194EFE0BFBBE30E05D6FB
:1057A8008346340093071003638AF60003564400C7
:1057B8004E8783C541943685EFE05FC42382019408
:1057C800A1BB171C0020034C9C32A9B793874193B7
:1057D8009C43171C0020034C9C3191498DDFDC430E
:1057E8009DDB0145829705BF29476390E70C8347F6
:1057F8006400938C4192C1E783A70C00A5CF03CC2A
:105808000700A14903457400930684009377250097
:10581800C9C713761500130D440183470402835842
:10582800C4010358A40103574400034534003EC291
:105838008357E401E2853EC0CE87EFF06FBF834710
:10584800340095E7DD478358C4010358A401834613
:105858007400835544003EC28357E4016A870546B5
:105868003EC06285CE87EF608019A301A40083A79C
:105878000C0009BF171C0020034C7C2759B79387DD
:1058880041939C43171C0020034C7C269149BDDBA7
:10589800DC43ADDB01458297B5B7B68536CEEFE080
:1058A8005FE2F2462A86368D8DBF0947639DE70081
:1058B8009387C1929C43E38107C6DC43E38E07C408
:1058C8002285829791B92D476399E7009387C19202
:1058D8009C43E38307C49C47D5B70D476397E7000C
:1058E80022868D450355440039B11947E393E7D81B
:1058F8009305610213051031EF3011372C10130591
:105908002031EF3071360356640083578102035506
:10591800440063E8C700835684000357610263F7B5
:10592800E60093050002EF90001FFDB66374E600E1
:105938002313E40063F4D7002314F4000357C400CE
:105948008356A400035684008355640001488147A8
:10595800EF90201CD1B693F7150081CF9387C192A1
:105968009C4389C7DC4399C30145829713451900B5
:10597800B9B693F7250081CF938741939C4389C794
:10598800DC4399C305458297134529000DBE93F75B
:1059980045000145E38507B2938781929C4391CFE7
:1059A8008547171700202305F714938741939C43D5
:1059B80089C7DC4399C305458297971700209387C9
:1059C800E712C8472C10EF8020312810EFF0CFB134
:1059D8009717002083D7271091CB130600643386CE
:1059E800C702914503C5019DEFD09FB313454900F8
:1059F800F9B4411122C42A84554506C6EFF04FD5A3
:105A0800B335A00022852244B24041016F90600D59
:105A1800797122D406D68D472E84631FF50003D7EB
:105A2800A50083D6850003D665000345340083D5D9
:105A38004500EFF0AF9709A889671387D70063106F
:105A4800E50403C5250019E58547B25022543E8573
:105A580045618280938741929443FDD603C6360000
:105A680083C50600814802C202C001488147014738
:105A78009106EFF0EF9B0545EFF06FF6F1B713874E
:105A8800E700E303E5FC13873701631AE50003C564
:105A980025005DD9014781460146814559BFE50783
:105AA800E304F5FA41677D178147E310E5FA03C778
:105AB8005500C947E31AF7F883D6E50003D6C500B1
:105AC8000355840083D5A500EF90600641C95D4564
