:040000006F108017E6
:1000040000000000000000006F0080086F00402026
:1000140000000000000000000000000000000000DC
:1000240000000000000000000000000000000000CC
:100034006F004006000000006F00E00500000000B3
:100044006F0080056F0060056F0040056F0020059C
:100054006F0000056F00E0046F00C00400000000A2
:100064006F0060046F0040046F0020046F00000400
:100074006F00C0216F00C003000000006F00600328
:100084006F0040036F0020036F0000036F00E00265
:1000940001A001A001A001A001A001A001A001A054
:1000A40001A001A001A001A001A001A001A001A044
:1000B40001A001A001A001A001A001A0B717004068
:1000C400930670052380D704130780FA2380E7047E
:1000D4000F10000003C6B7041376F60DA385C704FA
:1000E40023800704137605023DCA03C6A700118ABC
:1000F4001DE22380D7042380E7040F10000003C708
:10010400A700136747002385E7009307004B01000E
:100114000100FD17EDFFB71700409306700523801B
:10012400D704130780FA2380E7040F1000007D89A9
:100134002394A700010001000100010023800704AB
:100144002380D7042380E7040F10000037270040E2
:1001540093061005A303D7802380070482801376B7
:1001640005046DDE03C6A700418A1DE22380D7047F
:100174002380E7040F10000003C7A70013670701DB
:100184002385E7009307007D01000100FD17EDFFC3
:10019400B7170040930670052380D704130780FA2D
:1001A4002380E7040F1000007D8913650504239460
:1001B400A70001000100010001002380070423803F
:1001C400D7042380E7040F1000003727004093066C
:1001D400300549B74111814601468145114506C69E
:1001E4005122B7170040130770052380E704130753
:1001F40080FA2380E7040F10000003C76704136725
:1002040017002383E70423800704B240410182805E
:100214008146014681451145B122B7170040930636
:1002240070052380D704130780FA2380E7040F1096
:1002340000007D562396C7022380D7042380E70459
:100244000F10000003C76704136717002383E70434
:100254002380070401A0BD473305F50201007D1585
:1002640075FD8280411122C426C206C6AA840144B7
:1002740063179400B24022449244410182800504F1
:100284001305803E4204C13F4180DDB7B7170040EB
:10029400130700032388E702854723A4F18A730028
:1002A4002030411106C69929FDBF230304809547D8
:1002B4002303F4802302A480828083076480E3CE36
:1002C40007FE23030480828083076480E3CE07FE55
:1002D40003454480828083076480E3CE07FE2302C3
:1002E400A4808280411126C44AC24EC006C6137738
:1002F400F50BAD47AA892E8995446306F700194585
:100304006D37653F8D444E854D37FD59FD14639817
:100314003401B240A24412498249410182801355FA
:1003240009011375F50F453F2209CDB7011126CCFC
:1003340006CEB704080051371545853F7137693734
:100344002AC6A53F32459377150089EB136515003E
:100354001375F50FF240E24405618280FD14E9FC57
:100364000145CDBF397126DC4ADA4ED852D656D46F
:100374005AD25ED062CEB7E700E006DE66CC6ACA27
:10038400414783AB070422C6B8C37D5703AB0700BC
:1003940083AA470023A0E71823A2E718B717004051
:1003A400130770052380E704130780FA2380E7040A
:1003B40083C74704130C75FFB684E207137CFC0F54
:1003C40085462A8A2E89B28937240040E18701575D
:1003D40063FA86016308D500894613070002631394
:1003E400D5000157D98F93F7F70F371D004023022B
:1003F400FD0411472303E4801305F00F7D35894C78
:100404006D3D63EB8C11B70707003E9937870700F2
:100414007955637EE902B3079900636AF702A94735
:10042400631CFA0689E48144493D26850DA0CA85EA
:1004340009454D3D850903C5F9FFFD140509613DD5
:1004440081C49377F90FFDF7D53569FD7D55B7174D
:100454000040130770052380E704130780FA238004
:10046400E70403C74704418B2382E704B7E700E0AE
:1004740023A07705F25023A0671123A25711E25459
:1004840032445259C259325AA25A125B825B724C9C
:10049400E24C524D21618280A5476314FA068569B6
:1004A4009307F00FB3869700B374F900B69493C71B
:1004B400F7FFFD8C33F92701416A056C9387F9FF37
:1004C400B3F7270199E363FC340193D94900C14789
:1004D400E3E637FF89BF8567C169FD17E1B71305F7
:1004E400800D6388490113050002638489011305A3
:1004F4001008CA85C53B1D3D31D94E99B38434419A
:10050400D9B7CA852D45F93BCE94E38E99F0850978
:10051400653BA38FA9FED5BF9307FAFF93F7F70FA7
:1005240063ECFC0803475D04B70708001377070270
:1005340019E3B78707007955E37BF9F0330799008E
:10054400E3E7E7F089476310FA048980554AE38CAE
:1005540004ECCA8509457933910903A7C9FF91477A
:100564002320E48003076480E34E07FE23034481D1
:10057400FD17EDFBFD14110981C49377F90FE9FF11
:10058400753371F5E1B58547E307FAF4CA852D455E
:10059400913B1389F4FFE38804E83D3393773900F2
:1005A40091EB8326048003A7090093874900E39D08
:1005B400E6E6BE89CA84F1BFB5476316FA0013059F
:1005C400900BE5318DB5B1471305B00AE30BFAFE84
:1005D4009947631EFA02CA852D45293381440D4C7F
:1005E400214ADD31639684018327048023A0F90026
:1005F4008504E39844FF8327048013172901635576
:1006040007002392F90005B523A2F90029BD9D47EF
:100614006319FA0281451305B004E931BD4423A0EE
:10062400090023A209007D59453193F77400CE9740
:1006340003C70700FD14398D2380A700E39624FF28
:10064400DDB3A1476312FA04D5318144630D090077
:100654008D479304C0036308F90093040005630401
:100664009901930440041375C507E30E95DA1945FF
:100674002D39A131054515392685B1390945A139E9
:100684007531E31205DAD9B391476319FA001305FA
:10069400600621391D311305900925B7E3050AD8F1
:1006A400F15459B309CDB7170040130770052380DF
:1006B400E704130780FA2380E7042396A7028280C5
:1006C40019C1814799E982803387F5008346070081
:1006D4003307F50085072300D700E397C7FEE5B786
:1006E40019C1FD5781E98280910503A7C5FF110552
:1006F400232EE5FE7D16E319F6FEF5B7797122D4B3
:10070400173400001304C4291C4006D626D24AD04C
:100714004ECE91C782979737000023A307285C40E9
:1007240089CB03D5818CBD3F5C40829703D5A18CD6
:10073400953F1C40639907189737000083C75738C3
:10074400858B95C797370000A38C073617370000B1
:1007540003473737914763FCE700792B973700004D
:1007640083C73736F9178A07A2979C43829797372E
:10077400000083C7A739918B89C7973001E0E780D0
:10078400C0D31C4491C382979387418C98431736F6
:1007940000000346B61E3E89973400009384041E6D
:1007A4009737000083C7871D93961700BA9683D6A0
:1007B4000600638006109737000083C7271C63F286
:1007C400C70886073E97835507002310070003D503
:1007D400818C2EC62398018CF1359387C18D9C435F
:1007E400173500000345851913172500BA979C4354
:1007F400B2458297AA8903D5A18C6D35973700003D
:1008040083C7C717139717008327090003D5018DE2
:100814001345F5FFBA9703D7070033753501598D92
:100824002390A70083C70400850793F7F70F1737B2
:1008340000002305F714173700000347371463E655
:10084400E70097370000238B07121C40ADEF938716
:10085400418D98433E8425CB9737000083C7B72644
:1008640091CB9737000083C7D72589E7972001E00C
:10087400E780006A1C4082972A8431C59C48AA9765
:10088400173700002324F7109387818D9C4385CF6D
:1008940003D5818C013D228597F0FFDFE780A043DB
:1008A4002254B25092540259F24903D5A18C4561A5
:1008B400D5BB850793F7F70F973600002380F60C16
:1008C400E3E0C7EECDBDB250225492540259F2492E
:1008D400456182809167B7C600409387373023A66D
:1008E400F6200F1000009737000093872709884FE0
:1008F4009387C19C9C43316713073730F053B70784
:100904001000FD17918F99833A0523A6E6205D8D8B
:1009140082804111B7170040985F3AC6945F32470E
:10092400E39CE6FE324541018280411106C6D5377B
:100934009736000083C60602858AB1C69307303312
:100944003307F502B337F5023983CA07D98F17374E
:1009540000001307A702584B01456303F7023385D0
:10096400E740636BF70037653D0889C637856F0834
:1009740013050590198D3E9517370000232AF700BB
:10098400B24041018280E5473307F502B337F502EF
:100994002583DE0765BF0327C50F8346B500973758
:1009A40000009387A7119C4F5843938616029582A3
:1009B4009043FD1693F6F60F10C3D04350C39047EF
:1009C40010C7D04750C7904B10CBD04B50CB904F53
:1009D40010CFD04F50CF91C6130707029387070259
:1009E400C1BF82808347E50193F7E70FF1EF2A87C0
:1009F4000345F50171E9034607018346870009CAE7
:100A04008345A7029737000083C7D7F463E7F5004F
:100A140093F70601C5CF814709CA83478715034663
:100A24007715C18AA207D18F81CA8346B7150347B8
:100A3400C7152207558FBA97D1CB17370000130774
:100A440067133847411122C406C67D54832607081C
:100A540063F386003684184375FB17370000034799
:100A640067EF93168701E18663D906029387C7135C
:100A7400958317370000034787EEBA9763D00604BF
:100A84001D8C9387018E9C4382973335A400B2401A
:100A940022441345150041018280058B9387C712B8
:100AA40009CB8A079387F7031305D007B3D7A702A7
:100AB400C9B78607FD071305D003CDBFE372F4FC65
:100AC4003705C0A82A946DBF0145828082804111F8
:100AD40022C41384C19B18404AC006C61C5F26C2A8
:100AE4001389819B9983858BC1C31C5F9734000054
:100AF4009384C4FC93F7F7F91CDF9737000083C78E
:100B0400E7FB93F707048DC39387018E9C43829779
:100B14009737000023ACA7FA83C7040093F7F70BB9
:100B240017370000230CF7F8854717370000A3098F
:100B3400F7F883C7440093F7070481EF9387C19CB8
:100B44009C43D844B8D3930700FC1737000023090B
:100B5400F7F68387640063D90700832709009C4361
:100B640017370000230FF7F418401C5F8583858B2B
:100B7400C9CBF5571CDF0100010001000100010091
:100B84000100010001000100010001000100010059
:100B94000100010001000100010001000100010049
:100BA4000100010001000100010001000100010039
:100BB4000100010001000100010001000100010029
:100BC4000100010001000100010001000100010019
:100BD4000100010001000100010001000100010009
:100BE40001000100010001000100010001000100F9
:100BF4000100010001009387C19C9C43130750042A
:100C0400B8CB18401C5F9183858B89CFBD571CDFFF
:100C14009387C19C9C4323A807048547173700008A
:100C24002300F7EA83270900D8430583058B19C7F6
:100C3400D843759BD8C3D843799BD8C3B2402244C8
:100C44009244024941018280397106DE16DC1ADAC7
:100C54001ED82AD62ED432D236D03ACE3ECC42CA70
:100C640046C872C676C47AC27EC09535F250E25246
:100C74005253C2533255A255125682567247E24716
:100C84005248C248324EA24E124F824F2161730025
:100C940020309387C19C944317370000130707E261
:100CA400BC5289CF83472700858B89EB8347370064
:100CB400858BFDD797370000238407E0828037C7F0
:100CC40000401306C0039306200397350000938564
:100CD400E5DE83278720C18393F7F7036369F60072
:100CE40083278720C18393F7F70363E6F60083C75E
:100CF4004500858BF9DF82809387C19C9443173725
:100D040000001307A7DBBC5289CB83470700858B00
:100D140091CB97370000238507DA97370000A3812A
:100D240007DA828083471700858BF1DFDDB793876D
:100D3400C19C904337C70040C145E54683278720BF
:100D4400C18393F7F70363FBF50083278720C183EF
:100D540093F7F70363E4F6003C52EDF382801387C4
:100D6400C19B1843AA87185F1583058B25EF03459C
:100D7400150015051377C51F19C6B386E70083C68A
:100D840026002300D60095C59736000083C666D397
:100D940093F606040945A1CAB386E70083C6360064
:100DA400054693F5F6066390C504E206E18663CC36
:100DB40006023385E7008347150003470500A207B1
:100DC40093F70770D98F13970701418393760740F0
:100DD40099C6136707802392E19C01458280239280
:100DE400F19CE5BF054582809386C19C8C42368583
:100DF40097360000938686CC984593170701C183E4
:100E0400137817203E86630408041377072079C3F8
:100E140003C7260013671700173800002301E8CA28
:100E240013070019B8D1130700F897350000238978
:100E3400E5C81387C19B0C4337080010D855719B34
:100E440013672700D8D598413367070198C11377F2
:100E5400261005C31376061059CE03C70600136780
:100E6400170017360000230BE6C417370000231BB6
:100E740007C483C6460093C7F7FFC207E206E186AC
:100E8400C183184163D106029396170163DE0606F7
:100E940030538D4663E9C6008546173600002301AA
:100EA400D6C23453FDFE97360000938666A9838626
:100EB400460163DD060093960701C18663DC0604E0
:100EC4007053894663E4C6007453FDFE1447F58FDE
:100ED4001CC7828003C716001367170097350000EC
:100EE400A38EE5BC17370000230C07BC173700009E
:100EF400231A07BCA9BF03C73600136717001736A8
:100F04000000A30EE6BA95B78546173600002309FC
:100F1400D6BA51BF54471396060163510602B70669
:100F24001000FD1674D397360000938626A5944EC0
:100F3400850617360000232FD6A449BFA166D58F96
:100F440071B7397106DE16DC1ADA1ED82AD62ED409
:100F540032D236D03ACE3ECC42CA46C872C676C4E5
:100F64007AC27EC05135F250E2525253C2533255C6
:100F7400A255125682567247E2475248C248324E30
:100F8400A24E124F824F21617300203017370000A8
:100F9400130787B48346B7019737000083C717B791
:100FA400B69793F7F70FFD4663EAF6044C4B973672
:100FB4000000A383F6B29737000083C7F7B1054753
:100FC4003317F70097360000A382F6B46D8F1DEF38
:100FD4009736000083C6D6B3B3F6D70213050002D2
:100FE400814733D6F500058A13F8F70F09CE6399C4
:100FF400E60097370000A38107AF828081177DB791
:1010040005071377F70F8507E39DA7FC8280938775
:10101400819D9843B75702009387279F832607092A
:101024001396560063580600832607091396660034
:1010340063440600FD17FDF3828051C9AA87014568
:10104400C9C98D07C207C183F19BC207C1831307B6
:101054004003636BF702138741A708431387C1A6B4
:1010640014436396A602173700001307678D185BB5
:10107400014525C34111C20706C60545DD8D02970A
:10108400B240014541018280138701A7F9B7035794
:10109400650005EF035745006369F702B306F7409F
:1010A40021466370D6021041938687001D8FAA964D
:1010B400611790C22392E6002393060014C1231201
:1010C400F5002313B50021058280084159BF01456D
:1010D4008280828001CD938741A703A8070093876C
:1010E400C1A68C430147C28763E3B700828094435F
:1010F400636FF50663EDA60613868700E368C5FEF5
:1011040003D56700216605066317C50003C6C197AA
:101114000506238EC1962393070063840703138671
:1011240001A71042630FF6000356670019EA83D73C
:10113400470014C383564700B697A1072312F7004C
:10114400BA879843E304B7FA938601A79442E30F5E
:10115400D7F883566700D9FA83D647000356470069
:101164001843A106B2962392D70098C382803E8783
:04117400B6879DBFDE
:10117800974100209381814717710020130101E8EE
:1011880013054000972500209385456717360020F2
:101198001306067E63FAC5008322050023A05500C6
:1011A80011059105E3EAC5FE17050200130585B888
:1011B800973500209385C57B1386018863FAC5009F
:1011C8008322050023A0550011059105E3EAC5FE19
:1011D8001385018897650020938545246377B500BA
:1011E800232005001105E36DB5FE9302800873A066
:1011F8000230972200209382626093E2120073907B
:10120800523037170040930770052300F7049307FF
:1012180080FA2300F7040F1000003C47B70600FAD5
:10122800E116F58FB70600069506D58F3CC79712CD
:101238000000938242B073901234730020303D4313
:101248002A876373C3029377F700BDEFADE5937602
:1012580006FF3D8ABA960CC34CC30CC74CC741075E
:10126800E36BD7FE11E28280B306C3408A06970279
:10127800000096966780A6002307B700A306B7006C
:101288002306B700A305B7002305B700A304B700DA
:101298002304B700A303B7002303B700A302B700D2
:1012A8002302B700A301B7002301B700A300B700CA
:1012B8002300B700828093F5F50F93968500D58DAE
:1012C80093960501D58D61B7939627009702000084
:1012D80096968682E78086FA9680C1171D8F3E967D
:1012E800E374C3F8A5B7B717004003C777051377AA
:1012F800E70FA38BE704130700F8A38DE7043D4726
:10130800238CE70413075003A38CE7048280411160
:101318002A83014E930E407E130F0019930F400647
:1013280063ED6E0A9308001913034006B37815039A
:10133800854E0D4FA14F337365020D891335150086
:1013480063E7BE0C1308F6FF7946729842081358F3
:1013580008013307C70213D61700BE073297614644
:10136800B3F6C60213068070B386C6023697A16626
:10137800F58F42075D8FB717004083C6F70293F6D3
:101388000608A307D1000346F10083C6F70293F6C7
:101398000608E394C6FE8346F10093F6F60FF1DEE5
:1013A800930670052380D704930680FA2380D70418
:1013B8000F10000023AA070383C6170393E6060845
:1013C800A388D702D8DB03C7170313670704A388CA
:1013D800E70223800704410182807D133368E30319
:1013E8009308E016630E08003368F3039308D016D9
:1013F800630808009378330093B818009388D816C8
:1014080033081E01131E0801135E0E0111BF6393FA
:10141800E5030548638608000148630303002A883A
:1014280071087298FD15131E0801C205135E0E019E
:10143800C18139B713F8150063F4BF007908D5B72F
:1014480013381800E5BF914763EEB70217F701009C
:101458001307C7D68A05BA959C41BA978287B717EA
:10146800004003A7470B1345F5FF698F23AAE70A36
:1014780003A7070B698F23A8E70A03A7070A798D33
:1014880023A0A70A8280B717004083A6470B1347FB
:10149800F5FFF98E23AAD70A83A6070B558D23A833
:1014A800A70A83A6070A758F23A0E70A8280B717C1
:1014B800004003A7470B498F23AAE70A03A7070B96
:1014C8001345F5FF45BFB717004083A6470B1347E1
:1014D800F5FF758F23AAE70A03A7070A598D4DB7A9
:1014E800B717004003A7470B498FEDB7B717004060
:1014F80003D58700420541819377050491EB9377E3
:10150800F5013755E801130505803345F50282805A
:101518009377050C130700046397E7009377F501A9
:1015280037459C1CCDB72165130505D08280B7F7D8
:1015380000E0C8439C478280814737370040A14676
:1015480063C4C700328582800345B740E38EA6FE98
:101558003385F5000345050085072304A740CDB76B
:1015680097470020938787889C43176700201307B5
:10157800E7EA3E95636EE5001777002013070788B2
:101588006368A700174700202322A7863E8582802C
:10159800FD57EDBF411122C406C62A84813F294761
:1015A800B307E502B2408D83B3D78702224495077B
:1015B800B3D7E70237370040C207C1832316F74085
:1015C80041018280716541111305052006C6D9378E
:1015D800B7370040130770F82381E7400D47A38110
:1015E800E74013070004A380E74005472387E74047
:1015F800B24041018280CC41411106C6328503C602
:10160800150083C5050022064D8E42068D6541866C
:10161800138875A2630C060F6348C804138845A293
:101628006306060B634AC800938535A26309B606AC
:1016380023900600294679A0138855A26308060B53
:10164800938565A2E316B6FEC1451D4663ECE50623
:101658004546198E63F3C7003E862390C60097F56A
:1016680001009385E5B789A8138895A26300060F42
:10167800634E060B1388A5A2630A060F938505A57A
:10168800E318B6FA99451D4663EEE502198E63F331
:10169800C7003E862390C6009385C18031A89D452A
:1016A8001D4663E1E5022146198E63F3C7003E86B5
:1016B8002390C60093850188BA9597200020E7807B
:1016C800E07F0146B240328541018280AD451D462A
:1016D800E3EAE5FE3146198E63F3C7003E862390A0
:1016E800C60097F50100938565B3F9B7B1451D4666
:1016F800E3EAE5FC3546198E63F3C7003E8623907E
:10170800C60097F50100938565B27DB7C1451D46B2
:10171800E3EAE5FA4546198E63F3C7003E8623904F
:10172800C60097F501009385E5AC79B7C1451D461C
:10173800E3EAE5F84546198E63F3C7003E86239031
:10174800C60097F50100938565AFBDB7C1451D4635
:10175800E3EAE5F64546198E63F3C7003E86239013
:10176800C60097F50100938525AAB9B7B5451D466A
:10177800E3EAE5F43946198E63F3C7003E86239001
:10178800C60097F501009385A5A43DB797360020BC
:10179800938606314146CD45173500201305451D72
:1017A8006F80B0552D453DEF03C505000947631708
:1017B800E5063285D041411106C6034716000346A7
:1017C800060041682207518F130628FE6308C702E6
:1017D8006369E6000518630307032390060029459B
:1017E8001DA8130648FE630BC7001518E31707FF6B
:1017F80015473E866377F700154621A03E8691C3BC
:101808000546CC452390C600420641829720002019
:10181800E780C06A0145B2404101828023900600FA
:1018280005458280828083C7850093F70702E1E33C
:10183800411106C622C426C24AC003C9050009438D
:101848002E888547631B690203A345003284B6844A
:101858008347130003430300A207B3E7670041630C
:10186800130E13FE6382C7030D13638B67040D68A1
:101878001308289063850707A947B2402244924479
:1018880002493E8541018280AD4765FB0547B54762
:10189800E365D7FE0325C8000546A28597200020EA
:1018A800E780C06101499387018A9843814771D7CE
:1018B800184361D72686A2854A850297814775BF56
:1018C800AD4745FF0547B547E369D7FA0325C80083
:1018D8000546A28597200020E780405EE9B72244AC
:1018E800B24092440249854741016F700005A14703
:1018F8003E85828041677917630CE502411122C455
:1019080006C685472A84639AF50022852244B24098
:101918009385C1A841016F80104A89476396F500F5
:101928008545EFA0307775D1B240224441018280CD
:101938008280411122C42A8441659385C1A87D15FE
:1019480006C6EF805047170500001305E5FA05881D
:10195800EFA0D06B05C02244B24097360020938692
:10196800E6254146C54517350020130525144101D4
:101978006F80B038B240224401454101828009C5D8
:1019880023A0A18A01458280454582801147636E64
:10199800A70697F601009386A68B0A053695184187
:1019A800411106C63697AE87B2850287054761455D
:1019B800639AE70005461385818897200020E78011
:1019C800E04F0145B2404101828005476145E39BF4
:1019D800E7FE05461385C188CDB705476145E39302
:1019E800E7FE054613850189C9BF05476145E39BA5
:1019F800E7FC054613854189C9B715476145E39357
:101A0800E7FC1546138581894DBF09458280411140
:101A180022C42E849385C1A826C206C6AA84EF6074
:101A2800906C058915C1973700209387270883D7BD
:101A3800A70BA285B2402310F400224426859244C5
:101A4800014641016F701046B24022449244494514
:101A580041018280411193962500AA852D4506C62D
:101A680097200020E780C00FB240014541018280E5
:101A7800411126C29394250022C44AC02A8432897F
:101A8800A686AA850146254506C697200020E78038
:101A9800200DA6864A86A285294597200020E78042
:101AA800200CB240224492440249014541018280FF
:101AB800011122CC06CE3714004026CA4AC84EC6A9
:101AC80052C483447405034AB40583498405034911
:101AD8009405EFF05F818347A40593F4F40F137A1C
:101AE800FA0F93E71700230DF40493F9F90F13790C
:101AF800F90FB717004003C7A705058B6DFF03D57E
:101B0800C705A38D4705238C3705A38C2705A38B11
:101B18009704F2406244D2444249B249224A0561DC
:101B2800828041119397050122C406C6C1872E847D
:101B380063DD0700EF10005819C1EF10005121654F
:101B4800218DB24022444101828093F7150013C5CC
:101B58001500E5FB9397250163DF0700EF40516807
:101B680037F60200130606E0896503C5418AEF10BF
:101B780090250965F1B7939715010145E3D307FC53
:101B880017E5010013058572EFD0C14B13060064F9
:101B9800916503C5418AEF101023116555B71D7172
:101BA800494697E501009385E56B17F50100130594
:101BB800E5D386CEEF10F00801E917E5010013051B
:101BC800A56BEFD0214801A037F700E0F9575CC7B3
:101BD800FD571CCB8566B7E700E023A0D710130696
:101BE800701010C3B8434146B0C323A0D718B8C378
:101BF8000F1000001306C00381454808EF10407E0F
:101C080097370020938707483ECA8967231CF1004D
:101C1800ED47A301F1029307A0102312F102D14767
:101C28002303F102A167938707E03ECE97070000E0
:101C3800938787E2BEC4970700009387A7E3BEC6D1
:101C4800BD472308F102B7F50700970700009387FF
:101C5800478E3EDA8146970700009387A7E5700014
:101C6800E10519453EDE97200020E78060EF58081F
:101C78008147994670003E9603460600850705078A
:101C8800A30AC700E398D7FED24791C7035781013B
:101C980085676373F70001A04808EF10F04FAA8525
:101CA80001C917E501001305655EEFD0012801A001
:101CB800F640256182804111170500001305A5E64D
:101CC80006C622C4EF10D0491384418A2300A40019
:101CD8002928034504002244B24037F602001306BF
:101CE80006E0896541016F10100E411106C6B7174D
:101CF8000040130770052380E704130780FA238048
:101D0800E7040F10000003C7F7021305407E814661
:101D180013677700A387E7022380070401478147F9
:101D280005468545EFF0AFDEB240014541016F1031
:101D3800D07341111305800406C697200020E78060
:101D4800A0B7371700408327870A8D451305002061
:101D580093E707202324F70AEFF0EFEEEFF09F86D2
:101D680017F50100130585B8EFD0C12D0D3DA1373A
:101D7800EFA0011DEFA0C123EF100010EF005021CC
:101D880097200020E780A0D182802A86B305B04042
:101D980017F50100130545846FD02119011122CCD4
:101DA80036C606CE2E84EF10E046B24637460F0000
:101DB800130606243376C50291CAB28517F50100C9
:101DC8001305858032C6EFD041163246228562441B
:101DD800F240814505616F803141011122CC26CA4C
:101DE80006CE4AC8175700200347C729AE841754A0
:101DF80000201304242981476301A70217570020F4
:101E08000347A7298547630AA700175700200347F8
:101E1800272A89476303A7008D4713F7840029C33E
:101E280001572312E1005947B387E70283C6D18AD5
:101E380009464C003E9403552400854723190400A5
:101E48002318040023170400A305F400EF5090267C
:101E580013C58400F2406244D2444249056182803D
:101E680013F7040245C75947B387E7023E948347EF
:101E7800C400BDE303C741828357240103552400EE
:101E880025C70549014781460546C945231601006E
:101E98002312F10023132101EF50700B2AC40DCD3A
:101EA8009307A0052300F5000355240003C6D18A33
:101EB8004C00EF50300205E50345040083C741821A
:101EC80093B7170023062401130600649305000244
:101ED8002382F182EF10206F13C50402A5BFC94504
:101EE8004800EF50D04DCDBF03C6D18A4C00231215
:101EF800F100EF50607D6DF185472306F40083C73C
:101F0800418293B717002382F182F9B713F70410BF
:101F18003DC35947B387E7023E948347C400A1E70E
:101F2800835744010355240001472312F1008146D9
:101F380089470946C945231601002313F100EF50CC
:101F480010012AC40DC1054923002501A24703C673
:101F5800D18A4C00A380070003552400EF508077F6
:101F680011E52306240113C50410EDB5C945480041
:101F7800EF50F044CDBF13F7040115C35947B38799
:101F8800E70281461307802513064006D1453E9493
:101F980003552400EF70111613C5040165BD13F72E
:101FA80004040145E30807EA5947B387E7023E946A
:101FB80003552400EF905176034504000566130687
:101FC800069693050004EF10006013C5040459B584
:101FD80081E9AA8517E50100130505516FC0F17461
:101FE8000547639EE500AA8517E5010013054552DC
:101FF80009C617E501001305E5536FC011730947BA
:102008006399E5000DE6AA8517E5010013058554D7
:10201800EDB70D47639DE500AA8517E50100130597
:10202800A55561DE17E501001305855745BF828078
:1020380039711397050126DA06DE22DC4AD84ED616
:1020480052D456D24187AE84635F0724EF108006CE
:102058002A84630B0536034705009307000B6312B8
:10206800F73683572500175700200357C70117591C
:102078000020130929016301F72A17570020035785
:10208800E701630EF7341757002003578702631AD6
:10209800F732894A894959A45C4417E501001305B8
:1020A800E52783C5070009A64D476393E702930513
:1020B800A00517E501001305A528FDA4C946631668
:1020C800D7028345C40017E5010013052526E9ACAE
:1020D8006D47639CE7005C4417E50100130545273D
:1020E80083C50700EFC07164C1AC5947B389E902E1
:1020F800CA9903C7B9006301072C639F0A2A1757B7
:1021080000200347D7F885466312D70A1D47639016
:10211800E7048357840085CF5C4417E50100130565
:10212800652483C5170003C70700A205D98D175773
:1021380000202310B7F603C6370083C727002206FE
:102148005D8E975700202397C7F4EFC0115E834731
:1021580044001D47639AE70403471400E947639D59
:10216800E7249757002083D7C7F2638707242314EF
:10217800F10083570901094797560020A389E6F023
:102188002315F100F977938727102316F100FD57DF
:1021980003C6D18A2C00175500200355C5EE230726
:1021A800F100EF50A05209AC054755BF8946631BA3
:1021B800D70825476398E70483578400A1C7584484
:1021C80093050002130600648347170003470700BE
:1021D80017550020034505EBA207D98F1757002094
:1021E800231BF7EA97570020238407EAEF10A03D46
:1021F8009755002083D525EA17E5010013054519F1
:10220800EFC0B152834744002547639BE702034769
:102218001400E9476392E71A8D4717570020A3086F
:10222800F7E68357E9002314F100835709012315C2
:10223800F100930720202316F1009307900289BF2D
:102248000547C9BF8D466319D71625476398E70424
:1022580083578400A1C758449305001013060064EF
:10226800834717000347070017550020034585E1FA
:10227800A207D98F175700202310F7E2975700209D
:10228800238807E0EF1020349755002083D5C5E058
:1022980017E5010013054512EFC031499757002093
:1022A800A38707DE11AA13F7150011CF17360020F0
:1022B800130606999385C18103C5D18AEF70C15A67
:1022C80013C5140021A213F7050801CB41657D153C
:1022D800EF90D14413C50408D5A817570020034729
:1022E80067DAAA876316A700A6853E85FD34F9A894
:1022F80017570020034767DAE308A7FE175700209F
:10230800034707DBE302A7FE175700200347A7DBB5
:102318000145631DF70AC9BF814A8149D947B38777
:10232800F902094783454400130A8400CA9783C702
:1023380047006395E7080D476381E5020547639405
:10234800E50203478400631EF7028345C40017E5CE
:102358000100130565F9EFC0513DD947B387F9026C
:10236800CA9723860700034744009307F007631AB8
:10237800F7008355840017E50100130565F8EFC0E1
:10238800D13A834744002D47E388E7D00547E39DCA
:10239800E7D003478400A946E312D7D28345C40097
:1023A80017E50100130585F6EFC03138D947B38921
:1023B800F9024E9923060900834544005285EF50DF
:1023C80010002285EF0070482165258DF250625477
:1023D800D2544259B259225A925A21618280854A6E
:1023E80085492DBF8347250035476362F73A17E7CC
:1023F80001001307E7EB8A07BA979C43011122CC27
:1024080006CE26CA4AC84EC652C456C2BA972A84AD
:10241800828703C7C18AA54763E2E73603494500B7
:10242800930955008144175400201304E4C903C5D7
:10243800C18A63E5A4060E050905CE8522951946CD
:1024480097200020E78080A783C5C18A939735002D
:10245800850593F5F50FA2971386F5FFA38027014D
:102468000E0622962386B18A624483487600034882
:102478006600834756000347460083463600F2400D
:10248800D2444249B249224A924A0346260017E5F5
:1024980001001305E5F605616FC0312993953400F5
:1024A80089051946A2954E85EF00B0796318052C69
:1024B800850493F4F40FA5BF0144175900201309AC
:1024C800A9C09729002093896976172A0020130A42
:1024D8004A76972A0020938A2A7683C7C18A637925
:1024E800F402931434008904CA941946A6854E85CB
:1024F800EF00307511ED1946A6855285EF0070740E
:1025080001E91946A6855685EF00B07363040526D0
:1025180083C7C18A639D870217E501001305C5F0CB
:10252800EFC05132014685450D452386018AEF707B
:10253800E13C17E501001305A5EB6244F240D244E3
:102548004249B249224A924A05616FC0B12F17E544
:1025580001001305A5EEEFC0F12E975700209387D1
:10256800A7B60E04930624003E9403461400BE96B4
:1025780081450145EF70A1340566130606C8930529
:10258800000803C5D18AEF10000417E50100130500
:10259800E5EB65B79305000803C5D18AEF1040192C
:1025A80083441400639A0410C16717570020035727
:1025B80087ADF9178355A4006307F7021757002062
:1025C8000357C7AD6300F70217570020035767AEDC
:1025D8006302F70E2E85EF90711417E501001305BD
:1025E800E5E7A1BF8544D9473387F4029757002010
:1025F800938747A917E50100130585E7BA970947A7
:102608002382E7000356E4002391B700EFC0F111DD
:10261800B9E0854713060064A14517550020034516
:1026280065A6175700202305F7A60564EF00B079C3
:10263800130604C8C145175500200345A5A4EF009B
:102648009078130604969305000417550020034557
:1026580065A3EF00507717E501001305A5E2EFC069
:10266800711EC167175700200357E7A1F917630EBA
:10267800F70017570020035767A26308F70017579A
:102688000020035707A3631BF70E17E50100130586
:1026980025D6EFC0311B2386018A6244F240D2441A
:1026A8004249B249224A924A014685450D4505618B
:1026B8006F70C124894405BFA68517E5010013057D
:1026C80065DDEFC09106D1B7835745001757002045
:1026D8000357679B81446301F7021757002003578C
:1026E800E79B8544630AF700175700200357679C48
:1026F8008D446313F7008944D947B387F40297548C
:102708000020938424980346640017E5010013050C
:1027180025DABE9483D52400EFC0310103C5040037
:10272800F9572391F40023820400A3850400239918
:10273800040023860400930500042386018AEF0021
:10274800307F17E501001305A5CAEFC0B10FB1B777
:1027580062440356650083554500F240D24442491D
:10276800B249224A924A17E50100130565D6056168
:102778006FC0A17B05041374F40F85B3F240624463
:10278800D2444249B249224A924A056182808280F3
:102798007971170500001305E58906D622D426D2DB
:1027A8004AD04ECEEF10C01B8565A386A18A9385BB
:1027B80005960945EF20104DD1451D45EF20904C59
:1027C800930540062145EF20F04B9305400635451B
:1027D800EF20504B85470D47700091451305F04099
:1027E8002304F100A304F1002305E100A305F1008F
:1027F80002C6EF80E1463000854513058040EF8032
:10280800214613069100854513059040EF80414508
:102818001306A10085451305A040EF806144130607
:10282800B10085451305D040EF808143175400203F
:1028380013044485975400209384E48897F9FFFF94
:102848009389497F79594E85EF1080112300A400A0
:102858002311240123020400A30504002306040015
:1028680023190400231A0400231704002318040062
:102878005904E31A94FCEF50306603C5D18AEF502F
:10288800B011854503C5D18AEF009041B25022545A
:1028980092540259F249456182802A86B305B040B4
:1028A80017E50100130505DB6FC02168411106C655
:1028B80022C426C29757002083D727866380A702A1
:1028C8009757002083D707866385A7069757002068
:1028D80083D7E7856391A706894411A08144A94756
:1028E800B387F40297540020938404832E84AA8526
:1028F80017E50100130585D4BE9423928400239321
:10290800C4002394D40022863114EFC0016242042B
:1029180041809307000563F08702224403C5040041
:10292800B2409244096613060690A14541016F0022
:10293800904985446DB7B240224492444101828057
:1029480083574500011122CC06CE174700200357B4
:10295800C77C01446301F702174700200357877CAF
:102968000544630AF700174700200357477C0D44C6
:102978006313F7000944A947B307F402174400207A
:102988001304847989453E9403450400F9572311BB
:10299800F400231204002313040023140400EF009E
:1029A8003059034504009145EF00905817E50100A0
:1029B800130585C5EFC0016985471306F1008545F4
:1029C80013055030A307F100EF90A12CF2406244A8
:1029D800056182807D15954763E0A72217E701000E
:1029E800130707C10A053A951C41797122D406D606
:1029F80026D24AD04ECE52CC56CABA972E84828757
:102A080017E50100130585C6EFC0C16305A883C794
:102A1800250019476391E7022E851D378345640019
:102A280017E50100130585C5EFC0215017E5010022
:102A3800130585C6D1BF0D47E38AE7FEB25022547D
:102A480092540259F249624AD24A4561828003C7C8
:102A580025009547E314F7FEC16717470020035781
:102A6800C76BF917630DF702174700200357876BE9
:102A7800630DF70E174700200357676B6309F70EBE
:102A880003D5A500EF90814917E501001305059DC1
:102A9800EFC0415B17E501001305C5C4B5B7814414
:102AA800A68517E50100130525C0EFC00148A94711
:102AB800B387F402974400209384046613060064E5
:102AC8008945416917EA0100130A0ABF97EA01001C
:102AD800938A0AC079198D49BE948357A40003C507
:102AE80004002391F4008357E4002392F4008357F1
:102AF80004012393F400835724012394F400DD4751
:102B0800A38BF182EF00302C03C50400096613067D
:102B18000690A145EF00302B03C504000566130697
:102B280006C89145EF00302A0356E4008355A400F7
:102B380017E501001305C593974400209384C45DED
:102B4800EFC0A13E0144A2855285EFC0013E83D566
:102B580024005685EFC0613D83D72400638D270785
:102B68000504A904E31134FF35B7854415BF89442A
:102B780005BF03C725008D4717E50100130545B7B5
:102B8800E31EF7EA51B583C5250091476397F50021
:102B980017E50100130545B785BD9947639DF50005
:102BA8002285793B8345640017E50100130505ADCF
:102BB800EFC0A13761B59547639AF50083471400C4
:102BC800E1FB17E501001305E5B53DBD17E501007B
:102BD8001305C5B5F1BF17E501001305E5A2EFC060
:102BE800614685471306F100854513055030A30754
:102BF800F100EF90010A79BD8280011106CE22CC46
:102C080001C989476304F502F24062440561828084
:102C18006800328497100020E780402AA28517E5D3
:102C28000100130565B1EFC04130F9BF6800971086
:102C38000020E780A02817E50100130565B2EFC062
:102C48006140D9B70111930780F82302F10006CE3D
:102C580022CC03C771838D4763ECE70017E50100B9
:102C68001305C59CEFC0013EF240624405618280B5
:102C78008547014781460546ED452A842315F1001D
:102C8800EF40F02C0356A1004C002AC697100020F4
:102C9800E780C0222C002285EFE07FD771D5ED4573
:102CA8002800EF40D071C9B741119397050122C49C
:102CB80006C626C2C1872E8463D7070403C5C1820E
:102CC800D52EAA840DC9034705009307000B63128C
:102CD800F702034745009307F007631CF700835585
:102CE800850017E5010013052593A38BB182EFC07A
:102CF800C1232685992E2167218FB2402244924410
:102D08003A854101828093F7150091CF172600205C
:102D18001306C6F39385818B03C5C182EF80514B9F
:102D280013471400D9BF9747002083C7E73E639B2A
:102D3800A70613F7250011CF130600648945EF0095
:102D48009008174500200355453DED3D13472400E5
:102D58006DB713F7850005C31307400681461306B0
:102D68004006D145174500200355253BEF80B13F6C
:102D78001347840059B793F745000147BDDF17454E
:102D8800002003558539EF9021190566130606C8FA
:102D980091451745002003452538EF00D002134719
:102DA8004400A1BF9747002083C7A7376391A706B0
:102DB80013F7250019CB130600648945EF00B0000E
:102DC800174500200355053649B713F7850001CF8D
:102DD80013074006814613064006D14517450020D3
:102DE8000355453461B793F745000147E38707F07A
:102DF8001745002003550533EF90011205661306A9
:102E080006C89145174500200345A53179B797476E
:102E1800002083C7A7310147E391A7EE93F6250069
:102E280099CA130600648945EF00E0791745002028
:102E38000355E52F19BF93F6850081CE1307400689
:102E4800814613064006D145174500200355252E17
:102E580031BF93F74500E38207EA17450020035581
:102E6800052DEF90610B0566130606C891451745B9
:102E780000200345A52B15B7397117050000130568
:102E8800E5E206DE22DC26DA4AD84ED6EF00502DDF
:102E98002386A182D1470544231AF100100893071D
:102EA8004006854513055030231CF1002308810096
:102EB800EF80315E17260020130686DBF1451305E7
:102EC8007030EF80115D138601839D4513056030D6
:102ED800EF80315C5008894513051031EF80715B34
:102EE8003008894513052031EF80B15A9305000554
:102EF8000D45EF202059930500051145EF20805816
:102F08003008914513057040230481002306810091
:102F18002308810002CC230A0100EF7071543000AD
:102F2800854513050040EF70B153700085451305C2
:102F38001040EF70F1525008854513052040EF709E
:102F480031521008854513055040EF7071517D5579
:102F5800EF40C0347D55EF70E062EFE03F837D5570
:102F6800EFE03F9D17260020130606CFD545014503
:102F7800EF40E02489472306F1008D472308F1003C
:102F88009147230AF10093878187984383C74700B5
:102F98003000854501453ACC230EF1002304810019
:102FA800EFE0DF9E700085450545EFE03F9E100885
:102FB80085450945EFE09F9D500885450D45EFE0A3
:102FC800FF9C300895451145EFE05F9C17440020B1
:102FD80013048414974400209384E415970900008F
:102FE8009389C9CC79594E85EF0090172300A40026
:102FF80023112401231204002313040023140400C2
:103008002904E31294FE13858182EFE05F9713850C
:10301800018BEF606169854503C5C1825121F2507A
:103028006254D2544259B2592161828023AC05FEC0
:103038001C4191E7010001000CC18280BA8703A7F7
:1030480087FF6DFF23ACB7FE82801DC18346E5FF75
:103058001307F00F9147639EE600411106C69720BB
:103068000020E780E086B24081473E8541018280AA
:1030780095473E85828001E9014582800145B2403D
:10308800224441018280411122C42A84210542053B
:103098009305D004418106C697100020E780A079E7
:1030A80071DDFD5723200500231285002303F50059
:1030B8002105F1B71387018C1C43411122C426C294
:1030C8004AC006C601440149BA8489E7A1658D252D
:1030D8000DC401A803C7E7FF6318A7021DC8A165AF
:1030E800C1269840832784FF6317E40223A0F18C4C
:1030F800FD57232C04FE230FF4FE2285B240224400
:10310800924402494101828011E03E8983A787FFEA
:103118006DBF3E84E5BF232CF9FED9BFA9C9411173
:1031280022C406C62A849747002083C7B7042E8581
:103138006368F400193F0D45B24022444101828082
:1031480083A785FF99E703C7E5FF9307F00F63059A
:10315800F700E53D1545CDB7238F85FE1385018C16
:10316800F13522852244B240A165410115AE1545CD
:10317800828023A0018C82809387818D9C4399E370
:103188003E85828003D727006316B70003C7070070
:10319800E308A7FEDC47E5B74111939705014AC04C
:1031A80006C622C426C2C1872E8963DE07001937E6
:1031B80011C1613D21653345A900B24022449244C2
:1031C800024941018280AA860145E5D901443D476B
:1031D800B3578940858B95CB9387C18C8443BD4772
:1031E80091E28147A2978E070545BE943315850065
:1031F800131405019C40C8404180829723A0040015
:1032080023A20400334524014DBF0504E312E4FC66
:103218000144CDBF97470020938707F29C53411183
:1032280022C406C61384818395C7829723ACA182E2
:103238000840B74703009387D73F3305F502B7A780
:103248002600938737ECB24022443E9523ACA182F6
:1032580041018280974700209387C7F118409C4B13
:10326800BA9723ACF182E9B79387418C904397468C
:10327800002083C636F0814713F7F70F6360D70A3B
:103288001747002003477703914763E0E70A97470A
:10329800002083C72707918BC9EB0111680006CE70
:1032A80022CC26CAEFD0A060FD56630FD50C32475A
:1032B8009747002083C777E963F3E70C1747002097
:1032C800130747EB404717470020034727E86305E4
:1032D800D406058B21CF51473304E40263F1870AF2
:1032E80097100020E780A0E2B2476373F400A2873A
:1032F80017470020034777E5998F3E9597470020A9
:10330800938787E38387470163CD0702B707C0A880
:103318006369F502B70740573E9525A085071397BF
:10332800170032970357E7FF21DB828013079002CB
:103338003304E40205805DB76207618763570700BD
:103348001D8D19E93705C0A801A8E37BF5FE3707ED
:10335800C0A8B307F7403E95974700209387C7DD7D
:10336800DC53829709ED974700209387A7F49C4F79
:1033780099C7EF302111EF30817AEF300105F24023
:103388006244D2440561828097470020938787DE94
:10339800DC47E386A7FE174700201307E7D98346D3
:1033A8004701BA84858A9DC651443384870297476A
:1033B800002083C797D9E3F487FC97100020E780A3
:1033C80000D59747002083C757D81D8C229583873F
:1033D80044011DBF13049002338487020580C1BFD6
:1033E8002A9609E582800505A30FB5FEE31DC5FEF3
:1033F800D5BF81473307F5000307070019E33E856A
:1034080082808507C5BF01112E8626CAAA84131596
:1034180006019305F004418122CC06CE32C69710EE
:103428000020E78040412A8419C53246A6859710B6
:103438000020E780A0A82285F2406244D2440561BA
:10344800828081476314F600054582803307F500C2
:103458008507B386F5000347070083C6F6FFE383B5
:10346800E6FE014582809307F6FFBE952A96631310
:10347800C5008280FD1583C715000505A30FF5FE5D
:10348800FDB7814711E9014582803307F5000347FD
:103498000700E31AB7FE8507E319F6FE05458280A3
:1034A8009747002083C717CD637FF5001387418CAA
:1034B8009317150008433E9583570500DD8D2310AB
:1034C800B500014582800D458280FD5701111747DF
:1034D80000202327F7CA9387818D22CC80434EC6CC
:1034E80097490020938949C526CA4AC852C456C27A
:1034F80006CE5AC02A8981444E8A974A0020938A68
:103508006AC7184481476374E900B307274103A7D2
:1035180049021CC409CB03A7CA0063F6E700174792
:103528000020232FF7C4A1E7835524009DE95C44BC
:10353800A1E823ACF18C032BC4002285971000204E
:10354800E78000395A8455FC83274A0285CF6244B4
:10355800F240D2444249B249224A924A024B05619A
:1035680021B3034504002D3F5C4081CB1CC4835725
:103578002400D5DFA2844044F9B71C44CDDBC5BF85
:10358800DCC455BFF2406244D2444249B249224A9F
:10359800924A024B056182809747002083C797BDF6
:1035A8006371F5021387418C93171500084393C57F
:1035B800F5FF3E9583570500FD8D2310B5000145A5
:1035C80082800D4582809747002083C7B7BA63641D
:1035D800F50001458280411122C426C24AC006C6B0
:1035E8002A842E89B284493E01C504C505452DA00B
:1035F800936504F0C205C181414597100020E7801A
:1036080080230DE197470020938707B39C5B81C710
:10361800A285114582970145B2402244924402494D
:10362800410182809387818D9C438DE323ACA18CDB
:1036380085472326050004C523112501230085009D
:10364800A300F5002322050055B7BA87D84775FFB0
:10365800C8C7F9BF45C539715AD0138BC18C22DC54
:1036680026DA4AD84ED652D45ECE66CA6AC86EC624
:1036780006DE56D262CC3689328AAE89AA840144E3
:103688005A8DB94D854BF94C03270B00131C340098
:10369800937AF40F62971C43A9EF13B5FA00134508
:1036A8001500B3978B0063F65D01930714FFB3977A
:1036B800FB0093950701C181528631371DC98327C5
:1036C8000D000145E29784C323A237016304090072
:1036D80023005901F2506254D2544259B259225A25
:1036E800925A025BF24B624CD24C424DB24D216170
:1036F80082800504E31A94F92145E9BF09458280CF
:10370800411122C426C24AC006C6AA842E89328420
:103718005D3DCA852685EFF03FA609C940C1014530
:10372800B240224492440249410182802145CDBFE2
:10373800411122C426C24AC006C6AA842E89EFF0C7
:10374800BFA32A8419C1231105009747002083C706
:1037580067A2639497002398218DCA8526852D3DFD
:10376800014511E01945B240224492440249410101
:1037780082807547636BA7041387C18C144341117A
:1037880026C293143500A696944222C406C6AA8778
:103798003A84094595C613B5F7003947134515000E
:1037A8006373F700C5178545B395F500C205C18158
:1037B80041371C400145A69723A0070023A2070014
:1037C800B2402244924441018280094582804111DD
:1037D80006C6EFF07F9A09C50845B24041018280CC
:1037E8000145E5BFF54763EDA7049387C18C9C436A
:1037F80013173500BA979843894721C7011126CA7C
:1038080006CE9334F50022CCB94793C4140063F371
:10381800A700451505443314A400420441802EC670
:103828002685A2856D378947324609C5A285268532
:10383800593B8147F2406244D2443E85056182800B
:1038480089473E858280411106C623AAA18C02952C
:10385800B2409747002023A9A792014541018280E1
:10386800994763E9B7008A05974700209387C7926D
:10387800BE9588C18280411106C6EF80817B714662
:1038880081451745002013052591EFF07FB51306F4
:1038980040028145174500201305C58DEFF05FB440
:1038A80023AC018C23AA018C9747002083C7878A01
:1038B80013D527008D8B3E958D473305F50293056B
:1038C800101035051375F50F974700202385A78A33
:1038D80099473305F5021305050F97100020E78077
:1038E80080F523A6A18C35C99947174600200346C1
:1038F80086883306F60281451306060FEFF05FAEA1
:103908009387C18C9C439387070F23AEF18C17478D
:103918000020034747860A07BA9723A2F18CEFF0E5
:103928005F855D269387C18D98439747002083C79D
:10393800778493962700BA96170600001306068622
:1039480090C293862700850793F7F70F8A07974554
:103958000020A381D582BA9790C3B24041018280EA
:103968009747002083C71781174700200347A78080
:1039780063F1E7021387C18D184393861700173642
:103988000020A309D67E93962700369708C33E8564
:1039980082809307F00FE5BF1C416381071A4177C6
:1039A8007D8FB70600208947631BD718035745004A
:1039B80063070718411122C419462A849305F00F9A
:1039C800590506C6EFF0FFAB05478D476303E516BB
:1039D8001C4481CB58589947630D0714185C630A37
:1039E80007141306C0038145173500201305C57455
:1039F800EFF01F9F1306C003A2851735002013059B
:103A0800A57397000020E780604B9737002083D785
:103A18006773973600209386267299E793070010FC
:103A2800173700202310F7729737002083C7A77134
:103A380091E78547173700202307F770973700204D
:103A480083C7777091E7ED4717370020A30DF76E0E
:103A58009737002083C7476F91E7954717370020AE
:103A68002304F76E9737002083C7176E91E78547C1
:103A780017370020A30AF76C9737002083C7176D04
:103A880099E783C7060117370020A301F76C97371A
:103A9800002083C7876B91E7D1471737002023069B
:103AA800F76A9737002083C7076B95E71737002019
:103AB8000347C7691316870161869307C0026348E5
:103AC80006009377170093B717009387D702173725
:103AD80000202302F7689737002083C7176795E708
:103AE80017370020034787661316870161869307F7
:103AF800C002634806009377170093B717009387AF
:103B0800D70217370020A302F7648347D40191E74F
:103B1800894717370020A30FF7629C5691C78297F1
:103B280097370020239BA764B933FD57A38CF1A4D2
:103B38008147B24022443E854101828089473E85C3
:103B48008280011122CC06CE2A842EC6EFF08FEC9B
:103B5800B245F240818D33A5A502229562441375C2
:103B6800F50F05618280011122CC06CE2A842EC66B
:103B7800EFF04FEAB245F240818D33A5A5022295B8
:103B880062444205418105618280011122CC06CE42
:103B98002A842EC6EFF00FE8B245F240818D33B586
:103BA800A502229562440561828097370020938799
:103BB800A758985725C3411122C426C206C6BE84F9
:103BC8000297173700200357475B2A8441C7BA87F3
:103BD8006373A700AA87C207C183BA866373E40028
:103BE800A286C206C182958F51476355F706DC54F9
:103BF80091C382978547173700202301F76CEF2080
:103C0800315E97370020239A8756B2402244924467
:103C1800410182809737002083C7476A9DE797371D
:103C280000209387276983C79700850793F7F70FC5
:103C380017370020A304F768A18B9DC7854717375E
:103C48000020231DF7666F20915F97370020A38718
:103C58000766D5BF9737002083C74766DDD722445C
:103C6800B24092444101C5B78280973700209387BC
:103C7800A74CD857011122CC06CE3E8401C72AC6CC
:103C88000297324511CD23A0A18E170500201305F8
:103C98008549EFF05FBBF2406244014505618280CF
:103CA8008307440163DD07009737002023A0074EF0
:103CB800970700209387C74123A0F18EF9B797078C
:103CC80000209387C744CDBF011122CC17340020B0
:103CD80013048446084406CE26CA4AC801E90545A5
:103CE800F2406244D2444249056182805C58E5DB77
:103CF800185C75D77000854582971844B247E30071
:103D0800F7FE9305E004173500200355A5439710E7
:103D18000020E78040B217370020232BA74661D147
:103D280017360020035606429305F00FEFF04FEBCD
:103D38008144173900201309E9439737002083C7C6
:103D480087400326C90163C1F40232859710002019
:103D5800E78000B801459737002023AB0742973723
:103D6800002023A90742ADBF9735002083D5853DA4
:103D7800B38795020844185C898185043E9508C27A
:103D8800029765BF411122C4173400201304C43AB6
:103D98001C4426C206C64AC0973400209384843D3A
:103DA80091EBC84C35E9B24022449244024901459E
:103DB800410182801C5CF5D7DC4C99EF9305E00447
:103DC800173500200355053897100020E780A0A676
:103DD8009737002023AEA73AC84C61D51736002084
:103DE800035646369305F00FEFF08FDF01499737FA
:103DF800002083C74735D04CE355F9FA97350020A2
:103E080083D54534338525031C44898105093E95AE
:103E18001C5C08C28297E1BF97100020E78040AB86
:103E28009737002023A607369737002023A40736A4
:103E38009DBF011156C2973A0020938AEA2F83A7A3
:103E48008A0022CC4AC84EC606CE26CA52C45AC0D8
:103E5800AA892E8432896385072203A74A03630748
:103E680007147D476366A714973400209384843031
:103E780003AAC40163170A0A9565938515E01735E7
:103E880000200355252C97100020E780C09A97370B
:103E9800002023AFA72E2A86630A051083A74A03AA
:103EA80003A58A009735002083D5C5298981829783
:103EB80083A78A0003AAC40117370020232CF72CF4
:103EC8008947639CF908C1476312F40E97350020AF
:103ED80083D54527938505FC9147B3C5F5028A0527
:103EE800D29503C705009307A005631DF70A83C78A
:103EF80015006399370B4A852286910597000020A3
:103F0800E780C0FBDC4C5285639347150145F240BE
:103F18006244D2444249B249224A924A024B05615C
:103F280082809850E38EE7F89565938525E01735EC
:103F380000200355252197100020E780C08F2A8A8A
:103F480035C52A8683A74A0303A58A00973500202A
:103F580083D5451F89818297A5B78D47639DF90051
:103F6800C1476315F4049735002083D5A51D9385B3
:103F780045FDF199B5B79147639AF9006318340381
:103F88009735002083D5051CA115E5B7C147639F68
:103F9800F900A14763EC87009735002083D5851A7F
:103FA800C115C1BFDC4C52856397470D294585B7BC
:103FB8001307F006568B6361A70A130A05FE194713
:103FC800334AEA02173700200357C717973A0020E9
:103FD800938A4A1A330AEA023E9A83A70A02639529
:103FE800470183A4CA019DE49305E0041735002026
:103FF8000355451597100020E780E083AA845DD516
:1040080083274B039735002083D5C5132A868981DA
:104018005285829791451307A005898193972500BA
:10402800A69783C607006393E60483C61700639CBC
:10403800360385058A052286A6954A8597000020BD
:10404800E780C0E783A7CA01E38297EC268597102B
:104058000020E780E0875DBD1307E007E368A7F469
:10406800130A05F985B783D5270045BF83A7CA0179
:10407800E38E97F2268597100020E78060853DB78C
:10408800973700209387070FCC4F8DD19147930620
:10409800A0058983139727002E9703460700E31787
:1040A800D6F003461700631C360185078A07228667
:1040B800BE954A8597000020E78040E081BD835780
:1040C8002700C1BF9737002093870707984739C74C
:1040D8009C5FA9C705476313E504411122C417343F
:1040E800002013042409504C06C60DC60850973505
:1040F800002083D5250589818297484C97000020A8
:10410800E780007D9737002023A407089737002011
:1041180023A20708B2402244410182808280011113
:1041280017370020130747014EC68329870022CC82
:1041380026CA4AC806CE52C456C2AA842E843289D8
:10414800638A09201C5FBA8A99EB2945F2406244C8
:10415800D2444249B249224A924A056182805C5B54
:10416800EDD7FD4763E9A70E9739002093898900A9
:1041780083A7C901B1CB03A58A0083A70902639568
:10418800A70689476393F408C147E310F4FC173581
:104198000020035525FB9147130505FC3345F5021F
:1041A8009317250003A5C9012286CA853E95930762
:1041B800A0052300F500A300950011059700002035
:1041C800E780C0CF014559B79305E00417350020B3
:1041D800035545F797000020E780E06597370020F2
:1041E80023A8A7FA49F995B783A74A0303A6C901E3
:1041F8009735002083D505F58981829783A78A00A2
:10420800173700202328F7F8ADBF8D47639EF400C9
:10421800C147E31CF4F2173500200355A5F2130536
:1042280045FD9377C5FFBDBF9147639AF400E31E30
:1042380094F0173500200355E5F02115DDB7C14787
:10424800E395F4F0A147E3E287F017350020035522
:1042580065EF4115F9B79307F00663EAA7069307D8
:1042680005FE1947B3C7E70217370020035787ED44
:10427800173A0020130A0AF0B387E702BE9983278A
:10428800CA01A9CF83270A02639A37070325CA01FF
:1042980091461308A005FD5593D72600C207C18390
:1042A800139727002A9703460700631D06078348CC
:1042B80017000356270063959806B306D64063CFC8
:1042C800860485078A072286CA853E95C5BD930759
:1042D800E007E3ECA7E6930705F979B79305E0044F
:1042E80017350020035505E697000020E780A05405
:1042F8009737002023AEA7E851F581BD83A74A036D
:104308000326CA019735002083D5C5E389814E85E8
:1043180082979737002023AF37E78DBFA300B700F8
:10432800B2869DBFB385860017360020035686E106
:104338009105130606FCE3FAC5E01306340013766C
:10434800C60F1106B29623000701A3009700231198
:10435800D70085BF973700209387C7E1D44FBE8920
:10436800A1C203A5C90191461308A005FD5593D71D
:104378002600C207C183139727002A970346070020
:1043880063160605834817000356270063989800AC
:10439800B306D640E3D786F2A300B700B286C1BF02
:1043A8008357C700173500200345E5D99305E00476
:1043B8003305F5024205418197000020E780A047B8
:1043C8009737002023A6A7DC49FD41B31736002004
:1043D800035646D79735002083C5E5D6B385C50271
:1043E800338686001106E3E2C5D681BF0145828087
:1043F800011106CE2EC6EF80203901C9B245F24020
:104408000355250005616FB0807CF2404945056180
:104418008280A38601902386019023AA018E23AC73
:10442800018E23AE018E23A0019023A8018E23A61E
:10443800018E973700209387E7D73707B40098C3D2
:104448003747A000D8C3370710009306070A94C758
:10445800B7065000C106D4C7930607054107D8CB55
:104468003707D007410798CF3707840398D337C752
:104478000700130707B8D8D3416794CB9306070101
:10448800130717F8D8D7370781FF98DB7D5723AE76
:10449800070094D7239AE7028280011126CAAA84CA
:1044A800214522CC06CE2E8432C636C43AC2EFE06D
:1044B8009FBC1DC9A24612473246930700FD230040
:1044C800F5009947A30095002301F5002303D500C3
:1044D800A303E5002312C500AA8522856244F240A1
:1044E800D24405616FE09FC3F2406244D244056143
:1044F800828023AAA18E828023ACA18E828023AEE3
:10450800A18E828023A0A1908280011122CC4AC86A
:1045180006CE26CA2A890144B30489006368B40018
:10452800F2406244D2444249056182802EC6EFE0DF
:104538007FCE93170501C183A183B2452380F40080
:104548009307140093F7F70F850463F9B700CA9728
:1045580009042380A7001374F40F7DBF3E847DBF38
:10456800C167173500200355C5C8FD176302F5025A
:10457800411103C6019A9385419006C6EF80000257
:10458800B240FD57173700202315F7C64101828036
:10459800828009C925151375F50F1335850E134546
:1045A800150082800145828023800500F94763E277
:1045B800C708797122D426D24ECE56CA5AC806D612
:1045C8004AD052CC5EC63684B289AE8A2A8B8144E0
:1045D80063FF3405B307940003CA07001389140066
:1045E8001379F90F63050A04B3072A0163C1F904B3
:1045F800B307240183CB07005E85613F0DC993078C
:10460800FAFF2380FA0063906B03130519002295C3
:10461800B250225492540259F249624AD24A424B49
:10462800B24B45618280D29493F4F40F55B701459B
:10463800C5B701458280411126C2AE8422C497378E
:10464800002023AFC7BA9737002023A9B7BA9737F6
:10465800002023A3A7BA2A8441469305F00F268594
:104668004AC006C60549EFE0DFE1631E2503973718
:1046780000209387A7B7884BC145413D4146930524
:10468800F00F2285EFE0FFDF854463169502224490
:1046980097370020938787B5B24092440249C847AC
:1046A800C14541019DB5414681452685EFE07FDD45
:1046B800E31625FD6DBF414681452285EFE07FDC8D
:1046C800E30795FCB24022449244024941018280AA
:1046D800411122C426C22E84AA84130600028145F1
:1046E80017350020130585B006C6EFE07FCF973752
:1046F8000020A38E97AEA381819AEFB0004F854723
:1047080019C181474945B240224417370020230F79
:10471800F7AC924441018280814781CD19C9854710
:10472800631BF50083C7550093E707FCA382F500D8
:1047380085473E85828089476317F50083C7550002
:1047480093F7F703E5B70D478547E314E5FE03C77D
:1047580055001377F70313670704A382E500D1BF59
:1047680081478DC105C103C755009306000C8547D5
:104778001377070C6308D700930600048D4763037B
:10478800D70089473E858280411122C4005D06C654
:1047980026C21DC8AA84085009C597000020E780D2
:1047A8002013485009C597000020E780601208547C
:1047B80009C597000020E780A011228597000020F6
:1047C800E780001123AC0402B24022449244410124
:1047D800828009ED9737002083C767A1173500202D
:1047E800130545A281CB1385418E828017350020A1
:1047F800130545A18280173500200345459F828017
:10480800973700209387879EC84782809737002074
:104818009387C79D884B8280973700209387079D91
:10482800DC4B88438280973700209387279CD84B9E
:104838001C4385071CC3173500200345559B930768
:10484800F00F6305F50091656FE09FC58280011147
:1048580022CC06CE2E8432C6EF8040029147B24564
:10486800631FF500938701909C438DC303A3070042
:10487800630E030022856244F24005610283938738
:10488800818F9C4381C703A34700DDB7F240624490
:10489800054505618280011122CC2A840355450013
:1048A80006CE26CA4AC84EC6EF70305E35C52A897C
:1048B800834405008349C500C13D4A85EF80905572
:1048C80003554400EF70107783C7C190B1CB63994B
:1048D800970483C5D1902685EFF09FB119E123860F
:1048E800019003554400EF7070799147631FF500FC
:1048F800035744009737002083D7A78F6317F70023
:10490800FD57173700202316F78EF2406244D24431
:104918004249B2490561828081499304F00F6DB71D
:104928009307F00FE38FF4FA8346640003564400BC
:10493800034524004E87A685EFF03FB65DB7797131
:104948005EC6AA8B2E8552CC56CA5AC806D622D421
:1049580026D24AD04ECEAE8A328B368AEF70F052CB
:104968006DC1045D2A89F1CC9C50614599C313053A
:1049780040039C5481C751054205418163050A00E3
:10498800710542054181DC5081C7590542054181C5
:10499800EFE06FEE2A8455C561468145EFE05FA4DC
:1049A8009739002083C90984639409008349090061
:1049B800930700FD2300F400A947A3007401230115
:1049C800F400230364018C5023125401130584015D
:1049D80091C908C47146930A440397F0FF1FE78002
:1049E800E04D56858C5491C948C45146930A4501F7
:1049F80097F0FF1FE780804C5685630C0A0008C8B3
:104A08007146D285930AC50197F0FF1FE780004BD6
:104A18005685CC5099C548C8594697F0FF1FE7807E
:104A2800E049A2854E85EFE06FEF2254B2509254D0
:104A3800F249624AD24A424BB24B4A850259456111
:104A4800A1B3B250225492540259F249624AD24A4E
:104A5800424BB24B4561828001114EC6AA892E8510
:104A68004AC806CE22CC26CA2E89EF70104231C51C
:104A78009724002083C4047799E0834405001945EE
:104A8800EFE06FDF2A8415C981451946EFE05F958D
:104A9800930700FD2300F400B947A3003401230164
:104AA800F40023122401A2856244F2404249B2492B
:104AB8002685D24405616FE06FE6F2406244D24435
:104AC8004249B2490561828039715ECEAA8B2E8532
:104AD80026DA4ED652D456D25AD006DE22DC4AD82E
:104AE800AE84328BB68A3A8ABE8942C6EF70F039F4
:104AF80031C92A894145EFE00FD82A8421C54146AA
:104B08008145EFE0FF8D172500200345A56D19E1CC
:104B180003450900930700FD2300F400BD47230166
:104B2800F400B247A3007401231294002304640123
:104B3800A304540123054401A30534015CC4A285E0
:104B4800EFE0CFDDF2506254D2544259B259225AA2
:104B5800925A025BF24B21618280797126D2AA8433
:104B680039454AD04ECE06D622D42EC6B2893689C9
:104B7800EFE06FD021C1B2459307000D2310F50077
:104B8800B1472A842312B5002301F500CE85190503
:104B9800194697F0FF1FE780603223062401A2859B
:104BA8002254B2500259F24913F5F40F9254456158
:104BB8006FE0CFD6B250225492540259F24945615F
:104BC800828017270020034797629307F00F630D31
:104BD800F706411126C2AA84394522C406C64AC02E
:104BE800EFE06FC92A8439C9930700FD2300F50057
:104BF800A300950023010500972500209385856073
:104C08000D05194697F0FF1FE780402B1729002054
:104C18001309C95D83578900A2851725002003451C
:104C2800155D2315F400834719002306F400224478
:104C3800B2409244024941016FE04FCEB240224453
:104C480092440249410182808280011156C2AA8A97
:104C5800314526CA4AC84EC652C406CE22CCAE84B6
:104C6800328AB6893A89EFE00FC129C92A84268594
:104C7800EF70B0211DCD03450500930700FD23000B
:104C8800F4009D47A30054012301F400231294006B
:104C9800231344012314340123152401A2856244FB
:104CA800F240D2444249B249224A924A05616FE031
:104CB800EFC61725002003459553C1B7F24062445B
:104CC800D2444249B249224A924A056182803971E6
:104CD80062CC2A8C594526DA4AD84ED652D456D2B6
:104CE8005AD05ECE06DE22DCAE8432C636C4BA8B1B
:104CF8003E8BC28A468A8359010403494104EFE086
:104D08008FB735C53246930700FDA2462300F5004C
:104D18009547A301C500A30085012301F5002A8456
:104D280019461105A9C2B68597F0FF1FE78000193B
:104D380023066401230A240123157401231754014F
:104D48002318440123193401A2856254F2504259B0
:104D5800B259225A925A025BF24B624C2685D254BF
:104D680021616FE0AFBB8145EFE08FE7D1B7F2502B
:104D78006254D2544259B259225A925A025BF24BA7
:104D8800624C216182809727002083C747468DCBDC
:104D98004111AA8519461385418E06C697F0FF1F53
:104DA800E780C0119385418E1725002003452544CF
:104DB800EFF09F96B2401385418E41016FA0B0631A
:104DC8000145828017270020034777429307F00F99
:104DD8006305F708411126C2AA84294522C406C6DC
:104DE800EFE06FA92A8429C1930700FD2300F5008D
:104DF800A1472301F500A30095009727002093877A
:104E0800E73E83C727009385418E1105A30FF5FE62
:104E1800194697F0FF1FE780600AA2851725002032
:104E28000345F53CEFE08FAF172700200347273CE9
:104E38008D47631FF7009387C18F9C4391CB03A3D2
:104E48008700630703002244B24092444101028371
:104E5800B240224492444101828017270020034730
:104E680007398D47631AF7009387C18F9C4389C719
:104E780003A38700E31D03FC8280797122D406D640
:104E880026D24AD04ECE52CC094445C92A89035568
:104E980005002E8A5144EF70407FAA8459CD83C7FC
:104EA800319AFD1793F7F70F054749446377F708D9
:104EB8000347C500A1476314F70063100A089C5C08
:104EC8004544A5EF9165938545711305C002970088
:104ED8000020E780409688DCAA894D4439CD130626
:104EE800C0028145EFE0CFCF835709009386490080
:104EF80036852391F90071469305490036C697F027
:104F0800FF1FE780A0FB89472380F90003C5C40081
:104F1800B24603560900611583C5019A1335150079
:104F2800EFA0600D2A8463060A00D2852685EF80EB
:104F3800901901C42685EFF03F852285B25022548E
:104F480092540259F249624A4561828083C7319A74
:104F5800FD1793F7F70F05476378F708894751C698
:104F6800011122CC26CA4AC84EC652C406CEAA8906
:104F7800368AB2842E89EF7040712A84D14729C9B4
:104F8800485509C597000020E7808094F14526859B
:104F9800EFE06FC748D4CD4705CD8346C40021470D
:104FA8008147639FE600630D0A000347A501035686
:104FB800050193062501AA854E85EF80A008AA87DA
:104FC80003474400630F0900136767002302E400E6
:104FD800F2406244D2444249B249224A3E850561C0
:104FE800828013674700DDB7C9473E858280E54761
:104FF80063EBA700972700209387C71B06053E95FC
:1050080003550500828041657D158280011122CCFF
:105018002A842E8526CA06CEAE84EF7000670DCD91
:10502800B7470F009387F723094563E28702814555
:105038000A854146EFE0CFBAA685231081000A858C
:10504800418023018100A3010100EF90305DF2400F
:105058006244D244056182804945D5BFA380A19AA4
:1050680082806F901072797152CC2A8A328522D44C
:1050780026D24AD04ECE56CA5AC85EC606D662C492
:10508800AE8BB28A368BBA843E89C2894684EF7069
:10509800C05F15C92A8C63140A0213774B00834733
:1050A800450015CF93E727012302FC008DEC631C14
:1050B8000902639A090205E8ED9B2302FC00832B91
:1050C8008C03639F0B06B250225492540259F24942
:1050D800624AD24A424BB24B224C45618280F59BD0
:1050E80093E70701D1B793E747002302FC0001CCFF
:1050F8001C484146A2852324FC0213058C0197F025
:10510800FF1FE780A0DB63910B02D5D80325CC02F3
:1051180009C597F0FF1FE780A07BF1452685EFE0E2
:105128008FAE2326AC0261BFE30B09F80325CC023E
:1051380009C597F0FF1FE780A079F1454A85C5B7F3
:105148009DC483A70B0299EB9165938535717145D1
:1051580097F0FF1FE780206E23A0AB0203A50B0288
:1051680019C57146A68597F0FF1FE78020D563888B
:10517800090283A74B0299EB9165938525715945DF
:1051880097F0FF1FE780206B23A2AB0203A54B0219
:1051980019C55946CE8597F0FF1FE78020D21DC458
:1051A80083A78B0299EB916593851571514597F00B
:1051B800FF1FE780406823A4AB0203A58B0219C533
:1051C8005146A28597F0FF1FE78040CF2254B25086
:1051D8009254F249B24B224CCA865A860259424B23
:1051E800D6855285D24A624A45616FF04FF5011162
:1051F80026CA52C406CE22CC4AC84EC62A8AAE84D3
:10520800EF70A04825C5AA893945EFD0DFE62A8482
:1052180031CD172900200349E9FC6314090003C9AB
:1052280009009307000D2310F400AD472301F40093
:105238009385690013053400194697F0FF1FE7802E
:10524800E0C793F71400858085882306F400A30639
:10525800940023154401A2856244F240D244B24925
:10526800224A4A85424905616FD05FEBF2406244A9
:10527800D2444249B249224A056182809387C18E4D
:10528800884301CD411106C697F0FF1FE7804064AF
:10529800B24023A6018E410182808280011106CE90
:1052A80022CC26CA4AC82EC6EF70203E39CDB24558
:1052B80017290020034909F3AA840CD563140900AF
:1052C800034905004145EFD01FDB2A841DCD930714
:1052D800000D2310F500A5472301F50083C75400EE
:1052E800938564001105A30FF5FE194697F0FF1F7B
:1052F800E780C0BC9C54A285F2405CC46244D2449E
:105308004A85424905616FD07FE1F2406244D24448
:10531800424905618280797122D406D62A842EC634
:10532800EF70A0360DCD8346C5001147AA874945C1
:105338006393E6029C5FB24599C383C56701080879
:10534800EF806061979600009386E6E9100889452A
:105358002285EF70F053B250225445618280514546
:10536800DDBF83C7319AFD1793F7F70F0547637AB7
:10537800F704894721CA411122C426C24AC006C679
:10538800B2842E89EF7060302A84D14705C563083E
:1053980009008347450093E727002302F5004146AB
:1053A800A6851305840197F0FF1FE78020B19C486C
:1053B8001CD48147B2402244924402493E854101AF
:1053C8008280C9473E858280797122D406D62A8494
:1053D8002EC6EF70802B01CDB2452285230EB10079
:1053E8006C08EF80C04AB250225445618280514512
:1053F800DDBF6F70603EC1671387E7FF6394E50206
:105408009387818F9C4391EB494582804945B240FF
:105418002244924402494101828003A30700E30524
:1054280003FE0283411122C426C24AC006C6FD17E4
:105438002A892E84B2846395F5029387818F9C43D1
:1054480091CB9C4381CB829711E523862191A3863A
:10545800919075BFA6854A85EFE09FF94DF9F5B79C
:105468002E85EF7080225DD1834705000D45E390BE
:1054780027FB22852244B2400249A6859244410175
:105488006FA0E07465476362A7044111416722C4B5
:1054980006C626C27D172A8409456383E502C547E7
:1054A800AE846315F4002E85EFA0607C931714007A
:1054B80017240020130404D0A297239097000145D5
:1054C800B240224492444101828009458280011100
:1054D80006CE2AC6EFE0FFF3EF10801FEF00E0755D
:1054E800EF602163324597270020938727D0130761
:1054F80000F02391E700238207007D579387019AE4
:10550800A380E7002380A700F240954505616F500E
:1055180090331D7193970501CAC886CEA2CCA6CA3E
:10552800CEC6D2C4D6C2DAC05EDE62DC66DA6AD81B
:10553800C1872E8963D0074C03C5019AEFD09FB766
:105548008964416A856A797B2A84938BD4007D1AA1
:10555800A50A691B15E021653345A900F640664494
:10556800D6444649B649264A964A064BF25B625CDF
:10557800D25C425D25618280834704001307200ABC
:10558800639DE70003552400172C0020034C3CC6FC
:105598002286D285EFF0AFAB3DAA1307100903CCE2
:1055A800119A6397E716834714001547639EE7002F
:1055B8002285EFF04FAE2285EFD03FA903C5019AAF
:1055C800EFD05FAF2A8479B739476399E716035557
:1055D8004400631B55050C4483C90500639D0900FD
:1055E800850591C91946172500201305A5C197F00F
:1055F800FF1FE780A08C17270020034727BF854798
:105608006318F710638A090097270020238007BED4
:105618004E85EFF00FDB45B7894717270020230792
:10562800F7BCEFA0005D41BF93872400631AF5061D
:1056380083298400638E090C83C709008DE383C71F
:10564800290003C71900A207D98F172700202313A1
:10565800F7BA83C7390017270020A309F7B8172717
:1056680000200347A7B889476314F70A83C70900CE
:1056780081CB97270020238B07B603C5090051BFAC
:105688008D479725002083C575B61725002003553B
:1056980065B617270020230BF7B4EF50D01DF1BFD4
:1056A800938754006318F5001C4403C50700EFF006
:1056B8006FF111B7B3076501C207C1831147636F63
:1056C800F7009387C18F9C43E38707EE9C43E384ED
:1056D80007EE22858297E31005EE1DA89387B40094
:1056E800631FF5009387418F9C43E38607EC9C4337
:1056F800E38307ECA2851385B4008297E9BF9387FB
:10570800C4006310F5021C4483C70700E38507EA59
:105718009307F00FE301FCEAA2856285EFD01FA092
:1057280071BD9387E400E315F5FE9387818F9C4351
:10573800E38307E8DC43A285E9F3B5BD3D476397FA
:10574800E70403554400E30275FF93879401E30ED1
:10575800F5FC93873401E31DF5FA9727002083D7DA
:1057680047A9639E47019387818F9C43E38507E49C
:10577800DC43E38207E4A28513853401BDBF938728
:1057880001909C43E38907E29C43E5B71307E003D4
:10579800E390E7F88347240005476396E70E8347BD
:1057A8006400138DC18EF1E383270D00D5CB03CCA4
:1057B8000700A14903457400930C8400E685EFE0D7
:1057C8003FFA83474401A303A40083580401035804
:1057D800E400035744002A86034534003EC2835739
:1057E8002401E686E2853EC0CE87EFF04FCE8347A0
:1057F800340095E7DD47835804010358E4008346E5
:105808007400835544003EC28357240166870546C9
:105818003EC06285CE87EF70E01BA301A4008327FA
:105828000D0081C71145EFF07FA503C5C190E304C2
:1058380005D883C5D190EFE0BFBBE30E05D68346FC
:10584800340093071003638AF600035644004E871A
:1058580083C5C1903685EFE05FC423860190A1BB64
:10586800172C0020034CBC98A9B79387C18F9C4381
:10587800172C0020034CBC9791498DDFDC439DDB3E
:105888000145829705BF29476390E70C8347640069
:10589800938CC18EC1E783A70C00A5CF03CC07006A
:1058A800A149034574009306840093772500C9C76E
:1058B80013761500130D4401834704028358C4016D
:1058C8000358A40103574400034534003EC28357DC
:1058D800E401E2853EC0CE87EFF06FBF8347340016
:1058E80095E7DD478358C4010358A4018346740033
:1058F800835544003EC28357E4016A8705463EC08B
:105908006285CE87EF70000DA301A40083A70C0069
:1059180009BF172C0020034C9C8D59B79387C18F62
:105928009C43172C0020034C9C8C9149BDDBDC4325
:10593800ADDB01458297B5B7B68536CEEFE05FE2BD
:10594800F2462A86368D8DBF0947639DE700938707
:10595800418F9C43E38107C6DC43E38E07C422855D
:10596800829791B92D476399E7009387418F9C43AC
:10597800E38307C49C47D5B70D476397E7002286A2
:105988008D450355440039B11947E393E7D893058A
:10599800610213051031EF6001222C10130520312C
:1059A800EF60612103566400835781020355440068
:1059B80063E8C700835684000357610263F7E60073
:1059C80093050002EFA0A029FDB66374E600231337
:1059D800E40063F4D7002314F4000357C40083568B
:1059E800A400035684008355640001488147EFA052
:1059F800C026D1B693F7150081CF9387418F9C437A
:105A080089C7DC4399C30145829713451900B9B684
:105A180093F7250081CF9387C18F9C4389C7DC43C7
:105A280099C305458297134529000DBE93F7450094
:105A38000145E38507B29387018F9C4391CF854742
:105A4800171700202306F77A9387C18F9C4389C7CD
:105A5800DC4399C3054582979717002093870779F8
:105A6800C8472C10EF90A0242810EFF0CFB197175B
:105A7800002083D7477691CB130600643386C7028C
:105A8800914503C5019AEFD01FB413454900F9B4F5
:105A9800411122C42A84554506C6EFF04FD5B335C7
:105AA800A00022852244B24041016FA040167971BE
:105AB80022D406D68D472E84631FF50003D7A50090
:105AC80083D6850003D665000345340083D5450099
