:040000006F108051AC
:1000040000000000000000006F0080086F00202541
:1000140000000000000000000000000000000000DC
:1000240000000000000000000000000000000000CC
:100034006F004006000000006F00E00500000000B3
:100044006F0080056F0060056F0040056F0020059C
:100054006F0000056F00E0046F00C00400000000A2
:100064006F0060046F0040046F0020046F00000400
:100074006F00A0266F00C003000000006F00600343
:100084006F0040036F0020036F0000036F00E00265
:1000940001A001A001A001A001A001A001A001A054
:1000A40001A001A001A001A001A001A001A001A044
:1000B40001A001A001A001A001A001A0B717004068
:1000C400130770052380E704130780FA2380E704ED
:1000D4000F1000002396A70223800704371700405F
:1000E40083472705898BEDDF8357070537170040C2
:1000F40083472705898BEDFF371700408347270582
:10010400898BEDDF035507058280B71700409306FE
:1001140070052380D704130780FA2380E7040F10A7
:10012400000003C6B7041376F60DA385C704238025
:100134000704137605023DCA03C6A700118A1DE20F
:100144002380D7042380E7040F10000003C7A7000F
:10015400136747002385E7009307004B0100010064
:10016400FD17EDFFB7170040930670052380D704F1
:10017400130780FA2380E7040F1000007D8923947D
:10018400A70001000100010001002380070423806F
:10019400D7042380E7040F1000003727004093069C
:1001A4001005A303D78023800704828013760504F7
:1001B4006DDE03C6A700418A1DE22380D704238095
:1001C400E7040F10000003C7A70013670701238586
:1001D400E7009307007D01000100FD17EDFFB7174D
:1001E4000040930670052380D704130780FA238008
:1001F400E7040F1000007D89136505042394A7000C
:100204000100010001000100238007042380D704BA
:100214002380E7040F1000003727004093063005C1
:1002240049B74111814601468145114506C6592207
:10023400B7170040130770052380E704130780FAFB
:100244002380E7040F10000003C767041367170037
:100254002383E70423800704B2404101828081465E
:10026400014681451145B922B71700409306700530
:100274002380D704130780FA2380E7040F100000BB
:100284007D562396C7022380D7042380E7040F10EA
:10029400000003C76704136717002383E704238060
:1002A400070401A0BD473305F50201007D1575FD66
:1002B4008280411122C426C206C6AA84014463175F
:1002C4009400B24022449244410182800504130503
:1002D400803E4204C13F4180DDB7B7170040130799
:1002E40000032388E702854723A2F18A73002030A4
:1002F400411106C6EF00207AF5BF23030480954719
:100304002303F4802302A480828083076480E3CEE5
:1003140007FE23030480828083076480E3CE07FE04
:1003240003454480828083076480E3CE07FE230272
:10033400A4808280411126C44AC24EC006C61377E7
:10034400F50BAD47AA892E8995446306F700194534
:100354006D37653F8D444E854D37FD59FD146398C7
:100364003401B240A24412498249410182801355AA
:1003740009011375F50F453F2209CDB7011126CCAC
:1003840006CEB704080051371545853F71376937E4
:100394002AC6A53F32459377150089EB13651500EE
:1003A4001375F50FF240E24405618280FD14E9FC07
:1003B4000145CDBF397126DC4ADA4ED852D656D41F
:1003C4005AD25ED062CEB7E700E006DE66CC6ACAD7
:1003D400414783AB070422C6B8C37D5703AB07006C
:1003E40083AA470023A0E71823A2E718B717004001
:1003F400130770052380E704130780FA2380E704BA
:1004040083C74704130C75FFB684E207137CFC0F03
:1004140085462A8A2E89B28937240040E18701570C
:1004240063FA86016308D500894613070002631343
:10043400D5000157D98F93F7F70F371D00402302DA
:10044400FD0411472303E4801305F00F7D35894C27
:100454006D3D63EB8C11B70707003E9937870700A2
:100464007955637EE902B3079900636AF702A947E5
:10047400631CFA0689E48144493D26850DA0CA859A
:1004840009454D3D850903C5F9FFFD140509613D85
:1004940081C49377F90FFDF7D53569FD7D55B717FD
:1004A4000040130770052380E704130780FA2380B4
:1004B400E70403C74704418B2382E704B7E700E05E
:1004C40023A07705F25023A0671123A25711E25409
:1004D40032445259C259325AA25A125B825B724C4C
:1004E400E24C524D21618280A5476314FA06856966
:1004F4009307F00FB3869700B374F900B69493C7CB
:10050400F7FFFD8C33F92701416A056C9387F9FFE6
:10051400B3F7270199E363FC340193D94900C14738
:10052400E3E637FF89BF8567C169FD17E1B71305A6
:10053400800D638849011305000263848901130552
:100544001008CA85C53B1D3D31D94E99B384344149
:10055400D9B7CA852D45F93BCE94E38E99F0850928
:10056400653BA38FA9FED5BF9307FAFF93F7F70F57
:1005740063ECFC0803475D04B70708001377070220
:1005840019E3B78707007955E37BF9F0330799003E
:10059400E3E7E7F089476310FA048980554AE38C5E
:1005A40004ECCA8509457933910903A7C9FF91472A
:1005B4002320E48003076480E34E07FE2303448181
:1005C400FD17EDFBFD14110981C49377F90FE9FFC1
:1005D400753371F5E1B58547E307FAF4CA852D450E
:1005E400913B1389F4FFE38804E83D3393773900A2
:1005F40091EB8326048003A7090093874900E39DB8
:10060400E6E6BE89CA84F1BFB5476316FA0013054E
:10061400900BE5318DB5B1471305B00AE30BFAFE33
:100624009947631EFA02CA852D45293381440D4C2E
:10063400214ADD31639684018327048023A0F900D5
:100644008504E39844FF8327048013172901635525
:1006540007002392F90005B523A2F90029BD9D479F
:100664006319FA0281451305B004E931BD4423A09E
:10067400090023A209007D59453193F77400CE97F0
:1006840003C70700FD14398D2380A700E39624FFD8
:10069400DDB3A1476312FA04D5318144630D090027
:1006A4008D479304C0036308F900930400056304B1
:1006B4009901930440041375C507E30E95DA1945AF
:1006C4002D39A131054515392685B1390945A13999
:1006D4007531E31205DAD9B391476319FA001305AA
:1006E400600621391D311305900925B7E3050AD8A1
:1006F400F15459B3BD660147173600001306C622EC
:10070400938606A685458347060093F7F70F91C3A2
:1007140082800507E3F9E6FE973700002386B720B9
:10072400DDB77D166206618693178601E18763D47F
:10073400070001458280931726003307F500AE9722
:1007440018439C4363E7E7007D16E37FF7FC7D5580
:10075400828005458280FD15E205E18513978501B8
:10076400618793F7F50F63480700FD15139725007C
:100774002A97584365D713851700620561858280DF
:100784003308B5021C4283A80600B335B502C297EC
:1007940033B50701AE98469585486367B500639401
:1007A400A50063E3070181480C43C6950CC388C2C6
:1007B4001CC2828081471397870161876343B70016
:1007C4008280139727002A97232007008507E5B71F
:1007D4008147014793968701E18663C5B6001335C7
:1007E4001700828093962700AA9694428507558F16
:1007F400D5B793D755408A07AA979C430545331527
:10080400B5007D8D828017D3FFDFE70203612A8460
:10081400993705C5931725003E940327C4FF8147E4
:1008240011EB7D1516053E954205418517D3FFDF73
:100834006700E36005838507E5B70145C5BF8147C8
:100844001397870161876343C7008280139727004A
:10085400B386E50094422A97850714C3D5B77D165D
:1008640062066186014793178601E18763D5070015
:1008740013351700828093172600B306F500AE9750
:1008840094429C437D16B58F5D8FF1BF8A05AA956E
:1008940001476363B500828083A6C5FFF11593D732
:1008A4001600D98F9CC11397F601E5B72A83014836
:1008B400014701456343D7008280B387050183A8BC
:1008C4000700B30706019C43C697AA976384F80000
:1008D40033B517010507B3080301620723A0F80025
:1008E40061871108C1BF2A8301478147014563C35A
:1008F400D70082803388E50083280800330EE600A1
:10090400032E0E003388A8403308C84163840801CD
:1009140033B508018507B308E300E20723A0080103
:10092400E1871107E9B717D3FFDFE702034F01118E
:10093400B286B2842E86AA850A8575372A84A6854E
:100944000A85793533348000060413351500018D8A
:10095400056117D3FFDF6700834E17D3FFDFE7027C
:1009640043494111AA89AE8A328BB68402C202C4B9
:1009740002C60144131C8401135C8C4163499C022C
:10098400939B1400FD1B0549138CF4FFF15C3304A5
:10099400890162046184634D740592478E04CE9488
:1009A40023AEF4FE410117D3FFDF67000348131998
:1009B4002400B30B2B01014A93172A00D69783A571
:1009C4000B0088437800340050005D3B050A931700
:1009D4008A01E187F11BE351FCFE92474E9905041D
:1009E4002320F900A2473EC2B24702C63EC459B70B
:1009F400131A8901135A8A41131D240093178A017B
:100A0400E18763CF970092470A044E941CC0A24723
:100A140005091379F90F3EC2B24702C63EC485BF29
:100A2400B3079A0313152A00569508417800340039
:100A34005000050AEA97DA978C439933C1B709CD78
:100A4400B7170040130770052380E704130780FAE3
:100A54002380E7042396A702828019C1814799E97C
:100A640082803387F500834607003307F500850746
:100A74002300D700E397C7FEE5B719C1FD5781E905
:100A84008280910503A7C5FF1105232EE5FE7D167F
:100A9400E319F6FEF5B7797122D417340000130474
:100AA400A43A1C4006D626D24AD04ECE91C782978D
:100AB4009737000023AA07385C4089CB03D5C18C43
:100AC400BD3F5C40829703D5E18C953F1C40639900
:100AD40007189737000083C73749858B95C7973721
:100AE4000000A383074817370000034717489147BE
:100AF40063FCE700792B9737000083C71747F91782
:100B04008A07A2979C4382979737000083C7874A36
:100B1400918B89C7974002E0E780C0CA1C4491C307
:100B240082979387818C9843173600000346962F4B
:100B34003E89973400009384E42E9737000083C7DE
:100B4400672E93961700BA9683D606006380061024
:100B54009737000083C7072D63F2C70886073E97BF
:100B6400835507002310070003D5C18C2EC6239A92
:100B7400018CF1359387018E9C43173500000345A2
:100B8400652A13172500BA979C43B2458297AA8910
:100B940003D5E18C6D359737000083C7A7281397D9
:100BA40017008327090003D5418D1345F5FFBA9734
:100BB40003D7070033753501598D2390A70083C7E8
:100BC4000400850793F7F70F17370000230CF72469
:100BD400173700000347172563E6E700973700003F
:100BE400238207241C40ADEF9387818D98433E8474
:100BF40025CB9737000083C7973791CB97370000F1
:100C040083C7B73689E7973002E0E78060601C400D
:100C140082972A8431C59C48AA9717370000232B52
:100C2400F7209387C18D9C4385CF03D5C18C013DAB
:100C34002285972001E0E780E0FB2254B2509254D1
:100C44000259F24903D5E18C4561D5BB850793F779
:100C5400F70F973600002387F61CE3E0C7EECDBDFF
:100C6400B250225492540259F249456182809167EC
:100C7400B7C600409387373023A6F6200F10000034
:100C8400973700009387071A884F9387019D9C43E9
:100C9400316713073730F053B7071000FD17918FF2
:100CA40099833A0523A6E6205D8D82804111B7170A
:100CB4000040985F3AC6945F3247E39CE6FE3245B3
:100CC40041018280411106C6D5379736000083C69C
:100CD400E612858AB1C6930730333307F502B3377A
:100CE400F5023983CA07D98F173700001307871312
:100CF400584B01456303F7023385E740636BF70004
:100D040037653D0889C637856F0813050590198D29
:100D14003E95173700002321F712B240410182802B
:100D2400E5473307F502B337F5022583DE0765BFD0
:100D34000327C50F8346B5009737000093878722A2
:100D44009C4F58439386160295829043FD1693F662
:100D5400F60F10C3D04350C3904710C7D04750C7B5
:100D6400904B10CBD04B50CB904F10CFD04F50CF97
:100D740091C61307070293870702C1BF8280834786
:100D8400E50193F7E70FF1EF2A870345F50171E9D0
:100D9400034607018346870009CA8345A70297379C
:100DA400000083C7B70563E7F50093F70601C5CFD5
:100DB400814709CA8347871503467715C18AA20765
:100DC400D18F81CA8346B7150347C7152207558FAC
:100DD400BA97D1CB1737000013074724384741117E
:100DE40022C406C67D548326070863F3860036842E
:100DF400184375FB17370000034747009316870114
:100E0400E18663D906029387C713958317370000D9
:100E1400034767FFBA9763D006041D8C9387418EFE
:100E24009C4382973335A400B240224413451500F5
:100E340041018280058B9387C71209CB8A07938768
:100E4400F7031305D007B3D7A702C9B78607FD0771
:100E54001305D003CDBFE372F4FC3705C0A82A9470
:100E64006DBF014582808280411122C41384019C9C
:100E740018404AC006C61C5F26C21389C19B9983C9
:100E8400858BC1C31C5F973400009384A40D93F732
:100E9400F7F91CDF9737000083C7C70C93F70704E3
:100EA4008DC39387418E9C4382979737000023A379
:100EB400A70C83C7040093F7F70B1737000023032D
:100EC400F70A854717370000A300F70A83C74400D1
:100ED40093F7070481EF9387019D9C43D844B8D3CB
:100EE400930700FC173700002300F708838764008A
:100EF40063D90700832709009C43173700002306A2
:100F0400F70618401C5F8583858BC9CBF5571CDF1A
:100F140001000100010001000100010001000100C5
:100F240001000100010001000100010001000100B5
:100F340001000100010001000100010001000100A5
:100F44000100010001000100010001000100010095
:100F54000100010001000100010001000100010085
:100F64000100010001000100010001000100010075
:100F74000100010001000100010001000100010065
:100F84000100010001000100010001000100010055
:100F94009387019D9C4313075004B8CB18401C5FF2
:100FA4009183858B89CFBD571CDF9387019D9C431B
:100FB40023A807048547173700002307F7FA832778
:100FC4000900D8430583058B19C7D843759BD8C33B
:100FD400D843799BD8C3B240224492440249410188
:100FE4008280397106DE16DC1ADA1ED82AD62ED48F
:100FF40032D236D03ACE3ECC42CA46C872C676C445
:101004007AC27EC09535F250E2525253C2533255E1
:10101400A255125682567247E2475248C248324E8F
:10102400A24E124F824F2161730020309387019D9D
:101034009443173700001307E7F2BC5289CF834764
:101044002700858B89EB83473700858BFDD797373E
:101054000000238B07F0828037C700401306C003CB
:1010640093062003973500009385C5EF83278720D7
:10107400C18393F7F7036369F60083278720C1834D
:1010840093F7F70363E6F60083C74500858BF9DF22
:1010940082809387019D944317370000130787ECE0
:1010A400BC5289CB83470700858B91CB97370000CF
:1010B400238C07EA97370000A38807EA82808347D6
:1010C4001700858BF1DFDDB79387019D904337C708
:1010D4000040C145E54683278720C18393F7F70382
:1010E40063FBF50083278720C18393F7F70363E449
:1010F400F6003C52EDF382801387019C1843AA87C3
:10110400185F1583058B25EF034515001505137727
:10111400C51F19C6B386E70083C626002300D60080
:1011240095C59736000083C646E493F60604094540
:10113400A1CAB386E70083C63600054693F5F606D2
:101144006390C504E206E18663CC06023385E700BA
:101154008347150003470500A20793F70770D98F4B
:101164001397070141839376074099C61367078055
:101174002394E19C014582802394F19CE5BF0545BD
:1011840082809386019D8C42368597360000938633
:1011940066DD984593170701C183137817203E86AF
:1011A400630408041377072079C303C72600136771
:1011B4001700173800002308E8DA13070019B8D11C
:1011C400130700F8973500002380E5DA1387019CA4
:1011D4000C4337080010D855719B13672700D8D5E6
:1011E40098413367070198C11377261005C3137616
:1011F400061059CE03C70600136717001736000000
:101204002302E6D617370000231207D683C646000A
:1012140093C7F7FFC207E206E186C183184163D191
:1012240006029396170163DE060630538D4663E982
:10123400C6008546173600002308D6D23453FDFE77
:1012440097360000938646BA8386460163DD06001E
:1012540093960701C18663DC06047053894663E4F0
:10126400C6007453FDFE1447F58F1CC7828003C764
:1012740016001367170097350000A385E5CE1737CE
:101284000000230307CE17370000231107CEA9BFA0
:1012940003C736001367170017360000A305E6CC12
:1012A40095B78546173600002300D6CC51BF544766
:1012B4001396060163510602B7061000FD1674D397
:1012C40097360000938606B6944E850617360000BE
:1012D4002326D6B649BFA166D58F71B7397106DE0C
:1012E40016DC1ADA1ED82AD62ED432D236D03ACE0A
:1012F4003ECC42CA46C872C676C47AC27EC0513554
:10130400F250E2525253C2533255A25512568256EB
:101314007247E2475248C248324EA24E124F824FA1
:1013240021617300203017370000130767C5834617
:10133400B7019737000083C7F7C7B69793F7F70F3E
:10134400FD4663EAF6044C4B97360000A38AF6C2C6
:101354009737000083C7D7C205473317F70097367E
:101364000000A389F6C46D8F1DEF9736000083C675
:10137400B6C4B3F6D70213050002814733D6F5008D
:10138400058A13F8F70F09CE6399E6009737000032
:10139400A38807BF828081177DB705071377F70FEE
:1013A4008507E39DA7FC82809387C19D9843B75727
:1013B40002009387279F83260709139656006358D4
:1013C4000600832607091396660063440600FD178A
:1013D400FDF3828051C9AA870145C9C98D07C20797
:1013E400C183F19BC207C18313074003636BF702F8
:1013F400138701A70843138781A614436396A602A3
:10140400173700001307479E185B014525C3411198
:10141400C20706C60545DD8D0297B240014541016C
:1014240082801387C1A6F9B70357650005EF0357F8
:1014340045006369F702B306F74021466370D6029C
:101444001041938687001D8FAA96611790C223923C
:10145400E6002393060014C12312F5002313B500FC
:1014640021058280084159BF01458280828001CDD7
:10147400938701A703A80700938781A68C4301479C
:10148400C28763E3B70082809443636FF50663ED1C
:10149400A60613868700E368C5FE03D567002166A8
:1014A40005066317C50003C6019805062380C19885
:1014B40023930700638407031386C1A61042630FB6
:1014C400F6000356670019EA83D7470014C383560E
:1014D4004700B697A1072312F700BA879843E3049D
:1014E400B7FA9386C1A69442E30FD7F883566700F0
:1014F400D9FA83D64700035647001843A106B2968B
:101504002392D70098C382803E87B6879DBF000090
:10151800974100209381816417710020130101AE67
:1015280013054000972500209385452D1736002088
:101538001306C67D63FAC5008322050023A0550063
:1015480011059105E3EAC5FE17250300130505BE3D
:10155800973500209385857B1386018863FAC5003B
:101568008322050023A0550011059105E3EAC5FE75
:1015780013850188976500209385C5346377B50086
:10158800232005001105E36DB5FE9302800873A0C2
:101598000230972200209382622693E21200739011
:1015A800523037170040930770052300F70493075C
:1015B80080FA2300F7040F1000003C47B70600FA32
:1015C800E116F58FB70600069506D58F3CC797221A
:1015D80000009382A2057390123473002030397191
:1015E80001436EC619A0397141536AC866CA62CCF4
:1015F8005ECE19A0397101535AD056D252D44ED664
:101608004AD826DA22DC06DE3301614082824111A3
:101618004AC026C222C406C68282B24D4101024D8A
:10162800924C224CB24B4101024B924A224AB24997
:101638004101024992442244B240410182803D4323
:101648002A876373C3029377F700BDEFADE59376FE
:1016580006FF3D8ABA960CC34CC30CC74CC741075A
:10166800E36BD7FE11E28280B306C3408A06970275
:10167800000096966780A6002307B700A306B70068
:101688002306B700A305B7002305B700A304B700D6
:101698002304B700A303B7002303B700A302B700CE
:1016A8002302B700A301B7002301B700A300B700C6
:1016B8002300B700828093F5F50F93968500D58DAA
:1016C80093960501D58D61B7939627009702000080
:1016D80096968682E78086FA9680C1171D8F3E9679
:1016E800E374C3F8A5B73367B500FD530D8B79E7ED
:1016F800B7877F7F9387F7F710419441B372F6005D
:101708003363F600BE92B3E262006397720C63180B
:10171800D6065041D441B372F6003363F600BE9248
:10172800B3E262006398720A631BD60410459445BD
:10173800B372F6003363F600BE92B3E262006391BF
:10174800720A631ED6025045D445B372F60033635D
:10175800F600BE92B3E26200639A72086311D60281
:1017680010499449B372F6003363F600BE92B3E2AF
:101778006200639372085105D105E30FD6F613177B
:10178800060193970601631CF7001357060193D7C8
:1017980006013305F7409375F50F91E9828041837F
:1017A800C1833305F7409375F50F91E18280137774
:1017B800F70F93F7F70F3305F740828003460500CC
:1017C80083C60500050585056313D60065FA33054C
:1017D800D640828011059105E312D6FE014582802C
:1017E8002105A105E31CD6FC014582803105B10520
:1017F800E316D6FC014582804105C105E310D6FCFD
:1018080001458280B717004003C777051377E70FB4
:10181800A38BE704130700F8A38DE7043D47238C47
:10182800E70413075003A38CE7048280B71700402E
:1018380003D587005D715ED64205418186C6A2C484
:10184800A6C2CAC04EDE52DC56DA5AD862D466D274
:101858006AD06ECE9377050C13070008814B638E10
:10186800E718130700046392E716B7240D8F7D89E4
:1018780093840480B3D4A4029167938707E8BE9445
:10188800A167938707D0B3D4F402EFE0825A970791
:101898000300938727039043D443EFE0420EEFE021
:1018A800D21B2A8B939C040103D9018893DC0C0179
:1018B80063150900056913090980B7170040130764
:1018C80070052380E704130780FA2380E7040F10CC
:1018D80000000547371A0040939D0401096C85668E
:1018E8002389E704D14A814E8145130D0A04130860
:1018F8007005130680FA894893DD0D01130C0C71ED
:101908002943FD1623000D012300CD000F10000010
:1019180023162A0323000D0083472A05898BEDDF50
:1019280083570A0583472A05898BEDFF83472A05D4
:10193800898BEDDF83570A0523902189C207C1836C
:10194800338597419319050193D90941638609168F
:101958003387B9026350070E850EC20E93DE0E015F
:1019680063EAD80D63DB050A3305B040931505011A
:10197800C185C204C18063D9350BB717004013076E
:1019880070052380E704130780FA2380E7040F100B
:1019980000000965130505713385A50223967703B1
:1019A800238007043345950242054181B640264409
:1019B80096440649F259625AD25A425BB25B225C9B
:1019C800925C025DF24D61618280B1E3B77489096E
:1019D8007D8993840480B3C4A4029167938707E840
:1019E800BE94A167938707D0B3C4F402EFE06244C2
:1019F80097070300938787ED79BD970703009387BF
:101A0800E7EB856403AB07009384843861BD130B4F
:101A18000000954441BD3A89F5B5B387FC409399D8
:101A2800070193D90941B1B70965130505713385D4
:101A3800A9028DBF3385B74163E4FC003385FD40BF
:101A4800330585033344B503634583001315040147
:101A5800A9BF4E8536C642C432C2EFE0A273DA850A
:101A6800EFE02244EFE0E26C931E050193DE0E41A5
:101A7800B307D941C207C183056E3E871246224883
:101A880089482943B24663E3C70136874207418341
:101A9800631A270113071900634430011307F9FF7C
:101AA80042074183FD1A93FAFA0FCA8BCE85E39455
:101AB8000AF62390E18859BF0145CDBDB71700400C
:101AC80003D587005D7186C642054181A2C4A6C2BE
:101AD800CAC04EDE52DC56DA5AD85ED662D466D216
:101AE8006AD06ECE02C69377050C13070008638F81
:101AF800E714130700046393E712B7240D8F7D8959
:101B080093840480B3D4A4029167938707E8BE94B2
:101B1800A167938707D0B3D4F402EFE08231970727
:101B28000300938727DA9043D443EFD05265EFE060
:101B3800C2722A89939A040103DB218893DA0A0185
:101B480063150B00056B130B0B80B71700401307C9
:101B580070052380E704130780FA2380E7040F1039
:101B680000000547939B04018969056A2389E704F6
:101B7800D14D014D814C93DB0B01938909717D1A7D
:101B88005A8597200020E78020D3330C5541420C1A
:101B9800135C0C412391618963030C16B3079C0302
:101BA80063D3070E050D420D135D0D01894763ECE4
:101BB800A70D63DD0C0A33059041931C050193DCE6
:101BC8000C41C204C18063DA8C0BB71700401307BD
:101BD80070052380E704130780FA2380E7040F10B9
:101BE80000000965130505713385AC023247239659
:101BF800E702238007043345950242054181B64038
:101C0800264496440649F259625AD25A425BB25B5C
:101C1800225C925C025DF24D61618280B1E3B7742F
:101C280089097D8993840480B3C4A402916793874A
:101C380007E8BE94A167938707D0B3C4F402EFE026
:101C4800421F97070300938767C8F1BD97070300F2
:101C58009387C7C6856403A9070093848438D9BDD0
:101C6800130900009544F9B53E8B19BF3385AA4086
:101C7800131C0501135C0C41A9B70965130505710F
:101C88003305AC028DBF63FEAA00330575413305E9
:101C98003503A9473344750363C887001315040146
:101CA800B1BF3385AB40E5B76285EFE0A24ECA8588
:101CB800EFE0221FEFE0E247131D0501135D0D4120
:101CC8003307AB41420741838565BA876363B70031
:101CD800D287C207C183639A670193071B006344D5
:101CE80080019307FBFFC207C183FD1D93FDFD0F14
:101CF8005AC6E28CE39A0DF62391F18845B701455F
:101D0800FDBD41112A83014E930E407E130F001929
:101D1800930F400663ED6E0A9308001913034006FB
:101D2800B3781503854E0D4FA14F337365020D89A6
:101D38001335150063E7BE0C1308F6FF7946729851
:101D48004208135808013307C70213D61700BE0705
:101D580032976146B3F6C60213068070B386C60290
:101D68003697A166F58F42075D8FB717004083C687
:101D7800F70293F60608A307D1000346F10083C6CD
:101D8800F70293F60608E394C6FE8346F10093F63D
:101D9800F60FF1DE930670052380D704930680FAC8
:101DA8002380D7040F10000023AA070383C6170354
:101DB80093E60608A388D702D8DB03C7170313677F
:101DC8000704A388E70223800704410182807D136A
:101DD8003368E3039308E016630E08003368F303DF
:101DE8009308D016630808009378330093B8180056
:101DF8009388D81633081E01131E0801135E0E01BE
:101E080011BF6393E503054863860800014863032F
:101E180003002A8871087298FD15131E0801C2056F
:101E2800135E0E01C18139B713F8150063F4BF00C2
:101E38007908D5B713381800E5BF914763EEB702A4
:101E480017070300130707A98A05BA959C41BA9793
:101E58008287B717004003A7470B1345F5FF698F23
:101E680023AAE70A03A7070B698F23A8E70A03A792
:101E7800070A798D23A0A70A8280B717004083A696
:101E8800470B1347F5FFF98E23AAD70A83A6070B3A
:101E9800558D23A8A70A83A6070A758F23A0E70AEA
:101EA8008280B717004003A7470B498F23AAE70A88
:101EB80003A7070B1345F5FF45BFB717004083A6D7
:101EC800470B1347F5FF758F23AAE70A03A7070AED
:101ED800598D4DB7B717004003A7470B498FEDB78A
:101EE800914763EEB702170703001307E79F8A05B8
:101EF800BA959C41BA978287B717004003A7470D48
:101F08001345F5FF698F23AAE70C03A7070D698F0F
:101F180023A8E70C03A7070C798D23A0A70C8280C0
:101F2800B717004083A6470D1347F5FFF98E23AA7C
:101F3800D70C83A6070D558D23A8A70C83A6070CDD
:101F4800758F23A0E70C8280B717004003A7470DC1
:101F5800498F23AAE70C03A7070D1345F5FF45BFD3
:101F6800B717004083A6470D1347F5FF758F23AABF
:101F7800E70C03A7070C598D4DB7B717004003A707
:101F8800470D498FEDB7B717004003D587004205C5
:101F980041819377050491EB9377F5013755E80173
:101FA800130505803345F50282809377050C1307E6
:101FB80000046397E7009377F50137459C1CCDB77C
:101FC8002165130505D08280B7F700E0C8439C4718
:101FD8008280814737370040A14663C4C7003285F5
:101FE80082800345B740E38EA6FE3385F50003459E
:101FF800050085072304A740CDB7973700209387AE
:10200800E7359C43176700201307C78B3E95636E1F
:10201800E50017670020130767DE6368A700173716
:102028000020232DA7323E858280FD57EDBF411148
:1020380022C406C62A84813F2947B307E502B24075
:102048008D83B3D7870222449507B3D7E702373782
:102058000040C207C1832316F740410182807165A1
:1020680041111305052006C6D937B73700401307B5
:1020780070F82381E7400D47A381E7401307000468
:10208800A380E74005472387E740B24041018280AB
:102098002D4549E703C705008947631DF706D84161
:1020A800411106C683471700034707003285A20778
:1020B800D98F4167130627FE6384C7046369F60056
:1020C80005176382E7022390060029453DA0130601
:1020D80047FE638CC7021517E397E7FE95472390E1
:1020E800F600154629A0D5472390F6005546CC455D
:1020F80097200020E78020160145B24041018280E8
:1021080085472390F6000546DDB7CD472390F600B6
:102118004D46F1BF2390060005458280828083C723
:10212800850093F70702E1E3411106C622C426C2DF
:102138004AC003C9050009432E888547631B690205
:1021480003A345003284B684834713000343030086
:10215800A207B3E767004163130E13FE6382C70348
:102168000D13638B67040D681308289063850707B0
:10217800A947B2402244924402493E8541018280E7
:10218800AD4765FB5547B547E365D7FE0325C8004E
:102198005546A28597200020E780E00B01499387E8
:1021A80041899843814771D7184361D72686A2850C
:1021B8004A850297814775BFAD4745FF5547B547E3
:1021C800E369D7FA0325C8005546A2859720002061
:1021D800E7806008E9B72244B24092440249854743
:1021E80041016F805114A1473E858280416779176C
:1021F800630CE502411122C406C685472A84639A06
:10220800F50022852244B2409385818841016FA060
:10221800216489476396F5008545EFC0511175D152
:10222800B2402244410182808280411122C42A8422
:102238004165938581887D1506C6EFA06161170504
:1022480000001305E5FA0588EFC0F10505C0224432
:10225800B24097360020938666BC4146C54517357F
:1022680000201305A5AA41016FA0C152B240224423
:1022780001454101828009C523AAA18801458280C0
:10228800454582801147636EA70697F6020093863C
:10229800E6660A0536951841411106C63697AE8797
:1022A800B285028755476145639AE700554613850D
:1022B80001A897200020E78000FA0145B2404101BB
:1022C800828005476145E39BE7FE05461385418803
:1022D800CDB755476145E393E7FE5546138581A978
:1022E800C9BF4D476145E39BE7FC4D46138501ABEC
:1022F800C9B715476145E393E7FC15461385C188BF
:102308004DBF09458280411122C42E84938581885E
:1023180026C206C6AA84EF80C17B058915C19737F6
:1023280000209387A79E83D7A70BA285B2402310CE
:10233800F400224426859244014641016F902160B1
:10234800B24022449244494541018280238C01884D
:1023580023AE0188B717004003A7070CB706C0FFD4
:10236800FD16758F23A0E70C03A7070DB7064000DD
:10237800558F23A8E70C03A7070C3D9B23A0E70C68
:1023880003A7070D1367070123A8E70C828023AE74
:10239800A18813064006894503C5018A6F40C11408
:1023A800B717004003A5470C83A7470C598113456D
:1023B8001500C18B058999E31365250083C78189B9
:1023C800638CA700238CA18801C99387C18903A3C3
:1023D80007006303030002838280411106C6EFF001
:1023E800EFC4BD4763F4A700EFF04FC4EFF00FED63
:1023F800BD4763F4A700EFF06FECB24083D52188A6
:1024080003D5018841016F4001374111939625009A
:10241800AA852D4506C697100020E7806079B2404E
:10242800014541018280411126C29394250022C4AE
:102438004AC02A843289A686AA850146254506C649
:1024480097100020E780C076A6864A86A28529458F
:1024580097100020E780C075B24022449244024998
:10246800014541018280011122CC06CE371400407B
:1024780026CA4AC84EC652C483447405034AB405E2
:102488008349840503499405EFF0CFB78347A40532
:1024980093F4F40F137AFA0F93E71700230DF4045B
:1024A80093F9F90F1379F90FB717004003C7A70578
:1024B800058B6DFF03D5C705A38D4705238C37050D
:1024C800A38C2705A38B9704F2406244D244424967
:1024D800B249224A0561828041119397050122C4BD
:1024E80006C6C1872E8463DA0700EF30312D19C183
:1024F800EF3031262165218D1DA093F7150013C5F6
:10250800150091EF93F7250099CF593D1306000A5E
:10251800894503C5018AEF30317D13452400B24057
:102528002244410182809397250163D00702EF502E
:10253800E26F653537F60200130606E0896503C5C4
:10254800018AEF30717A09657DB7939715010145C6
:10255800E3D707FC17F5020013050540EFE0E20F8B
:1025680013060064916503C5018AEF30F1771165A0
:1025780059B71D71494697F50200938565391705C6
:1025880003001305E57086CEA2CCEF30B15C01E9FB
:1025980017F5020013050539EFE0220C01A037F703
:1025A80000E0F9575CC7FD571CCB0564B7E700E0AE
:1025B80023A087109306701014C3B843C146B4C350
:1025C80023A08718B8C30F1000001306C003814565
:1025D8004808EF301152974700209387678F3ECA0B
:1025E800ED47A301F1029307A0102312F102D1478E
:1025F8002303F102A167938707E03ECE9707000007
:102608009387E7E0BEC497070000938707E2BEC63A
:1026180085472304F102B5472308F1029707000014
:102628009387C79A3EDAB7F50700970700009387A4
:10263800C7E33EDE814697070000938747DA7000BC
:10264800E1051945BEC0231C810097100020E780D2
:10265800205658088147994670003E960346060062
:1026680085070507A30AC700E398D7FED24791C795
:102678000357810185676373F70001A04808EF409D
:102688004125AA8501C917F502001305E52AEFD0EF
:10269800926801A0F64066442561828041111705C1
:1026A80000001305A5E306C622C4EF40011F1384EA
:1026B800018A2300A400312851390345040022442B
:1026C800B24037F60200130606E0896541016F3013
:1026D800B161411122C406C6371400409306700543
:1026E8002300D404130780FA2300E4040F10000029
:1026F8008347F40293F7A70FA307F4022300D40437
:102708002300E4040F1000008347F40293E7270036
:10271800A307F402D9311305407E2300040481473E
:102728000147814605468545EFF0AFDD2244B240BA
:10273800014541016F402147411197F502009385FA
:10274800252517F502001305A53B06C6EFD0B25C98
:1027580017F502001305C53BEFD0F25B2945EFD012
:10276800925FB24041016F304017411197F5020066
:102778009385452017F502001305853806C6EFD066
:10278800925913050002EFD0125D2945EFD0B25CD3
:10279800EF3071198567138607773376C502B24023
:1027A8009387873803C5818A854541013E966F30F6
:1027B800B153411197F502009385451A17F50200A8
:1027C8001305053406C6EFD0125513050002EFD0E5
:1027D80092582945EFD03258B24003C5818A8545C1
:1027E80041016F3071679747002083C7777B41119C
:1027F80093F7E70F06C617470020A303F77AEFA061
:10280800C00D05E1EF20902FEF300069B240372668
:10281800090003C5818A1306067C854541016F308E
:10282800B14CB24041018280411197F50200938575
:10283800651517F502001305A52C06C6EFD0B24D95
:102848002945EFD05251B240410171BF411197F56E
:1028580002009385651117F502001305652A06C65F
:1028680022C426C24AC0EFD0124B2945EFD0B24E3F
:10287800EFA0A00619E52244B24092440249410162
:102888009DB7972400209384A46ABC487574717915
:102898007D14239027012391870017250020130515
:1028A800256DEFD04076FC44172500201305456CB4
:1028B80023900700EFD08073BC581725002013051C
:1028C800256D2390270123918700EFD0C073FC5416
:1028D800172500201305C56B23900700EFD0007162
:1028E80083A70409172500201305856C2390270169
:1028F80023918700EFD0207183A7C40817250020F3
:102908001305056B972400209384446D23900700DA
:10291800EFD0C06D9C48268523902701239187001E
:10292800EFD0606EDC442244B240024926859244CE
:102938002390070041016FD0606B411197F50200A9
:102948009385C50517F502001305851B06C622C425
:1029580026C2EFD0523C2945EFD0F23FEF90F077F6
:1029680005E997F502009385650317F5020013053D
:102978002519EFD0523A17F502001305251BEFD0A1
:1029880092392244B2409244294541016FD0B23C69
:1029980013050002EF10400C2A8405E197F50200A8
:1029A8009385C5FF17F5020013058515EFD0B236DC
:1029B80017F5020013050519D9B7A547A300F500B7
:1029C8009307C0125CC1FD572306F500EF10A0075E
:1029D8002300A400084CB705D4009385851A310557
:1029E800EF105059084C834504003105EF308067DB
:1029F800084C930500103105EF300068044C05655C
:102A0800EF009026B104AA852685EF30A065084C12
:102A1800930510123105EF302066084CC165FD158D
:102A28003105EF306065084C930520123105EF3011
:102A3800A064084C9565938505E23105EF30C063C5
:102A480022852244B240924441016F10800693F7D8
:102A58001500B9CB411122C417F502001305450A28
:102A68002E8497F502009385A5F706C6EFD0B22A03
:102A78002945EFD0522EEF90506601C97D3D134590
:102A88001400B2402244410182809747002083C746
:102A9800375193F7E70F93E7170017470020A30173
:102AA800F750EF203007E1BF01458280797197F533
:102AB80002009385E5EF17F502001305650406D6B5
:102AC800EFD072252945EFD01229614681452800AB
:102AD800EFE0FFB6EF003077A547A304F1009307B6
:102AE800C0123EC6FD572304A100230AF100EF904F
:102AF800D05E1DE597F50200938585EB17F502007A
:102B080013050500EFD0322117F502001305050261
:102B1800EFD072202945EFD01224B250456182804F
:102B28002800EF00F0792800EF1060022800EF106D
:102B3800E00AE5B7411197F50200938565E817F5B6
:102B480002001305E5FB06C622C4EFD0D21C2945B6
:102B5800EFD07220EF9070581DE597F5020093852D
:102B680025E617F502001305A5F9EFD0D21A17F5D7
:102B780002001305A5FBEFD0121A2244B2402945E2
:102B880041016FD0521D4145EF00106D2A8405E1C7
:102B980097F502009385C5E217F50200130545F67F
:102BA800EFD0721717F502001305C5F9E9B7A54765
:102BB800A300F5009307C0125CC197070300938731
:102BC800A7515CC9FD572306F500EF00D067230025
:102BD800A400084CB705D4009385851A3105EF1079
:102BE8007039084C834504003105EF30A047084C84
:102BF800BD65A5053105EF302048084C9305300226
:102C08003105EF30204622852244B24041016F0051
:102C1800506A411122C497F502009385A5DB2A84E6
:102C280017F502001305C5ED06C6EFD0D20EA28532
:102C380017F502001305C5EEEFD0F20D2945EFD0C8
:102C4800921185476309F4008947630AF400B2408A
:102C58002244410182802244B240410181BD224484
:102C6800B2404101C1BD0111354697F50200938577
:102C7800A5DE17F502001305655906CE22CCEF3004
:102C8800616D0DE597F50200938585D617F502006D
:102C9800130505E7EFD0320817F50200130585C8BC
:102CA800EFD0B21B2945EFD0120B01A097370020B7
:102CB800938707973EC48567938707803400170674
:102CC80003001306E64197F502009385A51317F54F
:102CD80002001305A5143EC6EF20300C2A840DC946
:102CE80097F502009385C5D017F50200130545E155
:102CF800EFD07202A28517F502001305E5D6EFD0D2
:102D080092012945EFD03205F24062440561828084
:102D1800EF80D01817F50200130585CEEF10F02BC1
:102D2800EF50D00EEFF00022172500201305452A9A
:102D3800EFF0E00E17F50200130585CDEFF0402205
:102D48002A84EF208006EFA0D049EF104140EF30F1
:102D5800201CEF20C061EFD0A02697F502009385D4
:102D680025C917F502001305A5D909C8EFD0A27A1D
:102D7800A28517F50200130565D151B7EFD0A279E6
:102D880017F502001305C5D2EFD0E2782945EFD038
:102D9800827CEFD04009EF90503429C597F50200A6
:102DA800938505C517F50200130585D5EFD0A276E2
:102DB80017F50200130545D1EFD0E2752945EFD08C
:102DC800827997F502009385A5C217F502001305CD
:102DD80025D3EFD0427417F50200130525D1EFD0A3
:102DE800827305B7EFF03FA0E9BF411106C6EFA017
:102DF8007217EF10202E17050000130585C5EF3058
:102E0800D1292384A18A172500201305251DEF0049
:102E1800D065913DEFF08FD3170500001305A5DFAE
:102E2800EFF0EFD6B240814505654101B1A54111EA
:102E380097F50200938585D217F50200130545CC56
:102E480006C622C4EFD0226D1384E18183550400A5
:102E580017F50200130585DFEFD0E26B2945EFD0A7
:102E6800826F03550400B2402244410182803971C7
:102E78001C0822DC3EC22E84B7072000A16526DA92
:102E880093850526AA843EC448001C0806DE3EC673
:102E9800EF10500E0565613FAA854800EF30C01D50
:102EA80097F50200938585CC17F50200130545C5F3
:102EB800EFD06266835584000356640017F502005C
:102EC8001305C5D5A18193F5F507EFD0C26429454F
:102ED800EFD06268834794000147814693F7F7076C
:102EE800D917B337F000B307F0402305F4005000BA
:102EF800A2852685EF10902815C52A8497F502002B
:102F08009385C5C617F50200130585BFEFD0A260EB
:102F1800A28517F502001305E5D1EFD0C25F294558
:102F2800EFD06263F2506254D25421618280411121
:102F380022C426C22A84AE8417F50200130545BCB4
:102F480097F502009385C5C306C6EFD0C25C13058A
:102F58000002EFD042602945EFD0E25F228522448B
:102F6800B240A6859244410119B7397122DC4AD88A
:102F78002E844ED681453289AA896146280006DE0C
:102F880026DA52D456D2EFE08FEBEF00D02BA547CC
:102F9800A304F1009307C0123EC62304A100EF303A
:102FA8008118930720033375F50297F5020093857E
:102FB80025BE814497FA0200938A8AC5154A2AC811
:102FC80017F502001305C5B3EFD0E25483270900B3
:102FD800835584008306840003C7270083C737000E
:102FE80003566400A181A2075D8F93F5F50717F5D5
:102FF8000200130525BFEFD002522945EFD0A25594
:10300800832709005685A69783C507008504EFD056
:103018008250E39744FF032709008347370003479B
:103028002700A207D98F239FF1808347940029475F
:1030380093F7F7076385E700FD57230AF100831725
:1030480064006359F000FD57230AF1009307400616
:1030580002C83EC62800EF007038A2854E85013DA3
:10306800F2506254D2544259B259225A925A2161AA
:103078008280011197F50200938585B217F5020049
:10308800130505A832C606CEEFD0E24813050002A4
:10309800EFD0624C2945EFD0024C0565493B3246DA
:1030A80018428347170083460700A207DD8E63078F
:1030B800D50003470700D98F239FF180F2400561AF
:1030C8008280239FB1808280411197F50200938509
:1030D800E5B817F502001305A5A206C622C4EFD06D
:1030E8008243138401828355040017F502001305F7
:1030F800E5C4EFD042422945EFD0E245035504002C
:10310800B24022444101828039711C0822DC3EC24F
:103118002E84B7072000A16526DA9385E524AA84C2
:103128003EC448001C0806DE3EC6EF10A0640565D4
:10313800613FAA854800EF20307497F50200938517
:1031480025B317F502001305A59BEFD0C23C8355A4
:1031580084000356640017F50200130525ACA1810D
:1031680093F5F507EFD0223B2945EFD0C23E8347C0
:1031780094000147814693F7F707D917B337F00052
:10318800B307F0402305F4005000A2852685EF1010
:10319800E07E15C52A8497F50200938565AD17F57D
:1031A80002001305E595EFD00237A28517F5020056
:1031B800130545A8EFD022362945EFD0C239F25081
:1031C8006254D25421618280411122C426C22A84C9
:1031D800AE8417F502001305A59297F502009385B2
:1031E800A5AA06C6EFD0223313050002EFD0A236F7
:1031F8002945EFD0423622852244B240A685924422
:10320800410119B7397122DC4AD82E844ED681453E
:103218003289AA896146280006DE26DA52D456D2B7
:10322800EFE0EFC1EF003002A547A304F1009307D8
:10323800C0123EC62304A100EF20F16E93072003BD
:103248003375F50297F50200938545A5814497FAF1
:103258000200938A6AAD154A2AC817F502001305B9
:10326800258AEFD0422B83270900835584008306E3
:10327800840003C7070083C7170003566400A181B1
:10328800A2075D8F93F5F50717F502001305C5A68C
:10329800EFD062282945EFD0022C832709005685F4
:1032A800A69783C507008504EFD0E226E39744FF7D
:1032B800032709008347170003470700A207D98F90
:1032C8002390F18283479400294793F7F707638592
:1032D800E700FD57230AF100831764006359F000E3
:1032E800FD57230AF1009307400602C83EC628008E
:1032F800EF00F005A2854E85013DF2506254D2548C
:103308004259B259225A925A21618280011197F585
:1033180002009385E59917E502001305657E32C61C
:1033280006CEEFD0421F13050002EFD0C222294576
:10333800EFD062220565493B3246184283471700A1
:1033480083460700A207DD8E6307D5000347070001
:10335800D98F2390F182F240056182802390B18257
:10336800828039711C0822DC3EC22E84B7072000F7
:10337800A16526DA3EC4AA841C0893854520480026
:1033880006DE3EC6EF10003FB717004083A5470C86
:103398004800B18193C515008589EF20B04C97F599
:1033A80002009385E59A17E5020013056575EFD0CD
:1033B8008216835584000356640017F5020013052E
:1033C800E585A18193F5F507EFD0E2142945EFD003
:1033D8008218834794000147814693F7F707D91766
:1033E800B337F000B307F0402305F4005000A2857E
:1033F8002685EF10A05815C52A8497F502009385F5
:10340800259517E502001305A56FEFD0C210A28518
:1034180017F5020013050582EFD0E20F2945EFD01A
:103428008213F2506254D25421618280411122C425
:1034380026C22A84AE8417E502001305656C97F549
:1034480002009385259206C6EFD0E20C1305000210
:10345800EFD062102945EFD0021022852244B240F5
:10346800A68592444101F5BDB717004083A7470CD4
:103478007D8D133515008280411126C2AE848D459D
:1034880022C406C62A84EFE0BFA5B717004099C832
:1034980003A5C70C418D23A6A70CB2402244924431
:1034A8004101828003A5870C418D23A4A70CF5B7A1
:1034B800011197F502009385E58C17E502001305C5
:1034C800256432C606CEEFD0020513050002EFD000
:1034D80082082945EFD022083246B717004083A753
:1034E800470C1842B1838345070093C71700858BA3
:1034F8006386F500F24005650561BDBFF2400561D0
:103508008280797122D426D22E844AD0814532898C
:10351800AA846146280006D6EFE06F922D23A547BE
:10352800A304F1009307C0123EC62304A100EF20B4
:10353800913F930720033375F50297F502009385B1
:1035480065832AC817E502001305855BEFC0B27CC6
:10355800835584008306840003566400A18193F593
:10356800F50717F5020013052586EFC0D27A29451D
:10357800EFC0727E83270900056583C50700ED3D0E
:1035880083479400294793F7F7076385E700FD57BA
:10359800230AF100831764006359F000FD57230ADA
:1035A800F1009307400602C83EC62800112BA285E9
:1035B8002685453BB2502254925402594561828077
:1035C80041118D4522C406C62A84EFE07F91B717C2
:1035D800004003A5870CB240218D224423A4A70CE8
:1035E800410182800111354697E502009385C54661
:1035F80017F50200130585C106CEEF20B15501E984
:1036080017E502001305857EEFD0220501A0EF50D3
:1036180032012AC6EF00B175EF00F154EF70C042D5
:10362800F24032450561828041111305800406C6C7
:1036380097000020E780202D371700408327870A4E
:103648008D451305002093E707202324F70AEFE0B0
:10365800CFFEEFE0DFA017F5020013056563EFC0AA
:10366800D27F17F50200130565BAEFC0127FEFE0AD
:103678005FF0EFF0AF82BD37EFF02FF79700002033
:10368800E780C046014582804111B2862E86AA8510
:103698002D4506C697000020E7808051B2400145BD
:1036A80041018280AE860146AA8525451703002080
:1036B800670003509307000463E6C7021D71A2CC9C
:1036C8002A84080886CE32C6EFC09259B24610083E
:1036D800A285294597000020E780804DF640664482
:1036E8002561828039558280014797F602009386CA
:1036F800668C3388E5008347080005070905918330
:10370800B69783C70700230FF5FE83470800BD8BD4
:10371800B69783C70700A30FF5FE93170701C18368
:10372800E3E9C7FC8280411197E50200938585771C
:1037380017E502001305C53C06C6EFC0D25D1305A8
:103748000002EFC05261B240294541016FC0B2602A
:10375800411197E502009385E57217E5020013050C
:10376800253A06C6EFC0325B13050002EFC0B25E11
:10377800B240294541016FC0125E411197E5020030
:103788009385056F17E502001305853706C6EFC058
:10379800925813050002EFC0125CB240294541015E
:1037A8006FC0725B411197E502009385A56B17E521
:1037B80002001305E53406C6EFC0F25513050002F2
:1037C800EFC07259B240294541016FC0D25841112A
:1037D80097E502009385456817E502001305453211
:1037E80006C6EFC0525313050002EFC0D256B240CE
:1037F800294541016FC032565C49411122C406C6B1
:103808002A8491C7DC4381C72E850C4882971C4CBB
:10381800C84BEF2001741C4CB240224423AA070075
:10382800410182804111328506C622C426C22E84F7
:103838004AC0EF20900DAA8497E50200938585651C
:1038480017E502001305C52BEFC0F24C03078400EF
:103858000356640083554400A68617E50200130545
:10386800A578EFC0524B2945EFC0F24E173400201F
:103878001304446B173900201309C97083470400E7
:10388800639B970081452285853F8345C40103C515
:10389800A18AEF20715C13040402E31124FFB240F3
:1038A800224492440249410182801D7197370020C9
:1038B80083C70769CEC686CEA2CCA6CACAC8D2C458
:1038C800ED8F973900209389E965D9EF9737002064
:1038D80083C70769ED8FD9EB9737002083C7476AFD
:1038E800ED8F0145B5CB8947939457001C103EC412
:1038F800B70720003EC6171A0020130A2A6E1C10AC
:103908003EC88327CA0002CA02CC02CE83D707006A
:1039180033849900184C231BF100FD77231CF10018
:103928005C4B2E89B1E797E502009385A55A17E508
:1039380002001305E51CEFC0123E17E5020013054F
:103948002562EFC0523D2945EFC0F240B387990088
:1039580003C5C7013345A900F6406644D644464925
:10396800B649264A256182808147BDBF8547ADBFDC
:1039780083471400A555B9CFFD17035607014C47D7
:10398800A300F4008347C4002800230FF100EF20B0
:10399800806B5285228797F602009386E674300082
:1039A8004C08EF00B07D2A8A55D197E5020093852F
:1039B800655217E502001305A514EFC0D235D2856C
:1039C80017E502001305855AEFC0F2342945EFC008
:1039D8009238D55522850D3595BF9C4DDC4B81CB52
:1039E800D04183C5C50103C5A18A6F20F12F82800C
:1039F8001C4EDC4BA1CBB9C5411126C217E502000C
:103A080013050510AE8497E502009385E54B06C6BD
:103A180022C43284EFC03230A68517E502001305B0
:103A2800A55AEFC0522F2945EFC0F2328345C40191
:103A38002244B240924403C5A18A130640064101BC
:103A48006F20912A82809387918A03C50700130704
:103A580015002380E7008280011122CC1734002052
:103A68001304444C26CA044C06CE4AC8DC484EC649
:103A780099CF045CDC4895CB244CDC488DCB0145C0
:103A8800F2406244D2444249B24905618280014908
:103A9800AA891609EF20A14EC8C8330524011C4D78
:103AA80023993701DC4BE9FFD9BF0549D5B7094947
:103AB800C5B710458345C50103C5A18A6F20D1222A
:103AC800411126C2AA84414506C622C4713705E9B8
:103AD80097E502009385054117E5020013054502A5
:103AE800EFC0722317E502001305C505EFC0B22227
:103AF8002244B2409244294541016FC0D225614613
:103B0800A6852A84EFC0D215084CB705D400938542
:103B1800851A3105EF001046084C83C504003105AD
:103B2800EF204054084C930500103105EF20C05495
:103B3800044C0565EFF05F93B104AA852685EF2054
:103B4800605222852244B240924441019DB74111FE
:103B580026C2AA84414506C622C4FD3D05E997E56B
:103B680002009385653917E50200130565F9EFC072
:103B7800921A17E502001305E5FCEFC0D21922449A
:103B8800B2409244294541016FC0F21C6146A685A6
:103B98002A84EFC0F20C084CB705D4009385851A27
:103BA8003105EF00303D084C83C504003105EF2096
:103BB800604B084C930510123105EF20E04B044C84
:103BC8000565EFF06FD0B104AA852685EF20C04ABD
:103BD80022852244B24092444101E1BD411126C2EE
:103BE800AA84414506C622C4853D05E997E5020039
:103BF8009385053217E50200130585F0EFC0B21171
:103C080017E50200130505F4EFC0F2102244B24094
:103C18009244294541016FC012146146A6852A8441
:103C2800EFC01204084CB705D4009385851A3105F6
:103C3800EF005034084C83C504003105EF20804262
:103C4800084C930520123105EF200043044C05650C
:103C5800EFF0EF9DB104AA852685EF20E04122858B
:103C68002244B24092444101A9B5B707B180938775
:103C7800871A17370020232FF730B7A70017938725
:103C880087AA173700202329F730B797EB3D15711E
:103C980093875703173700202322F730881093079C
:103CA800002586CF17370020232CF72EA2CDEF0052
:103CB8009137B7A7A880938707A011464C00281012
:103CC8003EC2EFF07FA297E502009385A52508186C
:103CD800EFC07219194697E502009385E52B130585
:103CE8001103EFF07FA097E502009385A523130544
:103CF800D103EFC05217414697E502009385252A64
:103D08001305E103EFF05F9E130660032C10881083
:103D1800EF00313885476308F50A97E50200938577
:103D2800651917E502001305A5DDEFC0C27E17E58A
:103D380002001305651FEFC0027E2945EFC0B201DE
:103D4800EF20613E9357850003C7918AAA97BA97D7
:103D580013570501BA976181AA97A384F18A973707
:103D680000209387E716173700202329F71C85477B
:103D7800173700202306F71C97370020938707176B
:103D880017370020232CF71C8947173700202309F1
:103D9800F71C973700209387271717370020232F02
:103DA800F71C17050000130585B091471737002049
:103DB8002308F71CEF20712EFE406E442385A18A4C
:103DC80001452D6182802A848C102800EF009132F1
:103DD8006301850297E502009385C50D17E502008A
:103DE800130505D2EFC0227317E502001305451528
:103DF80099B741462C00173500201305A518EFC0C8
:103E080022663DBF2A86B305B04017E502001305B8
:103E180025296FC0427083D7C18B6390A702239F67
:103E2800B18A2390C18C2391D18C2E8617E502008C
:103E380013050525BE856FC0026E17E50200130540
:103E4800A5256FC09201797106D619C589476308FF
:103E5800F50CB25045618280280097000020E78069
:103E6800803F8345810017E5020013056530EFC0E8
:103E7800826A8347810005476383E7048DCF09473A
:103E88006387E706EFE09FC217E502001305052FD9
:103E9800EFC0A27C83D5018217E502001305C52F68
:103EA800EFC0626783D5E18117E50200130505308D
:103EB800EFC0626679BF0565EFF08FF0E1B7056581
:103EC800EFF08FDA61D1416783D70182130767D793
:103ED8009305F0286367F700938797289395070160
:103EE800C18105652390B182EFF04FC761BF0565B9
:103EF800EFF08FD741D983D5E1819307904963FCCF
:103F0800B700938525F4C205C1810565239FB1805B
:103F1800EFF02F9B85BF9565938505CAFDB72800EF
:103F280097000020E7802033EFE0DFC017E50200AC
:103F38001305C528EFC0627229BF03574500011158
:103F480006CE83D7C18B631FF702C167F91789456E
:103F580003C5C18223AEF18A23A0018CEF20C16F73
:103F6800914503C5C182EF20216F85471306F100F3
:103F7800854513055030A307F100EF90A255F24094
:103F88000561828017E5020013050511EFC0E26C98
:103F9800FDB77D15954763EEA71217E702001307D3
:103FA800A70C0A053A951C41411122C406C6BA97C6
:103FB8002E84828717E50200130505102244B240BB
:103FC80041016FC0826903C725009947631CF70048
:103FD8002E85A5378345640017E502001305C50E35
:103FE800EFC0625317E502001305C50FC1BF03C731
:103FF800250095476312F702C16703D7C18BF917EC
:1040080003D5A500630FF700EF90827317E5020050
:104018001305450EEFC0626417E50200130505108D
:1040280071BF239EA18A83D7E5000966130606900F
:10403800239FF18A83D7050103C5C1822390F18CA0
:1040480083D72501A1452391F18CEF20E14905662D
:10405800130606C8914503C5C182EF20E1480356FF
:10406800E4008355A40017E502001305E509EFC035
:10407800824A5DB717E502001305050B81B783C5B2
:10408800250091476397F50017E502001305450BD6
:1040980035B79947639FF500228545358345640008
:1040A80017E50200130545022244B24041016FC0E2
:1040B80082469547639AF50083471400F1F717E5A0
:1040C80002001305A509DDBD17E5020013058509E2
:1040D800E1BF82801D71170500001305651E86CE9D
:1040E800A2CCA6CAEF20617B9384C182994705447C
:1040F8002380A4002310F102700093074006854531
:1041080013055030231CF10223068100EF90823CF6
:10411800171600201306C6F0F14513057030EF900E
:10412800623B138601839D4513056030EF90823A08
:104138001010894513051031EF90C23930188945A0
:1041480013052031EF900239930500050D45EF4026
:10415800E155930500051145EF404155301891454B
:10416800130570402300810023028100230681008B
:1041780002DC23000102EF80C2320A86854513055E
:104188000040EF8002325000854513051040EF8053
:1041980042311010854513052040EF8082307000B1
:1041A800854513055040EF80C22F7D55EF600116FD
:1041B8007D55EF80C1667D55EFE02F8717160020EB
:1041C800130686E4D5450145EF60610655468145ED
:1041D8000810EFD0CFC689475546814528182300D7
:1041E80081022300F100EFD08FC58D474D468145F0
:1041F8006800230CF102EFD08FC491472306F10029
:1042080093878187984383C747001010D545014598
:104218003AC22304F100EFE0EF860A86854505459A
:10422800EFE04F863018D5450945EFE0AF857000BF
:10423800CD450D45EFE00F85500095451145EFE060
:104248006F84C1671387C18BF9171CC3232207002A
:1042580013858182EFE02F821385C18AEF704202B5
:1042680003C504008545EF208115F6406644D64411
:1042780025618280011122CC2E862A842315B10063
:1042880001478146ED4503D5C18B06CEEF60A13EBF
:104298000356A100A2852AC697000020E780A0FB4C
:1042A8002C0003D5C18BEFE00F8609C5ED4528002A
:1042B800EF604154F24062440561828079719397BE
:1042C800050122D406D6C1872E8463DF070003C503
:1042D800C182EF10B14E19C1EF10B1472165218D90
:1042E800B25022544561828093F7150091CF17167A
:1042F80000201306A6D09385418B03C5C182EF80A9
:10430800527113451400E9BF93F725009DC71306A2
:104318000064894503C5C182EF20011D4D468145D2
:104328006800EFD0CFB1930780F86800CD45230629
:10433800F10089371345240065B793F7850085C3D5
:1043480083C7C18213074006814613064006994574
:1043580003D5C18BEF8052651345840051B793F79D
:1043680045000145B5DF03D5C18BEF90223D0566B9
:10437800130606C8914503C5C182EF20E11613450F
:104388004400B9BFEFD20FA72A8408452E89B28905
:1043980009C900C1970500009385C5746105EFF050
:1043A800F06D81447D5AEF10C00563C3A4048144B5
:1043B800EF10200663C6A40497370020938747BFF1
:1043C8009C43DC47B307F94091872302F4006381DB
:1043D80009048327C900B307F4409587A302F400B2
:1043E8001C4C89C79C4799C3228582976FD0CFA35D
:1043F8005C44139714008504BA972390470165B766
:104408001C48139714008504BA97239007004DB7EA
:10441800832789000547B307F4409587A302F40072
:1044280083570400638EE7028DC309476384E7045A
:104438000D47E397E7FA97E702009387E72B1CCC31
:1044480097E702009387472C11A897E70200938704
:1044580027F21CCC97E70200938787F25CC849B71C
:1044680097E702009387C7DD1CCC97E70200938784
:1044780027DEEDB797E702009387C72C1CCC97E798
:1044880002009387272DD9BF85E1EFD24F980046C8
:1044980018448347940075839D8B6315F700EF00DC
:1044A800101B48C46FD0EF988280EFD2AF94138965
:1044B8003500C16442094111AA890144F114135914
:1044C8000901054A2EC6EF00D073B2456346A40021
:1044D800014541016FD04F9583A7090013171400B8
:1044E800BA9783D707006388B7006394970063740B
:1044F8002A010504C1BF0545E9BFEFD2CF8EAA89BD
:104508002E89328BB6843A8ABE8AEF80003D55C127
:104518002685EF10302F8D4763E5A7007D556FD0B6
:104528000F9083DB4400EF00D0732A84EF00B0744F
:104538009307740031443305850263C5A702EF0071
:104548005072EF0010722A84EF00F0729307740023
:1045580031443305850263CDA702EF0090709307BD
:10456800450019A8EF003071330585021307F017CD
:104578009307C017E357A7FC2D55E3C277FB6300E9
:104588000B02D6865286A6854A85EFE0D05041BFF9
:10459800EF00706E330585029307C5FFF1BF8327CF
:1045A80049001385C90083D52700EFF01FF071F982
:1045B800B5B76955ADB797370020239DA79E9737A4
:1045C80000209387E79E904381470C463307F50008
:1045D800420741836393B70082805446139847008B
:1045E8008507C2962390E600D5B7973700209387B2
:1045F800279C9C4303C587008280173500200355FC
:10460800659B8280EFD2AF80C1671387D7FF6307AE
:10461800E5026368A700F117630EF50001456FD046
:104628004F811387E7FF630EE500FD171D8D1335D6
:104638001500F5B7EF4000367D15D5BFEF40801364
:10464800E5BFEF40E011CDBFEFC27FFC4111AA8466
:1046580001442EC6EF00F05BB2456346A400014555
:1046680041016FC01FFD9C48131514003E958357E8
:104678000500E387B7FE0504E9BF034855008146F6
:1046880093F7F60F63E5070181473E858280584519
:1046980093975600BA9703D727006316B70003D736
:1046A8000700E304C7FE8506E1BF834645000147CE
:1046B8009377F70F63E4D700814711A81C451316B9
:1046C80057000507B29703D60700E313B6FE3E85E9
:1046D8008280EFC23FF293170501C187973A002005
:1046E800938A0A8D6355F00883A70A00C0479C4740
:1046F80003570400198D420541816366F5000144A2
:1047080022856FC07FF212052A94DDBFDC4713941F
:104718004900014A3E94834744006341FA02014A32
:10472800834754006347FA028509C20993D90901EE
:1047380083A70A009847E3EBE9FCD1B71C44131997
:104748005A00A6853E994A85EFF01FF011ED050A3B
:10475800D9B75C4413195A00A6853E994A85EFF0EB
:10476800BFEE19E1050A6DBFE30009FC51BFAA8439
:1047780081497DBFEFC2BFE91C452A8481E79307C1
:10478800C5001CC51C44231204001CC09307F00F6D
:1047980063E9B70093F5F50F2285EF10B00C6FC0F1
:1047A8005FE993940501C167C18063F7F500A685A9
:1047B8002285EF10D00EE5B7C18193F5F50F22855C
:1047C800EF10500AA6852285EF10100BC9BF972756
:1047D80000209387E77D884382801C4599C79727E7
:1047E800002023A7A77C014582807D5582809727DA
:1047F80000209387E77B9843834745004847920703
:104808003E958280EFC2BFE0617100451C183EC62C
:10481800B70780013EC81C183ECA8357440002CE21
:1048280002D002CC231EF100834784002A8902D2D9
:104838002301F1023C083ED402D6EFF05FFB835718
:1048480005002316F102EF3070642307A1025C40D3
:1048580003556400F18313F717008347F1025205EB
:104868005181F99BD98FA307F102EFE0301439C5C4
:10487800AA8403550500EF80200783D704002AD2B5
:104888006800231CF10083D72400231DF1001C4875
:1048980003D647008C43EF10007B8347B400CA86D9
:1048A80017E60200130646938117A305F4006C006F
:1048B8004810EFE0501E5D616FC0BFD72155E5BFBE
:1048C8001C45B1CF03C5A700894613576500630B84
:1048D800D7028D46630ED70285466300D7021307B9
:1048E80040063305E50203C7B700418B15CB83C7E4
:1048F800B700BD8B3355F54082801375F503130758
:10490800803EC5B709671375F50313070771D1BF53
:10491800372709001375F5031307077CD9B7014535
:104928008280EFC2DFCE03A98500630509048347AF
:10493800B900AE8493F7070E91CF0345990093050C
:1049480020030D810505B305B50288446105EFF024
:10495800D01E0DA02E85EFF0BFF62A8401CDC52903
:104968008325C900B307B54063F887002E94B305C3
:10497800A440E1FD6FC0FFCB8545C1BFEFC23FC971
:104988002A8403D50500011132C636C43AC22EC0A6
:1049980002CA02CC02CEEF70307582452ACA22853F
:1049A8002ECCEFF0DFE403570500231EE100EF30C3
:1049B800F04DA24632469247230FA10036874C0895
:1049C800B28622850146EFF05FB305616FC07FC6EE
:1049D800EFC2FFC361711C183EC6B70780013EC80D
:1049E8001C183ECA3C0800453ED4AA8402CC02CE1C
:1049F80002D002D202D6EFF09FDF83570500355967
:104A08002316F102EF3090482307A10209C4835707
:104A1800440091E721594A855D616FC09FC10355E4
:104A2800640052055181EFE060782A8965D5834793
:104A3800B40093F7070E89C713058401EFF07011CE
:104A480083574400231EF100834784002301F102A9
:104A58005C4003550900D98313F7070883471102FF
:104A6800231CA10093F7F707D98FA300F1028357FE
:104A78002900231DF1005C40F18313F717008347D9
:104A8800F102F99BD98FA307F102EF70F0652AD2E2
:104A980051D1834794006800139757008347B400A7
:104AA800FD8BD98FA305F4001C4803D647008C431F
:104AB800EF106059A68717D702001307E771740033
:104AC80005464C102685EFF05FA32A8929D5834730
:104AD800B400A685FD8BA305F400EFF09FE425BF85
:104AE800EFC2FFB2832485FE2A8441112685EFF0A8
:104AF8003FDD834734FF93F7070E9DC32AC62685FB
:104B0800EFF05FD019C9834734FFB245FD8BA30985
:104B1800F4FE81C52285EFF0500241016FC07FB1DC
:104B28006DDD8327C4FF2685829765F9834734FFA7
:104B380093F7070E81C72285EFF0B001032584FEA5
:104B4800EFF01FE9D9BFEFC29FA99C4141112A8903
:104B580003C7070089472E8493566700638CF602C3
:104B68000D466382C6049307F0076302F7022E8599
:104B7800EF10A059AA848149C16B130C49009727EB
:104B880000209387E7429C43984763ECE902410180
:104B98006FC0BFA803D745008547E3FAE7FE2E8517
:104BA800EF10805AC1BF03D74500E3F2E7FE2E8518
:104BB800EF10A055AA842285EF108056C204C98C34
:104BC8005DBFDC470355A900139A49003E9A931725
:104BD8000501C187635DF00083570A006395A7024A
:104BE80063E574038327CA00034D5A001DA0A1671B
:104BF8002167A98F1307F7EFE374F7FE63950900A0
:104C0800EFF05FA071FD85099DBF83278A00034DE2
:104C18004A00835DA90003576900216A138BC70006
:104C28003AC6814A33CA4D01631E5D0197270020A9
:104C3800938787389C43E1DBA28662868145268577
:104C48008297D1B7A1679387F7EF930C4BFF63F077
:104C58004703B2455A85EFF05F8519CD03278B00CE
:104C6800104719CA10436380C4023107D5BFEE85C7
:104C78006685EFF07F9D71FD93861A0093FAF60F13
:104C8800130B0B0255B7835644005C43E3EDF6F66D
:104C980022853AC6EF106036A1679387D7042A8A1F
:104CA800035D4400324763E897008347D90093E7E0
:104CB80007F8A306F9001C4766852286E2858297D5
:104CC800C1670844FD17337AFA00529508C02312C9
:104CD800A40115BF972700209387872D9843814704
:104CE80015C31447814763FFD500939745004C4788
:104CF800BE9519C903C7550081476375E600DC45B1
:104D08001606B2973E85828003C745008147E37B3C
:104D1800E6FE16069C45F5B7EFC2DF8DAA892E8AF6
:104D28008144972A0020938AAA2883A70A009847D3
:104D380063E4E4006FC05F8FDC47139444000149CB
:104D48003E9413BB140083474400634BF9000149A8
:104D580013BB140083475400634FF9008504F1B76F
:104D68000844931759005287DA860146A2853E9572
:104D780082990509C9BF4844931759005287DA86B2
:104D88000546A2853E9582990509E9B7EFC23F8895
:104D9800814517F5FFFF1305255F97270020239B03
:104DA8000720EFF07FF76FC0DF88972700209387F1
:104DB80027209C4381CFEFC29F85814517F5FFFFD0
:104DC8001305855CEFF05FF56FC0BF868280EFC288
:104DD8007F8241112315E1002E89B284B6893A8673
:104DE80081460147ED452A84EF50F1082AC61DCDBA
:104DF8000356A100CE85EFB0A266CA852285EF5082
:104E0800514D058915C1228501462C0023149100B6
:104E1800EF60F1322A8409C5ED452800EF50911D55
:104E2800228541016FC05F804944FDB76554CDBFFD
:104E38005C41FD175CC18280EFC26FFDEF106157C6
:104E480095473305F50281450D816FC08FFEEFC28E
:104E58000FFCEF10015695473305F5020D816FC021
:104E68004FFDEFC2CFFA03550500EF2041676FC031
:104E78004FFCEFC2CFF9035505003287AE861706FF
:104E88000020035686209725002093852513EFF0F0
:104E98001FF46FC00FFAEFC28FF7EF80720A6FC06E
:104EA8004FF9EFC2CFF69725002093852511EF70B3
:104EB800311A01456FC0EFF7EFC26FF5814517054D
:104EC800002003558518EF50517E6FC08FF6EFC252
:104ED8000FF4972500209385650FEF707117014532
:104EE8006FC02FF5EFC2AFF28145170500200355BB
:104EF800C51BEF50917B6FC0CFF3EFC24FF12E85EA
:104F0800EF60E04CEF6030026FC0AFF2EFC22FF0FD
:104F1800EF60100C6FC0EFF15C49E1175CC95CC52C
:104F280083572501A1072319F50083570501A10718
:104F38002318F5008280F1473305F50297270020F2
:104F48009387C70A9C433E9582808D476317F60670
:104F580003D74600854763F2E706EFC24FEB368575
:104F680036842E89EF10601A39C183574400931490
:104F78000501C18063ED97022285EF100019FD1429
:104F8800231294009307A002630EF5009307B00262
:104F98006301F50293079002631BF5002285EFC0B9
:104FA800307031A00146CA852285EF80A0036FC00A
:104FB8004FE82285EF005056DDBF828097260020FB
:104FC800938606039C42014599CF9843D4421726FD
:104FD8000020232FE6006396D7009726002023ABF6
:104FE800E6001385C7FE8280EFC26FE2D9267144BE
:104FF800330585029145EF70005701E565556FC08F
:105008004FE39727002023A1A7FE652633058502D5
:105018009145EF7040557DD19727002023A8A7FC24
:10502800492E97270020239BA7FA6126972700205F
:105038002397A7FA97D702009387471F17270020BF
:105048002322F7FA97070000938747ED17270020D8
:105058002328F7F8014565B7EFC26FDBAA85172546
:1050680000201305A5F7EF10201E6FC08FDCEFC2DC
:105078000FDAEFF07FFEEF10A01E9727002093872E
:1050880027F79C4381CF1387C7FE09CB83D5C7FF7A
:1050980017250020130545F6EFF0202A6FC06FD9B9
:1050A800EFC2EFD6EFF09FF119C9834785002A8434
:1050B80093F7070499E70355E500EFF05FFB6FC02E
:1050C8004FD78347C50093044501172900201309CA
:1050D80029F285E3832709005CC99727002023A9C3
:1050E80097F083274900E1FF9727002023A497F032
:1050F800F9B7FD172306F5006105EF60E072830735
:10510800840063C907048347840093E707F82304EE
:10511800F400EF1041014205A94741813375F502BA
:105128008347840093F707FCC98F2304F40083475F
:10513800D4003E951C402318A40089CF984319CB6E
:105148008347C4005040814585073305F502420571
:1051580041810297832709005CC89727002023A96B
:1051680097E88327490089E79727002023A497E831
:105178008347C400A9D783550401172500201305C8
:10518800A5E7EFF0801B25BFEFC26FC89727002067
:105198009387C70B9C4701448583858B81EFAE8439
:1051A800B2853A86EF1020112A8409C5EF1020082D
:1051B800829408CC22856FC0CFC7EFC2AFC341111C
:1051C8002E8932C6AA89712C324713060502CA866F
:1051D80097050000938565D617250020130505E07F
:1051E800EFF09FFA2A8429CD9304C5004D2619466D
:1051F800AA852685EF00306585452685EF00106273
:1052080017D50200130545004E95834505002685F0
:10521800EF0050655C4831468145A1075CC85CC415
:1052280083572401E1172319F40083570401E11778
:105238002318F4001C4C3E85EFC06FC0A304250161
:10524800228541016FC04FBEEFC26FBC4111AA84D5
:105258002EC632C4EF100000004DB24522468347E7
:1052680084000CC050C093F7F70393E707042304A6
:10527800F400231804002685EF00707B8347940010
:10528800A9462317A40013D7370005073307D70209
:105298009D8B85072306F400A306E40083C7040159
:1052A800D8488507230FF7FE17270020130747D490
:1052B8005843232A0400930744011DEB17270020B5
:1052C800232AF7D2172700202324F7D217240020F7
:1052D800130484D22285EFE0107C1C44858B5D8DFD
:1052E80009E581452285EFF0400541016FC06FB4A3
:1052F8001CC317270020232FF7CEC9BFEFC22FB139
:10530800970500009385A5C40145EFF01FBF01452F
:105318006FC02FB2EFC2AFAFEFF05FBF6FC06FB11A
:105328008347C500A1E7EFC28FAE2A840355E50085
:10533800EFF09FD215C98347840093F7F7FB230446
:10534800F4001C4091C7DC4381C74C40014582975B
:10535800EFF0DFC617250020130505CAEFE0707FC0
:105368000355E400EFF0BFD06FC0AFAC8280EFC24E
:105378000FAA972700209387A7C797050000938552
:1053880065D217250020130525C723A0070023A2EF
:105398000700EFE0B06E6FC0CFA91C4D91CBDC4386
:1053A80081CBEFC2CFA68345070082976FC06FA855
:1053B800828097270020938767C69C4303C5070010
:1053C800828097270020938767C59C4303C51700F1
:1053D800828097270020938767C49C4303C52700D2
:1053E800828097270020938767C39C4303C54700A3
:1053F800828097270020938767C29C4303C53700A4
:10540800828097270020938767C19C4303C5570074
:10541800828097270020938767C09C4303C5670055
:10542800828097270020938767BF9C4303C5770036
:10543800828097270020938767BE9C4303C5870017
:10544800828097270020938767BD9C4303C59700F8
:10545800828097270020938767BC9C4303C5A700D9
:10546800828097270020938767BB9C4303C5B700BA
:1054780011E11D45828097270020938727BA9C4316
:1054880003C5C700828097270020938727B99C43CC
:1054980003C5D700828097270020938727B89C43AD
:1054A80003C5E700828097270020938727B79C438E
:1054B80003D50701828097270020938727B69C434E
:1054C80003C52701828097270020938727B59C432F
:1054D80003D54701828097270020938727B49C43F0
:1054E80003D56701828097270020938727B39C43C1
:1054F80003D58701828097270020938727B29C4392
:1055080003C5A701828097270020938727B19C4372
:1055180003C5B701828097270020938727B09C4353
:1055280003C5C701828097270020938727AF9C4334
:1055380003C5D701828097270020938727AE9C4315
:105548008857828097270020938747AD9C4303D5CF
:10555800C702828097270020938747AC9C4303D5D6
:10556800E702828097270020938747AB9C4303C5B7
:105578000703828097270020938747AA9C43C85B2C
:105588008280972700209387E7A8884382809727FF
:105598000020938767A88843828019E17D5582801F
:1055A800F5DE984265DFFDD917270020130707CAE3
:1055B8001847AA877155058B6316072203C507008C
:1055C8001547E37DA7FC03C737001305F0057D17D2
:1055D8001377F70FE364E5FC03C35700E30003FC0C
:1055E80083C86700E38C08FA03C777004945791731
:1055F8001377F70FE364E5FA03C7A700114813050B
:10560800F7FF1375F50FE36BA8F803CE97000D4865
:105618001305FEFF1375F50FE362A8F803C8B7007A
:105628006309080065181378F80F1305600DE36720
:1056380005F703C5C700794879151375F50FE36FAA
:10564800A8F403C8D7000D457D181378F80FE36751
:1056580005F503D80701930E40175118420813584F
:105668000801E3ED0EF303C8E7007D181378F80F7F
:10567800E36605F303C827017D181378F80FE36F75
:1056880005F103C88700C54E75181378F80FE3E7CE
:105698000EF103D86701856E938EBEE06D1842083F
:1056A80013580801E3EC0EEF03D847016D184208C0
:1056B80013580801E3E40EEF03D88701791842086C
:1056C80013580801E36C05ED03C8A7017D1813788A
:1056D800F80FE36505ED03C5B7011D487D15137582
:1056E800F50FE36DA8EA03C5D7017148791513755D
:1056F800F50FE365A8EA03D5E7011308E00F7D1568
:1057080042054181E36CA8E803C5070249487915B9
:105718001375F50FE364A8E883AE470237C5340074
:105728001308F5BFE36CD8E703A88702130555BF34
:105738005918E36505E717250020232FC58C03C6F4
:10574800050117250020232BF58C0545E378C5E4D2
:1057580003D82501D04933760603E31106E403C6CE
:105768001501E30D06E2172600202325B68A83C516
:10577800270001466387A50003C61700F1453306D5
:10578800B60283C707039305C00272971A07130767
:10579800C70516031A9796084697B387B702415567
:1057A8003E97329742074183636EE802EFB23FE6C5
:1057B8003685EF607065EFD030142A84EF80901240
:1057C8002A94EFC010182A94EF60F07C2A94EFF026
:1057D800BF812A94EF2010612A94EF5060622295CD
:1057E8006FB03FE58280EFB29FE24111A307A100AD
:1057F800EF8060139305F10017050000130525BA23
:10580800EFF08FD1014541016FB0BFE2EFB2BFDDCC
:1058180017240020130484A303288400795993686B
:1058280018009724002023A714A313781800631ED8
:105838000800BA84BE89368B328A2E89AA8AEFE09C
:10584800DFDA7D15269509E531594A856FB03FDDC8
:10585800EFE0BFD97D152695A167E357F5FE972799
:1058680000209387A7D598433E8C814B11C70145EB
:10587800EFC03031933B15004A85DA865686D285CB
:10588800EF70502C2A8911CD1C44F99B1727002052
:105898002322F79C83270C00CDDBE3880BFA829741
:1058A8006DB726859727002023A4079AEFE0BFD07D
:1058B8004146CE85172500201305C5A2EFA0523A10
:1058C800EFA0407D0325040BEFA0407F0545EFA026
:1058D80050050545EFF03FF18DBF972700209387CE
:1058E800E7969C47858BD5C7EFB27FD21725002056
:1058F8001305859D9727002023AA07949727002042
:1059080023A807949727002023A60794EFE0702484
:10591800EF30D07FEFE0007CEFE090009727002089
:10592800938747919C4381C70545EF605029971796
:1059380000209387E7799C4389C741657D15EF501F
:10594800C067EFC0F02CEFA0C075972700209387A1
:10595800E7A49C431397170163540700EFC020384E
:105968009727002023A007989727002023AE0796A3
:105978009727002023AC07969727002023AA07968D
:10598800EFF05F999D23EFF06FC0EFC0005A6FB042
:105998005FCA8280EFB21FC62A84930414020111E1
:1059A8002E85B289A685214636C63A89EFA0F22807
:1059B8001DE1B24638082686CE8513059404EF40CB
:1059C800404121462C084A85EFA03227133515009F
:1059D80005616FB07FC50145E5BFEFB25FC39305B1
:1059E8004506171500201305A563EFE010156FB0E5
:1059F8005FC4EFB2DFC141112EC6EFF04FC5B2450B
:105A080088C141016FB0FFC2EFB2DFBEAA842E8405
:105A1800EF60B06FAA8985452285A92583C7E4016F
:105A28001389940899E313890403CE8522851D2DD3
:105A38002146930519022285392597270020938747
:105A4800E7808C432285EF006068214693858402B5
:105A58002285D52B6FB05FBDEFB2FFB83971EFC0AB
:105A680020439305400645EDEF603067630E05104F
:105A78009717002083C7875C13B717009716002075
:105A8800238EE65A014489CFC164171900201309EF
:105A9800E97B9309400EFD14EFF0BF9A6348A40810
:105AA800EFF0EFBA4169B7290900096AFD7A2A8B34
:105AB80081447D199389F97B130A0A71938A8AC7ED
:105AC800EFF03F9863D5A4041304400EB387840213
:105AD80017170020130787770324070B3E94835773
