:040000006F10801CE1
:1000040000000000000000006F0080086F00202541
:1000140000000000000000000000000000000000DC
:1000240000000000000000000000000000000000CC
:100034006F004006000000006F00E00500000000B3
:100044006F0080056F0060056F0040056F0020059C
:100054006F0000056F00E0046F00C00400000000A2
:100064006F0060046F0040046F0020046F00000400
:100074006F00A0266F00C003000000006F00600343
:100084006F0040036F0020036F0000036F00E00265
:1000940001A001A001A001A001A001A001A001A054
:1000A40001A001A001A001A001A001A001A001A044
:1000B40001A001A001A001A001A001A0B717004068
:1000C400130770052380E704130780FA2380E704ED
:1000D4000F1000002396A70223800704371700405F
:1000E40083472705898BEDDF8357070537170040C2
:1000F40083472705898BEDFF371700408347270582
:10010400898BEDDF035507058280B71700409306FE
:1001140070052380D704130780FA2380E7040F10A7
:10012400000003C6B7041376F60DA385C704238025
:100134000704137605023DCA03C6A700118A1DE20F
:100144002380D7042380E7040F10000003C7A7000F
:10015400136747002385E7009307004B0100010064
:10016400FD17EDFFB7170040930670052380D704F1
:10017400130780FA2380E7040F1000007D8923947D
:10018400A70001000100010001002380070423806F
:10019400D7042380E7040F1000003727004093069C
:1001A4001005A303D78023800704828013760504F7
:1001B4006DDE03C6A700418A1DE22380D704238095
:1001C400E7040F10000003C7A70013670701238586
:1001D400E7009307007D01000100FD17EDFFB7174D
:1001E4000040930670052380D704130780FA238008
:1001F400E7040F1000007D89136505042394A7000C
:100204000100010001000100238007042380D704BA
:100214002380E7040F1000003727004093063005C1
:1002240049B74111814601468145114506C651220F
:10023400B7170040130770052380E704130780FAFB
:100244002380E7040F10000003C767041367170037
:100254002383E70423800704B2404101828081465E
:10026400014681451145B122B71700409306700538
:100274002380D704130780FA2380E7040F100000BB
:100284007D562396C7022380D7042380E7040F10EA
:10029400000003C76704136717002383E704238060
:1002A400070401A0BD473305F50201007D1575FD66
:1002B4008280411122C426C206C6AA84014463175F
:1002C4009400B24022449244410182800504130503
:1002D400803E4204C13F4180DDB7B7170040130799
:1002E40000032388E702854723AEF188730020309A
:1002F400411106C69929FDBF2303048095472303B2
:10030400F4802302A480828083076480E3CE07FE06
:1003140023030480828083076480E3CE07FE0345C1
:100324004480828083076480E3CE07FE2302A48096
:100334008280411126C44AC24EC006C61377F50B0B
:10034400AD47AA892E8995446306F70019456D3790
:10035400653F8D444E854D37FD59FD146398340136
:10036400B240A244124982494101828013550901D5
:100374001375F50F453F2209CDB7011126CC06CEE2
:10038400B704080051371545853F713769372AC6C8
:10039400A53F32459377150089EB13651500137556
:1003A400F50FF240E24405618280FD14E9FC014549
:1003B400CDBF397126DC4ADA4ED852D656D45AD239
:1003C4005ED062CEB7E700E006DE66CC6ACA41477B
:1003D40083AB070422C6B8C37D5703AB070083AAC7
:1003E400470023A0E71823A2E718B7170040130714
:1003F40070052380E704130780FA2380E70483C78A
:100404004704130C75FFB684E207137CFC0F854682
:100414002A8A2E89B28937240040E187015763FA7A
:1004240086016308D5008946130700026313D500CB
:100434000157D98F93F7F70F371D00402302FD04AE
:1004440011472303E4801305F00F7D35894C6D3D7E
:1004540063EB8C11B70707003E993787070079557E
:10046400637EE902B3079900636AF702A947631C34
:10047400FA0689E48144493D26850DA0CA850945CB
:100484004D3D850903C5F9FFFD140509613D81C48E
:100494009377F90FFDF7D53569FD7D55B717004002
:1004A400130770052380E704130780FA2380E70409
:1004B40003C74704418B2382E704B7E700E023A086
:1004C4007705F25023A0671123A25711E254324456
:1004D4005259C259325AA25A125B825B724CE24C94
:1004E400524D21618280A5476314FA0685699307FA
:1004F400F00FB3869700B374F900B69493C7F7FF6F
:10050400FD8C33F92701416A056C9387F9FFB3F732
:10051400270199E363FC340193D94900C147E3E619
:1005240037FF89BF8567C169FD17E1B71305800DE2
:1005340063884901130500026384890113051008C7
:10054400CA85C53B1D3D31D94E99B3843441D9B7D1
:10055400CA852D45F93BCE94E38E99F08509653B18
:10056400A38FA9FED5BF9307FAFF93F7F70F63ECA8
:10057400FC0803475D04B70708001377070219E373
:10058400B78707007955E37BF9F033079900E3E770
:10059400E7F089476310FA048980554AE38C04EC38
:1005A400CA8509457933910903A7C9FF91472320D7
:1005B400E48003076480E34E07FE23034481FD17B0
:1005C400EDFBFD14110981C49377F90FE9FF75332D
:1005D40071F5E1B58547E307FAF4CA852D45913BEA
:1005E4001389F4FFE38804E83D339377390091EBF2
:1005F4008326048003A7090093874900E39DE6E668
:10060400BE89CA84F1BFB5476316FA001305900B7F
:10061400E5318DB5B1471305B00AE30BFAFE9947EE
:10062400631EFA02CA852D45293381440D4C214AA3
:10063400DD31639684018327048023A0F9008504B7
:10064400E39844FF832704801317290163550700A7
:100654002392F90005B523A2F90029BD9D4763192A
:10066400FA0281451305B004E931BD4423A0090011
:1006740023A209007D59453193F77400CE9703C72F
:100684000700FD14398D2380A700E39624FFDDB312
:10069400A1476312FA04D5318144630D09008D47E3
:1006A4009304C0036308F9009304000563049901EB
:1006B400930440041375C507E30E95DA19452D39E3
:1006C400A131054515392685B1390945A139753159
:1006D400E31205DAD9B391476319FA0013056006EA
:1006E40021391D311305900925B7E3050AD8F154C2
:1006F40059B309CDB7170040130770052380E704E9
:10070400130780FA2380E7042396A702828019C185
:10071400814799E982803387F500834607003307D0
:10072400F50085072300D700E397C7FEE5B719C195
:10073400FD5781E98280910503A7C5FF1105232E8A
:10074400E5FE7D16E319F6FEF5B7797122D4173468
:1007540000001304A4901C4006D626D24AD04ECEE4
:1007640091C782979737000023AA078E5C4089CBF4
:1007740003D5418DBD3F5C40829703D5618D953F84
:100784001C40639907189737000083C7379F858BF0
:1007940095C797370000A383079E173700000347C8
:1007A400179E914763FCE700792B9737000083C7B6
:1007B400179DF9178A07A2979C43829797370000E1
:1007C40083C787A0918B89C7970001E0E780E05F2A
:1007D4001C4491C382979387018D98431736000078
:1007E400034696853E89973400009384E4849737C2
:1007F400000083C7678493961700BA9683D60600D1
:10080400638006109737000083C7078363F2C70825
:1008140086073E97835507002310070003D5418DB3
:100824002EC6239E018CF1359387818E9C43173508
:1008340000000345658013172500BA979C43B24511
:100844008297AA8903D5618D6D359727000083C7E8
:10085400A77E139717008327090003D5C18D13457D
:10086400F5FFBA9703D7070033753501598D2390E7
:10087400A70083C70400850793F7F70F1727000025
:10088400230CF77A172700000347177B63E6E7007A
:10089400972700002382077A1C40ADEF9387018ECF
:1008A40098433E8425CB9737000083C7978D91CB1F
:1008B4009737000083C7B78C89E7970001E0E7808A
:1008C40080011C4082972A8431C59C48AA97172727
:1008D4000000232BF7769387418E9C4385CF03D565
:1008E400418D013D228597F0FFDFE78040DB2254F4
:1008F400B25092540259F24903D5618D4561D5BB7A
:10090400850793F7F70F972600002387F672E3E035
:10091400C7EECDBDB250225492540259F2494561FA
:1009240082809167B7C600409387373023A6F620AC
:100934000F1000009727000093870770884F938754
:10094400019D9C43316713073730F053B7071000FC
:10095400FD17918F99833A0523A6E6205D8D828049
:100964004111B7170040985F3AC6945F3247E39C41
:10097400E6FE324541018280411106C6D5379726ED
:10098400000083C6E668858AB1C69307303333070F
:10099400F502B337F5023983CA07D98F1727000048
:1009A40013078769584B01456303F7023385E74012
:1009B400636BF70037653D0889C637856F081305F3
:1009C4000590198D3E95172700002321F768B24042
:1009D40041018280E5473307F502B337F5022583E9
:1009E400DE0765BF0327C50F8346B50097270000C0
:1009F400938787789C4F5843938616029582904339
:100A0400FD1693F6F60F10C3D04350C3904710C79A
:100A1400D04750C7904B10CBD04B50CB904F10CFFA
:100A2400D04F50CF91C61307070293870702C1BF67
:100A340082808347E50193F7E70FF1EF2A870345A7
:100A4400F50171E9034607018346870009CA834516
:100A5400A7029727000083C7B75B63E7F50093F706
:100A64000601C5CF814709CA834787150346771511
:100A7400C18AA207D18F81CA8346B7150347C71518
:100A84002207558FBA97D1CB172700001307477A4F
:100A94003847411122C406C67D548326070863F3F0
:100AA40086003684184375FB172700000347475612
:100AB40093168701E18663D906029387C71395834A
:100AC4001727000003476755BA9763D006041D8CA7
:100AD4009387C18E9C4382973335A400B24022444D
:100AE4001345150041018280058B9387C71209CBFA
:100AF4008A079387F7031305D007B3D7A702C9B7AB
:100B04008607FD071305D003CDBFE372F4FC370558
:100B1400C0A82A946DBF014582808280411122C4FD
:100B24001384019C18404AC006C61C5F26C2138960
:100B3400C19B9983858BC1C31C5F97240000938458
:100B4400A46393F7F7F91CDF9727000083C7C762F4
:100B540093F707048DC39387C18E9C43829797278D
:100B6400000023A3A76283C7040093F7F70B17279A
:100B740000002303F760854717270000A300F760F0
:100B840083C7440093F7070481EF9387019D9C4337
:100B9400D844B8D3930700FC172700002300F75E5E
:100BA4008387640063D90700832709009C431727C0
:100BB40000002306F75C18401C5F8583858BC9CB36
:100BC400F5571CDF010001000100010001000100D4
:100BD4000100010001000100010001000100010009
:100BE40001000100010001000100010001000100F9
:100BF40001000100010001000100010001000100E9
:100C040001000100010001000100010001000100D8
:100C140001000100010001000100010001000100C8
:100C240001000100010001000100010001000100B8
:100C340001000100010001000100010001000100A8
:100C4400010001009387019D9C4313075004B8CB16
:100C540018401C5F9183858B89CFBD571CDF938718
:100C6400019D9C4323A807048547172700002307F9
:100C7400F75083270900D8430583058B19C7D84348
:100C8400759BD8C3D843799BD8C3B24022449244BD
:100C9400024941018280397106DE16DC1ADA1ED857
:100CA4002AD62ED432D236D03ACE3ECC42CA46C808
:100CB40072C676C47AC27EC09535F250E25252535F
:100CC400C2533255A255125682567247E2475248D1
:100CD400C248324EA24E124F824F2161730020301F
:100CE4009387019D9443172700001307E748BC52DC
:100CF40089CF83472700858B89EB83473700858B12
:100D0400FDD797270000238B0746828037C7004012
:100D14001306C00393062003972500009385C54559
:100D240083278720C18393F7F7036369F60083273A
:100D34008720C18393F7F70363E6F60083C7450072
:100D4400858BF9DF82809387019D944317270000E8
:100D540013078742BC5289CB83470700858B91CB0D
:100D640097270000238C074097270000A38807409B
:100D7400828083471700858BF1DFDDB79387019D60
:100D8400904337C70040C145E54683278720C18388
:100D940093F7F70363FBF50083278720C18393F759
:100DA400F70363E4F6003C52EDF382801387019C61
:100DB4001843AA87185F1583058B25EF0345150093
:100DC40015051377C51F19C6B386E70083C6260029
:100DD4002300D60095C59726000083C6463A93F6AD
:100DE40006040945A1CAB386E70083C63600054652
:100DF40093F5F6066390C504E206E18663CC060229
:100E04003385E7008347150003470500A20793F7DE
:100E14000770D98F1397070141839376074099C6CA
:100E2400136707802394E19C014582802394F19CFD
:100E3400E5BF054582809386019D8C4236859726C1
:100E4400000093866633984593170701C18313788E
:100E540017203E86630408041377072079C303C769
:100E6400260013671700172800002308E83013072B
:100E74000019B8D1130700F8972500002380E53046
:100E84001387019C0C4337080010D855719B1367D6
:100E94002700D8D598413367070198C113772610E6
:100EA40005C31376061059CE03C70600136717004F
:100EB400172600002302E62C172700002312072C14
:100EC40083C6460093C7F7FFC207E206E186C183E3
:100ED400184163D106029396170163DE0606305368
:100EE4008D4663E9C6008546172600002308D628E8
:100EF4003453FDFE972600009386461083864601F0
:100F040063DD060093960701C18663DC0604705313
:100F1400894663E4C6007453FDFE1447F58F1CC76D
:100F2400828003C716001367170097250000A38566
:100F3400E5241727000023030724172700002311A3
:100F44000724A9BF03C7360013671700172600003C
:100F5400A305E62295B78546172600002300D6226E
:100F640051BF54471396060163510602B706100099
:100F7400FD1674D3972600009386060C944E8506BE
:100F8400172600002326D60C49BFA166D58F71B75A
:100F9400397106DE16DC1ADA1ED82AD62ED432D2DD
:100FA40036D03ACE3ECC42CA46C872C676C47AC25D
:100FB4007EC05135F250E2525253C2533255A255BB
:100FC400125682567247E2475248C248324EA24EE7
:100FD400124F824F2161730020301727000013073E
:100FE400671B8346B7019727000083C7F71DB69791
:100FF40093F7F70FFD4663EAF6044C4B972600007F
:10100400A38AF6189727000083C7D7180547331714
:10101400F70097260000A389F61A6D8F1DEF972617
:10102400000083C6B61AB3F6D7021305000281473F
:1010340033D6F500058A13F8F70F09CE6399E60055
:1010440097270000A3880715828081177DB70507BD
:101054001377F70F8507E39DA7FC82809387C19DD3
:101064009843B75702009387279F8326070913964F
:1010740056006358060083260709139666006344E6
:101084000600FD17FDF3828051C9AA870145C9C92D
:101094008D07C207C183F19BC207C18313074003B5
:1010A400636BF7021387C1A60843138741A6144351
:1010B4006396A60217270000130747F4185B01453F
:1010C40025C34111C20706C60545DD8D0297B2400E
:1010D400014541018280138781A6F9B70357650052
:1010E40005EF035745006369F702B306F74021464D
:1010F4006370D6021041938687001D8FAA966117EC
:1011040090C22392E6002393060014C12312F50033
:101114002313B50021058280084159BF014582800F
:10112400828001CD9387C1A603A80700938741A6B7
:101134008C430147C28763E3B70082809443636FA3
:10114400F50663EDA60613868700E368C5FE03D59E
:101154006700216605066317C50003C601980506E6
:101164002380C1982393070063840703138681A611
:101174001042630FF6000356670019EA83D747004D
:1011840014C383564700B697A1072312F700BA8702
:101194009843E304B7FA938681A69442E30FD7F801
:1011A40083566700D9FA83D647000356470018438D
:1011B400A106B2962392D70098C382803E87B68751
:0411C4009DBF0000CB
:1011C800974100209381813817710020130101E3B2
:1011D80013054000972500209385456217360020A7
:1011E8001306067E63FAC5008322050023A0550076
:1011F80011059105E3EAC5FE17C501001305C550A1
:10120800973500209385C57B1386818663FAC500D0
:101218008322050023A0550011059105E3EAC5FEC8
:1012280013858186976500209385058B6377B500C4
:10123800232005001105E36DB5FE9302800873A015
:101248000230972200209382625B93E2120073902F
:10125800523037170040930770052300F7049307AF
:1012680080FA2300F7040F1000003C47B70600FA85
:10127800E116F58FB70600069506D58F3CC797127D
:1012880000009382627273901234730020303D43E1
:101298002A876373C3029377F700BDEFADE59376B2
:1012A80006FF3D8ABA960CC34CC30CC74CC741070E
:1012B800E36BD7FE11E28280B306C3408A06970229
:1012C800000096966780A6002307B700A306B7001C
:1012D8002306B700A305B7002305B700A304B7008A
:1012E8002304B700A303B7002303B700A302B70082
:1012F8002302B700A301B7002301B700A300B7007A
:101308002300B700828093F5F50F93968500D58D5D
:1013180093960501D58D61B7939627009702000033
:1013280096968682E78086FA9680C1171D8F3E962C
:10133800E374C3F8A5B7B717004003C77705137759
:10134800E70FA38BE704130700F8A38DE7043D47D5
:10135800238CE70413075003A38CE7048280B71794
:10136800004003D587005D715ED64205418186C67F
:10137800A2C4A6C2CAC04EDE52DC56DA5AD862D41B
:1013880066D26AD06ECE9377050C13070008814B9E
:10139800638EE718130700046392E716B7240D8FCE
:1013A8007D8993840480B3D4A4029167938707E866
:1013B800BE94A167938707D0B3D4F402EFA0C12BE2
:1013C80097C70100938787C09043D443EF90915FFC
:1013D800EFA0016D2A8B939C040103D9818693DCCD
:1013E8000C0163150900056913090980B717004046
:1013F800130770052380E704130780FA2380E704A6
:101408000F1000000547371A0040939D0401096C2E
:1014180085662389E704D14A814E8145130D0A0464
:1014280013087005130680FA894893DD0D01130C23
:101438000C712943FD1623000D012300CD000F1068
:10144800000023162A0323000D0083472A05898BF1
:10145800EDDF83570A0583472A05898BEDFF83470C
:101468002A05898BEDDF83570A0523942187C20754
:10147800C183338597419319050193D9094163863F
:1014880009163387B9026350070E850EC20E93DE24
:101498000E0163EAD80D63DB050A3305B0409315E6
:1014A8000501C185C204C18063D9350BB717004057
:1014B800130770052380E704130780FA2380E704E5
:1014C8000F1000000965130505713385A5022396E1
:1014D8007703238007043345950242054181B640CE
:1014E800264496440649F259625AD25A425BB25B84
:1014F800225C925C025DF24D61618280B1E3B77457
:1015080089097D8993840480B3C4A4029167938771
:1015180007E8BE94A167938707D0B3C4F402EFA08D
:10152800A11597C701009387E7AA79BD97C701005E
:10153800938787A9856403AB07009384843861BDCA
:10154800130B0000954441BD3A89F5B5B387FC40BB
:101558009399070193D90941B1B709651305057135
:101568003385A9028DBF3385B74163E4FC00338519
:10157800FD40330585033344B503634583001315E4
:101588000401A9BF4E8536C642C432C2EFA0E14469
:10159800DA85EFA06115EFA0213E931E050193DEC9
:1015A8000E41B307D941C207C183056E3E87124673
:1015B800224889482943B24663E3C7013687420770
:1015C8004183631A27011307190063443001130785
:1015D800F9FF42074183FD1A93FAFA0FCA8BCE85A9
:1015E800E3940AF62394E18659BF0145CDBDB717A8
:1015F800004003D587005D7186C642054181A2C4BB
:10160800A6C2CAC04EDE52DC56DA5AD85ED662D4BA
:1016180066D26AD06ECE02C69377050C130700080F
:10162800638FE714130700046393E712B7240D8F41
:101638007D8993840480B3D4A4029167938707E8D3
:10164800BE94A167938707D0B3D4F402EFA0C10278
:1016580097C70100938787979043D443EF909136BB
:10166800EFA001442A89939A040103DBA18693DA47
:101678000A0163150B00056B130B0B80B7170040AD
:10168800130770052380E704130780FA2380E70413
:101698000F1000000547939B04018969056A238997
:1016A800E704D14D014D814C93DB0B0193890971FE
:1016B8007D1A5A8597200020E7800020330C554179
:1016C800420C135C0C412395618763030C16B30726
:1016D8009C0363D3070E050D420D135D0D01894769
:1016E80063ECA70D63DD0C0A33059041931C0501DB
:1016F80093DC0C41C204C18063DA8C0BB71700403D
:10170800130770052380E704130780FA2380E70492
:101718000F1000000965130505713385AC023247C7
:101728002396E70223800704334595024205418149
:10173800B640264496440649F259625AD25A425B48
:10174800B25B225C925C025DF24D61618280B1E322
:10175800B77489097D8993840480B3C4A40291670E
:10176800938707E8BE94A167938707D0B3C4F402B0
:10177800EF90917097C701009387C785F1BD97C710
:10178800010093876784856403A9070093848438DC
:10179800D9BD130900009544F9B53E8B19BF3385AF
:1017A800AA40131C0501135C0C41A9B70965130570
:1017B80005713305AC028DBF63FEAA003305754180
:1017C80033053503A9473344750363C887001315E8
:1017D8000401B1BF3385AB40E5B76285EFA0E11FD7
:1017E800CA85EF907170EFA02119131D0501135DD3
:1017F8000D413307AB41420741838565BA8763636F
:10180800B700D287C207C183639A670193071B0099
:10181800634480019307FBFFC207C183FD1D93FD4D
:10182800FD0F5AC6E28CE39A0DF62395F18645B76B
:101838000145FDBD41112A83014E930E407E130FD1
:101848000019930F400663ED6E0A930800191303FD
:101858004006B3781503854E0D4FA14F33736502CB
:101868000D891335150063E7BE0C1308F6FF79469A
:1018780072984208135808013307C70213D6170095
:10188800BE0732976146B3F6C60213068070B38668
:10189800C6023697A166F58F42075D8FB7170040DD
:1018A80083C6F70293F60608A307D1000346F100A2
:1018B80083C6F70293F60608E394C6FE8346F10052
:1018C80093F6F60FF1DE930670052380D70493068E
:1018D80080FA2380D7040F10000023AA070383C6C9
:1018E800170393E60608A388D702D8DB03C71703B4
:1018F80013670704A388E702238007044101828055
:101908007D133368E3039308E016630E0800336819
:10191800F3039308D016630808009378330093B84C
:1019280018009388D81633081E01131E0801135E89
:101938000E0111BF6393E50305486386080001485B
:10194800630303002A8871087298FD15131E0801A5
:10195800C205135E0E01C18139B713F8150063F48F
:10196800BF007908D5B713381800E5BF914763EE73
:10197800B70217B70100130767668A05BA959C4135
:10198800BA978287B717004003A7470B1345F5FF9F
:10199800698F23AAE70A03A7070B698F23A8E70A19
:1019A80003A7070A798D23A0A70A8280B7170040EA
:1019B80083A6470B1347F5FFF98E23AAD70A83A6F8
:1019C800070B558D23A8A70A83A6070A758F23A09E
:1019D800E70A8280B717004003A7470B498F23AA5D
:1019E800E70A03A7070B1345F5FF45BFB7170040E4
:1019F80083A6470B1347F5FF758F23AAE70A03A7AA
:101A0800070A598D4DB7B717004003A7470B498FF1
:101A1800EDB7B717004003D587004205418193779A
:101A2800050491EB9377F5013755E8011305058017
:101A38003345F50282809377050C130700046397FA
:101A4800E7009377F50137459C1CCDB72165130551
:101A580005D08280B7F700E0C8439C478280814761
:101A680037370040A14663C4C700328582800345EA
:101A7800B740E38EA6FE3385F500034505008507CC
:101A88002304A740CDB7973700209387272C9C4382
:101A980017570020130747043E95636EE500176744
:101AA80000201307A7356368A70017370020232FE6
:101AB800A7283E858280FD57EDBF411122C406C686
:101AC8002A84813F2947B307E502B2408D83B3D703
:101AD800870222449507B3D7E70237370040C20789
:101AE800C1832316F74041018280716541111305B6
:101AF800052006C6D937B7370040130770F8238189
:101B0800E7400D47A381E74013070004A380E7409F
:101B180005472387E740B24041018280CC4141110B
:101B280006C6328503C6150083C5050022064D8EFC
:101B380042068D654186138875A2630C060F6348BB
:101B4800C804138845A26306060B634AC800938538
:101B580035A26309B60623900600294679A01388A2
:101B680055A26308060B938565A2E316B6FEC14528
:101B78001D4663ECE5064546198E63F3C7003E86AD
:101B88002390C60097B501009385854789A81388D7
:101B980095A26300060F634E060B1388A5A2630A7D
:101BA800060F938505A5E318B6FA99451D4663EE19
:101BB800E502198E63F3C7003E862390C60093851D
:101BC800C18031A89D451D4663E1E5022146198E75
:101BD80063F3C7003E862390C6009385C186BA95F5
:101BE80097200020E78060320146B24032854101EB
:101BF8008280AD451D46E3EAE5FE3146198E63F362
:101C0800C7003E862390C60097B50100938505431B
:101C1800F9B7B1451D46E3EAE5FC3546198E63F38D
:101C2800C7003E862390C60097B5010093850542FC
:101C38007DB7C1451D46E3EAE5FA4546198E63F3CB
:101C4800C7003E862390C60097B501009385853C62
:101C580079B7C1451D46E3EAE5F84546198E63F3B1
:101C6800C7003E862390C60097B501009385053FBF
:101C7800BDB7C1451D46E3EAE5F64546198E63F34F
:101C8800C7003E862390C60097B501009385C539E5
:101C9800B9B7B5451D46E3EAE5F43946198E63F34D
:101CA800C7003E862390C60097B50100938545344A
:101CB8003DB7973600209386A6E34146CD451735B4
:101CC80000201305E5CF6F70801905E1B287411137
:101CD8002E861385C186BE8506C697200020E7801C
:101CE800C022B24001454101828009458280C84135
:101CF800411122C406C683471500034505002D443B
:101D0800A207C98F0DEFC2070D67C187130547A545
:101D1800638CA7021307D7A52944639BE70085476F
:101D28002390F600DC4583C707002300F600014432
:101D3800938781889C4381C781451945829722856D
:101D4800B24022444101828089472390F60093875C
:101D5800218883D707002300F60083D72188A18331
:101D6800A300F600E9B783A8450079714AD006D6E2
:101D780022D426D24ECE52CC83C7180083C808007E
:101D88002D49A207B3E71701631E070EC2078D6826
:101D9800C18713832890B284638F671C938858A5E2
:101DA80029496391170F3684854783C6D18813095B
:101DB80000086389F60C93162500938781A8B697C7
:101DC80083C72700AA8913091008898BC5CF1389EF
:101DD80081878327490003DAA5001374F40FD1C75C
:101DE8008547A386F188239C41878D47239DF186EB
:101DF8008327490041472380E7000327490083C719
:101E08000400A300F7000947638DE70E6360F7023B
:101E180005476382E708094483274900854503C5C8
:101E2800C18823818700EF10200491A88D46638F15
:101E3800D70E1147E391E7FE8547631CF41083D75B
:101E48002188C18B63870710835729000325490020
:101E580003C68189B297938501890D05239DF18673
:101E680097200020E780600A45BF81462D46F5454A
:101E780003D54187EF40107923AEA18635F1239A27
:101E880031870149B25022544A8592540259F24985
:101E9800624A456182801547636D870A83D7218826
:101EA800898BC5CB6319E40283C7240003C73400B8
:101EB800A2074207BA9703C71400BA9703C744009A
:101EC8006207BA973EC6938781889C43B1CF6C005E
:101ED8000545829791A802C68146014781477D142E
:101EE80063C58700EDD23AC6F9BFB386F40083C64E
:101EF8001600139637008507B396C60036978546B1
:101F0800C5B785476317F40483D72188A18B0D448F
:101F1800E38407F0938781889C4399C781450945E5
:101F280082971144E31A05EE0544FDB56313E402F4
:101F380083D72188C18B0D44E38007EE03C71400C3
:101F480003C6818981479385018993F6F70F63E476
:101F5800C6000D44D1B58507B386F50083C6F6FFE4
:101F6800E395E6FEA382E188938781889C43CDDFD1
:101F780081450D45B9BF83D7A50017380020035800
:101F880088C2631FF8008947EF50A0329387818881
:101F98009C432A89E38807EE81451D458297DDB574
:101FA80017380020035828B9E31DF8EC8547EF508F
:101FB80040302A89E31805EC938781889C43E382A3
:101FC80007EC03C5140003C7040081452205598D99
:101FD800133515001105D9B7411126C2C16422C4B1
:101FE800938581A92A841385F4FF06C6EF60F072F1
:101FF800938581A81385F4FF0588EF6010720DC0E2
:102008002244B240924497360020938626BA41462D
:10201800AD4517350020130565AE41016F6030648A
:10202800B2402244924401454101828023A4A18800
:1020380082809147630BF5009D476303F5028D4746
:10204800630BF50089473E85828083470600A3829B
:10205800F1888147CDBF835706002391F188D5BF0A
:1020680083C681898147E360D5FE1387160003463E
:102078000600238CE1881387018936972300C7005F
:10208800D9B791476300F50295476302F5020D47FA
:1020980089476317E50083D721882390F500814796
:1020A8003E85828083C751882380F500CDBF83C7D2
:1020B8000188DDBF411122C42E84938581A926C2DF
:1020C80006C6AA84EF50A019058915C197370020C4
:1020D8009387C7A283D7A702A285B2402310F40032
:1020E800224426859244014641016F50F071B24066
:1020F80022449244494541018280C167F91763012E
:10210800F504411122C406C685472A84639FF50059
:102118002285938581A9EF60506022852244B240D0
:10212800938581A841016F60505F89476396F500E8
:102138008545EF90600C69DDB24022444101828000
:102148008280411106C6EFF08FA1BD4763F4A70056
:10215800EFF0EFA0EFF0AFC9BD4763F4A700EFF0D1
:102168000FC9B24083D5A18603D5818641016F107E
:10217800000A411193962500AA852D4506C6972089
:102188000020E780C0A2B240014541018280411190
:1021980026C29394250022C44AC02A843289A6867E
:1021A800AA850146254506C697200020E78020A07D
:1021B800A6864A86A285294597200020E780209F89
:1021C800B2402244924402490145410182800111F2
:1021D80022CC06CE3714004026CA4AC84EC652C47E
:1021E80083447405034AB405834984050349940567
:1021F800EFF06F948347A40593F4F40F137AFA0F62
:1022080093E71700230DF40493F9F90F1379F90FE5
:10221800B717004003C7A705058B6DFF03D5C70592
:10222800A38D4705238C3705A38C2705A38B97041B
:10223800F2406244D2444249B249224A056182804E
:1022480041119397050122C406C6C1872E8463DD18
:102258000700EF00B00219C1EF00A07B2165218DB6
:10226800B24022444101828093F7150013C515003E
:10227800E5FB9397250163D00702EF206107D1356D
:1022880037F60200130606E0896503C59189EF0059
:1022980010500965E9B7939715010145E3D207FC8A
:1022A80017B50100130545E1EF90913A1306006454
:1022B800916503C59189EF00904D11654DB71D716A
:1022C800494697B501009385A5DA17B501001305AE
:1022D800A5F786CEEF00703301E917B501001305A5
:1022E80065DAEF90F13601A037F700E0F9575CC7DF
:1022F800FD571CCB8566B7E700E023A0D71013066F
:10230800701010C3B8434146B0C323A0D718B8C350
:102318000F1000001306C00381454808EF00D028BD
:1023280097370020938707CD3ECA89679387078030
:10233800231CF100ED47A301F1029307A01023121B
:10234800F102D1472303F102A167938707E03ECE4C
:1023580097070000938727E2BEC49707000093877A
:1023680047E3BEC685472304F102B5472308F102B7
:1023780097F7FFFF9387476E3EDAB7F50700970791
:102388000000938707E53EDE8146970700009387A4
:1023980087DB7000E1051945BEC097200020E78063
:1023A800008158088147994670003E96034606000A
:1023B80085070507A30AC700E398D7FED24791C748
:1023C8000357810185676373F70001A04808EF0090
:1023D8007079AA8501C917B501001305E5CBEF90FF
:1023E800911501A0F6402561828041111705000072
:1023F800130545E506C622C4EF005073138491897E
:102408002300A4002928034504002244B24037F6DB
:102418000200130606E0896541016F00503741113B
:1024280022C406C637140040930670052300D4045E
:10243800130780FA2300E4040F1000008347F40216
:1024480093F7A70FA307F4022300D4042300E4049E
:102458000F1000008347F40293E72700A307F40254
:10246800CD311305407E230004048147014781468E
:1024780005468545EFF00FBC2244B24001454101B5
:102488006F10601B41117D1506C622C41375F50F28
:10249800994763ECA70217B70100130727C20A057B
:1024A8003A951C412E84BA978287A14503C5518C61
:1024B800EF0090441C4023A4F18C1966130606DC37
:1024C800A14503C5518CEF00902C014421A803C7F6
:1024D800918B97B701009387671FBA9703C40700CA
:1024E800333480002285B240224441018280A145D4
:1024F80003C5518CEF0050409385A18B114551368F
:102508006DBFA14503C5518CEF00103F9387418AE9
:10251800984391470144E317F7FC1306007D89456A
:1025280003C5518CEF00B02675BF894503C5518C92
:10253800EF00903C59B7A145D5BF011122CC06CE7A
:1025480011472A846319E50203C725009547631ECE
:10255800F70083D7A500056613068638914503C59D
:10256800518C2391F18AEF00902223A2818AF240B4
:102578006244056182809387418A9C43639DE70496
:102588008547894503C5518CA303F1002304010045
:10259800EF009036854503D5218A85362C00130532
:1025A8005041EF50E121930500030D45EF20100A3B
:1025B800930500031145EF2070098965938505711E
:1025C8000145EF20B008130671008545130550300A
:1025D800EF60110759BF09476391E7088D47631EEC
:1025E800F50603C7418C8547631CF7003000854515
:1025F8001305C03023040100EF6091042382018C8D
:1026080083C7818B81C7238C018A85B70D45EF204D
:10261800803A930700036317F50285479305000383
:102628000D452304F100EF207002930500031145C6
:10263800EF20D0019565938505E20145EF20100153
:10264800300061B78547930500640D452304F10008
:10265800EF20C07F93050064D9BF8547E317F4F0E6
:102668002C0013054030EF60E16F8347D100300044
:10267800A145A307F1008347C100014523060100D6
:102688002307F1008347B100A3050100A306F10069
:10269800EFF0AFE3D9BD41119397050122C406C6F7
:1026A800C1872E8463DD070003C5518CC12E11C17B
:1026B8008D262165218DB24022444101828093F705
:1026C800150091CF17260020130686509385018B9D
:1026D80003C5518CEF60A14A13451400E9BF93F775
:1026E8002500638A07109387418A984391476317A7
:1026F800F70E014781462946ED4503D5218AEF406B
:10270800607023A0A18C6304050C03C7918B97B755
:1027180001009387A7FBBA9783C607002396018A0F
:102728002384018A2395018A83D7018A13063006F8
:1027380013F8B60F6371F6029305400633D6B70255
:102748009388818C83A80800B3F7B702469623A420
:10275800C18C2390F18A23000501A3000500230101
:102768000500A301050093F71600A5EF93074500A0
:10277800898A95C29386818C9442910713D68600E4
:10278800238ED7FEA38EC7FE13D60601E182238FC0
:10279800C7FEA38FD7FE9386C18BD4420507137754
:1027A800F70F958F93F7F70F239FF18A91476301EE
:1027B800F704A38CE18A9385C18B03D5218AEFF0B6
:1027C8007F8F11C5ED451385C18BEF40607B1306E4
:1027D800007D894503C5518CEF00607B13452400BB
:1027E800D9BD2302050093076500A302050049B778
:1027F800A38C018AC9B793F7450085CB83C7518C51
:102808001307803E81461306000AD14503D5218A65
:10281800EF6041301966130606DCA14503C5518CEB
:10282800EF00E0761345440079B593F7850001453C
:10283800E38307E803D5218AEF6011071345840075
:102848009DBD011117050000130525E506CE22CC14
:1028580026CA4AC89384518CEF00502D0544238022
:10286800A400700085451305503023068100EF60F1
:10287800215D1726002013066636B1451305703012
:10288800EF60015C1386C1819D4513056030EF60E0
:10289800215B8D4709497000914513057040A304D9
:1028A800F100A30321012305810002C623040100CE
:1028B800A3050100EF50A1551306710085451305C6
:1028C8000040EF50C1543000854513051040EF50CB
:1028D800015413069100854513052040EF502153FC
:1028E8001306A100854513055040EF5041521306C9
:1028F800B100854513054041EF5061517D55EF40CA
:10290800E0197D55EF60405E7D55EFF0EFECEFF09C
:102918004FBA172600201306262AD5450145EF4051
:10292800000A17050000130525B6EFF02FF0FD4744
:102938002316F10091472305F1003000A147854592
:102948001D45A305F100A303810023048100A3040E
:102958002101EFF00FEE1306910085451D45EFF0BC
:102968004FED1306A10085451D45EFF08FEC1306CA
:10297800B10085451D45EFF0CFEB13067100854585
:102988001145EFF00FEB700089450D45EFF06FEA48
:1029980003C504008545C929F2406244D24442492E
:1029A8000561828041111305800406C69710002036
:1029B800E78060F5371700408327870A8D451305A0
:1029C800002093E707202324F70AEFE03FFAEFF00F
:1029D800CF9117B5010013052587EF906147EFF0F8
:1029E8001F8EEFF09FA0EF60616EA13D9710002051
:1029F800E780C00F23AC05FE1C4191E701000100F0
:102A08000CC18280BA8703A787FF6DFF23ACB7FE8E
:102A180082801DC18346E5FF1307F00F9147639E2F
:102A2800E600411106C697200020E78040EFB2403B
:102A380081473E854101828095473E85828001E934
:102A4800014582800145B240224441018280411102
:102A580022C42A84210542059305D004418106C673
:102A680097200020E78000E271DDFD572320050054
:102A7800231285002303F5002105F1B71387C18CC4
:102A88001C43411122C426C24AC006C6014401495A
:102A9800BA8489E7A1658D250DC401A803C7E7FF9E
:102AA8006318A7021DC8A165C1269840832784FF23
:102AB8006317E40223A6F18CFD57232C04FE230F91
:102AC800F4FE2285B24022449244024941018280A8
:102AD80011E03E8983A787FF6DBF3E84E5BF232CA5
:102AE800F9FED9BFA9C9411122C406C62A8497474D
:102AF800002083C7F7D32E856368F400193F0D457E
:102B0800B24022444101828083A785FF99E703C729
:102B1800E5FF9307F00F6305F700E53D1545CDB7D1
:102B2800238F85FE1385C18CF13522852244B2405E
:102B3800A165410115AE1545828023A6018C8280CE
:102B48009387418E9C4399E33E85828003D7270073
:102B58006316B70003C70700E308A7FEDC47E5B71D
:102B68004111939705014AC006C622C426C2C187EF
:102B78002E8963DE0700193711C1613D2165334590
:102B8800A900B24022449244024941018280AA86A7
:102B98000145E5D901443D47B3578940858B95CB1D
:102BA8009387818D8443BD4791E28147A2978E0721
:102BB8000545BE9433158500131405019C40C84093
:102BC8004180829723A0040023A2040033452401F6
:102BD8004DBF0504E312E4FC0144CDBF9747002034
:102BE800938747C19C53411122C406C6138441826E
:102BF80095C7829723A2A1820840B747030093870D
:102C0800D73F3305F502B7A72600938737ECB240C4
:102C180022443E9523A2A182410182809747002049
:102C2800938707C118409C4BBA9723A2F182E9B752
:102C38009387018D90439746002083C676BF8147CE
:102C480013F7F70F6360D70A174700200347B7D277
:102C5800914763E0E70A9747002083C767D6918BBF
:102C6800C9EB0111680006CE22CC26CAEFC0C02DE0
:102C7800FD56630FD50C32479747002083C7B7B876
:102C880063F3E70C17470020130787BA4047174735
:102C98000020034767B76305D406058B21CF51474A
:102CA8003304E40263F1870A97100020E780004BA1
:102CB800B2476373F400A287174700200347B7B4ED
:102CC800998F3E95974700209387C7B2838747011E
:102CD80063CD0702B707C0A86369F502B707405775
:102CE8003E9525A085071397170032970357E7FFEE
:102CF80021DB8280130790023304E40205805DB76C
:102D080062076187635707001D8D19E93705C0A859
:102D180001A8E37BF5FE3707C0A8B307F7403E9547
:102D280097470020938707ADDC53829709ED9747B3
:102D380000209387E7C39C4F99C7EF100111EF104C
:102D4800016FEF10E104F2406244D24405618280D1
:102D5800974700209387C7ADDC47E386A7FE174750
:102D68000020130727A983464701BA84858A9DC690
:102D78005144338487029747002083C7D7A8E3F4D8
:102D880087FC97100020E780603D9747002083C7A5
:102D980097A71D8C2295838744011DBF13049002B9
:102DA800338487020580C1BF2A9609E5828005051C
:102DB800A30FB5FEE31DC5FED5BF81473307F50058
:102DC8000307070019E33E8582808507C5BF011107
:102DD8002E8626CAAA84131506019305F00441819C
:102DE80022CC06CE32C697200020E780A0A92A84EC
:102DF80019C53246A68597100020E7800011228564
:102E0800F2406244D2440561828081476314F6002F
:102E1800054582803307F5008507B386F50003472B
:102E2800070083C6F6FFE383E6FE01458280930729
:102E3800F6FFBE952A966313C5008280FD1583C7E9
:102E480015000505A30FF5FEFDB7814711E90145FA
:102E580082803307F50003470700E31AB7FE8507AA
:102E6800E319F6FE054582809747002083C7579CE3
:102E7800637FF5001387018D9317150008433E956E
:102E880083570500DD8D2310B500014582800D456F
:102E98008280FD570111174700202321F79A938755
:102EA800418E22CC80434EC697490020938989944D
:102EB80026CA4AC852C456C206CE5AC02A89814474
:102EC8004E8A974A0020938AAA96184481476374C9
:102ED800E900B307274103A749021CC409CB03A78C
:102EE800CA0063F6E700174700202329F794A1E7F3
:102EF800835524009DE95C44A1E823A2F18E032BAD
:102F0800C400228597200020E78060A15A8455FCE0
:102F180083274A0285CF6244F240D2444249B249EB
:102F2800224A924A024B056121B3034504002D3F12
:102F38005C4081CB1CC483572400D5DFA284404465
:102F4800F9B71C44CDDBC5BFDCC455BFF2406244B1
:102F5800D2444249B249224A924A024B05618280D0
:102F68009747002083C7D78C6371F5021387018DBB
:102F780093171500084393C5F5FF3E958357050041
:102F8800FD8D2310B500014582800D45828097474D
:102F9800002083C7F7896364F500014582804111E9
:102FA80022C426C24AC006C62A842E89B284493E53
:102FB80001C504C505452DA0936504F0C205C1816E
:102FC800414597200020E780E08B0DE197470020DE
:102FD800938747829C5B81C7A285114582970145EB
:102FE800B240224492440249410182809387418E33
:102FF8009C438DE323A2A18E85472326050004C5A3
:103008002311250123008500A300F50023220500D4
:1030180055B7BA87D84775FFC8C7F9BF45C53971CD
:103028005AD0138B818D22DC26DA4AD84ED652D458
:103038005ECE66CA6AC86EC606DE56D262CC3689CD
:10304800328AAE89AA8401445A8DB94D854BF94C10
:1030580003270B00131C3400937AF40F62971C4368
:10306800A9EF13B5FA0013451500B3978B0063F663
:103078005D01930714FFB397FB0093950701C18186
:10308800528631371DC983270D000145E29784C355
:1030980023A237016304090023005901F250625446
:1030A800D2544259B259225A925A025BF24B624C9C
:1030B800D24C424DB24D216182800504E31A94F945
:1030C8002145E9BF09458280411122C426C24AC070
:1030D80006C6AA842E8932845D3DCA852685EFF00E
:1030E8003FA609C940C10145B24022449244024961
:1030F800410182802145CDBF411122C426C24AC068
:1031080006C6AA842E89EFF0BFA32A8419C1231109
:1031180005009737002083C7A77163949700239E03
:10312800218DCA8526852D3D014511E01945B240FE
:10313800224492440249410182807547636BA70487
:103148001387818D1443411126C293143500A69626
:10315800944222C406C6AA873A84094595C613B57F
:10316800F7003947134515006373F700C517854500
:10317800B395F500C205C18141371C400145A697AA
:1031880023A0070023A20700B24022449244410131
:10319800828009458280411106C6EFF07F9A09C5F1
:1031A8000845B240410182800145E5BFF54763ED1E
:1031B800A7049387818D9C4313173500BA979843CA
:1031C800894721C7011126CA06CE9334F50022CCBF
:1031D800B94793C4140063F3A70045150544331495
:1031E800A400420441802EC62685A2856D378947F2
:1031F800324609C5A2852685593B8147F24062447B
:10320800D2443E850561828089473E858280239A23
:10321800A18C239BB18C8280411106C623A0A18E6C
:103228000295B2409737002023AEA76001454101BF
:103238008280994763E9B7008A059737002093870A
:103248006761BE9588C18280411106C6EF50116F33
:1032580071468145173500201305C55FB136130641
:1032680040028145173500201305855C353E23A2B1
:10327800018E23A0018E9737002083C7675913D585
:1032880027008D8B3E958D473305F5029305101069
:1032980035051375F50F97370020238CA7589947E4
:1032A8003305F5021305050F97100020E780805DB0
:1032B80023ACA18C2DC999471736002003466657C1
:1032C8003306F60281451306060FF93C9387818D74
:1032D8009C439387070F23A4F18E173700200347D9
:1032E80047550A07BA9723A8F18CEFF01F85552692
:1032F8009387818E98439737002083C77753939697
:103308002700BA96170600001306C68590C2938652
:103318002700850793F7F70F8A0797350020A389B9
:10332800D550BA9790C3B2404101828097370020A8
:1033380083C71750173700200347A74F63F1E702E9
:103348001387818E18439386170017360020A30130
:10335800D64E93962700369708C33E8582809307FA
:10336800F00FE5BF1C416381071A41777D8FB706CF
:1033780000208947631BD7180357450063070718C0
:10338800411122C419462A849305F00F590506C62F
:10339800EFF0BFAB05478D476303E5161C4481CBAF
:1033A80058589947630D0714185C630A07141306E5
:1033B800C0038145173500201305C543EFF0DF9E94
:1033C8001306C003A285173500201305A5429710E0
:1033D8000020E78080B39737002083D7674297366D
:1033E80000209386264199E793070010173700209D
:1033F8002318F7409737002083C7A74091E78547F0
:1034080017370020230FF73E9737002083C7773FF1
:1034180091E7ED4717370020A305F73E97370020BF
:1034280083C7473E91E7954717370020230CF73CA1
:103438009737002083C7173D91E785471737002046
:10344800A302F73C9737002083C7173C99E783C747
:10345800060117370020A309F73A9737002083C7DA
:10346800873A91E7D14717370020230EF738973767
:10347800002083C7073A95E7173700200347C73866
:103488001316870161869307C00263480600937785
:10349800170093B717009387D70217370020230A1E
:1034A800F7369737002083C7173695E71737002078
:1034B800034787351316870161869307C00263485F
:1034C80006009377170093B717009387D70217372B
:1034D8000020A30AF7328347D40191E789471737B9
:1034E8000020A307F7329C5691C782979737002090
:1034F8002393A734913BFD57A388F1A48147B24099
:1035080022443E854101828089473E85828001119F
:1035180022CC06CE2A842EC6EFF04FECB245F240FC
:10352800818D33A5A502229562441375F50F0561B7
:103538008280011122CC06CE2A842EC6EFF00FEA33
:10354800B245F240818D33A5A50222956244420519
:10355800418105618280011122CC06CE2A842EC6C3
:10356800EFF0CFE7B245F240818D33B5A502229541
:10357800624405618280973700209387A727985770
:1035880025C3411122C426C206C6BE840297173736
:1035980000200357472A2A8441C7BA876373A700C4
:1035A800AA87C207C183BA866373E400A286C206EB
:1035B800C182958F51476355F706DC5491C38297B2
:1035C8008547173700202309F73AEF0071529737DC
:1035D800002023928726B2402244924441018280EF
:1035E8009737002083C747399DE79737002093878F
:1035F800273883C79700850793F7F70F17370020F9
:10360800A30CF736A18B9DC78547173700202315D4
:10361800F7366F00D15397370020A38F0734D5BFF3
:103628009737002083C74735DDD72244B2409244FC
:103638004101C5B78280973700209387A71BD857C9
:10364800011122CC06CE3E8401C72AC60297324514
:1036580009CD23A6A18E171500201305A5B16D3E2F
:10366800F24062440145056182808307440163DDBD
:1036780007009737002023A9071C97170020938776
:1036880007AA23A6F18EC1BF97170020938707AD1D
:10369800CDBF011122CC173400201304A41508440F
:1036A80006CE26CA4AC801E90545F2406244D2441A
:1036B8004249056182805C58E5DB185C75D770006B
:1036C800854582971844B247E300F7FE9305E00466
:1036D800173500200355C51297100020E780801A7F
:1036E800173700202324A71661D117360020035668
:1036F80026119305F00FEFF02FEB814417390020C6
:10370800130909139737002083C7A70F0326C90198
:1037180063C1F402328597100020E78040200145FC
:103728009737002023A407129737002023A20712F7
:10373800ADBF9735002083D5A50CB3879502084403
:10374800185C898185043E9508C2029765BF4111BE
:1037580022C4173400201304E4091C4426C206C6F8
:103768004AC0973400209384A40C91EBC84C35E9E7
:10377800B2402244924402490145410182801C5CC6
:10378800F5D7DC4C99EF9305E00417350020035575
:10379800250797100020E780E00E9737002023A721
:1037A800A70AC84C61D5173600200356660593054D
:1037B800F00FEFF06FDF01499737002083C76704E8
:1037C800D04CE355F9FA9735002083D56503338546
:1037D80025031C44898105093E951C5C08C2829713
:1037E800E1BF97100020E78080139737002023AFB0
:1037F80007049737002023AD07049DBF011156C267
:10380800973A0020938A0AFF83A78A0022CC4AC8E5
:103818004EC606CE26CA52C45AC0AA892E843289F8
:103828006385072203A74A03630707147D47636676
:10383800A714973400209384A4FF03AAC401631734
:103848000A0A9565938515E017350020035545FB51
:1038580097100020E78000039737002023A8A7FED1
:103868002A86630A051083A74A0303A58A009735A9
:10387800002083D5E5F88981829783A78A0003AA67
:10388800C401173700202325F7FC8947639CF908F2
:10389800C1476312F40E9735002083D565F69385EA
:1038A80005FC9147B3C5F5028A05D29503C7050003
:1038B8009307A005631DF70A83C715006399370BA3
:1038C8004A852286910597000020E7800064DC4C39
:1038D8005285639347150145F2406244D2444249F8
:1038E800B249224A924A024B056182809850E38E7F
:1038F800E7F89565938525E017350020035545F0D1
:1039080097100020E78000F82A8A35C52A8683A701
:103918004A0303A58A009735002083D565EE89817F
:103928008297A5B78D47639DF900C1476315F404D5
:103938009735002083D5C5EC938545FDF199B5B73A
:103948009147639AF900631834039735002083D5AB
:1039580025EBA115E5B7C147639FF900A14763ECC3
:1039680087009735002083D5A5E9C115C1BFDC4C78
:1039780052856397470D294585B71307F006568B7F
:103988006361A70A130A05FE1947334AEA02173783
:1039980000200357E7E6973A0020938A6AE9330A3A
:1039A800EA023E9A83A70A026395470183A4CA01E3
:1039B8009DE49305E00417350020035565E497104E
:1039C8000020E78020ECAA845DD583274B03973538
:1039D800002083D5E5E22A86898152858297914520
:1039E8001307A005898193972500A69783C607002A
:1039F8006393E60483C61700639C360385058A052E
:103A08002286A6954A8597000020E780005083A764
:103A1800CA01E38297EC268597100020E78020F002
:103A28005DBD1307E007E368A7F4130A05F985B736
:103A380083D5270045BF83A7CA01E38E97F2268561
:103A480097100020E780A0ED3DB7973700209387B7
:103A580027DECC4F8DD191479306A0058983139714
:103A680027002E9703460700E317D6F003461700F2
:103A7800631C360185078A072286BE954A8597000A
:103A88000020E780804881BD83572700C1BF973752
:103A98000020938727D6984739C79C5FA9C7054751
:103AA8006313E504411122C417340020130444D8D9
:103AB800504C06C60DC608509735002083D545D40E
:103AC80089818297484C97100020E78040E5973716
:103AD800002023AD07D69737002023AB07D6B24086
:103AE8002244410182808280011117370020130788
:103AF80067D04EC68329870022CC26CA4AC806CE7C
:103B080052C456C2AA842E843289638A09201C5F53
:103B1800BA8A99EB2945F2406244D2444249B249F3
:103B2800224A924A056182805C5BEDD7FD4763E9D2
:103B3800A70E973900209389A9CF83A7C901B1CBD4
:103B480003A58A0083A709026395A706894763939B
:103B5800F408C147E310F4FC17350020035545CAA3
:103B68009147130505FC3345F5029317250003A576
:103B7800C9012286CA853E959307A0052300F50052
:103B8800A3009500110597000020E7800038014543
:103B980059B79305E00417350020035565C69710FB
:103BA8000020E78020CE9737002023A1A7CA49F933
:103BB80095B783A74A0303A6C9019735002083D583
:103BC80025C48981829783A78A001737002023217B
:103BD800F7C8ADBF8D47639EF400C147E31CF4F2FC
:103BE800173500200355C5C1130545FD9377C5FF5B
:103BF800BDBF9147639AF400E31E94F01735002087
:103C0800035505C02115DDB7C147E395F4F0A14779
:103C1800E3E287F017350020035585BE4115F9B753
:103C28009307F00663EAA706930705FE1947B3C78B
:103C3800E702173700200357A7BC173A0020130ADA
:103C48002ABFB387E702BE998327CA01A9CF832772
:103C58000A02639A37070325CA0191461308A0058B
:103C6800FD5593D72600C207C183139727002A97CB
:103C780003460700631D06078348170003562700FD
:103C880063959806B306D64063CF860485078A07EE
:103C98002286CA853E95C5BD9307E007E3ECA7E6F3
:103CA800930705F979B79305E00417350020035504
:103CB80025B597100020E780E0BC9737002023A7A0
:103CC800A7B851F581BD83A74A030326CA019735D2
:103CD800002083D5E5B289814E85829797370020E9
:103CE80023A837B78DBFA300B700B2869DBFB385A1
:103CF8008600173600200356A6B09105130606FC69
:103D0800E3FAC5E0130634001376C60F1106B2961F
:103D180023000701A30097002311D70085BF973719
:103D280000209387E7B0D44FBE89A1C203A5C9017B
:103D380091461308A005FD5593D72600C207C183F5
:103D4800139727002A97034607006316060583483A
:103D580017000356270063989800B306D640E3D7A8
:103D680086F2A300B700B286C1BF8357C7001735D4
:103D78000020034505A99305E0043305F502420533
:103D8800418197100020E780E0AF9737002023AFEC
:103D9800A7AA49FD41B317360020035666A69735F2
:103DA800002083C505A6B385C502338686001106A3
:103DB800E3E2C5D681BF01458280011106CE2EC639
:103DC800EF70C03201C9B245F240035525000561C4
:103DD8006FA08061F240494505618280A38C019003
:103DE800238C019023A0019023A2019023A4019089
:103DF80023A6019023AE018E23AC018E97370020B5
:103E0800938707A73707B40098C33747A000D8C3DC
:103E1800370710009306070A94C7B7065000C10673
:103E2800D4C7930607054107D8CB3707D007410702
:103E380098CF3707840398D337C70700130707B805
:103E4800D8D3416794CB93060701130717F8D8D73F
:103E5800370781FF98DB7D5723AE070094D7239A55
:103E6800E7028280011126CAAA84214522CC06CE07
:103E78002E8432C636C43AC2EFE07FBC1DC9A246C2
:103E880012473246930700FD2300F5009947A30027
:103E980095002301F5002303D500A303E5002312B1
:103EA800C500AA8522856244F240D24405616FE0CC
:103EB8007FC3F2406244D2440561828023A0A1906E
:103EC800828023A2A190828023A4A190828023A62D
:103ED800A1908280011122CC4AC806CE26CA2A891E
:103EE8000144B30489006368B400F2406244D244D8
:103EF8004249056182802EC6EFE05FCE9317050127
:103F0800C183A183B2452380F4009307140093F77B
:103F1800F70F850463F9B700CA9709042380A7003F
:103F28001374F40F7DBF3E847DBFC1671735002031
:103F38000355E597FD176302F502411103C6419A3F
:103F48009385019106C6EF60B07BB240FD571737E5
:103F58000020231EF79441018280828009C925151B
:103F68001375F50F1335850E13451500828001452D
:103F7800828023800500F94763E2C708797122D45B
:103F880026D24ECE56CA5AC806D64AD052CC5EC69B
:103F98003684B289AE8A2A8B814463FF3405B3071D
:103FA800940003CA0700138914001379F90F6305F5
:103FB8000A04B3072A0163C1F904B307240183CBB8
:103FC80007005E85613F0DC99307FAFF2380FA0059
:103FD80063906B03130519002295B2502254925432
:103FE8000259F249624AD24A424BB24B4561828039
:103FF800D29493F4F40F55B70145C5B701458280B3
:10400800411126C2AE8422C49737002023A8C78A4C
:104018009737002023A2B78A9737002023ACA788B8
:104028002A8441469305F00F26854AC006C60549ED
:10403800EFE0BFE1631E2503973700209387C7860B
:10404800884BC145413D41469305F00F2285EFE07D
:10405800DFDF854463169502224497370020938753
:10406800A784B24092440249C847C14541019DB561
:10407800414681452685EFE05FDDE31625FD6DBFEE
:10408800414681452285EFE05FDCE30795FCB240BD
:1040980022449244024941018280411122C426C22D
:1040A8002E84AA84130600028145172500201305D3
:1040B800A57F06C6EFE05FCF97270020A387977EEE
:1040C800A383819AEFA0C033854719C18147494529
:1040D800B2402244172700202308F77C924441016C
:1040E8008280814781CD19C98547631BF50083C745
:1040F800550093E707FCA382F50085473E8582803B
:1041080089476317F50083C7550093F7F703E5B7A9
:104118000D478547E314E5FE03C755001377F703FA
:1041280013670704A382E500D1BF81478DC105C18C
:1041380003C755009306000C85471377070C6308DF
:10414800D700930600048D476303D70089473E854F
:104158008280411122C4005D06C626C21DC8AA84F9
:10416800085009C597000020E780607B485009C5C2
:1041780097000020E780A07A085409C5970000201E
:10418800E780E079228597000020E780407923AC1A
:104198000402B240224492444101828009ED9727EB
:1041A800002083C78770172500201305657181CB10
:1041B8001385018F82801725002013056570828082
:1041C800172500200345656E828097270020938776
:1041D800A76DC8478280972700209387E76C884B94
:1041E8008280972700209387276CDC4B8843828046
:1041F800972700209387476BD84B1C4385071CC320
:10420800172500200345756A9307F00F6305F5002D
:1042180091656FE07FC58280011122CC06CE2E8485
:1042280032C6EF60F07B9147B245631FF500938774
:10423800C1909C438DC303A30700630E030022852E
:104248006244F24005610283938741909C4381C791
:1042580003A34700DDB7F24062440545056182804B
:10426800011122CC2A840355450006CE26CA4AC825
:104278004EC6EF60D05735C52A8983440500834967
:10428800C500C13D4A85EF70304F03554400EF60CB
:10429800B07083C78191B1CB6399970483C591911D
:1042A8002685EFF09FB119E1238C01900355440056
:1042B800EF6010739147631FF50003574400972779
:1042C800002083D7C75E6317F700FD571727002024
:1042D800231FF75CF2406244D2444249B249056167
:1042E800828081499304F00F6DB79307F00FE38F35
:1042F800F4FA8346640003564400034524004E87BD
:10430800A6858D3665B779715EC6AA8B2E8552CC87
:1043180056CA5AC806D622D426D24AD04ECEAE8A1B
:10432800328B368AEF60B04C6DC1045D2A89F1CCBE
:104338009C50614599C3130540039C5481C751059E
:104348004205418163050A00710542054181DC503F
:1043580081C7590542054181EFE06FEE2A8455C5B2
:1043680061468145EFE05FA49729002083C949533E
:104378006394090083490900930700FD2300F400B2
:10438800A947A30074012301F400230364018C509E
:10439800231254011305840191C908C47146930A74
:1043A800440397000020E78040B656858C5491C995
:1043B80048C45146930A450197000020E780E0B4BD
:1043C8005685630C0A0008C87146D285930AC50150
:1043D80097000020E78060B35685CC5099C548C83F
:1043E800594697000020E78040B2A2854E85EFE04D
:1043F8006FEF2254B2509254F249624AD24A424B69
:10440800B24B4A8502594561A9B3B250225492541D
:104418000259F249624AD24A424BB24B4561828004
:1044280001114EC6AA892E854AC806CE22CC26CAB4
:104438002E89EF60D03B31C59724002083C44446C1
:1044480099E0834405001945EFE06FDF2A8415C918
:1044580081451946EFE05F95930700FD2300F400BE
:10446800B947A30034012301F40023122401A285D3
:104478006244F2404249B2492685D24405616FE060
:104488006FE6F2406244D2444249B24905618280F3
:1044980039715ECEAA8B2E8526DA4ED652D456D2E4
:1044A8005AD006DE22DC4AD8AE84328BB68A3A8AE3
:1044B800BE8942C6EF60B03331C92A894145EFE071
:1044C8000FD82A8421C541468145EFE0FF8D172585
:1044D80000200345E53C19E103450900930700FD69
:1044E8002300F400BD472301F400B247A300740180
:1044F8002312940023046401A304540123054401F6
:10450800A30534015CC4A285EFE0CFDDF25062540C
:10451800D2544259B259225A925A025BF24B216143
:104528008280797126D2AA8439454AD04ECE06D6E1
:1045380022D42EC6B2893689EFE06FD021C1B245A8
:104548009307000D2310F500B1472A842312B50004
:104558002301F500CE851905194697000020E7804C
:10456800C09A23062401A2852254B2500259F24966
:1045780013F5F40F925445616FE0CFD6B250225430
:1045880092540259F2494561828017270020034757
:10459800D7319307F00F630DF706411126C2AA849D
:1045A800394522C406C64AC0EFE06FC92A8439C912
:1045B800930700FD2300F500A300950023010500E3
:1045C800972500209385C52F0D05194697000020D3
:1045D800E780A093172900201309092D8357890024
:1045E800A285172500200345552C2315F400834781
:1045F80019002306F4002244B240924402494101C2
:104608006FE04FCEB2402244924402494101828079
:104618008280011156C2AA8A314526CA4AC84EC6A6
:1046280052C406CE22CCAE84328AB6893A89EFE0EB
:104638000FC129C92A842685EF60701B1DCD03454B
:104648000500930700FD2300F4009D47A3005401D3
:104658002301F4002312940023134401231434018A
:1046680023152401A2856244F240D2444249B2494A
:10467800224A924A05616FE0EFC6172500200345DC
:10468800D522C1B7F2406244D2444249B249224AD3
:10469800924A05618280397162CC2A8C594526DAA2
:1046A8004AD84ED652D456D25AD05ECE06DE22DC36
:1046B800AE8432C636C4BA8B3E8BC28A468A8359C8
:1046C800010403494104EFE08FB735C5324693072B
:1046D80000FDA2462300F5009547A301C500A300ED
:1046E80085012301F5002A8419461105A9C2B6855A
:1046F80097000020E780608123066401230A2401D3
:104708002315740123175401231844012319340174
:10471800A2856254F2504259B259225A925A025B07
:10472800F24B624C2685D25421616FE0AFBB8145C4
:10473800EFE08FE7D1B7F2506254D2544259B259E0
:10474800225A925A025BF24B624C2161828097276F
:10475800002083C787158DCB4111AA85194613857B
:10476800018F06C697F0FF1FE780207A9385018F97
:104778001725002003456513EFF0BF96B240138557
:10478800018F41016F905048014582801727002012
:104798000347B7119307F00F6305F708411126C2C5
:1047A800AA84294522C406C6EFE06FA92A8429C134
:1047B800930700FD2300F500A1472301F500A3009E
:1047C8009500972700209387270E83C72700938596
:1047D800018F1105A30FF5FE194697F0FF1FE7801B
:1047E800C072A285172500200345350CEFE08FAF76
:1047F800172700200347670B8D47631FF700938730
:1048080081909C4391CB03A3870063070300224454
:10481800B240924441010283B24022449244410191
:10482800828017270020034747088D47631AF7003F
:10483800938781909C4389C703A38700E31D03FCEA
:104848008280797122D406D626D24AD04ECE52CC56
:10485800094445C92A89035505002E8A5144EF6049
:104868000079AA8459CD83C7719AFD1793F7F70F7A
:10487800054749446377F7080347C500A147631410
:10488800F70063100A089C5C4544A5EF9165938581
:1048980045711305C00297000020E780A0FE88DC60
:1048A800AA894D4439CD1306C0028145EFE0CFCF28
:1048B800835709009386490036852391F90071468C
:1048C8009305490036C697F0FF1FE78000648947C3
:1048D8002380F90003C5C400B246035609006115D8
:1048E80083C5419A13351500EF9020072A84630683
:1048F8000A00D2852685EF70501301C42685EFF093
:104908005F852285B250225492540259F249624A74
:104918004561828083C7719AFD1793F7F70F0547A2
:104928006378F708894751C6011122CC26CA4AC8BC
:104938004EC652C406CEAA89368AB2842E89EF6042
:10494800006B2A84D14729C9485509C5970000201A
:10495800E780E0FCF1452685EFE06FC748D4CD47F6
:1049680005CD8346C40021478147639FE600630D58
:104978000A000347A5010356050193062501AA85E8
:104988004E85EF706002AA8703474400630F090051
:10499800136767002302E400F2406244D2444249AC
:1049A800B249224A3E850561828013674700DDB718
:1049B800C9473E858280E54763EBA700972700201B
:1049C800938707EB06053E950355050082804165F0
:1049D8007D158280011122CC2A842E8526CA06CE16
:1049E800AE84EF60C0600DCDB7470F009387F72303
:1049F800094563E2870281450A854146EFE0CFBA5F
:104A0800A685231081000A85418023018100A30126
:104A18000100EF80F056F2406244D2440561828082
:104A28004945D5BFA382A19A82806F80D06B7971E6
:104A380052CC2A8A328522D426D24AD04ECE56CAA1
:104A48005AC85EC606D662C4AE8BB28A368BBA84A2
:104A58003E89C2894684EF60805915C92A8C63143F
:104A68000A0213774B008347450015CF93E72701C8
:104A78002302FC008DEC631C0902639A090205E815
:104A8800ED9B2302FC00832B8C03639F0B06B25023
:104A9800225492540259F249624AD24A424BB24BCA
:104AA800224C45618280F59B93E70701D1B793E7D4
:104AB80047002302FC0001CC1C484146A285232460
:104AC800FC0213058C0197F0FF1FE78000446391F7
:104AD8000B02D5D80325CC0209C597000020E78032
:104AE80000E4F1452685EFE08FAE2326AC0261BFD6
:104AF800E30B09F80325CC0209C597000020E780DD
:104B080000E2F1454A85C5B79DC483A70B0299EB1E
:104B1800916593853571714597000020E78080D6AF
:104B280023A0AB0203A50B0219C57146A68597F011
:104B3800FF1FE780803D6388090283A74B0299EB3A
:104B4800916593852571594597000020E78080D3AA
:104B580023A2AB0203A54B0219C55946CE8597F08F
:104B6800FF1FE780803A1DC483A78B0299EB9165EC
:104B780093851571514597000020E780A0D023A4A4
:104B8800AB0203A58B0219C55146A28597F0FF1FFA
:104B9800E780A0372254B2509254F249B24B224CCB
:104BA800CA865A860259424BD6855285D24A624AEB
:104BB80045616FF04FF5011126CA52C406CE22CCCA
:104BC8004AC84EC62A8AAE84EF60604225C5AA89C3
:104BD8003945EFD0DFE62A8431CD17290020034973
:104BE80029CC6314090003C909009307000D231099
:104BF800F400AD472301F4009385690013053400E0
:104C0800194697F0FF1FE780403093F7140085801E
:104C180085882306F400A306940023154401A28581
:104C28006244F240D244B249224A4A854249056167
:104C38006FD05FEBF2406244D2444249B249224A03
:104C4800056182809387818F884301CD411106C613
:104C580097000020E780A0CCB24023AC018E410130
:104C680082808280011106CE22CC26CA4AC82EC66E
:104C7800EF60E03739CDB24517290020034949C212
:104C8800AA840CD563140900034905004145EFD0F7
:104C98001FDB2A841DCD9307000D2310F500A547BF
:104CA8002301F50083C75400938564001105A30F01
:104CB800F5FE194697F0FF1FE78020259C54A28532
:104CC800F2405CC46244D2444A85424905616FD0CF
:104CD8007FE1F2406244D2444249056182807971A1
:104CE80022D406D62A842EC6EF6060300DCD8346C6
:104CF800C5001147AA8749456393E6029C5FB24500
:104D080099C383C567010808EF70205B9786000088
:104D18009386A6E3100889452285EF60B04DB2500E
:104D28002254456182805145DDBF83C7719AFD17C2
:104D380093F7F70F0547637AF704894721CA4111AA
:104D480022C426C24AC006C6B2842E89EF60202A31
:104D58002A84D14705C5630809008347450093E7BE
:104D680027002302F5004146A6851305840197F024
:104D7800FF1FE78080199C481CD48147B240224419
:104D8800924402493E8541018280C9473E8582801E
:104D9800797122D406D62A842EC6EF60402501CD2B
:104DA800B2452285230EB1006C08EF708044B250E2
:104DB8002254456182805145DDBF6F602038C1674C
:104DC8001387E7FF6394E502938741909C4391EB37
:104DD800494582804945B2402244924402494101F2
:104DE800828003A30700E30503FE0283411122C466
:104DF80026C24AC006C6FD172A892E84B284639546
:104E0800F502938741909C4391CB9C4381CB829739
:104E180011E5238C2191A38C919075BFA6854A85B5
:104E2800EFE0BFF94DF9F5B72E85EF60401C5DD175
:104E3800834705000D45E39027FB22852244B240B5
:104E48000249A685924441016F90005A6547636202
:104E5800A7044111416722C406C626C27D172A84C9
:104E680009456383E502C547AE846315F4002E85C2
:104E7800EF90005F93171400172400201304449F39
:104E8800A297239097000145B240224492444101E1
:104E9800828009458280011106CE2AC6EFE01FF400
:104EA800EF106003EF00E075EF309161324597270E
:104EB80000209387679F130700F02391E700238260
:104EC80007007D579387419AA380E7002380A700B6
:104ED800F240954505616F40502D1D71939705016E
:104EE800CAC886CEA2CCA6CACEC6D2C4D6C2DAC09A
:104EF8005EDE62DC66DA6AD8C1872E8963D0074C29
:104F080003C5419AEFD09FB78964416A856A797B66
:104F18002A84938BD4007D1AA50A691B15E02165A4
:104F28003345A900F6406644D6444649B649264A60
:104F3800964A064BF25B625CD25C425D25618280D8
:104F4800834704001307200A639DE70003552400E4
:104F5800172C0020034C7C952286D285EFF0CFAB2E
:104F68003DAA1307100903CC519A6397E7168347A4
:104F780014001547639EE7002285EFF06FAE228587
:104F8800EFD03FA903C5419AEFD05FAF2A8479B724
:104F980039476399E71603554400631B55050C44CC
:104FA80083C90500639D0900850591C91946172520
:104FB80000201305E59097F0FF1FE78000F51727FD
:104FC80000200347678E85476318F710638A090036
:104FD80097270020238A078C4E85EFF00FDB45B713
:104FE8008947172700202301F78CEF90A04141BF84
:104FF80093872400631AF50683298400638E090CBD
:1050080083C709008DE383C7290003C71900A207D6
:10501800D98F17270020231DF78883C73900172742
:105028000020A303F788172700200347E78789474D
:105038006314F70A83C7090081CB972700202385CB
:10504800078603C5090051BF8D479725002083C5F2
:10505800B585172500200355A585172700202305AA
:10506800F784EF409017F1BF938754006318F50059
:105078001C4403C50700EFF06FF111B7B3076501D2
:10508800C207C1831147636FF700938781909C43E0
:10509800E38707EE9C43E38407EE22858297E310BB
:1050A80005EE1DA89387B400631FF5009387019050
:1050B8009C43E38607EC9C43E38307ECA2851385B6
:1050C800B4008297E9BF9387C4006310F5021C44BB
:1050D80083C70700E38507EA9307F00FE301FCEABB
:1050E800A2856285EFD01FA071BD9387E400E31508
:1050F800F5FE938741909C43E38307E8DC43A28550
:10510800E9F3B5BD3D476397E70403554400E3025F
:1051180075FF93879401E30EF5FC93873401E31D33
:10512800F5FA9717002083D78778639E47019387FE
:1051380041909C43E38507E4DC43E38207E4A285CE
:1051480013853401BDBF9387C1909C43E38907E26F
:105158009C43E5B71307E003E390E7F8834724008F
:1051680005476396E70E83476400138D818FF1E34B
:1051780083270D00D5CB03CC0700A1490345740054
:10518800930C8400E685EFE05FFA83474401A303AC
:10519800A400835804010358E400035744002A86F6
:1051A800034534003EC283572401E686E2853EC0AB
:1051B800CE87EFF04FCE8347340095E7DD4783581D
:1051C80004010358E40083467400835544003EC23A
:1051D80083572401668705463EC06285CE87EF6007
:1051E800A015A301A40083270D0081C71145EFF086
:1051F8007FA503C58191E30405D883C59191EFE0AC
:10520800DFBBE30E05D68346340093071003638A99
:10521800F600035644004E8783C581913685EFE03A
:105228007FC4238C0190A1BB171C0020034CFC6792
:10523800A9B7938781909C43171C0020034CFC66F8
:1052480091498DDFDC439DDB0145829705BF2947E6
:105258006390E70C83476400938C818FC1E783A731
:105268000C00A5CF03CC0700A149034574009306A1
:10527800840093772500C9C713761500130D4401E0
:10528800834704028358C4010358A4010357440008
:10529800034534003EC28357E401E2853EC0CE8711
:1052A800EFF06FBF8347340095E7DD478358C401AB
:1052B8000358A40183467400835544003EC28357B3
:1052C800E4016A8705463EC06285CE87EF60C00666
:1052D800A301A40083A70C0009BF171C0020034CDE
:1052E800DC5C59B7938781909C43171C0020034CC2
:1052F800DC5B9149BDDBDC43ADDB01458297B5B78B
:10530800B68536CEEFE07FE2F2462A86368D8DBF2F
:105318000947639DE700938701909C43E38107C693
:10532800DC43E38E07C42285829791B92D476399A0
:10533800E700938701909C43E38307C49C47D5B754
:105348000D476397E70022868D450355440039B120
:105358001947E393E7D89305610213051031EF303D
:1053680071202C1013052031EF30D11F0356640033
:10537800835781020355440063E8C70083568400BD
:105388000357610263F7E60093050002EF90400CB3
:10539800FDB66374E6002313E40063F4D700231416
:1053A800F4000357C4008356A400035684008355B1
:1053B800640001488147EF906009D1B693F7150062
:1053C80081CF938701909C4389C7DC4399C30145EA
:1053D800829713451900B9B693F7250081CF9387B3
:1053E80081909C4389C7DC4399C30545829713453F
:1053F80029000DBE93F745000145E38507B2938761
:10540800C18F9C4391CF8547171700202300F74A87
:10541800938781909C4389C7DC4399C3054582974C
:105428009717002093874748C8472C10EF80601EC5
:105438002810EFF0CFB19717002083D7874591CB7D
:10544800130600643386C702914503C5419AEFD01D
:105458001FB413454900F9B4411122C42A845545A3
:1054680006C6EFF04FD5B335A00022852244B240DE
:1054780041016F80B07A797122D406D68D472E8487
:10548800631FF50003D7A50083D6850003D6650002
:105498000345340083D54500EFF0AF9709A8896725
:1054A8001387D7006310E50403C5250019E5854770
:1054B800B25022543E85456182809387818F944300
:1054C800FDD603C6360083C50600814802C202C065
:1054D8000148814701479106EFF0EF9B0545EFF042
:1054E8006FF6F1B71387E700E303E5FC138737018D
:1054F800631AE50003C525005DD9014781460146C9
:10550800814559BFE507E304F5FA41677D178147EF
:10551800E310E5FA03C75500C947E31AF7F883D63D
:10552800E50003D6C5000355840083D5A500EF80A8
:10553800B07341C95D45EFF00FC83335A000231C97
:10554800A10083454400035524003008EF50B01CE7
:1055580083578101A9FF6C0813051031EF309100C2
:105568009305E10113052031EF30C17F8357C10155
:10557800035784006374F7002314F4008357E10190
:105588000357A40063F4E7002315F400835784004D
:105598000357A4006374F7002315F400035524008F
:1055A800EFB0C0160357E4008356C4000356A400A6
:1055B800835584000355240001488147EF80106714
:1055C800FDB58547231CF100ADBFC1671387E7FF11
:1055D800639DE5009387818F9C4395C383C707002C
:1055E8000D47639CA7006F80B063FD17494763961A
:1055F800F5009387818F9C43FDF73A858280494760
:10560800EDBF2382019223A6019223A4019297174A
:1056180000209387672B170700001307874798C355
:10562800170700001307A74AD8C317070000130776
:10563800E75A98C79387C19117070000130727F9FE
:1056480098C317070000130747E3D8C3828079710E
:1056580022D406D626D24AD04ECE52CC56CA5AC8E2
:105668000347050085472A84630AF7040346850033
:10567800930695009305F1000545EFE09F8F81475C
:1056880019C1834705008346040011476380E60477
:105698001387819218438D46034717006308D70282
:1056A80095C70DC719ED0145B250225492540259BD
:1056B800F249624AD24A424B45618280814701459C
:1056C800D9B785466318D7028D8BF1DF03451400DF
:1056D800130A2400D285EFE05FA5A300A400138974
:1056E800C19283270900AA8A81499304F00F99EB94
:1056F80005455DBF8946E318D7FA858BF9B7850953
:1057080093F9F90F83C7419263FBF9020325090056
:10571800139B49005A9583470500E38297FE834708
:105728001500E39E57FD1946D2850905EFD0EFED28
:1057380079D58324090003470400DA9485EC83466D
:1057480004009147E381F6F683270900A9DF03C621
:10575800419201479305F00FE307E6F4BE84C107C1
:1057680003C507FF630CB50A05071377F70FEDB7F5
:1057780088C4E5A09147631AF706C84405C583475E
:105788008400034605006304F606034704009147B6
:10579800631BF706C84419C597F0FF1FE780201858
:1057A80023A604000345840091659385E5710505EA
:1057B80097F0FF1FE780000D05C5034704009147D8
:1057C800631CF704C8C48347840093059400050547
:1057D800A30FF5FE0346840097E0FF1FE780E07201
:1057E800034584003335A000C1B5884441BF930503
:1057F80094000505EFD06FE18547E318F5F85545A6
:10580800EFF06F9BBDA8884451DD97F0FF1FE7803C
:10581800001123A4040079B788C475B72380D40085
:1058280083471400D28513852400A380F400194609
:1058380097E0FF1FE780606D0345840091659385BD
:10584800F571050597F0FF1FE780C00305C50347FD
:1058580004009147E31EF7F0C8C48347840093050A
:1058680094000505A30FF5FE0346840097E0FF1F8B
:10587800E780A06983478400E39C07E603450400AA
:105888007D15133515000DB5011122CC1384C19275
:105898001C4006CE26CA4AC84EC652C499CF2E8A84
:1058A800AA840149084063129902630C0A0497F01C
:1058B800FF1FE780C00623A60192F2406244D2444B
:1058C8004249B249224A0561828093194900B307C7
:1058D8003501884709C997F0FF1FE78040041C403D
:1058E800CE9723A407001C40CE97C84709C997F054
:1058F800FF1FE780C0021C40BE9923A609000509C6
:1059080055B745DD139644008145EFD0EFC91440E3
:1059180081477D5613F7F70FE37197FA13974700FE
:1059280036972300C7008507F5B7011152C4138ABB
:10593800819283270A0006CE22CC26CA4AC84EC6C0
:1059480056C25AC0C9CF2A89014419ED9387C1921A
:10595800944399CA03C641922A8481479305F00F5C
:1059680013F7F70F6367C708131534002105EFD045
:105978000F8DAA8401E92145EFD06F8CAA8421C537
:1059880001444D49930700FD2380F4008547A38017
:1059980024012381F400A38184005DC41389840059
:1059A80023A224018149938AC192130BF00F83C764
:1059B800419263F3F90031E883270A00A68503C5FD
:1059C8000700EFD02F92814503C54192753D03250D
:1059D8000A0097F0FF1FE78080F423A40192F240A9
:1059E8006244D2444249B249224A924A024B056172
:1059F8008280139747003697034707006305B7006F
:105A080005041374F40F8507A1BF83A70A009395B3
:105A18004900BE9583C70500638467032300F90026
:105A280083C71500130529007D14A300F900194642
:105A380089051374F40F97E0FF1FE780004D2109D3
:105A4800850993F9F90FA5B723A20400B5B7411149
:105A580022C406C62A8405E10945EFE0DFF52A8657
:105A680011C5854503C5419AEFD06FD20545EFF0C2
:105A7800BF9E2A8401C9854503C5419AEFD0CFE767
:105A880022856535B24022440545410182808967F7
:105A98001387B700631AE500938781929C439DC3DF
:105AA8009C4503C5070065B71387C7008147631C7A
:105AB800E5009C4503C50700854711C5938781927A
:105AC8009C43F5F381473E858280797106D622D4BE
