:040000006F10003E3F
:1000040000000000000000006F0080086F00202541
:1000140000000000000000000000000000000000DC
:1000240000000000000000000000000000000000CC
:100034006F004006000000006F00E00500000000B3
:100044006F0080056F0060056F0040056F0020059C
:100054006F0000056F00E0046F00C00400000000A2
:100064006F0060046F0040046F0020046F00000400
:100074006F00A0266F00C003000000006F00600343
:100084006F0040036F0020036F0000036F00E00265
:1000940001A001A001A001A001A001A001A001A054
:1000A40001A001A001A001A001A001A001A001A044
:1000B40001A001A001A001A001A001A0B717004068
:1000C400130770052380E704130780FA2380E704ED
:1000D4000F1000002396A70223800704371700405F
:1000E40083472705898BEDDF8357070537170040C2
:1000F40083472705898BEDFF371700408347270582
:10010400898BEDDF035507058280B71700409306FE
:1001140070052380D704130780FA2380E7040F10A7
:10012400000003C6B7041376F60DA385C704238025
:100134000704137605023DCA03C6A700118A1DE20F
:100144002380D7042380E7040F10000003C7A7000F
:10015400136747002385E7009307004B0100010064
:10016400FD17EDFFB7170040930670052380D704F1
:10017400130780FA2380E7040F1000007D8923947D
:10018400A70001000100010001002380070423806F
:10019400D7042380E7040F1000003727004093069C
:1001A4001005A303D78023800704828013760504F7
:1001B4006DDE03C6A700418A1DE22380D704238095
:1001C400E7040F10000003C7A70013670701238586
:1001D400E7009307007D01000100FD17EDFFB7174D
:1001E4000040930670052380D704130780FA238008
:1001F400E7040F1000007D89136505042394A7000C
:100204000100010001000100238007042380D704BA
:100214002380E7040F1000003727004093063005C1
:1002240049B74111814601468145114506C6592207
:10023400B7170040130770052380E704130780FAFB
:100244002380E7040F10000003C767041367170037
:100254002383E70423800704B2404101828081465E
:10026400014681451145B922B71700409306700530
:100274002380D704130780FA2380E7040F100000BB
:100284007D562396C7022380D7042380E7040F10EA
:10029400000003C76704136717002383E704238060
:1002A400070401A0BD473305F50201007D1575FD66
:1002B4008280411122C426C206C6AA84014463175F
:1002C4009400B24022449244410182800504130503
:1002D400803E4204C13F4180DDB7B7170040130799
:1002E40000032388E702854723A8F18273002030A6
:1002F400411106C6EF00207AF5BF23030480954719
:100304002303F4802302A480828083076480E3CEE5
:1003140007FE23030480828083076480E3CE07FE04
:1003240003454480828083076480E3CE07FE230272
:10033400A4808280411126C44AC24EC006C61377E7
:10034400F50BAD47AA892E8995446306F700194534
:100354006D37653F8D444E854D37FD59FD146398C7
:100364003401B240A24412498249410182801355AA
:1003740009011375F50F453F2209CDB7011126CCAC
:1003840006CEB704080051371545853F71376937E4
:100394002AC6A53F32459377150089EB13651500EE
:1003A4001375F50FF240E24405618280FD14E9FC07
:1003B4000145CDBF397126DC4ADA4ED852D656D41F
:1003C4005AD25ED062CEB7E700E006DE66CC6ACAD7
:1003D400414783AB070422C6B8C37D5703AB07006C
:1003E40083AA470023A0E71823A2E718B717004001
:1003F400130770052380E704130780FA2380E704BA
:1004040083C74704130C75FFB684E207137CFC0F03
:1004140085462A8A2E89B28937240040E18701570C
:1004240063FA86016308D500894613070002631343
:10043400D5000157D98F93F7F70F371D00402302DA
:10044400FD0411472303E4801305F00F7D35894C27
:100454006D3D63EB8C11B70707003E9937870700A2
:100464007955637EE902B3079900636AF702A947E5
:10047400631CFA0689E48144493D26850DA0CA859A
:1004840009454D3D850903C5F9FFFD140509613D85
:1004940081C49377F90FFDF7D53569FD7D55B717FD
:1004A4000040130770052380E704130780FA2380B4
:1004B400E70403C74704418B2382E704B7E700E05E
:1004C40023A07705F25023A0671123A25711E25409
:1004D40032445259C259325AA25A125B825B724C4C
:1004E400E24C524D21618280A5476314FA06856966
:1004F4009307F00FB3869700B374F900B69493C7CB
:10050400F7FFFD8C33F92701416A056C9387F9FFE6
:10051400B3F7270199E363FC340193D94900C14738
:10052400E3E637FF89BF8567C169FD17E1B71305A6
:10053400800D638849011305000263848901130552
:100544001008CA85C53B1D3D31D94E99B384344149
:10055400D9B7CA852D45F93BCE94E38E99F0850928
:10056400653BA38FA9FED5BF9307FAFF93F7F70F57
:1005740063ECFC0803475D04B70708001377070220
:1005840019E3B78707007955E37BF9F0330799003E
:10059400E3E7E7F089476310FA048980554AE38C5E
:1005A40004ECCA8509457933910903A7C9FF91472A
:1005B4002320E48003076480E34E07FE2303448181
:1005C400FD17EDFBFD14110981C49377F90FE9FFC1
:1005D400753371F5E1B58547E307FAF4CA852D450E
:1005E400913B1389F4FFE38804E83D3393773900A2
:1005F40091EB8326048003A7090093874900E39DB8
:10060400E6E6BE89CA84F1BFB5476316FA0013054E
:10061400900BE5318DB5B1471305B00AE30BFAFE33
:100624009947631EFA02CA852D45293381440D4C2E
:10063400214ADD31639684018327048023A0F900D5
:100644008504E39844FF8327048013172901635525
:1006540007002392F90005B523A2F90029BD9D479F
:100664006319FA0281451305B004E931BD4423A09E
:10067400090023A209007D59453193F77400CE97F0
:1006840003C70700FD14398D2380A700E39624FFD8
:10069400DDB3A1476312FA04D5318144630D090027
:1006A4008D479304C0036308F900930400056304B1
:1006B4009901930440041375C507E30E95DA1945AF
:1006C4002D39A131054515392685B1390945A13999
:1006D4007531E31205DAD9B391476319FA001305AA
:1006E400600621391D311305900925B7E3050AD8A1
:1006F400F15459B3BD660147173600001306C6BD51
:10070400938606A685458347060093F7F70F91C3A2
:1007140082800507E3F9E6FE97370000238EB7BA17
:10072400DDB77D166206618693178601E18763D47F
:10073400070001458280931726003307F500AE9722
:1007440018439C4363E7E7007D16E37FF7FC7D5580
:10075400828005458280FD15E205E18513978501B8
:10076400618793F7F50F63480700FD15139725007C
:100774002A97584365D713851700620561858280DF
:100784003308B5021C4283A80600B335B502C297EC
:1007940033B50701AE98469585486367B500639401
:1007A400A50063E3070181480C43C6950CC388C2C6
:1007B4001CC2828081471397870161876343B70016
:1007C4008280139727002A97232007008507E5B71F
:1007D4008147014793968701E18663C5B6001335C7
:1007E4001700828093962700AA9694428507558F16
:1007F400D5B793D755408A07AA979C430545331527
:10080400B5007D8D828017D3FFDFE702834D2A84F4
:10081400993705C5931725003E940327C4FF8147E4
:1008240011EB7D1516053E954205418517D3FFDF73
:100834006700634D05838507E5B70145C5BF81475B
:100844001397870161876343C7008280139727004A
:10085400B386E50094422A97850714C3D5B77D165D
:1008640062066186014793178601E18763D5070015
:1008740013351700828093172600B306F500AE9750
:1008840094429C437D16B58F5D8FF1BF8A05AA956E
:1008940001476363B500828083A6C5FFF11593D732
:1008A4001600D98F9CC11397F601E5B72A83014836
:1008B400014701456343D7008280B387050183A8BC
:1008C4000700B30706019C43C697AA976384F80000
:1008D40033B517010507B3080301620723A0F80025
:1008E40061871108C1BF2A8301478147014563C35A
:1008F400D70082803388E50083280800330EE600A1
:10090400032E0E003388A8403308C84163840801CD
:1009140033B508018507B308E300E20723A0080103
:10092400E1871107E9B717D3FFDFE702833B011122
:10093400B286B2842E86AA850A8575372A84A6854E
:100944000A85793533348000060413351500018D8A
:10095400056117D3FFDF6700033B17D3FFDFE7020F
:10096400C3354111AA89AE8A328BB68402C202C44D
:1009740002C60144131C8401135C8C4163499C022C
:10098400939B1400FD1B0549138CF4FFF15C3304A5
:10099400890162046184634D740592478E04CE9488
:1009A40023AEF4FE410117D3FFDF6700833413192C
:1009B4002400B30B2B01014A93172A00D69783A571
:1009C4000B0088437800340050005D3B050A931700
:1009D4008A01E187F11BE351FCFE92474E9905041D
:1009E4002320F900A2473EC2B24702C63EC459B70B
:1009F400131A8901135A8A41131D240093178A017B
:100A0400E18763CF970092470A044E941CC0A24723
:100A140005091379F90F3EC2B24702C63EC485BF29
:100A2400B3079A0313152A00569508417800340039
:100A34005000050AEA97DA978C439933C1B709CD78
:100A4400B7170040130770052380E704130780FAE3
:100A54002380E7042396A702828019C1814799E97C
:100A640082803387F500834607003307F500850746
:100A74002300D700E397C7FEE5B719C1FD5781E905
:100A84008280910503A7C5FF1105232EE5FE7D167F
:100A9400E319F6FEF5B7797122D417340000130474
:100AA400A4D51C4006D626D24AD04ECE91C78297F2
:100AB4009737000023A207D45C4089CB03D5018477
:100AC400BD3F5C40829703D52184953F1C406399C8
:100AD40007189737000083C737D9858B95C7973791
:100AE4000000A38307D817370000034717D891479E
:100AF40063FCE7009D219737000083C717D7F917D8
:100B04008A07A2979C4382979737000083C787DAA6
:100B1400918B89C7973001E0E78040211C4491C341
:100B240082979387C183984317360000034696CA79
:100B34003E89973400009384E4C99737000083C743
:100B440067C993961700BA9683D606006380061089
:100B54009737000083C707C863F2C70886073E9724
:100B6400835507002310070003D501842EC6239460
:100B74000184F135938741859C4317350000034573
:100B840065C513172500BA979C43B2458297AA8975
:100B940003D521846D359737000083C7A7C3139706
:100BA40017008327090003D581841345F5FFBA97FD
:100BB40003D7070033753501598D2390A70083C7E8
:100BC4000400850793F7F70F173700002304F7C0D5
:100BD40017370000034717C063E6E70097370000A4
:100BE400238A07BE1C40ADEF9387C18498433E849B
:100BF40025CB9737000083C797C791CB9737000061
:100C040083C7B7C689E7973001E0E78000C81C4076
:100C140082972A8431C59C48AA971737000023235A
:100C2400F7BC938701859C4385CF03D50184013D9F
:100C34002285971001E0E780A0322254B2509254EA
:100C44000259F24903D521844561D5BB850793F741
:100C5400F70F97360000238FF6B6E3E0C7EECDBD5D
:100C6400B250225492540259F249456182809167EC
:100C7400B7C600409387373023A6F6200F10000034
:100C840097370000938707B5884F938781899C43E2
:100C9400316713073730F053B7071000FD17918FF2
:100CA40099833A0523A6E6205D8D82804111B7170A
:100CB4000040985F3AC6945F3247E39CE6FE3245B3
:100CC40041018280411106C6D5379736000083C69C
:100CD400E6AD858AB1C6930730333307F502B337DF
:100CE400F5023983CA07D98F17370000130787AE77
:100CF400584B01456303F7023385E740636BF70004
:100D040037653D0889C637856F0813050590198D29
:100D14003E95173700002329F7ACB2404101828089
:100D2400E5473307F502B337F5022583DE0765BFD0
:100D3400411122C41384818818404AC006C61C5F2E
:100D440026C2138941889983858BC1C31C5F97345C
:100D54000000938424B193F7F7F91CDF9737000060
:100D640083C747B093F707048DC3938781859C435A
:100D740082979737000023AFA7AE83C7040093F789
:100D8400F70B17370000230FF7AC85471737000020
:100D9400A30CF7AC83C7440093F7070481EF938750
:100DA40081899C43D844B8D3930700FC17370000CB
:100DB400230CF7AA8387640063D9070083270900FB
:100DC4009C43173700002302F7AA18401C5F858351
:100DD400858BC9CBF5571CDF010001000100010020
:100DE40001000100010001000100010001000100F7
:100DF40001000100010001000100010001000100E7
:100E040001000100010001000100010001000100D6
:100E140001000100010001000100010001000100C6
:100E240001000100010001000100010001000100B6
:100E340001000100010001000100010001000100A6
:100E44000100010001000100010001000100010096
:100E54000100010001000100938781899C4313076D
:100E64005004B8CB18401C5F9183858B89CFBD5744
:100E74001CDF938781899C4323A807048547173780
:100E840000002303F79E83270900D8430583058BBD
:100E940019C7D843759BD8C3D843799BD8C3B240EC
:100EA40022449244024941018280397106DE16DCF3
:100EB4001ADA1ED82AD62ED432D236D03ACE3ECC26
:100EC40042CA46C872C676C47AC27EC09535F2500C
:100ED400E2525253C2533255A255125682567247A9
:100EE400E2475248C248324EA24E124F824F21610D
:100EF40073002030938781899443173700001307C8
:100F04006796BC5289CF83472700858B89EB83473B
:100F14003700858BFDD7973700002387079482809D
:100F240037C700401306C00393062003973500001B
:100F34009385459383278720C18393F7F7036369D8
:100F4400F60083278720C18393F7F70363E6F6004F
:100F540083C74500858BF9DF828093878189944319
:100F64001737000013070790BC5289CB834707004B
:100F7400858B91CB973700002388078E9737000025
:100F8400A384078E828083471700858BF1DFDDB74A
:100F940093878189904337C70040C145E54683273D
:100FA4008720C18393F7F70363FBF500832787202A
:100FB400C18393F7F70363E4F6003C52EDF38280B8
:100FC400138781881843AA87185F1583058B25EF3B
:100FD4000345150015051377C51F19C6B386E70029
:100FE40083C626002300D60095C59736000083C625
:100FF400C68793F606040945A1CAB386E70083C6EB
:101004003600054693F5F6066390C504E206E186CC
:1010140063CC06023385E7008347150003470500C8
:10102400A20793F70770D98F13970701418393762B
:10103400074099C6136707802398E1880145828099
:101044002398F188E5BF05458280938681898C4287
:101054003685973600009386E680984593170701F6
:10106400C183137817203E8663040804137707208E
:1010740079C303C726001367170017280000230449
:10108400E87E13070019B8D1130700F8972500006C
:10109400238CE57C138781880C4337080010D855CE
:1010A400719B13672700D8D598413367070198C10E
:1010B4001377261005C31376061059CE03C706000E
:1010C4001367170017260000230EE6781727000081
:1010D400231E077883C6460093C7F7FFC207E206BC
:1010E400E186C183184163D106029396170163DE3A
:1010F400060630538D4663E9C60085461726000070
:101104002304D6763453FDFE972600009386C668E2
:101114008386460163DD060093960701C18663DC7E
:1011240006047053894663E4C6007453FDFE1447F5
:10113400F58F1CC7828003C7160013671700972515
:101144000000A381E57217270000230F07701727FB
:101154000000231D0770A9BF03C7360013671700DB
:1011640017260000A301E67095B7854617260000F0
:10117400230CD66E51BF54471396060163510602E1
:10118400B7061000FD1674D3972600009386866474
:10119400944E850617260000232AD66449BFA1660B
:1011A400D58F71B7397106DE16DC1ADA1ED82AD645
:1011B4002ED432D236D03ACE3ECC42CA46C872C6BB
:1011C40076C47AC27EC05135F250E2525253C253B1
:1011D4003255A255125682567247E2475248C248C7
:1011E400324EA24E124F824F2161730020301727D6
:1011F40000001307E7688346B7019727000083C7F9
:10120400776BB69793F7F70FFD4663EAF6044C4BFA
:1012140097260000A386F6669727000083C75766C3
:1012240005473317F70097260000A385F6686D8FEE
:101234001DEF9726000083C63668B3F6D702130560
:101244000002814733D6F500058A13F8F70F09CE5B
:101254006399E60097270000A384076382808117BF
:101264007DB705071377F70F8507E39DA7FC8280F9
:101274009387418A9843B75702009387279F832611
:101284000709139656006358060083260709139628
:10129400660063440600FD17FDF3828051C9AA87E6
:1012A4000145C9C98D07C207C183F19BC207C18328
:1012B40013074003636BF7021387818B084313877B
:1012C400018B14436396A602172700001307C74C2B
:1012D400185B014525C34111C20706C60545DD8DCE
:1012E4000297B2400145410182801387418BF9B7CF
:1012F4000357650005EF035745006369F702B3061A
:10130400F74021466370D6021041938687001D8FF3
:10131400AA96611790C22392E6002393060014C193
:101324002312F5002313B50021058280084159BF1B
:1013340001458280828001CD9387818B03A80700B9
:101344009387018B8C430147C28763E3B700828094
:101354009443636FF50663EDA60613868700E3687E
:10136400C5FE03D56700216605066317C50003C6DD
:1013740031870506A389C186239307006384070385
:101384001386418B1042630FF6000356670019EA77
:1013940083D7470014C383564700B697A107231287
:1013A400F700BA879843E304B7FA9386418B9442D3
:1013B400E30FD7F883566700D9FA83D6470003565C
:1013C40047001843A106B2962392D70098C382809F
:0813D4003E87B6879DBF0000B3
:1013E000974100209381813417710020130181C13E
:1013F00013054000972500209385C540173600202F
:101400001306C67D63FAC5008322050023A055009C
:1014100011059105E3EAC5FE17B501001305457EE8
:10142000973500209385857B1386018263FAC5007A
:101430008322050023A0550011059105E3EAC5FEAE
:101440001385018297650020938545D26377B500A7
:10145000232005001105E36DB5FE9302800873A0FB
:101460000230972200209382E23993E212007390B7
:10147000523037170040930770052300F704930795
:1014800080FA2300F7040F1000003C47B70600FA6B
:10149000E116F58FB70600069506D58F3CC7972253
:1014A00000009382C2A87390123473002030397107
:1014B00001436EC619A0397141536AC866CA62CC2D
:1014C0005ECE19A0397101535AD056D252D44ED69D
:1014D0004AD826DA22DC06DE3301614082824111DD
:1014E0004AC026C222C406C68282B24D4101024DC4
:1014F000924C224CB24B4101024B924A224AB249D1
:101500004101024992442244B240410182803D435C
:101510002A876373C3029377F700BDEFADE5937637
:1015200006FF3D8ABA960CC34CC30CC74CC7410793
:10153000E36BD7FE11E28280B306C3408A069702AE
:10154000000096966780A6002307B700A306B700A1
:101550002306B700A305B7002305B700A304B7000F
:101560002304B700A303B7002303B700A302B70007
:101570002302B700A301B7002301B700A300B700FF
:101580002300B700828093F5F50F93968500D58DE3
:1015900093960501D58D61B79396270097020000B9
:1015A00096968682E78086FA9680C1171D8F3E96B2
:1015B000E374C3F8A5B73367B500FD530D8B79E726
:1015C000B7877F7F9387F7F710419441B372F60096
:1015D0003363F600BE92B3E262006397720C631845
:1015E000D6065041D441B372F6003363F600BE9282
:1015F000B3E262006398720A631BD60410459445F7
:10160000B372F6003363F600BE92B3E262006391F8
:10161000720A631ED6025045D445B372F600336396
:10162000F600BE92B3E26200639A72086311D602BA
:1016300010499449B372F6003363F600BE92B3E2E8
:101640006200639372085105D105E30FD6F61317B4
:10165000060193970601631CF7001357060193D701
:1016600006013305F7409375F50F91E982804183B8
:10167000C1833305F7409375F50F91E182801377AD
:10168000F70F93F7F70F3305F74082800346050005
:1016900083C60500050585056313D60065FA330585
:1016A000D640828011059105E312D6FE0145828065
:1016B0002105A105E31CD6FC014582803105B10559
:1016C000E316D6FC014582804105C105E310D6FC36
:1016D00001458280B717004003C777051377E70FEE
:1016E000A38BE704130700F8A38DE7043D47238C81
:1016F000E70413075003A38CE7048280B717004068
:1017000003D587005D715ED64205418186C6A2C4BD
:10171000A6C2CAC04EDE52DC56DA5AD862D466D2AD
:101720006AD06ECE9377050C13070008814B638E49
:10173000E718130700046392E716B7240D8F7D891D
:1017400093840480B3D4A4029167938707E8BE947E
:10175000A167938707D0B3D4F402EF80710297A7F3
:1017600001009387A72A9043D443EF802136EF806E
:10177000B1432A8B939C040103D9018293DC0C01B1
:1017800063150900056913090980B717004013079D
:1017900070052380E704130780FA2380E7040F1005
:1017A00000000547371A0040939D0401096C8566C7
:1017B0002389E704D14A814E8145130D0A04130899
:1017C0007005130680FA894893DD0D01130C0C7126
:1017D0002943FD1623000D012300CD000F1000004A
:1017E00023162A0323000D0083472A05898BEDDF8A
:1017F00083570A0583472A05898BEDFF83472A050E
:10180000898BEDDF83570A0523902183C207C183AB
:10181000338597419319050193D9094163860916C8
:101820003387B9026350070E850EC20E93DE0E0198
:1018300063EAD80D63DB050A3305B0409315050153
:10184000C185C204C18063D9350BB71700401307A7
:1018500070052380E704130780FA2380E7040F1044
:1018600000000965130505713385A50223967703EA
:10187000238007043345950242054181B640264442
:1018800096440649F259625AD25A425BB25B225CD4
:10189000925C025DF24D61618280B1E3B7748909A7
:1018A0007D8993840480B3C4A4029167938707E879
:1018B000BE94A167938707D0B3C4F402EF80416C54
:1018C00097A701009387071579BD97A70100938714
:1018D000A713856403AB07009384843861BD130BA1
:1018E0000000954441BD3A89F5B5B387FC40939912
:1018F000070193D90941B1B709651305057133850E
:10190000A9028DBF3385B74163E4FC003385FD40F8
:10191000330585033344B503634583001315040180
:10192000A9BF4E8536C642C432C2EF80911BDA850C
:10193000EF80016CEF80D114931E050193DE0E4100
:10194000B307D941C207C183056E3E8712462248BC
:1019500089482943B24663E3C7013687420741837A
:10196000631A270113071900634430011307F9FFB5
:1019700042074183FD1A93FAFA0FCA8BCE85E3948E
:101980000AF62390E18259BF0145CDBDB71700404B
:1019900003D587005D7186C642054181A2C4A6C2F7
:1019A000CAC04EDE52DC56DA5AD85ED662D466D24F
:1019B0006AD06ECE02C69377050C13070008638FBA
:1019C000E714130700046393E712B7240D8F7D8992
:1019D00093840480B3D4A4029167938707E8BE94EC
:1019E000A167938707D0B3D4F402EF80615997A71A
:1019F00001009387A7019043D443EF80210DEF802E
:101A0000B11A2A89939A040103DB218293DA0A012D
:101A100063150B00056B130B0B80B7170040130702
:101A200070052380E704130780FA2380E7040F1072
:101A300000000547939B04018969056A2389E7042F
:101A4000D14D014D814C93DB0B01938909717D1AB6
:101A50005A8597200020E780A0E6330C5541420CC0
:101A6000135C0C412391618363030C16B3079C0341
:101A700063D3070E050D420D135D0D01894763EC1D
:101A8000A70D63DD0C0A33059041931C050193DC1F
:101A90000C41C204C18063DA8C0BB71700401307F6
:101AA00070052380E704130780FA2380E7040F10F2
:101AB00000000965130505713385AC023247239692
:101AC000E702238007043345950242054181B64071
:101AD000264496440649F259625AD25A425BB25B96
:101AE000225C925C025DF24D61618280B1E3B77469
:101AF00089097D8993840480B3C4A4029167938784
:101B000007E8BE94A167938707D0B3C4F402EF80BF
:101B1000214797A701009387E7EFF1BD97A7010041
:101B2000938787EE856403A9070093848438D9BD21
:101B3000130900009544F9B53E8B19BF3385AA40BF
:101B4000131C0501135C0C41A9B709651305057148
:101B50003305AC028DBF63FEAA0033057541330522
:101B60003503A9473344750363C88700131504017F
:101B7000B1BF3385AB40E5B76285EF808176CA851A
:101B8000EF800147EF80C16F131D0501135D0D410B
:101B90003307AB41420741838565BA876363B7006A
:101BA000D287C207C183639A670193071B0063440E
:101BB00080019307FBFFC207C183FD1D93FDFD0F4D
:101BC0005AC6E28CE39A0DF62391F18245B701459E
:101BD000FDBD41112A83014E930E407E130F001963
:101BE000930F400663ED6E0A930800191303400635
:101BF000B3781503854E0D4FA14F337365020D89E0
:101C00001335150063E7BE0C1308F6FF794672988A
:101C10004208135808013307C70213D61700BE073E
:101C200032976146B3F6C60213068070B386C602C9
:101C30003697A166F58F42075D8FB717004083C6C0
:101C4000F70293F60608A307D1000346F10083C606
:101C5000F70293F60608E394C6FE8346F10093F676
:101C6000F60FF1DE930670052380D704930680FA01
:101C70002380D7040F10000023AA070383C617038D
:101C800093E60608A388D702D8DB03C717031367B8
:101C90000704A388E70223800704410182807D13A3
:101CA0003368E3039308E016630E08003368F30318
:101CB0009308D016630808009378330093B818008F
:101CC0009388D81633081E01131E0801135E0E01F7
:101CD00011BF6393E5030548638608000148630369
:101CE00003002A8871087298FD15131E0801C205A9
:101CF000135E0E01C18139B713F8150063F4BF00FC
:101D00007908D5B713381800E5BF914763EEB702DD
:101D100017A70100130787D08A05BA959C41BA9787
:101D20008287B717004003A7470B1345F5FF698F5C
:101D300023AAE70A03A7070B698F23A8E70A03A7CB
:101D4000070A798D23A0A70A8280B717004083A6CF
:101D5000470B1347F5FFF98E23AAD70A83A6070B73
:101D6000558D23A8A70A83A6070A758F23A0E70A23
:101D70008280B717004003A7470B498F23AAE70AC1
:101D800003A7070B1345F5FF45BFB717004083A610
:101D9000470B1347F5FF758F23AAE70A03A7070A26
:101DA000598D4DB7B717004003A7470B498FEDB7C3
:101DB000914763EEB70217A70100130767C78A05AB
:101DC000BA959C41BA978287B717004003A7470D81
:101DD0001345F5FF698F23AAE70C03A7070D698F49
:101DE00023A8E70C03A7070C798D23A0A70C8280FA
:101DF000B717004083A6470D1347F5FFF98E23AAB6
:101E0000D70C83A6070D558D23A8A70C83A6070C16
:101E1000758F23A0E70C8280B717004003A7470DFA
:101E2000498F23AAE70C03A7070D1345F5FF45BF0C
:101E3000B717004083A6470D1347F5FF758F23AAF8
:101E4000E70C03A7070C598D4DB7B717004003A740
:101E5000470D498FEDB7B717004003D587004205FE
:101E600041819377050491EB9377F5013755E801AC
:101E7000130505803345F50282809377050C13071F
:101E800000046397E7009377F50137459C1CCDB7B5
:101E90002165130505D08280B7F700E0C8439C4751
:101EA0008280814737370040A14663C4C70032852E
:101EB00082800345B740E38EA6FE3385F5000345D7
:101EC000050085072304A740CDB7973700209387E7
:101ED000E7059C4317570020130747293E95636E7B
:101EE000E500176700201307E7F16368A7001737BD
:101EF0000020232DA7023E858280FD57EDBF4111B2
:101F000022C406C62A84813F2947B307E502B240AE
:101F10008D83B3D7870222449507B3D7E7023737BB
:101F20000040C207C1832316F740410182807165DA
:101F300041111305052006C6D937B73700401307EE
:101F400070F82381E7400D47A381E74013070004A1
:101F5000A380E74005472387E740B24041018280E4
:101F60002382018223A40182B717004003A7070C34
:101F7000B706C0FFFD16758F23A0E70C03A7070D5A
:101F8000B7064000558F23A8E70C03A7070C3D9B1D
:101F900023A0E70C03A7070D1367070123A8E70C8D
:101FA000828023A4A18213064006894503C5C1820D
:101FB0006F30D10AB717004003A5470C83A7470C21
:101FC000598113451500C18B058999E313652500D7
:101FD00083C74182638CA7002382A18201C99387B2
:101FE000818203A3070063030300028382804111FF
:101FF00006C6EFF0AFF0BD4763F4A700EFF00FF0B7
:102000007132BD4763F3A7005132B24083D52182BC
:1020100003D5018241016F301113411193962500C0
:10202000AA852D4506C697200020E780E0B8B2407B
:10203000014541018280411126C29394250022C4AA
:102040004AC02A843289A686AA850146254506C645
:1020500097200020E78040B6A6864A86A2852945BB
:1020600097200020E78040B5B240224492440249C4
:10207000014541018280011122CC06CE3714004077
:1020800026CA4AC84EC652C483447405034AB405DE
:102090008349840503499405EFF0CFE38347A40502
:1020A00093F4F40F137AFA0F93E71700230DF40457
:1020B00093F9F90F1379F90FB717004003C7A70574
:1020C000058B6DFF03D5C705A38D4705238C370509
:1020D000A38C2705A38B9704F2406244D244424963
:1020E000B249224A0561828041119397050122C4B9
:1020F00006C6C1872E8463DA0700EF30612819C154
:10210000EF3061212165218D1DA093F7150013C5C6
:10211000150091EF93F7250099CF693D1306000A4A
:10212000894503C5C182EF30617313452400B24075
:102130002244410182809397250163D00702EF502A
:10214000E105753537F60200130606E0896503C51B
:10215000C182EF30A17009657DB7939715010145E4
:10216000E3D707FC17A5010013054592EF80C16373
:1021700013060064916503C5C182EF30216E1165BD
:1021800059B71D71494697A501009385A58B17B5D1
:1021900001001305658186CEA2CCEF30E15201E942
:1021A00017A501001305458BEF80016001A037F7EB
:1021B00000E0F9575CC7FD571CCB0564B7E700E0AA
:1021C00023A087109306701014C3B843C146B4C34C
:1021D00023A08718B8C30F1000001306C003814561
:1021E0004808EF30414D973700209387E7693ECA92
:1021F000ED47A301F1029307A0102312F102D1478A
:102200002303F102A167938707E03ECE9707000002
:102210009387E7E0BEC497070000938707E2BEC636
:1022200085472304F102B5472308F1029707000010
:102230009387C7C63EDAB7F5070097070000938774
:10224000C7E33EDE814697070000938787DA700078
:10225000E1051945BEC0231C810097200020E780BE
:10226000A09558088147994670003E96034606009F
:1022700085070507A30AC700E398D7FED24791C791
:102280000357810185676373F70001A04808EF30A9
:102290005101AA8501C9179501001305257DEF801D
:1022A000613C01A0F640664425618280411117051A
:1022B00000001305A5E306C622C4EF30017B13849A
:1022C000C1822300A400312861390345040022445F
:1022D000B24037F60200130606E0896541016F300F
:1022E000E157411122C406C6371400409306700519
:1022F0002300D404130780FA2300E4040F10000025
:102300008347F40293F7A70FA307F4022300D40432
:102310002300E4040F1000008347F40293E7270032
:10232000A307F402E9311305407E2300040481472A
:102330000147814605468545EFF0BF892244B240FA
:10234000014541016F30B11C411197950100938502
:10235000657717A501001305E58D06C6EF8081306E
:1023600017A501001305058EEF80C12F2945EF80C9
:102370006133B24041016F209012411197950100E5
:102380009385857217A501001305C58A06C6EF80DF
:10239000612D13050002EF80E1302945EF80813087
:1023A000EF30A1148567138607773376C502B240F4
:1023B0009387873803C54183854541013E966F3039
:1023C000E1494111979501009385856C17A501009E
:1023D0001305458606C6EF80E12813050002EF804D
:1023E000612C2945EF80012CB24003C5418385450E
:1023F00041016F30A14F9747002083C7F755411126
:1024000093F7E70F06C617470020A307F754EF908E
:10241000100905E1EF20C02AEF205064B2403726B2
:10242000090003C541831306067C854541016F30D1
:10243000E142B240410182804111979501009385AC
:10244000A567179501001305E57E06C6EF8081217B
:102450002945EF802125B240410171BF4111979577
:1024600001009385A563179501001305A57C06C699
:1024700022C426C24AC0EF80E11E2945EF80812296
:10248000EF90F00119E52244B24092440249410123
:102490009DB7172400201304A47E3C487179F5747D
:1024A0001D09FD1423902701239197001735002063
:1024B00013050581EFC070717C44173500201305AA
:1024C0002580173400201304648223900700EFC096
:1024D000306E1C4822852390270123919700EFC07E
:1024E000D06E5C4422852244B2409244024923903B
:1024F000070041016FC0D06B411197950100938592
:10250000255D179501001305E57206C622C426C293
:10251000EF8041152945EF80E118EF90407805E9FB
:10252000979501009385C55A17950100130585708D
:10253000EF8041131795010013058572EF8081121A
:102540002244B2409244294541016F80A1151305F0
:102550000002EF00706F2A8405E1979501009385D2
:102560002557179501001305E56CEF80A10F17950E
:10257000010013056570D9B7A547A300F5009307BF
:10258000C0125CC1FD572306F500EF00D06A23009E
:10259000A400084CB705D4009385851A3105EF10C7
:1025A000C05A084C834504003105EF20F067084C01
:1025B000930500103105EF207068044C0565EF00AD
:1025C000C07AB104AA852685EF201066084C9305D1
:1025D000A0103105EF209066044CED26AA85B104C9
:1025E0002685EF20706422852244B2409244410146
:1025F0006F00306B93F71500B9CB411122C41795CA
:102600000100130525632E8497950100938585505D
:1026100006C6EF8021052945EF80C108EF902068AC
:1026200001C9D93D13451400B240224441018280C2
:102630009747002083C7573293F7E70F93E71700B8
:1026400017470020A30AF730EF200009E1BF01453A
:1026500082807971979501009385C548179501008F
:102660001305455D06D6EF70F17F2945EF808103A4
:10267000614681452800EFE09FE9EF00D05BA54768
:10268000A304F1009307C0122304A1003EC6056510
:10269000FD57230AF100EF00D002EF9040601DE5E6
:1026A00097950100938505441795010013058558FA
:1026B000EF70517B179501001305855AEF70917AE1
:1026C0002945EF70317EB250456182802800EF00CD
:1026D000305ED5BF4111979501009385A5411795AF
:1026E00001001305255506C622C4EF70B1772945B0
:1026F000EF70517BEF90A05A1DE5979501009385EF
:10270000653F179501001305E552EF70B1751795F8
:1027100001001305E554EF70F1742244B2402945DD
:1027200041016F7031784145EF0010522A8405E174
:10273000979501009385053C179501001305854F7A
:10274000EF7051721795010013050553E9B7A547BE
:10275000A300F5009307C0125CC197A701009387FF
:10276000A7475CC9FD572306F500EF00D04C2300B6
:10277000A400084CB705D4009385851A3105EF10E5
:10278000C03C084C834504003105EF20F049084C5B
:10279000BD65A5053105EF20704A084C9305300250
:1027A0003105EF20704822852244B24041016F007C
:1027B000504F411122C4979501009385E5342A8436
:1027C000179501001305054706C6EF70B169A2858C
:1027D0001795010013050548EF70D1682945EF7082
:1027E000716C85476309F4008947630AF400B240BD
:1027F0002244410182802244B240410199BD2244D9
:10280000B2404101C1BD0111354697950100938544
:10281000E53717A501001305E58706CE22CCEF208A
:10282000B16A0DE5979501009385C52F17950100B5
:1028300013054540EF701163179501001305C5217D
:10284000EF7091762945EF70F16501A09727002080
:102850009387077A3EC4856793870780340017A65D
:1028600001001306E637979501009385E55A179501
:1028700001001305E55B3EC6EF20600E2A840DC9FA
:10288000979501009385052A179501001305853A50
:10289000EF70515DA2851795010013052530EF708B
:1028A000715C2945EF701160F240624405618280DD
:1028B000EF80001B179501001305C527EF10402F6F
:1028C000EF500011EFE0502417250020130545417B
:1028D000EFE03011179501001305C526EFE09024B5
:1028E0002A84EF103009EFA0004CEF009142EF2056
:1028F000701EEF101064EFC0F028979501009385CB
:102900006522179501001305E53209C8EF7091554E
:10291000A285179501001305A52A51B7EF709154B0
:10292000179501001305052CEF70D1532945EF7061
:102930007157EFC0900BEF90803629C59795010035
:102940009385451E179501001305C52EEF70915113
:10295000179501001305852AEF70D1502945EF70B6
:102960007154979501009385E51B17950100130598
:10297000652CEF70314F179501001305652AEF7034
:10298000714E05B78D3CF1BF4111170500001305CD
:10299000A5C606C6EF30610D238AA1821725002047
:1029A0001305C534EF003042B93DEFF06FDB17057A
:1029B0000000130545E0EFF0CFDEB240814505652C
:1029C000410165AE4111979501009385652C1795DE
:1029D00001001305252606C622C4EF70B1481384F2
:1029E000E180834504001795010013052536EF703B
:1029F00071472945EF70114B03450400B240224452
:102A00004101828039711C0822DC3EC22E84B70746
:102A10002000B705D30026DA9385851AAA843EC420
:102A200048001C0806DE3EC6EF102012EF00B02062
:102A3000AA854800EF20501F9305A0104800EF2002
:102A4000F01F493793150501C1814800EF20101F81
:102A5000979501009385C524179501001305851DE1
:102A6000EF705140835584000356640017950100B0
:102A70001305C52AA18193F5F507EF70B13E2945ED
:102A8000EF705142834794000147814693F7F7075F
:102A9000D917B337F000B307F0402305F400500016
:102AA000A2852685EF10A02A15C52A8497950100D6
:102AB0009385051F179501001305C517EF70913A0F
:102AC000A285179501001305E526EF70B139294558
:102AD000EF70513DF2506254D25421618280411115
:102AE00022C426C22A84AE841795010013058514DA
:102AF000979501009385451C06C6EF70B136130506
:102B00000002EF70313A2945EF70D1392285224415
:102B1000B240A68592444101F5B5797122D426D2FE
:102B20002E844AD08145B2842A896146280006D67F
:102B3000EFE0FF9DEF003010A547A304F1009307DD
:102B4000C0123EC62304A100EF20311A93072003D0
:102B50003375F50297950100938545172AC8179597
:102B600001001305250DEF70F12F835584008306B6
:102B7000840003566400A18193F5F50717950100C1
:102B800013058517EF70112E2945EF70B13198406C
:102B90008347270083461700A207D58FBD6663C70A
:102BA000F604834737002387F18083479400294741
:102BB00093F7F7076385E700FD57230AF1008317B2
:102BC00064006359F000FD57230AF10093074006A3
:102BD00002C83EC62800EF007016A2854A851D3542
:102BE000B25022549254025945618280AD06E39E50
:102BF000D7FA83445700F93326952387A18075B708
:102C00000111979501009385A50D179501001305F6
:102C1000650232C606CE22CCEF70D1241305000225
:102C2000EF7051282945EF70F1273246184283474B
:102C3000270083461700A207D58FBD6663CAF6003A
:102C4000834737002387F180F24062440561828028
:102C5000AD06E39BD7FE03445700AD33229523878F
:102C6000A180DDB739711C0822DC3EC22E84B70773
:102C70002000A16526DA3EC4AA841C08938545205D
:102C8000480006DE3EC6EF00506CB717004083A533
:102C9000470C4800B18193C515008589EF20C078A5
:102CA000979501009385050C17950100130585F88C
:102CB000EF70511B83558400035664001795010083
:102CC0001305C505A18193F5F507EF70B1192945E5
:102CD000EF70511D834794000147814693F7F70732
:102CE000D917B337F000B307F0402305F4005000C4
:102CF000A2852685EF10A00515C52A8497950100A9
:102D000093854506179501001305C5F2EF709115DF
:102D1000A285179501001305E501EF70B11429454F
:102D2000EF705118F2506254D254216182804111E7
:102D300022C426C22A84AE8417950100130585EFAC
:102D4000979501009385450306C6EF70B1111305F1
:102D50000002EF7031152945EF70D114228522440D
:102D6000B240A68592444101F5BDB717004083A744
:102D7000470C7D8D133515008280411126C2AE842B
:102D80008D4522C406C62A84EFF08F82B717004013
:102D900099C803A5C70C418D23A6A70CB2402244B5
:102DA00092444101828003A5870C418D23A4A70C86
:102DB000F5B7011197950100938505FE1795010060
:102DC000130545E732C606CEEF70D10913050002A0
:102DD000EF70510D2945EF70F10C3246B7170040E6
:102DE00083A7470C1842B1838345070093C7170098
:102DF000858B6386F500F24005650561BDBFF24035
:102E000005618280797122D426D22E844AD08145F0
:102E10003289AA846146280006D6EFE04FEF212DC3
:102E2000A547A304F1009307C0123EC62304A100E6
:102E3000EF20A16B930720033375F50297950100EE
:102E4000938585F42AC8179501001305A5DEEF7058
:102E50007101835584008306840003566400A181B8
:102E600093F5F50717950100130545F7EF70817F7E
:102E70002945EF70310383270900056583C50700E5
:102E8000ED3D83479400294793F7F7076385E700F3
:102E9000FD57230AF100831764006359F000FD57C2
:102EA000230AF1009307400602C83EC62800092500
:102EB000A2852685453BB250225492540259456161
:102EC000828041118D4522C406C62A84EFE05FEE60
:102ED000B717004003A5870CB240218D224423A4DC
:102EE000A70C410182800111354697950100938519
:102EF000E5C9179501001305E51906CEEF20C17C41
:102F000001E9179501001305A5EFEF70F10901A084
:102F1000EF5001482AC6EF00D121EF001101EF6008
:102F2000F06EF24032450561828041111305800444
:102F300006C697100020E780809D37170040832742
:102F4000870A8D451305002093E707202324F70AFD
:102F5000EFE0BFDBEFE0BFFD17A501001305C5A43F
:102F6000EF709104179501001305C512EF70D1039E
:102F7000EFF02FA1EFF08FB3BD37EFF0FFA0971068
:102F80000020E78020B7014582804111B2862E865D
:102F9000AA852D4506C697100020E780E0C1B24003
:102FA000014541018280AE860146AA852545171359
:102FB0000020670063C09307000463E6C7021D7129
:102FC000A2CC2A84080886CE32C6EF70415EB24693
:102FD0001008A285294597100020E780E0BDF64043
:102FE00066442561828039558280014797960100A9
:102FF000938646FB3388E5008347080005070905EB
:103000009183B69783C70700230FF5FE8347080017
:10301000BD8BB69783C70700A30FF5FE9317070173
:10302000C183E3E9C7FC8280411197950100938534
:10303000A5E7179501001305E5BF06C6EF7081628D
:1030400013050002EF700166B240294541016F701F
:1030500061655C49411122C406C62A8491C7DC43DC
:1030600081C72E850C4882971C4CC84BEF20A12AA3
:103070001C4CB240224423AA070041018280411126
:10308000328506C622C426C22E844AC0EF202044C0
:10309000AA8497950100938525E0179501001305F3
:1030A00065B9EF70215C0307840003566400835503
:1030B0004400A68617950100130505F2EF70815AAA
:1030C0002945EF70215E174400201304248117491D
:1030D00000201309A98683470400639B970081455C
:1030E0002285853F8345C40103C56183EF2011001C
:1030F00013040402E31124FFB24022449244024923
:10310000410182801C42011126CA4AC806CE22CC47
:1031100003C4270003C71700AA842204598C3D6703
:103120002E896378870003C4470083C737002204D1
:103130005D8C979501009385E5D4179501001305E3
:1031400065AF32C6EF700152A285179501001305D5
:1031500065EBEF7021512945EF70C1549307A01022
:1031600032466316F400CA852685EFF07FA997954D
:103170000100938525D1179501001305A5ABEF70CC
:10318000614E13050002EF70E1516244F240D244F7
:103190004249294505616F70E1501C42011126CA60
:1031A0004AC806CE22CC03C4270003C71700AA844E
:1031B0002204598C3D672E896378870003C4470039
:1031C00083C7370022045D8C979501009385C5CA9B
:1031D00017950100130505A632C6EF70A148A28518
:1031E00017950100130505E2EF70C1472945EF70FF
:1031F000614B9307A0103246631BF4006244F24017
:10320000CA8526854249D24405616FF01F91F2407C
:103210006244D2444249056182801C42011126CA9F
:103220004AC806CE22CC03C4270003C71700AA84CD
:103230002204598C3D672E896378870003C44700B8
:1032400083C7370022045D8C97950100938505C2E2
:10325000179501001305059E32C6EF70A140A285A7
:1032600017950100130505DAEF70C13F2945EF708E
:1032700061439307A0103246631BF4006244F2409E
:10328000CA8526854249D24405616FF05F85F240C8
:103290006244D2444249056182801D719737002003
:1032A00083C78765CEC686CEA2CCA6CACAC8D2C4FA
:1032B000ED8F9739002093896962D9EF9737002005
:1032C00083C78765ED8FD9EB9737002083C7C76623
:1032D000ED8F0145B5CB8947939457001C103EC430
:1032E000B70720003EC6172A0020130A2AA01C1088
:1032F0003EC88327CA0002CA02CC02CE83D7070089
:1033000033849900184C231BF100FD77231CF10036
:103310005C4B2E89B1E7979501009385E5BB179526
:10332000010013052591EF70E13317950100130596
:1033300025C2EF7021332945EF70C136B38799005C
:1033400003C5C7013345A900F6406644D644464943
:10335000B649264A256182808147BDBF8547ADBFFA
:1033600083471400A555B9CFFD17035607014C47F5
:10337000A300F4008347C4002800230FF100EF20CE
:10338000C0085285228797A601009386E685300003
:103390004C08EF00D01B2A8A55D1979501009385E0
:1033A000A5B3179501001305E588EF70A12BD28511
:1033B00017950100130585BAEF70C12A2945EF70F2
:1033C000612ED5552285713195BF9C4DDC4B81CB4B
:1033D000D04183C5C50103C561836F202148828028
:1033E0001C4EDC4BA1CBB9C5411126C2179501007B
:1033F00013054584AE8497950100938525AD06C6D7
:1034000022C43284EF700126A685179501001305AA
:10341000A5BAEF7021252945EF70C1288345C40165
:103420002244B240924403C5618313064006410121
:103430006F20C14282809387518303C50700130721
:1034400015002380E7008280011122CC1734002070
:103450001304C44826CA044C06CE4AC8DC484EC6EB
:1034600099CF045CDC4895CB244CDC488DCB0145DE
:10347000F2406244D2444249B24905618280014926
:10348000AA891609EF10F16BC8C8330524011C4D39
:1034900023993701DC4BE9FFD9BF0549D5B7094965
:1034A000C5B710458345C50103C561836F20013B46
:1034B000411126C2AA84414506C622C4713705E9D6
:1034C00097950100938545A2178501001305857620
:1034D000EF704119178501001305057AEF70811807
:1034E0002244B2409244294541016F70A11B6146BC
:1034F000A6852A84EF70A10B084CB705D4009385EC
:10350000851A31059925084C83C504003105EF1053
:10351000B071084C930500103105EF103072044C67
:103520000565EFF09F84B104AA852685EF10D06F62
:1035300022852244B24092444101A5B7411126C2DE
:10354000AA84414506C622C4013705E997950100C2
:103550009385C59A178501001305C56DEF7081101D
:103560001785010013054571EF70C10F2244B24069
:103570009244294541016F70E1126146A6852A8473
:10358000EF70E102084CB705D4009385851A310528
:103590006D2B084C83C504003105EF10F068084C12
:1035A0009305A0103105EF107069044CEFF08FC146
:1035B000AA85B1042685EF10306722852244B240E7
:1035C00092444101F9BDB707B1619387871A173754
:1035D0000020232DF736B787002093879799173758
:1035E00000202327F736B7976C141571938757B6C9
:1035F000173700202320F73688109307802186CFC5
:1036000017370020232AF734A2CDEF00015EB787D9
:1036100099619387079011464C0028103EC2EFF045
:10362000DF9C979501009385E58E0818EF7081184F
:103630001946979501009385259513051103EFF021
:10364000DF9A979501009385E58C1305D103EF7000
:103650006116414697950100938565931305E10333
:10366000EFF0BF98130660032C108810EF00A15EE6
:1036700085476308F50A979501009385E5831785CB
:1036800001001305255BEF60F17D1795010013051F
:10369000A588EF60317D2945EF70C100EF10F1641E
:1036A0009357850003C75183AA97BA97135705010B
:1036B000BA976181AA97A38AF182973700209387EE
:1036C000A71C173700202327F7228547173700202C
:1036D0002304F722973700209387C71C1737002051
:1036E000232AF7228947173700202307F722973725
:1036F00000209387E71C17370020232DF72217059A
:1037000000001305C5B99147173700202306F7229B
:10371000EF20A135FE406E44238BA18201452D612F
:1037200082802A848C102800EF00015963018502F1
:103730009785010093854578178501001305854F0E
:10374000EF605172178501001305857E99B74146D8
:103750002C00173500201305651EEF6051653DBF35
:10376000EFD25FD62A8408452E89B28909C900C1E3
:10377000970500009385E5736105EFF0706C814457
:103780007D5AEF10400463C3A4048144EF10A004E9
:1037900063C6A404973700209387071D9C43DC472A
:1037A000B307F94091872302F4006381090483275A
:1037B000C900B307F4409587A302F4001C4C89C7E5
:1037C0009C4799C3228582976FD01FD35C4413977F
:1037D00014008504BA972390470165B71C481397D6
:1037E00014008504BA97239007004DB783278900FA
:1037F0000547B307F4409587A302F40083570400FC
:10380000638EE7028DC309476384E7040D47E3979E
:10381000E7FA979701009387A7D61CCC97970100EA
:10382000938707D711A8979701009387E79C1CCC33
:10383000979701009387479D5CC849B79797010008
:10384000938787881CCC979701009387E788EDB70B
:1038500097970100938787D71CCC97970100938790
:10386000E7D7D9BF85E1EFD29FC700461844834709
:10387000940075839D8B6315F700EF00D01948C441
:103880006FD03FC88280EFD2FFC313893500C16477
:1038900042094111AA890144F11413590901054A49
:1038A0002EC6EF005072B2456346A40001454101A7
:1038B0006FD09FC483A7090013171400BA9783D74A
:1038C00007006388B7006394970063742A010504B6
:1038D000C1BF0545E9BFEFD21FBEAA892E89328B31
:1038E000B6843A8ABE8AEF80803B4DC12685EF10B0
:1038F000B02D8D4763E5A7007D556FD05FBF83DB9B
:103900004400EF0050722A84EF0030739307740074
:1039100031443305850263C5A702EF00D070EF0084
:1039200090702A84EF00707193077400314433055E
:10393000850263CDA702EF00106F9307450019A819
:10394000EF00B06F330585021307F0179307C01718
:10395000E357A7FC2D55E3C277FB63000B02D68625
:103960005286A6854A85EFE0504F41BFEF00F06CCC
:10397000330585029307C5FFF1BF832749001385EF
:10398000C90083D52700013779F9BDB76955B5B7A7
:1039900097370020239CA7FC973700209387C7FC0C
:1039A000904381470C463307F500420741836393F8
:1039B000B70082805446139847008507C29623902B
:1039C000E600D5B797370020938707FA9C4303C5D5
:1039D0008700828017350020035545F98280EFD299
:1039E0001FB0C1671387D7FF6307E5026368A700AD
:1039F000F117630EF50001456FD0BFB01387E7FFE5
:103A0000630EE500FD171D8D13351500F5B7EF406A
:103A1000A0347D15D5BFEF402012E5BFEF408010E8
:103A2000CDBFEFD2DFAB4111AA8401442EC6EF0017
:103A3000905AB2456346A400014541016FD07FAC66
:103A40009C48131514003E9583570500E387B7FE85
:103A50000504E9BF03485500814693F7F60F63E577
:103A6000070181473E858280584593975600BA9753
:103A700003D727006316B70003D70700E304C7FE88
:103A80008506E1BF8346450001479377F70F63E45E
:103A9000D700814711A81C45131657000507B29798
:103AA00003D60700E313B6FE3E858280EFD29FA1C6
:103AB00093170501C187973A0020938AEAEA635376
:103AC000F00883A70A00C0479C4703570400198DDC
:103AD000420541816366F500014422856FD0DFA174
:103AE00012052A94DDBFDC4713944900014A3E9435
:103AF000834744006341FA02014A83475400634606
:103B0000FA028509C20993D9090183A70A009847D7
:103B1000E3EBE9FCD1B71C4413195A00A6853E9982
:103B20004A85013709ED050AE1B75C4413195A00CB
:103B3000A6853E994A85F53519E1050A7DBFE30260
:103B400009FC61BFAA848149C9B7EFD25F991C45BE
:103B50002A8481E79307C5001CC51C442312040076
:103B60001CC09307F00F63E9B70093F5F50F2285AA
:103B7000EF10900B6FD0FF9893940501C167C1803F
:103B800063F7F500A6852285EF10B00DE5B7C1817A
:103B900093F5F50F2285EF103009A6852285EF10E9
:103BA000F009C9BF97370020938707DC88438280DC
:103BB0001C4599C79737002023A8A7DA01458280C2
:103BC0007D55828097370020938707DA9843834793
:103BD0004500484792073E958280EFD25F90617121
:103BE00000451C183EC6B70780013EC81C183ECAD7
:103BF0008357440002CE02D002CC231EF10083473B
:103C000084002A8902D22301F1023C083ED402D664
:103C1000553F835705002316F102EF3070632307E9
:103C2000A1025C4003556400F18313F7170083473A
:103C3000F10252055181F99BD98FA307F102EFE000
:103C4000301339C5AA8403550500EF80200683D7B9
:103C500004002AD26800231CF10083D72400231D0E
:103C6000F1001C4803D647008C43EF10007A8347CD
:103C7000B400CA86178601001306863E8117A30585
:103C8000F4006C004810EFE0501D5D616FD07F873D
:103C90002155E5BF1C45B1CF03C5A7008946135781
:103CA0006500630BD7028D46630ED702854663001D
:103CB000D702130740063305E50203C7B700418B5F
:103CC00015CB83C7B700BD8B3355F5408280137584
:103CD000F5031307803EC5B709671375F50313078E
:103CE0000771D1BF372709001375F5031307077C48
:103CF000D9B701458280EFD28FFE03A98500630406
:103D000009048347B900AE8493F7070E91CF0345AA
:103D10009900930520030D810505B305B50288447C
:103D20006105EFF0D01D05A02E85AD372A8401CDA9
:103D3000DD218325C900B307B54063F887002E94C1
:103D4000B305A440E9FD6FD0CFFB8545C9BFEFD2D5
:103D50000FF92A8403D50500011132C636C43AC2D0
:103D60002EC002CA02CC02CEEF70507482452ACA1D
:103D700022852ECC813D03570500231EE100EF3044
:103D8000304DA24632469247230FA10036874C0899
:103D9000B28622850146EFF01FB405616FD06FF641
:103DA000EFD2EFF361711C183EC6B70780013EC821
:103DB0001C183ECA3C0800453ED4AA8402CC02CE60
:103DC00002D002D202D6EFF0FFDF8357050035594B
:103DD0002316F102EF30D0472307A10209C483570D
:103DE000440091E721594A855D616FD08FF10355F9
:103DF000640052055181EFE0A0772A8965D5834799
:103E0000B40093F7070E89C713058401EFF0B010D3
:103E100083574400231EF100834784002301F102ED
:103E20005C4003550900D98313F707088347110243
:103E3000231CA10093F7F707D98FA300F102835742
:103E40002900231DF1005C40F18313F7170083471D
:103E5000F102F99BD98FA307F102EF7030652AD2E6
:103E600051D1834794006800139757008347B400EB
:103E7000FD8BD98FA305F4001C4803D647008C4363
:103E8000EF10A058A687178701001307671D74005D
:103E900005464C102685EFF01FA42A8929D58347B3
:103EA000B400A685FD8BA305F400B1352DBFEFD27C
:103EB0000FE3832485FE2A8441112685EFF09FDDE0
:103EC000834734FF93F7070E9DC32AC62685EFF07C
:103ED000DFD019C9834734FFB245FD8BA309F4FE37
:103EE00081C52285EFF0B00141016FD08FE16DDD1A
:103EF0008327C4FF2685829765F9834734FF93F7AC
:103F0000070E81C72285EFF01001032584FE493D8D
:103F1000E1BFEFD2CFD99C4141112A8903C70700E5
:103F200089472E8493566700638CF6020D466382A0
:103F3000C6049307F0076302F7022E85EF1020599D
:103F4000AA848149C16B130C4900973700209387DD
:103F5000A7A19C43984763ECE90241016FD0EFD8D9
:103F600003D745008547E3FAE7FE2E85EF10005A98
:103F7000C1BF03D74500E3F2E7FE2E85EF102055C1
:103F8000AA842285EF100056C204C98C5DBFDC47AD
:103F90000355A900139A49003E9A93170501C1875A
:103FA000635DF00083570A006395A70263E574031D
:103FB0008327CA00034D5A001DA0A1672167A98F5E
:103FC0001307F7EFE374F7FE63950900EFF03FA1E5
:103FD00071FD85099DBF83278A00034D4A00835DDB
:103FE000A90003576900216A138BC7003AC6814AAA
:103FF00033CA4D01631E5D019737002093874797B1
:104000009C43E1DBA2866286814526858297D1B7F3
:10401000A1679387F7EF930C4BFF63F04703B2451B
:104020005A85EFF05F8619CD03278B00104719CA18
:1040300010436380C4023107D5BFEE856685EFF07B
:104040005F9E71FD93861A0093FAF60F130B0B0215
:1040500055B7835644005C43E3EDF6F622853AC635
:10406000EF10E035A1679387D7042A8A035D4400E7
:10407000324763E897008347D90093E707F8A30620
:10408000F9001C4766852286E2858297C16708444D
:10409000FD17337AFA00529508C02312A40115BF08
:1040A000973700209387478C9843814715C314475F
:1040B000814763FFD500939745004C47BE9519C9CA
:1040C00003C7550081476375E600DC451606B297C5
:1040D0003E85828003C745008147E37BE6FE1606E6
:1040E0009C45F5B7EFD20FBEAA892E8A8144973A34
:1040F0000020938A6A8783A70A00984763E4E40054
:104100006FD08FBFDC471394440001493E9413BB2A
:10411000140083474400634BF900014913BB1400AA
:1041200083475400634FF9008504F1B7084493179F
:1041300059005287DA860146A2853E958299050983
:10414000C9BF4844931759005287DA860546A285AD
:104150003E9582990509E9B7EFD26FB8814517F509
:10416000FFFF1305256097370020239107809D3FAF
:104170006FD02FB9972700209387077F9C4399CB57
:10418000EFD2EFB5814517F5FFFF1305A55D993F08
:104190006FD02FB78280EFD2EFB241112315E1002B
:1041A0002E89B284B6893A8681460147ED452A8434
:1041B000EF10516B2AC61DCD0356A100CE85EF60CE
:1041C000013FCA852285EF10F17D058915C1228541
:1041D00001462C0023149100EF2081132A8409C585
:1041E000ED452800EF109176228541016FD0CFB0C8
:1041F0004944FDB76554CDBF5C41FD175CC1828069
:10420000EFD2EFADEF10215295473305F50281450E
:104210000D816FD00FAFEFD28FACEF10C15095472B
:104220003305F5020D816FD0CFADEFD24FAB035503
:104230000500EF10713F6FD0CFACEFD24FAA0355FE
:1042400005003287AE8617160020035606B1972563
:1042500000209385257281376FD0AFAAEFD22FA8A7
:10426000EF5061366FD0EFA9EFD26FA797250020EE
:1042700093854570EF20A11001456FD08FA8EFD234
:104280000FA6814517150020035525A9EF10B17B16
:104290006FD02FA7EFD2AFA4972500209385856E0E
:1042A000EF20E10D01456FD0CFA5EFD24FA381459F
:1042B00017150020035565ACEF10F1786FD06FA48F
:1042C000EFD2EFA12E85EF60C04CEF6010026FD0EF
:1042D0004FA3EFD2CFA0EF60F00B6FD08FA25C495D
:1042E000E1175CC95CC583572501A1072319F500B7
:1042F00083570501A1072318F5008280F147330594
:10430000F502972700209387E7699C433E958280BA
:104310008D476317F60603D74600854763F2E70625
:10432000EFD2EF9B368536842E89EF10401A39C1C3
:104330008357440093140501C18063ED97022285E1
:10434000EF10E018FD14231294009307A002630EEF
:10435000F5009307B0026301F50293079002631B17
:10436000F5002285EFC0107031A00146CA85228574
:10437000EF8080036FD0EF982285EF003056DDBFCD
:10438000828097260020938626629C42014599CF21
:104390009843D442172600202328E6606396D7006E
:1043A0009726002023A4E6601385C7FE8280EFD203
:1043B0000F93D1267144330585029145EF70E05685
:1043C00001E565556FD0EF939727002023AAA75CDE
:1043D0005D26330585029145EF7020557DD19727E5
:1043E000002023A1A75C412E972700202394A75AE1
:1043F0005926972700202390A75A97870100938773
:1044000067CB17270020232BF758970700009387C7
:1044100047ED172700202321F758014565B7EFD254
:104420000F8CAA85172500201305C556EF10001E16
:104430006FD02F8DEFD2AF8ADD37EF10A01E9727F8
:104440000020938767569C4381CF1387C7FE09CB13
:1044500083D5C7FF1725002013058555EFF0202AC7
:104460006FD02F8AEFD2AF87EFF0BFF119C9834722
:1044700085002A8493F7070499E70355E500EFF0D8
:104480007FFB6FD00F888347C50093044501172930
:1044900000201309695185E3832709005CC9972728
:1044A000002023A3975083274900E1FF972700208E
:1044B00023AE974EF9B7FD172306F5006105EF60AF
:1044C000E0728307840063C907048347840093E78D
:1044D00007F82304F400EF1041014205A947418188
:1044E0003375F5028347840093F707FCC98F2304D3
:1044F000F4008347D4003E951C402318A40089CFC4
:10450000984319CB8347C400504081458507330544
:10451000F502420541810297832709005CC897276D
:10452000002023A397488327490089E79727002085
:1045300023AE97468347C400A9D7835504011725A6
:1045400000201305E546EFF0801B25BFEFC23FF9C1
:10455000972700209387076B9C4701448583858BB1
:1045600081EFAE84B2853A86EF1020112A8409C506
:10457000EF102008829408CC22856FC09FF8EFC20C
:104580007FF441112E8932C6AA89712C3247130655
:104590000502CA8697050000938585D61725002059
:1045A0001305453FEFF09FFA2A8429CD9304C500F7
:1045B0004D261946AA852685EF0030658545268556
:1045C000EF00106217850100130585AC4E958345F9
:1045D00005002685EF0050655C4831468145A107FE
:1045E0005CC85CC483572401E1172319F400835786
:1045F0000401E1172318F4001C4C3E85EFC03FF185
:10460000A3042501228541016FC01FEFEFC23FEDDA
:104610004111AA842EC632C4EF100000004DB245ED
:104620002246834784000CC050C093F7F70393E7FA
:1046300007042304F400231804002685EF00707B90
:1046400083479400A9462317A40013D73700050712
:104650003307D7029D8B85072306F400A306E400E9
:1046600083C70401D8488507230FF7FE17270020CA
:10467000130787335843232A0400930744011DEB93
:10468000172700202324F73217270020232EF73086
:10469000172400201304C4312285EFE0107C1C4451
:1046A000858B5D8D09E581452285EFF0400541014F
:1046B0006FC03FE51CC3172700202329F72EC9BF71
:1046C000EFC2FFE1970500009385C5C40145EFF0F7
:1046D0003FBF01456FC0FFE2EFC27FE0EFF07FBF59
:1046E0006FC03FE28347C500A1E7EFC25FDF2A84C6
:1046F0000355E500EFF0BFD215C98347840093F757
:10470000F7FB2304F4001C4091C7DC4381C74C40F5
:1047100001458297EFF0FFC61725002013054529B4
:10472000EFE0707F0355E400EFF0DFD06FC07FDD76
:104730008280EFC2DFDA972700209387E72697056C
:104740000000938565D2172500201305652623A058
:10475000070023A20700EFE0B06E6FC09FDA1C4D88
:1047600091CBDC4381CBEFC29FD783450700829773
:104770006FC03FD98280972700209387A7259C434D
:1047800003C507008280972700209387A7249C43B6
:1047900003C517008280972700209387A7239C4397
:1047A00003C527008280972700209387A7229C4378
:1047B00003C547008280972700209387A7219C4349
:1047C00003C537008280972700209387A7209C434A
:1047D00003C557008280972700209387A71F9C431B
:1047E00003C567008280972700209387A71E9C43FC
:1047F00003C577008280972700209387A71D9C43DD
:1048000003C587008280972700209387A71C9C43BD
:1048100003C597008280972700209387A71B9C439E
:1048200003C5A7008280972700209387A71A9C437F
:1048300003C5B70011E11D458280972700209387AB
:1048400067199C4303C5C700828097270020938780
:1048500067189C4303C5D700828097270020938761
:1048600067179C4303C5E700828097270020938742
:1048700067169C4303D50701828097270020938702
:1048800067159C4303C527018280972700209387E3
:1048900067149C4303D547018280972700209387A4
:1048A00067139C4303D56701828097270020938775
:1048B00067129C4303D58701828097270020938746
:1048C00067119C4303C5A701828097270020938727
:1048D00067109C4303C5B701828097270020938708
:1048E000670F9C4303C5C7018280972700209387E9
:1048F000670E9C4303C5D7018280972700209387CA
:10490000670D9C4388578280972700209387870CE8
:104910009C4303D5C7028280972700209387870B8B
:104920009C4303D5E7028280972700209387870A5C
:104930009C4303C50703828097270020938787093C
:104940009C43C85B82809727002093872708884371
:104950008280972700209387A7078843828019E1E8
:104960007D558280F5DE984265DFFDD9172700204E
:10497000130747291847AA877155058B6316072225
:1049800003C507001547E37DA7FC03C737001305E0
:10499000F0057D171377F70FE364E5FC03C35700B9
:1049A000E30003FC83C86700E38C08FA03C77700C1
:1049B000494579171377F70FE364E5FA03C7A700B2
:1049C00011481305F7FF1375F50FE36BA8F803CE35
:1049D00097000D481305FEFF1375F50FE362A8F865
:1049E00003C8B7006309080065181378F80F1305AA
:1049F000600DE36705F703C5C7007948791513759E
:104A0000F50FE36FA8F403C8D7000D457D181378A0
:104A1000F80FE36705F503D80701930E4017511807
:104A2000420813580801E3ED0EF303C8E7007D18B0
:104A30001378F80FE36605F303C827017D18137890
:104A4000F80FE36F05F103C88700C54E751813789A
:104A5000F80FE3E70EF103D86701856E938EBEE091
:104A60006D18420813580801E3EC0EEF03D8470114
:104A70006D18420813580801E3E40EEF03D88701CC
:104A80007918420813580801E36C05ED03C8A70123
:104A90007D181378F80FE36505ED03C5B7011D48D0
:104AA0007D151375F50FE36DA8EA03C5D7017148AD
:104AB00079151375F50FE365A8EA03D5E701130827
:104AC000E00F7D1542054181E36CA8E803C50702AC
:104AD000494879151375F50FE364A8E883AE4702DA
:104AE00037C534001308F5BFE36CD8E703A8870285
:104AF000130555BF5918E36505E71725002023293D
:104B0000C5EC03C60501172500202325F5EC054556
:104B1000E378C5E403D82501D04933760603E311D1
:104B200006E403C61501E30D06E217260020232F35
:104B3000B6E883C5270001466387A50003C61700B2
:104B4000F1453306B60283C707039305C002729787
:104B50001A071307C70516031A9796084697B387CF
:104B6000B70241553E97329742074183636EE80290
:104B7000EFC2FF963685EF607065EFD030142A845F
:104B8000EF8090122A94EFC010182A94EF60F07C06
:104B90002A94EFF0DF812A94EF2010612A94EF50DD
:104BA000606222956FC0FF958280EFC25F934111D2
:104BB000A307A100EF8060139305F1001705000023
:104BC000130525BAEFF00FD2014541016FC07F9365
:104BD000EFC27F8E172400201304C4020328840030
:104BE0007959936818009724002023A1140313789F
:104BF0001800631E0800BA84BE89368B328A2E895B
:104C0000AA8AEFE03FDC7D15269509E531594A85F2
:104C10006FC0FF8DEFE01FDB7D152695A167E35781
:104C2000F5FE972700209387E73498433E8C814B0D
:104C300011C70145EFC03031933B15004A85DA8634
:104C40005686D285EF70502C2A8911CD1C44F99BD1
:104C500017270020232CF7FA83270C00CDDBE388ED
:104C60000BFA82976DB726859727002023AE07F8A9
:104C7000EFE01FD24146CE8517250020130505021F
:104C8000EF50F112EFA0407D0325040BEFA0407F11
:104C90000545EFA050050545EFF03FF18DBF972783
:104CA0000020938727F69C47858BD5C7EFC23F83AB
:104CB000172500201305C5FC9727002023A407F41F
:104CC0009727002023A207F49727002023A007F4AA
:104CD000EFE07024EF30D07FEFE0007CEFE0900059
:104CE00097270020938787F09C4381C70545EF6095
:104CF000502997270020938727D99C4389C741656E
:104D00007D15EF50C067EFC0F02CEFA0C07597275E
:104D10000020938727049C431397170163540700CF
:104D2000EFC020389727002023AA07F697270020F6
:104D300023A807F69727002023A607F69727002029
:104D400023A407F6EFF05F999D23EFF0EFC0EFC0CB
:104D5000005A6FC00FFB8280EFC2CFF62A84930403
:104D6000140201112E85B289A685214636C63A89DC
:104D7000EF5091011DE1B24638082686CE85130515
:104D80009404EF40404121462C084A85EF50C17FF2
:104D90001335150005616FC02FF60145E5BFEFC261
:104DA0000FF493054506172500201305E5C2EFE033
:104DB00010156FC00FF5EFC28FF241112EC6EFF044
:104DC0008FC5B24588C141016FC0AFF3EFC28FEF0D
:104DD000AA842E84EF60B06FAA8985452285A92513
:104DE00083C7E4011389940899E313890403CE85EA
:104DF00022851D2D214693051902228539259727E5
:104E00000020938727E08C432285EF0060682146CD
:104E1000938584022285D52B6FC00FEEEFC2AFE9D8
:104E20003971EFC020439305400645EDEF603067D0
:104E3000630E05109727002083C7C7BB13B7170061
:104E4000972600202388E6BA014489CFC164172938
:104E50000020130929DB9309400EFD14EFF0BF9ADF
:104E60006348A408EFF02FBB4169B7290900096A1C
:104E7000FD7A2A8B81447D199389F97B130A0A7183
:104E8000938A8AC7EFF03F9863D5A4041304400EB9
:104E9000B3878402172700201307C7D60324070B04
:104EA0003E948357C4016386270918403307EB40BB
:104EB00063EAE900834744008507B3874703D69731
:104EC0006369F706014681450945EFF04FEBAA8B70
:104ED00029E1EF2090598547631FF5048965938583
:104EE000057117250020130525AFEFE05001A1A89B
:104EF000B30734030327090BBA9703D7C701630825
:104F0000970003C75700A38207002382E700050428
:104F1000B1B79305C5002285EFF05FEB5E85228671
:104F20009775010093850518EFF04FEE5E85EF0051
:104F3000606F850481BF972700209387A7CC9C478B
:104F40008D83858BC1FF21616FC06FDA0146854576
:104F5000094502D002D202D402D6EFF04FE2AA8471
:104F60007DD1EFC0602E1389C4002A8481454A8513
:104F700065290C4041464A854929832944006388B4
:104F800009084E8502D802DA02DC02DEEF50B103D6
:104F90002ACE141005462C0808184ECCEF404017B6
:104FA0001375F50F2DE58355840093E525004A859B
:104FB0004D2911460C104A85892901469775010033
:104FC0009385C50E2685EFF06FE42685EF0080659A
:104FD0005C40B5DB014685450D45EFF04FDAAA840C
:104FE0003DD148401389C400EF50E17D2AC64A856F
:104FF000E12E3246636AC5004C404A85392101469C
:1050000081452685EFF08FE02685292D2DBF83551C
:10501000840071BFEFC2AFCC97270020938787BE73
:105020009C4719CD93E78700172500201305C59AE3
:1050300017270020232CF7BCEFE0006B6FC06FCC6C
:10504000DD9B172700202323F7BCEF2010427DF5BE
:105050001725002013054598EFE0E06BC5B7EFC2B8
:105060008FC54169AA892E8AB28A368BBA8B814450
:10507000172C0020130C0CB9930C400E7D19EFF087
:105080008FF863C4A40001442DA0338494038327C4
:105090000C0B3E948357C401638027055A87D6863C
:1050A0005286CE8513050403EFF01FCB11C5238074
:1050B0000B0022856FC0AFC38347F40191CF5A879D
:1050C000D6865286CE8513059408EFF0FFC809C531
:1050D00085472380FB00F1BF850455B78357450002
:1050E000638D0716EFC20FBE01112A84CD2619C5A4
:1050F0008547630AF50405616FC00FC0EFC08015D6
:105100007DF9835744004947ED9BE396E7FEC1458F
:105110002285612CAA842285D52E0357440002CE15
:1051200091472A896317F700228519293C082ACC60
:105130003ECEEFC060115C55DDDF74084A86A6855F
:10514000054582974DBF03574400D147E3F5E7FA81
:10515000032A0400C1690149972A0020938A8AAA78
:10516000130B400EFD19EFF00FEA6344A90C2285E2
:10517000032A0400A92EA1452A8922853D24AA8458
:1051800022857D2E14402A86AA8978082685CA851C
:10519000EFF0FFECAA8425D103C7F401894763151A
:1051A000F7008347C101A1DB5546D2851385640012
:1051B000EF50E13F0145EF60702F01C583D7C40177
:1051C000B1EB972700209387E7A39C4793551900DD
:1051D000858913D73700058B11CB8983858B63971E
:1051E000B70001452EC6EFF0FFE2B2454E85EF60F5
:1051F000D0330346C1012A84937519002685EF70C8
:10520000102831C92685EF60D02E268511C00145B2
:10521000EF603059EF2070258547E31EF5EC83C71A
:1052200054001307F00FE388E7EC8507A382F4002E
:10523000D9B5B304690383A70A0BBE9483D7C4010D
:10524000638937015546D28513856400EF50C13319
:1052500071D1050909BF5DDC5DBF8280EFC28FA6F9
:10526000EF60F02311CDC164014417290020130918
:1052700069999309400EFD14EFF0EFD8634AA4003A
:105280001715002013054575EFE000466FC0CFA647
:10529000330534038327090B3E958357C501638685
:1052A000970023120500EF60D0240504F1B797277B
:1052B0000020938727959C478D83858B99EBEFC2C0
:1052C0000FA21715002013052571EFE0C0446FC031
:1052D0004FA38280EFC2AFA097050000938545B42D
:1052E000171500201305456FEFE080356FC06FA1E3
:1052F00083C7F5FF2E858507A38FF5FE828083C7C0
:10530000F5FFFD1793F7F70FA38FF5FE89EBEFC2BB
:105310000F9D1385F5FFEF0001006FC08F9E828007
:10532000EFC2EF9B8841050542054181EF00610115
:1053300009C585472300F50005056FC08F9C1C41FA
:10534000035745008D8FBA951CC12312B5003E85C9
:10535000828093D78500A2051441DD8D83574500D7
:105360001387E6FF18C189072312F50013D68500BD
:105370004111238FB6FEA38FC6FE410182801841E2
:105380009307F7FF1CC18357450085072312F500DB
:10539000A30FB7FE8280835745008D8F2312F5003F
:1053A0001C41BE950CC12E858280AA8703D7470079
:1053B00008410D8FAA952392E7008CC38280184183
:1053C00008453305A7408280835745000357650091
:1053D0001D8F1C4108453385A7403305A7408280B7
:1053E000EFC2EF8F41112EC62A84EFF0FFFDB245C8
:1053F0006373B50001A0835744000840BE95231293
:10540000B4003E9541016FC0CF8FEFC24F8D411167
:105410002E84B28532C6EFF0BFFC3246A285EF5033
:10542000011941016FC0EF8DEFC26F8B2E8485454E
:10543000EFF01FFB230085006FC0AF8CEFC22F8AF7
:1054400041112317B1008945EFF09FF98347E1002F
:105450002300F5008347F100A300F50041016FC070
:105460004F8AEFC2CF8793D78500A2054111DD8D0A
:105470002317B1008945EFF0BFF68347E100230011
:10548000F5008347F100A300F50041016FC06F876D
:10549000EFC2EF841397850193D78501C166938688
:1054A00006F0D98F13D78500758FD98FA2053707DE
:1054B000FF00F98D4111DD8D2EC69145EFF05FF2B1
:1054C0006C001146EF50A10E41016FC08F83EFC2F7
:1054D0000F811C41854503C40700EFF0DFEB2285F7
:1054E0006FC02F82EFB2BFFF1C414111894503C736
:1054F000070083C717002307E100A307F100EFF0BF
:105500009FE90355E10041016FB0BFFFEFB23FFDDE
:105510001C414111894503C7070083C717002307B2
:10552000E100A307F100EFF01FE78357E10041011D
:1055300013D58700A2075D8D420541816FB07FFCC6
:10554000EFB2FFF90C4141112A8411466800EF5077
:10555000010691452285EFF01FE4B247C1669386AC
:1055600006F01397870113D58701598D13D787004C
:10557000758F598DA2073707FF00F98F5D8D4101A7
:105580006FB03FF81C45BE950CC18280AE87944336
:1055900091E6584101EF0CC15CC1828003C75700FE
:1055A00013671700A382E700B687D5B70CC3EDB722
:1055B000AA87084119CD1841D44398C36313D50075
:1055C000D8C32A87034657009376160081E6232026
:1055D00007008280944381CA8C4203A847008CC391
:1055E00063930601CCC3799A14C3A302C70036871C
:1055F000D1BF1C45DC471D8DB777DBB6938777DBC2
:1056000009853305F502420541818280F147B38562
:10561000F50248452E958280834745008507230281
:10562000F5008280EFB2BFEB2A8419E06FB07FED06
:1056300083474400E5DFFD1793F7F70F2302F400DB
:10564000F5F71C4403D7270005072391E700DC4347
:1056500099C3228582974C4889CD83475400898B12
:1056600099E71C4422859C479C439C478297232AA8
:1056700004000040232004004DBFEFB25FE68357D3
:10568000250041112EC691E70144228541016FB0EA
:105690005FE7035705008147F146E307F7FEB3854F
:1056A000D702404585072E948345440008C4F5F58C
:1056B000B247AA8481E7232A040009A81C456C008C
:1056C00022859C439C43829748C85DDD8547231211
:1056D000F400B24723200400231804002319F40027
:1056E0005C485CC483D72400FD172391F40071BF8C
:1056F000EFB2FFDE971700209387073088432326F9
:105700000500232405004105EFE0E0006FB07FDFD6
:10571000EFB2FFDC171400201304042E1C404111CB
:1057200089CF9C472300B5002AC65CC1EFF05FFC1F
:105730001C40DC4399C33245829741016FB07FDC46
:10574000034745001DEB584DAA877D550DCBEFB2A1
:105750001FD91CC3DC479716002023AFE628F1565B
:10576000130507012390D700970500009385850155
:10577000EFD0106D01456FB0DFD87D5582808280FB
:10578000EFB2FFD50111614681452800EFB03FD847
:1057900097170020938747269C4328009305F00F16
:1057A000DC473EC6EFF0DFF605616FB09FD5971777
:1057B0000020938767249C43D847A1679387C7023B
:1057C0006312F70A397106DE22DC26DA80004AD835
:1057D0004ED652D456D23285B284EFF05FCFAA892A
:1057E0002685EFF03FD02318A4FC2685EFF09FCF4D
:1057F0002319A4FC2685EFF0FFCE83D744000A8A44
:10580000231AA4FC858393F7F70F230EF4FC860775
:10581000BD0793F7073F3301F1408A8A0149834767
:10582000C4FD6365F902CE85130584FC232C54FD69
:10583000EFF01FEE5281130104FCF2506254D25477
:105840004259B259225A925A216182802685EFF03C
:105850007FC993171900D69705092390A7001379DC
:10586000F90F75BF8280971700209387E7189C4334
:10587000D847A1679387A7026310F70A397106DE3C
:1058800022DC26DA80004AD84ED652D456D232854F
:10589000B284EFF0DFC3AA892685EFF0BFC4FD57BD
:1058A0002318A4FC26852319F4FCEFF0BFC383D78B
:1058B00044000A8A231AA4FC858393F7F70F230E6A
:1058C000F4FC8607BD0793F7073F3301F1408A8A4E
:1058D00001498347C4FD6365F902CE85130584FC45
:1058E000232C54FDEFF0DFE25281130104FCF2504F
:1058F0006254D2544259B259225A925A216182803A
:105900002685EFF03FBE93171900D697050923901F
:10591000A7001379F90F75BF82809717002093872E
:10592000A70D9C43D847A16789076318F708397109
:1059300006DE22DC26DA80004AD84ED652D456D271
:1059400032853289EFF0BFB8AA894A85EFF09FB956
:10595000835749000A8A2318A4FC858393F7F70F1D
:10596000230CF4FC8607BD0793F7073F3301F14092
:105970008A8A8144834784FD63E5F402CE8513055A
:1059800084FC232A54FDEFF0BFD85281130104FC9C
:10599000F2506254D2544259B259225A925A216159
:1059A00082804A85EFF01FB493971400D697850440
:1059B0002390A70093F4F40F75BF828097170020FF
:1059C000938787039C43D847A1679387E7046312B3
:1059D000F70A397106DE22DC26DA80004AD84ED674
:1059E00052D456D23285B284EFF07FAEAA89268592
:1059F000EFF05FAF2318A4FC2685EFF0BFAE231AAB
:105A0000A4FC2685EFF01FAE83D744000A8A231931
:105A1000A4FC858393F7F70F230EF4FC8607BD07DC
:105A200093F7073F3301F1408A8A01498347C4FD58
:105A30006365F902CE85130584FC232C54FDEFF039
:105A40003FCD5281130104FCF2506254D2544259AA
:105A5000B259225A925A216182802685EFF09FA87E
:105A600093171900D69705092390A7001379F90F0A
:105A700075BF828097170020938707F89C43D8470B
:105A8000A1679387C7046310F70A397106DE22DC29
:105A900026DA80004AD84ED652D456D23285B28405
:105AA000EFF0FFA2AA892685EFF0DFA3FD572318A8
:105AB000A4FC2685231AF4FCEFF0DFA283D7440070
:105AC0000A8A2319A4FC858393F7F70F230EF4FCAD
:105AD0008607BD0793F7073F3301F1408A8A0149E2
