:040000006F10801DE0
:1000040000000000000000006F0080086F00202541
:1000140000000000000000000000000000000000DC
:1000240000000000000000000000000000000000CC
:100034006F004006000000006F00E00500000000B3
:100044006F0080056F0060056F0040056F0020059C
:100054006F0000056F00E0046F00802900000000BD
:100064006F0060046F0040046F0020046F00000400
:100074006F00A0266F00C003000000006F00600343
:100084006F0040036F0020036F0000036F00E00265
:1000940001A001A001A001A001A001A001A001A054
:1000A40001A001A001A001A001A001A001A001A044
:1000B40001A001A001A001A001A001A0B717004068
:1000C400130770052380E704130780FA2380E704ED
:1000D4000F1000002396A70223800704371700405F
:1000E40083472705898BEDDF8357070537170040C2
:1000F40083472705898BEDFF371700408347270582
:10010400898BEDDF035507058280B71700409306FE
:1001140070052380D704130780FA2380E7040F10A7
:10012400000003C6B7041376F60DA385C704238025
:100134000704137605023DCA03C6A700118A1DE20F
:100144002380D7042380E7040F10000003C7A7000F
:10015400136747002385E7009307004B0100010064
:10016400FD17EDFFB7170040930670052380D704F1
:10017400130780FA2380E7040F1000007D8923947D
:10018400A70001000100010001002380070423806F
:10019400D7042380E7040F1000003727004093069C
:1001A4001005A303D78023800704828013760504F7
:1001B4006DDE03C6A700418A1DE22380D704238095
:1001C400E7040F10000003C7A70013670701238586
:1001D400E7009307007D01000100FD17EDFFB7174D
:1001E4000040930670052380D704130780FA238008
:1001F400E7040F1000007D89136505042394A7000C
:100204000100010001000100238007042380D704BA
:100214002380E7040F1000003727004093063005C1
:1002240049B74111814601468145114506C6412A17
:10023400B7170040130770052380E704130780FAFB
:100244002380E7040F10000003C767041367170037
:100254002383E70423800704B2404101828081465E
:10026400014681451145A12AB71700409306700540
:100274002380D704130780FA2380E7040F100000BB
:100284007D562396C7022380D7042380E7040F10EA
:10029400000003C76704136717002383E704238060
:1002A400070401A0BD473305F50201007D1575FD66
:1002B4008280411122C426C206C6AA84014463175F
:1002C4009400B24022449244410182800504130503
:1002D400803E4204C13F4180DDB7B7170040130799
:1002E40000032388E702854723A0F18C73002030A4
:1002F40097F0FFDFE780A0AD73002030411106C600
:100304009929FDBF2303048095472303F480230226
:10031400A480828083076480E3CE07FE23030480E5
:10032400828083076480E3CE07FE03454480828095
:1003340083076480E3CE07FE2302A48082804111F8
:1003440026C44AC24EC006C61377F50BAD47AA8928
:100354002E8995446306F70019456D37653F8D4432
:100364004E854D37FD59FD1463983401B240A244C3
:100374001249824941018280135509011375F50F11
:10038400453F2209CDB7011126CC06CEB70408009B
:1003940051371545853F713769372AC6A53F324520
:1003A4009377150089EB136515001375F50FF2406B
:1003B400E24405618280FD14E9FC0145CDBF397139
:1003C40026DC4ADA4ED852D656D45AD25ED062CE01
:1003D400B7E700E006DE66CC6ACA414783AB070490
:1003E40022C6B8C37D5703AB070083AA470023A0E6
:1003F400E71823A2E718B7170040130770052380F6
:10040400E704130780FA2380E70483C74704130C27
:1004140075FFB684E207137CFC0F85462A8A2E8971
:10042400B28937240040E187015763FA86016308E3
:10043400D5008946130700026313D5000157D98FED
:1004440093F7F70F371D00402302FD0411472303E0
:10045400E4801305F00F7D35894C6D3D63EB8C1101
:10046400B70707003E99378707007955637EE9028D
:10047400B3079900636AF702A947631CFA0689E483
:100484008144493D26850DA0CA8509454D3D850910
:1004940003C5F9FFFD140509613D81C49377F90F84
:1004A400FDF7D53569FD7D55B71700401307700575
:1004B4002380E704130780FA2380E70403C7470473
:1004C400418B2382E704B7E700E023A07705F250CD
:1004D40023A0671123A25711E25432445259C2593E
:1004E400325AA25A125B825B724CE24C524D216129
:1004F4008280A5476314FA0685699307F00FB386D3
:100504009700B374F900B69493C7F7FFFD8C33F9E1
:100514002701416A056C9387F9FFB3F7270199E333
:1005240063FC340193D94900C147E3E637FF89BF2F
:100534008567C169FD17E1B71305800D638849011B
:10054400130500026384890113051008CA85C53B9D
:100554001D3D31D94E99B3843441D9B7CA852D454F
:10056400F93BCE94E38E99F08509653BA38FA9FEF0
:10057400D5BF9307FAFF93F7F70F63ECFC08034723
:100584005D04B70708001377070219E3B78707006C
:100594007955E37BF9F033079900E3E7E7F08947FE
:1005A4006310FA048980554AE38C04ECCA85094532
:1005B4007933910903A7C9FF91472320E4800307F6
:1005C4006480E34E07FE23034481FD17EDFBFD1415
:1005D400110981C49377F90FE9FF753371F5E1B51A
:1005E4008547E307FAF4CA852D45913B1389F4FF47
:1005F400E38804E83D339377390091EB8326048044
:1006040003A7090093874900E39DE6E6BE89CA84EF
:10061400F1BFB5476316FA001305900BE5318DB5AC
:10062400B1471305B00AE30BFAFE9947631EFA02B9
:10063400CA852D45293381440D4C214ADD31639609
:1006440084018327048023A0F9008504E39844FFF0
:100654008327048013172901635507002392F900A7
:1006640005B523A2F90029BD9D476319FA02814506
:100674001305B004E931BD4423A0090023A20900F5
:100684007D59453193F77400CE9703C70700FD14D5
:10069400398D2380A700E39624FFDDB3A1476312BD
:1006A400FA04D5318144630D09008D479304C003D6
:1006B4006308F9009304000563049901930440045A
:1006C4001375C507E30E95DA19452D39A131054592
:1006D40015392685B1390945A1397531E31205DA91
:1006E400D9B391476319FA001305600621391D3106
:1006F4001305900925B7E3050AD8F15459B309CD78
:10070400B7170040130770052380E704130780FA26
:100714002380E7042396A702828019C1814799E9BF
:1007240082803387F500834607003307F500850789
:100734002300D700E397C7FEE5B719C1FD5781E948
:100744008280910503A7C5FF1105232EE5FE7D16C2
:10075400E319F6FEF5B7797122D4173400001304B7
:1007640064C91C4006D626D24AD04ECE91C7829781
:100774009737000023A007C85C4089CB03D5418F7D
:10078400BD3F5C40829703D5618F953F1C406399C0
:1007940007189737000083C7F7D7858B95C7973716
:1007A4000000A38907D6173700000347D7D691471F
:1007B40063FCE700792B9737000083C7D7D5F91777
:1007C4008A07A2979C4382979737000083C747D92B
:1007D400918B89C7971001E0E78000CB1C4491C33B
:1007E40082979387018F984317360000034656BEBD
:1007F4003E89973400009384A4BD9737000083C7D3
:1008040027BD93961700BA9683D606006380061018
:100814009737000083C7C7BB63F2C70886073E97B4
:10082400835507002310070003D5418F2EC6239E4E
:10083400018EF135938781909C4317350000034561
:1008440025B913172500BA979C43B2458297AA8904
:1008540003D5618F6D359737000083C767B713974A
:1008640017008327090003D5C18F1345F5FFBA97F5
:1008740003D7070033753501598D2390A70083C72B
:100884000400850793F7F70F173700002302F7B426
:10089400173700000347D7B363E6E7009737000034
:1008A400238807B21C40ADEF9387019098433E84A0
:1008B40025CB9737000083C757C691CB97370000E5
:1008C40083C777C589E7970001E0E780A06C1C40E7
:1008D40082972A8431C59C48AA97173700002321A0
:1008E400F7B0938741909C4385CF03D5418F013D59
:1008F400228597F0FFDFE78040452254B25092549E
:100904000259F24903D5618F4561D5BB850793F739
:10091400F70F97360000238DF6AAE3E0C7EECDBDAE
:10092400B250225492540259F2494561828091672F
:10093400B7C600409387373023A6F6200F10000077
:10094400973700009387C7A8884F9387019F9C43DC
:10095400316713073730F053B7071000FD17918F35
:1009640099833A0523A6E6205D8D82804111B7174D
:100974000040985F3AC6945F3247E39CE6FE3245F6
:1009840041018280411106C6D5379736000083C6DF
:10099400A6A1858AB1C6930730333307F502B3376E
:1009A400F5023983CA07D98F17370000130747A206
:1009B400584B01456303F7023385E740636BF70047
:1009C40037653D0889C637856F0813050590198D6D
:1009D4003E95173700002327F7A0B24041018280DB
:1009E400E5473307F502B337F5022583DE0765BF14
:1009F4000327C50F8346B50097370000938747B197
:100A04009C4F58439386160295829043FD1693F6A5
:100A1400F60F10C3D04350C3904710C7D04750C7F8
:100A2400904B10CBD04B50CB904F10CFD04F50CFDA
:100A340091C61307070293870702C1BF82808347C9
:100A4400E50193F7E70FF1EF2A870345F50171E913
:100A5400034607018346870009CA8345A7029737DF
:100A6400000083C7779463E7F50093F70601C5CFC9
:100A7400814709CA8347871503467715C18AA207A8
:100A8400D18F81CA8346B7150347C7152207558FEF
:100A9400BA97D1CB17370000130707B33847411172
:100AA40022C406C67D548326070863F38600368471
:100AB400184375FB173700000347078F9316870108
:100AC400E18663D906029387C7139583173700001D
:100AD4000347278EBA9763D006041D8C9387C19071
:100AE4009C4382973335A400B24022441345150039
:100AF40041018280058B9387C71209CB8A079387AC
:100B0400F7031305D007B3D7A702C9B78607FD07B4
:100B14001305D003CDBFE372F4FC3705C0A82A94B3
:100B24006DBF014582808280411122C41384019EDD
:100B340018404AC006C61C5F26C21389C19D99830A
:100B4400858BC1C31C5F973400009384649C93F726
:100B5400F7F91CDF9737000083C7879B93F70704D7
:100B64008DC39387C1909C4382979737000023A934
:100B7400A79A83C7040093F7F70B173700002309DC
:100B8400F798854717370000A306F79883C74400F2
:100B940093F7070481EF9387019F9C43D844B8D30C
:100BA400930700FC173700002306F7968387640039
:100BB40063D90700832709009C4317370000230CDF
:100BC400F79418401C5F8583858BC9CBF5571CDFD0
:100BD4000100010001000100010001000100010009
:100BE40001000100010001000100010001000100F9
:100BF40001000100010001000100010001000100E9
:100C040001000100010001000100010001000100D8
:100C140001000100010001000100010001000100C8
:100C240001000100010001000100010001000100B8
:100C340001000100010001000100010001000100A8
:100C44000100010001000100010001000100010098
:100C54009387019F9C4313075004B8CB18401C5F33
:100C64009183858B89CFBD571CDF9387019F9C435C
:100C740023A80704854717370000230DF788832727
:100C84000900D8430583058B19C7D843759BD8C37E
:100C9400D843799BD8C3B2402244924402494101CB
:100CA4008280397106DE16DC1ADA1ED82AD62ED4D2
:100CB40032D236D03ACE3ECC42CA46C872C676C488
:100CC4007AC27EC09535F250E2525253C253325525
:100CD400A255125682567247E2475248C248324ED3
:100CE400A24E124F824F2161730020309387019FDF
:100CF4009443173700001307A781BC5289CF834759
:100D04002700858B89EB83473700858BFDD7973781
:100D1400000023810780828037C700401306C00388
:100D240093062003972500009385857E83278720DB
:100D3400C18393F7F7036369F60083278720C18390
:100D440093F7F70363E6F60083C74500858BF9DF65
:100D540082809387019F9443172700001307477BE2
:100D6400BC5289CB83470700858B91CB9727000022
:100D74002382077A97270000A38E0778828083470F
:100D84001700858BF1DFDDB79387019F904337C749
:100D94000040C145E54683278720C18393F7F703C5
:100DA40063FBF50083278720C18393F7F70363E48C
:100DB400F6003C52EDF382801387019E1843AA8704
:100DC400185F1583058B25EF03451500150513776B
:100DD400C51F19C6B386E70083C626002300D600C4
:100DE40095C59726000083C6067393F60604094545
:100DF400A1CAB386E70083C63600054693F5F60616
:100E04006390C504E206E18663CC06023385E700FD
:100E14008347150003470500A20793F70770D98F8E
:100E24001397070141839376074099C61367078098
:100E34002394E19E014582802394F19EE5BF0545FC
:100E440082809386019F8C42368597260000938684
:100E5400266C984593170701C183137817203E86A3
:100E6400630408041377072079C303C726001367B4
:100E7400170017280000230EE86813070019B8D1DB
:100E8400130700F8972500002386E5681387019E61
:100E94000C4337080010D855719B13672700D8D529
:100EA40098413367070198C11377261005C3137659
:100EB400061059CE03C70600136717001726000053
:100EC4002308E664172700002318076483C6460036
:100ED40093C7F7FFC207E206E186C183184163D1D5
:100EE40006029396170163DE060630538D4663E9C6
:100EF400C600854617260000230ED6603453FDFE37
:100F040097260000938606498386460163DD060022
:100F140093960701C18663DC06047053894663E433
:100F2400C6007453FDFE1447F58F1CC7828003C7A7
:100F340016001367170097250000A38BE55C17279D
:100F440000002309075C172700002317075CA9BFCB
:100F540003C736001367170017260000A30BE65AD1
:100F640095B78546172600002306D65A51BF544725
:100F74001396060163510602B7061000FD1674D3DA
:100F8400972600009386C644944E850617260000D3
:100F9400232CD64449BFA166D58F71B7397106DEBB
:100FA40016DC1ADA1ED82AD62ED432D236D03ACE4D
:100FB4003ECC42CA46C872C676C47AC27EC0513597
:100FC400F250E2525253C2533255A255125682562F
:100FD4007247E2475248C248324EA24E124F824FE5
:100FE400216173002030172700001307275483461C
:100FF400B7019727000083C7B756B69793F7F70F43
:10100400FD4663EAF6044C4B97260000A380F65293
:101014009727000083C7975105473317F700972692
:101024000000A38FF6526D8F1DEF9726000083C634
:101034007653B3F6D70213050002814733D6F50081
:10104400058A13F8F70F09CE6399E6009727000085
:10105400A38E074D828081177DB705071377F70F9D
:101064008507E39DA7FC82809387C19F9843B75768
:1010740002009387279F8326070913965600635817
:101084000600832607091396660063440600FD17CD
:10109400FDF3828051C9AA870145C9C98D07C207DA
:1010A400C183F19BC207C18313074003636BF7023B
:1010B400138701A90843138781A814436396A602E2
:1010C400172700001307072D185B014525C341119D
:1010D400C20706C60545DD8D0297B24001454101B0
:1010E40082801387C1A8F9B70357650005EF03573A
:1010F40045006369F702B306F74021466370D602E0
:101104001041938687001D8FAA96611790C223927F
:10111400E6002393060014C12312F5002313B5003F
:1011240021058280084159BF01458280828001CD1A
:10113400938701A903A80700938781A88C430147DB
:10114400C28763E3B70082809443636FF50663ED5F
:10115400A60613868700E368C5FE03D567002166EB
:1011640005066317C50003C6019A05062380C19AC4
:1011740023930700638407031386C1A81042630FF7
:10118400F6000356670019EA83D7470014C3835651
:101194004700B697A1072312F700BA879843E304E0
:1011A400B7FA9386C1A89442E30FD7F88356670031
:1011B400D9FA83D64700035647001843A106B296CE
:1011C4002392D70098C382803E87B6879DBF0000D4
:1011D800974100209381014C17710020130101E20F
:1011E8001305400097250020938545611736002098
:1011F8001306C67D63FAC5008322050023A05500A7
:1012080011059105E3EAC5FE17D50100130545EE62
:10121800973500209385857B1386818763FAC500FF
:101228008322050023A0550011059105E3EAC5FEB8
:101238001385818797650020938585C36377B500FB
:10124800232005001105E36DB5FE9302800873A005
:101258000230972200209382625A93E21200739020
:10126800523037170040930770052300F70493079F
:1012780080FA2300F7040F1000003C47B70600FA75
:10128800E116F58FB70600069506D58F3CC797225D
:1012980000009382E2DB73901234730020303D43E8
:1012A8002A876373C3029377F700BDEFADE59376A2
:1012B80006FF3D8ABA960CC34CC30CC74CC74107FE
:1012C800E36BD7FE11E28280B306C3408A06970219
:1012D800000096966780A6002307B700A306B7000C
:1012E8002306B700A305B7002305B700A304B7007A
:1012F8002304B700A303B7002303B700A302B70072
:101308002302B700A301B7002301B700A300B70069
:101318002300B700828093F5F50F93968500D58D4D
:1013280093960501D58D61B7939627009702000023
:1013380096968682E78086FA9680C1171D8F3E961C
:10134800E374C3F8A5B7B717004003C77705137749
:10135800E70FA38BE704130700F8A38DE7043D47C5
:10136800238CE70413075003A38CE7048280B71784
:10137800004003D587005D715ED64205418186C66F
:10138800A2C4A6C2CAC04EDE52DC56DA5AD862D40B
:1013980066D26AD06ECE9377050C13070008814B8E
:1013A800638EE718130700046392E716B7240D8FBE
:1013B8007D8993840480B3D4A4029167938707E856
:1013C800BE94A167938707D0B3D4F402EFA0D11CD1
:1013D80097C70100938787319043D443EFA081508A
:1013E800EFA0115E2A8B939C040103D9818793DCBB
:1013F8000C0163150900056913090980B717004036
:10140800130770052380E704130780FA2380E70495
:101418000F1000000547371A0040939D0401096C1E
:1014280085662389E704D14A814E8145130D0A0454
:1014380013087005130680FA894893DD0D01130C13
:101448000C712943FD1623000D012300CD000F1058
:10145800000023162A0323000D0083472A05898BE1
:10146800EDDF83570A0583472A05898BEDFF8347FC
:101478002A05898BEDDF83570A05239C2187C2073C
:10148800C183338597419319050193D9094163862F
:1014980009163387B9026350070E850EC20E93DE14
:1014A8000E0163EAD80D63DB050A3305B0409315D6
:1014B8000501C185C204C18063D9350BB717004047
:1014C800130770052380E704130780FA2380E704D5
:1014D8000F1000000965130505713385A5022396D1
:1014E8007703238007043345950242054181B640BE
:1014F800264496440649F259625AD25A425BB25B74
:10150800225C925C025DF24D61618280B1E3B77446
:1015180089097D8993840480B3C4A4029167938761
:1015280007E8BE94A167938707D0B3C4F402EFA07D
:10153800B10697C701009387E71B79BD97C70100DC
:101548009387871A856403AB07009384843861BD49
:10155800130B0000954441BD3A89F5B5B387FC40AB
:101568009399070193D90941B1B709651305057125
:101578003385A9028DBF3385B74163E4FC00338509
:10158800FD40330585033344B503634583001315D4
:101598000401A9BF4E8536C642C432C2EFA0F13558
:1015A800DA85EFA07106EFA0312F931E050193DEB7
:1015B8000E41B307D941C207C183056E3E87124663
:1015C800224889482943B24663E3C7013687420760
:1015D8004183631A27011307190063443001130775
:1015E800F9FF42074183FD1A93FAFA0FCA8BCE8599
:1015F800E3940AF6239CE18659BF0145CDBDB71790
:10160800004003D587005D7186C642054181A2C4AA
:10161800A6C2CAC04EDE52DC56DA5AD85ED662D4AA
:1016280066D26AD06ECE02C69377050C13070008FF
:10163800638FE714130700046393E712B7240D8F31
:101648007D8993840480B3D4A4029167938707E8C3
:10165800BE94A167938707D0B3D4F402EFA0C173F7
:1016680097C70100938787089043D443EFA0812749
:10167800EFA011352A89939A040103DBA18793DA35
:101688000A0163150B00056B130B0B80B71700409D
:10169800130770052380E704130780FA2380E70403
:1016A8000F1000000547939B04018969056A238987
:1016B800E704D14D014D814C93DB0B0193890971EE
:1016C8007D1A5A8597200020E780001F330C55416A
:1016D800420C135C0C41239D618763030C16B3070E
:1016E8009C0363D3070E050D420D135D0D01894759
:1016F80063ECA70D63DD0C0A33059041931C0501CB
:1017080093DC0C41C204C18063DA8C0BB71700402C
:10171800130770052380E704130780FA2380E70482
:101728000F1000000965130505713385AC023247B7
:101738002396E70223800704334595024205418139
:10174800B640264496440649F259625AD25A425B38
:10175800B25B225C925C025DF24D61618280B1E312
:10176800B77489097D8993840480B3C4A4029167FE
:10177800938707E8BE94A167938707D0B3C4F402A0
:10178800EFA0816197C701009387C7F6F1BD97C79E
:101798000100938767F5856403A90700938484385B
:1017A800D9BD130900009544F9B53E8B19BF33859F
:1017B800AA40131C0501135C0C41A9B70965130560
:1017C80005713305AC028DBF63FEAA003305754170
:1017D80033053503A9473344750363C887001315D8
:1017E8000401B1BF3385AB40E5B76285EFA0F110C6
:1017F800CA85EFA06161EFA0310A131D0501135DD1
:101808000D413307AB41420741838565BA8763635E
:10181800B700D287C207C183639A670193071B0089
:10182800634480019307FBFFC207C183FD1D93FD3D
:10183800FD0F5AC6E28CE39A0DF6239DF18645B753
:101848000145FDBD41112A83014E930E407E130FC1
:101858000019930F400663ED6E0A930800191303ED
:101868004006B3781503854E0D4FA14F33736502BB
:101878000D891335150063E7BE0C1308F6FF79468A
:1018880072984208135808013307C70213D6170085
:10189800BE0732976146B3F6C60213068070B38658
:1018A800C6023697A166F58F42075D8FB7170040CD
:1018B80083C6F70293F60608A307D1000346F10092
:1018C80083C6F70293F60608E394C6FE8346F10042
:1018D80093F6F60FF1DE930670052380D70493067E
:1018E80080FA2380D7040F10000023AA070383C6B9
:1018F800170393E60608A388D702D8DB03C71703A4
:1019080013670704A388E702238007044101828044
:101918007D133368E3039308E016630E0800336809
:10192800F3039308D016630808009378330093B83C
:1019380018009388D81633081E01131E0801135E79
:101948000E0111BF6393E50305486386080001484B
:10195800630303002A8871087298FD15131E080195
:10196800C205135E0E01C18139B713F8150063F47F
:10197800BF007908D5B713381800E5BF914763EE63
:10198800B70217C70100130767D78A05BA959C41A4
:10199800BA978287B717004003A7470B1345F5FF8F
:1019A800698F23AAE70A03A7070B698F23A8E70A09
:1019B80003A7070A798D23A0A70A8280B7170040DA
:1019C80083A6470B1347F5FFF98E23AAD70A83A6E8
:1019D800070B558D23A8A70A83A6070A758F23A08E
:1019E800E70A8280B717004003A7470B498F23AA4D
:1019F800E70A03A7070B1345F5FF45BFB7170040D4
:101A080083A6470B1347F5FF758F23AAE70A03A799
:101A1800070A598D4DB7B717004003A7470B498FE1
:101A2800EDB7B717004003D587004205418193778A
:101A3800050491EB9377F5013755E8011305058007
:101A48003345F50282809377050C130700046397EA
:101A5800E7009377F50137459C1CCDB72165130541
:101A680005D08280B7F700E0C8439C478280814751
:101A780037370040A14663C4C700328582800345DA
:101A8800B740E38EA6FE3385F500034505008507BC
:101A98002304A740CDB7973700209387A73F9C43DF
:101AA800175700201307C73C3E95636EE50017677C
:101AB80000201307A7346368A70017370020232BDB
:101AC800A73C3E858280FD57EDBF411122C406C662
:101AD8002A84813F2947B307E502B2408D83B3D7F3
:101AE800870222449507B3D7E70237370040C20779
:101AF800C1832316F74041018280716541111305A6
:101B0800052006C6D937B7370040130770F8238178
:101B1800E7400D47A381E74013070004A380E7408F
:101B280005472387E740B24041018280B7870040DC
:101B3800238007001307C0FC2386E700A386E7007D
:101B480003D7C1872398E70003D70188239AE700C2
:101B580003D74188239CE70003D78188239EE700A9
:101B680089462381D70249472383E7022385E70271
:101B78002387E7022389D702A3810700130790026E
:101B88002380E700B716004003D7A6011367070CA8
:101B9800239DE6007D572383E700130710F8A380F1
:101BA800E7001D472381E7008280B7870040238430
:101BB800A70203C7A7021377C70F2385E70282800E
:101BC800797126D206D622D44AD04ECE52CC03C83A
:101BD8008500A144137808026311080683C805002C
:101BE80009482E848144639A080503A84500AA89F8
:101BF800328A83471800034808003689A207B3E7EA
:101C08000701C2070D68C18713082890638007057C
:101C180081440357A4009737002083D7C7E0631E89
:101C2800F7009387C1889C4389CB0D473AC2231696
:101C3800210152C44C004E858297B2502254268509
:101C480002599254F249624A456182808547EF50B1
:101C58009051AA845DFD9387C188984355DB8347DB
:101C68001A0083460A004C00A207D58FB337F0004C
:101C780085073EC24E85029769BF011117C501004D
:101C8800130505A922CC2EC6328436C406CEEFA091
:101C9800310EB2458947A24603C605006319F6020C
:101CA800D8418347170003470700A207D98FC20707
:101CB8000D67C18713072790639BE700CC452390E6
:101CC800C6002285094697200020E780C024F240FC
:101CD800624401450561828041677917630CE5021A
:101CE800411122C406C685472A84639AF5002285D5
:101CF8002244B240938581AA41016F70B00D894793
:101D08006396F5008545EF90D03A75D1B2402244EC
:101D1800410182808280411126C2AA84416593854F
:101D280081AA7D1506C622C4EF70D00A17050000E7
:101D38001305C5FAEF90702F97360020938606CFCB
:101D48004146994517350020130545C8EF70C07CFA
:101D58002A8419C517C501001305459CEFA0510138
:101D68002285B240224423A6918892444101828070
:101D7800411122C42E84938581AA26C206C6AA844C
:101D8800EF503039058915C197370020938707C46C
:101D980083D7A702A285B2402310F40022442685E7
:101DA8009244014641016F60D011B24022449244EE
:101DB800494541018280CC41411106C6328503C69E
:101DC800150083C5050022064D8E42068D654186A5
:101DD800138875A2630C060F6348C804138845A2CC
:101DE8006306060B634AC800938535A26309B606E5
:101DF80023900600294679A0138855A26308060B8C
:101E0800938565A2E316B6FEC1451D4663ECE5065B
:101E18004546198E63F3C7003E862390C60097C5D2
:101E280001009385659289A8138895A26300060F1F
:101E3800634E060B1388A5A2630A060F938505A5B2
:101E4800E318B6FA99451D4663EEE502198E63F369
:101E5800C7003E862390C6009385C18031A89D4562
:101E68001D4663E1E5022146198E63F3C7003E86ED
:101E78002390C60093854189BA9597200020E78072
:101E880080090146B240328541018280AD451D4638
:101E9800E3EAE5FE3146198E63F3C7003E862390D8
:101EA800C60097C501009385E58DF9B7B1451D4674
:101EB800E3EAE5FC3546198E63F3C7003E862390B6
:101EC800C60097C501009385E58C7DB7C1451D46C1
:101ED800E3EAE5FA4546198E63F3C7003E86239088
:101EE800C60097C501009385658779B7C1451D462A
:101EF800E3EAE5F84546198E63F3C7003E8623906A
:101F0800C60097C501009385E589BDB7C1451D4643
:101F1800E3EAE5F64546198E63F3C7003E8623904B
:101F2800C60097C501009385A584B9B7B5451D4678
:101F3800E3EAE5F43946198E63F3C7003E86239039
:101F4800C60097B501009385257F3DB797360020D9
:101F5800938686C14146CD45173500201305C5AD8A
:101F68006F70805B2D453DEF03C50500094763177A
:101F7800E5063285D041411106C6034716000346DF
:101F8800060041682207518F130628FE6308C7021E
:101F98006369E600051863030703239006002945D3
:101FA8001DA8130648FE630BC7001518E31707FFA3
:101FB80015473E866377F700154621A03E8691C3F4
:101FC8000546CC452390C600420641829720002052
:101FD800E78060F40145B240410182802390060009
:101FE80005458280828083C7850093F70702E1E375
:101FF800411106C622C426C24AC003C905000943C6
:102008002E888547631B690203A345003284B68482
:102018008347130003430300A207B3E76700416344
:10202800130E13FE6382C7030D13638B67040D68D9
:102038001308289063850707A947B24022449244B1
:1020480002493E8541018280AD4765FB0547B5479A
:10205800E365D7FE0325C8000546A2859720002022
:10206800E78060EB01499387818B9843814771D75B
:10207800184361D72686A2854A850297814775BF8E
:10208800AD4745FF0547B547E369D7FA0325C800BB
:102098000546A28597200020E780E0E7E9B72244BB
:1020A800B24092440249854741016F50D00BA14785
:1020B8003E85828041677917630CE502411122C48D
:1020C80006C685472A84639AF50022852244B240D1
:1020D8009385C18A41016F70E04F89476396F50087
:1020E8008545EF90007D75D1B24022444101828040
:1020F8008280411122C42A8441659385C18A7D1555
:1021080006C6EF70204D170500001305E5FA05888F
:10211800EF90A07105C02244B24097360020938604
:1021280066B64146C545173500201305A5A44101EB
:102138006F70803EB240224401454101828009C54A
:1021480023ACA18A01458280454582801147636E90
:10215800A70697B60100938626660A0536951841A4
:10216800411106C63697AE87B28502870547614595
:10217800639AE70005461385C18997200020E78008
:1021880080D90145B2404101828005476145E39B02
:10219800E7FE05461385018ACDB705476145E393F8
:1021A800E7FE05461385418AC9BF05476145E39B9C
:1021B800E7FC05461385818AC9B715476145E3934E
:1021C800E7FC15461385018B4DBF094582804111F7
:1021D80022C42E849385C18A26C206C6AA84EF50DB
:1021E8004073058915C1973700209387A79883D72F
:1021F800A70BA285B2402310F400224426859244FE
:10220800014641016F60E04BB24022449244494587
:1022180041018280411106C6EFF06F95BD4763F416
:10222800A700EFF0CF94EFF08FBDBD4763F4A70090
:10223800EFF0EFBCB24083D5A18703D58187410178
:102248006F10A067411193962500AA852D4506C6F3
:1022580097200020E7806096B240014541018280C6
:10226800411126C29394250022C44AC02A84328987
:10227800A686AA850146254506C697200020E78040
:10228800C093A6864A86A285294597200020E78024
:10229800C092B240224492440249014541018280E1
:1022A800011122CC06CE3714004026CA4AC84EC6B1
:1022B80052C483447405034AB40583498405034919
:1022C8009405EFF04F888347A40593F4F40F137A2D
:1022D800FA0F93E71700230DF40493F9F90F137914
:1022E800F90FB717004003C7A705058B6DFF03D586
:1022F800C705A38D4705238C3705A38C2705A38B1A
:102308009704F2406244D2444249B249224A0561E4
:10231800828041119397050122C406C6C1872E8485
:1023280063DD0700EF00506019C1EF0050592165C7
:10233800218DB24022444101828093F7150013C5D4
:102348001500E5FB9397250163D00702EF2021666E
:10235800D13537F60200130606E0896503C5C18B3F
:10236800EF10A02D0965E9B7939715010145E3D250
:1023780007FC17B501001305E549EFA0611F130617
:102388000064916503C5C18BEF10202B11654DB713
:102398001D71494697B501009385454317C501004E
:1023A8001305858686CEEF10001101E917B50100E7
:1023B80013050543EFA0C11B01A037F700E0F9574B
:1023C8005CC7FD571CCB8566B7E700E023A0D71094
:1023D8001306701010C3B8434146B0C323A0D718E2
:1023E800B8C30F1000001306C00381454808EF105A
:1023F800600697370020938767F93ECA89679387F5
:102408000780231CF100ED47A301F1029307A010F8
:102418002312F102D1472303F102A167938707E052
:102428003ECE97070000938727E2BEC497070000B7
:10243800938747E3BEC685472304F102B5472308BF
:10244800F10297F7FFFF938727623EDAB7F5070097
:1024580097070000938707E53EDE8146970700004F
:10246800938787DB7000E1051945BEC097100020EF
:10247800E780A07458088147994670003E96034645
:10248800060085070507A30AC700E398D7FED247C9
:1024980091C70357810185676373F70001A0480856
:1024A800EF102057AA8501C917B501001305853417
:1024B800EF90717A01A0F6402561828041111705DD
:1024C8000000130545E506C622C4EF100051138429
:1024D800C18B2300A4002928034504002244B240EC
:1024E80037F60200130606E0896541016F10E01413
:1024F800411122C406C63714004093067005230014
:10250800D404130780FA2300E4040F100000834763
:10251800F40293F7A70FA307F4022300D4042300BF
:10252800E4040F1000008347F40293E72700A30791
:10253800F402CD311305407E23000404814701478E
:10254800814605468545EFF0EFAF2244B24001458C
:1025580041016F102079938781AB23AEF186938771
:1025680081B723A0F188938781BF411123A2F18805
:10257800938781C706C623A4F188EFF02FDBB2400A
:10258800B7E700E03707400023A0E7104101828049
:10259800938741889C43411122C42E862E84AA85A4
:1025A8001385070406C6EF90B15F22852244B24026
:1025B80041016FF08FDF93874188AA8588436F00B8
:1025C800B021B787004003C767001377F70F9376EA
:1025D800270063830646011106CE22CC26CA4AC8C4
:1025E8004EC603C777009306000313770703630BF0
:1025F800D70203C7770091461377F703630CD71EFA
:1026080063E3E60C85466305D71C6309071C894606
:10261800630DD7188D46630DD71AB7870040094751
:102628002383E7003787004083477700E207E18785
:1026380063DE072C930720FC2301F7029386C187EA
:102648008842034775008347650022075D8F2393FF
:10265800E18C83471500A382F18C8344050013F6AF
:1026680004066305061E1307000C6399E43213077A
:10267800F005639EE71897C701009387E7A223A494
:10268800F18C014409469387818C8C43EF9051511A
:102698009307F00F6301F42683D7618C9306000437
:1026A8003E8763F4F6001307000442074183998FBD
:1026B8009376F70F2393F18CB78700402380D702D6
:1026C800130700FC2DAC93062002630AD70E63E3C0
:1026D800E602930600026306D70493061002E31E7F
:1026E800D7F203C767021377C70F1367270023833F
:1026F800E70225B7930630026305D70E930640021A
:10270800E31DD7F003C72703134707042389E7020C
:1027180003C727031377C70F136727002389E70227
:10272800EDBD03C7518C95466303D7069946631BD5
:10273800D7069387618C03D4070013070004BE846F
:1027480063748700130400049387C1871389818CFD
:10275800884342048325090041802286EF90514432
:1027680083D704009379F40F818F2393F18C832707
:1027780009003E9423A4818CB78700402380370347
:1027880003C72702134707042381E70279B503C764
:10279800370083C6618C13770708558FA381E7003C
:1027A8000947DDB723800702E5BF03C77700137722
:1027B8000704E30407E603C58700F53BB9BD03C773
:1027C800A7021377C70F136727002385E702B1B560
:1027D80003C7770013770704E30107E483C787007B
:1027E8002DBD03C7E7021377C70F13672700238799
:1027F800E70225B503C7770013770704E30F07E05F
:1028080003C72703134707082389E702C1BF130734
:1028180050091304F00F6399E70283473500034713
:102828002500A207D98F61476397E70097C7010082
:102838009387C787A9B5194701446397E70097C7E6
:1028480001009387E78625BD014635BD29466364A7
:10285800F60A17B60100130626FC8A07B2979C43AE
:10286800B297828783473500834625000946A20729
:10287800D58F93D687006382C60A6368D6008547DA
:10288800638FF6001304F00F09A88D456381B60A1B
:10289800930720020144E397F6FE814709A897B7FA
:1028A80001009387A7FC23A4F18C0144C947C20700
:1028B800C18363F4E7002393F18C9387618C03D67B
:1028C80007009307000463F4C70013060004938904
:1028D800818C1319060183A50900135909014A8639
:1028E800EF90112C03A609004A9623A4C18C9307E4
:1028F800F00F6315F40AB78700401307F0FC238133
:10290800E702B787004009472383E700F2406244A3
:10291800D2444249B2490561828097B70100938742
:1029280067F223A4F18C01449307700249B793F727
:10293800F70F8546638ED7008DC7E395C7F497B721
:1029480001009387E7F423A4F18C0144F14785B78C
:1029580097B701009387C7F223A4F18C0144B947C4
:10296800B9B797B701009387E77323A4F18C0144A3
:10297800914735BF834725002393F18C05A083C772
:10298800418C2300F50003D7618C854763F8E70085
:102998008547DDB7834725002382F18CE204E18473
:1029A800E3CC04CE814609BB13F7F4018947E3144D
:1029B800F7F4834745006381E704636CF700054734
:1029C800E39BE7F2378700408347670293F73707AF
:1029D80099A0130710086388E70213072008E39CEF
:1029E800E7F0378700408347A70293F7C70B93E7C1
:1029F80027002305F7025DB7378700408347A70202
:102A080093F73707FDB7378700408347670293F787
:102A1800C70B93E727002303F70249B723000500F4
:102A28009DB7230005009C42A380070003D7618C53
:102A38008947E3F5E7F689B7937617008DC2A38136
:102A4800070009472381E70249472383E7022385D3
:102A5800E7022387E70205472383E700828093760E
:102A68004700FDDA03C757001147FDB72A86B305AB
:102A7800B04017B501001305A5F16F90D11D0111E4
:102A880006CE19C589476301F502F24005618280C7
:102A9800680097100020E780004817B5010013056B
:102AA80025FCEF90F12CD5B7680097100020E7803F
:102AB800804617B50100130565FCE5B783D7418E3D
:102AC8006390A7022393B18E2394C18E2395D18E50
:102AD8002E8617B501001305A5E9BE856F90B117BD
:102AE80017B50100130545EA6F9091280357450073
:102AF800011106CE83D7418E631FF702C167F9170C
:102B0800894503C5018223A2F18E23A4018EEF001B
:102B18007049914503C50182EF00D04885471306E7
:102B2800F100854513055030A307F100EF6011232C
:102B3800F2400561828017B501001305E5E4EF90C6
:102B48003123FDB77D15954763E4A71617B7010034
:102B58001307C7D50A053A951C41411122C406C678
:102B6800BA972E84828717B501001305E5E322443E
:102B7800B24041016F90D11F83C725001947639167
:102B8800E7022E85A5378345640017B501001305B4
:102B9800A5E2EF90510C17B501001305A5E3C1BFDD
:102BA8000D47E38AE7FEB24022444101828003C711
:102BB80025009547E319F7FEC16703D7418EF9173A
:102BC80003D5A500630FF700EF60114017B50100AA
:102BD800130545E1EF90D11917B50100130505E379
:102BE80079B72392A18E83D7E5001306006403C545
:102BF80001822393F18E83D705012394F18E83D725
:102C0800250189452395F18EDD47A385F182EF00E3
:102C1800D022096613060690A14503C50182EF007C
:102C2800D0210566130606C8914503C50182EF0049
:102C3800D0200356E4008355A40017B501001305FE
:102C4800A5DBEF90510149BF03C725008D4717B594
:102C58000100130565DCE318F7F411BF83C52500EF
:102C680091476397F50017B50100130565DC01B7B7
:102C78009947639FF5002285953D8345640017B504
:102C88000100130565D32244B24041016F90A17C35
:102C98009547639AF50083471400F1F717B50100CB
:102CA8001305C5DAE9B517B501001305A5DAE1BFC3
:102CB80082809C410947638FE7000D476382E702E2
:102CC80005476393E704AA8517B50100130545C4B2
:102CD8006F906178AA8517B501001305A5C5CDBF0A
:102CE800411122C42E8483D5850017B50100130530
:102CF800A5C606C6EF902176834584004840224445
:102D0800B24041016FF0DF8882800111939705017D
:102D180022CC06CE26CAC1872E8463D6070403C5F3
:102D280001821921AA840DC9034705009307000BE6
:102D38006312F702034745009307F007631CF70087
:102D48008355850017B501001305C5B7A385B18262
:102D5800EF9061702685A5262165218DF240624499
:102D6800D2440561828093F7150091CF1726002081
:102D7800130646F89385418D03C50182EF60E15142
:102D880013451400E1BF93F72500ADCB130600648B
:102D9800894503C50182EF00500A930780F8230292
:102DA800F10003C7B1828D4763EBE70017B5010057
:102DB800130585B2EF90C17B1345240045B78547BD
:102DC800014781460546ED4503D5418E2315F1009F
:102DD800EF40606E2AC66DD10356A1004C009710D3
:102DE8000020E78040132C0003D5418EEFF02FBE62
:102DF80061D5ED452800EF40F0037DBF93F78500CE
:102E080085C383C70182130740068146130640061F
:102E1800994503D5418EEF60A141134584003DBF1C
:102E280093F745000145E38B07F203D5418EEF6028
:102E380071190566130606C8914503C50182EF009E
:102E4800C07F1345440019BF7971170500001305A9
:102E580005EC06D622D426D2EF00303893840182BE
:102E6800994705442380A400231AF100100893070A
:102E78004006854513055030231CF10023088100C6
:102E8800EF60C16D17260020130606E9E14513051A
:102E98007030EF60A16C138641829D451305603048
:102EA800EF60C16B5008894513051031EF60016B65
:102EB8003008894513052031EF60416A9305000504
:102EC8000D45EF20A063930500051145EF20006331
:102ED80030089145130570402304810023068100C2
:102EE8002308810002CC230A0100EF50016430005E
:102EF800854513050040EF50416370008545130573
:102F08001040EF5081625008854513052040EF506E
:102F1800C1611008854513055040EF5001617D558A
:102F2800EF40E0227D55EF60C067EFF02F827D55BE
:102F3800EFF02F9C170500001305E5D7EFE0BFDD84
:102F4800172600201306C6DBD5450145EF40401281
:102F580089472306F1008D472308F1009147230A8A
:102F6800F10093870187984383C747003000854560
:102F780001453ACC230EF10023048100EFF00F9DA8
:102F8800700085450545EFF06F9C1008854509459B
:102F9800EFF0CF9B500885450D45EFF02F9B30088B
:102FA80095451145EFF08F9AC1671387418EF91740
:102FB8001CC3232207001385C181EFF04F981385A6
:102FC800C18CEF40613403C504008545A123B2508C
:102FD80022549254456182802E8683C5B18293879C
:102FE800E5FF6348F60017B501001305E58F6F90FC
:102FF80081464111420622C4418201472A84814602
:10300800ED4503D5418E06C6239FC18CEF40A04AEB
:1030180023A0A18E05C903D6E18DA28597100020B3
:10302800E78060EF01469385C18D03D5418EEFE0BF
:103038003FD409C92244B240ED451385C18D4101F1
:103048006F40405FB2402244410182804111130524
:10305800800406C697100020E780E08A37170040F2
:103068008327870A8D451305002093E7072023242B
:10307800F70AEFE0BF90EFE05FA817B5010013056E
:10308800A5B8EF90E14EEFF0AFB0EFF02FC3EF60CF
:10309800E1755D3BEFF02FCC97100020E780C0A5CD
:1030A80023AC05FE1C4191E7010001000CC18280A0
:1030B800BA8703A787FF6DFF23ACB7FE82801DC1C7
:1030C8008346E5FF1307F00F9147639EE600411121
:1030D80006C697200020E7804085B24081473E859C
:1030E8004101828095473E85828001E901458280C1
:1030F8000145B240224441018280411122C42A8400
:10310800210542059305D004418106C69710002089
:10311800E780007871DDFD57232005002312850024
:103128002303F5002105F1B71387C18E1C43411114
:1031380022C426C24AC006C601440149BA8489E7A6
:10314800A1658D250DC401A803C7E7FF6318A70271
:103158001DC8A165C1269840832784FF6317E40230
:1031680023A6F18EFD57232C04FE230FF4FE22859F
:10317800B2402244924402494101828011E03E89D2
:1031880083A787FF6DBF3E84E5BF232CF9FED9BF17
:10319800A9C9411122C406C62A849747002083C7BB
:1031A800B7A22E856368F400193F0D45B24022444A
:1031B8004101828083A785FF99E703C7E5FF93074D
:1031C800F00F6305F700E53D1545CDB7238F85FE64
:1031D8001385C18EF13522852244B240A165410193
:1031E80015AE1545828023A6018E82809387419073
:1031F8009C4399E33E85828003D727006316B70076
:1032080003C70700E308A7FEDC47E5B7411193971A
:1032180005014AC006C622C426C2C1872E8963DEBC
:103228000700193711C1613D21653345A900B24036
:1032380022449244024941018280AA860145E5D987
:1032480001443D47B3578940858B95CB9387818F40
:103258008443BD4791E28147A2978E070545BE94F6
:1032680033158500131405019C40C840418082979E
:1032780023A0040023A20400334524014DBF050404
:10328800E312E4FC0144CDBF9747002093870790E1
:103298009C53411122C406C61384C18295C78297E4
:1032A80023A6A1820840B74703009387D73F330579
:1032B800F502B7A72600938737ECB24022443E9523
:1032C80023A6A18241018280974700209387C78F58
:1032D80018409C4BBA9723A6F182E9B79387018FD0
:1032E80090439746002083C6368E814713F7F70F21
:1032F8006360D70A17470020034777A1914763E027
:10330800E70A9747002083C727A5918BC9EB0111CE
:10331800680006CE22CC26CAEFC0E02EFD56630F09
:10332800D50C32479747002083C7778763F3E70CAC
:1033380017470020130747894047174700200347CE
:1033480027866305D406058B21CF51473304E40251
:1033580063F1870A97100020E78000E1B2476373A2
:10336800F400A2871747002003477783998F3E957B
:1033780097470020938787818387470163CD07029A
:10338800B707C0A86369F502B70740573E9525A05F
:1033980085071397170032970357E7FF21DB8280D1
:1033A800130790023304E40205805DB76207618762
:1033B800635707001D8D19E93705C0A801A8E37BED
:1033C800F5FE3707C0A8B307F7403E9597370020AA
:1033D8009387C77BDC53829709ED97470020938733
:1033E800A7929C4F99C7EF102112EF102170EF1090
:1033F8000106F2406244D24405618280973700207A
:103408009387877CDC47E386A7FE173700201307DE
:10341800E77783464701BA84858A9DC65144338439
:1034280087029737002083C79777E3F487FC9710C4
:103438000020E78060D39737002083C757761D8C1C
:103448002295838744011DBF1304900233848702A9
:103458000580C1BF2A9609E582800505A30FB5FE40
:10346800E31DC5FED5BF81473307F50003070700F5
:1034780019E33E8582808507C5BF01112E8626CABD
:10348800AA84131506019305F004418122CC06CEC7
:1034980032C697100020E780A03F2A8419C532461B
:1034A800A68597100020E78000A72285F240624495
:1034B800D2440561828081476314F6000545828005
:1034C8003307F5008507B386F5000347070083C671
:1034D800F6FFE383E6FE014582809307F6FFBE957B
:1034E8002A966313C5008280FD1583C7150005055C
:1034F800A30FF5FEFDB7814711E901458280330727
:10350800F50003470700E31AB7FE8507E319F6FE3F
:10351800054582809737002083C7176B637FF500C6
:103528001387018F9317150008433E9583570500AD
:10353800DD8D2310B500014582800D458280FD5741
:103548000111173700202327F7689387419022CC71
:1035580080434EC6973900209389496326CA4AC8D2
:1035680052C456C206CE5AC02A8981444E8A973A16
:103578000020938A6A65184481476374E900B30799
:10358800274103A749021CC409CB03A7CA0063F655
:10359800E70017370020232FF762A1E7835524009F
:1035A8009DE95C44A1E823A2F190032BC400228585
:1035B80097100020E78060375A8455FC83274A0219
:1035C80085CF6244F240D2444249B249224A924AE3
:1035D800024B056121B3034504002D3F5C4081CBBC
:1035E8001CC483572400D5DFA2844044F9B71C4487
:1035F800CDDBC5BFDCC455BFF2406244D24442496A
:10360800B249224A924A024B0561828097370020CC
:1036180083C7975B6371F5021387018F93171500B2
:10362800084393C5F5FF3E9583570500FD8D23108C
:10363800B500014582800D4582809737002083C7F9
:10364800B7586364F50001458280411122C426C23F
:103658004AC006C62A842E89B284493E01C504C5DB
:1036680005452DA0936504F0C205C1814145971019
:103678000020E780E0210DE197370020938707516C
:103688009C5B81C7A285114582970145B2402244BF
:103698009244024941018280938741909C438DE383
:1036A80023A2A19085472326050004C523112501DF
:1036B80023008500A300F5002322050055B7BA872B
:1036C800D84775FFC8C7F9BF45C539715AD0138B9C
:1036D800818F22DC26DA4AD84ED652D45ECE66CA0C
:1036E8006AC86EC606DE56D262CC3689328AAE8980
:1036F800AA8401445A8DB94D854BF94C03270B0018
:10370800131C3400937AF40F62971C43A9EF13B586
:10371800FA0013451500B3978B0063F65D01930714
:1037280014FFB397FB0093950701C1815286313787
:103738001DC983270D000145E29784C323A23701E1
:103748006304090023005901F2506254D2544259CB
:10375800B259225A925A025BF24B624CD24C424DF9
:10376800B24D216182800504E31A94F92145E9BF2D
:1037780009458280411122C426C24AC006C6AA84CD
:103788002E8932845D3DCA852685EFF03FA609C99A
:1037980040C10145B240224492440249410182801D
:1037A8002145CDBF411122C426C24AC006C6AA84FB
:1037B8002E89EFF0BFA32A8419C12311050097377A
:1037C800002083C7674063949700239E218FCA8592
:1037D80026852D3D014511E01945B2402244924409
:1037E8000249410182807547636BA7041387818F63
:1037F8001443411126C293143500A696944222C45C
:1038080006C6AA873A84094595C613B5F70039470D
:10381800134515006373F700C5178545B395F50083
:10382800C205C18141371C400145A69723A0070066
:1038380023A20700B24022449244410182800945F4
:103848008280411106C6EFF07F9A09C50845B2404B
:10385800410182800145E5BFF54763EDA7049387E1
:10386800818F9C4313173500BA979843894721C71E
:10387800011126CA06CE9334F50022CCB94793C469
:10388800140063F3A700451505443314A40042044B
:1038980041802EC62685A2856D378947324609C5DF
:1038A800A2852685593B8147F2406244D2443E8531
:1038B8000561828089473E858280239AA18E239B59
:1038C800B18E8280411106C623A0A1900295B24014
:1038D8009737002023A4A7300145410182809947EA
:1038E80063E9B7008A059737002093872730BE958C
:1038F80088C18280411106C6EF50517671468145D4
:10390800173500201305852EB13613064002814570
:10391800173500201305452B353E23A2019023A01F
:1039280001909737002083C7272813D527008D8B50
:103938003E958D473305F50293051010350513752F
:10394800F50F973700202382A72899473305F502FA
:103958001305050F97100020E78080F323ACA18E94
:1039680035C9994717360020034626263306F6023E
:1039780081451306060FEFF0FFAD9387818F9C43B7
:103988009387070F23A4F190173700200347E723F5
:103998000A07BA9723A8F18EEFF0FF84552693877C
:1039A800819098439737002083C717229396270062
:1039B800BA96170600001306A68590C293862700BC
:1039C800850793F7F70F8A0797350020A38ED51E32
:1039D800BA9790C3B240410182809737002083C7CD
:1039E800B71E173700200347471E63F1E702138706
:1039F800819018439386170017360020A306D61C1B
:103A080093962700369708C33E8582809307F00F68
:103A1800E5BF1C416381071A41777D8FB7060020F7
:103A28008947631BD71803574500630707184111D7
:103A380022C419462A849305F00F590506C6EFF0EB
:103A48009FAB05478D476303E5161C4481CB585847
:103A58009947630D0714185C630A07141306C0031B
:103A680081451735002013056512EFF0BF9E130638
:103A7800C003A285173500201305451197000020C3
:103A8800E78060499737002083D7071197360020D1
:103A98009386C60F99E79307001017370020231D58
:103AA800F70E9737002083C7470F91E785471737E9
:103AB80000202304F70E9737002083C7170E91E7DD
:103AC800ED4717370020A30AF70C9737002083C764
:103AD800E70C91E79547173700202301F70C973734
:103AE800002083C7B70B91E7854717370020A30746
:103AF800F70A9737002083C7B70A99E783C70601F3
:103B080017370020A30EF7089737002083C7270927
:103B180091E7D147173700202303F708973700208C
:103B280083C7A70895E717370020034767071316C9
:103B3800870161869307C0026348060093771700E0
:103B480093B717009387D70217370020230FF7047E
:103B58009737002083C7B70495E717370020034736
:103B680027041316870161869307C002634806007D
:103B78009377170093B717009387D702173700205A
:103B8800A30FF7008347D40191E78947173700202F
:103B9800A30CF7009C5691C782979737002023986B
:103BA800A702893BFD57A38AF1A68147B240224468
:103BB8003E854101828089473E858280011122CC61
:103BC80006CE2A842EC6EFF02FECB245F240818D46
:103BD80033A5A502229562441375F50F056182800D
:103BE800011122CC06CE2A842EC6EFF0EFE9B245A9
:103BF800F240818D33A5A502229562444205418198
:103C080005618280011122CC06CE2A842EC6EFF0EF
:103C1800AFE7B245F240818D33B5A50222956244E3
:103C28000561828097370020938747F6985725C308
:103C3800411122C426C206C6BE8402971737002047
:103C48000357E7F82A8441C7BA876373A700AA878E
:103C5800C207C183BA866373E400A286C206C18222
:103C6800958F51476355F706DC5491C38297854772
:103C780017370020230EF708EF00715397370020FD
:103C8800239787F4B24022449244410182809737B7
:103C9800002083C7E7079DE7973700209387C7066B
:103CA80083C79700850793F7F70F17370020A301FD
:103CB800F706A18B9DC7854717370020231AF704FD
:103CC8006F00D15497370020A3840704D5BF9737D6
:103CD800002083C7E703DDD72244B2409244410164
:103CE800C5B7828097370020938747EAD8570111D4
:103CF80022CC06CE3E8401C72AC60297324509CD9A
:103D080023A6A1901705002013058547653EF240BC
:103D180062440145056182808307440163DD070031
:103D28009737002023AE07EA970700209387E73FDD
:103D380023A6F190C1BF970700209387E742CDBF24
:103D4800011122CC17340020130444E4084406CEA1
:103D580026CA4AC801E90545F2406244D2444249AC
:103D6800056182805C58E5DB185C75D77000854575
:103D780082971844B247E300F7FE9305E00417352D
:103D88000020035565E197100020E78060B01737E1
:103D980000202329A7E461D1173600200356C6DF87
:103DA8009305F00FEFF00FEB81441739002013094A
:103DB800A9E19737002083C747DE0326C90163C1FD
:103DC800F402328597100020E78020B60145973726
:103DD800002023A907E09737002023A707E0ADBFFD
:103DE8009735002083D545DBB38795020844185CD6
:103DF800898185043E9508C2029765BF411122C496
:103E080017340020130484D81C4426C206C64AC0AE
:103E180097340020938444DB91EBC84C35E9B240D9
:103E28002244924402490145410182801C5CF5D735
:103E3800DC4C99EF9305E004173500200355C5D5F0
:103E480097100020E780C0A49737002023ACA7D89C
:103E5800C84C61D517360020035606D49305F00FD9
:103E6800EFF04FDF01499737002083C707D3D04CC5
:103E7800E355F9FA9735002083D505D23385250314
:103E88001C44898105093E951C5C08C28297E1BFE4
:103E980097100020E78060A99737002023A407D453
:103EA8009737002023A207D49DBF011156C2973A25
:103EB8000020938AAACD83A78A0022CC4AC84EC67E
:103EC80006CE26CA52C45AC0AA892E84328963856E
:103ED800072203A74A03630707147D476366A714ED
:103EE80097340020938444CE03AAC40163170A0AB6
:103EF8009565938515E0173500200355E5C997109A
:103F08000020E780E0989737002023ADA7CC2A86C9
:103F1800630A051083A74A0303A58A009735002082
:103F280083D585C78981829783A78A0003AAC4019C
:103F380017370020232AF7CA8947639CF908C14725
:103F48006312F40E9735002083D505C5938505FCCB
:103F58009147B3C5F5028A05D29503C705009307B3
:103F6800A005631DF70A83C715006399370B4A85B7
:103F78002286910597000020E780E0F9DC4C528505
:103F8800639347150145F2406244D2444249B2491D
:103F9800224A924A024B056182809850E38EE7F8E4
:103FA8009565938525E0173500200355E5BE9710E4
:103FB8000020E780E08D2A8A35C52A8683A74A0330
:103FC80003A58A009735002083D505BD898182978E
:103FD800A5B78D47639DF900C1476315F40497356C
:103FE800002083D565BB938545FDF199B5B7914709
:103FF800639AF900631834039735002083D5C5B94F
:10400800A115E5B7C147639FF900A14763EC870095
:104018009735002083D545B8C115C1BFDC4C528502
:104028006397470D294585B71307F006568B6361DB
:10403800A70A130A05FE1947334AEA021737002070
:10404800035787B5973A0020938A0AB8330AEA02D9
:104058003E9A83A70A026395470183A4CA019DE497
:104068009305E00417350020035505B39710002089
:10407800E7800082AA845DD583274B03973500200B
:1040880083D585B12A868981528582979145130700
:10409800A005898193972500A69783C60700639397
:1040A800E60483C61700639C360385058A052286C5
:1040B800A6954A8597000020E780E0E583A7CA0116
:1040C800E38297EC268597100020E78000865DBD87
:1040D8001307E007E368A7F4130A05F985B783D542
:1040E800270045BF83A7CA01E38E97F2268597105C
:1040F8000020E78080833DB7973700209387C7ACBF
:10410800CC4F8DD191479306A0058983139727003B
:104118002E9703460700E317D6F003461700631CE3
:10412800360185078A072286BE954A8597000020B2
:10413800E78060DE81BD83572700C1BF9737002025
:104148009387C7A4984739C79C5FA9C705476313D6
:10415800E504411122C4173400201304E4A6504C8E
:1041680006C60DC608509735002083D5E5A289817B
:104178008297484C97000020E780207B97370020E3
:1041880023A207A69737002023A007A6B2402244FF
:104198004101828082800111173700201307079F91
:1041A8004EC68329870022CC26CA4AC806CE52C4E6
:1041B80056C2AA842E843289638A09201C5FBA8A6F
:1041C80099EB2945F2406244D2444249B249224A15
:1041D800924A056182805C5BEDD7FD4763E9A70ED3
:1041E800973900209389499E83A7C901B1CB03A5BC
:1041F8008A0083A709026395A70689476393F40891
:10420800C147E310F4FC173500200355E5989147A2
:10421800130505FC3345F5029317250003A5C901CD
:104228002286CA853E959307A0052300F500A300C2
:104238009500110597000020E780E0CD014559B7AA
:104248009305E004173500200355059597000020D5
:10425800E78000649737002023A6A79849F995B707
:1042680083A74A0303A6C9019735002083D5C592C1
:104278008981829783A78A00173700202326F7961B
:10428800ADBF8D47639EF400C147E31CF4F21735B8
:10429800002003556590130545FD9377C5FFBDBF05
:1042A8009147639AF400E31E94F0173500200355F4
:1042B800A58E2115DDB7C147E395F4F0A147E3E2E8
:1042C80087F0173500200355258D4115F9B7930759
:1042D800F00663EAA706930705FE1947B3C7E70286
:1042E800173700200357478B173A0020130ACA8D47
:1042F800B387E702BE998327CA01A9CF83270A0299
:10430800639A37070325CA0191461308A005FD558E
:1043180093D72600C207C183139727002A9703461D
:104328000700631D06078348170003562700639597
:104338009806B306D64063CF860485078A07228687
:10434800CA853E95C5BD9307E007E3ECA7E693074A
:1043580005F979B79305E004173500200355C5839F
:1043680097000020E780C0529737002023ACA7862B
:1043780051F581BD83A74A030326CA01973500205A
:1043880083D5858189814E8582979737002023AD13
:1043980037858DBFA300B700B2869DBFB385860061
:1043A800172600200356467F9105130606FCE3FAFC
:1043B800C5E0130634001376C60F1106B296230023
:1043C8000701A30097002311D70085BF9727002076
:1043D8009387877FD44FBE89A1C203A5C90191469F
:1043E8001308A005FD5593D72600C207C18313976C
:1043F80027002A9703460700631606058348170017
:104408000356270063989800B306D640E3D786F290
:10441800A300B700B286C1BF8357C7001725002085
:104428000345A5779305E0043305F502420541816C
:1044380097000020E780C0459727002023A4A77A8B
:1044480049FD41B31726002003560675972500201D
:1044580083C5A574B385C502338686001106E3E2D9
:10446800C5D681BF01458280011106CE2EC6EF70E8
:10447800803301C9B245F2400355250005616FA09C
:104488004062F240494505618280A38C0192238CE9
:10449800019223A0019223A2019223A4019223A6B0
:1044A800019223AE019023AC0190972700209387B7
:1044B800A7753707B40098C33747A000D8C3370794
:1044C80010009306070A94C7B7065000C106D4C760
:1044D800930607054107D8CB3707D007410798CF80
:1044E8003707840398D337C70700130707B8D8D30B
:1044F800416794CB93060701130717F8D8D73707F6
:1045080081FF98DB7D5723AE070094D7239AE702F3
:104518008280011126CAAA84214522CC06CE2E8487
:1045280032C636C43AC2EFE05FBC1DC9A246124784
:104538003246930700FD2300F5009947A300950034
:104548002301F5002303D500A303E5002312C500CA
:10455800AA8522856244F240D24405616FE05FC3B8
:10456800F2406244D2440561828023A0A1928280F5
:1045780023A2A192828023A4A192828023A6A19241
:104588008280011122CC4AC806CE26CA2A89014453
:10459800B30489006368B400F2406244D2444249DB
:1045A800056182802EC6EFE03FCE93170501C183D7
:1045B800A183B2452380F4009307140093F7F70F03
:1045C800850463F9B700CA9709042380A700137408
:1045D800F40F7DBF3E847DBFC167172500200355BA
:1045E8008566FD176302F502411103C6419C938558
:1045F800019306C6EF60707CB240FD571727002074
:104608002313F76441018280828009C92515137537
:10461800F50F1335850E13451500828001458280FC
:1046280023800500F94763E2C708797122D426D2AE
:104638004ECE56CA5AC806D64AD052CC5EC6368422
:10464800B289AE8A2A8B814463FF3405B30794008C
:1046580003CA0700138914001379F90F63050A04C4
:10466800B3072A0163C1F904B307240183CB070008
:104678005E85613F0DC99307FAFF2380FA006390B6
:104688006B03130519002295B25022549254025913
:10469800F249624AD24A424BB24B45618280D29477
:1046A80093F4F40F55B70145C5B701458280411110
:1046B80026C2AE8422C49727002023ADC758972767
:1046C800002023A7B7589727002023A1A7582A849A
:1046D80041469305F00F26854AC006C60549EFE016
:1046E8009FE1631E25039727002093876755884B12
:1046F800C145413D41469305F00F2285EFE0BFDFFC
:1047080085446316950222449727002093874753D0
:10471800B24092440249C847C14541019DB541464E
:1047280081452685EFE03FDDE31625FD6DBF414657
:1047380081452285EFE03FDCE30795FCB240224447
:104748009244024941018280411122C426C22E842A
:10475800AA84130600028145172500201305454E3B
:1047680006C6EFE03FCF97270020A38C974CA38382
:10477800819CEFA08034854719C181474945B240E3
:10478800224417270020230DF74A924441018280D2
:10479800814781CD19C98547631BF50083C755003B
:1047A80093E707FCA382F50085473E858280894709
:1047B8006317F50083C7550093F7F703E5B70D476F
:1047C8008547E314E5FE03C755001377F70313671E
:1047D8000704A382E500D1BF81478DC105C103C786
:1047E80055009306000C85471377070C6308D7001C
:1047F800930600048D476303D70089473E8582806E
:10480800411122C4005D06C626C21DC8AA840850EC
:1048180009C597000020E7804011485009C5970056
:104828000020E7808010085409C597000020E78021
:10483800C00F228597000020E780200F23AC0402D8
:10484800B240224492444101828009ED972700201A
:1048580083C7273F172500201305054081CB138503
:1048680001918280172500201305053F82801725B6
:1048780000200345053D8280972700209387473C09
:10488800C8478280972700209387873B884B828080
:10489800972700209387C73ADC4B88438280972765
:1048A80000209387E739D84B1C4385071CC317257D
:1048B8000020034515399307F00F6305F50091654E
:1048C8006FE05FC58280011122CC06CE2E8432C6ED
:1048D800EF60B07C9147B245631FF5009387C192A2
:1048E8009C438DC303A30700630E03002285624423
:1048F800F24005610283938741929C4381C703A3D9
:104908004700DDB7F2406244054505618280011128
:1049180022CC2A840355450006CE26CA4AC84EC66C
:10492800EF60905835C52A89834405008349C5003E
:10493800C13D4A85EF70F04F03554400EF60707138
:1049480083C78193B1CB6399970483C591932685D7
:10495800EFF09FB119E1238C019203554400EF60F9
:10496800D0739147631FF500035744009727002031
:1049780083D7672D6317F700FD57172700202314E7
:10498800F72CF2406244D2444249B2490561828020
:1049980081499304F00F6DB79307F00FE38FF4FA92
:1049A8008346640003564400034524004E87A685C9
:1049B800EFF03FB65DB779715EC6AA8B2E8552CCF3
:1049C80056CA5AC806D622D426D24AD04ECEAE8A65
:1049D800328B368AEF60504D6DC1045D2A89F1CC67
:1049E8009C50614599C3130540039C5481C75105E8
:1049F8004205418163050A00710542054181DC5089
:104A080081C7590542054181EFE02FEE2A8455C53B
:104A180061468145EFE01FA49729002083C9C92179
:104A28006394090083490900930700FD2300F400FB
:104A3800A947A30074012301F400230364018C50E7
:104A4800231254011305840191C908C47146930ABD
:104A5800440397F0FF1FE780004C56858C5491C99A
:104A680048C45146930A450197F0FF1FE780A04AC2
:104A78005685630C0A0008C87146D285930AC50199
:104A880097F0FF1FE78020495685CC5099C548C844
:104A9800594697F0FF1FE7800048A2854E85EFE052
:104AA8002FEF2254B2509254F249624AD24A424BF2
:104AB800B24B4A8502594561A1B3B250225492546F
:104AC8000259F249624AD24A424BB24B456182804E
:104AD80001114EC6AA892E854AC806CE22CC26CAFE
:104AE8002E89EF60703C31C59724002083C4C4141C
:104AF80099E0834405001945EFE02FDF2A8415C9A2
:104B080081451946EFE01F95930700FD2300F40047
:104B1800B947A30034012301F40023122401A2851C
:104B28006244F2404249B2492685D24405616FE0A9
:104B38002FE6F2406244D2444249B249056182807C
:104B480039715ECEAA8B2E8526DA4ED652D456D22D
:104B58005AD006DE22DC4AD8AE84328BB68A3A8A2C
:104B6800BE8942C6EF60503431C92A894145EFE019
:104B7800CFD72A8421C541468145EFE0BF8D17254F
:104B880000200345650B19E103450900930700FD63
:104B98002300F400BD472301F400B247A3007401C9
:104BA8002312940023046401A3045401230544013F
:104BB800A30534015CC4A285EFE08FDDF250625496
:104BC800D2544259B259225A925A025BF24B21618D
:104BD8008280797126D2AA8439454AD04ECE06D62B
:104BE80022D42EC6B2893689EFE02FD021C1B24532
:104BF8009307000D2310F500B1472A842312B5004E
:104C08002301F500CE851905194697F0FF1FE780A7
:104C1800803023062401A2852254B2500259F24959
:104C280013F5F40F925445616FE08FD6B2502254B9
:104C380092540259F24945618280172700200347A0
:104C480057009307F00F630DF706411126C2AA8497
:104C5800394522C406C64AC0EFE02FC92A8439C99B
:104C6800930700FD2300F500A3009500230105002C
:104C780097250020938545FE0D05194697F0FF1FDF
:104C8800E780602917290020130989FB83578900C9
:104C9800A285172500200345D5FA2315F40083477C
:104CA80019002306F4002244B2409244024941010B
:104CB8006FE00FCEB2402244924402494101828003
:104CC8008280011156C2AA8A314526CA4AC84EC6F0
:104CD80052C406CE22CCAE84328AB6893A89EFE035
:104CE800CFC029C92A842685EF60101C1DCD034535
:104CF8000500930700FD2300F4009D47A30054011D
:104D08002301F400231294002313440123143401D3
:104D180023152401A2856244F240D2444249B24993
:104D2800224A924A05616FE0AFC617250020034565
:104D380055F1C1B7F2406244D2444249B249224ACD
:104D4800924A05618280397162CC2A8C594526DAEB
:104D58004AD84ED652D456D25AD05ECE06DE22DC7F
:104D6800AE8432C636C4BA8B3E8BC28A468A835911
:104D7800010403494104EFE04FB735C532469307B4
:104D880000FDA2462300F5009547A301C500A30036
:104D980085012301F5002A8419461105A9C2B685A3
:104DA80097F0FF1FE780201723066401230A2401D8
:104DB80023157401231754012318440123193401BE
:104DC800A2856254F2504259B259225A925A025B51
:104DD800F24B624C2685D25421616FE06FBB81454E
:104DE800EFE04FE7D1B7F2506254D2544259B2596A
:104DF800225A925A025BF24B624C216182809727B9
:104E0800002083C707E48DCB4111AA851946138575
:104E1800019106C697F0FF1FE780E00F9385019187
:104E2800172500200345E5E1EFF09F96B240138572
:104E3800019141016F903049014582801727002078
:104E4800034737E09307F00F6305F708411126C2BF
:104E5800AA84294522C406C6EFE02FA92A8429C1BD
:104E6800930700FD2300F500A1472301F500A300E7
:104E78009500972700209387A7DC83C72700938591
:104E880001911105A30FF5FE194697F0FF1FE78062
:104E98008008A285172500200345B5DAEFE04FAF5B
:104EA800172700200347E7D98D47631FF70093872B
:104EB80081929C4391CB03A387006307030022449C
:104EC800B240924441010283B240224492444101DB
:104ED8008280172700200347C7D68D47631AF7003B
:104EE800938781929C4389C703A38700E31D03FC32
:104EF8008280797122D406D626D24AD04ECE52CCA0
:104F0800094445C92A89035505002E8A5144EF6092
:104F1800A079AA8459CD83C7719CFD1793F7F70F21
:104F2800054749446377F7080347C500A147631459
:104F3800F70063100A089C5C4544A5EF91659385CA
:104F480045711305C00297000020E780609488DC53
:104F5800AA894D4439CD1306C0028145EFE08FCFB1
:104F6800835709009386490036852391F9007146D5
:104F78009305490036C697F0FF1FE780C0F98947B7
:104F88002380F90003C5C400B24603560900611521
:104F980083C5419C13351500EF90C0072A8463062A
:104FA8000A00D2852685EF70F01301C42685EFF03C
:104FB8003F852285B250225492540259F249624ADE
:104FC8004561828083C7719CFD1793F7F70F0547EA
:104FD8006378F708894751C6011122CC26CA4AC806
:104FE8004EC652C406CEAA89368AB2842E89EF608C
:104FF800A06B2A84D14729C9485509C597000020C4
:10500800E780A092F1452685EFE02FC748D4CD4729
:1050180005CD8346C40021478147639FE600630DA1
:105028000A000347A5010356050193062501AA8531
:105038004E85EF700003AA8703474400630F0900F9
:10504800136767002302E400F2406244D2444249F5
:10505800B249224A3E850561828013674700DDB761
:10506800C9473E858280E54763EBA7009727002064
:10507800938787B906053E950355050082804165EB
:105088007D158280011122CC2A842E8526CA06CE5F
:10509800AE84EF6060610DCDB7470F009387F723AB
:1050A800094563E2870281450A854146EFE08FBAE8
:1050B800A685231081000A85418023018100A30170
:1050C8000100EF809057F2406244D244056182802B
:1050D8004945D5BFA382A19C82806F80706C79718D
:1050E80052CC2A8A328522D426D24AD04ECE56CAEB
:1050F8005AC85EC606D662C4AE8BB28A368BBA84EC
:105108003E89C2894684EF60205A15C92A8C6314E7
:105118000A0213774B008347450015CF93E7270111
:105128002302FC008DEC631C0902639A090205E85E
:10513800ED9B2302FC00832B8C03639F0B06B2506C
:10514800225492540259F249624AD24A424BB24B13
:10515800224C45618280F59B93E70701D1B793E71D
:1051680047002302FC0001CC1C484146A2852324A9
:10517800FC0213058C0197F0FF1FE780C0D96391EB
:105188000B02D5D80325CC0209C597F0FF1FE7808D
:10519800C079F1452685EFE04FAE2326AC0261BF0A
:1051A800E30B09F80325CC0209C597F0FF1FE78038
:1051B800C077F1454A85C5B79DC483A70B0299EB13
:1051C800916593853571714597F0FF1FE780406CB5
:1051D80023A0AB0203A50B0219C57146A68597F05B
:1051E800FF1FE78040D36388090283A74B0299EB2E
:1051F800916593852571594597F0FF1FE7804069B0
:1052080023A2AB0203A54B0219C55946CE8597F0D8
:10521800FF1FE78040D01DC483A78B0299EB9165DF
:1052280093851571514597F0FF1FE780606623A4A9
:10523800AB0203A58B0219C55146A28597F0FF1F43
:10524800E78060CD2254B2509254F249B24B224CBE
:10525800CA865A860259424BD6855285D24A624A34
:1052680045616FF04FF5011126CA52C406CE22CC13
:105278004AC84EC62A8AAE84EF60004325C5AA896B
:105288003945EFD09FE62A8431CD172900200349FC
:10529800A99A6314090003C909009307000D231094
:1052A800F400AD472301F400938569001305340029
:1052B800194697F0FF1FE78000C693F71400858012
:1052C80085882306F400A306940023154401A285CB
:1052D8006244F240D244B249224A4A8542490561B1
:1052E8006FD01FEBF2406244D2444249B249224A8D
:1052F8000561828093878191884301CD411106C65B
:1053080097F0FF1FE7806062B24023AC0190410133
:1053180082808280011106CE22CC26CA4AC82EC6B7
:10532800EF60803839CDB245172900200349C9906C
:10533800AA840CD563140900034905004145EFD040
:10534800DFDA2A841DCD9307000D2310F500A54749
:105358002301F50083C75400938564001105A30F4A
:10536800F5FE194697F0FF1FE780E0BA9C54A28526
:10537800F2405CC46244D2444A85424905616FD018
:105388003FE1F2406244D24442490561828079712A
:1053980022D406D62A842EC6EF6000310DCD83466E
:1053A800C5001147AA8749456393E6029C5FB24549
:1053B80099C383C567010808EF70C05B9786000032
:1053C800938646E4100889452285EF60504EB25016
:1053D8002254456182805145DDBF83C7719CFD170A
:1053E80093F7F70F0547637AF704894721CA4111F4
:1053F80022C426C24AC006C6B2842E89EF60C02ADB
:105408002A84D14705C5630809008347450093E707
:1054180027002302F5004146A6851305840197F06D
:10542800FF1FE78040AF9C481CD48147B24022440C
:10543800924402493E8541018280C9473E85828067
:10544800797122D406D62A842EC6EF60E02501CDD4
:10545800B2452285230EB1006C08EF702045B2508A
:105468002254456182805145DDBF6F60C038C167F5
:105478001387E7FF6394E502938741929C4391EB7E
:10548800494582804945B24022449244024941013B
:10549800828003A30700E30503FE0283411122C4AF
:1054A80026C24AC006C6FD172A892E84B28463958F
:1054B800F502938741929C4391CB9C4381CB829781
:1054C80011E5238C2193A38C919275BFA6854A85FB
:1054D800EFE09FF94DF9F5B72E85EF60E01C5DD13F
:1054E800834705000D45E39027FB22852244B240FF
:1054F8000249A685924441016F90A05A65476362AC
:10550800A7044111416722C406C626C27D172A8412
:1055180009456383E502C547AE846315F4002E850B
:10552800EF90E05F93171400171400201304C46D64
:10553800A297239097000145B2402244924441012A
:10554800828009458280011106CE2AC6EFE0FFF36A
:10555800EF108003EF00E075EF3051683245971780
:1055680000209387E76D130700F02391E70023825B
:1055780007007D579387419CA380E7002380A700FD
:10558800F240954505616F40F02D1D719397050117
:10559800CAC886CEA2CCA6CACEC6D2C4D6C2DAC0E3
:1055A8005EDE62DC66DA6AD8C1872E8963D0074C72
:1055B80003C5419CEFD05FB78964416A856A797BEE
:1055C8002A84938BD4007D1AA50A691B15E02165EE
:1055D8003345A900F6406644D6444649B649264AAA
:1055E800964A064BF25B625CD25C425D2561828022
:1055F800834704001307200A639DE700035524002E
:10560800171C0020034CFC632286D285EFF0AFAB59
:105618003DAA1307100903CC519C6397E7168347EB
:1056280014001547639EE7002285EFF04FAE2285F0
:10563800EFD0FFA803C5419CEFD01FAF2A8479B7EC
:1056480039476399E71603554400631B55050C4415
:1056580083C90500639D0900850591C91946171579
:1056680000201305655F97F0FF1FE780C08A1717B2
:1056780000200347E75C85476318F710638A090031
:1056880097170020238E075A4E85EFF00FDB45B79A
:105698008947171700202305F75AEF90804241BF2A
:1056A80093872400631AF50683298400638E090C06
:1056B80083C709008DE383C7290003C71900A20720
:1056C800D98F171700202311F75883C739001717E8
:1056D8000020A307F7561717002003476756894786
:1056E8006314F70A83C7090081CB97170020238921
:1056F800075403C5090051BF8D479715002083C57E
:105708003554171500200355255417170020230971
:10571800F752EF403018F1BF938754006318F50033
:105728001C4403C50700EFF06FF111B7B30765011B
:10573800C207C1831147636FF700938781929C4327
:10574800E38707EE9C43E38407EE22858297E31004
:1057580005EE1DA89387B400631FF5009387019297
:105768009C43E38607EC9C43E38307ECA2851385FF
:10577800B4008297E9BF9387C4006310F5021C4404
:1057880083C70700E38507EA9307F00FE301FCEA04
:10579800A2856285EFD0DF9F71BD9387E400E31592
:1057A800F5FE938741929C43E38307E8DC43A28597
:1057B800E9F3B5BD3D476397E70403554400E302A9
:1057C80075FF93879401E30EF5FC93873401E31D7D
:1057D800F5FA9717002083D70747639E47019387F9
:1057E80041929C43E38507E4DC43E38207E4A28516
:1057F80013853401BDBF9387C1929C43E38907E2B7
:105808009C43E5B71307E003E390E7F883472400D8
:1058180005476396E70E83476400138D8191F1E392
:1058280083270D00D5CB03CC0700A149034574009D
:10583800930C8400E685EFE03FFA83474401A30315
:10584800A400835804010358E400035744002A863F
:10585800034534003EC283572401E686E2853EC0F4
:10586800CE87EFF04FCE8347340095E7DD47835866
:1058780004010358E40083467400835544003EC283
:1058880083572401668705463EC06285CE87EF6050
:105898004016A301A40083270D0081C71145EFF02E
:1058A8007FA503C58193E30405D883C59193EFE0F1
:1058B800BFBBE30E05D68346340093071003638A03
:1058C800F600035644004E8783C581933685EFE082
:1058D8005FC4238C0192A1BB171C0020034C7C36AB
:1058E800A9B7938781929C43171C0020034C7C35F1
:1058F80091498DDFDC439DDB0145829705BF294730
:105908006390E70C83476400938C8191C1E783A778
:105918000C00A5CF03CC0700A149034574009306EA
:10592800840093772500C9C713761500130D440129
:10593800834704028358C4010358A4010357440051
:10594800034534003EC28357E401E2853EC0CE875A
:10595800EFF06FBF8347340095E7DD478358C401F4
:105968000358A40183467400835544003EC28357FC
:10597800E4016A8705463EC06285CE87EF6060070E
:10598800A301A40083A70C0009BF171C0020034C27
:105998005C2B59B7938781929C43171C0020034CBA
:1059A8005C2A9149BDDBDC43ADDB01458297B5B785
:1059B800B68536CEEFE05FE2F2462A86368D8DBF99
:1059C8000947639DE700938701929C43E38107C6DB
:1059D800DC43E38E07C42285829791B92D476399EA
:1059E800E700938701929C43E38307C49C47D5B79C
:1059F8000D476397E70022868D450355440039B16A
:105A08001947E393E7D89305610213051031EF3086
:105A180031272C1013052031EF30912603566400EE
:105A2800835781020355440063E8C7008356840006
:105A38000357610263F7E60093050002EF90200D1B
:105A4800FDB66374E6002313E40063F4D70023145F
:105A5800F4000357C4008356A400035684008355FA
:105A6800640001488147EF90400AD1B693F71500CA
:105A780081CF938701929C4389C7DC4399C3014531
:105A8800829713451900B9B693F7250081CF9387FC
:105A980081929C4389C7DC4399C305458297134586
:105AA80029000DBE93F745000145E38507B29387AA
:105AB800C1919C4391CF8547171700202304F718FD
:105AC800938781929C4389C7DC4399C30545829794
:105AD800971700209387C716C8472C10EF80001F20
